:020000040800F2
:1000000000500020CD010008B1100008B510000814
:10001000B9100008BD100008C11000080000000061
:10002000000000000000000000000000F17D00085A
:10003000C510000800000000817E0008C57E000891
:100040002D0200082D0200082D0200082D020008D4
:100050002D0200082D0200082D0200082D020008C4
:100060002D0200082D0200082D0200082D020008B4
:100070002D0200082D0200082D0200082D020008A4
:100080002D0200082D0200082D0200082D02000894
:100090002D0200082D0200082D0200082D02000884
:1000A0002D0200082D0200082D0200082D02000874
:1000B0002D0200082D0200082D0200082D02000864
:1000C0002D0200082D0200082D0200082D02000854
:1000D0002D020008E51700082D0200082D02000877
:1000E0002D0200082D0200082D020008000000006B
:1000F0000000000000000000000000000000000000
:0C01000000000000000000005FF808F1A3
:10010C003C6D637573683E003230313931303136B5
:08011C002D3136343032310080
:020124000000D9
:0801280070A6000001000000B8
:1001300070B4840746D0541E002A41D0CDB2034685
:1001400002E0621EE4B3144603F8015B9A07F8D19B
:10015000032C2ED9CDB245EA05250F2C45EA0545DD
:1001600019D9264603F11002103E0F2E42F8105CFA
:1001700042F80C5C42F8085C42F8045C02F11002A0
:10018000F2D8A4F1100222F00F0204F00F04103292
:10019000032C13440DD91E462246043A032A46F87E
:1001A000045BFAD8221F22F003020432134404F045
:1001B00003042CB1C9B21C4403F8011BA342FBD1B8
:1001C00070BC704714460346C2E700BF002103E03D
:1001D0000F4B5B58435004310E480F4B42189A4264
:1001E000F6D30E4A02E0002342F8043B0C4B9A423D
:1001F000F9D30C4A03E05FF0A53342F8043B0A4B05
:100200009A42F8D300F014F807F018FF7047000086
:1002100014C00008000000206008002060080020D2
:10022000700C0020004C002000500020FEE7000071
:1002300030B43C4B3C49186882B040F00100186073
:100240005D6800202940596019684FF41F0421F0AF
:10025000847121F48031196019681A4621F48021D3
:100260001960596821F4FE0159609C60009001906A
:10027000196841F48031196003E0009BB3F5A06F69
:1002800009D0136803F400330193009B01330093FA
:10029000019B002BF1D0234B1B6813F4003318BFD4
:1002A00001230193019B012B06D0204B4FF00062EC
:1002B0009A6002B030BC70471D4A1A4B106819464C
:1002C00040F010001060106820F00300106010680B
:1002D00040F0020010605A685A605A685A605A68C2
:1002E00042F480625A605A6822F47C125A605A685A
:1002F00042F4E8125A601A6842F080721A600B6881
:10030000084A9B01FBD51146536823F00303536051
:10031000536843F0020353604B6803F00C03082B4F
:10032000FAD1C2E7001002400000FFF800ED00E043
:100330000020024040F0BF60024B40F40030D86023
:10034000704700BF00ED00E0C3785BB9037801217E
:100350005A09174803F01F03203201FA03F340F84B
:100360002230704730B4134A4378D2688178D24340
:100370000F24C2F30222D440C2F1040503FA05F2AD
:1003800004EA0103017813431B0101F16042DBB26F
:1003900002F5614282F800330378012203F01F0066
:1003A00003495B09824041F8232030BC704700BFFD
:1003B00000E100E000ED00E008B5174B984212D0D4
:1003C000164B98421BD0164B984200D008BD4FF4F4
:1003D0000040012100F0BAFBBDE808404FF40040A6
:1003E000002100F0B3BB4FF40070012100F0AEFB20
:1003F000BDE808404FF40070002100F0A7BB4FF4A7
:100400008060012100F0A2FBBDE808404FF480604D
:10041000002100F09BBB00BF0024014000280140E8
:10042000003C014042680B6822F4702230B422F490
:1004300080720C79134343EA0423436085688C6817
:10044000CA68094B22432B404C79134343EA4403C7
:1004500083600A7CC36A013AD2B223F4700343EA90
:100460000253C36230BC7047FDF7F1FF836819B9CE
:1004700023F001038360704743F0010383607047FA
:10048000836819B923F480738360704743F48073E1
:1004900083607047836843F008038360704700BF40
:1004A0008068C0F3C0007047836843F00403836032
:1004B000704700BF8068C0F380007047836819B937
:1004C00023F4A0038360704743F4A0038360704764
:1004D000092970B41CD9A1F10A0404EB4404C568CD
:1004E0000726A640A34025EA06042343062AC36044
:1004F0001AD90C2A25D90D3AC46A02EB82021F23AD
:10050000934024EA030391401943C16270BC7047D1
:1005100001EB410605690724B440B34025EA040411
:100520002343062A0361E4D8013A446B02EB8202BA
:100530001F23934024EA030391401943416370BC95
:100540007047073A046B02EB82021F23934024EAB0
:10055000030391401943016370BC70474FF6FE726C
:1005600003683A491A4088424FF000030260036072
:1005700043608360C36027D0354B98422AD0354B07
:1005800098422DD0344B984230D0344B984239D0D9
:10059000334B98423CD0334B98420FD0324B984269
:1005A0003CD0324B98423FD0314B984242D0314BF5
:1005B000984245D0304B98421ED070472F4A53681E
:1005C00043F07063536070472C4A536843F00F0345
:1005D00053607047294A536843F0F00353607047F3
:1005E000264A536843F4706353607047234A536844
:1005F00043F4704353607047214A536843F47023B7
:100600005360DAE71D4A536843F470235360704720
:100610001A4A536843F4700353607047184A53688A
:1006200043F00F0353607047154A536843F0F003DB
:1006300053607047124A536843F4706353607047C5
:100640000F4A536843F470435360704708000240F8
:100650001C000240300002404400024058000240AA
:100660006C00024080000240080402401C0402406A
:10067000300402404404024058040240000002409A
:10068000000402408A6830B40D6A0B692A434D6940
:1006900013438A691D43CB6945EA02044D6A026827
:1006A00023438C6A1D4322F4FF432C4323F0700341
:1006B00023430360CB6830BC43600B6883604B68A6
:1006C000C360704729B94FF6FE7302681340036098
:1006D0007047036843F001030360704770B4CD783E
:1006E000EB0648BF8B7805F00F0448BF1C430B880E
:1006F00013F0FF0F30D013F00106026840F03C8188
:1007000003F00205ADB2002D40F01C8103F004059A
:10071000ADB2002D40F0238103F00805ADB2002DED
:1007200040F0DC8003F01005ADB2002D40F0E38016
:1007300003F02005ADB2002D40F0EA8003F0400543
:10074000ADB2002D40F0F18003F080039BB2002B8E
:1007500040F01E8102600B88FF2B29D903F48075BD
:10076000ADB24268002D32D103F40075ADB2002D58
:1007700040D103F48065ADB2002D4ED103F4006585
:10078000ADB2002D5CD103F48055ADB2002D6AD11D
:1007900003F40055ADB2002D78D103F48045ADB21D
:1007A000002D40F0878003F400439BB213B94260F0
:1007B00070BC7047CD7864F31F72282D04BF43616D
:1007C000CD78482D04BF4FF400430361EFE7CB78A9
:1007D00022F00F02282B42EA040200F0F480482B9A
:1007E00004BF4FF4807303610B8803F40075ADB24E
:1007F000002DBED0CB7822F0F002282B42EA041262
:1008000000F0DE80482B04BF4FF4007303610B88B7
:1008100003F48065ADB2002DB0D0CB7822F47062C5
:10082000282B42EA042200F0C880482B04BF4FF472
:10083000806303610B8803F40065ADB2002DA2D084
:10084000CB7822F47042282B42EA043200F0B280C6
:10085000482B04BF4FF4006303610B8803F48055F9
:10086000ADB2002D94D0CB7822F47022282B42EA2E
:10087000044200F09C80482B04BF4FF48053036176
:100880000B8803F40055ADB2002D86D0CB7822F44E
:100890007002282B42EA045200F08680482B04BFE5
:1008A0004FF4005303610B8803F48045ADB2002D73
:1008B0003FF479AFCB7822F07062282B42EA0462D1
:1008C0006FD0482B04BF4FF4804303610B8803F4BF
:1008D00000439BB2002B3FF46AAF6BE7CE7822F463
:1008E0007042282E42EA043270D0482E7FF41AAFAC
:1008F00005610B8816E7CE7822F47022282E42EA92
:1009000004426BD0482E7FF413AF05610B880FE7CC
:10091000CE7822F47002282E42EA04525BD0482E90
:100920007FF40CAF05610B8808E7CE7822F0706287
:10093000282E42EA04625DD0482E7FF405AF05619F
:100940000B8801E7CE7822F0F002282E42EA04124A
:100950004DD0482E7FF4DAAE05610B88D6E6CE780E
:1009600022F47062282E42EA04223DD0482E7FF401
:10097000D3AE05610B88CFE622F00F02282D42EAA4
:1009800004022ED0482D7FF4BBAE06610B88B7E67B
:10099000CD7864F31F72282D1BD0482D08BF03614A
:1009A000D8E64561CB788CE74561CB7876E7456141
:1009B000CB7860E74561CB784AE74561CB7834E78F
:1009C0004561CB781EE74561CB7808E745610B8828
:1009D000A8E64361BEE645610B88AFE645610B883A
:1009E000A6E646610B888BE645610B8894E6456177
:1009F0000B888BE645610B88A6E600BF4FF6FF71BA
:100A00000222042301808270C3707047806880B224
:100A1000704700BF0161704741617047C160704716
:100A2000014B1860704700BF00300040014B586018
:100A3000704700BF00300040014B9860704700BF16
:100A4000003000404AF6AA22014B1A60704700BFEE
:100A500000300040034A536823F440431843506079
:100A6000704700BF0010024030B4214A536803F0C1
:100A70000C03042B06D0082B25D01BB11D4A1346AE
:100A8000026001E01B4B0360194A1B4C51681B4D6F
:100A9000C1F30311615CCB4043605168C1F3022193
:100AA000615C23FA01F181605168C1F3C221615C8C
:100AB000CB40C3605268C2F38132AA5C30BCB3FB46
:100AC000F2F30361704753685168C3F38343C9036A
:100AD00003F1020307D55268920304D4054A02FBCE
:100AE00003F30360D0E7064A02FB03F30360CBE79E
:100AF0000010024000127A0034040020300400206C
:100B000000093D00044A536919B923EA0000506105
:100B1000704718435061704700100240044A9369BF
:100B200019B923EA0000906170471843906170473B
:100B300000100240044AD36919B923EA0000D061C9
:100B400070471843D061704700100240044AD368D0
:100B500019B923EA0000D06070471843D06070478D
:100B600000100240274A038890429BB212D002F53F
:100B7000006290420ED0B0F1804F0BD0A2F59832B7
:100B8000904207D002F58062904203D002F5806265
:100B9000904203D14A8823F0700313431A4A9042CB
:100BA00027D002F58062904223D0CA8823F4407394
:100BB0009BB2134303808A88124B82850A8898422D
:100BC000028511D0114B98420ED003F54063984234
:100BD0000AD003F58063984206D003F580639842FB
:100BE00002D00123838270470B7A0386012383821C
:100BF000704703808B8883850B880385012383825C
:100C0000704700BF002C014000100040003401403C
:100C1000038CF0B423F001031B041B0C0384048C2D
:100C20008788028B4E8824F002040B891B4D240414
:100C300022F07302240C334312040E882343120C57
:100C4000A8429BB2BCB242EA060216D005F5006586
:100C5000A84212D005F54065A8420ED005F5806582
:100C6000A8420AD005F58065A84206D08480028398
:100C7000CA88F0BC8286038470474E89CF898D89EB
:100C800023F00803334324F440748E883D4323F05B
:100C900004032C433343A4B2E8E700BF002C014017
:100CA000038CF0B523F010031B041B0C0384038C8E
:100CB0008588028B23F020031B04B1F808E022F49E
:100CC000E6420C88184E1B0C4F88120443EA0E13A0
:100CD000120C43EA071342EA0422B0429BB2ADB2BF
:100CE00094B208D0114A904205D085800483CA8806
:100CF00002870384F0BD4FF6BF7623F080024B8954
:100D000092B2B1F80CE042EA031225F440658B88F8
:100D1000CF89164045EA8E0546EA031345EA870562
:100D20009BB2ADB2E1E700BF002C014000340140AE
:100D3000038CF0B523F480731B041B0C0384038C19
:100D4000848823F40073828B0D891B04194E1B0CBD
:100D50004F8822F0730243EA052312040D8843EA08
:100D60000723120CB0429BB2A4B245EA020509D097
:100D700006F50066B04205D084808583CA888287E4
:100D80000384F0BD4FF6FF3623F400624B8992B224
:100D9000B1F80CE042EA032224F440548B88CF8956
:100DA000164044EA0E1446EA032344EA07149BB2B1
:100DB000A4B2E1E7002C0140038CF0B523F480538A
:100DC0001B041B0C0384028C8488838B22F4005246
:100DD0001204B1F808E023F4E643114D120C4F88D9
:100DE0001B040E8842EA0E321B0C42EA073243EA29
:100DF0000623A84292B2A4B29BB20AD005F50065C0
:100E0000A84206D084808383CB88A0F84030028437
:100E1000F0BD8D8924F4804444EA8514A4B2F1E73E
:100E2000002C0140038829B923F001031B041B0C8B
:100E3000038070479BB243F001030380704700BFFB
:100E400001858282704700BF818470478185704729
:100E5000818670470187704781877047A0F84010EE
:100E6000704700BF70B504460D46038ACA889BB21E
:100E700023F440531343038282898B88088992B2FA
:100E80004989034322F4B0520B4322F00C0213436E
:100E90009BB2A381A38AAA899BB223F4407386B034
:100EA0001343A38201A8FFF7DFFD1B48039B0499AE
:100EB000A289844208BF0B4612B2002A2A6803EBBB
:100EC0008303B4BF5200920003EB8303B3FBF2F33E
:100ED000124EA589A6FB03202DB240096422002DE5
:100EE00000FB12334FEA00100ADB1A013232A6FB74
:100EF0000223C3F3431303439BB2238106B070BDA7
:100F0000D9003231A6FB0131C1F3421242EA00039B
:100F10009BB2238106B070BD003801401F85EB51A4
:100F2000838929B923F400531B041B0C8381704768
:100F30009BB243F400538381704700BF10B401F0AB
:100F40001F04C1F342110123012903FA04F311D054
:100F500002290CBF1030143032B9026822EA0303B0
:100F600003605DF8044B70470268134303605DF84B
:100F7000044B70470C30EFE7C1F3080181807047E4
:100F80008088C0F308007047C94389B20180704768
:100F9000C1F3421210B4012301F01F04012A03FA25
:100FA00004F316D0022A0CBF028A828A92B213403E
:100FB000028892B24BB1090A01238B40134214BF3D
:100FC000012000205DF8044B704718465DF8044B83
:100FD0007047828992B21340EAE700BF090A0123F1
:100FE0008B40DB439BB20380704700BF10B50024E9
:100FF00003E0204600F03AF8013400F02FF8844274
:10100000F7DB00F027FB00F009F9BDE810400020F5
:1010100007F0F6B8704700BF08B500F043FB00F0DA
:1010200041F900F0A5F900F00BF8FFF7F3FF4FF4DA
:10103000165000F047FB003018BF012008BD00BF6C
:1010400008B501204FF4805100F0EAF9BDE80840EE
:1010500001204FF4805100F033BA00BF01207047E7
:1010600001204FF4805100F033BA00BF01204FF44B
:10107000805100F025BA00BF01204FF4805100F0EC
:101080002FBA00BF08B54FF48051012000F03AFAA2
:10109000B0FA80F0400908BD08B501460C220123D2
:1010A000024800F021FE012008BD00BFE8F7FF1F45
:1010B000FEE700BFFEE700BFFEE700BFFEE700BFA0
:1010C000FEE700BFFEE700BF2DE9F04393B001A8A3
:1010D0004B4CFFF793FC4B4D0023DFF83881271D65
:1010E0008DF80730012614F8013B15F8012B06FA9C
:1010F00003F358F8220001A9ADF80430FFF7EEFA27
:10110000BC424FF00109EED149464FF40070FFF7A1
:1011100005FD4FF40040FFF79DFC3B4F3B48FFF7B8
:101120004BF900254FF460220423384802A92C46CD
:10113000029505952E468DF80C908DF80D90049231
:101140008DF818303D46FFF76DF9E1B24A1C0134C5
:10115000D2B22E480223FFF7BBF9042C25F8026B0C
:10116000F3D12A480121FFF781F928480121FFF72F
:1011700087F92648FFF78EF92448FFF791F90028F0
:10118000FAD12248FFF790F92048FFF793F9044677
:101190000028F9D101200146FFF7B4FC21461C4884
:1011A000FFF790FADFF870801948FFF7D7F94FF48E
:1011B00080764FF0040C4FF0800E20224FF48053C5
:1011C00007A94FF480651248CDF828C0CDF830E06B
:1011D0000F921093089709940B941194CDF81C80EA
:1011E0000D960E95FFF74EFA09480121FFF76AFAAE
:1011F00006480121FFF762F913B0BDE8F08300BF94
:10120000B8AC0008BCAC0008600800200024014015
:1012100008000240C0AC00084C240140F8B50D4C59
:101220000D4D271D012615F8013B14F8010B06FA98
:1012300003F100F0A3F8BC42F5D10848FFF7BCF871
:1012400007480021FFF73EFABDE8F8400448FFF7E1
:1012500085B900BFBCAC0008B8AC00080024014050
:10126000080002400000000008B50B4B33F81000E6
:1012700007F086FD07F06CF905A3D3E9002307F01A
:10128000BBF90022054B07F0B7F907F06FFC08BD6A
:101290006666666666660A40600800200000303FA9
:1012A000042070474FF44070FFF744B8431E0028F5
:1012B00044D000BF00BF00BF00BF00BF00BF00BFE1
:1012C00000BF00BF00BF00BF00BF00BF00BF00BF26
:1012D00000BF00BF00BF00BF00BF00BF00BF00BF16
:1012E00000BF00BF00BF00BF00BF00BF00BF00BF06
:1012F00000BF00BF00BF00BF00BF00BF00BF00BFF6
:1013000000BF00BF00BF00BF00BF00BF00BF00BFE5
:1013100000BF00BF00BF00BF00BF00BF00BF00BFD5
:1013200000BF00BF00BF00BF00BF00BF00BF00BFC5
:1013300000BF00BF00BF13F1FF33BAD2704700BF38
:1013400041F2707282B010F1FF300CD30192019B18
:10135000002BF8D0019B013B0193019B002BF9D19D
:1013600010F1FF30F2D202B0704700BF0720704783
:101370004FF4FE700121FFF7D1BB00BF2DE9F04112
:10138000032282B0482380460D460F4F8DF8062079
:101390008DF807300024012602E00134202C0FD004
:1013A00045FA04F3DB07F8D506FA04F357F82800EA
:1013B00001A90134ADF80430FFF790F9202CEFD1EA
:1013C00002B0BDE8F08100BFC0AC00082DE9F041DB
:1013D000002A82B014BF48222822032380460D46EB
:1013E0000E4F8DF807208DF806300024012602E00C
:1013F0000134202C0FD045FA04F3DB07F8D506FAA8
:1014000004F357F8280001A90134ADF80430FFF7C0
:1014100065F9202CEFD102B0BDE8F081C0AC000826
:101420002DE9F041032282B0102380460D460F4F74
:101430008DF806208DF807300024012602E00134E3
:10144000202C0FD045FA04F3DB07F8D506FA04F395
:1014500057F8280001A90134ADF80430FFF73EF930
:10146000202CEFD102B0BDE8F08100BFC0AC000875
:101470002DE9F041032282B0142380460D460F4F20
:101480008DF806208DF807300024012602E0013493
:10149000202C0FD045FA04F3DB07F8D506FA04F345
:1014A00057F8280001A90134ADF80430FFF716F908
:1014B000202CEFD102B0BDE8F08100BFC0AC000825
:1014C000024B89B253F82000FFF7A4BAC0AC000861
:1014D000024B89B253F82000FFF79EBAC0AC000857
:1014E00038B5074B0C4653F820502846FFF78EFAC4
:1014F00080EA040189B22846BDE83840FFF78EBA79
:10150000C0AC0008044B10B553F820000C46FFF7A0
:101510007DFA204010BD00BFC0AC00082DE9F04F9F
:101520008046012089B00F46424C01461646424D86
:10153000FFF700FBDFF818B10322182304F1040AB7
:101540008DF802208DF803304FF0010914F8013BAB
:1015500015F8012B09FA03F35BF822006946ADF890
:101560000030FFF7BBF85445F0D10025B8F1000F6B
:101570004FF0804001A9314CADF80650ADF80A504B
:10158000ADF80450ADF8085008BF4FF47A78FFF773
:10159000E9FA60220123ADF81650ADF81850ADF805
:1015A000102004F11005ADF8123054F8043B4FF050
:1015B000804004A99847AC42F7D14FF08040012108
:1015C000FFF730FC002FDCBF64273B461C4CC8BF34
:1015D000BBB24FF0804000212380FFF735FC21880B
:1015E0004FF08040013989B2FFF730FC07FB08F764
:1015F000144B4FF0804019680122B1FBF7F7791EB8
:1016000089B2FFF71DFC002EABBFB6B232273746BA
:101610003E460D4C0D4D04F1100854F8043B4FF0BC
:10162000804031469847444525F8027BF5D109B002
:10163000BDE8F08FDCAC000800AD0008F0AC00089D
:10164000440400202C040020E0AC000868080020BE
:10165000C0AC0008F8B5074C074D271D012615F84A
:10166000013B14F8010B06FA03F1FFF787FEBC42B9
:10167000F5D1F8BD00AD0008DCAC000838B5044673
:101680000D46054B89B253F820304FF08040984703
:10169000024B23F8145038BDE0AC00086808002065
:1016A0000420704708B545F25550FFF7B9F940F6E8
:1016B000FF70FFF7C1F9BDE808400220FFF7B6B997
:1016C000FFF7C0B970B5012186B000220546802021
:1016D00005F09CF93D4C012120600022802005F09E
:1016E00095F93B4E24683060002C6CD0002868D0FF
:1016F0002046384905F060FD3068374905F05CFD4B
:1017000036484FF45871FFF73FFC0022334840F64B
:101710006F71FFF713FC04200121FFF7FFF94FF46D
:1017200080400121FFF7FAF94FF480644822032337
:1017300069462B48ADF800408DF803208DF8023043
:10174000FEF7CCFF18234FF40072694624488DF849
:101750000330ADF80020FEF7C1FF002D14BF2B466B
:101760004FF4165300250C221C4802A90293ADF831
:101770001220ADF80C50ADF80E50ADF81050ADF889
:101780001450FFF76FFB15480121FFF7C9FB134801
:101790004FF45871FFF7F8FB104840F22551012231
:1017A000FFF7CCFB012425220A2301A88DF806505F
:1017B0008DF804208DF805308DF80740FEF7C4FD44
:1017C000204606B070BD204606B070BD900B0020CC
:1017D0008C0B002004AD000808AD00080038014063
:1017E0000008014010B52D4882B0002440F2277156
:1017F0000194FFF7CDFB012819D0284840F225516C
:10180000FFF7C6FB012822D0244840F22531FFF71C
:10181000BFFB012833D0019B3BB1214B4FF08052DD
:101820001A60BFF34F8FBFF36F8F02B010BD1D4B17
:101830000DF10301186801AA05F06EFC012827D0FC
:101840002246164840F22771FFF778FBD5E7134888
:10185000FFF796FB144B02A901F8050D01AA1868C1
:10186000002305F06DFA0D4840F22551FFF7B6FB55
:101870000A4840F22531FFF78BFB0128CBD10748FE
:10188000FFF77EFB054840F22531FFF7A7FBC2E7D3
:1018900002489DF80310FFF76FFBAEE700380140E8
:1018A00004ED00E08C0B0020900B0020012070471D
:1018B00008B5064B0021186805F060F8044B0021BC
:1018C0001868BDE8084005F059B800BF900B00202B
:1018D0008C0B002010B5074B044601464FF0FF3239
:1018E000186805F091FA002814BF20464FF0FF3029
:1018F00010BD00BF900B002010B5064B04460A46F1
:101900000146186805F080FA002814BF20464FF001
:10191000FF3010BD900B00202DE9F041B1F100081F
:1019200082B022DD0546144E00EB080701E006F008
:1019300043F82C784FF0FF3230680DF10701002397
:101940008DF8074005F0A4F8012802464FF0010089
:10195000EDD1054440F227710848FFF7EFFABD4288
:10196000E7D1404602B0BDE8F0814FF000084046A4
:1019700002B0BDE8F08100BF8C0B002000380140B0
:1019800030B5054683B00D4C01E006F015F84FF078
:10199000FF3220680DF1070100238DF8075005F094
:1019A00077F8012802464FF00100EED1044840F2DA
:1019B0002771FFF7C3FA03B030BD00BF8C0B0020C6
:1019C000003801400023037043704360704700BF3C
:1019D000F0B51D780144012D5C7848D045D3022D27
:1019E00041D18842154639D007782A4E44EA9714E7
:1019F0003F2C98BF16F804E007F03F04365D88BF1F
:101A00004FF03D0E85F800E06E705E6801300136E3
:101A1000132E5E602DD00235884236D004781D4EDC
:101A2000A708F65D04F00304013024012E7005F1CF
:101A3000010E884223D00778013044EA17143F2C66
:101A400096BF144E3D26365D07F00F0488420EF116
:101A500001054FEA84048EF80060C5D102215C7054
:101A6000A81A1970F0BD0020F0BD1546D4E79646BF
:101A7000DFE70A270026AF7003355E60CCE701215F
:101A80005C70C2EB0E001970F0BD00215C70A81AEA
:101A90001970F0BD0CAD00080B78012B17D0022B8C
:101AA00005D003460A2203F8012B181A70474B7819
:101AB0003F2B96BF0E4A3D21D15C03463D2203F8E1
:101AC000021B42700A2203F8012B181A70474B7848
:101AD0003F2B96BF064A3D22D25C3D2302704370E5
:101AE00083700A22C31C03F8012B181A704700BF29
:101AF0000CAD00080023037043707047F0B45C78AD
:101B000014701C78032C7FD8DFE804F04E341A02DE
:101B1000164601443D4F88425AD010F8015BA5F1AA
:101B20002B042A2DE4B2F6D9502CF4D83C5D2506BE
:101B3000F1D4357804F03F042C433470013635E09D
:101B400016460144314F884249D010F8015BA5F197
:101B50002B042A2DE4B2F6D9502CF4D83C57002C93
:101B6000F1DB3578C4F383073D43A401357074700D
:101B70000136CFE716460144244F884236D010F88C
:101B8000015BA5F12B042A2DE4B2F6D9502CF4D830
:101B90003C57002CF1DB3578C4F301173D43240199
:101BA000357074700136CDE716460144174F8842F0
:101BB00023D010F8015BA5F12B042A2DE4B2F6D94D
:101BC000502CF4D83C57002CF1DBA4003470D3E740
:101BD000032119703178B01A5970F0BC7047022196
:101BE00019703178B01A5970F0BC70470121197022
:101BF0003178B01A5970F0BC7047002119703178F3
:101C0000B01A5970F0BC70470020E6E750AD0008EC
:101C1000704700BF704700BFF8B103780BB9184692
:101C2000704730B583B00D46002201A9044608F084
:101C3000EBFA019B73B19C4201D10BE0019313F8C5
:101C4000012B202AFAD0092AF8D01AB928600120DD
:101C500003B030BD002003B030BD704728B3F0B5ED
:101C6000067883B016B9002003B0F0BD14460D46C7
:101C7000002201A9074608F0C7FA019B0646002B7F
:101C8000F1D09F4201D1EEE7019313F8010B202818
:101C9000FAD00928F8D02A2809D00028E3D1034631
:101CA00001202E60236003B0F0BD0020704718466D
:101CB00001A900221F46019308F0A6FA019B002B00
:101CC000D1D09F4201D1CEE7019313F8012B202AF6
:101CD000FAD0092AF8D0002AC5D1012871F10003F1
:101CE000DDDB431EDCE700BFF0B52AB38D1C87188F
:101CF00004780235240904F1300604F1370E092C6A
:101D000094BF3446744605F8044C10F8014B04F0B7
:101D10000F0404F1300604F1370E092C94BF344649
:101D20007446B84205F8034CE2D101EB42020BB114
:101D3000002313700846F0BD0A46F8E7F8B50446DC
:101D40000F4616461D4600211822FEF7F1F92760BE
:101D50006660A560F8BD00BF034600222DE9F04F84
:101D600003F8012B0133427003F8012B03F8012B18
:101D700003F8012B03F8012B03F8012B1A70CE682E
:101D80008B6883B09E424CD2D1F804800C4658F840
:101D9000267005467B490222384608F03FF9F8B91B
:101DA000237DD80741D5226813786BB1002102E06A
:101DB00012F8103F43B1042BFAD123698B4201F191
:101DC0000101F5D1134621612B60E3686268591C5B
:101DD000E16052F8233001206B6003B0BDE8F08F62
:101DE0003B782D2BDFD1237DDA07DCD4731CE36035
:101DF00058F826707A78002A72D02668337823B98A
:101E00006EE016F8103F002B6AD0013B012BF8D88A
:101E1000B3789342F5D12E603378022B73D0012032
:101E2000DBE7104603B0BDE8F08F731CE36058F8A1
:101E300026303D2118461E46019308F039F906F177
:101E400002098046002875D0C9EB00062268137885
:101E5000002B4AD0924626B93CE01AF8103F002BDE
:101E600043D0013B012BD346F7D8DAF80470002F9A
:101E7000F3D0384608F0A4F88642EED139464846F9
:101E8000324608F0CBF80028E7D1C5F800B09BF83F
:101E90000030032B05D1237D43F0010323759BF80C
:101EA0000030022BBBD1B8F1000F58D008F101036C
:101EB0006B6098F80130002BB1D19BF80130990785
:101EC00034D500236B60012087E7012A12D91AF864
:101ED000103F53B1032B03F1FF32D346F5D1D4E7C2
:101EE000002385E88800012077E7019A00236A60D3
:101EF0002B6094E7DAF804000028E8D008F060F8D6
:101F00000028E4D1C1E7384608F05AF8022816D96B
:101F1000BB1C6B60BB783D2B81D1FB1C6B60FB78DD
:101F2000002B7FF47CAF73789B07CAD4164B01203B
:101F30006B6052E7484608F043F8064686E7737838
:101F400013F0020FE36810D0A1685A1C8A42B8D877
:101F50006168E26051F8233001206B603DE79BF837
:101F6000013013F0020FE368EED1A268591C9142D0
:101F7000DCD8626852F8230000782D287FF428AF5F
:101F8000D4E700BFA0AD00087CBD000870B50246D4
:101F90000E465948594904F03FF8002825DB3378AC
:101FA00006F1100423B94FE014F8103B002B4BD07E
:101FB00014F80F5C6807F7D4514804F02DF8002896
:101FC00013DB14F8103C022B12D0042B05F0010592
:101FD00018D0052B24D0032B73D014F80E1CC9B1D4
:101FE000484804F019F80028DEDA4FF0FF3070BDE1
:101FF000A9071DD454F80C1C54F8082C424804F0CE
:102000000BF8F0E7002D60D154F80C1C3F4804F0A9
:1020100003F8E8E754F80C1C3D4803F0FDFFE2E745
:10202000002D58D154F80C1C3A4803F0F5FFDAE7BC
:1020300014F80E1C002954D154F80C1C54F8082C28
:10204000354803F0E9FFCEE73448354903F0E4FFB3
:1020500033780546344683B924E06268002A46D0C6
:10206000304803F0D9FF0546002DBEDBE068D8B14B
:1020700003F082FF14F8103FA3B162785207F9D43D
:10208000032BF7D0E0680028F4D0043B012B0FD9D4
:10209000A1780029E1D1616881B1234803F0BCFF38
:1020A0000546E1E7E81770BD204803F04FFFE1E780
:1020B0001F48616803F0B0FF0546D5E7002DD7DA69
:1020C00093E71C4803F0A8FF8DE754F80C1C1A484E
:1020D00003F0A2FF87E754F80C1C184803F09CFF9C
:1020E00081E754F8082C164803F096FF7BE7154863
:1020F00003F092FF0546B7E7A4AD0008F8BD00085D
:10210000C8BC000800AE0008CCAD0008E4AD000873
:1021100008AE0008F4AD0008C0AD0008ACAD000882
:1021200008BE000818AE000828AE0008FCB8000879
:1021300010AE0008A0AD0008DCAD0008ECAD000852
:10214000B4AD000834AE0008F8B54B680D4607463C
:1021500016465BB118460D4907F0F6FD044628B94E
:1021600038463146FFF712FF2046F8BD0849094AB4
:10217000094803F051FF686803F0FEFE3846314617
:10218000FFF704FF4FF0FF34EEE700BF48AE000852
:10219000C8BD000870BD000850AE0008F0B5002AA8
:1021A000059C069F6CDD91F800C0BCF1000F2FD09C
:1021B0000E46002516F801EF0135BEF1000FF9D1EA
:1021C000AA4226DC724613F0020F0CBF4FF0200E1D
:1021D0004FF0300E13F001031DD1002A14DD3B68CF
:1021E00000285FD015469C4208D9036883F800E0B8
:1021F0000368013303603B6801333B60013DF2D16A
:1022000091F800C01346002266464EB91846F0BD4C
:102210006546521BD7E76646BCF1000F5BD0002332
:102220003D6840B3AC4207D905682E70056801359A
:1022300005603D6801353D6011F8016F0133002EE6
:10224000F0D1002AE2DD3968002836D015468C42EC
:1022500008D9016881F800E001680131016039683E
:1022600001313960013DF2D19818F0BD11F8016FCC
:102270000133002EE5D0AC42F8D96FF00100F0BD7B
:1022800013F0010307D191F800C04FF0200E66460D
:10229000002EC5D1BAE70E784FF0200E002EBED129
:1022A0003046F0BD054601E0013A11D09C4205F1EF
:1022B0000105F9D96FF00100F0BDD01801E08342AB
:1022C00008D08C4203F10103F9D96FF00100F0BD91
:1022D0002A4697E7F0BD6346B3E700BFF0B587B085
:1022E0000F46109D002949D00C468646002B30D160
:1022F00000238DF817300DF11701002F35D01E4641
:102300000E9B0DF11701A3F13A07B4FBF2F302FBA8
:1023100013443819092CC8BF0446303401F8014D64
:102320001C46002BF1D106B30C9B002B38D12D237A
:1023300001F8013C0C9A002401390F9B70468DE88E
:1023400028000D9BFFF72AFF002800DB204407B080
:10235000F0BD0A2ACCD10029CADA00234C428DF8FC
:102360001730002C3BD00126CAE7119BABB12B23C1
:1023700001F8013C002401390C9ADEE70F9B302460
:102380008DE8280003A90C9A0D9B8DF80D708DF82F
:102390000C40FFF703FF07B0F0BD1C460C9ACCE7DA
:1023A0000D9B9B07C3D52B680F9A9A420ED9BEF19D
:1023B000000F11D0DEF800302D221A70DEF8003048
:1023C0000133CEF800302B6801332B600C9B0124C5
:1023D000013B0C931A46B0E76FF00100B7E70DF12F
:1023E0001701A1E72DE9F04FB3B002F1FF3B1D78D3
:1023F0003C9A002407460B9112940792002D00F09E
:10240000E483A146DA4680461A4619E0129B9A45B3
:102410000ED9B8F1000F00F08D80D8F800301D7093
:10242000D8F80010129B01310133C8F80010129344
:10243000144609F101096578621C002D00F0D08076
:10244000252DE3D15378541C002B00F0C980252B97
:1024500075D02D2B03BF9378941C012600262B2BBF
:102460006FD00022099203E014F8013F46F0020603
:10247000302BF9D02E2B33D0A3F13002D2B2092A5F
:102480002ED90622089200276C2B04BF63780134F2
:10249000682B5BD0583B202B44D8DFE813F06E0349
:1024A0004300430043004300430043004300430014
:1024B00043004300B501FE018901C500C50043008A
:1024C0004300430043004300430043004300D00166
:1024D00043004300AE0043002502430043001702BF
:1024E000002706232246BB461D46144612F8013B30
:1024F000A3F130012E2BC8B20ED0092805EB850CB4
:1025000007EB870E0CD8BBF1000F02D000EB4C0597
:10251000EBE701EB4E07E8E700254FF0010BE4E79E
:102520000895B1E7129B9A4540F20F82B8F1000F6F
:1025300040F0F3816FF0010033B0BDE8F08F224628
:1025400064E7012263780992144491E763780134C7
:10255000583B202BE6D801A252F823F0872B000825
:102560002525000825250008252500082525000823
:102570002525000825250008252500082525000813
:102580002525000825250008092800087D290008C0
:10259000B12700082926000829260008252500085B
:1025A00025250008252500082525000825250008E3
:1025B0002525000825250008252500086129000893
:1025C0002525000825250008FB25000825250008ED
:1025D000712900082525000825250008652900081F
:1025E00047460B9B13F0010303D1002FA2D03A689A
:1025F0001370484633B0BDE8F08F079BB74D19689C
:1026000012A8002908BF294601903A463346CDF862
:1026100000A04046079DFFF7C1FD002805F1040515
:102620008ADB8144079506E7079B002203F1070E2A
:102630002EF0070EDEF800300C931846DEF804305A
:102640001D460A93294600230EF10805079506F05A
:1026500045FA002840F07182099B002B40F07881F8
:102660001DAB9B460D93089B072B0ED81D469C4B1C
:102670000C9803EBC5030A99D3E9002305F00AFE81
:102680000C900A91002D00F08482089D0023012007
:10269000013300EB8000AB424FEA4000F8D10895CF
:1026A00005F034FFCDE90E010C980A9906F03EFAC8
:1026B00003460990002800F06881DFF828C2089DD1
:1026C0000DF14B0E0020ACFB0312D20802EB82018D
:1026D000A3EB410330330EF8013F01301346002ACB
:1026E000F1D10DF14C0E0EEB00030BF1FF3213F89C
:1026F000011D734502F8011FF9D12B46089583444B
:10270000002B43D0099805F001FF02460B460C98B8
:102710000A9905F0BDFDDDE90E2305F06DFF06F019
:1027200005FA2E238BF80030002800F05082DFF8E5
:10273000B4C1089D0DF14B0E0021ACFB0023DB085A
:1027400003EB8302A0EB4202303201310EF8012F7D
:102750001846002BF1D18D42089598BF0DF14C0E13
:1027600040F2F7810DF14C0E4B1E089D7344302250
:1027700001318D4203F8012F4FF03000F8D80029C5
:1027800040F0E7818BF801000BF1020B12A8002545
:102790000190CDF800A00D993A46334640468BF89B
:1027A0000050FFF7FBFC0028FFF6C6AE814442E66E
:1027B000079B073323F00703D3E90001083307938E
:1027C00006F0D4F9054605F045FD002840F0E48008
:1027D0006E2361228DF874308DF876308DF8752077
:1027E0000DF1770E12A900250191CDF800A03A460F
:1027F000334640461DA98EF80050FFF7CFFC002855
:10280000FFF69AAE814416E6079B12A9D3F800E0C2
:102810003A4633460191CDF800A00025404611A963
:10282000079E8DF844E08DF84550FFF7B7FC00286F
:1028300006F10406FFF680AE81440796FBE5002012
:10284000D8F8003030221A70D8F800307822591C9D
:10285000C8F800105A70D8F80030079A0133C8F849
:1028600000301346043309F102091168079300B1DF
:1028700089B24122099812AB059002920493009705
:102880000196CDF80CA0404610220023FFF726FD4C
:102890000028FFF651AE8144CDE5079A1346116832
:1028A000043307930998612212AB059002920493B6
:1028B00000970196CDF80CA040460A220123FFF7AD
:1028C0000DFD0028FFF638AE8144B4E5079A1346A3
:1028D0001168043307936122CCE700BF58AE0008AB
:1028E00060AE0008CDCCCCCC079A134611680433F7
:1028F00007930998612212AB059002920493009706
:102900000196CDF80CA040460A220023FFF7E6FC12
:102910000028FFF611AE81448DE5D8F8003025225D
:102920001A70D8F80020129B511C0133C8F800100F
:102930009A452178129308D95170D8F80020129B3B
:1029400001320133C8F80020129309F1020972E53F
:102950002B238DF874301DAB0DF1750B0D9382E6B2
:1029600001206DE7079A1346043311880793B2E7F5
:10297000079A1346043311880793BAE7079A134658
:102980000433B2F9001007938CE730238BF8003042
:102990000BF1010B089BB3E6284605F05BFC012810
:1029A000284640F2FB8005F053FC002800F0DD8053
:1029B00005F100452D2328464FF07E518DF87430E7
:1029C00006F0D0FB002840F0FD80824B089309946C
:1029D0004FF0000B089C06E02846214606F024FA3A
:1029E00005460BF1010B7C49284606F0CFFB4FF062
:1029F0007E5118B9284606F0B5FB28B128460021BB
:102A000006F0A6FB0028E7D0284606F0D3FB2E23CD
:102A100000F130028DF875208DF8763006F0B0F9AF
:102A20000146284606F0F6F86A49054606F0B0FA6F
:102A300006F0C0FB00F130038DF8773006F0A0F906
:102A4000644906F0F1F90146284606F0E3F86349C7
:102A5000054606F09DFA06F0ADFB00F130038DF857
:102A6000783006F08DF95D4906F0DEF9014628461A
:102A700006F0D0F85A49054606F08AFA06F09AFBA5
:102A800000F130038DF8793006F07AF9544906F0F8
:102A9000CBF90146284606F0BDF85249054606F036
:102AA00077FA06F087FB00F130038DF87A3006F0F4
:102AB00067F94C4906F0B8F90146284606F0AAF82D
:102AC0004949054606F064FA06F074FB00F130034C
:102AD0008DF87B3006F054F9434906F0A5F901461C
:102AE000284606F097F8414906F052FA06F062FBD4
:102AF000652300F130024FF080410898099C8DF861
:102B00007C208DF87D3006F04BFB80BB2B21384AB2
:102B10004FEAEB7382FB0B02C3EBA20202EB8203D0
:102B2000ABEB4303303330328DF87E108DF88030BC
:102B30008DF87F200DF1810E54E60A9A2D2302F1C3
:102B400000428DF874301DAB0A920DF1750B0D9398
:102B500089E55A460EEB010313F8010D734502F89F
:102B6000010FF9D101318B4410E6202323E7BBF19B
:102B7000000F0CBF2B212D21C9E7079A1346043300
:102B80001168079375E6079A134604331168079393
:102B90006EE6184B0022CDE90E2385E505F058FBC3
:102BA000002814BF20202D2069216E2266238DF875
:102BB00074008DF875108DF876208DF877300DF152
:102BC000780E0FE6044B089301E7A94609E5014694
:102BD000C8E500BFCDCCCC3D000020410AD7233C46
:102BE0006E12833A16B7D138ABC52737BC37863556
:102BF000676666660000F03F10B584B004AC44F828
:102C0000040D0B460092204600214FF0FF32FFF7E3
:102C1000E9FB04B010BD00BF10B4084A084C1368AB
:102C20000849002B08BF2346184410605DF8044B88
:102C3000884294BF18464FF0FF307047980B002031
:102C4000700C0020004C002038B5FEF707FA05464E
:102C500005F0E0F8002D06DD002420460134FEF7E3
:102C600005FAAC42F9D1002D06DD002420460134DE
:102C7000FEF702FAAC42F9D14FF4FA70FEF760FBAE
:102C8000F1E700BF30B5184C83B023780BB103B027
:102C900030BDFEF7C1F9E8B1144915480B78002B97
:102CA00008BF002103F028FBB8B11249124D1348A8
:102CB00000F06EF803238DE8280011480023114925
:102CC0004FF4806204F026FB2B684BB10123237084
:102CD00003B030BDFFF7B8FFDEE7FFF7B5FFE4E76D
:102CE000FFF7B2FFF2E700BF7008002024010008E0
:102CF000B0B20008E0AE00089C0B0020C0BE000887
:102D00003D650008D8AE000830B5194C83B0237873
:102D1000F3B9FEF781F928B3164917480B78002B51
:102D200008BF002103F0E8FAC8B11449144D154852
:102D300000F02EF803238DE82800134800231349E0
:102D40004FF4806204F0E6FA2B6873B1012323701C
:102D500004F0E4FB03B0BDE83040FFF775BFFFF7B8
:102D600073FFE2E7FFF770FFD6E7FFF76DFFEDE7D0
:102D70007008002024010008B0B20008E0AE00088E
:102D80009C0B0020C0BE00083D650008D8AE0008BE
:102D90002DE9F84304461E4A1E4E13683568013378
:102DA0001360037888462F2B08BF013425B12846CD
:102DB000214606F0C9FFC8B1B76827B13846214699
:102DC00006F0C2FF90B1D6F81090B9F1000F04D010
:102DD0004846214606F0B8FF40B15DB14FB102252B
:102DE000B9F1000F06D00020BDE8F8830120BDE84E
:102DF000F8830125D8F8043098470028F3D006EB73
:102E0000C50346F83540C3F804800120BDE8F883C7
:102E1000F40B0020A00B002003782F2B01D0002002
:102E200070474378EBB110B4104C22681A445278C2
:102E3000520710D02F2B0ED0013006E022681A4422
:102E40005278520707D02F2B05D001F8013B10F81C
:102E5000013F002BF2D1002301200B705DF8044BE1
:102E6000704700230B700120704700BF4C04002006
:102E700003782F2B01D0002070474378002BFAD025
:102E800010B4114A01301468E21805E02F2B0CD061
:102E900010F8013FE21823B152785207F6D12F2BD8
:102EA00003D000205DF8044B7047013003782BB14C
:102EB00001F8013B10F8013F002BF9D1002301205C
:102EC0000B705DF8044B70474C04002003782F2BE7
:102ED00001D0002070472DE9F041447888B0451CAE
:102EE0006F466A46CCB1334BD3F800E00EEB0403D7
:102EF0005B785B0711D02F2C0FD02846234604E0C7
:102F00007678760709D02F2B07D002F8013B10F80E
:102F1000013F0EEB0306002BF2D1DFF89C8000236B
:102F2000D8F800000E46137020B1394606F00CFFA9
:102F3000002839D0D8F8080018B1394606F004FF47
:102F400088B3D8F8100020B1394606F0FDFE70B302
:102F5000002074B1174B1A68131905E02F2C0CD000
:102F600015F8014F131924B15B785B07F6D12F2CAC
:102F700003D0002008B0BDE8F08101352B783A4637
:102F80002BB102F8013B15F8013F002BF9D10023CA
:102F900013700028EDD04368314638469B6B984744
:102FA00008B0BDE8F081012008EBC000D1E70220A5
:102FB000FAE700BF4C040020A00B00202DE9F047E9
:102FC000037888B02F2B80460D4600F1010410D005
:102FD0004FF00009564FBB680133BB6098F80030D2
:102FE0002F2B3FD0FB6800200133FB6008B0BDE809
:102FF000F08743786E46002B00F090804D4A1768AA
:10300000FA185278520700F089802F2B6A460DD0AB
:10301000214604E04078400708D02F2B06D002F864
:10302000013B11F8013FF818002BF3D1424F002368
:103030003868137018B1314606F086FE78B1B8686A
:1030400020B1314606F080FE00286FD03869002894
:10305000BED0314606F078FE0028B9D1022007EB39
:10306000C009B7E798F80130002BBBD0314A11688E
:10307000CA1806E02F2B09D014F8013FCA18002BFC
:10308000B0D052785207F5D12F2BABD10134237831
:103090006E466A462BB102F8013B14F8013F002B43
:1030A000F9D100231370B9F1000F9BD004F0B2FEE8
:1030B000224B5868A0B31A69A2B3DA69A2B39A6A1C
:1030C00052B15A6B042442B104F0C6FED9F8043060
:1030D00007221B681A6085E7032404EB440AD9F829
:1030E00004204FEA8A0A03EB0A08C8F8042004F017
:1030F000B3FED9F804203046136A294698470F4B8F
:1031000038B9D9F8043006221B681A60C8F80400E0
:1031100068E743F80A0004F10A0067E7324685E7EA
:103120000446DAE70124D8E70224D6E7012096E72F
:10313000F40B00204C040020A00B0020B80B002052
:10314000F8B51E4C23690133236120B30A380428E3
:103150002DD8002A1DDD4700194B3E1803EB8606CB
:10316000357A6DB93844800003445B68144EF3B17E
:103170005B6A30589847002813DB5DB10130F8BD19
:103180004FF0000E0D70013A013186F808E001257C
:10319000E8E70020F8BD0846BDE8F840114602F017
:1031A00077BB002D14BF01204FF0FF30F8BD6369DD
:1031B0004FF0FF3001336361F8BD00BFF40B002016
:1031C000B80B002070B5124C451EA369012D03F108
:1031D0000103A3610FD90A38042813D800EB40007B
:1031E0000C4B80001D186D6865B1EC6A18582346B9
:1031F000BDE87040184714460846114602F096FE96
:10320000204670BDE3694FF0FF300133E36170BDCC
:10321000F40B0020B80B0020F8B5114B0A381A6BDC
:10322000042802F101021A6314D800EB40000D4D8E
:1032300084002E1972686AB1536B28591768984731
:10324000386004F0E7FD002373602B5104F004FEA6
:103250000120F8BD5A6B002001325A63F8BD00BF4F
:10326000F40B0020B80B002003782F2B01D0002096
:1032700070472DE9F0438DB045780DF11008471CDB
:103280004246B5B1434B186843195B785B0710D0D1
:103290002F2D0ED03C462B4604E07678760708D0DA
:1032A0002F2B06D002F8013B14F8013FC618002B63
:1032B000F3D1394E002330680C46137020B14146DB
:1032C00006F042FD002863D0B06818B1414606F010
:1032D0003BFD58B1306928B1414606F035FD4FF04D
:1032E000020C28B100200DB0BDE8F0834FF0010CB6
:1032F000002D3ED0DFF89C90D9F8000043195B7890
:10330000590743D02F2D41D039462B466A4606E057
:103310009EF801E01EF0070F09D02F2B07D002F80E
:10332000013B11F8013F00EB030E002BF0D1D9F85F
:10333000001000204B195B7810705B0707D116E076
:1033400017F8015F4B19A5B15B785A070FD02F2DE5
:10335000F6D101373B780DF111022BB102F8013B98
:1033600017F8013F002BF9D10023137004E02F2D33
:10337000EFD02F23ADF8103006EBCC067368404633
:10338000DB6B214698470DB0BDE8F0836A46CEE777
:103390008446ADE74C040020A00B002001207047BC
:1033A000024600230B6018461360704700207047E8
:1033B0000020704700207047002070474FF0FF301A
:1033C000704700BF10B40F4B013853F83040ACB118
:1033D000002A0FDD03EBC0025268114400290DDB07
:1033E000A26891420ADC03EBC003084659605DF80D
:1033F000044B70471CBFA268511AEFE74FF0FF3033
:10340000F5E700BF7808002000207047034B013823
:10341000002243F830200120704700BF78080020C8
:10342000074900220B4643F8042B04334A6043F853
:10343000042B43F8042B43F8042B1A600120704737
:10344000780800202DE9F0410646114D114F002467
:1034500057F834304FEAC4082BB10134032CF7D1AC
:103460000020BDE8F081286820B9F6E755F80C0F78
:103470000028F2D0314606F067FC0028F6D1B844A7
:10348000C8F8040047F83450601CBDE8F08100BF64
:103490008CAF00087808002070B505460E46084C31
:1034A000084802E054F80C0F40B1294606F04CFCE5
:1034B0000028F7D1A3680120336070BD70BD00BF44
:1034C0008CAF000820AF0008F8B5104B013853F856
:1034D0003050BDB103EBC0067768AB68DB1B23EA55
:1034E000E3739A42A8BF1A4614460AB91046F8BDBB
:1034F00008466968394406F019F972682046144490
:103500007460F8BD4FF0FF30F8BD00BF78080020B0
:1035100038B50D46084906F017FC50B9074C084865
:10352000A1680022A84754F80C0F0028F8D1012008
:1035300038BD002038BD00BF28AF00088CAF0008A0
:1035400020AF0008F0B589B0431E0A1D0F4602A83F
:103550001C490026FEF7F2FB354602A96846FEF735
:10356000FBFB1949044680B1009BEBB15C68204627
:1035700006F0EAFB154930B1204606F0E5FB0028CD
:10358000EBD1019EE9E70125E7E7B6B1304602F04D
:10359000A1FD0F4A0F4B002814BF1046184602F039
:1035A000EBFC204609B0F0BD38686946054AFEF7D5
:1035B000CBFD0446204609B0F0BD294602F0CAFD05
:1035C0000446EEE7B0AF000820B0000824B00008C1
:1035D00004BD000830BE00082DE9F04F8FB00A1D71
:1035E000431E4FF47A754FF0FF3480460E4608A80C
:1035F000424904950594FEF7A1FB414C414D424FD1
:103600004FF0000906A808A9FEF7A6FB002858D02D
:10361000069B002B67D05B68A34248D0AB4256D0D4
:10362000BB42EFD10B9B56F8230002F053FD0B9FDA
:103630008246C7EB0803019306EB8707002840D0BA
:10364000324B98423DD0324E4FF0000B0198394634
:10365000D0478046002834D1B9F1000F04D0059B33
:103660000BF1010B9B451EDA049BFA24032B9CBF34
:103670000423049304F05AF8054604F057F8049B19
:10368000022104FB03F3A6FB032305EB93139842EB
:10369000DCD20DF10F00FEF72FF90130EDD09DF8CF
:1036A0000F30032BE9D140460FB0BDE8F08F04A9DD
:1036B0000798FEF7B1FA06A808A9FEF74DFB002807
:1036C000A6D14FF0010840460FB0BDE8F08F079833
:1036D00005A9FEF7A1FA059B4FF00109002B91DC2B
:1036E0004FF0FF38DFE7306806A9044AFEF72CFDEB
:1036F000804640460FB0BDE8F08F00BFE0AF000845
:10370000FCBC000848BE000834BE0008D9350008DB
:10371000D34D6210F8B5037C0446002B0F4614BF4E
:1037200001258025082615E0FDF7CAFEA068FDF7F3
:10373000BDFDA1882078FDF7C3FEA068FDF7B6FDAA
:103740002078A188FDF7C4FE237C6A004BB1013EBE
:10375000D5B20AD03D426078E188E5D1FDF7B8FEE8
:10376000E4E7013E4FEA5505F4D1E1886078FDF7C2
:10377000A7FEA068FDF79AFD2078A188FDF7A0FEBE
:10378000E1886078FDF7BEFE0546A068FDF78EFD76
:103790002078A188FDF79CFEB5FA85F04009F8BDB8
:1037A000F8B5274E074656F820400D46002C3DD070
:1037B0002078A188FDF7E2FD6078E188FDF7DEFD65
:1037C0002B686868A968EA6823606060A160E260AD
:1037D000A178E2782B69012505FA02F205FA01F1D8
:1037E0002361E280A180207889B2FDF719FE60781C
:1037F000E188FDF73DFEE1886078FDF769FEA0688D
:10380000FDF754FDA1882078FDF762FEA068FDF762
:103810004DFDA1882078FDF753FEA068FDF746FD19
:103820006078E188FDF74CFE2846F8BD142004F0CE
:103830007FFA044610B146F82700C1E7F8BD00BF83
:10384000940800202DE9F84F914CDDF828A054F899
:103850002040002C00F0F6800D461E469146607810
:10386000E188002B34D0FDF72BFEA068FDF71EFD8C
:10387000A1882078FDF724FEA068FDF717FDE188F8
:103880006078FDF725FEA068FDF710FD2078A1887F
:10389000FDF71EFE0B9B002B5BD09DF82C102046E5
:1038A000FFF738FF002800F0D680002EC8BF761939
:1038B00006DD15F8011B2046FFF72CFFB542F8D1B5
:1038C000BAF1000F49D10C9B23B30120BDE8F88F5A
:1038D000FDF7F6FDA068FDF7E9FCA1882078FDF76B
:1038E000EFFDA068FDF7E2FCE1886078FDF7F0FDF0
:1038F000A068FDF7DBFC2078A188FDF7E9FD0B9BB4
:1039000023BBE3685B00D9B22046FFF703FF002822
:1039100000F0A180E1886078FDF7DAFDA068FDF78E
:10392000C5FCA1882078FDF7D3FDA068FDF7BEFC9B
:10393000A1882078FDF7C4FDA068FDF7B7FC60788A
:10394000E188FDF7BDFD0120BDE8F88F9DF82C1042
:10395000DAE7E3685B00D9B2A1E7E1886078FDF7B8
:10396000AFFDA068FDF7A2FCA1882078FDF7A8FDB7
:10397000A068FDF79BFCE1886078FDF7A9FDA068D1
:10398000FDF794FC2078A188FDF7A2FD0B9B002B8E
:103990005BD09DF82C102046FFF7BCFE00285AD0C3
:1039A000BAF1000F8FDD09F1FF390AF1FF3B4FF04B
:1039B0000008237C6078002BE18814BF0126802654
:1039C0000825FDF77DFD002702E0013DD6B21BD0A2
:1039D000A068FDF76BFC2078A188FDF771FD607889
:1039E000E188FDF78FFD00B13743A068FDF75EFC6D
:1039F0002078A188FDF76CFD237C7200002BE4D1B8
:103A0000013D4FEA5606E3D1C3456078E18816DCF4
:103A1000FDF756FDA068FDF749FCA1882078FDF769
:103A20004FFDA068FDF742FC08F101082078A1884D
:103A3000FDF74EFDD04509F8017FBAD143E7FDF708
:103A400047FDE7E72046BDE8F88FE368590041F0FD
:103A50000101C9B29FE7E1886078FDF739FDA068F0
:103A6000FDF724FCA1882078FDF732FDA068FDF762
:103A70001DFCA1882078FDF723FDA068FDF716FC4A
:103A80006078E188FDF71CFD4FF0FF30BDE8F88F4E
:103A9000940800202DE9F04FADF5177D00240A1D94
:103AA000431E012605258246894610A8A54908948B
:103AB0008DF82C408DF82D408DF82F400E948DF808
:103AC0003C408DF82E600D95A046FEF737F9A346D1
:103AD000059404949C4D9D4C9D4E09A810A9FEF799
:103AE0003BF928B3099B002B00F0A7805F68A74231
:103AF00055D0AF4260D0B74263D0964A974248D083
:103B0000954A974255D03846944906F01DF9002849
:103B100042D03846924906F017F9002856D10123C1
:103B200009A810A98DF83C30FEF716F90028D9D164
:103B3000049B002B40F0DB80059B002B40F0DF80D6
:103B4000139A059C01325245139207AE80F09B8078
:103B500016AD0AE0139A3368013252452B55139281
:103B6000294604F1010480F08F8059F82200314683
:103B7000FEF752F80028EDD17A4802F0E7F9139BDE
:103B800059F8230002F0F8F901200DF5177DBDE882
:103B9000F08F01230493A0E74FF0010B9DE70A98F3
:103BA0000EA9FEF739F8002800F0C0804FF0010898
:103BB00093E70123059390E70A980DA9FEF72CF8E7
:103BC0008BE70A9808A9FEF727F886E73846664982
:103BD00006F0BAF868B13846644906F0B5F800282E
:103BE00035D0634A97427FF478AF139B013B139320
:103BF0009EE706A90A980A2206F0FAFA069B8DF8B3
:103C00002C00A3B11A782E2A11D1581C06905B788B
:103C10006BB106A90A2206F0EBFA069B8DF82E007E
:103C2000002B3FF45AAF1B78002B3FF456AF51489E
:103C300002F0C4F94FF0FF3005E0D9F8000009A9FF
:103C4000404AFEF781FA0DF5177DBDE8F08F06A911
:103C50000A980A2206F0CCFA069B8DF82D00002B5C
:103C6000E5D01A782E2AE2D1581C06905B78002BFA
:103C7000DDD006A90A2206F0BBFA069B8DF82F00BC
:103C8000002BD0D129E716A9089AB8F1000F49D026
:103C90000E9B56AD8DE80C08002023462A46FFF700
:103CA000D1FD306000283FD0013045D0089B002B6B
:103CB0001BD04FF00003336017DD1C4605E033686E
:103CC000089A01339A4233600BDDE95C2A4802F01E
:103CD000A3F904444E2CF2DD0A2001F009FE002471
:103CE000EDE714B10A2001F003FE0020ABE70BA9B9
:103CF0000020FFF755FDB0FA80F04009A3E71F4D03
:103D00002C68002CF1D02078A188FDF737FB607873
:103D1000E188FDF733FB204604F016F8049B2B6086
:103D2000184690E74346B4E701208CE7204602F0AE
:103D300045F94FF0FF3086E7114802F03FF90220C5
:103D400081E700BFDCB3000880BD0008DCBC0008D0
:103D5000CCBC000800BE0008A4BD00087CB600086A
:103D600084B6000890B6000888B600088CB6000833
:103D700050BE0008E0BD0008A0B60008940800206E
:103D80009CB60008F8B52C4D074655F820400E4665
:103D9000002C47D020782189FDF7F0FA60786189FE
:103DA000FDF7ECFAA078A189FDF7E8FAE078E1895F
:103DB000FDF7E4FA72683068B368F1686260E16048
:103DC000A36094F807C02060217994F805E0A779F2
:103DD0007269B3693069012505FA0EFE05FA0CF621
:103DE00005FA01F105FA07F76261A361A4F80AE098
:103DF0002181206189B22078A781E681FDF7BEFA92
:103E000060786189FDF70CFBA078A189FDF708FBBC
:103E1000E078E189FDF704FBE078E189FDF750FBEC
:103E20002846F8BD1C2003F083FF044610B145F876
:103E30002700BFE7F8BD00BF900800202DE9F04F34
:103E4000644C83B054F820A0BAF1000F00F0BD809C
:103E50001C469AF818300D4693469AF80200BAF8B4
:103E60000C10002B40F09980FDF732FB9AF803000C
:103E7000BAF80E10FDF72CFB002C00F09C802B1FD5
:103E8000009401930125019ADAF8143052F8046F76
:103E90009AF8198001929AF81890002B00F083800C
:103EA00000273C464AE0E243134405FA03F3334259
:103EB0009AF80100BAF80A104CD0FDF701FBC8458A
:103EC0009AF80200BAF80C104CD0FDF7F9FADAF8BB
:103ED0001000FDF7EBF99AF80200BAF80C10FDF7A4
:103EE000F7FA9AF81A30002B4CD1DAF814309AF815
:103EF0000100013B1B1B05FA03F33342BAF80A1019
:103F000048D0FDF7DDFA9AF80000BAF80810FDF77E
:103F1000F9FA50B19AF81A30002B41D1DAF814307E
:103F2000013B1B1B05FA03F31F43DAF81000FDF7F2
:103F3000BDF9DAF814300134A34235D99AF81A20C1
:103F4000002AB0D005FA04F333429AF80100BAF817
:103F50000A10B2D1FDF7BCFAC8459AF80200BAF8C7
:103F60000C10B2D1FDF7B4FADAF81000FDF79EF9A3
:103F70009AF80200BAF80C10FDF7A2FA9AF81A3073
:103F8000002BB2D005FA04F333429AF80100BAF8D4
:103F90000A10B6D1FDF79CFAB5E7FDF791FA65E78F
:103FA00005FA04F3C0E71F46009B4BF8047B013B76
:103FB00000937FF468AF9AF80300BAF80E10FDF78B
:103FC0007FFA012003B0BDE8F08F504603B0BDE892
:103FD000F08F00BF900800202DE9F04FA04FADF604
:103FE000540D00240A1D431E0526082583468A46D3
:103FF00007A89C490E97119612950D948DF84C4088
:104000008DF84D408DF84E400194A046FDF796FE88
:10401000A146954D954E964F05A807A9FDF79CFE24
:10402000F8B1059B002B00F0AF805C68AC425CD01F
:10403000B4424BD0BC4260D08E4A944249D08E4AA2
:10404000944257D020468D4905F07EFE002843D18A
:10405000012305A807A98DF84C30FDF77DFE002847
:10406000DFD1B9F1000F40F08480019B002B40F0BC
:1040700036811C460A9801300A90834540F24F81F0
:1040800014AB03EB84055AF82000294604AAFDF777
:10409000E5FD002800F0658129460A98049B01305F
:1040A00001340A90002B79D00A680134B4F5807F7E
:1040B00003F1FF3341F8042FF4DD7148049301F05C
:1040C0007DFF01200DF6540DBDE8F08F4FF0010883
:1040D000A2E74FF001099FE720466A4905F034FE48
:1040E000D0B901238DF84D3096E7069811A9FDF758
:1040F00093FD91E7012301938EE7069812A9FDF73E
:104100008BFD002888D0129B023B1E2B84D9384699
:1041100001F054FF0120D5E720465B4905F014FE6D
:1041200018B901238DF84E3076E72046574905F03F
:104130000BFE002834D02046554905F005FE002826
:1041400051D02046534905F0FFFD00286CD0204691
:10415000514905F0F9FD002800F0A4804F4A94422F
:104160007FF45AAF0A9B013B0A93B9F1000F3FF469
:104170007CAF0DA90020FFF705FEB0FA80F04009E2
:104180000DF6540DBDE8F08FDAF8000005A9354AA8
:10419000FDF7DAFF0DF6540DBDE8F08F04936CE7E0
:1041A00003A906980A2206F023F8039B8DF8340031
:1041B000A3B11A782E2A11D1581C03905B786BB1E9
:1041C00003A90A2206F014F8039B8DF83800002B8F
:1041D0003FF422AF1B78002B3FF41EAF304801F0B4
:1041E000EDFE01206EE703A906980A2206F000F80A
:1041F000039B8DF83500002BF0D01A782E2AEDD1D4
:10420000581C03905B78002BE8D003A90A2205F024
:10421000EFFF039B8DF83900002B3FF4FDAE1B78B8
:10422000002B3FF4F9AED9E703A906980A2205F05E
:10423000DFFF039B8DF83600002BCFD01A782E2A93
:10424000CCD1581C03905B78002BC7D003A90A225D
:1042500005F0CEFF039B8DF83A00002BBAD1DBE6C8
:1042600000010203FCB4000880BD0008CCBC0008BB
:10427000F4BC000800BE0008A4BD0008A8B60008F1
:10428000C8B60008B0B6000884B60008B8B6000882
:10429000BCB60008C0B60008C4B6000850BE00088E
:1042A000E0BD000803A906980A2205F0A1FF039BC0
:1042B0008DF83700002B91D01A782E2A8ED1581CF9
:1042C00003905B78002B89D003A90A2205F090FFA8
:1042D000039B8DF83B00002B7FF47CAF9CE6284DC0
:1042E0002C68D4B120782189FDF748F8607861897D
:1042F000FDF744F8A078A189FDF740F8E078E1895E
:10430000FDF73CF8204603F01FFDC5F80090484635
:10431000D8E615B10A2001F0EBFA0020D2E664B32A
:10432000002014A90DF58A622346FFF787FD10B31C
:10433000B8F1000FF1D000252E460DF24C4701E0F8
:10434000A642E6DA0F4857F8041F01F065FE05445F
:104350004E2D06F10106F3DD0A2001F0C9FA002511
:10436000EEE7094801F0F2FD0A9B5AF8230001F03C
:1043700003FE0120A6E60120A4E64FF0FF30A1E6EF
:1043800090080020D0B6000890B600082DE9F0474C
:104390008EB000240A1D431E01260525824689464B
:1043A00008A872498DF814408DF815408DF8164014
:1043B000ADF818600795FDF7C1FCA04627466C4D87
:1043C0006C4C6D4E03A808A9FDF7C6FC90B1039B89
:1043D000002B73D05B68A34241D0AB4241D0B342C3
:1043E00046D0664A93423FD0654A934245D0654ADB
:1043F0009342E7D1002F71D1B8F1000F40F09880BF
:104400000B9B534580F0A58059F8230002A9FDF7C6
:1044100003FC00285BD05C4B029D1C68002C59D02B
:104420009DB981E0FDF754F8A068FCF73FFFA37841
:104430002078A188002B6ED0FDF742F8A068FCF729
:1044400035FF03F009FD013D6ED003F0E3FCA378D6
:104450002078A188002BE5D1FDF732F8E4E70127A9
:10446000B0E74FF00108ADE701238DF81630A9E75A
:10447000049807A9FDF7D0FBA4E701A904980A2234
:1044800005F0B6FE019B8DF8140093B11A782E2A20
:104490000FD1581C01905B785BB101A90A2205F08D
:1044A000A7FE019B8DF81500002B8BD01B78002BED
:1044B00088D0364801F082FD012005E0D9F80000DF
:1044C00003A92A4AFDF740FE0EB0BDE8F087304848
:1044D00001F074FD01200EB0BDE8F0872A4D2C6874
:1044E000002C3BD02078A188FCF748FF05AB07CB18
:1044F00020606078012383406160207899B2A260D7
:10450000A380FCF78DFFA7782078A188EFB9FCF78E
:10451000DFFF3846D8E7FCF7DBFFA068FCF7C6FEF4
:1045200003F09AFC013D90D100200EB0BDE8F08769
:10453000154D2C6884B12078A188FCF71FFF204618
:1045400003F002FC2F603846BEE7FCF7B9FF0020FD
:10455000BAE74FF0FF30B7E73846B5E70C2003F075
:10456000E7FB04460028B5D02860BFE78CB40008FC
:10457000A4BD000800BE000880BD0008D4BC00082F
:1045800014BD0008ECBC000898080020E0BD00083D
:1045900048BE00080A462DE9F04F0026B346B04653
:1045A000B146374693B00691431E04320CA89D498C
:1045B0009D4C9E4DFDF7C2FB079601960396029611
:1045C000049605960AA80CA9FDF7C6FB002835D06D
:1045D0000A9B002B00F09380D3F804A0A24576D06C
:1045E000AA457AD05046924905F0AEFB00286CD01F
:1045F0005046904905F0A8FB00286BD050468E49E4
:1046000005F0A2FB002874D08C4B9A4500F0558130
:104610008B4B9A4570D08B4B9A4500F0B2808A4BF9
:104620009A4575D0029A894B0AA89A4508BF01227B
:104630000CA90292FDF790FB0028C9D1049B002B26
:1046400069D1029B002B40F0E180059B002B40F0DC
:10465000BB80019B002B71D1B8F1000F40F00081AD
:10466000002F40F02E81B9F1000F40F03F81039BF5
:10467000002B00F02081764C082627460FE0FCF73F
:1046800015FE38787988FCF71BFF03F0E5FB2D2039
:10469000FCF70CFE013E4FEA5B0B00F0B38003F029
:1046A000B9FB20786188FCF713FF1BF001054FF080
:1046B0000F00E4D13C20FCF7F9FD38787988FCF74D
:1046C000FFFE03F0C9FB2846E2E701277AE74FF037
:1046D000010877E74FF0010974E70B9808A9FDF787
:1046E0009BFA00283FF46EAF01239DF820B003939E
:1046F00068E70123019365E70123059362E7069BC1
:104700000AA91868474AFDF71FFD13B0BDE8F08FEE
:104710000123049356E74E4C079A0123B34099B204
:104720001046638022706670FCF7A2FE20786188D4
:10473000FCF7C6FE002013B0BDE8F08F444C03F038
:1047400069FB61882078FCF7C3FE0120FCF7AEFD11
:1047500061882078FCF7B4FE0920FCF7A7FD61888A
:104760002078FCF7CFFE044603F076FB3220FCF7FE
:104770009DFD211C18BF0121364801F04DFC059814
:10478000C3E70A2209A90B9805F032FD099BC2B2C2
:1047900007929BB11A782E2A10D1581C09905B7889
:1047A00063B109A90A2205F023FD099BC6B2002BBB
:1047B0003FF408AF1B78002B3FF404AF264801F00C
:1047C000FDFB4FF0FF30A0E7214C61882078FCF71B
:1047D0007FFE4FF4FA70FCF769FD03F01BFB618864
:1047E0002078FCF76DFE3C20FCF760FD61882078A6
:1047F000FCF788FE044603F02FFB4FF49670FCF79D
:1048000055FD54B9002013B0BDE8F08F104B187857
:104810005988FCF7B3FD049877E7104801F0ACFB2A
:10482000012072E7DCB50008CCBC0008ECBD000834
:10483000D8B60008DCB60008E0B6000820BE0008C4
:10484000ACBD000814BD000800BE0008A4BD0008EF
:104850009C080020F0B60008E0BD0008E4B600089F
:10486000DDF804A02C4C082703F0D4FA61882078E6
:10487000FCF72EFE0120FCF719FD61882078FCF77B
:104880001FFE0920FCF712FD61882078FCF73AFE34
:10489000054603F0E1FA3220CAF3470AFCF706FDA9
:1048A0000DB14AF0800A013FDED151461B4801F0AC
:1048B000B3FB384629E7012027E70F9B013B0F9305
:1048C000BCE6154C03F0A6FA61882078FCF700FEE0
:1048D0003C20FCF7EBFC20786188FCF7F1FD03F04D
:1048E000BBFA4046FCF7E2FC40460EE70A4C03F0F8
:1048F00091FA61882078FCF7EBFD0F20FCF7D6FCDD
:1049000020786188FCF7DCFD03F0A6FA2D20FCF787
:10491000CDFC3846F9E600BF9C080020F0B6000840
:1049200038B5084B044618680D4618B1214605F005
:104930000BFA30B929462246BDE83840024801F05A
:104940006BBB38BDA0080020ACB800082DE9F047CB
:10495000DCB00024431E0A1D8A4608A89949029427
:104960008DF83840A046A146FDF7E8F92746964D58
:10497000964E04A808A9FDF7EFF9044638B3049B46
:10498000002B67D05C68AC4219D0B44251D02046AD
:104990008F4905F0D9F900284ED08E4B9C4254D057
:1049A0008D4B9C42E5D1059802A9FDF735F9002809
:1049B000DFD18A4801F002FB4FF0FF3451E004A838
:1049C00008A9FDF7C9F9012704460028D7D19DF8A9
:1049D0003830002B00F0CF8017B9B9F1000F79D033
:1049E000002001F09DFC0646002841D005F0E8FAC1
:1049F0000546002839D07A4B7A490EA8B9F1000F44
:104A000008BF1946FEF7DAFA074670B3B8F1000F8F
:104A100033D131462A46FEF7D5FBA8424FD138465E
:104A2000FEF7FAFB304603F08FF920465CB0BDE894
:104A3000F0874FF001099CE706A8FCF7C3FF01A827
:104A4000FDF758F84FF0010893E70EA8059905F017
:104A500059FA8EE7DAF8000004A95A4AFDF774FB08
:104A6000044620465CB0BDE8F087304603F06CF9A0
:104A7000012420465CB0BDE8F08730464FF00008C6
:104A80000378002BCBD00A2B78D0431C01E00A2AF4
:104A900076D01D46191A13F8012B002AF7D10029E8
:104AA000BDD016AA01ABFDF729F88146002859D0E0
:104AB000384616A94A46FEF785FB484552D0384687
:104AC000FEF7AAFB0124304603F03EF920465CB015
:104AD000BDE8F08703A90EA8FEF7F8F90028C7D0B3
:104AE0000EA84149FEF76AFA07460028C0D0A14641
:104AF0003E4EB8F1000F14BF64224FF48C7238465A
:104B000016A9FEF71DFB051E4ADBA9443ED0B8F1ED
:104B1000000F29D006AB2FAA294616A8FCF758FF8C
:104B200001462FA801F002FA6423AB422EDC039B5E
:104B300099452BDAFA25029B0DF1030005FB03F3DF
:104B4000A6FB03318909FCF7D7FE0130D1D09DF8CF
:104B50000330032BEFD13846FEF75EFB0A2000F04E
:104B6000C7FE7EE728468BE716A8294601F0DEF946
:104B70004FF48C73D9E74FF0FF3472E705460021FC
:104B800085F80080013500298BD148E7B8F1000F86
:104B90000ED13846FEF740FB154801F0D7F960E723
:104BA0003846FEF739FB0A2000F0A2FE012458E740
:104BB00006A916A8FCF770FF014616A801F0B6F981
:104BC000E7E700BF2CB80008ECBD000858BD00089E
:104BD000F4B8000848BD000880BD00083CBE0008CD
:104BE000C4B80008F0B80008C0BE0008D34D621079
:104BF000FCB800082DE9F04792B0431E0A1D0F468D
:104C000004A84649FDF79AF8454D0026684604A9D0
:104C1000FDF7A2F8044668B1009B002B45D05B6805
:104C2000AB42F3D1684604A9019EFDF795F804460E
:104C30000028F1D18DF82800002E40D002A930467E
:104C4000FEF7EAF8002864D00DF128083046414606
:104C5000FEF70EF92546334FDFF8D49057F835604C
:104C6000E6B1304602A905F06FF82F23B0B99DF8E0
:104C700028203146002A14BF424600220DF10900C7
:104C80008DF80830C9F8002005F03CF93146264877
:104C900001F0C2F902A82549FEF7E6FA0135032D15
:104CA000DCD1204612B0BDE8F087386869461B4A5F
:104CB000FDF74AFA0446204612B0BDE8F0870DF130
:104CC00028084146FEF7D4F82546164FDFF860A0C5
:104CD00057F835602F230DF109000135B6B19DF865
:104CE00028200DF14809002A14BF4246002209F885
:104CF000403D3146CAF8002005F004F931460A4823
:104D000001F08AF948460949FEF7AEFA032DDFD1D2
:104D1000C7E70124204612B0BDE8F0878CB8000830
:104D2000E4BC0008A00B0020F8B8000821490008E6
:104D3000A00800202DE9F04F0E46002215469DB038
:104D40004FF47A7304468B460F921092119212928E
:104D500013920D93FCF70AFB3246A946AA46A846D1
:104D6000631E0990043216A8A349FCF7E7FFA34C81
:104D70004FF0FF33A24EA34F04950295009507957F
:104D80000595039501950895069314A816A9FCF7B7
:104D9000E3FF00282DD0149B002B00F092805B686D
:104DA000A34262D0B34263D0BB4266D0964A9342DC
:104DB00068D0964A93426AD0954A93426CD0954AFD
:104DC000934200F08C80944A934269D0934A934274
:104DD00000F08280924A9342D7D10DA91598FCF732
:104DE0001BFF012314A816A90893FCF7B5FF0028A0
:104DF000D1D18346B8F1000F5AD040460A220EA9FD
:104E000005F0F6F90E9A804622B111782E294AD083
:104E100000294DD1CDF828B04FF0FF34B8F1000F84
:104E200046DB099B434543DD0A9B002B5ED1B9F16C
:104E3000000F40F0D180009B002B40F05B81029B73
:104E4000002B40F06481049B002B40F0CD80002DAE
:104E50004ED0079813A9FCF7DFFE002848D171480F
:104E600001F0ACF84FF0010B27E0DDF854808CE73F
:104E7000DDF854A04FF0010987E7159B019301234A
:104E8000009382E7159B0393012302937DE7159B13
:104E900005930123049378E7159B0125079374E795
:104EA0000123069371E7501C0E905278002A7DD1A1
:104EB0005D4801F083F84FF0010B58461DB0BDE886
:104EC000F08FDBF8000014A94B4AFDF73DF983464B
:104ED00058461DB0BDE8F08F0023069355E70999A9
:104EE000524801F099F84FF0000BE6E71F2CDFD88D
:104EF000B9F1000F68D1009B002B40F0F880029BB5
:104F0000002B40F01481049B002B40F0228185F09F
:104F100001030993012202FA04F30B932B464D4639
:104F20009946434F0A9B002B00F0848045B1069BB5
:104F30005A1C00F0E7801A4640460B99FCF746FAE7
:104F4000009B002B40F0BC80029B002B40F0B38004
:104F5000049B002B3BD1B9F1000F40F0C380099BAB
:104F6000002B40F0B280089B002BA6D00D9BFA24AA
:104F7000032B9CBF04230D9302F0D8FB064602F0DE
:104F8000D5FB0D9B022104FB03F3A7FB032306EBD8
:104F900093139842C6D20DF13300FCF7ADFC0130FB
:104FA000EDD09DF83330032BE9D186E70A220EA914
:104FB00005F01EF90E9A04461AB11278002A7FF401
:104FC00077AF01230A9329E700230993A2E740461C
:104FD0000B99FCF77DFABEE750460FA9FCF71CFEC3
:104FE00000283FF43CAF26E7059812A9FCF714FE11
:104FF00000283FF434AF2AE73CB9000828BE000877
:1050000050BD000888BD0008F4BD0008A0BD000820
:1050100040BD000848BE000834BD000828BD000897
:10502000FCBC00083CBE0008E0BD0008F0B600086B
:10503000D34D62105DB1069B013370D0BAF1000F01
:1050400000F084800F994046069AFCF7BFF9009B58
:1050500033B1019B002B6DD010994046FCF7E0F96D
:10506000029B33B1039B002B67D011994046FCF79C
:1050700027FA049B33B1059B002B61D0129940465F
:10508000FCF726FAB9F1000F06D0079B002B5AD087
:1050900013994046FCF724FA099B002B3FF463AFB9
:1050A0004FF0FF314046FCF72DFA00F0D7FF2B48B8
:1050B00000F04CFF57E740460B99FCF701FA47E731
:1050C00040460B99FCF7ACF93EE740460B99FCF7DC
:1050D00019FA234A234B002814BF1046184600F043
:1050E00035FF40E740460B99FCF7FAF937E7CDF872
:1050F00024900FE7019810A9FCF78EFD00283FF4DB
:10510000AEAE9CE640460B99FCF738F918E70398D9
:1051100011A9FCF781FD00283FF4A1AE93E6BAF196
:10512000000F19D00F994046FCF728F98FE7009B34
:105130000993EFE64FF0FF318FE74FF0FF3195E72E
:105140004FF0FF319BE74FF0FF31A2E74FF0FF3107
:1051500079E7029B0993DDE60699E4E7FCB80008CD
:105160006CBA000870BA00082DE9F04F8BB0074602
:105170008A46FBF773FF4FF0FF357B1904460AF1AF
:10518000040204A85C490195FCF7D8FD2E46A84608
:105190005A4F5B4DDFF8849102A804A9FCF7DCFDAF
:1051A0008346D0B1029B002B41D05B68AB4230D02C
:1051B000BB4231D04B4532D0524A934232D0524A50
:1051C000934242D0514A02A804A99A4208BF01263C
:1051D000FCF7C2FD83460028E4D1012E3FD00198A0
:1051E0000028C0F2828084427FDDB8F1010F79D0BF
:1051F000B8F1020F26D0B8F1000F70D0FBF742FFD4
:10520000434A444B002814BF1046184600F0B4FE31
:1052100014E04FF00008BFE74FF00108BCE74FF083
:105220000208B9E7039801A9FCF7F6FCB4E7DAF83D
:10523000000002A9304AFCF787FF834658460BB0AE
:10524000BDE8F08FFBF718FFF8E721464FF0000BA1
:10525000314800F0E1FE58460BB0BDE8F08F002C5D
:10526000019006DDFBF7FCFE0198013084420190BD
:10527000F8DC00252E460DF103003E21FCF73CFB37
:10528000013003D09DF80330032B19D0002C019678
:1052900008DD55B92846FBF7E9FE01980130A04228
:1052A0000190F8DB85F00105E5E70020FBF7D8FE6B
:1052B0000198013084420190F8DC85F00105DAE7BD
:1052C000002084420190B9DDFBF7D0FE0198013047
:1052D00084420190F8DC58460BB0BDE8F08FFBF734
:1052E000C5FEABE7FBF7BCFEA8E7064800F066FE8C
:1052F0004FF0FF3BA2E700BF00BC0008F4BD000870
:10530000A0BD000898BD000848BE000860BD0008A8
:1053100074BA000800B80008F0B6000840BD0008E4
:105320002DE9F04F044691B08B46FCF7B9F9002700
:10533000BA46B946B846631E4FF0FF340290069451
:1053400007940BF104020AA85C495D4C5D4D5E4E6A
:105350000197FCF7F3FC039708A80AA9FCF7FCFCEB
:10536000034640B3089B002B66D05B68A34239D04C
:10537000AB423AD0B3423BD0544A934243D0544A12
:10538000934275D0534A934249D0534A9342E3D152
:10539000099807A9FCF740FC42F21073079A9A4259
:1053A00000F28680012308A80AA90193FCF7D4FC27
:1053B00003460028D6D1B8F1000F48D1B9F1000F4B
:1053C0006BD1039A0AB9CDF818800293019B002B88
:1053D0006ED006980799FCF751F9029B184611B058
:1053E000BDE8F08F4FF00108B6E74FF00109B3E7D1
:1053F000099804A9FCF710FC384B049A9A4246D845
:105400004FF0010AA8E7099805A9FCF705FC42F24C
:105410000E72059B023B934239D801279CE70998FD
:1054200006A9FCF7F9FB069B002B3BDB029A9A428C
:1054300038DD012303938FE7DBF8000008A91F4A3A
:10544000FCF782FE0346184611B0BDE8F08FBAF1B2
:10545000000F16D00498AFB10599019AA2B1079A2E
:105460000193FCF75BF8019B184611B0BDE8F08F83
:1054700002991B4800F0D0FD0023184611B0BDE88A
:10548000F08FE8E73946E8E74FF0FF32E8E70F48EA
:1054900000F094FD4FF0FF33D5E70190FCF7DAF808
:1054A000019BD0E70B4800F089FD4FF0FF33CAE7BE
:1054B000094800F083FD4FF0FF33C4E7ECB9000862
:1054C00000BE0008A4BD00081CBD0008B4BD000853
:1054D00048BE000898BD000850BE0008A086010024
:1054E000F0B60008000000002DE9F04FA5B004461A
:1054F00002915022002110A8FAF71AFE804FDFF81F
:1055000018E28048DFF814827F4D804EDFF810A249
:10551000DFF800B20122022303214FF06C0C4FF0A0
:105520006909CDF848E013974FF0490E44271690CB
:105530004FF47A70CDF85C808DF840308DF85030A3
:105540008DF841108DF851108DF842C08DF85290B1
:105550008DF860208DF861208DF870208DF8712015
:105560008DF862E08DF87270CDF844A0CDF854B09B
:1055700019951B951D961F960690FBF791FE4FF00F
:105580000008C146029A0746631E10A904320AA801
:10559000FCF7D4FBCDF80480CDF80C8008A80AA94C
:1055A000FCF7DAFBB8B1089B002B78D05B68AB4204
:1055B00061D0B34262D05B4563D05345EED106A9BA
:1055C0000998FCF729FB012308A80AA90393FCF713
:1055D000C3FB0028E7D10446B9F1000F7DD1019B40
:1055E000002B40F083808246DFF83891039CB8F1AD
:1055F000000F5FD1002F19DD45467E1E2846FBF7C0
:1056000033FE02F0A5FF3CA3D3E9002302F042FEE3
:1056100002460B463E4800F0FFFCAE42CCBF2C20B9
:105620000A20013500F064F9BD42E7D1F4B1069BD0
:10563000FA25032B9CBF0423069302F077F8064655
:1056400002F074F8069B022105FB03F3A9FB032378
:1056500006EB93139842CAD20DF11700FCF74CF9F0
:105660000130EDD09DF81730032BE9D15446204688
:1056700025B0BDE8F08F4FF001098FE701230193BA
:105680008CE70998002889D007A9FCF7C5FA079B81
:10569000002B25DB9F4223DD4FF001087EE7029BB4
:1056A00008A9186810AAFCF74FFD0446204625B04B
:1056B000BDE8F08F0798FBF7D7FD02F049FF0EA376
:1056C000D3E9002302F0E6FD02460B46104800F045
:1056D000A3FC0A2000F00CF9A8E7FBF7F5FCC6E7ED
:1056E0000C4800F06BFC4FF0FF34C0E7FBF796FD71
:1056F000BDE700BFAFF300807B14AE47E17A743F93
:105700003CB0000878BA000800BE0008A4BD00083C
:1057100098BA000898BD00082CB0000888BA0008A4
:10572000FCBC0008D34D621010B50F4890B000F0DB
:105730000DFC2C2000F0DCF80C4800F01DFC10AC37
:10574000002304F8403D2046FBF7A6FC10B19DF86D
:10575000003013B9002010B010BD204600F00CFC42
:10576000002010B010BD00BFD8BD000870BC0008FC
:1057700008B5FBF73BFC002008BD00BFF0B50023D7
:105780000B70037805463BB1202B01D0092B74D157
:1057900015F8013F002BF7D10024234600200646D0
:1057A000002C37D042F820500C780134E0B2087059
:1057B000DBB92B784BB932E0092B08D0272B2FD03F
:1057C000222B2DD015F8013F4BB3202BF4D12E7096
:1057D000681C03783BB1202B01D0092B0ED110F8A7
:1057E000013F002BF7D10878F0BD2C781CB916E0EA
:1057F00015F8014F9CB1A342FAD1E8E7272B0546E3
:1058000009D0222B07D008780023132807D82C783A
:10581000002CC7D1F0BD451C08781328F7D9F0BD7E
:1058200000F18044013C52F824E0681CAE4502EBD4
:10583000840438BF2F460DD217F8014C07F80149F0
:105840000C7804F18044013C52F824E002EB84041B
:10585000BE45F1D30EF1010727606C78002CC2D051
:10586000A34202D106E09C4204D010F8014F002C64
:10587000F9D1B8E706700130ABE7272B284602D1F3
:10588000447801358AE7222BFAD02C78002385E76B
:105890002DE9F843894631B3DFF8508005460024EE
:1058A000474608E0C7F870211B782B700134A145EA
:1058B00005F1010514D0D8F870315A1C5BB11E787F
:1058C000002EEFD1D7F87401C7F8706118B102F05B
:1058D0003BFAC7F874612846FBF7FCFF0130E5D1BD
:1058E0002046BDE8F8830C46FAE700BFA408002074
:1058F00000B5094B83B0D3F878318DF807001BB1A0
:105900000DF10700012198479DF80700FCF738F8D2
:1059100003B05DF804FB00BFA40800202DE9F041AE
:105920000A2884B0054600F05D810D2800F0E9806A
:105930001B2800F0E680082800F0E7807F2800F0B0
:10594000E480032800F0C4821A2800F0B7821028EF
:1059500000F0E0810E286ED0012800F07281052849
:1059600000F09A81062800F0B881022800F04E81EC
:10597000042800F0EC810B2800F058820C2800F07D
:10598000C080002800F0BD80BE4C94F855603306FE
:1059900000F1B78094F85670092808BF2025BE4250
:1059A000214600F0AA8204EB06034FF0000283F8C0
:1059B000592008DD07F1590007F158032044194424
:1059C000F21B03F029FF7B1CDBB203F15708A04454
:1059D00001362744404684F8563087F8585084F8FA
:1059E000556004F0EDFAD4F87831054613B140461D
:1059F0002946984729464046FBF78EFF94F85550B4
:105A000094F856309D427CDD08260BE00DF10F0026
:105A100098479DF80F00FBF7B3FF94F85630013D0F
:105A2000AB426EDAD4F8783101218DF80F60002B8B
:105A3000ECD10820EFE7934C94F85730012B60D954
:105A40005E1E012E314600F051828F4D05F180001F
:105A500000E01D462B4613F8012B002AF9D16A7885
:105A60001D46002A4DD083424BD201390129F1D184
:105A700094F8552094F8563084F85760934213D226
:105A8000D4F878310121814803B198477F4801213A
:105A9000FBF742FF94F8563094F855200133DBB2FF
:105AA0009A4284F85630EBD88AB1D4F87831032181
:105AB000774803B1984776480321FBF72DFF94F808
:105AC0005530013BDBB284F85530002BEDD129462F
