:020000040800F2
:1000000000000120BD0200082103000821030008B0
:10001000210300082103000821030008000000005C
:10002000000000000000000000000000019E000829
:100030002103000800000000919E0008F59E0008C2
:100040002103000821030008210300082103000800
:1000500021030008210300082103000821030008F0
:1000600021030008210300082103000821030008E0
:1000700021030008210300082103000821030008D0
:1000800021030008210300082103000800000000EC
:100090000000000000000000000000002103000834
:1000A00021030008210300082103000821030008A0
:1000B0002103000821030008210300082103000890
:1000C0002103000821030008210300082103000880
:1000D00021030008291B000821030008000000007C
:1000E000210300082103000821030008000000008C
:1000F00000000000000000000000000021030008D4
:10010000000000002103000821030008210300086B
:1001100000000000000000000000000000000000DF
:10012000210300082103000821030008210300081F
:100130002103000800000000000000000000000093
:100140000000000000000000000000002103000883
:1001500021030008210300082103000821030008EF
:100160002103000821030008000000000000000037
:10017000000000000000000000000000000000007F
:100180000000000021030008000000000000000043
:04019000210300083F
:100194003C6D637573683E00323032323032323136
:1001A4002D313833303037004D4355534820646582
:1001B4007369676E65642062792050656E672053A9
:1001C40068756C696E2C20616C6C20726967687448
:1001D400732072657365727665642E0A6874747030
:1001E400733A2F2F6769746875622E636F6D2F7071
:1001F400656E677368756C696E2F6D6375736800DF
:10020400503C010800000020500800005C08002059
:040214006C24000056
:1002200070B4840746D0541E002A41D0CDB2034694
:1002300002E0621EE4B3144603F8015B9A07F8D1AA
:10024000032C2ED9CDB245EA05250F2C45EA0545EC
:1002500019D903F110022646103E0F2E42F8105C09
:1002600042F80C5C42F8085C42F8045C02F11002AF
:10027000F2D8A4F1100222F00F0204F00F041032A1
:10028000032C13440DD91E462246043A032A46F88D
:10029000045BFAD8221F22F003020432134404F054
:1002A00003042CB1C9B21C4403F8011BA342FBD1C7
:1002B00070BC704714460346C2E700BFDFF844D065
:1002C000002103E0104B5B58435004310F48104BA2
:1002D00042189A42F6D30F4A02E0002342F8043B48
:1002E0000D4B9A42F9D30D4A03E05FF0A53342F873
:1002F000043B044B9A42F8D300F014F80FF0AAFC28
:100300007047000000000120503C01080000002060
:10031000500800205C080020C82C002000FC0020B1
:10032000FEE7000010B41049104BD1F88820104CA3
:1003300042F47002C1F888201A68002042F00102DD
:100340001A6098601A6822F0847222F480321A606F
:100350005C601A684FF0006422F480221A60D86052
:100360008C605DF8044B704700ED00E000380240FF
:100370001030002430B4184BDB68C3F30223C3F100
:100380000705042D03F1040428BF0425062C17D902
:10039000033B01249C40013C22400124AC40013C31
:1003A00021409940002842EA01020CDB00F1604044
:1003B00000F561401201D2B280F8002330BC7047D2
:1003C00000221346E9E7054B00F00F001201034439
:1003D000D2B21A7630BC704700ED00E0FCEC00E0D1
:1003E000002807DB044A00F01F01012340098B406D
:1003F00042F82030704700BF00E100E02DE9F04FE7
:10040000002283B0DFF8A0E1DFF8A0A1614E012750
:100410004FF0030C814603E00132102A00F0AC805B
:100420000B6807FA02F003408342F5D14C6824F0D0
:100430001000022812D1D50809EB850502F007004B
:100440002C6A80004FF00F0808FA00F824EA080828
:100450000C69844048EA04042C624C68D9F8000016
:100460004FEA42080CFA08F504F00304ED4304FADD
:1004700008F428400443C9F800404C6824F01004F4
:10048000013C012C13D8D9F80840C8682C4000FA68
:1004900008F02043C9F808004868D9F80440C0F3C0
:1004A0000010904024EA03042043C9F80400D9F85E
:1004B0000C408868254000FA08F02843C9F80C0071
:1004C0004868C500A8D54FF00008CDF80480DEF8D4
:1004D000440040F48040CEF84400DEF8444022F06E
:1004E000030000F1804004F4804400F59C30019446
:1004F00002F00304019DD0F808B0A4000F25A54028
:10050000D1452BEA050B11D0234DA94537D0234DFA
:10051000A94537D0224DA94539D0224DA9450CBF58
:100520004FF004084FF0070808FA04F848EA0B05F2
:1005300085604C683068DD43E4034CBF18432840B5
:1005400030604C687068A4034CBF1843284070604A
:100550004C68B068E4024CBF18432840B0604C6857
:10056000F068A40202F1010254BF05EA000303434C
:10057000102AF3607FF454AF03B0BDE8F08F07FAA0
:1005800004F8D3E74FF0020808FA04F8CEE70CFAB3
:1005900004F8CBE7003C01400004024000080240A0
:1005A000000C0240001002400038024000000240EF
:1005B00002B9090481617047054B5A6A42F480729E
:1005C0005A625A6A22F480725A620120704700BF50
:1005D00000380240064B9B68DB0707D443680A6873
:1005E00023F44033134343600120704700207047D9
:1005F000002001408368DA070BD5836823F070631D
:100600008360836823F470238360836823F001038D
:1006100083608368DB074DD410B404682649274BF8
:10062000274A24F03F040460446821404160816807
:100630000B408360C36803F07843C360036903F031
:1006400040430361436923F47F6323F00F03436155
:10065000836923F47F6323F00F038361C36923F469
:100660007F6323F00F03C361036A23F47F6323F0E6
:100670000F030362436A6FEA13336FEA0333436283
:10068000836A23F47F6323F00F038362C36A03F05A
:100690007F43C362036B03F040430363836B9B0D93
:1006A0009B058363536823F40303536001205DF8C3
:1006B000044B70470120704700003FF8FCF0808039
:1006C000002301408368DB0713D430B442688D688F
:1006D0000C6822F040732C4323F48073234343605F
:1006E00083684A6823F400631343836030BC0120AD
:1006F00070470020704700BF8368DB0723D44B6836
:1007000070B4C3B9436823F46843436086680D69D5
:10071000CC680E4A0B6832402C43224303F07063CE
:1007200013438360C36A4A6823F470031343C362AC
:1007300070BC0120704742688C6822F468422343F1
:1007400013434360E2E70020704700BFFDFCFFC099
:1007500011F5803F21D030B4644B654C5B5C1A5876
:10076000A04222F001021A5021D0624A90424DD09C
:10077000614A00242125146054609460D46014619F
:1007800055611A5822F060621A5000292ED13F2379
:1007900083600121084630BC7047554B984200F0F9
:1007A0008E80544B98426FD0002108467047002934
:1007B0003BD0012964D0022976D0032978D00429BE
:1007C00000F08B80052900F08C8006294BD007298A
:1007D0004BD0494A00242125146054609460D460B1
:1007E000146155611A5822F060621A5001292CD008
:1007F00002292ED0032931D0042938D005294ED022
:10080000062957D0072936D00021C3E779B910321D
:1008100000212124116051609160D1601161546107
:100820001A5822F060621A50B1E7344AF0E7012901
:1008300028D002293AD003294DD004294FD00529C8
:1008400051D00629C5D12E4AC4E74FF474638360A2
:10085000A0E74FF47C13836001219BE74FF07463A2
:100860008360012196E7274AB4E7274AB2E73F238E
:10087000C36001218EE74FF07463C360012189E7F3
:10088000224AA7E7224AA5E7224B1A6942F48002CE
:100890001A611A6922F480021A61012185E74FF476
:1008A0007463C360012175E71B4A93E71B4A91E714
:1008B0001B4A8FE74FF47C13C36001216AE7A3F55D
:1008C000205301211A6942F400121A611A6922F4B4
:1008D00000121A6169E7134A7CE7134A7AE7134A60
:1008E00078E7134A76E7134A74E700BFF02201085D
:1008F0000060024000640240B864024010600240A0
:10090000A0640240A0600240B8600240286002403B
:1009100028640240003802404060024040640240C7
:1009200058600240586402407060024070640240A7
:100930008860024088640240F0B5D7689668234B0F
:100940001569546913F801E0D169936A3E43354350
:100950002C43956950F80E602C43214326F45F36F2
:100960000B4326F478761E4340F80E60D16A00EB04
:100970000E03B1B15C69156B24F0070429432143D0
:10098000596150F80E40516B24F0C074214340F877
:100990000E1050F80E40916B24F4C004214340F82F
:1009A0000E105168D960116899605968146A090C71
:1009B00009042143596050F80E30526A23F06063F5
:1009C000134340F80E300120F0BD00BFF0220108B3
:1009D000F0B50B6893FAA3F2002A00F08A80B2FA0D
:1009E00082F2144633FA02F54D6846D001274FF0E3
:1009F0000F0C4FF0030E04E0013433FA04F62246E4
:100A00003BD007FA02F21A40F6D092FAA2F3066837
:100A1000002B3FD0B3FA83F35B000EFA03F3DB4302
:100A2000334092FAA2F6002E3BD0B6FA86F6760054
:100A3000B5401D4305604B68013B012B6FD992FA0D
:100A4000A2F50B69C66875B3B5FA85F56D000EFAA7
:100A500005F5ED43354092FAA2F65EB3B6FA86F696
:100A60007600B3402B43C3604D68022D24D00B6841
:100A7000013433FA04F62246C3D1013D012D07D8D3
:100A8000CA68416802FB03F221EA0303134343608F
:100A90000120F0BD4FF0FF33334092FAA2F6002E52
:100AA000C3D14026C4E74FF0FF35354092FAA2F695
:100AB000002ED3D14026D4E792FAA2F3E3B9120A6A
:100AC0004B6992FAA2F5466A002D3ED0B5FA85F53B
:100AD00092FAA2F2AD000CFA05F5ED433540002A7A
:100AE0003AD0B2FA82F2920093402B4343624D68AF
:100AF000BDE72022144675E7B3FA83F5072DDEDC47
:100B00002B46AE004A69056A9B000CFA06F625EAF8
:100B100006059A402A43026291E828006CE792FA9F
:100B2000A2F58B688668CDB1B5FA85F56D000EFA31
:100B300005F5ED43354092FAA2F6B6B1B6FA86F65F
:100B40007600B3402B43836079E74FF0FF353540A3
:100B500092FAA2F2002AC4D18022C5E74FF0FF35F5
:100B6000354092FAA2F6002EE8D14026E9E700BF10
:100B700010B41149114A4C68114B14F4800F08BF8E
:100B80001346082803D000205DF8044B70474C68DA
:100B90004A684868C0F30140C2F38812013004F08B
:100BA0003F014000B3FBF1F35DF8044B02FB03F39C
:100BB000B3FBF0F0704700BF003802400024F4009F
:100BC00040787D01064B986800F00C00042805D0A1
:100BD000082801D1FFF7CCBF024870470248704790
:100BE000003802400024F40040787D0138B5044606
:100BF000FFF7E8FF0B4B20609A680B4D0B49C2F3DF
:100C00000312AA5CD04060609A68C2F382228A5CB8
:100C100020FA02F2A2609B68C3F34233CB5CD84057
:100C2000E06038BD00380240D8220108E8220108FF
:100C3000F0B503685B0683B0864635D401F1140035
:100C40000DC80F6801934B688E68CD680C69DEF89B
:100C500000C01F433E4335432C432043019B0243C6
:100C600013430A6A2CF47F45134325F0BF051D4347
:100C7000CEF80050DEF80430CA8A23F00403134390
:100C8000CEF804300B6AB3F5005F08D00120DEF81F
:100C90001C3023F40063CEF81C3003B0F0BD8B8C05
:100CA000CEF810300120F2E70020F0E7274A036871
:100CB000904233D0B0F1804F22D0A2F57C429042D6
:100CC0001ED002F5806290421AD002F580629042F6
:100CD00016D002F59A32904216D002F58062904208
:100CE00012D002F5806290420ED003608B68C3621E
:100CF0000B888362436943F001034361012070471D
:100D00004A6823F070031343CA6823F440731A43FC
:100D100002608B68C3620B888362EBE74A6823F04A
:100D2000700310B41A43CC6822F44072224302606C
:100D30008B68C3620B8883620B7C0363436943F057
:100D4000010343615DF8044B01207047000001403E
:100D50000023036043608360C36003614361836178
:100D6000C3617047F0B5102983B003466DD048D9F0
:100D7000B1F5807F24D0B1F5805F63D1016A684FFF
:100D800021F480510162006A11695E68DC6955686E
:100D900020F4005040EA013124F4E640146821F4C4
:100DA0008051BB4241EA053140EA042000F08580D1
:100DB0005E60D861D2681A640120196203B0F0BD88
:100DC000016A574F21F480710162006A11695E68FF
:100DD000DC69556820F4007040EA012124F07300BA
:100DE000146821F48071BB4241EA052140EA040401
:100DF00069D05E60DC61D268DA630120196203B0F9
:100E0000F0BD01291ED1016A454F21F001010162A7
:100E1000016A106955685C689E6921F0020101430E
:100E200021F001012943156826F07300BB4240EA16
:100E300005005FD05C609861D2685A630120196236
:100E400003B0F0BD002003B0F0BD016A344F21F0C3
:100E500010010162006A11695E689C69556820F0A2
:100E6000200040EA011124F4E640146821F010014A
:100E7000BB4241EA051140EA042407D05E609C6150
:100E8000D2689A630120196203B0F0BDD069019065
:100E900097695069956821F0800126F4806641EADF
:100EA000801146EA8706019821F0400126F4006689
:100EB00041EA851146EAC006E0E7946926F48046D7
:100EC00046EA841674E7D06901909769506995687D
:100ED00021F4006126F4805641EA802146EA071693
:100EE000019821F4806126F4005641EA852146EA02
:100EF00040167EE724F4807E576994699668D56928
:100F000021F008014EEA040E41EA870121F00401B4
:100F10002EF4007E41EA86014EEA45048AE700BFCE
:100F200000000140C3689B0401D50020704770B5E4
:100F30000446CE684B68E26808690D463343896908
:100F4000184322F41643014323F00C030B43E360E0
:100F50002269AB6822F440521343236162696B69D2
:100F600022F44072134384B063616846FFF73EFE8B
:100F7000264B9C4208D0264B9C4229D0254B9C42B4
:100F800002D0002004B070BD039B002BF9D02A686A
:100F9000002AF6D0A969204803EB8303B1F5004F7E
:100FA00003EB830316D09200B3FBF2F3A0FB032103
:100FB0004909642202FB113212013232A0FB0223E2
:100FC000C3F3471303EB01139BB2A3600120D9E7DE
:100FD000029BDAE75200B3FBF2F3A0FB03125109C4
:100FE000642202FB1133DB003233A0FB0323C3F383
:100FF0004F1303F0070202EB011203F0F80302EBB8
:1010000043039BB2A3600120BCE700BF0010014076
:1010100000440040001401401F85EB51054A064B77
:10102000A2FB002080090138002105225860996048
:101030001A607047D34D621010E000E0014B186059
:10104000704700BF2C04002008B500F08DF9BDE802
:10105000084000F04DBC00BF704700BF08B500F06D
:1010600047FA00F0ADFC00F071FC00F0ADFA00F0C2
:1010700009F8FFF7F1FF002000F0B6FC003018BFC0
:10108000012008BD08B502204FF40051002200F0F5
:10109000F3FA02204FF40051BDE8084000F016BBFF
:1010A0000120704710B54FF400510446022000F0B3
:1010B00015FB034901230A78A34013430B7010BDAD
:1010C0005C08002010B54FF400510446022000F0E7
:1010D000FDFA044901230A78A34022EA03030B70B6
:1010E00010BD00BF5C08002010B54FF4005104464D
:1010F000022000F0FBFA034901230A78A340534081
:101100000B7010BD5C080020034B1B7843FA00F005
:1011100000F00100704700BF5C080020BFF34F8F54
:101120000549064BCA6802F4E0621343CB60BFF383
:101130004F8F00BFFDE700BF00ED00E00400FA059F
:1011400010B5014604460C220448012301F0FCFBC3
:101150002046BDE8104010F081BC00BF107AFF1F90
:101160002DE9F04FA5B024A90F23002441F8543DE8
:101170000226032370481093119614941394FFF7DA
:1011800027FC6E4B6E485A6C42F480725A645B6C5A
:1011900003F480730593059BFFF70EFA24A94FF41F
:1011A000003341F8803D6648FFF714FA6548FFF7C1
:1011B00021FA4FF4807307A9624809934FF44075F0
:1011C00008940794FFF77EFA95FAA5F84FF44013B8
:1011D0005C480B930AA90D960A940C940E95FFF7A0
:1011E0008BFAB8FA88F303934FF0007393FAA3F7DE
:1011F000B7FA87F2D340B340DFF864C1DFF858E1B3
:1012000001934FF0F87A9AFAAAF9B9FA89F302939E
:10121000019B4D499AFAAAF5002F14BF1A463A4687
:1012200004EB44031144B9F1000F029AB5FA85FBAF
:1012300044EA035308BF202203F0F87020FA02F6B4
:101240000722B2400E6826EA02020DB94FF0200BC9
:1012500020FA0BF00726864032430A605CF8041B34
:10126000039D3A48B8F1000F08BF202501F44072F1
:10127000EA409200104401F01F0102681F252B4034
:101280008D4022EA05058B4001342B43042C4FF09E
:10129000000503602EF8025BBAD12A4E274BB268D4
:1012A0002B4F2C48DFF8BCA042F00102B2601A6B51
:1012B00042F480021A631B6B03F480030693069BBF
:1012C0003B6823F001033B602946FFF741FA224ABD
:1012D000169229464FF4005C4FF4803E032315AA72
:1012E0004FF4807B4FF480694FF4006819482193D4
:1012F000179519951D941E95209522952395CDF847
:1013000060B0CDF854A0CDF86890CDF86C80CDF8E1
:1013100070C0CDF87CE0FFF70FFB3B680F4A43F04D
:1013200001033B60B368012143F08043B360117057
:1013300025B0BDE8F08F00BF000002400038024039
:1013400000230140002001400C2001402C200140DE
:101350001064024000640240C82C00205D08002098
:10136000F82201084C20014010B586B006A90F23D1
:10137000002441F8183D0E4801940223029305947D
:101380000494FFF725FB0B48836823F00103836077
:10139000FFF730F9084A0948136823F00103136086
:1013A0002146FFF7D5F9064B1C7006B010BD00BFF3
:1013B000000002400020014010640240006402402E
:1013C0005D080020074B9FED087A33F810309FED41
:1013D000070A07EE903AF8EEE77A67EE877A27EE8B
:1013E000800A7047C82C00203333534000008039F6
:1013F00004207047014B1878704700BF5D0800203B
:1014000038B5314A136823F00F0343F00203136029
:10141000136803F00F03022B00D0FEE72B492C4B7F
:101420000A6822F4404242F400420A601A6842F418
:1014300080321A601A461168254B8803FBD55D6817
:10144000244C254A254826492C4022435A605A6894
:1014500022F4403242F480325A605A68104001430C
:1014600059601A6842F080721A601A461168184B67
:101470008901FBD59A6822F0F0029A609A6822F4FA
:10148000E05242F480529A609A6822F460429A6074
:101490009A6822F0030242F002029A609A6802F00F
:1014A0000C02082AFAD10F48FFF7B8FD0E4A0D4882
:1014B000136843F004031360FFF7C0FD0B4B0022D9
:1014C000D96883F8232038BD003C024000700040FA
:1014D000003802400080BFFF195440000080BFF078
:1014E0001954400700BD010510E000E000ED00E0E8
:1014F00000B5194A194B506C194940F480405064AA
:10150000506C83B000F4804001900198106C40F062
:1015100080501064126C02F080520092009AD868D9
:101520004FF6FF0202401143D9600022D9681A76B3
:10153000D9685A76D9689A76D968DA77D96883F8FB
:101540002020D96883F82220D96883F82320FFF768
:1015500057FF03B05DF804FB0038024000ED00E0E7
:101560000003FA0582B0002210F1FF3012D301927D
:10157000019B032BF8D800BF00BF00BF00BF00BF16
:1015800000BF019B01330193019B032BF3D910F1A1
:10159000FF30ECD202B0704782B041F62C2210F13D
:1015A000FF300CD30192019B002BF8D0019B013B33
:1015B0000193019B002BF9D110F1FF30F2D202B060
:1015C000704700BF062070471C4B1A6B42F00102A7
:1015D0001A631A6B86B002F001020092009A1A6B2D
:1015E00042F002021A631A6B02F002020192019A9F
:1015F0001A6B42F004021A631A6B02F004020292A0
:10160000029A1A6B42F008021A631A6B02F008027F
:101610000392039A1A6B42F010021A631A6B02F0DB
:1016200010020492049A1A6B42F080021A631B6B38
:1016300003F080030593059B06B070470038024015
:1016400010B5002A86B002D0D4BF0222012206AB18
:10165000084C43F8181D049219460222002354F83E
:1016600020000193039305930292FFF7B1F906B0AE
:1016700010BD00BF1823010810B586B006AB82B9B3
:1016800043F8181D104C0392194654F82000049298
:1016900002230124059201940293FFF799F906B001
:1016A00010BD43F8181D084A194652F820000123BE
:1016B0000222002401930393049305940292FFF7FE
:1016C00087F906B010BD00BF18230108024B53F87C
:1016D00020309961704700BF18230108024B53F86E
:1016E000203009049961704718230108064B53F80C
:1016F0002000436901EA0302994318BF81610AB1DE
:1017000012048261704700BF18230108024B53F88E
:10171000203018690840704718230108416370475A
:1017200081637047C1637047016470472DE9F04FD2
:10173000644C236C95B043F00103236414AB256C17
:101740000F2443F8484D05F0010504460F46019566
:1017500019464FF0010E022300265B48019D0593B8
:1017600015460393CDF818E00496FEF747FE002CCB
:1017700000F0A0806100002FD8BF6427534A544B6B
:10178000544CDFF86891CCBFB8B238464FF0804B6C
:101790001080DBF8000020F00100CBF80000B2F967
:1017A00000201B68002D4FF0000A02F1FF32B8BF85
:1017B000322601FB07F15846B3FBF1F307A903F109
:1017C000FF330992ADF81C30ACBFAEB23546CDF850
:1017D00020A0CDF828A08DF82CA0FFF767FA0CA860
:1017E000FFF7B6FA3C4FCDF83CA060220123CDF8BC
:1017F00040A00C920D9334F8028B4FF0804041468C
:101800000CAAFFF7AFFAB8F1010F4FD0B8F1040FEF
:101810004AD0B8F1100F4BD0B8F1400F4DD0B8F509
:10182000807F4CD0B8F5806F0CBF052206222B4973
:1018300019F8023011F802C0294903F1804311F868
:1018400002E02849885C9A69032101FA0CF122EA36
:1018500001029A61DBF8201057F82A30022202FABE
:101860000EF221EA0202CBF82020DBF804104FF43C
:101870008072824021EA02024FF08048CBF80420B7
:10188000404629469847184B23F81A600AF1010A86
:10189000BAF1040FAFD1D8F8003043F00103C8F813
:1018A000003015B0BDE8F08F0122C0E70022BEE78E
:1018B0000222BCE74FF4FA615DE70322B7E7042296
:1018C000B5E700BF003802400000024030040020AD
:1018D0002C0400203823010840230108302301088C
:1018E00050230108602301086008002058230108E4
:1018F00000B587B006A90F2341F8143D022200234A
:1019000007480492029305930393FEF777FD4FF087
:101910008042136823F00103136007B05DF804FBF5
:101920000000024038B50446054B4FF0804053F8A4
:1019300024300D469847034B23F8145038BD00BFA0
:1019400040230108600800200420704708B50F4AB2
:10195000136843F4807313600120FFF71DFE0C4BE6
:101960000C4A1968914207D00A4A1A6000214FF0C8
:10197000FF3259609A6008BD9A685968D243914213
:10198000F2D10131CA4359609A6008BD007000402D
:1019900050080020424F4F54044B054A1A60002162
:1019A0004FF0FF3259609A60704700BF5008002026
:1019B000424F4F54014B5868704700BF50080020F9
:1019C000044B45F2555040F6FF71022218609960B1
:1019D0005A60704700300040024B4AF6AA221A6053
:1019E000704700BF003000402DE9F041454B94B0F6
:1019F000074680214448012201F046FA434B186013
:101A000000287BD0424B43488021012201F03CFA60
:101A1000414B1860002871D0404B41481A6B414C33
:101A200042F001021A631A6B02F001020192019A5C
:101A30005A6C42F010025A645B6C03F010030025EC
:101A40004FF40072029307A902234FF00708079290
:101A5000029E0893099301260A950B95CDF83080D4
:101A6000FEF7B6FF07A94FF480632D480793CDF822
:101A700030800B96FEF7ACFFAF4208BF4FF416570D
:101A80000C230DA9204611930D970E950F951095D7
:101A900012951395FFF746FAE3686FF4007143F46B
:101AA00000536FF04002E3602160226023680393DB
:101AB000039B63680393039B23680493049B6368FD
:101AC0000493049B23680593059B63680593059B1A
:101AD00023680693069B63680693069BE36843F0BE
:101AE00020032A46E3600A212520FEF743FC252037
:101AF000FEF776FC304614B0BDE8F081002014B04B
:101B0000BDE8F0817823010870230108202C002013
:101B100068230108742301081C2C002000380240AF
:101B2000000002400010014010B5194CE3681B068C
:101B300082B002D52368180619D4154B1A6891068D
:101B40000CD4134B1A68120706D55A681A6801920A
:101B5000019A5B680193019B02B010BD02A95B680A
:101B600001F8053D0B4B186801F0C4F9E9E70A4B91
:101B70000DF10301186801F0C7F918B19DF80330A1
:101B80006360DAE7E36823F08003E360D5E700BF32
:101B900000100140202C00201C2C002008B5054B13
:101BA000186801F085F9044B1868BDE8084001F099
:101BB0007FB900BF202C00201C2C002010B582B063
:101BC00002AB084C03F8010D0A462068194601F0E3
:101BD00073F928B1044AD36843F08003D36001202D
:101BE00002B010BD1C2C00200010014001207047E5
:101BF000FFF7D4BF10B5074B044601464FF0FF3244
:101C0000186801F069F9002814BF20464FF0FF3032
:101C100010BD00BF202C002010B5064B04460A461C
:101C20000146186801F058F9002814BF20464FF00B
:101C3000FF3010BD202C002070B50E1E11DD0446B3
:101C4000851902E0012001F0E5F820784FF0FF311E
:101C5000FFF7B4FF0028F5D00134AC42F5D130468F
:101C600070BD0026304670BD10B5044602E001206C
:101C700001F0D0F820464FF0FF31FFF79FFF00281A
:101C8000F5D010BD00F036BC00F028BA00F060B905
:101C900008B518B900F020F8002008BD00F0BAF827
:101CA000002008BD10B58BB20446214610461A46E6
:101CB00000F0B6F9002010BD10B58BB204462146E5
:101CC00010461A4600F054FB002010BD08B500F085
:101CD000A1FA002008BD00BF102110B54A4800221B
:101CE000FEF766FC49498A68484B9007FBD55022AD
:101CF000DA609A68454CD207FBD54348E368102167
:101D00000122FEF755FC404810210022FEF750FC4E
:101D10003F4B1B78002B52D0A2683C4B9007FBD561
:101D20000122DA601A469168384BC907FBD5DA6898
:101D30001A469168354B8C07FBD50022DA601A46AB
:101D40009168324BC807FBD5DA681A4691682F4B69
:101D50008907FBD53122DA601A4691682B4BCC07F4
:101D6000FBD5DA681A469168284B8807FBD5002214
:101D7000DA601A469168254BC907FBD5DA681A461E
:101D80009168224B8C07FBD51122DA601A469168C4
:101D90001E4BC807FBD5DA681A4691681B4B8907AA
:101DA000FBD50022DA609A681849D407FBD5CB68C6
:101DB000154810210122BDE81040FEF7F9BBA268CA
:101DC000124B9007FBD50122DA601A4691680F4B3F
:101DD000C907FBD5DA681A4691680C4B8C07FBD50E
:101DE0000022DA601A469168084BC807FBD5DA680A
:101DF0001A469168054B8907FBD50022DA609A687C
:101E00000249D207FBD5D2E7000002400030014072
:101E1000080A0020102110B54A480022FEF7C8FB2E
:101E200049498A68484B9007FBD55022DA609A6886
:101E3000454CD207FBD54348E36810210122FEF749
:101E4000B7FB404810210022FEF7B2FB3F4B1B7846
:101E5000002B52D0A2683C4B9007FBD50122DA60E0
:101E60001A469168384BC907FBD5DA681A4691685B
:101E7000354B8C07FBD53C22DA601A469168324B11
:101E8000C807FBD5DA681A4691682F4B8907FBD53E
:101E90003122DA601A4691682B4BCC07FBD5DA6801
:101EA0001A469168284B8807FBD50022DA601A464B
:101EB0009168254BC907FBD5DA681A469168224B11
:101EC0008C07FBD51122DA601A4691681E4BC807B1
:101ED000FBD5DA681A4691681B4B8907FBD50022AF
:101EE000DA609A681849D407FBD5CB6815481021E9
:101EF0000122BDE81040FEF75BBBA268124B9007C1
:101F0000FBD50122DA601A4691680F4BC907FBD551
:101F1000DA681A4691680C4B8C07FBD51C22DA60F4
:101F20001A469168084BC807FBD5DA681A469168CB
:101F3000054B8907FBD50022DA609A680249D2076F
:101F4000FBD5D2E70000024000300140080A002023
:101F5000102110B52F480022FEF72AFB2E498A686F
:101F60002D4B9007FBD50522DA601A4691682A4B63
:101F7000C907FBD5DA681A469168274B8C07FBD551
:101F8000A522DA601A469168234BC807FBD5DC68A6
:101F90001A46E0B29168204B8907FBD53522DA60FA
:101FA0001A4691681C4BCC07FBD5DA681A46916833
:101FB000194B8907FBD5A522DA609A681649D40720
:101FC000FBD5164BCC681B78E4B200EB0424D3B1EC
:101FD0008A68114B9207FBD51522DA601A46916880
:101FE0000D4BC807FBD5DA681A4691680A4B89077A
:101FF000FBD5A522DA609A680749D207FBD5CB68E2
:10200000DBB204EB0344034810210122FEF7D0FAAF
:10201000204610BD0000024000300140080A0020A8
:1020200070B504460E46154610212A480022FEF7D8
:10203000BFFA29498A68284B9207FBD50322DA6048
:102040001A469168244BC807FBD5DA68C6F30740E7
:102050001A469168204B8907FBD5D8601A469168CB
:102060001D4BC807FBD5DA68C6F307201A469168EE
:10207000194B8907FBD5D8601A469168164BC907DA
:10208000FBD5DA681A469168134B8807FBD5F6B280
:10209000DE601A469168104BC907FBD5681EDA68E6
:1020A00080B27DB1013020441946A5259A68960773
:1020B000FCD5CD609A68D207FCD5CA6804F8012B1C
:1020C0008442F3D1034810210122BDE87040FEF79D
:1020D0006FBA00BF0000024000300140102170B50F
:1020E00026480022FEF764FA25498A68244B9407A3
:1020F000FBD59F22DA601A469168214BC807FBD5B1
:10210000DA681A4691681E4B8907FBD5A522DA606A
:102110001A4691681A4BCE07FBD5DC681A46E4B222
:102120009168174B8D07FBD5A522DA601A46916896
:10213000134BC807FBD5DD681A46EDB29168104B0A
:102140008907FBD5A522DA609A680D49D207FBD52D
:10215000CE680A4810210122FEF72AFA2802F6B2B8
:1021600040EA0440304301D0EF2C00D070BD172E60
:10217000044B94BF002601261E7070BD0000024073
:1021800000300140080A0020102108B50B48002249
:10219000FEF70EFA0A498A68094B9007FBD506221A
:1021A000DA609A680649D207FBD5CB68034810214C
:1021B0000122BDE80840FEF7FBB900BF0000024065
:1021C0000030014010B5114810210022FEF7F0F94F
:1021D0000F4B05241946A5209A689207FCD5CC60C0
:1021E0009A68D207FCD5CA689A689207FCD5C8607D
:1021F0009A68D207FCD5CA68D207EDD403481021EB
:102200000122BDE81040FEF7D3B900BF0000024034
:102210000030014010B50446FFF75EFDFFF7B4FF44
:10222000102121480022FEF7C3F920498A681F4B7C
:102230009207FBD5D822DA601A4691681B4BC80773
:10224000FBD5DA68C4F307401A469168174B890733
:10225000FBD5D8601A469168144BC807FBD5DA68DD
:10226000C4F307201A469168104B8907FBD5D86044
:102270001A4691680D4BC807FBD5DA681A46916873
:102280000A4B8907FBD5E4B2DC609A680749D2079C
:10229000FBD5CB68044810210122FEF789F9BDE87F
:1022A0001040FFF78FBF00BF000002400030014028
:1022B00070B504460E461546FFF766FF10212A4802
:1022C0000022FEF775F929498A68284B9207FBD549
:1022D0000222DA601A469168244BC807FBD5DA68F7
:1022E000C6F307401A469168204B8907FBD5D86092
:1022F0001A4691681D4BC807FBD5DA68C6F307205C
:102300001A469168194B8907FBD5D8601A4691681F
:10231000164BC907FBD5DA681A469168134B880734
:10232000FBD5F6B2DE601A469168104BC907FBD5A3
:102330006A1ED96892B275B1A518611E184611F8C7
:10234000014F9A689607FCD5C4609A68D207FCD5FD
:10235000A942C268F3D1044810210122FEF728F9EE
:10236000BDE87040FFF72EBF000002400030014082
:102370002DE9F047130A904611F0FF020D46824600
:1023800022D1ABB3DBB203F1FF395FFA89F906461C
:1023900093B109F10106044600EB06260F1A4FF42B
:1023A00080722046E1191444FFF782FFB442F6D14F
:1023B00005F5807505EB0925304629465FFA88F258
:1023C000BDE8F047FFF774BF5442E4B2BBB95FFA0F
:1023D00088F39C420CD21A44D6B22246FFF768FF1B
:1023E00032460AEB04006119BDE8F047FFF760BF11
:1023F000504629464246BDE8F047FFF759BFA2B212
:10240000C2EB08081FFA88F84FEA18295FFA89F624
:102410005FFA88F706F1FF38FFF74AFF25440AEB19
:1024200004065FFA88F8B9F1000F1CD008F1010A20
:10243000344606EB0A2AAE1B4FF480722046A119DF
:102440001444FFF735FF5445F6D105F5807505EBCB
:1024500008250FB9BDE8F087504629463A46BDE841
:10246000F047FFF725BFB246F3E700BF2DE9F04381
:102470001E4B1F4D5A6C87B042F480525A6406AC12
:102480005B6C202244F8142D03F48053009305263E
:102490002146284602234FF003090027009A0293A1
:1024A000CDF8109003970596FDF7A8FF2146284622
:1024B000802301934FF001080596FDF79FFF214609
:1024C0002846402301930596CDF80C80FDF796FF32
:1024D000102321462846CDF81090CDF808800397A8
:1024E0000193FDF78BFF07B0BDE8F0830038024091
:1024F00000000240F0B5144D8BB0FFF7B7FF134852
:1025000010210122FEF754F800244FF4827E4FF48C
:10251000007207232846022701266946059209937F
:1025200000940294069407940894CDF804E003976D
:102530000496FEF77DFB2B68054A43F040032B60B1
:1025400014700BB0F0BD00BF00300140000002402D
:10255000080A00200023037043704360704700BFE7
:10256000F0B51C785E78012C01444BD048D3022C86
:1025700044D1884214463CD007782C4D46EA971641
:102580003F2E98BF15F806E007F03F0688BF4FF0D2
:102590003D0EAD5D84F800E065705D680135132D7A
:1025A00000F101005D602FD00234884238D00678F7
:1025B0001E4DB70806F00306ED5D257001303601AB
:1025C00004F1010E884225D0077846EA17163F2EFF
:1025D00098BF164D00F1010094BFAD5D3D2507F099
:1025E0000F0688420EF101044FEA86068EF800506D
:1025F000C2D102215E70A01A1970F0BD0020F0BD9A
:102600001446D2E79646DDE70A270025A770033473
:102610005D60CAE701215E70C2EB0E001970F0BD6B
:1026200000215E70A01A1970F0BD00BFD023010810
:102630000B78012B18D0022B05D003460A2203F891
:10264000012B181A70474B783F2B9CBF0F4AD15C67
:10265000034688BF3D2103F8021B3D2242700A2237
:1026600003F8012B181A70474B783F2B9CBF074A81
:10267000D25C4FF03D034370837088BF3D22C31C82
:1026800002700A2203F8012B181A7047D0230108A0
:102690000023037043707047F0B45C7814701C78AA
:1026A000032C7FD8DFE804F04E341A0201441646AA
:1026B0003D4F88425AD010F8015BA5F12B042A2D1A
:1026C000E4B2F6D9502CF4D83C5D2506F1D4357827
:1026D00004F03F042C433470013635E001441646C3
:1026E000314F884249D010F8015BA5F12B042A2D07
:1026F000E4B2F6D9502CF4D83C57002CF1DB3578F5
:10270000C4F383073D43A401357074700136CFE7ED
:1027100001441646244F884236D010F8015BA5F1DB
:102720002B042A2DE4B2F6D9502CF4D83C57002CB7
:10273000F1DB3578C4F301173D4324013570747023
:102740000136CDE701441646174F884223D010F8D2
:10275000015BA5F12B042A2DE4B2F6D9502CF4D854
:102760003C57002CF1DBA4003470D3E7032119702F
:1027700031785970B01AF0BC704702211970317865
:102780005970B01AF0BC7047012119703178597036
:10279000B01AF0BC70470021197031785970B01A26
:1027A000F0BC70470020E6E78023010830B583B015
:1027B0000D46002201A904460FF0AAFA019B73B14D
:1027C0009C4201D10BE0019313F8012B202AFAD08F
:1027D000092AF8D01AB92860012003B030BD0020C2
:1027E00003B030BD2DE9F041DFF8A4C0244DACFBAF
:1027F000013482B00F4624090646CAB9A5FB04730A
:102800005B09A5FB03751F4A1F49C3EB03176D093D
:10281000A4EB8707C5EB0515A2FB0442A3EB8503D8
:102820000097D20A01F01EF9304602B0BDE8F081EF
:10283000A5FB04E34FF0FA0E0EFB14775B094FF48F
:102840007A7EA5FB03850EFB07F70E4A0F49ACFB0A
:1028500007C7C3EB031E6D09A4EB8E0EC5EB051570
:102860003F09A2FB0442A3EB8503CDF800E00197EA
:10287000D20A01F0F7F8304602B0BDE8F08100BF9F
:1028800089888888C5B3A291302401081C240108D6
:10289000D34D621038B50C46054600F0ABFA22461F
:1028A00001462846BDE83840FFF79CBF08B10378D1
:1028B0000BB900207047FFF779BF00BF28B3F0B510
:1028C000067883B016B9002003B0F0BD14460D465B
:1028D000002201A907460FF01BFA019B0646002BB8
:1028E000F1D09F4201D1EEE7019313F8010B2028AC
:1028F000FAD00928F8D02A2809D00028E3D10346C5
:1029000001202E60236003B0F0BD00207047184600
:1029100001A900221F4601930FF0FAF9019B002B39
:10292000D1D09F4201D1CEE7019313F8012B202A89
:10293000FAD0092AF8D0002AC5D1012871F1000384
:10294000DDDB431EDCE700BF70B4FAB18D1C8618D6
:1029500004782409092C94BF3034373405F8024C2C
:1029600010F8014B04F00F04092C94BF30343734B5
:10297000B04205F8014C05F10205E9D101EB420234
:102980000BB100231370084670BC70470A46F7E786
:1029900000B583B001A901F0BFF903B05DF804FBF5
:1029A000F8B504460F4616461D4600211822FDF7CD
:1029B00037FC27606660A560F8BD00BF2DE9F84FC1
:1029C0000346002203F8012B0133427003F8012B68
:1029D00003F8012B03F8012B03F8012B03F8012B5B
:1029E0001A70CE688B689E4260DAD1F8048058F87D
:1029F00026700C4605466849022238460FF05CF8FE
:102A0000F0B9237D002B54D0226813786BB10021DC
:102A100002E012F8103F43B1042BFAD123698B4234
:102A200001F10101F5D1216113462B60E368626871
:102A3000591CE16052F823306B600120BDE8F88F2B
:102A40003B782D2BE0D1237D002BDDD1731CE3607F
:102A500058F826707A78002A70D02668337823B91F
:102A60006CE016F8103F002B68D0013B012BF8D822
:102A7000B3789342F5D12E603378022BDDD13846FE
:102A80000EF0ECFF022868D9BB1C6B60BB783D2BB5
:102A9000D3D1FB1C6B60FB78002BCED173789B07E6
:102AA00075D500236B600120BDE8F88F1046BDE8A6
:102AB000F88F731CE36058F826703D2138460FF0FC
:102AC0007BF807F102098046002841D0C9EB000AD3
:102AD000266833782BB937E0012A1DD916F8103F44
:102AE00093B3032B03F1FF32F6D1BAF1000FF5D106
:102AF0002E603378032B02D1012323753378022B08
:102B00009BD1B8F1000F28D008F101036B6098F851
:102B10000130002BC2D090E7D6F804B05846BBF184
:102B2000000FDBD00EF09AFF8245D7D159464846B8
:102B300052460EF0C1FF0028D0D1D9E7002385E826
:102B400088000120BDE8F88F002385E8880074E73D
:102B500048460EF083FF8246BAE77378A26813F006
:102B6000020FE3680AD093429BDA591C6268E16065
:102B700052F823306B600120BDE8F88F934206DAEB
:102B8000626852F8231009782D297FF451AF034B66
:102B90006B600120BDE8F88F4424010888390108E2
:102BA00070B502460E465948594904F043FB0028C7
:102BB00025DB337806F1100423B94FE014F8103BFD
:102BC000002B4BD014F80F5C6807F7D4514804F081
:102BD00031FB002813DB14F8103C022B12D0042B1D
:102BE00005F0010518D0052B24D0032B73D014F861
:102BF0000E1CC9B1484804F01DFB0028DEDA4FF076
:102C0000FF3070BDA9071DD454F80C1C54F8082CD3
:102C1000424804F00FFBF0E7002D60D154F80C1C83
:102C20003F4804F007FBE8E754F80C1C3D4804F06B
:102C300001FBE2E7002D58D154F80C1C3A4804F08F
:102C4000F9FADAE714F80E1C002954D154F80C1CD8
:102C500054F8082C354804F0EDFACEE734483549ED
:102C600004F0E8FA33780546344683B924E0626814
:102C7000002A46D0304804F0DDFA0546002DBEDBC0
:102C8000E068D8B104F0B8FA14F8103FA3B1627844
:102C90005207F9D4032BF7D0E0680028F4D0043BA6
:102CA000012B0FD9A1780029E1D1616881B12348B6
:102CB00004F0C0FA0546E1E7E81770BD204804F0CB
:102CC00089FAE1E71F48616804F0B4FA0546D5E7E0
:102CD000002DD7DA93E71C4804F0ACFA8DE754F8DE
:102CE0000C1C1A4804F0A6FA87E754F80C1C184884
:102CF00004F0A0FA81E754F8082C164804F09AFA78
:102D00007BE7154804F096FA0546B7E74824010822
:102D10001F3A01089C380108A42401087024010806
:102D200088240108AC2401089824010864240108BF
:102D300050240108323A0108BC240108CC240108BF
:102D400068320108B42401084424010880240108E1
:102D50009024010858240108D8240108F8B5074632
:102D600048680D46164650B10C490EF0ADFC0446BD
:102D700028B938463146FFF713FF2046F8BD084909
:102D8000084A094804F056FA686804F035FA3846EB
:102D90003146FFF705FF4FF0FF34EEE7EC24010862
:102DA000F33901087F390108F424010838B50446D5
:102DB0000EF054FE0546204604F00CFA3A2004F0CA
:102DC000E3F9092D05F1010405DC0134202004F0AC
:102DD000DBF90B2CF9D138BD704700BF06F046B8BF
:102DE00008B506F0D3FCA0F10200B0FA80F040096B
:102DF00008BD00BF06F08EB807F014B807F034B86D
:102E00004FF0500383F31188BFF36F8FBFF34F8FE1
:102E1000704700BF06F028BAFA23044A03FB00F00B
:102E2000A2FB0030800906F01FBA00BFD34D62102C
:102E300070B584B00646154603AC089A0092084661
:102E4000C3F38F0231462B46019405F09DFE012805
:102E50000CBF0398002004B070BD00BFF0B585B072
:102E600007460B9C0A9D50CC0196164608469A08C8
:102E7000394633460294009505F04CFE05B0F0BD8E
:102E800005F0B2BE05F072BF30B528CB83B0002488
:102E900000940446084611462A4605F097F8054670
:102EA00018B114B1214605F005FC284603B030BD29
:102EB000002105F037B800BF08B532EA220228BF6A
:102EC0004FF0FF32002305F0C7F8A0F10100B0FA7F
:102ED00080F0400908BD00BF08B532EA220228BFD1
:102EE0004FF0FF3205F00AFAA0F10100B0FA80F0CD
:102EF000400908BD002208B5134605F08FF90030DF
:102F000018BF012008BD00BF08B5002205F076FB00
:102F1000003018BF012008BD0146012005F06EB940
:102F2000002108B50A460B4605F096F8003018BF98
:102F3000012008BD31EA210128BF4FF0FF3108B55B
:102F400005F08CFA003018BF012008BD07F0BEB8AC
:102F500007F0D6B807F0C6B8044B036010B440239E
:102F6000034C0C6013605DF8044B7047A00C00200C
:102F70000C0A0020044B036010B45023034C0C6077
:102F800013605DF8044B70470C0B0020600B0020B1
:102F9000704700BF704700BF00F09EBD2DE9F043B1
:102FA000ADF2544D06A81E21002206F063FBB0F1DD
:102FB000000827DDDFF8589009AC002654F80CEC27
:102FC0002378A1682269A58ACDF800E06768019797
:102FD00002910392042BDEF8007054F8041C54F89C
:102FE000082C98BF19F80330084804974FEA850564
:102FF00088BF3F230136059504F01CF9B04504F164
:103000002404DBD10DF2544DBDE8F0830425010802
:10301000FC240108F0B58FB00024079401E0082CCF
:103020001FD0204606A907AA05F098FB0134002806
:10303000F5D0069808A905F0ABFB0028EFD0099859
:10304000089F0D9E0B9D0390C01B04900799069A44
:103050000C9B029700960195034804F0EBF8082CAE
:10306000DFD10FB0F0BD00BF2C25010810B50D4811
:103070000D4CFFF79BFE0D4A0D490E4804F0DAF89F
:103080000D48FFF793FE0D4B2046196804F0D2F867
:103090000B48FFF78BFE2046FA21BDE8104004F0F4
:1030A000C9B800BF5025010870370108682501081C
:1030B0005C25010854250108702501082C04002016
:1030C0007C250108F0B5002A059D069F67DD91F873
:1030D00000C0BCF1000F2CD00E46002416F801EF02
:1030E0000134BEF1000FF9D1A24223DC724613F085
:1030F000020F0CBF4FF0200E4FF0300E13F0010303
:103100001AD1002A52DD3C680CE0046884F800E023
:103110000468013404603C6801343C60013A03F106
:10312000010349D0A542F9D90028EED16FF0010082
:10313000F0BD6446121BDAE76646BCF1000F15D0FD
:1031400000233C680BE004682670046801340460C6
:103150003C6801343C6011F8016F01333EB1A54277
:10316000F9D90028EFD16FF00100F0BD6346002AC5
:103170001FDD3C681A440BE0016881F800E001683B
:10318000013101603C6801343C600133934211D04D
:10319000A542FAD90028EFD16FF00100F0BD13F07D
:1031A00001030FD191F800C04FF0200E6646002EAB
:1031B000C7D11A461046F0BD91F800C06646002EF1
:1031C000BFD1F6E70E784FF0200E002EB8D1324670
:1031D000F0E700BFF0B587B00F460F9E109D0029A5
:1031E00045D00C46864673BB00238DF817300DF191
:1031F0001701002F33D01F460E9B0DF11701A3F1CD
:103200003A00B4FBF2F302FB1344092CC8BF2418A4
:10321000303401F8014D1C46002BF2D1FFB10C9B5C
:10322000002B34D12D2301F8013C002401390096F4
:10323000019570460C9A0D9BFFF744FF002800DBB8
:10324000204407B0F0BD0A2ACED10029CCDA0023F1
:103250004C428DF81730002C36D00127CCE7119B5B
:103260009BB12B2301F8013C00240139DFE70096D4
:103270000195302403A90C9A0D9B8DF80D708DF8E3
:103280000C40FFF71FFF07B0F0BD119CCFE70D9B6F
:103290009B07C7D52B689E420ED9BEF1000F10D0F8
:1032A000DEF800302D221A70DEF800300133CEF83F
:1032B00000302B6801332B600C9B013B0C930124E5
:1032C000B5E76FF00100BCE70DF11701A7E700BFFC
:1032D0002DE9F04F2DED028BB3B0013A1D780B9123
:1032E000002411463E9A129481460692002D00F069
:1032F000F580DFED8E8AA24688461A461AE01578D8
:10330000129B98450ED9B9F1000F00F08F80D9F8C3
:1033100000301D70D9F80010129B01310133C9F83B
:10332000001012930AF1010A14466578621C002D00
:1033300000F0D580252DE2D15378541C002B00F0ED
:10334000CE80252B79D02D2B03BF9378941C01269A
:1033500000262B2B73D000220A9203E014F8013FC1
:1033600046F00206302BF9D02E2B33D0A3F13002D9
:10337000D2B2092A2ED90622079200276C2B04BF4D
:1033800063780134682B5FD0583B202B46D8DFE8A8
:1033900013F0330345004500450045004500450056
:1033A0004500450045004500BB01F7018D01D100F6
:1033B000D100450045004500450045004500450059
:1033C0004500D40145004500B600450029024500EE
:1033D00045001002062100270D463146621C3E467C
:1033E0008B4603E000EB4C0512F8013BA3F13001E2
:1033F0002E2BC8B202F1FF340AD0092805EB850C48
:1034000007EB870E07D8002EECD101EB4E07EBE758
:1034100000250126E8E707955E46AFE7129B984531
:1034200040F21182B9F1000F40F0F5816FF0010018
:1034300033B0BDEC028BBDE8F08F224660E701227D
:1034400063780A9214448DE76378583B0134202B4B
:10345000E4D801A252F823F0053A00081D34000810
:103460001D3400081D3400081D3400081D340008F8
:103470001D3400081D3400081D3400081D340008E8
:103480001D340008093700088D380008AD360008E3
:1034900035350008353500081D3400081D34000896
:1034A0001D3400081D3400081D3400081D340008B8
:1034B0001D3400081D3400087D3800081D34000844
:1034C0001D340008FF3400081D3400089B38000834
:1034D0001D3400081D34000881380008AA460B9BE3
:1034E00013F0010305D1B9F1000F9FD0D9F80020E6
:1034F0001370504633B0BDEC028BBDE8F08F069BD5
:103500000B4D1968CDF8008012A8002908BF294684
:1035100001903A4633464846069DFFF7D3FD002802
:1035200005F1040584DB82440695FEE6CDCCCC3D56
:1035300088250108069B03F1070E2EF0070E9EED6D
:10354000007B0EF108050022002351EC170B8DEDD6
:10355000087B06950CF0D0FF002840F02A820A9BD9
:10356000002B40F083811DAB0A939B46079B072BE2
:103570000ED8BC4B079D03EBC503DDE90801D3E979
:1035800000230CF095FBCDE90801002D00F04082EE
:10359000079D00230120013300EB8000AB424FEA7E
:1035A0004000F8D107950CF0BFFCCDE90C01DDE936
:1035B00008010CF0C9FF002800F07F81079D0DF184
:1035C0004B0C03464FF0000EA74AA2FB0312D20891
:1035D00002EB8201A3EB410330330CF8013F0EF103
:1035E000010E1346002AEFD113A901EB0E030BF1D4
:1035F000FF3213F801CD02F801CF8B42F9D10795C4
:10360000F344079B002B3FD00CF08EFC02460B4688
:10361000DDE908010CF04AFBDDE90C230CF0FAFCB3
:103620000CF092FF2E238BF80030002800F0088267
:10363000079D0DF14B0100228B4BA3FB00E3DB0840
:1036400003EB830EA0EB4E00303001F8010F013286
:103650001846002BF0D19542079598BF13A940F268
:10366000BA8113A9531E079D0B44302001329542A5
:1036700003F8010F4FF0300EF8D8002A40F0AB816C
:103680008BF801E00BF1020B12A800250190CDF898
:1036900000800A998BF800503A4633464846FFF7B7
:1036A00011FD0028FFF6C4AE82443EE6069B0733B8
:1036B00023F00703D3E90001083306930CF064FFFD
:1036C00000EE100A08EE100A0CF0D0FA002840F0C4
:1036D000FA806E2361228DF874308DF876308DF883
:1036E00075200DF1770012A9002505703A46019169
:1036F00033464846CDF800801DA9FFF7E3FC0028BB
:10370000FFF696AE824410E63346069E12A8316854
:103710008DF8441001903A46CDF8008000254846C7
:1037200011A98DF84550FFF7CDFC002806F10406DD
:10373000FFF67EAE82440696F7E50020D9F8003009
:1037400030221A70D9F800307822591CC9F80010BC
:103750005A70D9F8003001330AF1020AC9F8003072
:10376000002F73D1002800F09E80069A042713468C
:103770003B441168069346F0020689B241221EE0DE
:10378000069A13460433116806930A98059061223D
:1037900012AB0292049300970196CDF80C80484634
:1037A0000A220123FFF716FD0028FFF641AE8244EE
:1037B000BBE5069A134604331168069361220A9802
:1037C000059012AB0292049300970196CDF80C80FD
:1037D000484610220023FFF7FDFC0028FFF628AE24
:1037E0008244A2E5069A13460433116806930A98A8
:1037F0000590612212AB0292049300970196CDF8D6
:103800000C8048460A220023FFF7E4FC0028FFF65C
:103810000FAE824489E5D9F8003025221A70D9F814
:103820000020129B511C0133C9F8001098452178E3
:10383000129308D95170D9F80020129B013201333C
:10384000C9F8002012930AF1020A6EE5069A13469F
:10385000043346F002061168069300288ED089B220
:103860008CE700BF90250108CDCCCCCC2B238DF864
:1038700074301DAB0DF1750B0A9377E601205DE7FF
:10388000069A134604331188069397E7069A13465F
:103890000433B2F90010069377E7069A134604330F
:1038A00011880693A3E7069A13460433116806931A
:1038B00046F002060827412281E730238BF80030CA
:1038C0000BF1010B9DE6B0EE480A0CF0CFF9012890
:1038D000B0EE480A40F2A1800CF0C4F9002800F0D4
:1038E00085802D23B1EE488A8DF87430B7EE007ACA
:1038F000B4EEC78AF1EE10FAF2EE047A54BFF0EE9D
:10390000686AF0EE676A0021B4EEE78AF1EE10FA19
:1039100018EE103A04DAB4EEC78AF1EE10FA04D5C4
:103920001BB128EE268A0131EEE70122B7EE007ABC
:103930000DF175054FF02E0C01E001320546C8EE81
:10394000077A012A05F10100FCEEE77ACDED077A4E
:103950009DF81C3007EE903A03F1300E85F800E038
:10396000F8EEE77A6ED067EE277A072A27EE287AF4
:1039700038EE678AE1D1F0EE007AF4EEE76A65236B
:10398000F1EE10FA037035DD00290CBF2B232D2337
:10399000334A437082FB0132CB17C3EBA20202EB26
:1039A0008203A1EB430330333032C37082700430A2
:1039B00099E6DDE9080101F100430F930E909DEDBA
:1039C0000E7B2D238DF874301DAB8DED087B0DF132
:1039D000750B0A93CAE58B18584613F8015D00F879
:1039E000015F8B42F9D1013293444DE620238DF8DB
:1039F00074307BE72B23CBE7069A13460433116818
:103A00000693BBE6069A1346043311680693B4E6A0
:103A10009FED117B8DED0C7BC9E50CF023F900289F
:103A200014BF20232D2369216E228DF87430662364
:103A30008DF875108DF876208DF877301EA852E637
:103A400002460EE667EE277A85F801C0A81C38EE1C
:103A5000678A27EE287A70E7000000000000F03F38
:103A6000676666660EB410B587B009AC039054F86B
:103A7000043B009403A800214FF0FF320594FFF7A8
:103A800027FC07B0BDE8104003B0704710B584B004
:103A900004AC0B4644F8040D0021009220464FF080
:103AA000FF32FFF715FC04B010BD00BF074A1368D2
:103AB00043B10749184488428CBF4FF0FF33106070
:103AC00018467047034B1360F3E700BFF40C002067
:103AD00000FC0020D02C002038B5FDF7E1FA0546A7
:103AE000FFF78EF9002D06DD002420460134FDF796
:103AF000E9FAAC42F9D1002D06DD0024204601345C
:103B0000FDF7F2FAAC42F9D14FF4FA70FDF744FD3B
:103B1000F1E700BF014B1868704700BFF80C0020A8
:103B2000024B1A6818601046704700BFF80C00205E
:103B3000704700BF30B5154D2C6883B00CB103B091
:103B400030BDFFF749F9FFF7F3FFFDF787FAD0B172
:103B50000F48214603F05CFCA8B10E490E4800F066
:103B600035F80E490E4800F031F803220D4B009253
:103B7000019322460C480D494FF48053FFF76EF92C
:103B800028600028DBD1FFF7A7FF00BF242C00200E
:103B9000702B0108182601082C3601089026010810
:103BA000B427010808260108102601086D7A0008CC
:103BB00008B5054B1B681BB1FFF710F9FFF78CFF29
:103BC000FFF7B8FFF8E700BF242C0020F8B5037812
:103BD000154E05462F2B0F4608BF0135002456F819
:103BE000343029461846013413B10DF06DFDB8B1DB
:103BF000032CF4D132680C4BA2B19A6822B11B6934
:103C0000022413B10020F8BD01247B6898470028E6
:103C1000F8D006EBC40346F834505F600120F8BDCD
:103C20000120F8BD1446F0E72C2C002003782F2B40
:103C300001D0002070474378EBB110B4104C2268DB
:103C40001A445278520710D02F2B0ED0013006E0C4
:103C500022681A445278520707D02F2B05D001F85A
:103C6000013B10F8013F002BF2D1002301200B7023
:103C70005DF8044B704700230B700120704700BFB4
:103C80003C04002003782F2B01D00020704743789C
:103C9000002BFAD010B4114A14680130E21805E084
:103CA0002F2B0CD010F8013FE21823B152785207A5
:103CB000F6D12F2B03D000205DF8044B7047013064
:103CC00003782BB101F8013B10F8013F002BF9D12B
:103CD000002301200B705DF8044B70473C0400206A
:103CE00070B584B06946FFF7A1FF78B1094E002492
:103CF00056F8343006EBC40569461846013413B152
:103D00000DF0E2FC20B1032CF2D1002004B070BD14
:103D10002846FBE72C2C002070B588B005460E46DF
:103D2000FFF7DEFF694604462846FFF7ABFF28B1E0
:103D300034B1636868469B6B3146984708B070BDE4
:103D4000204608B070BD00BF30B589B00546FFF70A
:103D5000C7FF694604462846FFF794FF20B12CB1FF
:103D6000636868469B69984709B030BD204609B032
:103D700030BD00BF70B588B005460E46FFF7B0FFF6
:103D8000694604462846FFF77DFF28B134B16368D1
:103D90006846DB693146984708B070BD204608B0D8
:103DA00070BD00BF2DE9F04389B004460E46FFF711
:103DB00097FF694605462046FFF764FF90B1A5B11D
:103DC000FFF71AF81B4900240B465A680C3382B1DE
:103DD0000134052CF9D1FFF711F86B681B68072235
:103DE0001A60002009B0BDE8F083284609B0BDE89C
:103DF000F08304EB44084FEA880801EB08076B687E
:103E00007B60FEF7FBFF6B68DFF828901B6A684653
:103E100031469847034638B96A681268062111602E
:103E20007B6009B0BDE8F08349F8080004F10A009E
:103E3000D8E700BF442C00200A38042827D8002ADD
:103E400023DDF8B54600154B351803EB85052C7AB4
:103E500074B9304480000344104D5B68D3B15B6A91
:103E60002858984700280ADB0CB10130F8BDF8BD8E
:103E700000270C70013A01312F720124E9E7002C70
:103E800014BF01204FF0FF30F8BD002070474FF005
:103E9000FF3070474FF0FF30F8BD00BF442C0020CA
:103EA0000A3804280DD810B400EB4000094B8000FC
:103EB0001C18646844B1E46A185823465DF8044B42
:103EC00018474FF0FF3070474FF0FF305DF8044B5C
:103ED000704700BF442C00200A38042815D8F8B5D4
:103EE00000EB40000B4D84002E1973687BB15A6BB8
:103EF00028591F6890473860FEF77EFF00237360E3
:103F00002B51FEF77BFF0120F8BD002070471846BB
:103F1000F8BD00BF442C002070B58CB00E4605469D
:103F2000FFF7DEFE044620B128466946FFF77EFE15
:103F300010B900200CB070BD28460DF11101FFF73B
:103F4000A1FE30B163683146DB6B04A898470CB022
:103F500070BD2F23ADF81030F4E700BF012070478B
:103F6000024600230B60184613607047002070471C
:103F70000020704700207047002070474FF0FF304E
:103F8000704700BF10B401380E4B53F83040ACB14D
:103F9000002A0FDD03EBC0025268114400290DDB3B
:103FA000A26891420ADC03EBC003084659605DF841
:103FB000044B70471CBFA268511AEFE74FF0FF3067
:103FC000F5E700BF541D0020002070470138034B67
:103FD000002243F830200120704700BF541D00200C
:103FE00007490B46002243F8042B04334A6043F888
:103FF000042B43F8042B43F8042B01201A6070476C
:10400000541D00202DE9F041114D124F06460024A9
:1040100057F834304FEAC4082BB10134032CF7D1E0
:104020000020BDE8F081286820B9F6E755F80C0FAC
:104030000028F2D031460DF047FB0028F6D1B844F5
:1040400047F83450C8F80400601CBDE8F08100BF98
:104050006C260108541D002070B50A4B0A4C054619
:104060000E4602E054F80C3F4BB1184629460DF0BD
:104070002BFB0028F6D1A3683360012070BD1846E1
:1040800070BD00BF582601086C260108F8B501383C
:104090000F4B53F83050BDB103EBC006AB687768E7
:1040A000DB1B23EAE3739A42A8BF1A4614460AB9F7
:1040B0001046F8BD0846696839440DF025F8736864
:1040C000234473602046F8BD4FF0FF30F8BD00BFB9
:1040D000541D002038B50D4608490DF0F5FA50B9C9
:1040E000074C0848A1680022A84754F80C0F002884
:1040F000F8D1012038BD002038BD00BF602601087E
:104100006C26010858260108F8B50B4C0B4B0546E8
:104110000F46164602E054F80C3F5BB1184629469C
:104120000DF0D2FA0028F6D163683B60A3683360D3
:104130000120F8BD1846F8BD6C2601085826010874
:10414000014808F0F3BF00BFE4240020014608B591
:10415000024808F027FEC043C00F08BDE424002039
:104160000A4608B50146034808F0E0FEC043C00F08
:1041700008BD00BFE424002070B500293FD00B78B3
:10418000002B3ED000242546224626460AE0772B07
:1041900020D02B2B20D0612B20D04B1C08D011F825
:1041A000013F2BB1722BF2D14B1C4FF00106F6D11F
:1041B000BEB1EAB1002D14BF19221A2214B142F087
:1041C000040292B2014600230F4808F0E7FA20EA01
:1041D000E07070BD0122E0E70124DEE701252A46F8
:1041E000DBE73AB9002DE9D042F0010292B2E5E7EF
:1041F0000822F7E7002D0CBF12221122DEE70A4643
:10420000E0E71A46DEE700BFE424002008B500B26C
:1042100013460A460146034808F0B6FB20EAE07060
:1042200008BD00BFE424002008B500B213460A46CA
:104230000146034808F030FC20EAE07008BD00BFEA
:10424000E424002000B213460A460146014808F063
:1042500019BD00BFE424002008B501B2024808F0EF
:1042600015FE20EAE07008BDE424002008B501B284
:10427000024808F031FE20EAE07008BDE424002086
:10428000014808F0A5B900BFE424002030B58FB084
:1042900004460D466A460E480E4908F0D9FE28B974
:1042A00010E00DF10E000DF00FFA68B103A9684699
:1042B00008F0EAFE21460028F3D10446684608F0DB
:1042C0001FFF20460FB030BD0C9B2B600124F5E78B
:1042D000E42400206026010810B58EB00C466A4622
:1042E0000B480C4908F0B4FE20B90EE00DF10E00A9
:1042F0000C99A047684603A908F0C6FE00220028D2
:10430000F4D1684608F0FCFE01200EB010BD00BFDD
:10431000E4240020602601080A460146014808F00E
:104320002FBF00BFE424002030B53A488DB008F01C
:1043300049F9044610B101200DB030BD4FF480336F
:1043400035483649364A09934FF480750A930490EC
:1043500005910692079408940B95FDF793FCFDF7E1
:1043600093FCC0F30743852B2AD022DC1F2B24D1DA
:10437000C0F30420082837D14FF40003079300202E
:10438000FDF786FCF0230093264901914FF4AF62BC
:10439000002302920393244A244B1E4804A908F0E8
:1043A0004FF91C4808F00EF9003018BF01200DB07D
:1043B00030BDC82B04D0EF2B02D000200DB030BD93
:1043C000C0B214380528F8D801A353F820F000BF74
:1043D0000D44000805440008FD4300087943000827
:1043E000F5430008ED4300082046A5E74FF00073B1
:1043F0000793C4E74FF080730793C0E74FF480033F
:104400000793BCE74FF400130793B8E74FF480130A
:104410000793B4E7E4240020A51C0008B91C000899
:10442000CD1C00086C1F00206C1D0020642500209E
:1044300008B5084808F0C6F808B9012008BD0548C5
:1044400008F07AF9034808F0BDF8B0FA80F04009A6
:1044500008BD00BFE424002008B50548FEF75CFD58
:10446000044A03461360003018BF012008BD00BF96
:1044700058260020802C002010B5094C236853B129
:10448000FEF7AEFC00B910BD20684FF0FF31BDE86B
:104490001040FEF74FBDFFF7DFFF0028F3D0EFE736
:1044A000802C002010B5084C236843B1FEF798FC1F
:1044B00000B910BD2068BDE81040FEF731BDFFF720
:1044C000CBFF0028F5D0F1E7802C002008B5034889
:1044D00008F078F8003018BF012008BDE42400205F
:1044E0002DE9F04188B0431E0A1D884602A82849DC
:1044F000FEF756FA00263746354602A96846FEF70B
:104500005DFA24490446B8B1009B2BB35C68204691
:104510000DF0DAF8204930B120460DF0D5F81F49EA
:1045200018B9019FE9E70125E7E720460DF0CCF82F
:104530000028E2D1019EE0E7CFB1384602F0C8FE84
:10454000174A184B002814BF1046184602F054FEB4
:10455000204608B0BDE8F081D8F800000C4A694652
:10456000FEF7FCFB0446204608B0BDE8F08156B1DA
:10457000304602F0C7FE0028EAD002F005FE0A200D
:1045800002F002FEE4E7294602F0D6FE0446DFE729
:10459000302B010840270108F032010844270108A8
:1045A000E93801084A3A01082DE9F04F8FB00A1D99
:1045B000431E4FF47A7581460E4608A84FF0FF342B
:1045C000504904950594FEF7EBF900274E4DDFF8AE
:1045D0004CA1B84606A808A9FEF7F0F9002868D053
:1045E000069B002B7ED05C68AC4268D054456DD0F1
:1045F000204646490DF068F8002853D0444B9C42B1
:10460000E8D10B9B56F8230002F062FE0B9BC3EB34
:10461000090206EB830383460092019300286ED0C3
:104620003C4B984245D03C4E4FF0000A9DE80300B9
:10463000D8478146002862D1B8F1000F04D0059B0D
:104640000AF1010A9A4536DA002F55D1049B032B53
:104650009CBF04230493FEF7CDFBFA240546FEF726
:10466000C9FB049B04FB03F3A6FB032305EB931395
:1046700098424FF002010DF10F00D7D2FDF7CCFAAE
:104680000130ECD09DF80F30032BE8D102F0ECFEA6
:1046900088B100200146024602F0CEFE48460FB027
:1046A000BDE8F08F06A808A90127FEF787F90028C2
:1046B00096D14FF0FF3948460FB0BDE8F08F07980C
:1046C00004A9FEF7F3F8002884D1F2E7079805A9BA
:1046D000FEF7ECF80028ECD0059B002BE9DD4FF04D
:1046E000010877E73068074A06A9FEF737FB8146DD
:1046F00048460FB0BDE8F08F02F078FDA6E74FF016
:104700000109D8E7D0260108DE3801084C27010846
:10471000C8390108A9450008D34D62105E3A010866
:10472000F0B58BB04FF47A730F4604460193FEF751
:1047300061FB631E06463A1D04A82249224DFEF77E
:104740002FF904E0029B0BB35B68AB4227D002A8B1
:1047500004A9FEF733F904460028F3D1019D002D8A
:10476000B8BF0335AD10002106E09DF80330032BE0
:104770001ED0FEF73FFB811B691A0DF10300FDF708
:104780004BFA0130F1D120460BB0F0BD38680D4A2C
:1047900002A9FEF7E3FA044620460BB0F0BD0398E9
:1047A00001A9FEF783F80028D1D14FF0FF34EAE7E2
:1047B00002F05AFE0028E6D000200146024602F030
:1047C0003BFEE0E720270108203901082DE9F04FE2
:1047D0008FB00C46054601910390FCF7F3FE221DB5
:1047E00002906B1E08A86649664C674D674EFEF73F
:1047F000D7F80027B846BA46B94606A808A9FEF772
:10480000DDF800286CD0069A002A7DD0D2F804B0DA
:10481000A3455DD0AB4568D0B34568D090685C498E
:104820000CF052FF002865D05A4A9345E5D10B9B06
:10483000019A52F8230002F04BFD0B9D044600281C
:1048400000F09C802FB13846FEF7A2F8071C18BF75
:104850000127B8F1000F1FD0404605A90A220DF02C
:104860004BFA059B0646002B71D01A782E2A54D09D
:10487000002A56D14FF0FF33002E52DB0299B1428D
:104880004FDD0AB11F2B4CD8012130469940FCF76F
:104890003DFF002818BF0127BAF1000F0DD0BAF173
:1048A0004C0F45D0BAF1650F5FD0BAF1470F04D174
:1048B000FFF730F9049B98423FDCB9F1000F01D0BB
:1048C00087F00107002F3BD100200FB0BDE8F08F2B
:1048D00006A808A9DDF81C80FEF770F8002892D120
:1048E0004FF0FF300FB0BDE8F08F079F85E74FF026
:1048F000010982E7079804A9FDF7D8FF0028EFD047
:10490000069B93F802A078E7019B1D4A186806A948
:10491000FEF724FA0FB0BDE8F08F581C05905B78C5
:10492000BBB91D4802F07AFC01200FB0BDE8F08F42
:10493000FFF7F0F8049B9842BFDAB9F1000FC3D13A
:10494000039B581B019B03EB8501A047CAE71A464E
:1049500090E70A2205A90DF0CFF9059A034612B196
:104960001278002ADDD1012286E7FFF7D3F8049BF5
:104970009842A2D1B9F1000FA6D1E1E70120B1E739
:10498000B42D010802390108C3390108D4380108DF
:1049900054270108C83901080C3A010810B504462B
:1049A0004078A168FCF79AFEE068FCF7DBFD6168DF
:1049B0002078FCF793FEE068FCF7D4FD616820786E
:1049C000FCF784FEE068FCF7CDFD6078A168BDE8E7
:1049D0001040FCF77BBE00BF10B504464078A168CC
:1049E000FCF774FEE068FCF7BDFD61682078FCF719
:1049F0006DFEE068FCF7B6FDA1686078FCF76EFE1E
:104A0000E068FCF7AFFD20786168BDE81040FCF776
:104A100065BE00BFF8B5037D002B04460F4614BFEA
:104A200001258025082615E0FCF750FEE068FCF71C
:104A300099FD61682078FCF749FEE068FCF792FD7B
:104A400020786168FCF74AFE237D6A004BB1013E85
:104A5000D5B20AD03D426078A168E5D1FCF73EFEB0
:104A6000E4E7013E4FEA5505F4D1A1686078FCF710
:104A70002DFEE068FCF776FD20786168FCF726FEE5
:104A8000A1686078FCF742FE0546E068FCF76AFD25
:104A900020786168FCF722FEB5FA85F04009F8BD80
:104AA00070B50B4E56F8204084B1054661682078F9
:104AB0000022FCF7C5FD6078A1680022FCF7C0FD6C
:104AC0002046FEF747FA002346F8253070BD00BFA8
:104AD000AC260020F8B51E4D55F8204007460E467E
:104AE00064B3207861680022FCF7AAFD6078A168B1
:104AF0000022FCF7A5FD33687268B568F168236091
:104B0000A5606260E160A378E0787269012505FA2A
:104B100003F13369626105FA00F223616160A2600A
:104B200020780022FCF7A8FD2A466078A168FCF7EF
:104B3000A3FD2046FFF732FF2846F8BD1820FEF7F8
:104B400005FA044610B145F82700D4E7F8BD00BFC8
:104B5000AC2600202DE9F84F5E4CDDF828A054F873
:104B60002040002C00F0AE801E4691460D46002BE2
:104B70006BD1BAF1000F00F092802046FFF72CFFB6
:104B80000B9B002B40F082802369590041F001010A
:104B9000C9B22046FFF73EFF002800F08C80BAF132
:104BA000000F6DDD09F1FF390AF1FF3B4FF00008FE
:104BB000237D6078A168002B14BF0126802608257C
:104BC000FCF784FD002702E0013DD6B21BD0E0686F
:104BD000FCF7C8FC20786168FCF778FD6078A16874
:104BE000FCF794FD00B13743E068FCF7BBFC20788C
:104BF0006168FCF773FD237D7200002BE4D1013D59
:104C00004FEA5606E3D1C3456078A16844DCFCF75F
:104C10005DFDE068FCF7A6FC61682078FCF756FDB6
:104C2000E068FCF79FFC08F1010820786168FCF758
:104C300055FDD04509F8017FBAD10C9B1BBB20461E
:104C4000FFF7ACFE0120BDE8F88F2046FFF7C4FE59
:104C50000B9BF3B923695B00D9B22046FFF7DAFE5C
:104C600048B3002EC8BF761906DD15F8011B204693
:104C7000FFF7D0FEB542F8D1BAF1000F7FF47DAF57
:104C80000C9B002BDBD00120BDE8F88F9DF82C1089
:104C90007FE79DF82C10E0E7FCF720FDB9E7204600
:104CA000FFF79AFE0B9B83B19DF82C102046FFF76F
:104CB000B1FE0028C3D12046FFF770FE4FF0FF3051
:104CC000BDE8F88F2046BDE8F88F23695B00D9B2B4
:104CD000ECE700BFAC2600202DE9F04FADF5197DC3
:104CE00000240A1D431E01260525824689460CA87C
:104CF0009E4909948DF848408DF849408DF84B4005
:104D000016948DF85C408DF84A601595A046FDF725
:104D100047FEA34605940494954D964C964E0AA8DA
:104D20000CA9FDF74BFE28B30A9B002B00F0A780CF
:104D30005F68A74255D0AF4260D0B74263D08F4A78
:104D4000974248D08E4A974255D038468D490CF04C
:104D5000BBFC002842D038468B490CF0B5FC00283B
:104D600056D101230AA80CA98DF85C30FDF726FE68
:104D70000028D9D1049B002B40F0DA80059B002B42
:104D800040F0DE800F9A059C013292450F9208ADEB
:104D900040F39B8018AE09E00F9A2B68335501321F
:104DA00092450F9204F1010440F39080294659F88E
:104DB0002200FDF77BFD31460028EDD1734802F05B
:104DC00009FA0F9B59F8230002F016FA01200DF59D
:104DD000197DBDE8F08F01230493A0E74FF0010B8C
:104DE0009DE70B9816A9FDF761FD002800F0B28041
:104DF0004FF0010893E70123059390E70B9815A95D
:104E0000FDF754FD8BE70B9809A9FDF74FFD86E7E9
:104E100038465F490CF058FC68B138465D490CF0E3
:104E200053FC002835D05C4A97427FF478AF0F9B43
:104E3000013B0F939EE707A90B980A220CF05CFF39
:104E4000079B8DF84800A3B11A782E2A11D1581C5F
:104E500007905B786BB107A90A220CF04DFF079B06
:104E60008DF84A00002B3FF45AAF1B78002B3FF41B
:104E700056AF4A4802F0D2F94FF0FF3005E0D9F8BA
:104E800000003A4A0AA9FDF769FF0DF5197DBDE852
:104E9000F08F07A90B980A220CF02EFF079B8DF8C4
:104EA0004900002BE5D01A782E2AE2D1581C079031
:104EB0005B78002BDDD007A90A220CF01DFF079BB1
:104EC0008DF84B00002BD0D129E718A9099AB8F129
:104ED000000F3BD0169B58AE8DE80C0800202346EF
:104EE0003246FFF737FE286090B3013038D0099B77
:104EF000002B1BD04FF000032B6017DD1C4605E094
:104F00002B68099A01339A422B600BDDF15C24482F
:104F100002F090F904444E2CF2DD0A2002F034F93C
:104F20000024EDE714B10A2002F02EF90020ACE7CE
:104F300012A90020FFF7CEFDB0FA80F04009A4E7E7
:104F4000049C2046FFF7ACFD20469EE74346C2E79F
:104F500001209AE7204602F061F94FF0FF3094E714
:104F6000104802F05BF902208FE700BF982F01087C
:104F700094390108B6380108A5380108253A010816
:104F8000D0390108342E01083C2E0108482E0108B2
:104F9000402E0108442E0108653A01080C3A010828
:104FA000582E0108542E010870B5104E56F82040B6
:104FB000D4B10546A16820780022FCF741FB607857
:104FC000E1680022FCF73CFBA07821690022FCF795
:104FD00037FBE07861690022FCF732FB2046FDF7E1
:104FE000B9FF002346F8253070BD00BFA826002079
:104FF000F8B5364E56F8204007460D46002C5BD0DB
:105000002078A1680022FCF71BFB6078E168002291
:10501000FCF716FBA07821690022FCF711FBE07871
:1050200061690022FCF70CFB294605F120022346AA
:105030000E684D688868CF68DF60103191421E604D
:105040005D60986003F11003F2D10A681A6021795B
:105050006679A279E3792078012505FA03F305FA48
:1050600001F105FA02F205FA06F66361A160226118
:10507000E6600022FCF7E4FA6078E1680022FCF7C1
:10508000FBFAA07821690022FCF7F6FAE078616962
:105090000022FCF7F1FAE0786169FCF717FB94F85D
:1050A0002030A07821691BB9FCF718FB2846F8BD11
:1050B000FCF70CFB2846F8BD2420FDF747FF04460B
:1050C00010B146F82700AFE7F8BD00BFA8260020C2
:1050D000F8B53E4B53F82050002D74D04F798E799F
:1050E00091F807E00A7908780C46012303FA02F1E7
:1050F00003FA07F703FA06F603FA0EF3A160E76076
:10510000266163612B78834256D00022FCF798FA1F
:105110006878637883424AD0E9680022FCF790FA05
:105120006078E1680022FCF7A7FAA878A3788342A8
:1051300038D029690022FCF783FAA078216900227F
:10514000FCF79AFA94F82030A0782169002B37D127
:10515000FCF7C4FAE878E378834203D1E279EB798B
:105160009A420CD069690022FCF76AFAE07861691A
:105170000022FCF781FAE0786169FCF7A7FA04F1F4
:10518000200320686168A268E668EE6010349C42E3
:1051900028606960AA6005F11005F2D123682B60D0
:1051A0000120F8BDA279AB799A42C2D1D2E76279E7
:1051B0006B799A42B0D1B8E72B799342A5D1A7E792
:1051C000FCF784FAC6E72846F8BD00BFA8260020F1
:1051D0002DE9F04F5B4C83B054F820B00092BBF146
:1051E000000F00F0AB801C469BF820309BF80200BB
:1051F0008A46DBF81010002B73D1FCF76FFA9BF88E
:105200000300DBF81410FCF769FADBF81800FCF770
:10521000A9F9002C78D0AAF1040A01940125DBF841
:105220001C305AF8047F9BF821809BF82090002BBB
:1052300061D00026344631E005FA04F33B429BF886
:105240000100DBF80C1037D0FCF740FAC8459BF89A
:105250000200DBF8101037D0FCF738FADBF8180042
:10526000FCF780F99BF80200DBF81010FCF736FA27
:105270009BF80000DBF80810FCF748FA28B19BF80F
:1052800022308BB305FA04F31E43DBF81800FCF759
:1052900069F9DBF81C300134A3422DD99BF8222098
:1052A000002AC9D1E243134405FA03F33B429BF8B9
:1052B0000100DBF80C10C7D1FCF710FAC8459BF8C9
:1052C0000200DBF81010C7D1FCF708FADBF8180071
:1052D000FCF748F99BF80200DBF81010FCF7F6F930
:1052E000C6E7FCF7F3F98AE7DBF81C30013B1B1B30
:1052F00005FA03F3C8E71E46009B43F8046B0093CE
:10530000019B013B01938AD19BF820307BB19BF834
:105310000200DBF81010FCF7D9F99BF80300DBF86A
:105320001410FCF7D3F9012003B0BDE8F08F9BF80F
:105330000200DBF81010FCF7D1F9EEE7584603B095
:10534000BDE8F08FA82600202DE9F04FADF25C4DAE
:105350000A1D8B46012100240190431E4FF0020ECE
:10536000032708258DF83910052607A8A4498DF8CC
:105370003B7014958DF834408DF835408DF83640EB
:105380008DF837408DF838408DF854408DF85540F1
:105390008DF85640A0468DF83AE01396A146FDF7E9
:1053A000FFFAA2460094974D974C984F05A807A97D
:1053B000FDF704FB10B3059B002B00F0BA805E687C
:1053C000A6425AD0AE4252D0BE4267D0904A9642D0
:1053D00050D0904A964255D08F4A96426ED0304671
:1053E0008E490CF071F900284FD1012305A807A9B7
:1053F0008DF85430FDF7E2FA0028DCD1BAF1000F45
:1054000040F08C80B8F1000F40F03881009B002BF9
:1054100040F03C810A98009E01300A90019B834233
:1054200040F3398116AB03EB86045BF8200021467C
:1054300004AAFDF743FA002800F04D810A98049B66
:105440000130013621460A90002B7CD001360A68D3
:1054500041F8042F802E03F1FF33F5DD70480493EB
:1054600001F0DCFE01200DF25C4DBDE8F08F4FF045
:1054700001099BE74FF0010A98E7069813A9FDF789
:1054800015FA93E70123009390E7304665490CF045
:105490001BF9B0B901238DF8553087E7069814A998
:1054A000FDF704FA002881D0149B013B1F2B7FF6E7
:1054B0007DAF384601F0B2FE0120D4E74FF001087D
:1054C00074E7304658490CF0FFF818B901238DF8FD
:1054D00056306BE7304655490CF0F6F8002834D0CA
:1054E000304653490CF0F0F800286DD03046514951
:1054F0000CF0EAF8002800F0A58030464E490CF088
:10550000E3F8002844D04D4A96427FF44FAF0A9BFF
:10551000013B0A93BAF1000F3FF474AF0DA90020CC
:10552000FFF766FDB0FA80F040090DF25C4DBDE872
:10553000F08FDBF80000324A05A9FDF70FFC0DF2F1
:105540005C4DBDE8F08F049368E703A906980A2232
:105550000CF0D2FB039B8DF83400A3B11A782E2AED
:1055600011D1581C03905B786BB103A90A220CF08F
:10557000C3FB039B8DF83800002B3FF417AF1B785B
:10558000002B3FF413AF2E4801F048FE01206AE7DC
:1055900003A906980A220CF0AFFB039B8DF8370095
:1055A000002BF0D01A782E2AEDD1581C03905B788E
:1055B000002BE8D003A90A220CF09EFB039B8DF878
:1055C0003B00002BDBD1F1E603A906980A220CF080
:1055D00093FB039B8DF83500002BD4D01A782E2A2C
:1055E000D1D1581C03905B78002BCCD003A90A22A0
:1055F0000CF082FB039B8DF83900002BBFD1D5E660
:1056000048300108A538010894390108D838010844
:10561000253A0108D039010878390108602E0108BF
:10562000802E0108682E01083C2E0108702E01080A
:10563000742E0108782E01087C2E0108653A0108B5
:105640000C3A010803A906980A220CF055FB039BAB
:105650008DF83600002B96D01A782E2A93D1581C3C
:1056600003905B78002B8ED003A90A220CF044FB38
:10567000039B8DF83A00002B81D197E650460DA987
:10568000FFF726FDB0FA80F04009ECE64046FFF750
:105690008BFC4046E7E686B3002016A996AA33465F
:1056A000FFF796FD38B3B9F1000F22D0002425464C
:1056B00095AF01E0AE4218DD114857F8041F01F024
:1056C000B9FD04444E2C05F10105F3DD0A2001F07B
:1056D0005BFD0024EEE70B4801F07CFD0A9B5BF8C4
:1056E000230001F089FD0120BDE614B10A2001F07C
:1056F0004BFD0020B7E60120B5E64FF0FF30B2E6E3
:10570000882E0108482E010838B5094B1B6804464D
:105710000D4623B1184621460BF0D6FF30B9294675
:1057200022460448BDE8384001F084BD38BD00BFC2
:10573000B026002018320108F0B5C9B0014668460D
:105740000CF02EF968460CF089F91D4B044603CB8A
:105750000DEB04021B884DF804005160684619499E
:105760001381FEF71FFB061E1ADD174D0FCD08AF84
:105770003C460FC495E8070084E8070039463046E8
:105780001B22FEF78DFB1B2805460CD01B24304640
:10579000FEF7A2FB601BB0FA80F0400949B0F0BDF3
:1057A000002049B0F0BD094B93E8070087E80700E7
:1057B000394630460B22FEF773FB0B240546E6E71D
:1057C0002432010830320108343201085032010815
:1057D0002DE9F047DCB00024431E0A1D8A4608A8C4
:1057E00087498DF83840FDF7DBF8864D864E274611
:1057F000A046A14608A904A8FDF7E0F8834904469D
:1058000008B3049B002B4FD05C68AC4220460CD000
:10581000B4420DD00BF058FF7D4B58B19C42E9D1FA
:105820000EA805990CF0BCF8E4E74FF00108E1E799
:105830000127DFE706A8FCF78DFE02A8FCF728FF8A
:105840004FF00109D6E79DF83830002B00F08A8030
:10585000B8F1000F01D1002F43D0002002F05CF816
:10586000064678B30CF0FAF8054640B3694B6A492E
:105870000EA8002F08BF1946FEF794FA0746F0B1AC
:10588000B9F1000F76D131462A46FEF709FBA8424E
:105890001DD03846FEF720FB3046FDF75BFB0124A8
:1058A00020465CB0BDE8F087DAF80000544A04A94D
:1058B000FDF754FA044620465CB0BDE8F087304658
:1058C000FDF748FB012420465CB0BDE8F087384670
:1058D000FEF702FB3046FDF73DFB20465CB0BDE81D
:1058E000F08703A90EA8FEF717FA0028EAD00EA841
:1058F0004A49FEF757FA05460028E3D02746B9F192
:10590000000F14BF64224FF48C72284616A9FEF7CC
:1059100093FA061E62DB374456D016A83146B9F119
:10592000000F22D006AB2FAAFCF71AFE01462FA8C3
:1059300001F040FC6423B34246DC039B9F4243DA00
:105940000DF107000021FCF767F90130D7D09DF871
:105950000730032BF4D12846FEF7BEFA0A2001F0E7
:1059600013FCA8E74FF0FF34A5E701F023FC4FF448
:105970008C73E0E730464FF000080378002BA6D088
:105980000A2B1BD0431C01E00A2A19D01D46191A04
:1059900013F8012B002AF7D1002998D016AA02ABE0
:1059A000FCF77AFE814638B1384616A94A46FEF71A
:1059B00077FA48457FF46DAF2846DEE705460021BB
:1059C00085F800800135E7E7B9F1000F0ED12846D0
:1059D000FEF782FA124801F0FDFB6CE72846FEF75D
:1059E0007BFA0A2001F0D0FB012464E706A916A87F
:1059F000FCF71EFE014616A801F0DCFBE7E700BF3E
:105A0000C8310108153A01085D3901086032010802
:105A1000C3390108303201085C3201082C36010814
:105A20006832010870B588B0431E0A1D0E4602A8F0
:105A30001449154CFCF7B4FF0025684602A9FCF791
:105A4000BDFF58B1009B93B15B68A342F5D1684696
:105A500002A9019DFCF7B2FF0028F3D175B12846D9
:105A6000FEF772F9B0FA80F0400908B070BD3068F6
:105A7000044A6946FDF772F908B070BD4FF0FF3077
:105A8000F3E700BF58310108C339010870B588B089
:105A900006460D460A1D431E1649174C02A8FCF780
:105AA0007FFF04E0009B63B15B68A34210D06846AF
:105AB00002A9FCF783FF0028F4D14FF0FF3008B0B3
:105AC00070BD28680B4A6946FDF748F908B070BDFB
:105AD000059B019801339E42EFDD55F82310002805
