:020000040800F2
:1000000000C000202D0200088D0200088D020008AB
:100010008D0200088D0200088D020008000000001B
:10002000000000000000000000000000119F000818
:100030008D02000800000000A19F0008E59F000855
:100040008D0200088D0200088D0200088D02000854
:100050008D0200088D0200088D0200088D02000844
:100060008D0200088D0200088D0200088D02000834
:100070008D0200088D0200088D0200088D02000824
:100080008D0200088D0200088D0200088D02000814
:10009000F52B00088D0200088D0200088D02000873
:1000A0008D0200088D0200088D0200088D020008F4
:1000B0008D0200088D0200088D0200088D020008E4
:1000C0008D0200088D0200088D0200088D020008D4
:1000D0008D0200088D0200088D0200088D020008C4
:1000E0008D0200088D020008012C000800000000AD
:1000F0000000000000000000000000000000000000
:0C01000000000000000000005FF808F1A3
:10010C003C6D637573683E003230323030393238B2
:10011C002D313030343532004D4355534820646511
:10012C007369676E65642062792050656E67205331
:10013C0068756C696E2C20616C6C207269676874D0
:10014C00732072657365727665642E0A68747470B8
:10015C00733A2F2F6769746875622E636F6D2F70F9
:10016C00656E677368756C696E2F6D637573680067
:08017C0004E80000010000008E
:1001900070B4840746D0541E002A41D0CDB2034625
:1001A00002E0621EE4B3144603F8015B9A07F8D13B
:1001B000032C2ED9CDB245EA05250F2C45EA05457D
:1001C00019D9264603F11002103E0F2E42F8105C9A
:1001D00042F80C5C42F8085C42F8045C02F1100240
:1001E000F2D8A4F1100222F00F0204F00F04103232
:1001F000032C13440DD91E462246043A032A46F81E
:10020000045BFAD8221F22F003020432134404F0E4
:1002100003042CB1C9B21C4403F8011BA342FBD157
:1002200070BC704714460346C2E700BF002103E0DC
:100230000F4B5B58435004310E480F4B42189A4203
:10024000F6D30E4A02E0002342F8043B0C4B9A42DC
:10025000F9D30C4A03E05FF0A53342F8043B0A4BA4
:100260009A42F8D300F014F809F0A0FF704700009C
:10027000200A010800000020D4090020D409002031
:100280002832002000BC002000C00020FEE7000053
:1002900010B4104B104A1968104841F00101196060
:1002A00059684FF41F040A405A601A684FF0006101
:1002B00022F0847222F480321A601A6822F48022BA
:1002C0001A605A6822F4FE025A609C6081605DF8F0
:1002D000044B7047001002400000FFF800ED00E002
:1002E0004FF6FF02064900F00700CB681A4042F0C3
:1002F000BF6343F4003343EA0023CB60704700BF81
:1003000000ED00E030B4184BDB68C3F30223C3F107
:100310000705042D03F1040428BF0425062C17D972
:10032000033B01249C40013C22400124AC40013CA1
:1003300021409940002842EA01020CDB120100F141
:100340006040D2B200F5614080F8002330BC7047B5
:1003500000221346E9E7054B00F00F001201D2B26C
:1003600003441A7630BC704700ED00E0FCEC00E07E
:10037000002807DB044A00F01F01012340098B40DD
:1003800042F82030704700BF00E100E02DE9F04F57
:10039000002583B02A46DFF8C8E16B4CDFF8C4C102
:1003A00003E00132102A00F0858001230E6893409B
:1003B0001E409E42F5D14B68122B00F09F8000F248
:1003C0008980022B00F09F807FD9032B00F0998059
:1003D000112B01D1CD680435FF2E6ED882460368FB
:1003E0004FEA820B4FF00F0909FA0BF823EA0808CD
:1003F00005FA0BF348EA0303CAF800304B68DB0048
:10040000CFD5524B514FD3F8188022F0030348F058
:100410000108C7F81880D7F8188003F1804308F066
:100420000108CDF8048003F5803302F00308DDF8FD
:1004300004A04FEA8808D3F808A009FA08F9704523
:100440002AEA090A72D0604573D0414FB84275D08C
:10045000404FB8420CBF4FF003094FF0040909FAAE
:1004600008F949EA0A09C3F808904B68013213F405
:10047000803F236814BF3343B34323604B6813F4B6
:10048000003F636814BF3343B34363604B6813F4A6
:10049000801FA36814BF3343B343A3604B6813F4B6
:1004A000001FE36814BF1E4323EA0606102AE66015
:1004B0007FF47BAF03B0BDE8F08FA2F1080B436877
:1004C0004FEA8B0B00F1040A8CE79BB1012B83D11F
:1004D000CD6881E7204FBB420CD017D91F4FBB42DC
:1004E00008D007F58037BB4204D0DFF87C80434555
:1004F0007FF472AF8B689BB904256DE7CD680C352E
:100500006AE7002568E7CD68083565E7DFF85C80B5
:100510004345EFD008F5803843457FF45DAFE9E708
:10052000012B0CBF06614661082555E74FF0000915
:1005300097E74FF0010909FA08F992E74FF002092D
:1005400009FA08F98DE700BF0004014000100240DD
:100550000010014000140140000021100000311083
:1005600000080140000C01400000221000001110A2
:10057000002869D0F0B590F8293487B0054603F01B
:10058000FF02002B5BD02E46032385F82934286810
:1005900000F050FC56F810EB6C4637460FCF0FC4F6
:1005A0003B682F1D236097E80E00704600F030FC7A
:1005B0000021286800F048FC00210C462B462A4602
:1005C000012082F82810918601310F2982F8290034
:1005D00082F82B409463D463146402F12002F0D1BA
:1005E0000022114683F828229A8601320F2A83F8C6
:1005F000291283F82B12C3F83812C3F83C12C3F83F
:1006000040124FF0000403F12003EBD1EE460FCE71
:10061000D5F800C0AEE80F0033686046CEF8003071
:1006200097E80E0000F012FC012385F824402868AA
:1006300085F8293401F086F8204607B0F0BD80F82F
:10064000282402F089F99EE70120704790F82824B9
:10065000012A01D10220704710B50446012180F81B
:10066000281402F0C5FA206801F06AF8206800F04A
:10067000D7FB002084F8280410BD00BF10B590F807
:1006800028340446012B01D1022010BD84F8241027
:10069000012380F82834006801F04CF8002084F829
:1006A000280410BD38B5CCB20546200619D408463A
:1006B00005EB411101F50A71E4094C7008700A61FB
:1006C000CB7095F82834012B01D1022038BD0123CD
:1006D00085F82834286800F0D3FB002085F828042A
:1006E00038BD01F07F0005EB40112831E4E700BF81
:1006F000CBB21A0610B5044617D40A4600EB4111D6
:1007000001F50A71DB094B700A7094F82834012B4B
:1007100001D1022010BD012384F82834206800F0A4
:1007200055FD002084F8280410BD01F07F0200EB85
:1007300042112831E6E700BFF8B501F07F014D0115
:100740004419002684F82812C4F83C22C4F8403228
:10075000C4F8446284F8296205F50A7541190068F5
:1007600000F022FE3046F8BD01F00F0100EB411011
:10077000B0F84402704700BFF8B501F07F014D01A9
:1007800044190026012784F82810E263236484F8C2
:100790002970666405F128010144006800F004FE38
:1007A0003046F8BD2DE9F043044683B0006800F000
:1007B000CBFF020444D4206800F0C6FF430500F1DB
:1007C0001982206800F0C0FF470408D52268B2F8FB
:1007D000443023F480431B041B0CA2F844302068EF
:1007E00000F0B2FF860408D52268B2F8443023F442
:1007F00000531B041B0CA2F84430206800F0A4FF37
:10080000C50400F1D881206800F09EFF000500F1CA
:10081000AF81206800F098FF820500F19C8120687C
:1008200000F092FFC30508D52268B2F8443023F4E3
:1008300080731B041B0CA2F8443003B0BDE8F083A6
:10084000276800233846ADF8043004F22C45ADF893
:100850000630B7F844309BB21A04ADF80430ABD57B
:10086000BDF8042012F00F065FD1BDF804103B88DC
:1008700001F0100189B2002900F0A9809BB2ADF807
:100880000630BDF806301B0500F14381BDF8063087
:100890001BB2002BDDDA3B8823F070031B051B0D18
:1008A0003B80206894F82822B0F850309BB203EBCC
:1008B000C20300EB4303D3F80C34C3F30903C4F8B9
:1008C0004432002B40F01F822046002102F088F8BD
:1008D0002168D4F83802B1F850303E289BB201F5B7
:1008E000806103F1060340F2E781C0F34F12C606B0
:1008F00004BF02F1FF3292B26FEAC2626FEA524263
:1009000092B241F813202268138823F4804323F025
:1009100070031B041B0C83F4405343F4004343F067
:10092000800313802768384693E737F826309BB258
:10093000ADF80630BDF806301BB2002B79DBBDF8F0
:1009400006301B0685D537F826304FEA461823F4C3
:10095000E14323F070031B041B0C27F8263004EB43
:10096000080797F832302068002B40F0B480B0F8C8
:10097000503097F828209BB203EBC20300F5806E3D
:1009800002335EF8133004EB4612C3F309035364D9
:10099000002B40F0898104EB0801B0F8503091F849
:1009A00028209BB203EBC20302335EF81330CA6BFC
:1009B000C3F309034B641A440B6CCA63204691F8D5
:1009C00028108BBB02F014F82768384641E723F45F
:1009D000E14323F070031B041B0C3B80206894F858
:1009E0002830B0F85020E66B92B202EBC30300EB64
:1009F0004303D3F804342046C3F309031E4463645D
:100A0000E66301F0F5FF94F824307BB1236C6BB9F9
:100A100094F82420216842F08002A1F84C20276835
:100A200084F82430384614E7FFF7A6FE27683846D6
:100A30000FE737F826304FEA461823F070031B05FE
:100A40001B0D27F8263004EB080999F8323220688C
:100A5000002B00F0ED8099F8283230F8231000EBDD
:100A6000830211F4804FB0F8501089B201EBC30338
:100A700000EB430300F02B81D3F80474C7F309079C
:100A8000002F40F05481138823F0F0031B051B0D49
:100A900043F4004343F0C003138004EB0801D1F892
:100AA0004432D1F83C223B44C1F84432D1F84032C0
:100AB0003A44C1F83C2223B1D1F83802874280F091
:100AC0001A8104EB0801204691F8281201F088FFF2
:100AD0002768384633E797F828E030F82E30590673
:100AE00040F1BE80B0F8501004EB461289B201EB21
:100AF000CE0300EB4303D3F80434C3F30903536478
:100B0000002B00F0BD80F96BFA8D00F023FE206809
:100B1000B6E0B7F8503094F828229BB203EBC2033A
:100B200007EB4303D3F80C343846C3F30903C4F886
:100B300044322946B4F82C2200F024FE22682046D4
:100B4000138823F070031B051B0D138001F040FF79
:100B5000276838467DE622682046B2F8443023F400
:100B600000731B041B0CA2F8443001F049FF56E649
:100B70002268B2F840309BB243F00803A2F840303C
:100B80002268B2F8443023F400631B041B0CA2F863
:100B900044302268B2F840309BB243F00403A2F81C
:100BA0004030206800F0D0FDC1043FF532AE204651
:100BB00001F038FF2DE622682046B2F8403023F0DD
:100BC00004031B041B0CA2F840302268B2F840302A
:100BD00023F008031B041B0CA2F8403001F032FF85
:100BE0002268B2F8443023F480531B041B0CA2F893
:100BF000443008E622682046B2F8443023F480638B
:100C00001B041B0CA2F8443001F0FEFE94F82834BB
:100C1000012B3FF4D6AD0025012384F8283484F855
:100C200024502946206800F085FD84F82854C8E542
:100C3000B0F8503099F828129BB203EBC10300EBD7
:100C40004303D3F80C74C7F30907002F3FF425AF13
:100C5000D9F83C12B9F82C223B4600F093FD1CE772
:100C6000B0F8503004EB46129BB203EBCE0300EB1E
:100C70004303D3F80C34C3F309035364002B50D15E
:100C800004EB080393F8282030F8223023F0F00317
:100C90001B051B0D43F4404343F0800320F8223032
:100CA000206800F5806E76E6F96BBA8D00F052FD93
:100CB000206800F5806E6EE6C0F34F02C00744BFA7
:100CC000013292B2920292B241F813201BE6D3F89D
:100CD0000C74C7F30907002F3FF4D5AED9F83C12C6
:100CE000B9F830223B4600F04DFD99F828222368E0
:100CF00003EB8202C7E691F828122046FFF71CFD9D
:100D0000276838461BE6B4F82C22D4F83C1200F0D1
:100D100039FDD4F83C22D4F844321344C4F83C32B0
:100D2000D2E5F96B3A8E00F015FD2068A8E7B9F816
:100D30002E22D9F83C12D5E738B5CBB21A060446B4
:100D400019D40D4600EB411101F50A71DB090122AE
:100D50004B700D708A7094F82834934201D10220B0
:100D600038BD84F82824206800F058FC4DB10020DC
:100D700084F8280438BD01F07F0500EB45112831C7
:100D8000E4E7206804F22C4100F0E2FCEFE700BF4A
:100D900038B5CBB21A06054619D40A4600EB411104
:100DA00001F50A71DB0900244B700A708C7095F80C
:100DB0002834012B01D1022038BD012385F82834C5
:100DC000286800F065FC85F82844204638BD01F00D
:100DD0007F0200EB42112831E4E700BF11F0800FE1
:100DE0000CD001F07F0100EB4110283062B1190CEA
:100DF0000122C380018182720020704700EB411004
:100E000000F50A70002AF2D18272838000207047B8
:100E100084B001A880E80E0004B00020704700BF35
:100E20000246B0F8403000209BB243F43F43A2F8A2
:100E30004030704744F2FF210246B0F840300020B5
:100E40000B40A2F8403070470020704784B070B467
:100E5000044601250020A4F84050A4F84000A4F85E
:100E60004400A4F85000B4F8405004AE86E80E00E8
:100E7000ADB245F43F45A4F8405070BC04B0704793
:100E8000CB7830B4032B10D8DFE813F0750168017C
:100E900004005B010A7830F8223023F4EC4323F09D
:100EA00070031B041B0C20F822300C7830F824202F
:100EB00044F4004522F0F0031B051B0D45F08005AE
:100EC0002B4320F824308B7A002B37D14B78002B22
:100ED00000F0EE80B0F850300C788A889BB203EBBB
:100EE000C403520800EB43035200C3F800240C78FB
:100EF00030F8243000EB84025B060ED530F8243045
:100F000023F0F0031B051B0D43F4004343F0C00323
:100F100020F824300A7800EB82021388002023F4A2
:100F2000E04323F040031B041B0C83F0200343F435
:100F3000004343F08003138030BC70470A7800F50B
:100F4000806430F8223023F4F8731B051B0D43F442
:100F5000014343F0800320F82230B0F85030CA88B3
:100F60000D789BB2520803EBC503520044F81320DE
:100F7000B0F850300D780A899BB203EBC5035208D4
:100F80000433520044F813204B780C78002B4FD1D7
:100F900030F8243000EB84025D040ED530F82430A4
:100FA00023F0F0031B051B0D43F4404343F0800383
:100FB00020F824300A7800EB820213885B060CD5F7
:100FC000138823F0F0031B051B0D43F4004343F08B
:100FD000C00313800A7800EB8202138823F0F00329
:100FE0001B051B0D43F4004343F0C00313800A7834
:100FF00030F8223023F4804323F070031B041B0CD1
:1010000083F4405343F4004343F0800320F822303C
:101010000A7830F8223023F0C0031B051B0D43F47F
:10102000004343F0800320F8223030BC002070479A
:1010300030F8243000EB84025D040ED530F8243003
:1010400023F0F0031B051B0D43F4404343F08003E2
:1010500020F824300A7800EB820213885B0600F146
:101060009780138823F0F0031B051B0D43F44043C6
:1010700043F0800313800A7830F8223023F0C00355
:101080001B051B0D43F4004343F0800320F822307E
:101090000A7830F8223023F0F0039B049B0C43F4D1
:1010A000004343F0800320F8223030BC002070471A
:1010B000B0F850300C788A889BB203EBC403520816
:1010C0000433520000F5806444F81320B0F8503027
:1010D0000D690A789BB206333E2D03EBC20365D837
:1010E000C5F34F02ED0744BF013292B2920292B2B1
:1010F00044F813200C7830F8243000EB84025B04B1
:101100000ED530F8243023F0F0031B051B0D43F4FB
:10111000404343F0800320F824300A7800EB820239
:101120001388002023F4804323F070031B041B0C5E
:1011300083F4405343F4004343F08003138030BCF6
:1011400070470A7830F822309BB223F4EC4323F046
:10115000700343F4C06320F82230A6E60A7830F822
:1011600022309BB223F4EC4323F0700343F48063FA
:1011700020F8223099E60A7830F822309BB223F426
:10118000EC4323F0700343F4007320F822308CE624
:10119000138823F0F0031B051B0D43F4004343F0B9
:1011A000C00313800A7800EB82025AE7C5F34F129E
:1011B000ED0604BF02F1FF3292B26FEAC2626FEA3B
:1011C000524292B244F8132094E700BF8B7A10B4D5
:1011D0003BBB4B780C78002B00F0B48030F8243007
:1011E00000EB84025B060ED530F8243023F0F003C8
:1011F0001B051B0D43F4004343F0C00320F82430CB
:101200000A7800EB82021388002023F0C0031B053C
:101210001B0D43F4004343F0800313805DF8044B3F
:1012200070474B780C78002B4CD130F8243000EB11
:1012300084025B040ED530F8243023F0F0031B0544
:101240001B0D43F4404343F0800320F824300A7818
:1012500000EB820213885C060CD5138823F0F003A0
:101260001B051B0D43F4004343F0C00313800A78B1
:1012700000EB8202138823F0F0031B051B0D43F4DF
:10128000004343F0C00313800A7830F8223023F083
:10129000F0039B049B0C43F4004343F0800320F8CD
:1012A00022300A7830F8223023F0C0031B051B0DD2
:1012B00043F4004343F0800320F822305DF8044BF0
:1012C0000020704730F8243000EB84025B040ED518
:1012D00030F8243023F0F0031B051B0D43F440438A
:1012E00043F0800320F824300A7800EB8202138850
:1012F0005B064AD4138823F0F0031B051B0D43F44F
:10130000404343F0800313800A7830F8223023F002
:10131000C0031B051B0D43F4004343F0800320F87A
:1013200022300A7830F8223023F0F0039B049B0C23
:1013300043F4004343F0800320F822305DF8044B6F
:101340000020704730F8243000EB84025B040ED597
:1013500030F8243023F0F0031B051B0D43F4404309
:1013600043F0800320F824300A7800EB82021388CF
:10137000002023F0F0039B049B0C43F4004343F054
:10138000800313805DF8044B7047138823F0F0034B
:101390001B051B0D43F4004343F0C00313800A7880
:1013A00000EB8202A6E700BF4A78F0B4012A70D0B1
:1013B0008B690C69A34232D800248C618C7A002C92
:1013C00033D1B0F850200C7892B206323E2B02EBAB
:1013D000C40200F5806540F29C80C3F34F14DE0622
:1013E00004BF04F1FF34A4B26FEAC4646FEA54444A
:1013F000A4B245F812400A7830F8223023F4804332
:1014000023F070031B041B0C83F4405343F400438C
:1014100043F0800320F82230F0BC002070471B1BF3
:101420008B6123468C7A002CCBD0002AE3D1B0F814
:1014300050200C7892B202323E2B02EBC40200F52F
:10144000806640F2AF805C09A5B213F01F0704BFAD
:1014500005F1FF35ADB26FEAC5656FEA5545ADB22E
:1014600046F812504A78002A40F0C980B0F850304F
:101470000A789BB20633A4B203EBC2020FB9013C57
:10148000A4B26FEAC4646FEA54439BB246F81230C8
:10149000B1E78E690B699E4246D800238B618B7A37
:1014A000002B47D1B4B28D880134641000EB4505A0
:1014B0004B6910D005F20445023313F8017C13F890
:1014C000022C013C42EA072225F8042C03F1020316
:1014D00005F10405F1D1B0F850300A789BB203EB66
:1014E000C20300EB4303C3F804640A7830F82230E7
:1014F00023F4E04323F040031B041B0C83F0300370
:1015000043F4004343F0800320F82230F0BC002075
:101510007047C3F34F04DB0744BF0134A4B2A402F5
:10152000A4B245F8124066E7F61A8E611E468B7A21
:10153000002BB7D00A78B5B230F82230B0F850405E
:1015400013F0400FA4B204EBC20200F5806302F175
:10155000020243F8126014BF0F89CF8801356D1065
:1015600003EB47074B690DD00233002213F8016CDF
:1015700013F8024C023344EA062427F822400132D1
:10158000AA42F3D14B7853BB0A7830F8223023F0CB
:10159000F0031B051B0D43F4004343F0C00320F888
:1015A0002230A2E75C08A5B213F001071CBF013589
:1015B000ADB2AD02ADB246F812504A78FAB9B0F801
:1015C00050300A789BB20633A4B203EBC2030FB1CA
:1015D0000134A4B2A402A4B246F813400BE7012BD5
:1015E00083D10A7830F8223023F0F0031B051B0D5D
:1015F00043F4404343F0800320F8223075E7012A8A
:101600007FF4F9AEB0F850200C7892B202EBC4022D
:1016100000EB4202C2F80434EDE600BF0A782AB3B8
:101620004B788BB930F8223023F4804323F07003D9
:101630001B041B0C83F4805343F4004343F08003EA
:1016400020F822300020704730F8223023F4E043A5
:1016500023F040031B041B0C83F0100343F40043EE
:1016600043F0800320F822300020704703889BB2AB
:1016700023F4804323F0400383F4805383F010036A
:1016800043F4004343F0800303800020704700BF11
:101690004B7810B40C7833B330F8243000EB84026C
:1016A0005B060ED530F8243023F0F0031B051B0D2C
:1016B00043F4004343F0C00320F824300A7800EBE1
:1016C00082021388002023F4E04323F040031B042C
:1016D0001B0C83F0300343F4004343F0800313807A
:1016E0005DF8044B704730F8243000EB84025B0453
:1016F0000ED530F8243023F0F0031B051B0D43F406
:10170000404343F0800320F824300A7800EB820243
:101710001388002023F4804323F070031B041B0C68
:1017200083F4405343F4004343F0800313805DF897
:10173000044B704711B98023A0F84C30002070474B
:101740000020704700207047B0F8440080B2704716
:1017500000207047013300F580605B1000EB42020F
:101760000FD070B40231002411F8016C11F8025C42
:10177000023145EA062522F824500134A342F3D170
:1017800070BC7047013300F580605B1000EB4202D3
:1017900005D052F8040B013B21F8020BF9D1704738
:1017A000054A064BA2FB00208009013800210522D2
:1017B000586099601A607047D34D621010E000E0E5
:1017C000014B1860704700BF2C04002010B5D0F802
:1017D0001C32D0F818425BB194F80002FF2807D001
:1017E0009B68214694F801229847FF2384F8003231
:1017F000002010BD432303800048704730040020C0
:101800004323038000487047FC04002043230380E7
:1018100000487047B80400200A230380004870473E
:10182000AC04002038B50446D0F8185201F0D4F9C1
:10183000C5F80C02D4F818324BB1D4F81C32D5F8E4
:101840000402DB6805F503719847002038BD0220CB
:1018500038BD00BFD0F818323BB110B50024C3F832
:10186000144200F00BFF204610BD0220704700BF5D
:1018700070B50B780C4613F060020546D0F818627C
:1018800011D0202A0DD1CA8812B31B0614D44B786C
:10189000314686F80032E38886F80132E28800F0AB
:1018A00029FC002070BD4B780A2BFAD10B4901228C
:1018B00000F008FC002070BDD0F81C3248789B680E
:1018C0003146984728463146E28800F0FBFBE8E7BE
:1018D000D0F81C3248789B689847E2E7D40900208A
:1018E00010B50446812101F013F90121204601F0D1
:1018F0000FF92046822101F00BF9D4F8183253B1C8
:10190000D4F81C325B689847D4F8180201F06EF9DD
:101910000023C4F81832002010BD00BFF8B5037CC6
:1019200004468121022263BB4FF4007301F0E0F80A
:101930002046012102224FF4007301F0D9F88221E0
:1019400003220823204601F0D3F84FF4077001F07A
:1019500049F90546C4F8180218B3D4F81C32002619
:101960001B689847C5F81462C5F81862277C2046A2
:10197000D5F80422012177B1402301F01FF9304648
:10198000F8BD402301F0B4F8204601210222402393
:1019900001F0AEF8D3E74FF4007301F00FF93846C9
:1019A000F8BD0120F8BD00BF19B1C0F81C1200201D
:1019B00070470220704700BFD0F818320020C3F8EB
:1019C0000812C3F810227047D0F818320020C3F86C
:1019D00004127047D0F8183273B1D3F814220AB148
:1019E000012070470122C3F814228121D3F8082274
:1019F000B3F8103201F0D4B802207047D0F81822A2
:101A000082B110B5047CD2F80422012124B1402314
:101A100001F0D4F8002010BD4FF4007301F0CEF8AF
:101A2000204610BD0220704788B108B5D0F81432A6
:101A300013B10023C0F8143209B1C0F81012012309
:101A4000027080F8FC3101F001F8002008BD02208E
:101A5000704700BF19B1C0F814120020704702206F
:101A6000704700BF08B501F035F8002008BD00BF81
:101A700008B5D0F8143213B11B68984708B102209A
:101A800008BD08BD08B5D0F814325B68984700203F
:101A900008BD00BF38B5044600F50275284600F0C1
:101AA000D7FA94F808120120B4F80E2201F01F03AF
:101AB0008342C4F8F401C4F8F82115D00ED3022BE8
:101AC00006D0204601F0800101F030F8002038BD3A
:101AD0002046294600F054FA002038BD2046294609
:101AE00000F0D6F8002038BD2046294600F02AFA3A
:101AF000002038BD10B5044631B91346D0F8F421A2
:101B0000032A0CD0002010BDD0F814329B69002BA2
:101B1000F8D090F8FC21032AF4D19847F2E7D0F8E6
:101B20000C11D0F8102191420CD8D0F814321B6956
:101B30001BB190F8FC21032A0FD0204600F0F4FAE4
:101B4000002010BD891A8A4228BF0A46C0F80C112D
:101B500092B2194600F0DEFAD4E79847EDE700BFED
:101B600070B5044651B91346D0F8F421022A15D0B5
:101B700094F80032012B0CD0002070BDD0F8143244
:101B80005B69002BF8D090F8FC21032AF4D1984728
:101B9000F2E7002384F80032002070BDC669026AB3
:101BA000964223D88369B3FBF2F502FB15358DB954
:101BB0009A420FD8D0F8F82193420BD22A4600F06F
:101BC0008FFAC4F8F851204629462A462B4600F0E1
:101BD000F5FFCDE7D4F81432DB681BB194F8FC2193
:101BE000032A0BD0204600F0ABFAC1E7B21A0D462B
:101BF000C261194692B200F073FAE4E720469847B2
:101C0000F0E700BF38B5402304461D4600210A46D0
:101C100000F06EFF2B460022C4F8105120468021B0
:101C200000F066FFD4F818320122256284F8FC2106
:101C30002BB1D4F8143220465B68217998470020F4
:101C400038BD00BF01740020704700BF90F8FC2130
:101C5000042380F8FD2180F8FC310020704700BF8C
:101C6000034690F8FD21002083F8FC21704700BF57
:101C700008B590F8FC21032A01D0002008BDD0F857
:101C80001432DB69002BF8D09847002008BD00BF54
:101C900030B54B7883B00D460446092B0BD8DFE8EE
:101CA00003F035490A590A05660A7D158B8813B970
:101CB000CB88002B7FD08021204600F037FF2046C4
:101CC000002100F033FF002003B030BD89789C4D27
:101CD00001292970EFD890F8FC31022B00F089809F
:101CE000032BE8D1002900F020814168012909D0A7
:101CF000C9B2FFF7C7FE297820466160FFF7B8FE3A
:101D00000228D8D0204600F00FFADCE790F8FC312A
:101D10000122023B93424FF00301CCD8D0F80432A9
:101D2000C26003B1C160204604F10C01022200F040
:101D3000C9F9C8E790F8FC31023B012BBBD84B88AE
:101D4000012BC0D10022D0F81432C0F804229B68C5
:101D50009847D7E74B88012BB5D1D0F81422C0F8AB
:101D6000043293689847204600F0DEF9ABE74A88D2
:101D7000130A013B062B9ED801A151F823F000BFA6
:101D8000651E0008891E0008771E0008B71C0008A1
:101D9000B71C00084D1E00080D1E0008CA88012A45
:101DA00089D190F8FC31022B1CD0032B83D1011D6B
:101DB00000F088F987E790F8FC318D78032B05F067
:101DC0007F053FF478AF80F8FE51294600F0DAFE37
:101DD000204600F0A9F9002D00F09980022384F834
:101DE000FC3170E70146002341F8083F00F06AF932
:101DF00069E7002986D001210323416080F8FC3186
:101E0000FFF736FE02287FF47DAF54E7037C002BFA
:101E10007FF451AFD0F814320DF106001B6B9847D8
:101E2000014607234370BDF80630002B3FF44BAF4B
:101E3000EA88002A3FF447AF934228BF1346204662
:101E40001A46ADF8063000F03DF93CE7037C002B64
:101E50007FF431AFD0F814320DF106005B6B984778
:101E60000146E0E7D0F810320DF10601007C1B6856
:101E700098470146D7E7D2B2052A3FF61CAFDFE804
:101E800002F02B2219103D34037C002B43D1D0F8F3
:101E900014320DF106009B6A9847022301464370F5
:101EA000C1E7D0F810320DF10601007C1B6998479C
:101EB0000146B8E7D0F810320DF10601007CDB686E
:101EC00098470146AFE7D0F810320DF10601007CCB
:101ED0009B6898470146A6E7D0F810320DF106013D
:101EE000007C5B68984701469DE7D0F810320DF101
:101EF0000601007C9B699847014694E7D0F81032B0
:101F00000DF10601007C5B69984701468BE70123D0
:101F100084F8FC31D7E6D0F814320DF10600DB6A04
:101F200098470223014643707DE70223416080F811
:101F3000FC31FFF7A7FD204600F0F6F8C3E600BF2E
:101F4000D509002038B590F8FC310446032B03D1A5
:101F50000B790D46012B08D9802100F0E7FD2046C2
:101F6000002100F0E3FD002038BDD0F814329B685A
:101F70009847EB88002BF6D1204600F0D5F8F2E721
:101F800070B50B788A8803F06003202B0C46D6B21C
:101F9000054655D04B78012B34D019D3032B15D1DE
:101FA00090F8FC31022B31D0032B40D14B8823B960
:101FB000730602D0314600F0B9FDD5F8143221463F
:101FC0009B6828469847284600F0AEF8002070BD70
:101FD00090F8FC31022B19D0032B28D106F07F0496
:101FE000130600EB041431464CBF143404F582741C
:101FF00000F0B8FD48BB206028462146022200F0D0
:1020000061F8E3E790F8FC31022B05D17206DDD0D0
:10201000314600F08BFDD9E7032B08D14B88002B0C
:10202000D4D17106CFD0314600F08EFDC5E78021B6
:1020300000F07CFD2846002100F078FD002070BDF6
:10204000D0F814329B689847C0E701232360D3E798
:102050000B7803704B784370CA788B7803EB0223BC
:1020600043804A790B7903EB02238380CA798B7909
:1020700003EB0223C380704700B3037830B4F3B19D
:102080000446002314F8015F0133DBB2002DF9D1BF
:102090005B000233DCB2032513800C704D700478B2
:1020A0005CB1022300255A1CD2B2CC548D5410F8D6
:1020B000014F0233DBB2002CF5D130BC7047022453
:1020C0002346E8E738B5134602250A468361C36113
:1020D000C0F8F451002100F063FD002038BD00BFBE
:1020E00010B50C4613460021224600F059FD002091
:1020F00010BD00BF38B5134603250A46C0F80831A5
:10210000C0F80C31C0F8F451002100F057FD002058
:1021100038BD00BF10B50C4613460021224600F022
:102120004DFD002010BD00BF08B500210423C0F8FC
:10213000F4310A460B4600F033FD002008BD00BF15
:1021400008B500210523C0F8F4310A460B4600F01B
:1021500035FD002008BD00BF704700BF704700BFBD
:1021600008B500F0FFF900F057F800F067F900F04B
:1021700009F8FFF7F3FF002000F086FA003018BFDF
:10218000012008BD08B500204FF4807100F096F9D9
:10219000BDE8084000204FF4807100F0BBB900BFDB
:1021A0000120704700204FF4807100F0BBB900BFE0
:1021B00000204FF4807100F0ADB900BF00204FF453
:1021C000807100F0B7B900BF08B54FF480710020EE
:1021D00000F0C0F9B0FA80F0400908BDBFF34F8F9E
:1021E0000549064BCA6802F4E0621343CB60BFF3B3
:1021F0004F8F00BFFDE700BF00ED00E00400FA05CF
:1022000008B501460C220123024800F03DFF0120E1
:1022100008BD00BFE8F7FF1F10B5514C82B0A3699D
:10222000002143F00103A361A3690A4603F00103FF
:102230000093009BE3696FF00B0043F08053E36170
:10224000E36903F080530193019BFEF75BF80021E3
:102250000A466FF00A00FEF755F800210A466FF0B3
:102260000900FEF74FF800210A466FF00400FEF760
:1022700049F800210A466FF00300FEF743F80021F9
:102280000A466FF00100FEF73DF800210A464FF0C4
:10229000FF30FEF737F83349334A4B6823F0E063E9
:1022A00043F000734B60136823F0070343F002030D
:1022B0001360136803F00703022B00D0FEE72246E9
:1022C000236843F400232360236843F480332360AE
:1022D0001168234B8903FBD519465A6822F47C12F6
:1022E00042F4E8125A601A6842F080721A600A6872
:1022F0001B4B9201FBD519465A6822F0F0025A6036
:102300005A6822F4E06242F480625A605A6822F409
:1023100060525A605A6822F0030242F002025A6088
:102320004B680F4C03F00C03082BF9D10F48FFF753
:1023300037FA0F4A0D48136843F004031360FFF7A0
:102340003FFA63680B4A23F4800363600023D1687B
:10235000032082F82330FDF7C3FF02B010BD00BF99
:1023600000100240000001400020024000A24A0488
:1023700010E000E000ED00E0431E002844D000BF64
:1023800000BF00BF00BF00BF00BF00BF00BF00BF55
:1023900000BF00BF00BF00BF00BF00BF00BF00BF45
:1023A00000BF00BF00BF00BF00BF00BF00BF00BF35
:1023B00000BF00BF00BF00BF00BF00BF00BF00BF25
:1023C00000BF00BF00BF00BF00BF00BF00BF00BF15
:1023D00000BF00BF00BF00BF00BF00BF00BF00BF05
:1023E00000BF00BF00BF00BF00BF00BF00BF00BFF5
:1023F00000BF00BF00BF00BF00BF00BF00BF00BFE5
:1024000000BF13F1FF33BAD2704700BF41F27072C0
:1024100082B010F1FF300CD30192019B002BF8D059
:10242000019B013B0193019B002BF9D110F1FF307F
:10243000F2D202B0704700BF05207047064B82B051
:102440009A6942F07C029A619B6903F07C030193D4
:10245000019B02B0704700BF0010024010B584B06D
:1024600004AB084A43F8101D194652F82000032314
:1024700002220024019402920393FDF787FF04B027
:1024800010BD00BFA0EE000810B5002A84B002D035
:10249000D4BF0222012204AB074C43F8101D194699
:1024A00054F8200003230024029201940393FDF7C3
:1024B0006DFF04B010BD00BFA0EE000810B584B0E1
:1024C00004AB084A43F8101D194652F820000323B4
:1024D00000220124019402920393FDF757FF04B0F8
:1024E00010BD00BFA0EE000810B584B004AB084AD0
:1024F00043F8101D194652F820000323012211242D
:10250000019402920393FDF741FF04B010BD00BF98
:10251000A0EE0008024B89B253F8203019617047D1
:10252000A0EE0008024B89B253F820305961704781
:10253000A0EE0008064B53F82000C36801EA03022E
:1025400099431CBF89B201610AB192B242617047DE
:10255000A0EE0008024B53F82030986808407047FE
:10256000A0EE000845F2555040F6FF71024B0222E2
:10257000186099605A607047003000404AF6AA22FD
:10258000014B1A60704700BF003000402DE9F04F4A
:10259000DFF8DCA0DFF8DC809AF800302F4F304EF7
:1025A000DFF8D4B083B0002B2E4BD8F8000008BF62
:1025B0001D462D4B0DF107014FF0FF3218BF5D4650
:1025C0002A4C18BF1C4601F013F810B99AF80030D5
:1025D000E9E700F099FF9DF80720012300EB0309CC
:1025E0002A702360D8F800000DF10701012200F0E5
:1025F000FFFF28B123689DF807105A1CE954226098
:1026000000F082FF814502D323683E2BEADDDFF82C
:102610004C9073684FF0FF31A3B1386801F016F8A1
:10262000C0B12846218800F081F958B1D9F80000DE
:1026300000F0F8FF012000F077FF73684FF0FF31E2
:10264000002BEAD19AF90030B3FA83F35B098AF8D8
:102650000030A8E7012000F067FFDAE7602A0020D9
:10266000E82700200C2A0020582A0020502A0020A9
:10267000542A00204C2A0020A8270020014B18686B
:1026800000F0DABF602A002070B5802182B00122FC
:10269000214B224800F084FF214C224B3F21206037
:1026A0000122214800F07CFF204D214A28600120B2
:1026B000014600F0B5FF1F4A2368106033B32B6852
:1026C00023B308B31C4A1D4D002403231C4E019262
:1026D000009322461B481C494FF496732C603460CB
:1026E00000F046FFA8B1002218491948FFF79CF9ED
:1026F00018491748FFF7AEF917491548FFF754F97D
:102700001348FFF7AFF9012002B070BD184602B0C0
:1027100070BD01F06BFDE6E7DCEE0008C4EE0008DA
:102720005C2A0020B4EE0008CCEE00084C2A002001
:10273000680C0020602A0020BCEE0008502A00200F
:10274000582A0020D4EE00088D25000850050020EE
:10275000E827002074040020400500200120704775
:1027600008B5054B186800F02FFF0449044A002300
:102770000B60136008BD00BF5C2A0020582A0020AF
:10278000502A002010B5074B044601464FF0FF3297
:10279000186800F02DFF002814BF20464FF0FF30CE
:1027A00010BD00BF5C2A002010B5064B04460A4647
:1027B0000146186800F01CFF002814BF20464FF0A7
:1027C000FF3010BD5C2A00202DE9F047B1F1000A6E
:1027D00024DD144D0446144FA84600EB0A064FF0C2
:1027E000010908E000F0F4FE002308B188F8003089
:1027F0000134B4420FD02B78002238682146002BD8
:10280000F0D1FA2200F0E4FE0028F1D10134B44204
:1028100088F80090EFD15046BDE8F0874FF0000AED
:10282000F9E700BF840B00204C2A002000B583B0DC
:1028300002AB03F8010D18460121FFF7C5FF03B0F5
:102840005DF804FB0020704770B50D685DB104466B
:10285000094E01E0013D06D02146306800F0D6FE69
:1028600001340028F6D105490548FFF7ADF80448C2
:10287000FFF7C4F8002070BD5C2A0020642A002005
:10288000E827002038B50C4C00220C492046FFF701
:1028900093F820460A49FFF797F80A4D0A4B0B4C6C
:1028A00000204FF4165108222860206018715871DA
:1028B00019609A7138BD00BFE82700200C2A00205B
:1028C000642A0020582A0020E42A0020502A0020F0
:1028D000202813D021280FD1134B1A680A701A68C8
:1028E000120A4A705A888A70DA78CA701A790A719C
:1028F0005A794A719B798B710020704730B48B787C
:1029000048780A781B04CD7843EA00230C7948798B
:1029100013438979044A43EA0563507113601471C3
:102920009171002030BC7047E42A002010B5094C9A
:10293000D4F81832D3F814320BB1012010BD0A4676
:1029400001462046FFF738F82046BDE81040FFF763
:1029500041B800BFE827002002681A4B9A4200D015
:10296000704730B5002087B04FF4C051FFF7A6FD87
:102970004FF4C0510020FFF7D5FD0520FFF746FDBD
:1029800000240222032302A94FF4C0550E480392EB
:10299000059302950494FDF7F9FC0C4B2246D96986
:1029A000142041F40001D961DB690A2103F400031A
:1029B0000193019BFDF7A6FC1420FDF7D9FC07B09D
:1029C00030BD00BF005C0040000801400010024024
:1029D0000146D0F85C0401F22C41FFF75BB800BF60
:1029E00000EB4113D3F83C22D0F85C04FFF782B827
:1029F00000EB4113DA6BD0F85C04FFF7B1B800BF0D
:102A0000D0F85C04FFF734B910B504460121D0F8C2
:102A10005C04FFF717F9D4F85C04BDE81040FFF739
:102A2000F1B800BF10B50446D0F85C04FFF70EF90A
:102A3000A36923B1024A136943F00603136110BD71
:102A400000ED00E0D0F85C04FFF70AB9F8B51F4BC1
:102A50001F4F0022C3F85C0404460826C0F8203249
:102A60000225032118461F605E609D60D9609A614F
:102A7000DA611A62FDF77CFD08B101F0B7FB0021B5
:102A80000A46D4F820021823FEF7A8F9D4F8200249
:102A9000802100225823FEF7A1F9D4F820028121D9
:102AA0000022C023FEF79AF9D4F820020121002267
:102AB0004FF48873FEF792F9D4F8200282210022A5
:102AC0004FF48073FEF78AF90020F8BDEC2A00204D
:102AD000005C004008B5D0F82002FDF7B7FD0328E0
:102AE0009ABF024B185C022008BD00BFECEE000844
:102AF00010B51446D0F820021A462346FDF7D2FD41
:102B000003289ABF014B185C022010BDF0EE0008AC
:102B100008B5D0F82002FDF7EBFD03289ABF024B61
:102B2000185C022008BD00BFF8EE000808B5D0F818
:102B30002002FEF701F903289ABF024B185C02201D
:102B400008BD00BFF4EE000808B5D0F82002FEF77B
:102B50001FF903289ABF024B185C022008BD00BF72
:102B6000FCEE00080A06D0F8203204D403EB41132F
:102B700093F82A02704701F07F0103EB411393F8A9
:102B80002A00704708B5D0F82002FDF777FD03282A
:102B90009ABF024B185C022008BD00BF00EF00087E
:102BA00008B5D0F82002FDF7E7FD03289ABF024BD5
:102BB000185C022008BD00BFE4EE000808B5D0F89C
:102BC0002002FDF7B9FD03289ABF024B185C0220D2
:102BD00008BD00BFE8EE000808B5D0F82002FDF7F8
:102BE000C3FD08BD004870470C0D0020704700BFB2
:102BF000704700BF0148FDF7D5BD00BFEC2A00209B
:102C0000704700BF12230B800048704770050020FA
:102C100004230B80004870476C05002010B5044C5D
:102C20000A4604482146FFF727FA204610BD00BF98
:102C30004C2F002004EF000810B5044C0A4604484D
:102C40002146FFF719FA204610BD00BF4C2F002087
:102C500010EF000810B5044C0A4604482146FFF75F
:102C60000BFA204610BD00BF4C2F002030EF0008AB
:102C700010B5044C0A4604482146FFF7FDF92046EA
:102C800010BD00BF4C2F00203CEF000830B50D46B2
:102C900089B0064C6846FFF7B3FA68462A462146D3
:102CA000FFF7EAF9204609B030BD00BF4C2F0020E5
:102CB0000023037043704360704700BFF0B51D7878
:102CC0000144012D5C7848D045D3022D41D1884282
:102CD000154639D007782A4E44EA97143F2C98BFFE
:102CE00016F804E007F03F04365D88BF4FF03D0E54
:102CF00085F800E06E705E6801300136132E5E606C
:102D00002DD00235884236D004781D4EA708F65DD6
:102D100004F00304013024012E7005F1010E8842F5
:102D200023D00778013044EA17143F2C96BF144E85
:102D30003D26365D07F00F0488420EF101054FEA8B
:102D400084048EF80060C5D102215C70A81A197045
:102D5000F0BD0020F0BD1546D4E79646DFE70A2710
:102D60000026AF7003355E60CCE701215C70C2EBDA
:102D70000E001970F0BD00215C70A81A1970F0BD2A
:102D80009CEF00080B78012B17D0022B05D00346CF
:102D90000A2203F8012B181A70474B783F2B96BF75
:102DA0000E4A3D21D15C03463D2203F8021B4270CE
:102DB0000A2203F8012B181A70474B783F2B96BF55
:102DC000064A3D22D25C3D230270437083700A2282
:102DD000C31C03F8012B181A704700BF9CEF0008B2
:102DE0000023037043707047F0B45C7814701C7853
:102DF000032C7FD8DFE804F04E341A021646014453
:102E00003D4F88425AD010F8015BA5F12B042A2DC2
:102E1000E4B2F6D9502CF4D83C5D2506F1D43578CF
:102E200004F03F042C433470013635E0164601446B
:102E3000314F884249D010F8015BA5F12B042A2DAF
:102E4000E4B2F6D9502CF4D83C57002CF1DB35789D
:102E5000C4F383073D43A401357074700136CFE796
:102E600016460144244F884236D010F8015BA5F184
:102E70002B042A2DE4B2F6D9502CF4D83C57002C60
:102E8000F1DB3578C4F301173D43240135707470CC
:102E90000136CDE716460144174F884223D010F87B
:102EA000015BA5F12B042A2DE4B2F6D9502CF4D8FD
:102EB0003C57002CF1DBA4003470D3E703211970D8
:102EC0003178B01A5970F0BC70470221197031780E
:102ED000B01A5970F0BC7047012119703178B01ADE
:102EE0005970F0BC7047002119703178B01A5970D0
:102EF000F0BC70470020E6E74CEF0008F0B5234F28
:102F000083B0A7FB013405462409CAB92049214AE8
:102F1000A1FB04635B09A1FB0361A2FB04624909F5
:102F2000C3EB0316C1EB0111A4EB8604A3EB8103F1
:102F30000094D20A184901F01DF9284603B0F0BDEB
:102F4000FA2303FB1411124EA6FB04234FF47A72EA
:102F500002FB01F15B09A6FB03260E4AA7FB0171E8
:102F6000A2FB04727609C3EB0317C6EB0616A4EBAB
:102F7000870409090191A3EB86030094D20A07494B
:102F800001F0F8F8284603B0F0BD00BFD34D621041
:102F900089888888C5B3A291F4EF0008E0EF0008A3
:102FA00038B50C46054600F0AFFA224601462846E1
:102FB000BDE83840FFF7A2BFF8B103780BB9184657
:102FC000704730B583B00D46002201A904460AF0CF
:102FD00061F9019B73B19C4201D10BE0019313F89D
:102FE000012B202AFAD0092AF8D01AB9286001202A
:102FF00003B030BD002003B030BD704728B3F0B53A
:10300000067883B016B9002003B0F0BD14460D4613
:10301000002201A907460AF03DF9019B0646002B54
:10302000F1D09F4201D1EEE7019313F8010B202864
:10303000FAD00928F8D02A2809D00028E3D103467D
:1030400001202E60236003B0F0BD002070471846B9
:1030500001A900221F4601930AF01CF9019B002BD5
:10306000D1D09F4201D1CEE7019313F8012B202A42
:10307000FAD0092AF8D0002AC5D1012871F100033D
:10308000DDDB431EDCE700BF70B4F2B18D1C861897
:10309000047802352409092C94BF3034373405F8FC
:1030A000044C10F8014B04F00F04092C94BF303489
:1030B0003734B04205F8034CEAD101EB42020BB1C0
:1030C00000231370084670BC70470A46F7E700BF3C
:1030D000F8B504460F4616461D4600211822FDF796
:1030E00057F827606660A560F8BD00BF2DE9F84F6E
:1030F0000346002203F8012B0133427003F8012B31
:1031000003F8012B03F8012B03F8012B03F8012B23
:103110001A70CE688B689E425DDAD1F804800C4646
:1031200058F82670054665490222384608F0EAFF3D
:10313000F0B9237D002B57D0226813786BB10021A2
:1031400002E012F8103F43B1042BFAD123698B42FD
:1031500001F10101F5D1134621612B60E36862683A
:10316000591CE16052F8233001206B60BDE8F88FF4
:103170003B782D2BE0D1237D002BDDD1731CE36048
:1031800058F826707A784AB3266833781BB925E058
:1031900016F8103F13B3013B012BF9D8B3789342D3
:1031A000F6D12E603378022B1BD1384608F07CFF15
:1031B000022864D9BB1C6B60BB783D2B11D1FB1C72
:1031C0006B60FB786BB973789B0772D500236B60DB
:1031D0000120BDE8F88F1046BDE8F88F002385E890
:1031E00088000120BDE8F88F731CE36058F8267052
:1031F0003D21384608F0D0FF07F10209804600283B
:1032000038D0C9EB000A2668337833B9E6E7012ADB
:103210001ED916F8103F002BE0D0032B03F1FF322C
:10322000F5D1BAF1000FF4D12E603378032B02D11F
:10323000012323753378022BD3D1B8F1000F1ED0B0
:1032400008F101036B6098F80130002BBBD0C8E790
:10325000D6F804B0BBF1000FDBD0584608F024FFCD
:103260008245D6D159464846524608F04BFF0028C1
:10327000CFD1D9E7484608F017FF8246C3E77378F5
:10328000A26813F0020FE3680AD093429EDA591C39
:103290006268E16052F8233001206B60BDE8F88F6E
:1032A000934206DA626852F8231009782D297FF4D8
:1032B00057AF034B01206B60BDE8F88F08F00008A2
:1032C000F504010870B502460E465948594904F004
:1032D000D3F9002825DB337806F1100423B94FE039
:1032E00014F8103B002B4BD014F80F5C6807F7D490
:1032F000514804F0C1F9002813DB14F8103C022BEC
:1033000012D0042B05F0010518D0052B24D0032B77
:1033100073D014F80E1CC9B1484804F0ADF9002868
:10332000DEDA4FF0FF3070BDA9071DD454F80C1C35
:1033300054F8082C424804F09FF9F0E7002D60D1C2
:1033400054F80C1C3F4804F097F9E8E754F80C1CBB
:103350003D4804F091F9E2E7002D58D154F80C1CD7
:103360003A4804F089F9DAE714F80E1C002954D120
:1033700054F80C1C54F8082C354804F07DF9CEE7BD
:103380003448354904F078F933780546344683B932
:1033900024E06268002A46D0304804F06DF9054602
:1033A000002DBEDBE068D8B104F048F914F8103FF6
:1033B000A3B162785207F9D4032BF7D0E068002854
:1033C000F4D0043B012B0FD9A1780029E1D1616829
:1033D00081B1234804F050F90546E1E7E81770BDD4
:1033E000204804F01FF9E1E71F48616804F044F940
:1033F0000546D5E7002DD7DA93E71C4804F03CF9E1
:103400008DE754F80C1C1A4804F036F987E754F895
:103410000C1C184804F030F981E754F8082C1648C1
:1034200004F02AF97BE7154804F026F90546B7E7CA
:103430000CF0000882050108B400010868F00008DB
:1034400034F000084CF0000870F000085CF0000850
:1034500028F0000814F000089A05010880F0000820
:1034600090F0000858FD000878F0000808F0000807
:1034700044F0000854F000081CF000089CF000081C
:10348000F8B54B680D46074616465BB118460D4920
:1034900008F0CEFC044628B938463146FFF712FF43
:1034A0002046F8BD0849094A094804F0E5F868686B
:1034B00004F0C4F838463146FFF704FF4FF0FF34FC
:1034C000EEE700BFB0F0000850050108EC04010869
:1034D000B8F0000838B5044608F0E6FD0546204679
:1034E00004F0A0F83A2004F077F8142D05F1010457
:1034F00005DC0134202004F06FF8162CF9D138BD1A
:10350000704700BF05F0ACBD05F0FABD06F012BD76
:1035100006F032BD4FF0500383F31188BFF36F8F75
:10352000BFF34F8F704700BF05F02ABFFA2303FB9C
:1035300000F0034BA3FB0030800905F021BF00BF62
:10354000D34D6210F0B50746164685B00A9D03AC10
:10355000C3F38F020846334639460095019405F0BF
:1035600023FC01280CBF0398002005B0F0BD00BF6C
:10357000F0B58646174685B00B9A0A9C92E8600023
:1035800008469A0871463B4601960295009405F05C
:10359000D1FB05B0F0BD00BF05F036BC05F0F2BCB4
:1035A00070B5002682B028CB044600960846114626
:1035B0002A4604F059FE054618B114B1214605F01B
:1035C000CFF9284602B070BD002104F005BE00BF4F
:1035D00008B532EA220228BF4FF0FF32002304F080
:1035E000BFFEA0F10100B0FA80F0400908BD00BFA5
:1035F00008B532EA220228BF4FF0FF3205F030F85A
:10360000A0F10100B0FA80F0400908BD002208B521
:10361000134604F06BFF003018BF012008BD00BF47
:1036200004F07ABE002108B50A460B4604F098FE65
:10363000003018BF012008BD08B5002104F0BAFF12
:10364000A0F10100B0FA80F0400908BD31EA210183
:1036500028BF4FF0FF3108B505F0B2F8003018BFB1
:10366000012008BD06F07ABD06F092BD06F082BDCD
:1036700030B4044D044C402305600C60136030BC32
:10368000704700BF80100020D410002030B4044DDB
:10369000044C402305600C60136030BC704700BFD1
:1036A0002C0F0020800F0020704700BF704700BF24
:1036B00000F09CBD2DE9F043ADF2544D06A81E214B
:1036C000002206F027F8071E26DDDFF8588009AC37
:1036D0004FF00009227854F80C6C042A6568A16840
:1036E0004FF03F0398BF18F8023022690096019509
:1036F00002910392A58A3668AD0054F8041C54F870
:10370000082C074809F101090496059503F0B4FF58
:103710004F4504F12404DDD10DF2544DBDE8F08392
:10372000C0F0000860F10008F0B500238FB01C461F
:10373000079301E0082C1FD0204606A907AA05F030
:1037400049F901340028F5D0069808A905F05CF97C
:103750000028EFD00898099D0D9F2E1A02900B9813
:1037600007990190069A0C9B0395049600970348CD
:1037700003F082FF082CDFD10FB0F0BDF4F0000899
:1037800010B50C48FFF7A6FE0B490C4803F074FF78
:103790000B48FFF79FFE0B4C0B4B2046196803F0BC
:1037A0006BFF0A48FFF796FE2046BDE81040FA215D
:1037B00003F062BF28F1000830F100082CF1000886
:1037C00044F10008440001082C04002054F10008D2
:1037D000F0B5002A059D069F67DD91F800C0BCF199
:1037E000000F2CD00E46002416F801EF0134BEF174
:1037F000000FF9D1A24223DC724613F0020F0CBF76
:103800004FF0200E4FF0300E13F001031AD1002AB2
:1038100052DD3C680CE0046884F800E00468013480
:1038200004603C6801343C60013A03F1010349D073
:10383000A542F9D90028EED16FF00100F0BD644631
:10384000121BDAE76646BCF1000F15D000233C6876
:103850000BE0046826700468013404603C6801349D
:103860003C6011F8016F01333EB1A542F9D900283F
:10387000EFD16FF00100F0BD6346002A1FDD3C6808
:103880001A440BE0016881F800E001680131016031
:103890003C6801343C600133934211D0A542FAD90F
:1038A0000028EFD16FF00100F0BD13F001030FD13C
:1038B00091F800C04FF0200E6646002EC7D11A4680
:1038C0001046F0BD91F800C06646002EBFD1F6E765
:1038D0000E784FF0200E002EB8D13246F0E700BF30
:1038E000F0B587B00F460F9E109D002945D00C46BD
:1038F000864673BB00238DF817300DF11701002F9A
:1039000033D01F460E9B0DF11701A3F13A00B4FB13
:10391000F2F302FB1344092CC8BF2418303401F819
:10392000014D1C46002BF2D1FFB10C9B002B34D172
:103930002D2301F8013C00240139009601957046C1
:103940000C9A0D9BFFF744FF002800DB204407B0D2
:10395000F0BD0A2ACED10029CCDA00234C428DF8E2
:103960001730002C36D00127CCE7119B9BB12B23BD
:1039700001F8013C00240139DFE70096019530246D
:1039800003A90C9A0D9B8DF80D708DF80C40FFF774
:103990001FFF07B0F0BD119CCFE70D9B9B07C7D55C
:1039A0002B689E420ED9BEF1000F10D0DEF8003019
:1039B0002D221A70DEF800300133CEF800302B686B
:1039C00001332B600C9B0124013B0C93B5E76FF096
:1039D0000100BCE70DF11701A7E700BF2DE9F04F8B
:1039E000B3B002F1FF3B1D783C9A002407460B91CF
:1039F00012940792002D00F09C83A146DA4680467F
:103A00001A461AE01578129B9A450ED9B8F1000FA4
:103A100000F08F80D8F800301D70D8F80010129B8D
:103A200001310133C8F800101293144609F101095D
:103A30006578621C002D00F0D380252DE2D15378EB
:103A4000541C002B00F0CC80252B77D02D2B03BFEE
:103A50009378941C012600262B2B71D0002209920A
:103A600003E014F8013F46F00206302BF9D02E2B6C
:103A700033D0A3F13002D2B2092A2ED906220892FD
:103A800000276C2B04BF63780134682B5DD0583B52
:103A9000202B46D8DFE813F02503450045004500FC
:103AA0004500450045004500450045004500B7017B
:103AB00000028C01C800C8004500450045004500D3
:103AC0004500450045004500D20145004500B100D4
:103AD0004500260245004500190206210D463146E3
:103AE0000027621C3E468B4603E000EB4C0512F8B3
:103AF000013BA3F130012E2BC8B202F1FF340AD0F2
:103B0000092805EB850C07EB870E07D8002EECD1B2
:103B100001EB4E07EBE700250126E8E708955E4636
:103B2000AFE7129B9A4540F20E82B8F1000F40F0C9
:103B3000F2816FF0010033B0BDE8F08F224662E7FA
:103B400001226378099214448FE763780134583B6B
:103B5000202BE6D801A252F823F000BFEF40000866
:103B6000233B0008233B0008233B0008233B0008BD
:103B7000233B0008233B0008233B0008233B0008AD
:103B8000233B0008233B0008073E0008793F00085C
:103B9000B13D0008293C0008293C0008233B0008EF
:103BA000233B0008233B0008233B0008233B00087D
:103BB000233B0008233B0008233B00085D3F00082F
:103BC000233B0008233B0008FB3B0008233B000885
:103BD0006D3F0008233B0008233B0008613F0008BD
:103BE00047460B9B13F0010303D1002FA1D03A6885
:103BF0001370484633B0BDE8F08F079BB64D196887
:103C000012A8002908BF294601903A463346CDF84C
:103C100000A04046079DFFF7DBFD002805F10405E5
:103C200089DB8144079503E7079B002203F1070E18
:103C30002EF0070EDEF800300C931846DEF8043044
:103C40001D460A93294600230EF10805079506F044
:103C5000F9FF002840F02782099B002B40F0768175
:103C60001DAB9B460D93089B072B0ED89B4B089DC5
:103C70000C9803EBC5030A99D3E9002306F0BEFBB9
:103C80000C900A91002D00F03882089D002301203D
:103C9000013300EB8000AB424FEA4000F8D10895B9
:103CA00006F0E8FCCDE90E010C980A9906F0F2FF47
:103CB0000990002800F06781099BDFF824C2089D65
:103CC0000DF14B0E0020ACFB0312D20802EB820177
:103CD000A3EB410330330EF8013F01301346002AB5
:103CE000F1D10DF14C0E0EEB00030BF1FF3213F886
:103CF000011D734502F8011FF9D108958344089B03
:103D0000002B43D0099806F0B5FC02460B460C98F0
:103D10000A9906F071FBDDE90E2306F021FD06F09D
:103D2000B9FF2E238BF80030002800F00482DFF862
:103D3000B0C1089D0DF14B0E0021ACFB0023DB0848
:103D400003EB8302A0EB4202303201310EF8012F67
:103D50001846002BF1D18D42089598BF0DF14C0EFD
:103D600040F2AD810DF14C0E4B1E089D7344302284
:103D700001318D4203F8012F4FF03000F8D80029AF
:103D800040F09D818BF801000BF1020B12A8002579
:103D90000190CDF800A00D993A46334640468BF885
:103DA0000050FFF715FD0028FFF6C5AE81443FE641
:103DB000079B073323F00703D3E900010833079378
:103DC00006F088FF054606F0F9FA002840F0E18089
:103DD0006E2361228DF874308DF876308DF8752061
:103DE0000DF17701002012AD08703A463346404687
:103DF000CDF800A001951DA9FFF7EAFC0028FFF609
:103E00009AAE814414E6079B12A9D3F800E03A4623
:103E100033460191CDF800A00025404611A9079E28
:103E20008DF844E08DF84550FFF7D2FC002806F1EC
:103E30000406FFF680AE81440796F9E50020D8F825
:103E4000003030221A70D8F800307822591CC8F897
:103E500000105A70D8F80030079A0133C8F80030C3
:103E60001346043309F102091168079300B189B2BE
:103E70004122099812AB0590029204930097019693
:103E8000CDF80CA0404610220023FFF729FD0028A2
:103E9000FFF651AE8144CBE5079A1346116804330F
:103EA00007930998612212AB059002920493009740
:103EB0000196CDF80CA040460A220123FFF710FD21
:103EC0000028FFF638AE8144B2E5079A1346116820
:103ED000043307936122CCE768F1000870F1000811
:103EE000CDCCCCCC079A13461168043307930998BC
:103EF000612212AB05900292049300970196CDF8CF
:103F00000CA040460A220023FFF7EAFC0028FFF637
:103F100012AE81448CE5D8F8003025221A70D8F80A
:103F20000020129B511C0133C8F800109A452178DB
:103F3000129308D95170D8F80020129B0132013336
:103F4000C8F80020129309F1020971E52B238DF8BE
:103F500074301DAB0DF1750B0D9384E601206EE7F7
:103F6000079A1346043311880793B3E7079A134659
:103F7000043311880793BAE7079A13460433B2F95A
:103F8000001007938DE730238BF800300BF1010B05
:103F9000B5E6284606F012FA0128284640F2B2801B
:103FA00006F00AFA002800F096802D2305F100455E
:103FB0008DF8743028464FF07E5107F087F90028BD
:103FC00040F0B480674B099300239B460894099CFA
:103FD0006549284607F08EF94FF07E5118B92846FA
:103FE00007F074F940B13DB12846214606F0D0FFF4
:103FF0000BF1010B0546EBE701231A46089C0DF176
:104000007503CDF820B00A940D964FF07E5B0C97A7
:1040100014461E4601E03E4601345946284607F044
:104020006BF807F07BF9C0B200F13002012C32705E
:1040300006F1010700F0818006F056FF0146584660
:1040400006F0A6FF0146284606F098FE45490546BB
:10405000584606F09DFF072C8346DCD13A4665237F
:10406000099813704FF08041099207F04DF90A9CAE
:104070000D9E0C9F099A90B3089B002B0CBF2B2020
:104080002D20089D3949EB1781FB05E1C3EBA10108
:1040900001EB8103A5EB4303303130339170507055
:1040A000D370111D9EE60A9A2D2302F100428DF86D
:1040B00074301DAB0A920DF1750B0D93D3E55A4682
:1040C0000EEB010313F8010D734502F8010FF9D14E
:1040D00001318B445AE620238DF874306AE72B2097
:1040E000CFE7079A1346043311680793C0E6079A8F
:1040F0001346043311680793B9E61D4B0022CDE93E
:104100000E23D1E506F058F900284FF0690114BFDD
:1041100020202D206E2266238DF875108DF87400F6
:104120008DF876208DF877301EA95BE60E4B09934B
:104130004AE7A94655E5014614E64FF02E03737091
:1041400006F0D2FE0146584606F022FF01462846F8
:1041500006F014FE03490546584606F019FFB71C41
:10416000834658E7CDCCCC3D0000204167666666AB
:104170000000F03F0EB410B587B009AC54F8043B12
:104180000390009403A800214FF0FF320594FFF73D
:1041900025FC07B0BDE8104003B0704710B584B0EF
:1041A00004AC44F8040D0B460092204600214FF069
:1041B000FF32FFF713FC04B010BD00BF10B4084A73
:1041C000084C13680849002B08BF234618441060A8
:1041D0005DF8044B884294BF18464FF0FF3070479B
:1041E0004C3100202832002000BC002038B5FDF7FB
:1041F000D7FF0546FFF78EF9002D06DD0024204687
:104200000134FDF7D5FFAC42F9D1002D06DD0024C5
:1042100020460134FDF7D2FFAC42F9D14FF4FA70D9
:10422000FEF7F4F8F1E700BF704700BF30B5134D5B
:1042300083B02C680CB103B030BDFFF761F9FFF714
:10424000F3FFFDF78DFFB0B10D48214603F0E6FA0C
:1042500088B10C490C4800F02DF80C49032301915A
:10426000009322460A480B494FF48053FFF780F928
:1042700028600028DFD1FFF7B9FF00BF50310020D0
:104280005CF60008F8F1000854060108E8F100089F
:10429000F0F10008417F000808B5054B1B681BB111
:1042A000FFF730F9FFF7A2FFFFF7C0FFF8E700BF05
:1042B00050310020F8B505460F46174A174E1368CF
:1042C00000240133136003782F2B08BF013556F803
:1042D0003400013418B1294607F0AAFDB8B1032C07
:1042E000F5D132680D4BA2B19A6822B11B69022444
:1042F00013B10020F8BD01247B6898470028F8D04E
:1043000006EBC40346F834505F600120F8BD01207D
:10431000F8BD1446F0E700BFAC3100205831002052
:1043200003782F2B01D0002070474378EBB110B4F5
:10433000104C22681A445278520710D02F2B0ED0FE
:10434000013006E022681A445278520707D02F2B1A
:1043500005D001F8013B10F8013F002BF2D10023FA
:1043600001200B705DF8044B704700230B70012097
:10437000704700BF8805002003782F2B01D0002054
:1043800070474378002BFAD010B4114A01301468FA
:10439000E21805E02F2B0CD010F8013FE21823B1F2
:1043A00052785207F6D12F2B03D000205DF8044B32
:1043B0007047013003782BB101F8013B10F8013F41
:1043C000002BF9D1002301200B705DF8044B7047DE
:1043D0008805002070B584B06946FFF7A1FF70B171
:1043E000094E002456F8340006EBC405013418B118
:1043F000694607F01DFD20B1032CF3D1002004B065
:1044000070BD2846FBE700BF5831002070B588B06A
:1044100005460E46FFF7DEFF694604462846FFF7CD
:10442000ABFF28B134B1636868469B6B314698474F
:1044300008B070BD204608B070BD00BF2DE9F04344
:1044400089B004460F46FFF7C5FF204D0646AB680E
:10445000204601336946AB60FFF78EFF88B186B115
:10446000FFF754F81A4900240B465A680C337AB106
:104470000134052CF9D1FFF74BF8736807221B684C
:104480001A60EB6800200133EB6009B0BDE8F083EF
:1044900004EB440973684FEA890901EB0908C8F87D
:1044A0000430FFF735F8736868461B6A3946984749
:1044B000074B30B9736806221B681A60C8F80400FD
:1044C000DFE743F8090004F10A00DEE7AC31002021
:1044D00070310020F8B51B4E0A383369042803F107
:1044E0000103336127D8002A14DD4700164B3D181D
:1044F00003EB85052C7A7CB93844800003445B6863
:10450000114DC3B15B6A2858984700280DDB14B1E0
:104510000130F8BD0020F8BD4FF0000E0C70013ADC
:10452000013185F808E00124E6E7002C14BF0120E2
:104530004FF0FF30F8BD73694FF0FF300133736106
:10454000F8BD00BFAC3100207031002030B40D4CFC
:104550000A38A369042803F10103A3610BD800EB17
:104560004000094B80001D186D6825B1EC6A185891
:10457000234630BC1847E3694FF0FF300133E36155
:1045800030BC7047AC31002070310020F8B5114BC1
:104590000A381A6B042802F101021A6314D800EBDE
:1045A00040000D4D84002E1972686AB1536B285972
:1045B000176898473860FEF7A9FF002373602B51F6
:1045C000FEF7A6FF0120F8BD5A6B002001325A63A6
:1045D000F8BD00BFAC3100207031002070B58CB048
:1045E0000E460546FFF7F6FE044620B1284669460A
:1045F000FFF796FE10B900200CB070BD28460DF1F3
:104600001101FFF7B9FE30B163683146DB6B04A8D6
:1046100098470CB070BD2F23ADF81030F4E700BF01
:1046200001207047024600230B6018461360704754
:10463000002070470020704700207047002070471E
:104640004FF0FF30704700BF10B40F4B013853F8E4
:104650003040ACB1002A0FDD03EBC00252681144B8
:1046600000290DDBA26891420ADC03EBC003084677
:1046700059605DF8044B70471CBFA268511AEFE700
:104680004FF0FF30F5E700BF2C22002000207047DC
:10469000034B0138002243F830200120704700BF4F
:1046A0002C220020074900220B4643F8042B043338
:1046B0004A6043F8042B43F8042B43F8042B1A6098
:1046C000012070472C2200202DE9F0410646114DB3
:1046D000114F002457F834304FEAC4082BB101348D
:1046E000032CF7D10020BDE8F081286820B9F6E757
:1046F00055F80C0F0028F2D0314607F099FB00283E
:10470000F6D1B844C8F8040047F83450601CBDE83E
:10471000F08100BF4CF200082C22002070B5054645
:104720000E46084C084802E054F80C0F40B12946E8
:1047300007F07EFB0028F7D1A3680120336070BD2D
:1047400070BD00BF4CF2000838F20008F8B5104BFD
:10475000013853F83050BDB103EBC0067768AB6841
:10476000DB1B23EAE3739A42A8BF1A4614460AB930
:104770001046F8BD08466968394407F0B5F8726814
:10478000204614447460F8BD4FF0FF30F8BD00BF00
:104790002C22002038B50D46084907F049FB50B9D6
:1047A000074C0848A1680022A84754F80C0F0028BD
:1047B000F8D1012038BD002038BD00BF40F200080C
:1047C0004CF2000838F20008F8B505460F461646C8
:1047D000084C094802E054F80C0F50B1294607F084
:1047E00027FB0028F7D1636801203B60A368336092
:1047F000F8BDF8BD4CF2000838F20008F0B589B0F9
:10480000431E0A1D0F4602A81C490026FEF760FC45
:10481000354602A96846FEF769FC1949044680B18D
:10482000009BEBB15C68204607F002FB154930B1F4
:10483000204607F0FDFA0028EBD1019EE9E70125AB
:10484000E7E7B6B1304602F063FF0F4A0F4B00288E
:1048500014BF1046184602F0F1FE204609B0F0BD24
:1048600038686946054AFEF70BFE0446204609B043
:10487000F0BD294602F066FF0446EEE790F200081C
:10488000C0F20008C4F200086E040108AB0501087C
:104890002DE9F04F8FB00A1D431E4FF47A754FF08B
:1048A000FF3480460E4608A8424904950594FEF759
:1048B0000FFC414C414D424F4FF0000906A808A99A
:1048C000FEF714FC002858D0069B002B67D05B68CD
:1048D000A34248D0AB4256D0BB42EFD10B9B56F817
:1048E000230002F015FF0B9F8246C7EB08030193DC
:1048F00006EB8707002840D0324B98423DD0324E1D
:104900004FF0000B01983946D0478046002834D13B
:10491000B9F1000F04D0059B0BF1010B9B451EDA8A
:10492000049BFA24032B9CBF04230493FEF7ECFDA5
:104930000546FEF7E9FD049B022104FB03F3A6FBF9
:10494000032305EB93139842DCD20DF10F00FDF722
:104950002BFF0130EDD09DF80F30032BE9D14046FD
:104960000FB0BDE8F08F04A90798FEF725FB06A855
:1049700008A9FEF7BBFB0028A6D14FF0010840466E
:104980000FB0BDE8F08F079805A9FEF715FB059B52
:104990004FF00109002B91DC4FF0FF38DFE7306862
:1049A00006A9044AFEF76CFD804640460FB0BDE8FC
:1049B000F08F00BF28F800085C040108BF0501085B
:1049C000AD05010891480008D34D6210F0B54FF4D1
:1049D0007A738BB00F4604460193FEF795FD631E74
:1049E00006463A1D04A82049FEF772FB1F4D04E05D
:1049F000029B0BB35B68AB4227D002A804A9FEF769
:104A000075FB04460028F3D1019D0021002DB8BF9D
:104A10000335AD1006E09DF80330032B1AD0FEF7E6
:104A200073FD811B691A0DF10300FDF7BDFE013016
:104A3000F1D120460BB0F0BD386802A90A4AFEF752
:104A40001FFD044620460BB0F0BD039801A9FEF7F8
:104A5000B3FAD2E702F00AFF0028EAD000200146AC
:104A600002F0F0FEE5E700BF70F20008A0040108C4
:104A7000012813DD70B506460D46012401E002F061
:104A8000D1FD55F8040F013402F0CCFDB4420448C6
:104A9000F5D1044802F0C6FD002070BD002070472B
:104AA000B400010858FD000810B504464078E188BC
:104AB000FDF738FDA068FDF75FFCA1882078FDF7C1
:104AC00031FDA068FDF758FCA1882078FDF722FD94
:104AD000A068FDF751FC6078E188BDE81040FDF763
:104AE00019BD00BF10B504464078E188FDF712FDFE
:104AF000A068FDF741FCA1882078FDF70BFDA068B8
:104B0000FDF73AFCE1886078FDF70CFDA068FDF741
:104B100033FC2078A188BDE81040FDF703BD00BF3D
:104B2000F8B5037C0446002B0F4614BF01258025F1
:104B3000082615E0FDF7EEFCA068FDF71DFCA18836
:104B40002078FDF7E7FCA068FDF716FC2078A18827
:104B5000FDF7E8FC237C6A004BB1013ED5B20AD0D8
:104B60003D426078E188E5D1FDF7DCFCE4E7013EF9
:104B70004FEA5505F4D1E1886078FDF7CBFCA068D9
:104B8000FDF7FAFB2078A188FDF7C4FCE188607886
:104B9000FDF7E0FC0546A068FDF7EEFB2078A18854
:104BA000FDF7C0FCB5FA85F04009F8BD70B50A4EB6
:104BB00056F8204074B10546A1882078FDF74EFCD8
:104BC0006078E188FDF74AFC2046FEF74FFD0023A0
:104BD00046F8253070BD00BF4C220020F8B51B4EB2
:104BE000074656F820400D463CB32078A188FDF7D3
:104BF00035FC6078E188FDF731FC2B686868A968AE
:104C0000EA6823606060A160E260A178E2782B69C5
:104C1000012505FA02F205FA01F12361E280A18083
:104C2000207889B2FDF74AFC6078E188FDF75CFCEA
:104C30002046FFF739FF2846F8BD1420FEF712FD85
:104C4000044610B146F82700D7E7F8BD4C220020F3
:104C50002DE9F84F594CDDF828A054F82040002CDD
:104C600000F09C801E4691460D462046F3B1FFF7AA
:104C700039FF0B9B7BB39DF82C102046FFF750FFAC
:104C8000002800F09480002EC8BF761906DD15F8C4
:104C9000011B2046FFF744FFB542F8D1BAF1000FDF
:104CA0001DD10C9B73B10120BDE8F88FFFF71AFFEF
:104CB0000B9B6BB9E3685B00D9B22046FFF730FF6E
:104CC000002874D02046FFF7EFFE0120BDE8F88FE2
:104CD0009DF82C10F1E7E3685B00D9B2CDE72046E0
:104CE000FFF700FF0B9B002B5BD09DF82C1020469C
:104CF000FFF716FF00285AD0BAF1000FD1DD09F1F5
:104D0000FF390AF1FF3B4FF00008237C6078002B4D
:104D1000E18814BF012680260825FDF7FBFB00274C
:104D200002E0013DD6B21BD0A068FDF725FB20783C
:104D3000A188FDF7EFFB6078E188FDF70BFC00B17F
:104D40003743A068FDF718FB2078A188FDF7EAFB40
:104D5000237C7200002BE4D1013D4FEA5606E3D1DB
:104D6000C3456078E18816DCFDF7D4FBA068FDF749
:104D700003FBA1882078FDF7CDFBA068FDF7FCFAC6
:104D800008F101082078A188FDF7CCFBD04509F88F
:104D9000017FBAD185E7FDF7C5FBE7E72046BDE80F
:104DA000F88FE368590041F00101C9B29FE720463E
:104DB000FFF77AFE4FF0FF30BDE8F88F4C2200205D
:104DC0002DE9F04FADF5177D00240A1D431E012685
:104DD00005258246894610A89E4908948DF82C40E6
:104DE0008DF82D408DF82F400E948DF83C408DF8B5
:104DF0002E600D95A046FEF76BF9A346059404942A
:104E0000954D964C964E09A810A9FEF76FF928B358
:104E1000099B002B00F0A7805F68A74255D0AF42E6
:104E200060D0B74263D08F4A974248D08E4A9742AB
:104E300055D038468D4906F0FBFF002842D0384651
:104E40008B4906F0F5FF002856D1012309A810A9C7
:104E50008DF83C30FEF74AF90028D9D1049B002B8D
:104E600040F0DA80059B002B40F0DE80139A059C11
:104E700001329245139207AE40F39B8016AD0AE0D3
:104E8000139A3368013292452B551392294604F147
:104E9000010440F38F8059F822003146FEF78CF868
:104EA0000028EDD1734802F0BDFB139B59F8230095
:104EB00002F0C4FB01200DF5177DBDE8F08F012342
:104EC0000493A0E74FF0010B9DE70A980EA9FEF7A7
:104ED00073F8002800F0B2804FF0010893E7012337
:104EE000059390E70A980DA9FEF766F88BE70A98F4
:104EF00008A9FEF761F886E738465F4906F098FF93
:104F000068B138465D4906F093FF002835D05C4A09
:104F100097427FF478AF139B013B13939EE706A95A
:104F20000A980A2208F0AAF9069B8DF82C00A3B172
:104F30001A782E2A11D1581C06905B786BB106A9FD
:104F40000A2208F09BF9069B8DF82E00002B3FF4F7
:104F50005AAF1B78002B3FF456AF4A4802F080FB53
:104F60004FF0FF3005E0D9F8000009A9394AFEF7F3
:104F700087FA0DF5177DBDE8F08F06A90A980A2279
:104F800008F07CF9069B8DF82D00002BE5D01A78EF
:104F90002E2AE2D1581C06905B78002BDDD006A9A2
:104FA0000A2208F06BF9069B8DF82F00002BD0D158
:104FB00029E716A9089AB8F1000F3BD00E9B56AD11
:104FC0008DE80C08002023462A46FFF741FE30609A
:104FD00090B3013038D0089B002B1BD04FF000035A
:104FE000336017DD1C4605E03368089A01339A42A6
:104FF00033600BDDE95C244802F03EFB04444E2C98
:10500000F2DD0A2002F0E8FA0024EDE714B10A20EC
:1050100002F0E2FA0020ACE70BA90020FFF7DEFD6A
:10502000B0FA80F04009A4E7049C2046FFF7BEFDDB
:1050300020469EE74346C2E701209AE7204602F059
:105040000FFB4FF0FF3094E7104802F009FB0220FD
:105050008FE700BF08F90008F90401083A040108C5
:105060002E0401088805010835050108B8F9000873
:10507000C0F90008CCF90008C4F90008C8F9000814
:10508000C605010869050108DCF90008D8F900081F
:1050900070B50E4E56F82040B4B1054621892078EF
:1050A000FDF7DCF960786189FDF7D8F9A078A1896E
:1050B000FDF7D4F9E078E189FDF7D0F92046FEF755
:1050C000D5FA002346F8253070BD00BF48220020E5
:1050D000F8B5314D074655F820400E46002C51D00A
:1050E00020782189FDF7BAF960786189FDF7B6F972
:1050F000A078A189FDF7B2F9E078E189FDF7AEF972
:1051000072683068B368F1686260E160A36094F827
:1051100007C02060217994F805E0A779B369726926
:105120003069012505FA0EFE05FA0CF605FA01F1C3
:1051300005FA07F7A3616261A4F80AE02181206102
:1051400089B22078A781E681FDF788F960786189C6
:10515000FDF7B4F9A078A189FDF7B0F9E078E1890D
:10516000FDF7ACF9E078E189FDF7D4F9237EA0786A
:10517000A1891BB9FDF7D6F92846F8BDFDF7CAF994
:105180002846F8BD1C20FEF76DFA044610B145F81C
:105190002700B5E7F8BD00BF48220020F8B5384B1E
:1051A00053F82050002D68D00C464E798879CF797D
:1051B0000A79012303FA00F003FA02F103FA06F672
:1051C000BB40A08121816681E3812B7820788342D6
:1051D0004CD089B2FDF742F968786378834240D0B9
:1051E0006989FDF73BF960786189FDF767F9A8786F
:1051F000A378834230D0A989FDF730F9A078A1893E
:10520000FDF75CF9237EA078A189002B32D1FDF750
:1052100089F9E878E378834203D1E279EB799A421D
:105220000AD0E989FDF71AF9E078E189FDF746F936
:10523000E078E189FDF76EF921686268A368E068AB
:105240002960E8606A60AB6021696269A3692961CD
:105250006A61AB610120F8BDA279AB799A42CAD1EB
:10526000D7E762796B799A42BAD1C0E72B7993423A
:10527000AFD1B1E7FDF74EF9CBE72846F8BD00BF47
:10528000482200202DE9F04F5B4C83B054F820A059
:10529000BAF1000F00F0AC801C469AF818300D46A9
:1052A00093469AF80200BAF80C10002B75D1FDF75E
:1052B00039F99AF80300BAF80E10FDF733F9DAF865
:1052C0001000FDF759F8002C78D02B1F00940193A3
:1052D0000125019ADAF8143052F8047F9AF81980FF
:1052E00001929AF81890002B61D00026344631E0E4
:1052F00005FA04F33B429AF80100BAF80A1037D0D5
:10530000FDF708F9C8459AF80200BAF80C1037D032
:10531000FDF700F9DAF81000FDF72EF89AF8020010
:10532000BAF80C10FDF7FEF89AF80000BAF8081069
:10533000FDF710F928B19AF81A308BB305FA04F387
:105340001E43DAF81000FDF717F8DAF814300134CC
:10535000A3422DD99AF81A20002AC9D1E243134456
:1053600005FA03F33B429AF80100BAF80A10C7D1D4
:10537000FDF7D8F8C8459AF80200BAF80C10C7D162
:10538000FDF7D0F8DAF81000FCF7F6FF9AF8020003
:10539000BAF80C10FDF7BEF8C6E7FDF7BBF888E7D2
:1053A000DAF81430013B1B1B05FA03F3C8E71E466D
:1053B000009B4BF8046B013B00938AD19AF818309C
:1053C0007BB19AF80200BAF80C10FDF7A3F89AF82E
:1053D0000300BAF80E10FDF79DF8012003B0BDE8F8
:1053E000F08F9AF80200BAF80C10FDF79BF8EEE780
:1053F000504603B0BDE8F08F482200202DE9F04F61
:105400008B4600218846C146C246ADF2544D022764
:10541000052508240190431E4FF0010E8DF834102D
:105420008DF835108DF836108DF837108DF838104E
:105430008DF84C108DF84D108DF84E108DF83A7097
:10544000119512940BF10402032607A8AC49AD4C48
:10545000AD4DAE4F8DF839E08DF83B60FDF738FE6D
:10546000CDF8008005A807A9FDF740FE10B3059B05
:10547000002B00F0BA805E68A6425AD0AE4252D0ED
:10548000BE4267D0A24A964250D0A24A964255D018
:10549000A14A96426ED03046A04906F0C9FC0028C9
:1054A0004FD1012305A807A98DF84C30FDF71EFE4A
:1054B0000028DCD1BAF1000F40F08C80B8F1000F69
:1054C00040F01681009B002B40F03C810A98009E22
:1054D00001300A90019B834240F3398114AB03EB06
:1054E00086045BF82000214604AAFDF787FD00280A
:1054F00000F04D8121460A98049B013001360A9044
:10550000002B7CD00A680136802E03F1FF3341F86E
:10551000042FF5DD8248049302F0A2F801200DF279
:10552000544DBDE8F08F4FF001099BE74FF0010AA1
:1055300098E7069811A9FDF73FFD93E70123009333
:1055400090E73046774906F073FCB0B901238DF837
:105550004D3087E7069812A9FDF72EFD002881D06F
:10556000129B013B1F2B7FF67DAF384602F078F887
:105570000120D4E74FF0010874E730466A4906F08D
:1055800057FC18B901238DF84E306BE73046674958
:1055900006F04EFC002834D03046654906F048FC41
:1055A00000286DD03046634906F042FC002800F028
:1055B00083803046604906F03BFC002844D05F4AB7
:1055C00096427FF44FAF0A9B013B0A93BAF1000F5A
:1055D0003FF474AF0DA90020FFF77AFDB0FA80F018
:1055E00040090DF2544DBDE8F08FDBF8000005A92D
:1055F000434AFDF745FF0DF2544DBDE8F08F04938B
:1056000068E703A906980A2207F038FE039B8DF885
:105610003400A3B11A782E2A11D1581C03905B785C
:105620006BB103A90A2207F029FE039B8DF838000D
:10563000002B3FF417AF1B78002B3FF413AF40480B
:1056400002F00EF801206AE703A906980A2207F083
:1056500015FE039B8DF83700002BF0D01A782E2A08
:10566000EDD1581C03905B78002BE8D003A90A22E7
:1056700007F004FE039B8DF83B00002BDBD1F1E625
:1056800003A906980A2207F0F9FD039B8DF835005F
:10569000002BD4D01A782E2AD1D1581C03905B78D5
:1056A000002BCCD003A90A2207F0E8FD039B8DF85C
:1056B0003900002BBFD1D5E603A906980A2207F0CE
:1056C000DDFD039B8DF83600002BB8D01A782E2A0A
:1056D000B5D1581C03905B78002BB0D003A90A22E7
:1056E00007F0CCFD039B8DF83A00002BA3D1B9E65F
:1056F00050460DA9FFF752FDB0FA80F040090EE7C1
:10570000DCFB0008F90401082E0401085604010816
:105710008805010835050108E5040108E4F90008D9
:1057200004FA0008ECF90008C0F90008F4F90008D0
:10573000F8F90008FCF9000800FA0008C60501089D
:10574000690501084046FFF7A3FC4046E7E686B33B
:10575000002014A994AA3346FFF794FD38B3B9F199
:10576000000F22D00024254693AF01E0AE4218DDA1
:10577000114857F8041F01F07FFF04444E2C05F137
:105780000105F3DD0A2001F027FF0024EEE70B48B6
:1057900001F048FF0A9B5BF8230001F04FFF012056
:1057A000BDE614B10A2001F017FF0020B7E6012082
:1057B000B5E64FF0FF30B2E60CFA0008CCF900086D
:1057C00070B5084E56F8205055B10446A98828787F
:1057D000FCF744FE2846FDF749FF002346F8243035
:1057E00070BD00BF50220020F8B5174E074656F88E
:1057F00020400D46F4B12078A188FCF72FFE2968DF
:10580000AB686A6821606178012505FA01F1626080
:10581000A360A180207889B2FCF750FEA37820789D
:10582000A1881BB9FCF77EFE2846F8BDFCF772FE86
:105830002846F8BD0C20FDF715FF044610B146F8C8
:105840002700DCE7F8BD00BF5022002038B5184B18
:1058500053F820404CB30D4691B924E0FCF762FEAA
:10586000A068FCF789FDA3782078A18893B1FCF7A4
:1058700051FEFDF74DFEA068FCF77EFD013D12D004
:10588000FDF744FEA3782078A188002BE6D1FCF731
:1058900041FEE5E7FCF746FEFDF73AFEA068FCF79F
:1058A0006BFD013DECD1012038BD204638BD00BF65
:1058B000502200202DE9F0478EB000240A1D431E1F
:1058C000012605258246894608A849498DF81440D5
:1058D0008DF815408DF81640ADF818600795FDF766
:1058E000F7FBA0462746434D434C444E03A808A966
:1058F000FDF7FCFB90B1039B002B54D05B68A342E7
:1059000022D0AB4222D0B34227D03D4A934220D08E
:105910003C4A934226D03C4A9342E7D1002F55D1CE
:10592000B8F1000F5CD10B9B9A455EDD59F823005E
:1059300002A9FDF741FB00283ED1344801F090FE5A
:1059400001200EB0BDE8F0870127CFE74FF0010836
:10595000CCE701238DF81630C8E7049807A9FDF7B6
:105960002BFBC3E701A904980A2207F087FC019BDF
:105970008DF8140093B11A782E2A0FD1581C01907B
:105980005B785BB101A90A2207F078FC019B8DF8D6
:105990001500002BAAD01B78002BA7D01C4801F0C3
:1059A0005FFE012005E0D9F8000003A9104AFDF7C9
:1059B00067FD0EB0BDE8F08740460299FFF746FF4D
:1059C000B0FA80F040090EB0BDE8F08705A90020CC
:1059D000FFF70AFFB0FA80F040090EB0BDE8F0878B
:1059E0003846FFF7EDFE3846E3E74FF0FF30E0E7DB
:1059F0006CFB00083505010888050108F904010859
:105A000033040108870401084E040108BF0501089A
:105A100069050108F8B505464A780B4C91F800E095
:105A2000012707FA02F304EB8506704699B204F8E1
:105A300025E072707380FCF757FD14F8250071881B
:105A4000FCF768FD3846F8BD4422002070B50546D5
:105A5000124C04EB8006718814F82000FCF762FDFC
:105A60004FF4FA70FCF788FCFDF750FD718814F8CC
:105A70002500FCF74FFD3C20FCF77EFC718814F8F4
:105A80002500FCF767FD0446FDF742FD4FF49670D4
:105A9000FCF772FCB4FA84F0400970BD4422002087
:105AA000F8B506460C46144DFDF730FD05EB8607AC
:105AB000798815F82600FCF735FD74B10F20FCF746
:105AC0005BFC15F826007988FCF724FDFDF720FD26
:105AD000BDE8F8402D20FCF74FBC3C20FCF74CFC07
