:020000040800F2
:10000000000001205D0200088D2F0008912F0008DC
:10001000952F0008992F00089D2F00080000000070
:10002000000000000000000000000000A1DA00084D
:10003000A12F00080000000031DB000895DB00085C
:10004000C1020008C1020008C1020008C102000884
:10005000C1020008C1020008C1020008C102000874
:10006000C1020008C1020008C1020008C102000864
:10007000C1020008C1020008C1020008C102000854
:10008000C1020008C1020008C1020008000000000F
:10009000000000000000000000000000C102000895
:1000A000C1020008C1020008C1020008C102000824
:1000B000C1020008C1020008C1020008C102000814
:1000C000C1020008C1020008C1020008C102000804
:1000D000C1020008C1020008C102000800000000BF
:1000E000C1020008C1020008C102000800000000AF
:1000F000000000000000000000000000C102000835
:1001000000000000C1020008C1020008C10200088E
:1001100000000000000000000000000000000000DF
:10012000C1020008C1020008C1020008C1020008A3
:10013000C1020008000000000000000000000000F4
:10014000000000000000000000000000A93F0008BF
:10015000C1020008C1020008C1020008C102000873
:10016000C1020008C10200080000000000000000F9
:10017000000000000000000000000000000000007F
:1001800000000000C10200080000000000000000A4
:04019000C1020008A0
:100194003C6D637573683E0032303139313132342D
:0801A4002D31343135313800F2
:0201AC00000051
:0801B000F460010001000000F1
:1001C00070B4840746D0541E002A41D0CDB20346F5
:1001D00002E0621EE4B3144603F8015B9A07F8D10B
:1001E000032C2ED9CDB245EA05250F2C45EA05454D
:1001F00019D903F110022646103E0F2E42F8105C6A
:1002000042F80C5C42F8085C42F8045C02F110020F
:10021000F2D8A4F1100222F00F0204F00F04103201
:10022000032C13440DD91E462246043A032A46F8ED
:10023000045BFAD8221F22F003020432134404F0B4
:1002400003042CB1C9B21C4403F8011BA342FBD127
:1002500070BC704714460346C2E700BFDFF844D0C5
:10026000002103E0104B5B58435004310F48104B02
:1002700042189A42F6D30F4A02E0002342F8043BA8
:100280000D4B9A42F9D30D4A03E05FF0A53342F8D3
:10029000043B044B9A42F8D300F014F815F0D4F95B
:1002A0007047000000000120349E0108000000207B
:1002B000A0090020AC0900203820002000F8002010
:1002C000FEE7000010B41049104BD1F88820104C04
:1002D00042F47002C1F888201A68002042F001023E
:1002E0001A6098601A6822F0847222F480321A60D0
:1002F0005C601A684FF0006422F480221A60D860B3
:100300008C605DF8044B704700ED00E0003802405F
:100310001030002430B4184BDB68C3F30223C3F160
:100320000705042D03F1040428BF0425062C17D962
:10033000033B01249C40013C22400124AC40013C91
:1003400021409940002842EA01020CDB00F16040A4
:1003500000F561401201D2B280F8002330BC704732
:1003600000221346E9E7054B00F00F001201034499
:10037000D2B21A7630BC704700ED00E0FCEC00E031
:1003800000F01F0101234009024A8B4042F820304F
:10039000704700BF00E100E02DE9F04F002283B07C
:1003A000DFF8A0E1DFF8A0A1614E01274FF0030CB8
:1003B000814603E00132102A00F0AC800B6807FA96
:1003C00002F003408342F5D14C6824F0100002286B
:1003D00012D1D50809EB850502F007002C6A8000D0
:1003E0004FF00F0808FA00F824EA08080C69844066
:1003F00048EA04042C624C68D9F800004FEA42082D
:100400000CFA08F504F00304ED4304FA08F428405C
:100410000443C9F800404C6824F01004013C012C4E
:1004200013D8D9F80840C8682C4000FA08F02043D7
:10043000C9F808004868D9F80440C0F3001090409B
:1004400024EA03042043C9F80400D9F80C40886862
:10045000254000FA08F02843C9F80C004868C50098
:10046000A8D54FF00008CDF80480DEF8440040F431
:100470008040CEF84400DEF8444022F0030000F152
:10048000804004F4804400F59C30019402F00304A1
:10049000019DD0F808B0A4000F25A540D1452BEA56
:1004A000050B11D0234DA94537D0234DA94537D091
:1004B000224DA94539D0224DA9450CBF4FF0040863
:1004C0004FF0070808FA04F848EA0B0585604C6805
:1004D0003068DD43E4034CBF1843284030604C686B
:1004E0007068A4034CBF1843284070604C68B06823
:1004F000E4024CBF18432840B0604C68F068A40286
:1005000002F1010254BF05EA00030343102AF3601D
:100510007FF454AF03B0BDE8F08F07FA04F8D3E7D7
:100520004FF0020808FA04F8CEE70CFA04F8CBE71B
:10053000003C01400004024000080240000C024060
:1005400000100240003802400000024002B90904D5
:1005500081617047002800F012822DE9F04F0446B7
:100560004FF003088DB0074680F8B98303F0C4FB51
:10057000206801F003FB57F8106B0FCF6D460FC5D5
:100580000FCF0FC597E8030085E80300231D0B93E9
:1005900030460ECB01F08EFA2068002101F0F6FA09
:1005A000002501264FF002094FF0040E4FF0050C14
:1005B0004FF0080184F88C8084F8A8E084F8C4C067
:1005C00084F8396084F8556084F8546084F8716068
:1005D00084F88D6084F8A96084F8C56084F8385088
:1005E00084F83B5025646564E56484F85750E565FC
:1005F0002566A56684F87350A567E567C4F884503E
:1006000084F88F50C4F89450C4F89850C4F8A0509F
:1006100084F8AB50C4F8B050C4F8B450C4F8BC501F
:1006200084F8C75084F87090C4F8CC5084F818113E
:100630004FF0090184F834114FF00A014FF0060A17
:100640004FF0070B0B2084F850114FF00C01C4F849
:10065000D050C4F8D85084F8E16084F8E350C4F86E
:10066000E850C4F8EC50C4F8F45084F8FD6084F805
:10067000FF50C4F80451C4F80851C4F8105184F86C
:10068000196184F81B51C4F82051C4F82451C4F8EE
:100690002C5184F8356184F83751C4F83C51C4F8C2
:1006A0004051C4F8485184F8516184F85351C4F85A
:1006B0005851C4F85C51C4F8645184F86D6184F8F1
:1006C000E0A084F8FCB084F86C0184F888112168FB
:1006D00084F86F510D220E2384F8A42184F8C031D0
:1006E000C4F87451C4F87851C4F8805184F8896111
:1006F00084F88B51C4F89051C4F89451C4F89C51BB
:1007000084F8A56184F8A751C4F8AC51C4F8B0517D
:10071000C4F8B85184F8C16184F8C351C4F8C85111
:10072000C4F8CC51C4F8D45184F8F95184F8F85184
:10073000E58784F8FB51C4F80052C4F80452C4F8A9
:100740000C52C1F8045184F8155284F81462A4F8CC
:100750005A60216884F81752C4F81C52C4F8205219
:10076000C4F82852C1F80851216884F8315284F83D
:100770003092A4F8769084F83352C4F83852C4F812
:100780003C52C4F84452C1F80C51216884F84C82A0
:10079000A4F8928084F84D5284F84F52C4F8545211
:1007A000C4F85852C4F86052C1F81051216884F856
:1007B00068E2A4F8AEE084F8695284F86B52C4F899
:1007C0007052C4F87452C4F87C52C1F8145184F8C1
:1007D0008552216884F884C2A4F8CAC084F887527C
:1007E000C4F88C52C4F89052C4F89852C1F8185109
:1007F000216884F8A15284F8A0A2A4F8E6A084F8A5
:10080000A352C4F8A852C4F8AC52C4F8B452C1F808
:100810001C51216884F8BD5284F8BCB2A4F802B11E
:1008200084F8BF52C4F8C452C4F8C852C4F8D052B5
:10083000C1F820514FF0080184F8D8124FF0080198
:1008400084F8D952A4F81E1184F8DB52C4F8E0529F
:10085000C4F8E452C4F8EC522168C1F824514FF0B6
:10086000090184F8F4124FF00901A4F83A11216843
:1008700084F8F55284F8F752C4F8FC52C4F80053D7
:10088000C4F80853C1F828514FF00A0184F8101336
:100890004FF00A01A4F85611216884F8115384F826
:1008A0001353C4F81853C4F81C53C4F82453C1F8A4
:1008B0002C51216884F82C03A4F8720184F82D537C
:1008C00084F82F53C4F83453C4F83853C4F8405351
:1008D000C1F830514FF00C0184F848134FF00C016F
:1008E000A4F88E1184F8495384F84B53C4F850533C
:1008F0002168C4F85453C4F85C53C1F834512168DA
:1009000084F86423A4F8AA2184F8655384F8675313
:10091000C4F86C53C4F87053C4F87853C1F8385114
:10092000226884F88033A446A4F8C63184F8815341
:1009300084F88353C4F88853C4F88C53C4F8945390
:10094000C2F83C515CF8108BBCE80F00EE46AEE8F4
:100950000F00BCE80F00AEE80F0097E803008EE838
:1009600003000B9A40460ECA01F02AF984F8B963D5
:10097000206801F03BFD28460DB0BDE8F08F012056
:10098000704700BF90F8B833012B01D102207047A7
:1009900010B50123044680F8B833006801F01AFD51
:1009A000206801F0E3F8002084F8B80310BD00BF10
:1009B0002DE9F04F066887B00446304601F052FD3D
:1009C00010B107B0BDE8F08F206801F01BFD0028D2
:1009D000F7D0206801F016FD810704D5226853691D
:1009E00003F002035361206801F00CFD020300F1E3
:1009F0009C810027206801F005FD400300F1D180B3
:100A0000206801F0FFFC0028C0F2FF81206801F09F
:100A1000F9FC030509D5D6F80838DD0700F1CB81CC
:100A20002268536903F400635361206801F0EAFC13
:100A3000C00475D4206801F0E5FC810450D420681E
:100A400001F0E0FCC20613D52268936923F010037D
:100A50009361356AC5F34343022B05F00F0800F09C
:100A6000B781062B2AD02268936943F01003936163
:100A7000206801F0C7FC030700F14E81206801F0F7
:100A8000C1FCC60200F13E81206801F0BBFC85027A
:100A900000F12E81206801F0B5FC400000F11F81BB
:100AA000206801F0AFFC41078BD523685D686A07B9
:100AB00000F17C815A6815435D6082E70822304668
:100AC00004F56F71C8EBC80801F024FC04EB88033F
:100AD000C5F30A15D3F810221544C3F81052C2E723
:100AE000206801F0C3FC2268D36823F47053D360FC
:100AF000206801F033F9002840F0C3814FF40073FF
:100B00002268E0606361D36843F41053D3602046E9
:100B100003F050F92268536903F4005353618EE7E0
:100B200006F500656B6823F001036B6010212068F7
:100B300001F002F963686BB106F530630022FF2112
:100B4000A3F500700132816099606068904203F102
:100B50002003F5D84FF0FF33AB61EB6943F001138D
:100B6000EB61236B002B00F02A81D5F8843043F031
:100B70000B03C5F884306B6C43F00B036B64D6F841
:100B8000003823F4FE63C6F8003804F56F7220685D
:100B9000217C01F087FC2268536903F48053536180
:100BA00048E7206801F03AFC8246002800F0858181
:100BB000254606F510680027039609E05FEA5A0A01
:100BC00007F1010705F11C0508F1200800F0E58098
:100BD0001AF0010FF2D05FFA87F94946206801F058
:100BE0002FFCC107064617D5039B0122D3F8341802
:100BF000BA4021EA0202C3F834280123C8F80830B9
:100C00002369012B00F01D814946204603F0C4F8FA
:100C10002169012900F00881320744BF0823C8F880
:100C20000830F30644BF1023C8F80830700644BFEC
:100C30004023C8F80830B10744BF0223C8F8083081
:100C40003206BBD5D4F800B0E86CD5F850C02A6C99
:100C50000BF5106303EB47131946CCEB00039342EB
:100C6000049189691E4628BF164689B206F1030E13
:100C7000B1EB9E0F27D9604525D920B3696C059744
:100C80001E462F462546049C04E0FA6C9A4217D96A
:100C9000D61A3A6C2B7C0093964228BF1646B3B204
:100CA0004A46584601F020FB796C3B6D3144334491
:100CB00079643B65A269F01C92B2B2EB900FE4D864
:100CC0002C463D46059F002E7FF478AFDBF8342894
:100CD0000123BB4022EA0303CBF834386EE72046F9
:100CE00003F09CF82268536903F080435361D7E610
:100CF000F9B2204603F08AF82268536903F400131E
:100D00005361C7E62046F9B203F084F822685369BC
:100D100003F480135361B7E6204603F047F82268D6
:100D2000536903F008035361A8E6206801F06EFBE5
:100D3000054600283FF45DAE06F53068A34600275F
:100D400008E06D0807F1010708F120080BF11C0B02
:100D50003FF450AEEB07F4D55FFA87FA51462068AE
:100D600001F064FB10F0010F81460CD00123C8F89C
:100D700008302369012B75D05146204603F002F854
:100D80002169012962D019F0080F08D119F0100F5C
:100D90001CBF1023C8F80830D3E7039E30E6204676
:100DA00002F0EAFF0823C8F80830EFE7204603F016
:100DB00039F823687EE6204603F00CF830E66B69CC
:100DC00043F00B036B612B6943F00B032B61D6E6F9
:100DD00047F6F0732B40002B3FF445AEC8EBC80834
:100DE00004EB88054FEA13183046D5F80412424642
:100DF00001F090FAD5F804324344C5F80432D5F82E
:100E000010324344C5F810322DE6D6F8042822F0FB
:100E10000102C6F80428204602F0F4FF2268536954
:100E200003F000435361F1E5002F7FF4F5AEE36C6E
:100E3000002B7FF4F1AE206804F56F7201F032FBF5
:100E4000EAE66A6C2B6C13446B64DDE6002F9AD1E2
:100E5000D4F80C32002B96D1206804F56F7201F0A3
:100E600021FB90E7D8F81030DBF80012DBF8042201
:100E7000C3F31203CB1A0A44CBF81032CBF8042286
:100E80007AE703224023E260636100F0D9F9364B30
:100E9000364A0344934205D82268D36843F470531A
:100EA000D36034E6324B334A0344934207D8226876
:100EB000D36843F46053D36029E60746A0E5A0F564
:100EC00074032D4AA3F51053934205D82268D368C2
:100ED00043F45053D3601AE6A0F18373274AA3F575
:100EE000E743934205D82268D36843F44053D36064
:100EF0000DE6234B234A0344934205D82268D36866
:100F000043F43053D36002E61F4B204A034493421C
:100F100005D82268D36843F42053D360F7E51C4B0F
:100F20001C4A0344934205D82268D36843F4105303
:100F3000D360ECE5A0F1B773174AA3F55853934279
:100F400005D82268D36843F40053D360DFE5134B20
:100F5000134A034493422268D36894BF43F4E05396
:100F600043F4C053D360D2E5405327FFFF340C0055
:100F7000401E1BFF3F420F007F4F12001FD6130081
:100F800060B6E5FE5FE3160000D3CEFE3F771B00A0
:100F9000C05BB3FEBF9121001F753800E05459FEBD
:100FA000DF9C410090F8B833012B01D1022070473B
:100FB00010B50123044680F8B833006801F0FAF94F
:100FC000002084F8B80310BDF8B50446080623D401
:100FD000C1EBC10080002518002700F5FC7085F8E2
:100FE000F81185F8F9712118C5F8002285F8FB3150
:100FF000022B04BF00230B7194F8B833012B01D1ED
:101000000220F8BD012384F8B833206800F0C2FE46
:10101000002084F8B803F8BD01F07F05C5EBC500DA
:10102000800027184FF0010E383087F8385021180B
:1010300087F839E03A6487F83B30FD87D8E700BF8E
:10104000CAB2130610B5044619D4C1EBC10300EBB4
:10105000830303F5FC73D2095A70197094F8B8230E
:10106000012A01D1022010BD0122194684F8B823BB
:10107000206800F0D7FE002084F8B80310BD01F00E
:101080007F01C1EBC10300EB83033833E3E700BF0B
:10109000F8B501F07F06C6EBC604A40005190021CF
:1010A000C5F80422C5F8101285F8F911C5F80C32FC
:1010B00085F8F8610369012B08BFC5F8082204F51B
:1010C000FC740119DAB200681EB100F021FF0020A3
:1010D000F8BD01F04FF80020F8BD00BF01F00F018E
:1010E000C1EBC10100EB8100B0F81002704700BFF6
:1010F000F8B501F07F06C6EBC604A400051901216E
:1011000000276A6485F83910EB6485F838602F652C
:101110000369012B08BFAA6438340119DAB20068E8
:101120001EB100F0F5FE0020F8BD01F023F800200C
:10113000F8BD00BFCAB238B5130605461CD4C1EBD2
:10114000C10300EB830303F5FC730C46D2090121B4
:101150005A701C70997095F8B8238A4201D1022008
:1011600038BD85F8B8132868194601F0E5F85CB178
:10117000002085F8B80338BD01F07F04C4EBC40338
:1011800000EB83033833E1E72868297C05F56F72AB
:1011900001F088F9ECE700BFCAB238B5130605467E
:1011A0001BD4C1EBC10300EB830303F5FC73D2092D
:1011B00000245A7019709C7095F8B823012A01D147
:1011C000022038BD0122194685F8B823286801F0AD
:1011D000D3F885F8B843204638BD01F07F01C1EB54
:1011E000C10300EB83033833E1E700BF70B4066846
:1011F000736AD1B1B46A013903EB14440CD00023F3
:101200001846403306EB830301305D68C0B2884264
:1012100004EB15440346F4DB403106EB810144EA5C
:1012200002444C60002070BC704743EA0244B46240
:10123000002070BC704700BF0368002059627047EF
:10124000014B1868704700BF2C040020054B5A6AF8
:1012500042F480725A625A6A22F480725A62012001
:10126000704700BF00380240064B9B68DB0707D47D
:1012700043680A6823F440331343436001207047F6
:1012800000207047002001408368DA070BD583688F
:1012900023F070638360836823F470238360836822
:1012A00023F0010383608368DB074DD410B4046826
:1012B0002649274B274A24F03F0404604468214014
:1012C000416081680B408360C36803F07843C3606A
:1012D000036903F040430361436923F47F6323F010
:1012E0000F034361836923F47F6323F00F0383615A
:1012F000C36923F47F6323F00F03C361036A23F4FC
:101300007F6323F00F030362436A6FEA13336FEACC
:1013100003334362836A23F47F6323F00F03836202
:10132000C36A03F07F43C362036B03F0404303636C
:10133000836B9B0D9B058363536823F40303536006
:1013400001205DF8044B70470120704700003FF812
:10135000FCF08080002301408368DB0713D430B4A5
:1013600042688D680C6822F040732C4323F480732C
:101370002343436083684A6823F400631343836014
:1013800030BC012070470020704700BF8368DB0736
:1013900023D44B6870B4C3B9436823F468434360F3
:1013A00086680D69CC680E4A0B6832402C43224394
:1013B00003F0706313438360C36A4A6823F47003C5
:1013C0001343C36270BC0120704742688C6822F4EA
:1013D0006842234313434360E2E70020704700BFA5
:1013E000FDFCFFC011F5803F21D030B4644B654C4B
:1013F0005B5C1A58A04222F001021A5021D0624AC6
:1014000090424DD0614A00242125146054609460BC
:10141000D460146155611A5822F060621A50002994
:101420002ED13F2383600121084630BC7047554BC5
:10143000984200F08E80544B98426FD000210846AD
:10144000704700293BD0012964D0022976D00329B6
:1014500078D0042900F08B80052900F08C800629C3
:101460004BD007294BD0494A0024212514605460F1
:101470009460D460146155611A5822F060621A5069
:1014800001292CD002292ED0032931D0042938D0AB
:1014900005294ED0062957D0072936D00021C3E7A9
:1014A00079B9103200212124116051609160D1601E
:1014B000116154611A5822F060621A50B1E7344A3F
:1014C000F0E7012928D002293AD003294DD0042978
:1014D0004FD0052951D00629C5D12E4AC4E74FF473
:1014E00074638360A0E74FF47C13836001219BE762
:1014F0004FF074638360012196E7274AB4E7274AD7
:10150000B2E73F23C36001218EE74FF07463C360ED
:10151000012189E7224AA7E7224AA5E7224B1A6957
:1015200042F480021A611A6922F480021A610121D0
:1015300085E74FF47463C360012175E71B4A93E7A5
:101540001B4A91E71B4A8FE74FF47C13C3600121CC
:101550006AE7A3F5205301211A6942F400121A61C7
:101560001A6922F400121A6169E7134A7CE7134AE8
:101570007AE7134A78E7134A76E7134A74E700BF1D
:10158000987F01080060024000640240B864024095
:1015900010600240A0640240A0600240B8600240B7
:1015A0002860024028640240003802404060024047
:1015B000406402405860024058640240706002403B
:1015C000706402408860024088640240F0B5D768C9
:1015D0009668234B1569546913F801E0D169936A41
:1015E0003E4335432C43956950F80E602C4321430C
:1015F00026F45F360B4326F478761E4340F80E60DF
:10160000D16A00EB0E03B1B15C69156B24F00704DD
:1016100029432143596150F80E40516B24F0C074A6
:10162000214340F80E1050F80E40916B24F4C00492
:10163000214340F80E105168D960116899605968CB
:10164000146A090C09042143596050F80E30526A9B
:1016500023F06063134340F80E300120F0BD00BF5B
:10166000987F01082DE9F0410D6895FAA5F3B3FACA
:1016700083F335FA03F400F0A0801A464C68012782
:1016800003264FF00F0E05E00D68013235FA02FC1B
:10169000134657D007FA03F32B40F6D0D0F800805A
:1016A00093FAA3FCBCFA8CFC93FAA3F54FEA4C0C1A
:1016B00006FA0CFCB5FA85F56D0028EA0C08AC407A
:1016C00048EA040404604C68013C012C48D9C56810
:1016D00093FAA3FCBCFA8CFC93FAA3F44FEA4C0CEB
:1016E00006FA0CFC25EA0C080D69B4FA84F46400CF
:1016F000A54048EA0505C5604C68022CC4D193FAA0
:10170000A3F4B4FA84F4072C4FEA13253EDC046AF0
:1017100093FAA3F5B5FA85F593FAA3F3AD000EFAA3
:1017200005F524EA050C4C69B3FA83F39B009C4051
:101730004CEA040404620D684C68013235FA02FC7C
:101740001346A7D1013C012C07D8CB68426803FBA4
:1017500005F322EA05051D4345600120BDE8F0813F
:10176000846893FAA3FCBCFA8CFC93FAA3F54FEAC5
:101770004C0C06FA0CFC24EA0C088C68B5FA85F5CA
:101780006D00AC4048EA04048460A0E7446A95FA1E
:10179000A5FCBCFA8CFC95FAA5F34FEA8C050EFA71
:1017A00005F524EA05084C69B3FA83F39B009C40D5
:1017B00048EA040444624C6866E74C68C2E700BF2C
:1017C000F0B503685B0683B0864635D401F114009A
:1017D0000DC80F6801934B688E68CD680C69DEF800
:1017E00000C01F433E4335432C432043019B02432B
:1017F00013430A6A2CF47F45134325F0BF051D43AC
:10180000CEF80050DEF80430CA8A23F004031343F4
:10181000CEF804300B6AB3F5005F08D00120DEF883
:101820001C3023F40063CEF81C3003B0F0BD8B8C69
:10183000CEF810300120F2E70020F0E7274A0368D5
:10184000904233D0B0F1804F22D0A2F57C4290423A
:101850001ED002F5806290421AD002F5806290425A
:1018600016D002F59A32904216D002F5806290426C
:1018700012D002F5806290420ED003608B68C36282
:101880000B888362436943F0010343610120704781
:101890004A6823F070031343CA6823F440731A4361
:1018A00002608B68C3620B888362EBE74A6823F0AF
:1018B000700310B41A43CC6822F4407222430260D1
:1018C0008B68C3620B8883620B7C0363436943F0BC
:1018D000010343615DF8044B0120704700000140A3
:1018E0000023036043608360C360036143618361DD
:1018F000C3617047F0B5102983B003466DD048D955
:10190000B1F5807F24D0B1F5805F63D1016A684F63
:1019100021F480510162006A11695E68DC695568D2
:1019200020F4005040EA013124F4E640146821F428
:101930008051BB4241EA053140EA042000F0858035
:101940005E60D861D2681A640120196203B0F0BDEC
:10195000016A574F21F480710162006A11695E6863
:10196000DC69556820F4007040EA012124F073001E
:10197000146821F48071BB4241EA052140EA040465
:1019800069D05E60DC61D268DA630120196203B05D
:10199000F0BD01291ED1016A454F21F0010101620C
:1019A000016A106955685C689E6921F00201014373
:1019B00021F001012943156826F07300BB4240EA7B
:1019C00005005FD05C609861D2685A63012019629B
:1019D00003B0F0BD002003B0F0BD016A344F21F028
:1019E00010010162006A11695E689C69556820F007
:1019F000200040EA011124F4E640146821F01001AF
:101A0000BB4241EA051140EA042407D05E609C61B4
:101A1000D2689A630120196203B0F0BDD0690190C9
:101A200097695069956821F0800126F4806641EA43
:101A3000801146EA8706019821F0400126F40066ED
:101A400041EA851146EAC006E0E7946926F480463B
:101A500046EA841674E7D0690190976950699568E1
:101A600021F4006126F4805641EA802146EA0716F7
:101A7000019821F4806126F4005641EA852146EA66
:101A800040167EE724F4807E576994699668D5698C
:101A900021F008014EEA040E41EA870121F0040119
:101AA0002EF4007E41EA86014EEA45048AE700BF33
:101AB0000000014084B030B4089D03AC012D84E8DF
:101AC0000E0027D0C268284B42F04002C26001E0FD
:101AD000013B0DD00269002AFADA0269224B42F07A
:101AE0000102026101E0013B02D00269D207FAD48F
:101AF0004FF480338363069B012B07D1836843F047
:101B000006038360836843F02003836030BC0020B9
:101B100004B07047836B0F9A23F480338363C368E8
:101B200023F4840323F04003C360C368012A23F431
:101B30004013C36012D00C4B01E0013BDBD00269C3
:101B4000002AFADA0269084B42F00102026101E060
:101B5000013BD0D00269D107FAD4CCE7C36843F483
:101B60008013C360E7E700BF400D0300024600207A
:101B7000936843F001039360704700BF0246002062
:101B8000936823F001039360704700BF08B5C368F2
:101B9000012923F0C043C36009D019B9C36843F0D9
:101BA0008043C360322001F06BFC002008BDC36895
:101BB00043F00053C360322001F062FC002008BDF6
:101BC00084B02DE9F04308AC84E80E00DDF84890BD
:101BD000DDF82CE0836BB9F1000F40F0858043F411
:101BE000001383630023C0F8003E0D9BD0F800284B
:101BF000C0F80028012B00F5006600F08880D0F8BE
:101C0000003843F00303C0F800384FF484630361E5
:101C1000464B01E0013B02D002699406FAD410233E
:101C20000361424B01E0013B02D00269D206FAD4C3
:101C300000224FF0FF3332617261B361F26141B350
:101C4000144600F510634FF09048FF251F680132DD
:101C5000002FB4BFC3F800801C608A421C619D60E5
:101C600003F12003F2D10022154600F530634FF056
:101C700090484FF0FF0C1F680132002FB4BFC3F82B
:101C800000801D608A421D61C3F808C003F1200373
:101C9000F1D13369BEF1010F23F48073336127D092
:101CA00000226FF0804382614361BEF1000F03D1D7
:101CB000836943F01003836181691D4B0E9A0B43C6
:101CC00083611AB1836943F008038361B9F1010F9D
:101CD00005D1836943F0804343F004038361BDE889
:101CE000F043002004B0704743F40023836379E796
:101CF000104B3363336B43F4803343F0030333639C
:101D000000226FF08043316B82614361D4E70A9B0C
:101D100023B9D0F80038C0F8003876E7D0F800389A
:101D200043F00103C0F800386FE700BF400D030027
:101D300000383C8000018000890141F020010161F0
:101D4000054A01E0013A05D0036913F02003F9D1F7
:101D50001846704703207047400D0300D0F808383C
:101D600000F5006213F0060012D0936803F006033A
:101D7000022B0CD0936803F00603062B07D0936860
:101D800003F00603042B14BF002002207047032039
:101D9000704700BF70B44B78012B20D00D78D0F87D
:101DA0001C484FF48032AA402243C0F81C280A780D
:101DB0004FF4306303EB42131A5812040CD41A5830
:101DC0008C68CD7842F0805242F40042C4F30A019C
:101DD0000A4342EA85421A50002070BC70470C78D2
:101DE000A340D0F81C489BB22343C0F81C380E789F
:101DF0004FF4106303EB46131A581404ECD41D5827
:101E00008C68CA7845F0805545F40045C4F30A0152
:101E1000294341EA824242EA86521A50002070BCAD
:101E2000704700BFF0B44B780D78012B33D02023DE
:101E30004FF4306413FB05454FF000674659334AB1
:101E400026F4004646510D7813FB05454FF08046B9
:101E500047510D7813FB054546510D7813FB05449A
:101E6000044401E0013A4DD0A36813F01003F9D106
:101E700000F50062D0F8040840F4806050600978F2
:101E8000D0694FF4803404FA01F120EA0101D161F4
:101E90001846F0BC704720224FF4106412FB054531
:101EA0004FF000672E58194B26F400462E500D783F
:101EB00012FB05454FF080462F500D7812FB05456B
:101EC0002E500D7812FB0544044401E0013B19D06B
:101ED000A2685500FAD44FF4846303610B4B01E010
:101EE000013B02D002699206FAD40A78012393409A
:101EF000D0F81C289BB222EA0303C0F81C38F0BCBF
:101F0000002070470320F0BC704700BF400D030065
:101F1000F0B54B78012B74D00C7820234FF4306649
:101F200013FB046404442569ED0CED0425610C7871
:101F300013FB04640444256925F0FF5525F4C015FE
:101F400025614C697CB30F788D68DFF824E213FBC0
:101F5000076707442C44013CB4FBF5F4A4B23D6987
:101F60004FEAC44C0CEA0E0E4EEA05053D610F78AF
:101F70008D6813FB0763034405FB04F51C69C5F377
:101F800012052543012A1D6121D0CB78012B27D0D2
:101F90000A784FF4306303EB4213C25842F0044214
:101FA000C2500020F0BD0C788D6813FB046404441B
:101FB000C5F3120527693D4325610C7813FB0463C3
:101FC0000344012A1C6944F400241C61DDD10B7810
:101FD000CA6800EB4313C3F8142BCB78012BD7D17D
:101FE000D0F808380A7813F4807F4FF4306303EB9D
:101FF0004213C2580CBF42F0005242F08052C2500D
:10200000C6E74B69002B67D00B78594F20244FF45B
:10201000106614FB036303441D69ED0CED041D61A0
:102020000B7814FB036303441D6925F0FF5525F469
:10203000C0151D610D78D1F808C04B6914FB05650A
:1020400005446344D5F810E0013BB3FBFCF3DB042B
:102050001F4047EA0E072F610B784D6914FB03639D
:102060000344C5F312051F693D431D61CB78012B65
:102070006CD0012A63D04B6953B10E78D0F8345834
:102080000124B4402C43C0F83448CB78012B45D010
:102090000C784FF4106303EB4413C45844F0044429
:1020A000C450CB78012B7FF47CAFCB680C784969A6
:1020B000002A7FF476AF8AB2033292083FF471AF00
:1020C00000EB043000F5805003EB820253F8041B50
:1020D00001609342FAD164E70C7820234FF4106634
:1020E00013FB04640444256925F0FF5525F4C0154D
:1020F00025610C7813FB04640444256945F400252C
:1021000025610C7813FB046303441C69E40CE404AC
:102110001C61012A13D0CB78012BACD1D0F8083840
:102120000C7813F4807F4FF4106303EB4413C4580E
:102130000CBF44F0005444F08054C450A8E70B781E
:102140000C6900EB4313C3F814499EE70B7814FBAA
:10215000036303441D6925F0C0451D610B7814FB22
:1021600003640444236943F000532361D1E700BFB3
:102170000000F81FF0B44B78012B3DD00D782024DF
:102180004FF4306314FB053505442E69F60CF60454
:102190002E610D7814FB053303441C6924F0FF54B1
:1021A00024F4C0141C614B691BBB0B7820244FF432
:1021B000306614FB03630344012A1D6945F40025BE
:1021C0001D610B788D6814FB03630344C5F312078C
:1021D0001D6945EA07051D615AD00A784FF430633E
:1021E00003EB4213C25842F00442C2500020F0BC3C
:1021F00070478B684B61D8E74B69002B4FD00D7847
:1022000020244FF4106314FB053505442E69F60CA9
:10221000F6042E610D7814FB053303441C6924F089
:10222000FF5424F4C0141C618B684C690D789C42E7
:1022300088BF4B6120244FF4106314FB053505441F
:102240002E6946F400262E610E784D6914FB063384
:102250000344C5F312051C692C431C610B7820252F
:102260004FF4106615FB0363012AC45844F004447C
:10227000C45032D04B69002BB8D00978D0F834283C
:1022800001238B401343C0F83438F0BC0020704762
:102290000A78CB6814FB0264044463619DE70C7800
:1022A00020234FF4106613FB04640444256925F0D1
:1022B000FF5525F4C01525610C7813FB0464044414
:1022C000256945F4002525610C7813FB046303445C
:1022D0001C69E40CE4041C61C0E70A780B6915FB77
:1022E00002652844436181E710B49DF804406CB94D
:1022F00003339B080AD000F5805000EB023201EB5B
:10230000830451F8043B1360A142FAD100205DF828
:10231000044B7047033292080CD010B400F580547F
:1023200001EB8200236841F8043B8142FAD15DF859
:10233000044B7047084670474B7870B4012B0B78FC
:102340000CBF4FF410654FF43065202212FB03538D
:102350001C181E58002E07DB1C5824F080441C500B
:102360000B7812FB03521418236843F40013236004
:10237000002070BC704700BF4B7830B4012B0B7845
:102380000CBF4FF410654FF43065202414FB035349
:102390001A5822F400121A50CB78023B012B06D8AF
:1023A0000B7814FB0354235843F080532350002030
:1023B00030BC7047D0F8003823F4FE63C0F8003812
:1023C000D0F80038090101F4FE611943C0F8001883
:1023D0000020704708B500F50062536823F002033F
:1023E0000320536001F04CF8002008BD08B500F54B
:1023F0000062536843F002030320536001F040F889
:10240000002008BD4369806918407047D0F818382B
:1024100000F50060C0691840000C704700F50063CB
:10242000D0F81808DB69184080B2704700F53063B7
:1024300003EB411100F500608B684069184070475C
:1024400010B4D0F81048D0F8343800EB4110CB402D
:10245000DB01DBB2D0F80809234318405DF8044BD8
:10246000704700BF406900F001007047D0F80039A4
:1024700023F4FF6323F0070300F50062C0F800397E
:10248000936803F00603042B05D1D0F8003943F01C
:102490000303C0F80039536843F48073536000208D
:1024A000704700BF10B40024C0F8104BD0F8104B98
:1024B00044F40024C0F8104BD0F8104B44F018043A
:1024C000C0F8104BD0F8104B012944F0C044C0F8BC
:1024D000104B05D14FF08021C0F8142BC0F8001B21
:1024E00000205DF8044B7047054A064BA2FB002014
:1024F0008009013800210522586099601A607047F0
:10250000D34D621010E000E0014B1860704700BF2F
:102510002C04002010B5D0F81C32D0F818425BB162
:1025200094F80002FF2807D09B6894F80122214606
:102530009847FF2384F80032002010BD4323038016
:102540000048704730040020432303800048704750
:10255000FC0400204323038000487047B804002097
:102560000A23038000487047AC04002038B50446B5
:10257000D0F8185201F012FDC5F80C02D4F8183248
:102580004BB1D4F81C32D5F80402DB6805F50371B1
:102590009847002038BD022038BD00BFD0F818325F
:1025A0003BB110B50024C3F8144201F049FA2046AB
:1025B00010BD0220704700BF70B50B78D0F81862CC
:1025C00013F060020C46054611D0202A0DD1CA88AE
:1025D00012B31B0614D44B7886F80032CB8886F8E9
:1025E0000132CA88314600F039FC002070BD4B78BA
:1025F0000A2BFAD10B49012200F01AFC002070BD11
:10260000D0F81C3248789B683146984728463146B6
:10261000E28800F00DFCE8E7D0F81C3248789B68AF
:102620009847E2E7AC09002010B58121044601F08B
:102630004DFC0121204601F049FC2046822101F099
:1026400045FCD4F8183253B1D4F81C325B68984773
:10265000D4F8180214F0B2F80023C4F8183200209D
:1026600010BD00BFF8B5037C04468121022263BB84
:102670004FF4007301F01AFC2046012102224FF4AE
:10268000007301F013FC822103220823204601F08D
:102690000DFC4FF4077014F089F80546C4F81802D1
:1026A00018B3D4F81C321B689847277CD5F804224D
:1026B0000026C5F814622046C5F81862012177B1DA
:1026C000402301F05DFC3046F8BD402301F0EEFBF5
:1026D000204601210222402301F0E8FBD3E74FF41A
:1026E000007301F04DFC3846F8BD0120F8BD00BF75
:1026F00019B1C0F81C12002070470220704700BFBB
:10270000D0F818320020C3F80812C3F8102270471E
:10271000D0F818320020C3F804127047D0F81832ED
:1027200073B1D3F814220AB1012070470122C3F813
:1027300014228121D3F80822B3F8103201F012BC20
:1027400002207047D0F8182282B110B5047CD2F86C
:102750000422012124B1402301F012FC002010BD0D
:102760004FF4007301F00CFC204610BD02207047AE
:1027700088B108B5D0F8143213B10023C0F8143270
:1027800009B1C0F810120123027080F8FC3101F089
:102790004DFB002008BD0220704700BF19B1C0F8F2
:1027A0001412002070470220704700BF08B501F0E6
:1027B0006FFB002008BD00BF08B5D0F8143213B17C
:1027C0001B68984708B1022008BD08BD08B5D0F8BD
:1027D00014325B689847002008BD00BF38B5044636
:1027E00000F50275284600F0E9FA94F80812B4F8EA
:1027F0000E32C4F8F831012201F01F039342C4F8ED
:10280000F42115D00ED3022B06D0204601F0800112
:1028100001F06AFB002038BD2046294600F066FA28
:10282000002038BD2046294600F0E8F8002038BDD9
:102830002046294600F03CFA002038BD10B5044679
:1028400031B91346D0F8F421032A0CD0002010BD72
:10285000D0F814329B69002BF8D090F8FC21032AA1
:10286000F4D19847F2E7D0F80C11D0F8102191423A
:102870000CD8D0F814321B691BB190F8FC21032A44
:102880000FD0204600F002FB002010BD891A8A42BA
:1028900028BF0A4692B2C0F80C11194600F0EEFAB1
:1028A000D4E79847EDE700BF70B5044651B9134629
:1028B000D0F8F421022A15D094F80032012B0CD064
:1028C000002070BDD0F814325B69002BF8D090F86E
:1028D000FC21032AF4D19847F2E7002384F8003260
:1028E000002070BDC669026A964223D88369B3FB93
:1028F000F2F502FB15358DB99A420FD8D0F8F821C0
:1029000093420BD22A4600F0A1FAC4F8F8512046AF
:1029100029462A462B4601F033FBCDE7D4F8143282
:10292000DB681BB194F8FC21032A0BD0204600F091
:10293000B9FAC1E7B21A0D46C261194692B200F067
:1029400085FAE4E720469847F0E700BF38B5002154
:10295000044640231D460A4601F0A8FA2B460022F1
:10296000C4F810512046802101F0A0FAD4F81832A2
:102970002562012284F8FC212BB1D4F8143221798C
:102980005B6820469847002038BD00BF01740020D6
:10299000704700BF90F8FC2180F8FD21042380F8E7
:1029A000FC310020704700BF0346002093F8FD2152
:1029B00083F8FC21704700BF08B590F8FC21032A7A
:1029C00001D0002008BDD0F81432DB69002BF8D00C
:1029D0009847002008BD00BF0020704700207047C6
:1029E0000020704708B50121D0F8142280F8FC11AE
:1029F000526801799047002008BD00BF30B54B7880
:102A000083B00D460446092B0BD8DFE803F03549A7
:102A10000A590A05660A7D158B8813B9CB88002BE5
:102A20007FD08021204601F05FFA2046002101F08E
:102A30005BFA002003B030BD89789C4D01292970D4
:102A4000EFD890F8FC31022B00F08980032BE8D1FD
:102A5000002900F020814168012909D0C9B2FFF79F
:102A6000B5FE297861602046FFF7A6FE0228D8D07F
:102A7000204600F00BFADCE790F8FC310122023B23
:102A800093424FF00301CCD8D0F80432C26003B1B6
:102A9000C160204604F10C01022200F0C9F9C8E728
:102AA00090F8FC31023B012BBBD84B88012BC0D1E5
:102AB0000022D0F81432C0F804229B689847D7E768
:102AC0004B88012BB5D1D0F81422C0F8043293689A
:102AD0009847204600F0DAF9ABE74A88130A013B31
:102AE000062B9ED801A151F823F000BFD12B00087E
:102AF000F52B0008E32B0008232A0008232A0008EE
:102B0000B92B0008792B0008CA88012A89D190F8CE
:102B1000FC31022B1CD0032B83D1011D00F088F95E
:102B200087E790F8FC318D78032B05F07F053FF4A3
:102B300078AF80F8FE51294601F006FA204600F0F1
:102B4000A5F9002D00F09980022384F8FC3170E78C
:102B50000146002341F8083F00F06AF969E70029BF
:102B600086D001210323416080F8FC31FFF724FE69
:102B700002287FF47DAF54E7037C002B7FF451AF34
:102B8000D0F814320DF106001B6B9847072301465D
:102B90004370BDF80630002B3FF44BAFEA88002AA3
:102BA0003FF447AF934228BF13461A462046ADF87C
:102BB000063000F03DF93CE7037C002B7FF431AF99
:102BC000D0F814320DF106005B6B98470146E0E740
:102BD000D0F81032007C1B680DF1060198470146C1
:102BE000D7E7D2B2052A3FF61CAFDFE802F02B226E
:102BF00019103D34037C002B43D1D0F814320DF171
:102C000006009B6A9847022301464370C1E7D0F84B
:102C10001032007C1B690DF1060198470146B8E7A8
:102C2000D0F81032007CDB680DF1060198470146B0
:102C3000AFE7D0F81032007C9B680DF10601984791
:102C40000146A6E7D0F81032007C5B680DF1060162
:102C5000984701469DE7D0F81032007C9B690DF142
:102C600006019847014694E7D0F81032007C5B6972
:102C70000DF10601984701468BE7012384F8FC31EA
:102C8000D7E6D0F814320DF10600DB6A984702232C
:102C9000014643707DE70223416080F8FC31FFF775
:102CA00095FD204600F0F2F8C3E600BFAD09002014
:102CB00038B590F8FC31032B044603D10B79012B76
:102CC0000D4608D9802101F00FF92046002101F0BE
:102CD0000BF9002038BDD0F814329B689847EB8878
:102CE000002BF6D1204600F0D1F8F2E770B50B7852
:102CF0008A8803F06003202B0C460546D6B257D0D5
:102D00004B78012B36D019D3032B15D190F8FC3119
:102D1000022B33D0032B42D14B8823B9730602D048
:102D2000314601F0E1F8D5F8143221469B68284677
:102D30009847284600F0AAF8002070BD90F8FC31B2
:102D4000022B1BD0032B2AD106F07F0400EB0414C6
:102D5000130631464CBF143404F5827401F0E0F8D8
:102D6000003018BF0120206021462846022200F0D2
:102D70005FF8E1E790F8FC31022B05D17206DBD059
:102D8000314601F0B1F8D7E7032B08D14B88002B6F
:102D9000D2D17106CDD0314601F0B4F8C3E780211D
:102DA00001F0A2F82846002101F09EF8002070BD35
:102DB000D0F814329B689847BEE700BF0B780370C9
:102DC0004B784370CA788B7803EB022343804A79AF
:102DD0000B7903EB02238380CA798B7903EB0223FF
:102DE000C380704700B3037830B4F3B104460023C6
:102DF00014F8015F0133DBB2002DF9D15B0002331F
:102E0000DCB2032513800C704D7004785CB1022392
:102E100000255A1CD2B2CC548D5410F8014F023305
:102E2000DBB2002CF5D130BC704702242346E8E722
:102E300038B5134602250A468361C361C0F8F451D0
:102E4000002101F08FF8002038BD00BF08B51346FF
:102E50000A46002101F086F8002008BD38B5134667
:102E600003250A46C0F80831C0F80C31C0F8F45107
:102E7000002101F085F8002038BD00BF08B51346D9
:102E80000A46002101F07CF8002008BD08B50021A9
:102E90000423C0F8F4310A460B4601F063F8002021
:102EA00008BD00BF08B500210523C0F8F4310A466B
:102EB0000B4601F065F8002008BD00BF08B500F022
:102EC000D7F9BDE8084000F0BBBC00BF704700BFA9
:102ED00008B500F07FFA00F01BFD00F0DFFC00F009
:102EE00003FB00F009F8FFF7F1FF002000F0B0FD50
:102EF000003018BF012008BD08B502204FF4005172
:102F000000F062FB02204FF40051BDE8084000F0E1
:102F10008BBB00BF0120704702204FF4005100F02E
:102F20008BBB00BF02204FF4005100F07DBB00BFFF
:102F300002204FF4005100F087BB00BF08B54FF4EA
:102F40000051022000F08AFBB0FA80F0400908BD71
:102F5000BFF34F8F0549064BCA6802F4E062134382
:102F6000CB60BFF34F8F00BFFDE700BF00ED00E077
:102F70000400FA0508B501460C220123024801F0BD
:102F80005BFF012008BD00BF107AFF1FFEE700BFF6
:102F9000FEE700BFFEE700BFFEE700BFFEE700BFA1
:102FA000FEE700BF2DE9F04FA1B020A9A54FA6482C
:102FB000A64DA74E0F23002441F8543D4FF00208C0
:102FC00003230C93CDF8348010940F94FEF74AFB42
:102FD0007B6C43F480737B647B6C03F4807301939C
:102FE0002846019BFEF732F920A94FF4003341F83F
:102FF000803D2846FEF738F93046FEF745F903A92B
:103000004FF4807330460593049403944FF4407555
:10301000FEF7A2F94FF4E00306A93046CDF824806C
:103020000694089407930A95FEF7B0F98949DFF8EA
:1030300034E24FF0007292FAA2F04FF0F873B0FA57
:1030400080F022FA00FC93FAA3F093FAA3F05EF862
:103050002C0040F007004EF82C0095FAA5F04FF434
:10306000007CB0FA80F02CFA00FC51F82C0020F023
:103070001F0041F82C007848048092FAA2F0B0FAC0
:1030800080F022FA00FA93FAA3F0B0FA80F093FAF3
:10309000A3F94FF4401828FA00FB4FF0070C5EF834
:1030A0002A00B9FA89F90CFA0BFB28FA09F80CFA8C
:1030B00008F820EA0B0040EA08004EF82A0095FACA
:1030C000A5F04FF40078B0FA80F028FA00F851F833
:1030D000280020F4787040F0200041F828005E4875
:1030E000448092FAA2F0B0FA80F022FA00FB93FA40
:1030F000A3F9B9FA89F993FAA3FA4FF4C0085EF874
:103100002B00BAFA8AFA28FA09F90CFA09F928FA0E
:103110000AF820EA09000CFA08F940EA09004EF81A
:103120002B0095FAA5F04FF40078B0FA80F028FA59
:1031300000F851F8280020F4F84040F4006041F80D
:1031400028004548848092FAA2F0B0FA80F0C2408C
:1031500093FAA3F8B8FA88F893FAA3F34FF4100996
:103160005EF82200B3FA83F329FA08F80CFA08F89B
:1031700029FA03F920EA08000CFA09FC40EA0C00DD
:103180004EF8220095FAA5F54FF40073B5FA85F5CF
:1031900023FA05F2314D51F82230DFF8CC80DFF808
:1031A000CC9023F4782343F4C03341F82230B36841
:1031B000294A43F00103D480B3603B6B43F480039E
:1031C0003B633B6B03F480030293029B2B6823F069
:1031D00001032B6021464046FEF704F94FF480734B
:1031E00014931D4B129321464FF4006C4FF4005E74
:1031F00011AA0323404604274FF480684FF4803A15
:103200001D93139415941A941C941E941F94CDF836
:103210004490CDF85880CDF85CC0CDF860E01997A7
:10322000CDF86CA0FEF7D2F92B680D4A43F00103EC
:103230002B60B368012143F08043B360117021B06B
:10324000BDE8F08F0038024000000240002301403A
:10325000002001402C200140382000201064024052
:10326000AE0900200C200140006402404C200140C7
:1032700010B586B006A90F23002441F8183D0E486A
:1032800001940223029305940494FEF7EBF90B4892
:10329000836823F001038360FDF7F6FF084A0948BD
:1032A000136823F0010313602146FEF79BF8064BD9
:1032B0001C7006B010BD00BF00000240002001409D
:1032C0001064024000640240AE09002000000000CB
:1032D00008B50F4B33F8100007EE900AF8EEE77AC6
:1032E00017EE900A12F036FC07A3D3E9002312F080
:1032F00085FC0022074B12F081FC12F039FF00EE32
:10330000100A08BDAFF300806666666666660A400E
:10331000382000200000303F0420704738B5254990
:103320000A68244B9003FBD55D68234C234A24484C
:1033300024492C4022435A605A6822F4403242F415
:1033400080325A605A681040014359601A6842F04E
:1033500080721A601A461168164B8901FBD59A686B
:1033600022F0F0029A609A6822F4E05242F480520D
:103370009A609A6822F460429A609A6822F0030286
:1033800042F002029A601A46936803F00C03082B7D
:10339000FAD10D48FFF7A8F80C4A0B48136843F020
:1033A00004031360FFF7B0F8094B0022D96883F8D3
:1033B000232038BD003802400080BFFF1954400070
:1033C0000080BFF01954400700BD010510E000E087
:1033D00000ED00E030B5254A254B546C25492648C0
:1033E00044F480445464546C83B004F480440194E5
:1033F000019C146C44F080541464146C04F08054E8
:103400000094009CDD684FF6FF042C402143D960F6
:103410000021DC681976DC685976DC689976DC680E
:10342000D977DC6883F82010DC6883F82210DC6828
:1034300083F82310036823F00F0343F002030360B3
:10344000036803F00F03022B00D0FEE70B490B6863
:1034500023F4404343F400430B60136843F4803388
:103460001360FFF75BFF03B030BD00BF00380240C0
:1034700000ED00E00003FA05003C0240007000404F
:1034800000F01AB882B0002210F1FF3012D301927E
:10349000019B032BF8D800BF00BF00BF00BF00BFD7
:1034A00000BF019B01330193019B032BF3D910F162
:1034B000FF30ECD202B0704782B041F62C2210F1FE
:1034C000FF300CD30192019B002BF8D0019B013BF4
:1034D0000193019B002BF9D110F1FF30F2D202B021
:1034E000704700BF062070471C4B1A6B42F0010268
:1034F0001A631A6B86B002F001020092009A1A6BEE
:1035000042F002021A631A6B02F002020192019A5F
:103510001A6B42F004021A631A6B02F00402029260
:10352000029A1A6B42F008021A631A6B02F0080240
:103530000392039A1A6B42F010021A631A6B02F09C
:1035400010020492049A1A6B42F080021A631B6BF9
:1035500003F080030593059B06B0704700380240D6
:1035600000B587B006AB094A43F8181D52F8200091
:1035700019460222002301930393049305930292B8
:10358000FEF770F807B05DF804FB00BFA07F0108EC
:1035900010B5002A86B002D0D4BF0222012206ABA9
:1035A000084C43F8181D049219460222002354F8CF
:1035B00020000193039305930292FEF753F806B09F
:1035C00010BD00BFA07F010810B586B006AB094A48
:1035D00043F8181D52F82000194602220023012446
:1035E00001940393049305930292FEF73BF806B00F
:1035F00010BD00BFA07F010810B586B006AB094A18
:1036000043F8181D52F82000194602220123002415
:1036100001930393049305940292FEF723F806B0F6
:1036200010BD00BFA07F0108024B53F82030996104
:10363000704700BFA07F0108024B53F820300904F7
:1036400099617047A07F0108034B53F8202053690C
:1036500059405161704700BFA07F0108024B53F8E9
:103660002030186908407047A07F01084163704707
:1036700081637047C1637047016470472DE9F04F63
:10368000644C236C95B043F00103236414AB256CA8
:103690000F2443F8484D05F0010504460F460195F7
:1036A00019464FF0010E022300265B48019D059349
:1036B00015460393CDF818E00496FCF76DFE002C38
:1036C00000F0A0806100002FD8BF6427534A544BFC
:1036D000544CDFF86891CCBFB8B238464FF0804BFD
:1036E0001080DBF8000020F00100CBF80000B2F9F8
:1036F00000201B68002D4FF0000A02F1FF32B8BF16
:10370000322601FB07F15846B3FBF1F307A903F199
:10371000FF330992ADF81C30ACBFAEB23546CDF8E0
:1037200020A0CDF828A08DF82CA0FEF787F80CA8D3
:10373000FEF7D6F83C4FCDF83CA060220123CDF82F
:1037400040A00C920D9334F8028B4FF0804041461C
:103750000CAAFEF7CFF8B8F1010F4FD0B8F1040F63
:103760004AD0B8F1100F4BD0B8F1400F4DD0B8F59A
:10377000807F4CD0B8F5806F0CBF052206222B4904
:1037800019F8023011F802C0294903F1804311F8F9
:1037900002E02849885C9A69032101FA0CF122EAC7
:1037A00001029A61DBF8201057F82A30022202FA4F
:1037B0000EF221EA0202CBF82020DBF804104FF4CD
:1037C0008072824021EA02024FF08048CBF8042048
:1037D000404629469847184B23F81A600AF1010A17
:1037E000BAF1040FAFD1D8F8003043F00103C8F8A4
:1037F000003015B0BDE8F08F0122C0E70022BEE71F
:103800000222BCE74FF4FA615DE70322B7E7042226
:10381000B5E700BF0038024000000240400500202C
:103820002C040020C07F0108C87F0108B87F010870
:10383000D87F0108E87F0108B0090020E07F010877
:1038400000B587B006A90F2341F8143D02220023DA
:1038500007480492029305930393FCF79DFD4FF0F4
:103860008042136823F00103136007B05DF804FB86
:103870000000024038B50446054B4FF0804053F835
:1038800024300D469847034B23F8145038BD00BF31
:10389000C87F0108B00900200420704708B50F4A0E
:1038A000136843F4807313600120FFF705FE0C4B8F
:1038B0000C4A1968914207D00A4A1A604FF0FF314A
:1038C000002299605A6008BD99685A68C9438A42C3
:1038D000F2D10132D14399605A6008BD00700040B6
:1038E000A0090020424F4F54044B054A1A600021A2
:1038F0004FF0FF3259609A60704700BFA009002066
:10390000424F4F54014B5868704700BFA009002038
:10391000044B45F2555040F6FF7102221860996041
:103920005A60704700300040024B4AF6AA221A60E3
:10393000704700BF003000402DE9F04FDFF8F8A0DD
:10394000374D9AF80030374F374EDFF8F0B083B07C
:1039500001E09AF800302868344C002B344B08BF43
:103960009846344B0DF107014FF0FF321CBFD8468B
:103970001C4607F0DDFF01288146EAD108F012FF5E
:103980009DF80730C4F8009088F8003000F1010974
:1039900006E008F007FF814515D323683E2B12DCB3
:1039A00028680DF10701012207F0C2FF0128F0D1BC
:1039B00023689DF8072008F803200133236008F0EE
:1039C000F1FE8145E9D273684FF0FF3173B1386879
:1039D00008F036F9012881464FF001000ED009F0B9
:1039E00029F873684FF0FF31002BF0D19AF90030BD
:1039F000B3FA83F35B098AF80030ACE721884046CC
:103A000000F064F900210A460B460028EED0054874
:103A1000006807F07BFD484609F00CF8D3E700BFCB
:103A2000F80F0020A40F0020800D0020EC0F0020D4
:103A3000A80F0020F40F0020F00F0020400D002000
:103A4000024B0021186807F01DBF00BFA40F002023
:103A5000F0B5012185B00022802007F0BDFB244C89
:103A6000244D2060012100223F2007F0B5FB0021FA
:103A700028600322012007F0AFFB1F49226808607D
:103A8000002A2CD02A6852B300282BD000210A46E5
:103A90000B461A4D1A4E07F039FD002403AA0327DE
:103AA000019223460097174817492C604B22346037
:103AB00008F064FB039BBBB1002214491448FEF7D5
:103AC00057FE14491248FEF769FE13491048FEF7E5
:103AD0000FFE0F48FEF76AFE012005B0F0BD10464C
:103AE00005B0F0BD05B0F0BD02F060F9E4E700BF3D
:103AF000E80F0020F80F0020A40F0020EC0F00209A
:103B0000F40F002039390008F07F01085405002027
:103B1000800D00207404002044050020012070471F
:103B200008B5054B0021186807F00EFB0349044A4D
:103B300000230B60136008BDE80F0020F40F002085
:103B4000EC0F002010B5074B044601464FF0FF3242
:103B5000186807F0EDFE01280CBF20464FF0FF303B
:103B600010BD00BFE80F002010B5064B04460A4602
:103B70000146186807F0DCFE01280CBF20464FF014
:103B8000FF3010BDE80F00202DE9F047B1F100092A
:103B90002CDD184D184F0446A84600EB09064FF0DF
:103BA000000A07E0386807F0B1FC01281BD0013497
:103BB000B44215D028780022214613460028F1D1BE
:103BC000034621463868FA2207F0A0FC012818BFF6
:103BD000012304F1010418BF88F80030B442E9D190
:103BE0004846BDE8F08788F800A0E0E74FF00009FC
:103BF000F6E700BFB8090020F80F002010B5104C00
:103C000082B023788DF8070063B90E4A0DF10701E1
:103C10001068FA2207F07AFC012801D001232370F2
:103C200002B010BD074B002218680DF107011346C2
:103C300007F06CFC012804BF0023237002B010BD04
:103C4000B8090020F80F00200020704700207047BE
:103C500070B50D6875B104460B4E01E0013D09D009
:103C6000002221461346306807F0A8FD012804F120
:103C70000104F3D005490648FEF74AFD0448FEF763
:103C800061FD002070BD00BFE80F0020FC0F002088
:103C9000800D002010B5084C084900222046FEF790
:103CA0002FFD20460649FEF733FD064A064B00204D
:103CB0001060186010BD00BF800D0020A80F00200C
:103CC000FC0F0020F40F0020EC0F002010B5094C71
:103CD000D4F81832D3F814320BB1012010BD0A46C3
:103CE00001462046FEF70CFD2046BDE81040FEF7D9
:103CF00015BD00BF800D00200368B3F1A04F00D0B8
:103D0000704730B5002087B04FF4C051FFF75CFC1E
:103D10004FF4C0510020FFF78FFC0120FFF7CCFBD0
:103D20004FF4C0510024022203230A2501911048B8
:103D3000029201A9049303940595FCF72DFB0D4B0A
:103D40005A6B42F080025A6300945A6C42F48042EB
:103D50005A645B6C03F48043294622460093432057
:103D6000009BFCF7D7FA4320FCF70AFB07B030BDF5
:103D7000000002400038024000F56F71D0F8EC03FB
:103D8000FEF72CBDC1EBC10300EB8303D0F8EC03BD
:103D9000D3F80422FEF752BDC1EBC10300EB83034D
:103DA000D0F8EC035A6CFEF77FBD00BFD0F8EC03EF
:103DB000FEF702BE10B5C16804460031D0F8EC032E
:103DC00018BF0121FEF7E2FDD4F8EC03BDE8104076
:103DD000FEF7BCBD10B50446D0F8EC03FEF7DAFDE3
:103DE0002268D2F8003E43F00103C2F8003E236A85
:103DF00023B1034A136943F00603136110BD00BFEA
:103E000000ED00E0D0F8EC03FEF7CEBDD0F8EC03F7
:103E1000FEF7E4BDD0F8EC03FEF7DEBDD0F8EC030E
:103E2000FEF7DEBDD0F8EC03FEF7DCBD02780AB188
:103E30000020704738B5154B0221C3F8EC034FF052
:103E4000A0450424C0F8203218461A615A61DA618C
:103E50001A625A62DA621A631D605C60D960996105
:103E6000FCF778FB78B980210848FDF7E5F90021D7
:103E700040220648FDF7BAF9012180220348FDF7E8
:103E8000B5F9002038BD01F091FFECE77C1000206F
:103E900008B5D0F82002FCF775FD03289ABF024B45
:103EA000185C022008BD00BF0080010810B5144650
:103EB000D0F820021A462346FDF786F803289ABF59
:103EC000014B185C022010BD0480010808B5D0F831
:103ED0002002FDF7B5F803289ABF024B185C0220B8
:103EE00008BD00BF0C80010808B5D0F82002FDF71E
:103EF00021F903289ABF024B185C022008BD00BFBD
:103F00000880010808B5D0F82002FDF745F903281C
:103F10009ABF024B185C022008BD00BF1080010848
:103F20000B06D0F8202206D4C1EBC10102EB8101BF
:103F300091F8FA01704701F07F03C3EBC30302EB72
:103F4000830393F83A00704708B5D0F82002FDF7D4
:103F500029F803289ABF024B185C022008BD00BF55
:103F60001480010808B5D0F82002FDF7C1F8032835
:103F70009ABF024B185C022008BD00BFF87F010801
:103F800008B5D0F82002FDF783F803289ABF024B4A
:103F9000185C022008BD00BFFC7F010808B5D0F8FE
:103FA0002002FDF79BF808BD08B50648FCF700FDA8
:103FB000054B4FF080521A60BFF34F8FBFF36F8FE6
:103FC00008BD00BF7C10002004ED00E012230B8030
:103FD000004870477405002004230B800048704798
:103FE0007005002010B5044C04480A462146FEF72F
:103FF000F9FE204610BD00BF6C1400201880010897
:1040000010B5044C04480A462146FEF7EBFE204654
:1040100010BD00BF6C1400202480010810B5044CB2
:1040200004480A462146FEF7DDFE204610BD00BFCB
:104030006C1400204480010810B5044C04480A4662
:104040002146FEF7CFFE204610BD00BF6C140020B5
:104050005080010830B5074C89B00D466846FEF720
:1040600089FF68462A462146FEF7BCFE204609B075
:1040700030BD00BF6C14002000F0B0B800F094BC5C
:1040800008B900F017B900F0B3B900BF10B58BB292
:104090000446214610461A4600F028FC002010BDB8
:1040A00010B58BB20446214610461A4600F0A2FB1A
:1040B000002010BD08B500F039FA002008BD00BF8F
:1040C00070B5002204460D4642481021FCF73EFA26
:1040D00041498A68404B9007FBD50622DA609A680E
:1040E0003D4ED207FBD53B48F36810210122FCF777
:1040F0002DFA384810210022FCF728FAB268364B16
:104100009007FBD50222DA601A469168324BC90744
:10411000FBD5DA68C5F307401A4691682E4B8E0727
:10412000FBD5D8601A4691682B4BC807FBD5DA68D7
:10413000C5F307201A469168274B8907FBD5D8603D
:104140001A469168244BCE07FBD5DA681A46916867
:10415000214B8807FBD5EDB2DD601A4691681E4BF6
:10416000C907FBD5DA68611E1846FF3411F8015FF4
:104170009A689207FCD5C5609A68D607FCD5A1421B
:10418000C268F3D1134810210122FCF7DFF911486E
:1041900010210022FCF7DAF90F4B05241946A5205F
:1041A0009A689507FCD5CC609A68D207FCD5CA6896
:1041B0009A689607FCD5C8609A68D507FCD5CA6886
:1041C000D207EDD4034810210122BDE87040FCF76E
:1041D000BDB900BF00000240003001402DE9F04FA2
:1041E000304B314E5A6C314F8DB042F480525A648C
:1041F0000CAD5B6C202245F8282D03F480534FF062
:10420000020905240193294630464FF0030B019B18
:104210000694CDF80C90CDF81090CDF814B0FCF7C2
:10422000BBF829463046802306940293FCF7B4F885
:1042300040232946304602934FF0010806944FF080
:10424000100AFCF7A9F8002429463046CDF814B02E
:10425000CDF808A0CDF80C800494FCF79DF830460A
:1042600051464246FCF772F929464FF40072072383
:1042700038464FF4827507920B9302940494CDF85C
:104280001490CDF81880089409940A940395FDF7CA
:1042900097FA3B68064A43F040033B6014700DB048
:1042A000BDE8F08F003802400000024000300140BD
:1042B000B9090020102110B54A480022FCF746F940
:1042C00049498A68484B9007FBD55022DA609A68C2
:1042D000454CD207FBD54348E36810210122FCF787
:1042E00035F9404810210022FCF730F93F4B1B788C
:1042F000002B52D0A2683C4B9007FBD50122DA601C
:104300001A469168384BC907FBD5DA681A46916896
:10431000354B8C07FBD50022DA601A469168324B88
:10432000C807FBD5DA681A4691682F4B8907FBD579
:104330003122DA601A4691682B4BCC07FBD5DA683C
:104340001A469168284B8807FBD50022DA601A4686
:104350009168254BC907FBD5DA681A469168224B4C
:104360008C07FBD51122DA601A4691681E4BC807EC
:10437000FBD5DA681A4691681B4B8907FBD50022EA
:10438000DA609A681849D407FBD5CB681548102124
:104390000122BDE81040FCF7D9B8A268124B900783
:1043A000FBD50122DA601A4691680F4BC907FBD58D
:1043B000DA681A4691680C4B8C07FBD50022DA604C
:1043C0001A469168084BC807FBD5DA681A46916807
:1043D000054B8907FBD50022DA609A680249D207AB
:1043E000FBD5D2E70000024000300140B9090020AF
:1043F000102110B54A480022FCF7A8F849498A68FC
:10440000484B9007FBD55022DA609A68454CD2079A
:10441000FBD54348E36810210122FCF797F8404898
:1044200010210022FCF792F83F4B1B78002B52D052
:10443000A2683C4B9007FBD50122DA601A469168CE
:10444000384BC907FBD5DA681A469168354B8C079B
:10445000FBD53C22DA601A469168324BC807FBD57F
:10446000DA681A4691682F4B8907FBD53122DA604A
:104470001A4691682B4BCC07FBD5DA681A4691682F
:10448000284B8807FBD50022DA601A469168254B35
:10449000C907FBD5DA681A469168224B8C07FBD511
:1044A0001122DA601A4691681E4BC807FBD5DA68FC
:1044B0001A4691681B4B8907FBD50022DA609A687F
:1044C0001849D407FBD5CB68154810210122BDE857
:1044D0001040FCF73BB8A268124B9007FBD50122B5
:1044E000DA601A4691680F4BC907FBD5DA681A469D
:1044F00091680C4B8C07FBD51C22DA601A46916838
:10450000084BC807FBD5DA681A469168054B89073E
:10451000FBD50022DA609A680249D207FBD5D2E7C0
:104520000000024000300140B909002038B50446BF
:10453000FFF7C0FE10213A480022FCF707F839497E
:104540008A68384B9007FBD50622DA609A68354DA9
:10455000D207FBD53248EB6810210122FBF7F6FFAA
:104560002F4810210022FBF7F1FFAA682D4B90077E
:10457000FBD5D822DA601A4691682A4BC907FBD5C9
:10458000DA68C4F307401A469168264B8D07FBD5BD
:10459000D8601A469168234BC807FBD5DA68C4F384
:1045A00007201A4691681F4B8907FBD5D8601A4629
:1045B00091681C4BCD07FBD5DA681A469168194BF8
:1045C0008807FBD5E4B2DC609A68164CD107FBD5AE
:1045D0001348E36810210122FBF7B8FF10481021AF
:1045E0000022FBF7B3FF23462146A52005249A6845
:1045F0009207FCD5CC609A68D507FCD5CA689A6842
:104600009207FCD5C8609A68D507FCD5CA68D2075E
:10461000EDD4034810210122BDE83840FBF796BFD6
:10462000000002400030014010B5FFF743FE1021AA
:1046300025480022FBF78AFF24498A68234B90070C
:10464000FBD50622DA609A68204CD207FBD51E48BB
:10465000E36810210122FBF779FF1B48102100229B
:10466000FBF774FFA268194B9007FBD5C722DA60ED
:104670009A68164CD107FBD51348E3681021012234
:10468000FBF764FF104810210022FBF75FFF234671
:104690002146A52005249A689207FCD5CC609A682B
:1046A000D207FCD5CA689A689207FCD5C8609A6898
:1046B000D207FCD5CA68D207EDD4034810210122E5
:1046C000BDE81040FBF742BF00000240003001404F
:1046D000F8B504460E461546102144480022FBF763
:1046E00035FF43498A68424B9007FBD50622DA60C2
:1046F0009A683F4FD207FBD53C48FB681021012246
:10470000FBF724FF394810210022FBF71FFFBA688E
:10471000374B9007FBD50222DA601A469168344B7A
:10472000C907FBD5DA68C6F307401A469168304BD3
:104730008F07FBD5D8601A4691682D4BC907FBD56A
:10474000DA68C6F307201A469168294B8F07FBD514
:10475000D8601A469168264BC807FBD5DA681A4616
:104760009168234B8907FBD5F6B2DE601A46916843
:104770001F4BCF07FBD56A1ED96892B275B1A51839
:10478000611E184611F8014F9A689607FCD5C4605F
:104790009A68D407FCD5A942C268F3D11348102106
:1047A0000122FBF7D3FE114810210022FBF7CEFEB9
:1047B0000F4B05241946A5209A689207FCD5CC60BA
:1047C0009A68D707FCD5CA689A689607FCD5C8606E
:1047D0009A68D507FCD5CA68D207EDD403481021E2
:1047E0000122BDE8F840FBF7B1BE00BF0000024067
:1047F000003001402DE9F047130A904611F0FF0206
:104800000D46824621D1A3B3DBB203F1FF395FFA33
:1048100089F906468BB109F10106044600EB06262C
:104820000F1A2046E11904F58074FFF749FCB442E1
:10483000F7D105F5807505EB0925304629465FFA65
:1048400088F2BDE8F047FFF743BF5442E4B2BBB97A
:104850005FFA88F39C420CD21A44D6B22246FFF784
:1048600037FF32460AEB04006119BDE8F047FFF755
:104870002FBF504629464246BDE8F047FFF728BF04
:10488000A2B2C2EB08081FFA88F84FEA18295FFAAB
:1048900089F65FFA88F706F1FF38FFF719FF25441C
:1048A0000AEB04065FFA88F8B9F1000F1BD008F193
:1048B000010A344606EB0A2AAE1B2046A11904F56C
:1048C0008074FFF7FDFB5445F7D105F5807505EBC6
:1048D00008250FB9BDE8F087504629463A46BDE89D
:1048E000F047FFF7F5BEB246F3E700BF70B50446E8
:1048F0000E46154610212A480022FBF727FE2949BB
:104900008A68284B9207FBD50322DA601A46916821
:10491000244BC807FBD5DA68C6F307401A469168EE
:10492000204B8907FBD5D8601A4691681D4BC807F4
:10493000FBD5DA68C6F307201A469168194B890738
:10494000FBD5D8601A469168164BC907FBD5DA68C3
:104950001A469168134B8807FBD5F6B2DE601A46FB
:104960009168104BC907FBD5681EDA6880B27DB12B
:10497000013020441946A5259A689607FCD5CD60DC
:104980009A68D207FCD5CA6804F8012B8442F3D197
:10499000034810210122BDE87040FBF7D7BD00BFDE
:1049A0000000024000300140102170B5264800226E
:1049B000FBF7CCFD25498A68244B9407FBD59F2241
:1049C000DA601A469168214BC807FBD5DA681A46A7
:1049D00091681E4B8907FBD5A522DA601A469168BB
:1049E0001A4BCE07FBD5DC681A46E4B29168174B28
:1049F0008D07FBD5A522DA601A469168134BC807CC
:104A0000FBD5DD681A46EDB29168104B8907FBD5DE
:104A1000A522DA609A680D49D207FBD5CE680A480C
:104A200010210122FBF792FD2802F6B240EA044071
:104A3000304301D0EF2C00D070BD172E044B94BF33
:104A4000002601261E7070BD0000024000300140AB
:104A5000B90900200023037043704360704700BF12
:104A6000F0B51C785E78012C01444BD048D3022C61
:104A700044D1884214463CD007782C4D46EA97161C
:104A80003F2E98BF15F806E007F03F0688BF4FF0AD
:104A90003D0EAD5D84F800E065705D680135132D55
:104AA00000F101005D602FD00234884238D00678D2
:104AB0001E4DB70806F00306ED5D25700130360186
:104AC00004F1010E884225D0077846EA17163F2EDA
:104AD00098BF164D00F1010094BFAD5D3D2507F074
:104AE0000F0688420EF101044FEA86068EF8005048
:104AF000C2D102215E70A01A1970F0BD0020F0BD75
:104B00001446D2E79646DDE70A270025A77003344E
:104B10005D60CAE701215E70C2EB0E001970F0BD46
:104B200000215E70A01A1970F0BD00BF60800108FE
:104B30000B78012B18D0022B05D003460A2203F86C
:104B4000012B181A70474B783F2B9CBF0F4AD15C42
:104B5000034688BF3D2103F8021B3D2242700A2212
:104B600003F8012B181A70474B783F2B9CBF074A5C
:104B7000D25C4FF03D034370837088BF3D22C31C5D
:104B800002700A2203F8012B181A7047608001088E
:104B90000023037043707047F0B45C7814701C7885
:104BA000032C7FD8DFE804F04E341A020144164685
:104BB0003D4F88425AD010F8015BA5F12B042A2DF5
:104BC000E4B2F6D9502CF4D83C5D2506F1D4357802
:104BD00004F03F042C433470013635E0014416469E
:104BE000314F884249D010F8015BA5F12B042A2DE2
:104BF000E4B2F6D9502CF4D83C57002CF1DB3578D0
:104C0000C4F383073D43A401357074700136CFE7C8
:104C100001441646244F884236D010F8015BA5F1B6
:104C20002B042A2DE4B2F6D9502CF4D83C57002C92
:104C3000F1DB3578C4F301173D43240135707470FE
:104C40000136CDE701441646174F884223D010F8AD
:104C5000015BA5F12B042A2DE4B2F6D9502CF4D82F
:104C60003C57002CF1DBA4003470D3E7032119700A
:104C700031785970B01AF0BC704702211970317840
:104C80005970B01AF0BC7047012119703178597011
:104C9000B01AF0BC70470021197031785970B01A01
:104CA000F0BC70470020E6E7A4800108704700BF11
:104CB000704700BF01F07AB8F0B583B005460E46E4
:104CC00007F070FD234AA2FB00342409D6B922481C
:104CD000224A2349A0FB04635B09A0FB036040094F
:104CE000C3EB0316A4EB8606C0EB0010A2FB044244
:104CF000A3EB80030096D20A284601F01BF8284651
:104D000003B0F0BD144EDFF854E01649A6FB04735F
:104D1000FA2707FB14005B094FF47A77A6FB03C65A
:104D200007FB00F0A2FB0020C3EB03177609A4EBFE
:104D30008707C6EB0616AEFB044200090190A3EB01
:104D400086030097D20A284600F0F4FF284603B0F5
:104D5000F0BD00BFD34D621089888888C5B3A29189
:104D600008810108F4800108F8B103780BB91846EE
:104D7000704730B583B00D46002201A9044612F0F9
:104D800047FE019B73B19C4201D10BE0019313F8E4
:104D9000012B202AFAD0092AF8D01AB9286001205C
:104DA00003B030BD002003B030BD704728B3F0B56C
:104DB000067883B016B9002003B0F0BD14460D4646
:104DC000002201A9074612F023FE019B0646002B94
:104DD000F1D09F4201D1EEE7019313F8010B202897
:104DE000FAD00928F8D02A2809D00028E3D10346B0
:104DF00001202E60236003B0F0BD002070471846EC
:104E000001A900221F46019312F002FE019B002B14
:104E1000D1D09F4201D1CEE7019313F8012B202A74
:104E2000FAD0092AF8D0002AC5D1012871F100036F
:104E3000DDDB431EDCE700BFF0B532B38D1C871805
:104E40000478240904F1300604F1370E092C94BFCC
:104E50003446744605F8024C10F8014B04F00F0478
:104E600004F1300604F1370E092C94BF3446744621
:104E7000B84205F8014C05F10205E1D101EB42020F
:104E80000BB1002313700846F0BD0A46F8E700BFD7
:104E9000F8B504460F4616461D4600211822FBF7BA
:104EA0008FF927606660A560F8BD00BF0346002249
:104EB0002DE9F04F03F8012B0133427003F8012B69
:104EC00003F8012B03F8012B03F8012B03F8012B46
:104ED0001A70CE688B689E4283B04CD2D1F80480A1
:104EE00058F826700C4605467B490222384612F0D7
:104EF00063FCF8B9237DD80741D5226813786BB1DC
:104F0000002102E012F8103F43B1042BFAD12369CB
:104F10008B4201F10101F5D1216113462B60E36859
:104F20006268591CE16052F823306B60012003B0C5
:104F3000BDE8F08F3B782D2BDFD1237DDA07DCD461
:104F4000731CE36058F826707A78002A72D02668BD
:104F5000337823B96EE016F8103F002B6AD0013B7E
:104F6000012BF8D8B3789342F5D12E603378022B19
:104F700074D00120DBE7104603B0BDE8F08F731C4E
:104F8000E36058F8263001933D2118461E4612F082
:104F900093FC06F102098046002876D0C9EB000692
:104FA00022681378002B4AD0924626B93CE01AF8C2
:104FB000103F002B43D0013B012BD346F7D8DAF842
:104FC00004703846002FF2D012F0C8FB8642EED1B2
:104FD00039464846324612F0EFFB0028E7D1C5F8C3
:104FE00000B09BF80030032B05D1237D43F0010373
:104FF00023759BF80030022BBBD1B8F1000F59D0BC
:1050000008F101036B6098F80130002BB1D19BF8D7
:105010000130990735D500236B60012087E7012A0D
:1050200012D91AF8103F53B1032B03F1FF32D346C4
:10503000F5D1D4E7002385E88800012077E7002335
:10504000019A6A602B6094E7DAF804301846002B66
:10505000E7D012F083FB0028E3D1C0E7384612F016
:105060007DFB022816D9BB1C6B60BB783D2B80D121
:10507000FB1C6B60FB78002B7FF47BAF73789B0786
:10508000C9D4164B6B60012051E7484612F066FB0D
:10509000064685E7737813F0020FE36810D0A16825
:1050A0005A1C8A42B7D86168E26051F823306B60BD
:1050B00001203CE79BF8013013F0020FE368EED1CA
:1050C000A268591C9142DCD8626852F8230000782B
:1050D0002D287FF427AFD4E71C810108189B010815
:1050E00070B502460E465948594905F027FB00287D
:1050F00025DB337806F1100423B94FE014F8103B98
:10510000002B4BD014F80F5C6807F7D4514805F01A
:1051100015FB002813DB14F8103C022B12D0042BD3
:1051200005F0010518D0052B24D0032B73D014F8FB
:105130000E1CC9B1484805F001FB0028DEDA4FF02B
:10514000FF3070BDA9071DD454F80C1C54F8082C6E
:10515000424805F0F3FAF0E7002D60D154F80C1C3A
:105160003F4805F0EBFAE8E754F80C1C3D4805F021
:10517000E5FAE2E7002D58D154F80C1C3A4805F046
:10518000DDFADAE714F80E1C002954D154F80C1C8F
:1051900054F8082C354805F0D1FACEE734483549A3
:1051A00005F0CCFA33780546344683B924E06268CA
:1051B000002A46D0304805F0C1FA0546002DBEDB76
:1051C000E068D8B105F06AFA14F8103FA3B162782C
:1051D0005207F9D4032BF7D0E0680028F4D0043B41
:1051E000012B0FD9A1780029E1D1616881B1234851
:1051F00005F0A4FA0546E1E7E81770BD204805F080
:1052000037FAE1E71F48616805F098FA0546D5E7E7
:10521000002DD7DA93E71C4805F090FA8DE754F893
:105220000C1C1A4805F08AFA87E754F80C1C184839
:1052300005F084FA81E754F8082C164805F07EFA48
:105240007BE7154805F07AFA0546B7E720810108A3
:10525000DC9B01080C9A01087C8101084881010847
:105260006081010884810108708101083C81010886
:1052700028810108F49B010894810108A481010898
:10528000309001088C8101081C81010858810108B7
:105290006881010830810108B0810108F8B507462E
:1052A00048680D46164650B10C4912F08DF8044678
:1052B00028B938463146FFF713FF2046F8BD0849A4
:1052C000084A094805F03AFA686805F0E7F93846EF
:1052D0003146FFF705FF4FF0FF34EEE7C4810108C8
:1052E000989B01080C9B0108CC810108F0B5002AAD
:1052F000059C069F6CDD91F800C0BCF1000F2FD01B
:105300000E46002516F801EF0135BEF1000FF9D168
:10531000AA4226DC724613F0020F0CBF4FF0200E9B
:105320004FF0300E13F001031DD1002A14DD3B684D
:1053300000285FD015469C4208D9036883F800E036
:105340000368013303603B6801333B60013DF2D1E8
:1053500091F800C01346002266464EB91846F0BDCB
:105360006546521BD7E76646BCF1000F5BD00023B1
:105370003D6840B3AC4207D905682E700568013519
:1053800005603D6801353D6011F8016F0133002E65
:10539000F0D1002AE2DD3968002836D015468C426B
:1053A00008D9016881F800E00168013101603968BD
:1053B00001313960013DF2D19818F0BD11F8016F4B
:1053C0000133002EE5D0AC42F8D96FF00100F0BDFA
:1053D00013F0010307D191F800C066464FF0200E8C
:1053E000002EC5D1BAE70E784FF0200E002EBED1A8
:1053F0003046F0BD054601E0013A11D09C4205F16E
:105400000105F9D96FF00100F0BDD01801E0834229
:1054100008D08C4203F10103F9D96FF00100F0BD0F
:105420002A4697E7F0BD6346B3E700BFF0B587B003
:105430000F46109D002949D00C468646002B30D1DE
:1054400000238DF817300DF11701002F35D01E46BF
:105450000E9B0DF11701A3F13A07B4FBF2F302FB27
:1054600013443819092CC8BF0446303401F8014DE3
:105470001C46002BF1D106B30C9B002B38D12D23F9
:1054800001F8013C0C9A002401390F9B70468DE80D
:1054900028000D9BFFF72AFF002800DB204407B0FF
:1054A000F0BD0A2ACCD10029CADA00234C428DF87B
:1054B0001730002C3BD00126CAE7119BABB12B2340
:1054C00001F8013C002401390C9ADEE70F9B0C9A8D
:1054D0008DF80D708DE82800302403A90D9B8DF800
:1054E0000C40FFF703FF07B0F0BD1C460C9ACCE759
:1054F0000D9B9B07C3D52B680F9A9A420ED9BEF11C
:10550000000F11D0DEF800302D221A70DEF80030C6
:105510000133CEF800302B6801332B600C9B013B2C
:105520000C9301241A46B0E76FF00100B7E70DF1C4
:105530001701A1E7000000002DE9F04F2DED068BCB
:10554000B5B0013A1D780C9100241146449A149488
:1055500083460792002D00F0F980DFED908A9FEDE1
:1055600090AADFED909A9FED909AA14688461A4640
:1055700019E0149B98450ED9BBF1000F00F08D8007
:10558000DBF800301D70DBF80010149B0131013393
:10559000CBF80010149309F1010914466578621CD8
:1055A000002D00F0D480252DE3D15378541C002B1E
:1055B00000F0CD80252B77D02D2B03BF9378941C42
:1055C000012600262B2B71D00022099203E014F84B
:1055D000013F46F00206302BF9D02E2B33D0A3F139
:1055E0003002D2B2092A2ED90622089200276C2B4B
:1055F00004BF63780134682B5DD0583B202B44D81E
:10560000DFE813F068034300430043004300430016
:1056100043004300430043004300C6010E029701CC
:10562000D600D6004300430043004300430043003C
:1056300043004300E00143004300B50043002E0255
:10564000430043002702002706232246BA461D4690
:10565000144612F8013BA3F130012E2BC8B20ED034
:10566000092805EB850C07EB870E0CD8BAF1000F63
:1056700002D000EB4C05EBE701EB4E07E8E7002515
:105680004FF0010AE4E70895B1E7149B984540F212
:105690001882BBF1000F40F0FC816FF0010035B0C3
:1056A000BDEC068BBDE8F08F224662E701226378ED
:1056B000099214448FE76378583B0134202BE4D8D7
:1056C00001A252F823F000BFE15C00088B560008ED
:1056D0008B5600088B5600088B5600088B56000826
:1056E0008B5600088B5600088B5600088B56000816
:1056F0008B56000891590008055B000833590008D3
:10570000B1570008B15700088B5600088B560008A7
:105710008B5600088B5600088B5600088B560008E5
:105720008B5600088B560008D95A00088B56000883
:105730008B5600086F5700088B560008F95A00086E
:105740008B5600088B560008DD5A0008A9460C9BB2
:1057500013F0010305D1BBF1000F9ED0DBF8002050
:105760001370484635B0BDEC068BBDE8F08F079B43
:105770000E4D1968CDF8008014A8002908BF2946ED
:1057800001903A4633465846079DFFF7AFFD002883
:1057900005F1040583DB81440795FFE6CDCCCC3DC4
:1057A0000AD7233C6E12833A16B7D138D481010848
:1057B000079B03F1070E2EF0070E9EED007B0EF106
:1057C00008050022002351EC170B8DED0A7B07958D
:1057D00010F086FC002840F05882099B002B40F016
:1057E00073811FAB0D939A46089B072B0ED81D465D
:1057F000BD4B03EBC503DDE90A01D3E9002310F03B
:105800004BF8CDE90A01002D00F07082089D0023BD
:105810000120013300EB8000AB424FEA4000F8D199
:10582000089510F075F9CDE90E01DDE90A0110F0D7
:105830007FFC03460990002800F06B81DFF8ACC2C2
:10584000089D0DF1530E0020ACFB0312D20802EBB1
:105850008201A3EB410330330EF8013F01301346C0
:10586000002AF1D10DF1540E0EEB00030AF1FF32C4
:1058700013F8011D02F8011F7345F9D10895824400
:105880002B46002B43D0099810F042F902460B46F4
:10589000DDE90A010FF0FEFFDDE90E2310F0AEF99D
:1058A00010F046FC2E238AF80030002800F03782E2
:1058B000DFF838C2089D0DF1530E0021ACFB002328
:1058C000DB0803EB8302A0EB4202303201310EF819
:1058D000012F1846002BF1D18D42089598BF0DF18C
:1058E000540E40F2E4810DF1540E4B1E089D73449A
:1058F000302201318D4203F8012F4FF03000F8D8EB
:10590000002940F0D4818AF801000AF1020A14A8A3
:1059100000250190CDF800800D998AF800503A4694
:1059200033465846FFF7E2FC0028FFF6B8AE814444
:1059300034E6079B073323F00703D3E9000108335C
:10594000079310F015FC00EE100A08EE100A0FF095
:1059500081FF002840F0E4806E2361228DF87C30C6
:105960008DF87E308DF87D200DF17F0E14A9002575
:105970000191CDF800803A46334658461FA98EF86B
:105980000050FFF7B3FC0028FFF689AE814405E61E
:105990003A46079F14A9334600253E680191CDF889
:1059A0000080584613A98DF84C608DF84D50FFF7D4
:1059B0009DFC3E46002806F10406FFF670AE8144C9
:1059C0000796EBE50020DBF8003030221A70DBF898
:1059D00000307822591CCBF800105A70DBF80030E8
:1059E000079A0133CBF800301346043309F102095A
:1059F0001168079300B189B241220998059014AB50
:105A00000292049300970196CDF80C80584610221C
:105A10000023FFF70BFD0028FFF641AE8144BDE5F2
:105A2000079A134604331168079309980590612279
:105A300014AB0292049300970196CDF80C8058465F
:105A40000A220123FFF7F2FC0028FFF628AE81446A
:105A5000A4E5079A13460433116807936122CCE743
:105A6000079A134604331168079309980590612239
:105A700014AB0292049300970196CDF80C8058461F
:105A80000A220023FFF7D2FC0028FFF608AE81446B
:105A900084E5DBF8003025221A70DBF80020149B27
:105AA000511C0133CBF8001098452178149308D984
:105AB0005170DBF80020149B01320133CBF8002039
:105AC000149309F1020969E52B238DF87C301FAB93
:105AD0000DF17D0A0D9387E6012074E7079A1346BE
