:020000040800F2
:1000000000000120BD0200082103000821030008B0
:10001000210300082103000821030008000000005C
:1000200000000000000000000000000001BE000809
:10003000210300080000000091BE0008F5BE000882
:100040002103000821030008210300082103000800
:1000500021030008210300082103000821030008F0
:1000600021030008210300082103000821030008E0
:1000700021030008210300082103000821030008D0
:1000800021030008210300082103000800000000EC
:100090000000000000000000000000002103000834
:1000A00021030008210300082103000821030008A0
:1000B0002103000821030008210300082103000890
:1000C0002103000821030008210300082103000880
:1000D000210300082103000821030008000000009C
:1000E000210300082103000821030008000000008C
:1000F00000000000000000000000000021030008D4
:10010000000000002103000821030008210300086B
:1001100000000000000000000000000000000000DF
:10012000210300082103000821030008210300081F
:100130002103000800000000000000000000000093
:10014000000000000000000000000000093C000862
:1001500021030008210300082103000821030008EF
:100160002103000821030008000000000000000037
:10017000000000000000000000000000000000007F
:100180000000000021030008000000000000000043
:04019000210300083F
:100194003C6D637573683E0032303230303932382A
:1001A4002D313030333239004D4355534820646586
:1001B4007369676E65642062792050656E672053A9
:1001C40068756C696E2C20616C6C20726967687448
:1001D400732072657365727665642E0A6874747030
:1001E400733A2F2F6769746875622E636F6D2F7071
:1001F400656E677368756C696E2F6D6375736800DF
:08020400B42601000100000016
:1002200070B4840746D0541E002A41D0CDB2034694
:1002300002E0621EE4B3144603F8015B9A07F8D1AA
:10024000032C2ED9CDB245EA05250F2C45EA0545EC
:1002500019D903F110022646103E0F2E42F8105C09
:1002600042F80C5C42F8085C42F8045C02F11002AF
:10027000F2D8A4F1100222F00F0204F00F041032A1
:10028000032C13440DD91E462246043A032A46F88D
:10029000045BFAD8221F22F003020432134404F054
:1002A00003042CB1C9B21C4403F8011BA342FBD1C7
:1002B00070BC704714460346C2E700BFDFF844D065
:1002C000002103E0104B5B58435004310F48104BA2
:1002D00042189A42F6D30F4A02E0002342F8043B48
:1002E0000D4B9A42F9D30D4A03E05FF0A53342F873
:1002F000043B044B9A42F8D300F014F811F0AAFC26
:100300007047000000000120DC5F010800000020B1
:10031000A0090020AC090020103B002000FC0020B8
:10032000FEE7000010B41049104BD1F88820104CA3
:1003300042F47002C1F888201A68002042F00102DD
:100340001A6098601A6822F0847222F480321A606F
:100350005C601A684FF0006422F480221A60D86052
:100360008C605DF8044B704700ED00E000380240FF
:100370001030002430B4184BDB68C3F30223C3F100
:100380000705042D03F1040428BF0425062C17D902
:10039000033B01249C40013C22400124AC40013C31
:1003A00021409940002842EA01020CDB00F1604044
:1003B00000F561401201D2B280F8002330BC7047D2
:1003C00000221346E9E7054B00F00F001201034439
:1003D000D2B21A7630BC704700ED00E0FCEC00E0D1
:1003E000002807DB044A00F01F01012340098B406D
:1003F00042F82030704700BF00E100E02DE9F04FE7
:10040000002283B0DFF8A0E1DFF8A0A1614E012750
:100410004FF0030C814603E00132102A00F0AC805B
:100420000B6807FA02F003408342F5D14C6824F0D0
:100430001000022812D1D50809EB850502F007004B
:100440002C6A80004FF00F0808FA00F824EA080828
:100450000C69844048EA04042C624C68D9F8000016
:100460004FEA42080CFA08F504F00304ED4304FADD
:1004700008F428400443C9F800404C6824F01004F4
:10048000013C012C13D8D9F80840C8682C4000FA68
:1004900008F02043C9F808004868D9F80440C0F3C0
:1004A0000010904024EA03042043C9F80400D9F85E
:1004B0000C408868254000FA08F02843C9F80C0071
:1004C0004868C500A8D54FF00008CDF80480DEF8D4
:1004D000440040F48040CEF84400DEF8444022F06E
:1004E000030000F1804004F4804400F59C30019446
:1004F00002F00304019DD0F808B0A4000F25A54028
:10050000D1452BEA050B11D0234DA94537D0234DFA
:10051000A94537D0224DA94539D0224DA9450CBF58
:100520004FF004084FF0070808FA04F848EA0B05F2
:1005300085604C683068DD43E4034CBF18432840B5
:1005400030604C687068A4034CBF1843284070604A
:100550004C68B068E4024CBF18432840B0604C6857
:10056000F068A40202F1010254BF05EA000303434C
:10057000102AF3607FF454AF03B0BDE8F08F07FAA0
:1005800004F8D3E74FF0020808FA04F8CEE70CFAB3
:1005900004F8CBE7003C01400004024000080240A0
:1005A000000C0240001002400038024000000240EF
:1005B00002B9090481617047002868D0F0B50323AF
:1005C00005468BB080F8B933064603F0CBF92868AE
:1005D00001F07AF956F810EB37460FCF6C460FC48E
:1005E0000FCF0FC497E8030084E803002F1D97E89E
:1005F0000E00704601F024F90021286801F06CF922
:1006000000210C462B462A46012082F83810D1875B
:1006100001310F2982F8390082F83B401464546498
:10062000D46402F11C02F0D10022114683F8F821B3
:10063000DA8783F8F91183F8FB11C3F80012C3F8C5
:100640000412C3F80C12286802F1400400EB840085
:1006500001320F2A03F11C034160E7D10FCE6C4633
:10066000D5F800E00FC40FCE0FC496E8030084E86D
:100670000300704697E80E0001F048F9012385F861
:10068000B933286801F058FD00200BB0F0BD0120FF
:10069000704700BF90F8B833012B01D1022070479A
:1006A00010B50123044680F8B833006801F038FD26
:1006B000206801F001F9002084F8B80310BD00BFE4
:1006C0002DE9F04F066887B00446304601F070FD12
:1006D00010B107B0BDE8F08F206801F039FD0028A7
:1006E000F7D0206801F034FD810704D522685369F2
:1006F00003F002035361206801F02AFD020300F1B8
:100700009E810027206801F023FD400300F1D18085
:10071000206801F01DFD0028C0F20182206801F070
:1007200017FD030509D5D6F80838DD0700F1CD819E
:100730002268536903F400635361206801F008FDE7
:10074000C00475D4206801F003FD810450D42068F2
:1007500001F0FEFCC20613D52268936923F0100352
:100760009361356AC5F34343022B05F00F0800F08F
:10077000B981062B2AD02268936943F01003936154
:10078000206801F0E5FC030700F15081206801F0CA
:10079000DFFCC60200F14081206801F0D9FC85022F
:1007A00000F13081206801F0D3FC400000F121818C
:1007B000206801F0CDFC41078BD523685D686A078E
:1007C00000F17E815A6815435D6082E70822304659
:1007D00004F56F71C8EBC80801F042FC04EB880314
:1007E000C5F30A15D3F810221544C3F81052C2E716
:1007F000206801F0E1FC2268D36823F47053D360D1
:10080000206801F051F9002840F0C5814FF40073D1
:100810002268E0606361D36843F41053D3602046DC
:1008200003F0F2F82268536903F4005353618EE732
:1008300006F500656B6823F001036B6010212068EA
:1008400001F020F963686BB106F530630022FF21E7
:10085000A3F500700132816099606068904203F1F5
:100860002003F5D84FF0FF33AB61EB6943F0011380
:10087000EB61236B002B00F02C81D5F8843043F022
:100880000B03C5F884306B6C43F00B036B64D6F834
:10089000003823F4FE63C6F8003804F56F72206850
:1008A000217C01F0A5FC2268536903F48053536155
:1008B00048E7206801F058FC8246002800F0878154
:1008C000254606F510680027039609E05FEA5A0AF4
:1008D00007F1010705F11C0508F1200800F0E78089
:1008E0001AF0010FF2D05FFA87F94946206801F04B
:1008F0004DFCC107064617D5039B0122D3F83418D7
:10090000BA4021EA0202C3F834280123C8F80830AB
:100910002369012B00F01F814946204603F066F849
:100920002169012900F00A81320744BF0823C8F871
:100930000830F30644BF1023C8F80830700644BFDF
:100940004023C8F80830B10744BF0223C8F8083074
:100950003206BBD52368E86CD5F850C02A6C0493E6
:1009600003F5106B0BEB471BCCEB00039342DBF85A
:1009700018101E46A8BF164689B206F1030EB1EB49
:100980009E0F29D9604527D930B3696C05971E465B
:100990002F4625465C46DDF810B004E0FA6C9A421A
:1009A00017D9D61A3A6C2B7C00939642A8BF1646EC
:1009B000B3B24A46584601F03DFB796C3B6D314479
:1009C000334479643B65A269F01C92B2B2EB900F9C
:1009D000E4D82C463D46059F002E3FF777AF049B99
:1009E00003F5006101234A6BBB4022EA03034B631A
:1009F0006CE7204603F03CF82268536903F080431B
:100A00005361D5E6F9B2204603F02AF8226853690B
:100A100003F400135361C5E62046F9B203F024F84D
:100A20002268536903F480135361B5E6204602F04F
:100A3000E7FF2268536903F008035361A6E62068C4
:100A400001F08AFB054600283FF45BAE06F53068EE
:100A5000A346002708E06D0807F1010708F1200808
:100A60000BF11C0B3FF44EAEEB07F4D55FFA87FA9F
:100A70005146206801F080FB10F0010F81460CD038
:100A80000123C8F808302369012B75D05146204650
:100A900002F0A2FF2169012962D019F0080F08D1E4
:100AA00019F0100F1CBF1023C8F80830D3E7039EBD
:100AB0002EE6204602F08AFF0823C8F80830EFE748
:100AC000204602F0D9FF23687CE6204602F0ACFF06
:100AD0002EE66B6943F00B036B612B6943F00B034C
:100AE0002B61D4E647F6F0732B40002B3FF443AE66
:100AF000C8EBC80804EB88054FEA13183046D5F850
:100B00000412424601F0ACFAD5F804324344C5F869
:100B10000432D5F810324344C5F810322BE6D6F82B
:100B2000042822F00102C6F80428204602F094FFAF
:100B30002268536903F000435361EFE5002F7FF40F
:100B4000F3AEE36C002B7FF4EFAE206804F56F7218
:100B500001F04EFBE8E66A6C2B6C13446B64DBE639
:100B6000002F9AD1D4F80C32002B96D1206804F5CE
:100B70006F7201F03DFB90E7D8F81030DBF80012FF
:100B8000DBF80422C3F31203CB1A0A44CBF8103269
:100B9000CBF804227AE703224023E260636100F08D
:100BA000D9F9364B364A0344934205D82268D368B4
:100BB00043F47053D36032E6324B334A03449342DA
:100BC00007D82268D36843F46053D36027E607460A
:100BD0009EE5A0F574032D4AA3F51053934205D862
:100BE0002268D36843F45053D36018E6A0F18373AE
:100BF000274AA3F5E743934205D82268D36843F414
:100C00004053D3600BE6234B234A0344934205D859
:100C10002268D36843F43053D36000E61F4B204A68
:100C20000344934205D82268D36843F42053D36029
:100C3000F5E51C4B1C4A0344934205D82268D3684F
:100C400043F41053D360EAE5A0F1B773174AA3F554
:100C50005853934205D82268D36843F40053D360B5
:100C6000DDE5134B134A034493422268D36894BFD3
:100C700043F4E05343F4C053D360D0E5405327FF1F
:100C8000FF340C00401E1BFF3F420F007F4F12003D
:100C90001FD6130060B6E5FE5FE3160000D3CEFE5C
:100CA0003F771B00C05BB3FEBF9121001F7538006A
:100CB000E05459FEDF9C410090F8B833012B01D17C
:100CC0000220704710B50123044680F8B83300684D
:100CD00001F016FA002084F8B80310BDF8B50446F8
:100CE000080623D4C1EBC10080002518002700F5B9
:100CF000FC7085F8F81185F8F9712118C5F8002203
:100D000085F8FB31022B04BF00230B7194F8B83334
:100D1000012B01D10220F8BD012384F8B8332068EB
:100D200000F0DEFE002084F8B803F8BD01F07F0576
:100D3000C5EBC500800027184FF0010E383087F84A
:100D40003850211887F839E03A6487F83B30FD873E
:100D5000D8E700BFCAB2130610B5044619D4C1EBD8
:100D6000C10300EB830303F5FC73D2095A701970B9
:100D700094F8B823012A01D1022010BD012219469E
:100D800084F8B823206800F0F3FE002084F8B8034C
:100D900010BD01F07F01C1EBC10300EB83033833C9
:100DA000E3E700BFF8B501F07F06C6EBC604A40078
:100DB00005190021C5F80422C5F8101285F8F911AB
:100DC000C5F80C3285F8F8610369012B08BFC5F836
:100DD000082204F5FC740119DAB200681EB100F0B3
:100DE0003DFF0020F8BD01F06BF80020F8BD00BF0A
:100DF00001F00F01C1EBC10100EB8100B0F810025E
:100E0000704700BFF8B501F07F06C6EBC604A4002A
:100E10000519012100276A6485F83910EB6485F80B
:100E200038602F650369012B08BFAA6438340119A3
:100E3000DAB200681EB100F011FF0020F8BD01F029
:100E40003FF80020F8BD00BFCAB238B5130605460A
:100E50001CD4C1EBC10300EB830303F5FC730C4608
:100E6000D20901215A701C70997095F8B8238A42F2
:100E700001D1022038BD85F8B8132868194601F061
:100E800001F95CB1002085F8B80338BD01F07F049A
:100E9000C4EBC40300EB83033833E1E72868297C03
:100EA00005F56F7201F0A4F9ECE700BFCAB238B5DE
:100EB000130605461BD4C1EBC10300EB830303F506
:100EC000FC73D20900245A7019709C7095F8B823ED
:100ED000012A01D1022038BD0122194685F8B82324
:100EE000286801F0EFF885F8B843204638BD01F0D6
:100EF0007F01C1EBC10300EB83033833E1E700BF9F
:100F000070B40668736AD1B1B46A013903EB144452
:100F10000CD000231846403306EB830301305D6894
:100F2000C0B2884204EB15440346F4DB403106EBC3
:100F3000810144EA02444C60002070BC704743EADF
:100F40000244B462002070BC704700BF03680020F8
:100F500059627047014B1868704700BF2C0400208D
:100F6000054B5A6A42F480725A625A6A22F48072BD
:100F70005A620120704700BF00380240064B9B6850
:100F8000DB0707D443680A6823F440331343436004
:100F90000120704700207047002001408368DA0775
:100FA0000BD5836823F070638360836823F4702318
:100FB0008360836823F0010383608368DB074DD47B
:100FC00010B404682649274B274A24F03F040460E4
:100FD00044682140416081680B408360C36803F02E
:100FE0007843C360036903F040430361436923F41A
:100FF0007F6323F00F034361836923F47F6323F04E
:101000000F038361C36923F47F6323F00F03C3617C
:10101000036A23F47F6323F00F030362436A6FEADA
:1010200013336FEA03334362836A23F47F6323F04D
:101030000F038362C36A03F07F43C362036B03F051
:1010400040430363836B9B0D9B058363536823F4C9
:101050000303536001205DF8044B70470120704783
:1010600000003FF8FCF08080002301408368DB072C
:1010700013D430B442688D680C6822F040732C435E
:1010800023F480732343436083684A6823F4006336
:101090001343836030BC012070470020704700BFBD
:1010A0008368DB0723D44B6870B4C3B9436823F467
:1010B0006843436086680D69CC680E4A0B6832400D
:1010C0002C43224303F0706313438360C36A4A686E
:1010D00023F470031343C36270BC0120704742685D
:1010E0008C6822F46842234313434360E2E7002004
:1010F000704700BFFDFCFFC011F5803F21D030B428
:10110000644B654C5B5C1A58A04222F001021A50F5
:1011100021D0624A90424DD0614A002421251460BA
:1011200054609460D460146155611A5822F0606272
:101130001A5000292ED13F2383600121084630BC7C
:101140007047554B984200F08E80544B98426FD0B8
:1011500000210846704700293BD0012964D00229AC
:1011600076D0032978D0042900F08B80052900F07F
:101170008C8006294BD007294BD0494A00242125D1
:10118000146054609460D460146155611A5822F060
:1011900060621A5001292CD002292ED0032931D0A7
:1011A000042938D005294ED0062957D0072936D032
:1011B0000021C3E779B91032002121241160516068
:1011C0009160D160116154611A5822F060621A5026
:1011D000B1E7344AF0E7012928D002293AD003299F
:1011E0004DD004294FD0052951D00629C5D12E4A0A
:1011F000C4E74FF474638360A0E74FF47C1383600B
:1012000001219BE74FF074638360012196E7274A31
:10121000B4E7274AB2E73F23C36001218EE74FF0CE
:101220007463C360012189E7224AA7E7224AA5E740
:10123000224B1A6942F480021A611A6922F4800270
:101240001A61012185E74FF47463C360012175E7DA
:101250001B4A93E71B4A91E71B4A8FE74FF47C1325
:10126000C36001216AE7A3F5205301211A6942F402
:1012700000121A611A6922F400121A6169E7134A0E
:101280007CE7134A7AE7134A78E7134A76E7134A6A
:1012900074E700BFB84401080060024000640240E7
:1012A000B864024010600240A0640240A0600240A6
:1012B000B8600240286002402864024000380240C2
:1012C000406002404064024058600240586402405E
:1012D000706002407064024088600240886402408E
:1012E000F0B5D7689668234B1569546913F801E087
:1012F000D169936A3E4335432C43956950F80E609B
:101300002C43214326F45F360B4326F478761E43A4
:1013100040F80E60D16A00EB0E03B1B15C69156B49
:1013200024F0070429432143596150F80E40516BC2
:1013300024F0C074214340F80E1050F80E40916B19
:1013400024F4C004214340F80E105168D96011689C
:1013500099605968146A090C09042143596050F8CE
:101360000E30526A23F06063134340F80E300120C0
:10137000F0BD00BFB8440108F0B50B6893FAA3F2C2
:10138000002A00F08A80B2FA82F2144633FA02F59B
:101390004D6846D001274FF00F0C4FF0030E04E0CC
:1013A000013433FA04F622463BD007FA02F21A401F
:1013B000F6D092FAA2F30668002B3FD0B3FA83F37B
:1013C0005B000EFA03F3DB43334092FAA2F6002EE1
:1013D0003BD0B6FA86F67600B5401D4305604B68F3
:1013E000013B012B6FD992FAA2F50B69C66875B360
:1013F000B5FA85F56D000EFA05F5ED43354092FA24
:10140000A2F65EB3B6FA86F67600B3402B43C3600D
:101410004D68022D24D00B68013433FA04F62246BD
:10142000C3D1013D012D07D8CA68416802FB03F210
:1014300021EA0303134343600120F0BD4FF0FF3363
:10144000334092FAA2F6002EC3D14026C4E74FF0F3
:10145000FF35354092FAA2F6002ED3D14026D4E7CC
:1014600092FAA2F3E3B9120A4B6992FAA2F5466A1C
:10147000002D3ED0B5FA85F592FAA2F2AD000CFA35
:1014800005F5ED433540002A3AD0B2FA82F29200D7
:1014900093402B4343624D68BDE72022144675E715
:1014A000B3FA83F5072DDEDC2B46AE004A69056AE8
:1014B0009B000CFA06F625EA06059A402A430262CA
:1014C00091E828006CE792FAA2F58B688668CDB1A6
:1014D000B5FA85F56D000EFA05F5ED43354092FA43
:1014E000A2F6B6B1B6FA86F67600B3402B43836017
:1014F00079E74FF0FF35354092FAA2F2002AC4D1C5
:101500008022C5E74FF0FF35354092FAA2F6002E53
:10151000E8D14026E9E700BFF0B503685B0683B079
:10152000864635D401F114000DC80F6801934B684D
:101530008E68CD680C69DEF800C01F433E4335431A
:101540002C432043019B024313430A6A2CF47F453A
:10155000134325F0BF051D43CEF80050DEF80430DC
:10156000CA8A23F004031343CEF804300B6AB3F5A0
:10157000005F08D00120DEF81C3023F40063CEF8B1
:101580001C3003B0F0BD8B8CCEF810300120F2E798
:101590000020F0E7274A0368904233D0B0F1804F33
:1015A00022D0A2F57C4290421ED002F58062904289
:1015B0001AD002F58062904216D002F59A3290421B
:1015C00016D002F58062904212D002F580629042FD
:1015D0000ED003608B68C3620B888362436943F05B
:1015E00001034361012070474A6823F070031343ED
:1015F000CA6823F440731A4302608B68C3620B8885
:101600008362EBE74A6823F0700310B41A43CC6896
:1016100022F44072224302608B68C3620B888362AB
:101620000B7C0363436943F0010343615DF8044BA2
:101630000120704700000140002303604360836085
:10164000C360036143618361C3617047F0B51029D2
:1016500083B003466DD048D9B1F5807F24D0B1F571
:10166000805F63D1016A684F21F480510162006A92
:1016700011695E68DC69556820F4005040EA013168
:1016800024F4E640146821F48051BB4241EA05315C
:1016900040EA042000F085805E60D861D2681A6458
:1016A0000120196203B0F0BD016A574F21F4807127
:1016B0000162006A11695E68DC69556820F4007097
:1016C00040EA012124F07300146821F48071BB42C8
:1016D00041EA052140EA040469D05E60DC61D26819
:1016E000DA630120196203B0F0BD01291ED1016A3D
:1016F000454F21F001010162016A106955685C687B
:101700009E6921F00201014321F00101294315687E
:1017100026F07300BB4240EA05005FD05C60986130
:10172000D2685A630120196203B0F0BD002003B0F3
:10173000F0BD016A344F21F010010162006A1169A5
:101740005E689C69556820F0200040EA011124F48D
:10175000E640146821F01001BB4241EA051140EA5D
:10176000042407D05E609C61D2689A6301201962EC
:1017700003B0F0BDD069019097695069956821F078
:10178000800126F4806641EA801146EA87060198C6
:1017900021F0400126F4006641EA851146EAC006C0
:1017A000E0E7946926F4804646EA841674E7D06937
:1017B000019097695069956821F4006126F480567C
:1017C00041EA802146EA0716019821F4806126F457
:1017D000005641EA852146EA40167EE724F4807EE1
:1017E000576994699668D56921F008014EEA040E9C
:1017F00041EA870121F004012EF4007E41EA8601CE
:101800004EEA45048AE700BF000001400B4B01E0AF
:10181000013B10D00269002AFADA0369074A43F053
:101820000103036101E0013A05D0036913F00103EC
:10183000F9D1184670470320704700BF400D0300E0
:1018400084B038B50A9D05AC012D84E80E0004462D
:1018500018D0C36843F04003C360FFF7D7FF4FF4CD
:101860008033A363089B012B07D1A36843F00603D1
:10187000A360A36843F02003A360BDE838400020C4
:1018800004B07047836B119A23F480338363C36879
:1018900023F4840323F04003C360C368012A23F4C4
:1018A0004013C36003D02046FFF7B0FFDAE7C368F8
:1018B00043F48013C360F6E702460020936843F0C8
:1018C00001039360704700BF02460020936823F035
:1018D00001039360704700BF08B5C368012923F076
:1018E000C043C36009D019B9C36843F08043C360E3
:1018F000322001F0EDFB002008BDC36843F0005327
:10190000C360322001F0E4FB002008BD84B02DE963
:10191000F04308AC84E80E00DDF84890DDF82CE0D8
:10192000836BB9F1000F40F0858043F400138363AB
:101930000023C0F8003E0D9BD0F80028C0F8002816
:10194000012B00F5006600F08880D0F8003843F0E5
:101950000303C0F800384FF484630361464B01E091
:10196000013B02D002699406FAD410230361424B72
:1019700001E0013B02D00269D206FAD400224FF006
:10198000FF3332617261B361F26141B3144600F515
:1019900010634FF09048FF251F680132002FB4BF3D
:1019A000C3F800801C608A421C619D6003F1200323
:1019B000F2D10022154600F530634FF090484FF009
:1019C000FF0C1F680132002FB4BFC3F800801D60F8
:1019D0008A421D61C3F808C003F12003F1D13369C5
:1019E000BEF1010F23F48073336127D000226FF022
:1019F000804382614361BEF1000F03D1836943F0EC
:101A00001003836181691D4B0E9A0B4383611AB1E8
:101A1000836943F008038361B9F1010F05D183693C
:101A200043F0804343F004038361BDE8F0430020AA
:101A300004B0704743F40023836379E7104B3363AA
:101A4000336B43F4803343F00303336300226FF0BE
:101A50008043316B82614361D4E70A9B23B9D0F89C
:101A60000038C0F8003876E7D0F8003843F00103BA
:101A7000C0F800386FE700BF400D030000383C801D
:101A800000018000890141F020010161054A01E067
:101A9000013A05D0036913F02003F9D118467047C5
:101AA00003207047400D0300D0F8083800F50062AD
:101AB00013F0060012D0936803F00603022B0CD03B
:101AC000936803F00603062B07D0936803F0060320
:101AD000042B14BF0020022070470320704700BF72
:101AE00070B44B78012B20D00D78D0F81C484FF4FF
:101AF0008032AA402243C0F81C280A784FF4306391
:101B000003EB42131A5812040CD41A588C68CD787F
:101B100042F0805242F40042C4F30A010A4342EA0E
:101B200085421A50002070BC70470C78A340D0F852
:101B30001C489BB22343C0F81C380E784FF4106346
:101B400003EB46131A581404ECD41D588C68CA7859
:101B500045F0805545F40045C4F30A01294341EAA4
:101B6000824242EA86521A50002070BC704700BF81
:101B7000F0B44B780D78012B33D020234FF4306430
:101B800013FB05454FF000674659334A26F40046DB
:101B900046510D7813FB05454FF0804647510D78AF
:101BA00013FB054546510D7813FB0544044401E041
:101BB000013A4DD0A36813F01003F9D100F500628B
:101BC000D0F8040840F4806050600978D0694FF480
:101BD000803404FA01F120EA0101D1611846F0BC19
:101BE000704720224FF4106412FB05454FF0006748
:101BF0002E58194B26F400462E500D7812FB054541
:101C00004FF080462F500D7812FB05452E500D7871
:101C100012FB0544044401E0013B19D0A2685500C1
:101C2000FAD44FF4846303610B4B01E0013B02D013
:101C300002699206FAD40A7801239340D0F81C284E
:101C40009BB222EA0303C0F81C38F0BC00207047A6
:101C50000320F0BC704700BF400D0300F0B54B7887
:101C6000012B74D00C7820234FF4306613FB0464EE
:101C700004442569ED0CED0425610C7813FB046424
:101C80000444256925F0FF5525F4C01525614C69EC
:101C90007CB30F788D68DFF824E213FB07670744F5
:101CA0002C44013CB4FBF5F4A4B23D694FEAC44CAA
:101CB0000CEA0E0E4EEA05053D610F788D6813FBA8
:101CC0000763034405FB04F51C69C5F312052543AE
:101CD000012A1D6121D0CB78012B27D00A784FF43F
:101CE000306303EB4213C25842F00442C25000205A
:101CF000F0BD0C788D6813FB04640444C5F3120531
:101D000027693D4325610C7813FB04630344012AD2
:101D10001C6944F400241C61DDD10B78CA6800EB17
:101D20004313C3F8142BCB78012BD7D1D0F8083844
:101D30000A7813F4807F4FF4306303EB4213C258E8
:101D40000CBF42F0005242F08052C250C6E74B69CD
:101D5000002B67D00B78594F20244FF4106614FBEA
:101D6000036303441D69ED0CED041D610B7814FB46
:101D7000036303441D6925F0FF5525F4C0151D615B
:101D80000D78D1F808C04B6914FB05650544634420
:101D9000D5F810E0013BB3FBFCF3DB041F4047EA3E
:101DA0000E072F610B784D6914FB03630344C5F3E1
:101DB00012051F693D431D61CB78012B6CD0012AB0
:101DC00063D04B6953B10E78D0F834580124B44035
:101DD0002C43C0F83448CB78012B45D00C784FF415
:101DE000106303EB4413C45844F00444C450CB784C
:101DF000012B7FF47CAFCB680C784969002A7FF413
:101E000076AF8AB2033292083FF471AF00EB043030
:101E100000F5805003EB820253F8041B01609342EB
:101E2000FAD164E70C7820234FF4106613FB0464A6
:101E30000444256925F0FF5525F4C01525610C786B
:101E400013FB04640444256945F4002525610C78DE
:101E500013FB046303441C69E40CE4041C61012AC1
:101E600013D0CB78012BACD1D0F808380C7813F410
:101E7000807F4FF4106303EB4413C4580CBF44F04D
:101E8000005444F08054C450A8E70B780C6900EB70
:101E90004313C3F814499EE70B7814FB0363034410
:101EA0001D6925F0C0451D610B7814FB03640444D3
:101EB000236943F000532361D1E700BF0000F81FFE
:101EC000F0B44B78012B3DD00D7820244FF43063D3
:101ED00014FB053505442E69F60CF6042E610D78C9
:101EE00014FB053303441C6924F0FF5424F4C0148C
:101EF0001C614B691BBB0B7820244FF4306614FB2C
:101F000003630344012A1D6945F400251D610B7814
:101F10008D6814FB03630344C5F312071D6945EA8A
:101F200007051D615AD00A784FF4306303EB421362
:101F3000C25842F00442C2500020F0BC70478B6887
:101F40004B61D8E74B69002B4FD00D7820244FF41C
:101F5000106314FB053505442E69F60CF6042E615A
:101F60000D7814FB053303441C6924F0FF5424F45A
:101F7000C0141C618B684C690D789C4288BF4B6112
:101F800020244FF4106314FB053505442E6946F4F4
:101F900000262E610E784D6914FB06330344C5F309
:101FA00012051C692C431C610B7820254FF4106628
:101FB00015FB0363012AC45844F00444C45032D0D2
:101FC0004B69002BB8D00978D0F8342801238B4016
:101FD0001343C0F83438F0BC002070470A78CB684F
:101FE00014FB0264044463619DE70C7820234FF4E2
:101FF000106613FB04640444256925F0FF5525F49D
:10200000C01525610C7813FB04640444256945F46C
:10201000002525610C7813FB046303441C69E40C60
:10202000E4041C61C0E70A780B6915FB02652844CB
:10203000436181E710B49DF804406CB903339B08F9
:102040000AD000F5805000EB023201EB830451F816
:10205000043B1360A142FAD100205DF8044B7047A5
:10206000033292080CD010B400F5805401EB8200CA
:10207000236841F8043B8142FAD15DF8044B704774
:10208000084670474B7870B4012B0B780CBF4FF4A7
:1020900010654FF43065202212FB03531C181E58A4
:1020A000002E07DB1C5824F080441C500B7812FBD8
:1020B00003521418236843F400132360002070BCFB
:1020C000704700BF4B7830B4012B0B780CBF4FF436
:1020D00010654FF43065202414FB03531A5822F482
:1020E00000121A50CB78023B012B06D80B7814FB58
:1020F0000354235843F080532350002030BC7047D2
:10210000D0F8003823F4FE63C0F80038D0F8003867
:10211000090101F4FE611943C0F80018002070475E
:1021200008B500F50062536823F0020303205360F2
:1021300000F0CEFF002008BD08B500F5006253682E
:1021400043F002030320536000F0C2FF002008BDEB
:102150004369806918407047D0F8183800F500606E
:10216000C0691840000C704700F50063D0F81808EB
:10217000DB69184080B2704700F5306303EB411112
:1021800000F500608B6840691840704710B4D0F8C3
:102190001048D0F8343800EB4110CB40DB01DBB203
:1021A000D0F80809234318405DF8044B704700BF7E
:1021B000406900F001007047D0F8003923F4FF6354
:1021C00023F0070300F50062C0F80039936803F0BC
:1021D0000603042B05D1D0F8003943F00303C0F8FF
:1021E0000039536843F4807353600020704700BF88
:1021F00010B40024C0F8104BD0F8104B44F4002465
:10220000C0F8104BD0F8104B44F01804C0F8104B35
:10221000D0F8104B012944F0C044C0F8104B05D150
:102220004FF08021C0F8142BC0F8001B00205DF88F
:10223000044B7047054A064BA2FB00208009013879
:1022400000210522586099601A607047D34D6210D2
:1022500010E000E0014B1860704700BF2C04002024
:1022600010B5D0F81C32D0F818425BB194F80002D7
:10227000FF2807D09B6894F8012221469847FF2346
:1022800084F80032002010BD4323038000487047CB
:10229000300400204323038000487047FC040020E2
:1022A0004323038000487047B80400200A230380BA
:1022B00000487047AC04002038B50446D0F81852E6
:1022C00001F096FCC5F80C02D4F818324BB1D4F8E2
:1022D0001C32D5F80402DB6805F50371984700202D
:1022E00038BD022038BD00BFD0F818323BB110B560
:1022F0000024C3F8144201F0C5F9204610BD0220A5
:10230000704700BF70B50B78D0F8186213F0600208
:102310000C46054611D0202A0DD1CA8812B31B06DF
:1023200014D44B7886F80032CB8886F80132CA88FC
:10233000314600F039FC002070BD4B780A2BFAD1F1
:102340000B49012200F01AFC002070BDD0F81C32AD
:1023500048789B683146984728463146E28800F025
:102360000DFCE8E7D0F81C3248789B689847E2E714
:10237000AC09002010B58121044601F0D1FB0121F8
:10238000204601F0CDFB2046822101F0C9FBD4F8A4
:10239000183253B1D4F81C325B689847D4F818024D
:1023A00001F030FC0023C4F81832002010BD00BF3B
:1023B000F8B5037C04468121022263BB4FF400730D
:1023C00001F09EFB2046012102224FF4007301F030
:1023D00097FB822103220823204601F091FB4FF452
:1023E000077001F00BFC0546C4F8180218B3D4F8C6
:1023F0001C3200261B689847C5F81462C5F818629D
:10240000277CD5F804222046012177B1402301F032
:10241000E1FB3046F8BD402301F072FB204601216C
:102420000222402301F06CFBD3E74FF4007301F06C
:10243000D1FB3846F8BD0120F8BD00BF19B1C0F886
:102440001C12002070470220704700BFD0F81832DD
:102450000020C3F80812C3F810227047D0F81832D1
:102460000020C3F804127047D0F8183273B1D3F8C3
:1024700014220AB1012070470122C3F814228121DD
:10248000D3F80822B3F8103201F096BB022070474F
:10249000D0F8182282B110B5047CD2F804220121B0
:1024A00024B1402301F096FB002010BD4FF40073CF
:1024B00001F090FB204610BD0220704788B108B59E
:1024C000D0F8143213B10023C0F8143209B1C0F8A7
:1024D00010120123027080F8FC3101F0D1FA0020C3
:1024E00008BD0220704700BF19B1C0F814120020C7
:1024F00070470220704700BF08B501F0F3FA0020D2
:1025000008BD00BF08B5D0F8143213B11B68984756
:1025100008B1022008BD08BD08B5D0F814325B68C8
:102520009847002008BD00BF38B5044600F5027585
:10253000284600F0E9FA94F80812B4F80E32C4F80C
:10254000F831012201F01F039342C4F8F42115D0A1
:102550000ED3022B06D0204601F0800101F0EEFAE6
:10256000002038BD2046294600F066FA002038BD1C
:102570002046294600F0E8F8002038BD20462946CC
:1025800000F03CFA002038BD10B5044631B91346BE
:10259000D0F8F421032A0CD0002010BDD0F814325A
:1025A0009B69002BF8D090F8FC21032AF4D19847BE
:1025B000F2E7D0F80C11D0F8102191420CD8D0F8E5
:1025C00014321B691BB190F8FC21032A0FD020465E
:1025D00000F002FB002010BD891A8A4228BF0A467B
:1025E00092B2C0F80C11194600F0EEFAD4E7984701
:1025F000EDE700BF70B5044651B91346D0F8F42199
:10260000022A15D094F80032012B0CD0002070BDA6
:10261000D0F814325B69002BF8D090F8FC21032A23
:10262000F4D19847F2E7002384F80032002070BD0F
:10263000C669026A964223D88369B3FBF2F502FBAE
:1026400015358DB99A420FD8D0F8F82193420BD2A4
:102650002A4600F0A1FAC4F8F851204629462A4635
:102660002B4601F0B7FACDE7D4F81432DB681BB182
:1026700094F8FC21032A0BD0204600F0B9FAC1E7F8
:10268000B21A0D46C261194692B200F085FAE4E72B
:1026900020469847F0E700BF38B5002104464023A4
:1026A0001D460A4601F02CFA2B460022C4F81051B0
:1026B0002046802101F024FAD4F818322562012244
:1026C00084F8FC212BB1D4F8143221795B682046C0
:1026D0009847002038BD00BF01740020704700BF3C
:1026E00090F8FC2180F8FD21042380F8FC310020C3
:1026F000704700BF0346002093F8FD2183F8FC21BA
:10270000704700BF08B590F8FC21032A01D00020D3
:1027100008BDD0F81432DB69002BF8D098470020B0
:1027200008BD00BF002070470020704700207047A0
:1027300008B50121D0F8142280F8FC115268017903
:102740009047002008BD00BF30B54B7883B00D46E0
:102750000446092B0BD8DFE803F035490A590A056E
:10276000660A7D158B8813B9CB88002B7FD080211A
:10277000204601F0E3F92046002101F0DFF90020B6
:1027800003B030BD89789C4D01292970EFD890F8AD
:10279000FC31022B00F08980032BE8D1002900F0E6
:1027A00020814168012909D0C9B2FFF7B5FE297817
:1027B00061602046FFF7A6FE0228D8D0204600F030
:1027C0000BFADCE790F8FC310122023B93424FF018
:1027D0000301CCD8D0F80432C26003B1C1602046F6
:1027E00004F10C01022200F0C9F9C8E790F8FC31AD
:1027F000023B012BBBD84B88012BC0D10022D0F863
:102800001432C0F804229B689847D7E74B88012B05
:10281000B5D1D0F81422C0F8043293689847204606
:1028200000F0DAF9ABE74A88130A013B062B9ED881
:1028300001A151F823F000BF1D290008412900081B
:102840002F2900086F2700086F27000805290008B6
:10285000C5280008CA88012A89D190F8FC31022BCA
:102860001CD0032B83D1011D00F088F987E790F875
:10287000FC318D78032B05F07F053FF478AF80F8AD
:10288000FE51294601F08AF9204600F0A5F9002DF5
:1028900000F09980022384F8FC3170E701460023A0
:1028A00041F8083F00F06AF969E7002986D0012164
:1028B0000323416080F8FC31FFF724FE02287FF4F7
:1028C0007DAF54E7037C002B7FF451AFD0F8143276
:1028D0000DF106001B6B9847072301464370BDF8B6
:1028E0000630002B3FF44BAFEA88002A3FF447AF95
:1028F000934228BF13461A462046ADF8063000F032
:102900003DF93CE7037C002B7FF431AFD0F8143263
:102910000DF106005B6B98470146E0E7D0F81032F6
:10292000007C1B680DF1060198470146D7E7D2B23B
:10293000052A3FF61CAFDFE802F02B2219103D34C8
:10294000037C002B43D1D0F814320DF106009B6AB2
:102950009847022301464370C1E7D0F81032007C4B
:102960001B690DF1060198470146B8E7D0F810320F
:10297000007CDB680DF1060198470146AFE7D0F80F
:102980001032007C9B680DF1060198470146A6E7CE
:10299000D0F81032007C5B680DF1060198470146C3
:1029A0009DE7D0F81032007C9B690DF10601984735
:1029B000014694E7D0F81032007C5B690DF1060106
:1029C000984701468BE7012384F8FC31D7E6D0F81D
:1029D00014320DF10600DB6A98470223014643706A
:1029E0007DE70223416080F8FC31FFF795FD20462A
:1029F00000F0F2F8C3E600BFAD09002038B590F84A
:102A0000FC31032B044603D10B79012B0D4608D969
:102A1000802101F093F82046002101F08FF800207A
:102A200038BDD0F814329B689847EB88002BF6D15C
:102A3000204600F0D1F8F2E770B50B788A8803F0F1
:102A40006003202B0C460546D6B255D04B78012B9F
:102A500034D019D3032B15D190F8FC31022B31D08F
:102A6000032B40D14B8823B9730602D0314601F0C5
:102A700065F8D5F8143221469B68284698472846C1
:102A800000F0AAF8002070BD90F8FC31022B19D09C
:102A9000032B28D106F07F04130600EB0414314603
:102AA0004CBF143404F5827401F064F848BB206014
:102AB00028462146022200F061F8E3E790F8FC3155
:102AC000022B05D17206DDD0314601F037F8D9E787
:102AD000032B08D14B88002BD4D17106CFD03146BF
:102AE00001F03AF8C5E7802101F028F828460021D6
:102AF00001F024F8002070BDD0F814329B6898478C
:102B0000C0E701232360D3E70B7803704B78437051
:102B1000CA788B7803EB022343804A790B7903EB65
:102B200002238380CA798B7903EB0223C380704729
:102B300000B3037830B4F3B10446002314F8015F06
:102B40000133DBB2002DF9D15B000233DCB2032587
:102B500013800C704D7004785CB1022300255A1C60
:102B6000D2B2CC548D5410F8014F0233DBB2002C9A
:102B7000F5D130BC704702242346E8E738B5134648
:102B800002250A468361C361C0F8F451002101F0B7
:102B900013F8002038BD00BF08B513460A460021CF
:102BA00001F00AF8002008BD38B5134603250A468F
:102BB000C0F80831C0F80C31C0F8F451002101F020
:102BC00009F8002038BD00BF08B513460A460021A9
:102BD00001F000F8002008BD08B500210423C0F86A
:102BE000F4310A460B4600F0E7FF002008BD00BFA5
:102BF00008B500210523C0F8F4310A460B4600F061
:102C0000E9FF002008BD00BF08B500F069F9BDE884
:102C1000084000F043BC00BF704700BF08B500F09B
:102C20001DFA00F0A3FC00F067FC00F085FA00F04C
:102C300009F8FFF7F1FF002000F02AFD003018BF6F
:102C4000012008BD08B502204FF4005100F0E4FA5D
:102C500002204FF40051BDE8084000F00DBB00BF5A
:102C60000120704702204FF4005100F00DBB00BF5F
:102C700002204FF4005100F0FFBA00BF02204FF4D1
:102C8000005100F009BB00BF08B54FF4005102200D
:102C900000F012FBB0FA80F0400908BDBFF34F8F7F
:102CA0000549064BCA6802F4E0621343CB60BFF3E8
:102CB0004F8F00BFFDE700BF00ED00E00400FA0504
:102CC00008B501460C220123024801F079FE0120DB
:102CD00008BD00BF107AFF1F2DE9F04FA5B024A951
:102CE0000F23002441F8543D02260323704810931B
:102CF000119614941394FEF73FFB6E4B6E485A6C7A
:102D000042F480725A645B6C03F480730593059BF4
:102D1000FEF726F924A94FF4003341F8803D6648B8
:102D2000FEF72CF96548FEF739F94FF4807307A9CF
:102D3000624809934FF4407508940794FEF796F99A
:102D400095FAA5F84FF440135C480B930AA90D9629
:102D50000A940C940E95FEF7A3F9B8FA88F303933E
:102D60004FF0007393FAA3F7B7FA87F2D340B3405A
:102D7000DFF864C1DFF858E101934FF0F87A9AFA6E
:102D8000AAF9B9FA89F30293019B4D499AFAAAF577
:102D9000002F14BF1A463A4604EB44031144B9F11C
:102DA000000F029AB5FA85FB44EA035308BF2022BC
:102DB00003F0F87020FA02F60722B2400E6826EA05
:102DC00002020DB94FF0200B20FA0BF007268640C7
:102DD00032430A605CF8041B039D3A48B8F1000FC7
:102DE00008BF202501F44072EA409200104401F02F
:102DF0001F0102681F252B408D4022EA05058B40EC
:102E000001342B43042C4FF0000503602EF8025BC5
:102E1000BAD12A4E274BB2682B4F2C48DFF8BCA002
:102E200042F00102B2601A6B42F480021A631B6B1B
:102E300003F480030693069B3B6823F001033B6089
:102E40002946FEF759F9224A169229464FF4005CAA
:102E50004FF4803E032315AA4FF4807B4FF4806922
:102E60004FF4006819482193179519951D941E95E4
:102E7000209522952395CDF860B0CDF854A0CDF8DB
:102E80006890CDF86C80CDF870C0CDF87CE0FEF78E
:102E900027FA3B680F4A43F001033B60B368012106
:102EA00043F08043B360117025B0BDE8F08F00BFE0
:102EB0000000024000380240002301400020014091
:102EC0000C2001402C2001401064024000640240AC
:102ED000103B0020AE090020C04401084C200140F6
:102EE00010B586B006A90F23002441F8183D0E48FE
:102EF00001940223029305940494FEF73DFA0B48D3
:102F0000836823F001038360FEF748F8084A094804
:102F1000136823F0010313602146FEF7EDF8064B1A
:102F20001C7006B010BD00BF000002400020014030
:102F30001064024000640240AE090020074B9FED80
:102F4000087A33F810309FED070A07EE903AF8EE52
:102F5000E77A67EE877A27EE800A7047103B0020F9
:102F600033335340000080390420704738B5314A6C
:102F7000136823F00F0343F002031360136803F098
:102F80000F03022B00D0FEE72B492C4B0A6822F4DA
:102F9000404242F400420A601A6842F480321A60E9
:102FA0001A461168254B8803FBD55D68244C254AD9
:102FB000254826492C4022435A605A6822F4403260
:102FC00042F480325A605A681040014359601A68CE
:102FD00042F080721A601A461168184B8901FBD5BD
:102FE0009A6822F0F0029A609A6822F4E05242F461
:102FF00080529A609A6822F460429A609A6822F03D
:10300000030242F002029A609A6802F00C02082A57
:10301000FAD10F48FFF70EF90E4A0D48136843F036
:1030200004031360FFF716F90B4B0022D96883F8ED
:10303000232038BD003C02400070004000380240B0
:103040000080BFFF195440000080BFF019544007B2
:1030500000BD010510E000E000ED00E000B5194AF8
:10306000194B506C194940F480405064506C83B047
:1030700000F4804001900198106C40F08050106482
:10308000126C02F080520092009AD8684FF6FF024C
:1030900002401143D9600022D9681A76D9685A765D
:1030A000D9689A76D968DA77D96883F82020D96800
:1030B00083F82220D96883F82320FFF757FF03B055
:1030C0005DF804FB0038024000ED00E00003FA0563
:1030D00000F01AB882B0002210F1FF3012D3019232
:1030E000019B032BF8D800BF00BF00BF00BF00BF8B
:1030F00000BF019B01330193019B032BF3D910F116
:10310000FF30ECD202B0704782B041F62C2210F1B1
:10311000FF300CD30192019B002BF8D0019B013BA7
:103120000193019B002BF9D110F1FF30F2D202B0D4
:10313000704700BF062070471C4B1A6B42F001021B
:103140001A631A6B86B002F001020092009A1A6BA1
:1031500042F002021A631A6B02F002020192019A13
:103160001A6B42F004021A631A6B02F00402029214
:10317000029A1A6B42F008021A631A6B02F00802F4
:103180000392039A1A6B42F010021A631A6B02F050
:1031900010020492049A1A6B42F080021A631B6BAD
:1031A00003F080030593059B06B07047003802408A
:1031B00000B587B006AB094A43F8181D52F8200045
:1031C000194602220023019303930493059302926C
:1031D000FEF7D2F807B05DF804FB00BFE044010839
:1031E00010B5002A86B002D0D4BF0222012206AB5D
:1031F000084C43F8181D049219460222002354F883
:1032000020000193039305930292FEF7B5F806B0F0
:1032100010BD00BFE044010810B586B006AB094AF6
:1032200043F8181D52F820001946022200230124F9
:1032300001940393049305930292FEF79DF806B060
:1032400010BD00BFE044010810B586B006AB094AC6
:1032500043F8181D52F820001946012200230224C9
:1032600001920392049305930294FEF785F806B049
:1032700010BD00BFE0440108024B53F820309961B3
:10328000704700BFE0440108024B53F820300904A6
:1032900099617047E0440108064B53F820004369E8
:1032A00001EA0302994318BF81610AB112048261E5
:1032B000704700BFE0440108024B53F82030186902
:1032C00008407047E04401084163704781637047DC
:1032D000C1637047016470472DE9F04F644C236C63
:1032E00095B043F00103236414AB256C0F2443F81D
:1032F000484D05F0010504460F46019519464FF06B
:10330000010E022300265B48019D05931546039399
:10331000CDF818E00496FDF771F8002C00F0A080BD
:103320006100002FD8BF6427534A544B544CDFF838
:103330006891CCBFB8B238464FF0804B1080DBF8B4
:10334000000020F00100CBF80000B2F900201B685B
:10335000002D4FF0000A02F1FF32B8BF322601FB08
:1033600007F15846B3FBF1F307A903F1FF330992C4
:10337000ADF81C30ACBFAEB23546CDF820A0CDF8CC
:1033800028A08DF82CA0FEF705F90CA8FEF754F93B
:103390003C4FCDF83CA060220123CDF840A00C9218
:1033A0000D9334F8028B4FF0804041460CAAFEF793
:1033B0004DF9B8F1010F4FD0B8F1040F4AD0B8F170
:1033C000100F4BD0B8F1400F4DD0B8F5807F4CD0E6
:1033D000B8F5806F0CBF052206222B4919F8023080
:1033E00011F802C0294903F1804311F802E028498D
:1033F000885C9A69032101FA0CF122EA01029A61C0
:10340000DBF8201057F82A30022202FA0EF221EAE5
:103410000202CBF82020DBF804104FF480728240C7
:1034200021EA02024FF08048CBF8042040462946AA
:103430009847184B23F81A600AF1010ABAF1040FF1
:10344000AFD1D8F8003043F00103C8F8003015B010
:10345000BDE8F08F0122C0E70022BEE70222BCE7F0
:103460004FF4FA615DE70322B7E70422B5E700BF36
:103470000038024000000240400500202C040020DB
:103480000045010808450108F844010818450108ED
:1034900028450108B00900202045010800B587B083
:1034A00006A90F2341F8143D022200230748049285
:1034B000029305930393FCF7A1FF4FF0804213683A
:1034C00023F00103136007B05DF804FB0000024025
:1034D00038B50446054B4FF0804053F824300D4674
:1034E0009847034B23F8145038BD00BF0845010826
:1034F000B00900200420704708B50F4A136843F450
:10350000807313600120FFF7FFFD0C4B0C4A196814
:10351000914207D00A4A1A6000214FF0FF325960E9
:103520009A6008BD9A685968D2439142F2D101313C
:10353000CA4359609A6008BD00700040A00900208D
:10354000424F4F54044B054A1A6000214FF0FF329E
:1035500059609A60704700BFA0090020424F4F5445
:10356000014B5868704700BFA0090020044B45F28A
:10357000555040F6FF710222186099605A607047FA
:1035800000300040024B4AF6AA221A60704700BF82
:10359000003000402DE9F04FDFF8DCA0DFF8DC80E0
:1035A0009AF800302F4F304EDFF8D4B083B0002BA4
:1035B0002E4BD8F800002E4C08BF1D462D4B0DF1A8
:1035C00007014FF0FF321CBF5D461C4601F0B8FCFE
:1035D00010B99AF80030EAE701F040FC9DF8073096
:1035E0002B70012300EB03092360D8F800000DF1D4
:1035F0000701012201F0A4FC28B123689DF80720EF
:10360000EA540133236001F029FC814502D3236889
:103610003E2BEADDDFF84C9073684FF0FF31A3B129
:10362000386801F0D5FCC0B12846218800F084F943
:1036300058B1D9F8000001F0B7FC012001F01EFCE0
:1036400073684FF0FF31002BEAD19AF90030B3FADA
:1036500083F35B098AF80030A9E7012001F00EFC32
:10366000DAE700BFB43300203C3100206033002093
:10367000A4330020AC330020A8330020A033002066
:10368000FC300020014B186801F098BCB4330020D6
:1036900030B5234B2348244C244D83B08021012294
:1036A00001F026FC224B20603F210122214801F03D
:1036B0001FFC28600120204A014601F073FC1F4ACC
:1036C0002368106033B32B6823B308B31C4B1D4D24
:1036D0001D4A019200240321009122461C601B48D0
:1036E0001B492C604FF4987301F0ECFBA8B1002249
:1036F00018491948FEF7E2FE18491748FEF7F4FE8C
:1037000017491548FEF79AFE1348FEF7F5FE01200B
:1037100003B030BD184603B030BD02F00FFAE6E743
:103720005045010838450108B0330020A03300207F
:103730005845010840450108FC0B0020B433002027
:10374000AC330020A433002030450108484501086F
:1037500095350008540500203C31002074040020F9
:10376000440500200120704708B5054B186801F09A
:10377000D3FB0449044A00230B60136008BD00BF5B
:10378000B0330020AC330020A433002010B5074B29
:10379000044601464FF0FF32186801F0D1FB0028C3
:1037A00014BF20464FF0FF3010BD00BFB0330020E3
:1037B00010B5064B04460A460146186801F0C0FBE6
:1037C000002814BF20464FF0FF3010BDB03300205A
:1037D0002DE9F047B1F1000A25DD144D144F0446E0
:1037E000A84600EB0A064FF0010908E001F098FB3B
:1037F000002308B188F800300134B44210D02B788F
:10380000386821460022002BF0D12146FA2201F02F
:1038100087FB0028F0D10134B44288F80090EED143
:103820005046BDE8F0874FF0000AF9E7080A00208B
:10383000A033002000B583B002AB012103F8010DD5
:103840001846FFF7C5FF03B05DF804FB0020704782
:1038500070B50D685DB10446094E01E0013D06D02A
:103860002146306801F07AFB01340028F6D1054981
:103870000548FEF7F3FD0448FEF70AFE002070BD80
:10388000B0330020B83300203C31002038B50C4C58
:103890000C490D4D00222046FEF7D8FD20460B496D
:1038A0000B4CFEF7DBFD0B4B00204FF416510822AA
:1038B000286020601871587119609A7138BD00BF76
:1038C0003C31002060330020AC330020B8330020AE
:1038D000A433002038340020202813D021280FD111
:1038E000144B1A680A701A68120A4A705A888A7049
:1038F000DA78CA701A790A715A794A719B798B7190
:1039000000207047F0B588784B780A78CF7891F826
:1039100004E04E798D79074C010441EA03231343F7
:1039200043EA076384F804E023606671A571002010
:10393000F0BD00BF3834002010B5094CD4F818325F
:10394000D3F814320BB1012010BD0A4601462046BF
:10395000FEF77CFD2046BDE81040FEF785BD00BFA8
:103960003C3100200368B3F1A04F00D0704730B560
:1039700087B04FF4C0510024022203230A2501918D
:103980001048029201A9049303940595FCF736FDB3
:103990000D4B5A6B42F080025A6300945A6C42F409
:1039A00080425A645B6C03F48043294622460093AC
:1039B0004320009BFCF7DEFC4320FCF711FD07B021
:1039C00030BD00BF000002400038024000F56F71BA
:1039D000D0F8EC03FEF7A8BDC1EBC10300EB8303F5
:1039E000D0F8EC03D3F80422FEF7CEBDC1EBC1033F
:1039F00000EB8303D0F8EC035A6CFEF7FBBD00BF6D
:103A0000D0F8EC03FEF77EBE10B5C1680446003165
:103A1000D0F8EC0318BF0121FEF75EFED4F8EC03EA
:103A2000BDE81040FEF738BE10B50446D0F8EC03F0
:103A3000FEF756FE2268D2F8003E43F00103C2F8BA
:103A4000003E236A23B1034A136943F0060313615E
:103A500010BD00BF00ED00E0D0F8EC03FEF74ABE59
:103A6000D0F8EC03FEF760BED0F8EC03FEF75ABEC8
:103A7000D0F8EC03FEF75ABED0F8EC03FEF758BEC0
:103A800002780AB10020704738B5154B0221C3F8FF
:103A9000EC034FF0A0450424C0F8203218461A6108
:103AA0005A61DA611A625A62DA621A631D605C60F6
:103AB000D9609961FCF780FD78B980210848FDF74D
:103AC00045FA002140220648FDF71AFA012180221A
:103AD0000348FDF715FA002038BD02F02FF8ECE797
:103AE0004034002008B5D0F82002FCF7D3FD0328AD
:103AF0009ABF024B185C022008BD00BF6845010850
:103B000010B51446D0F820021A462346FDF7E6F811
:103B100003289ABF014B185C022010BD6C450108B8
:103B200008B5D0F82002FDF715F903289ABF024B1B
:103B3000185C022008BD00BF7445010808B5D0F824
:103B40002002FDF781F903289ABF024B185C02207E
:103B500008BD00BF7045010808B5D0F82002FDF788
:103B6000A5F903289ABF024B185C022008BD00BFCC
:103B7000784501080B06D0F8202206D4C1EBC1011C
:103B800002EB810191F8FA01704701F07F03C3EB6A
:103B9000C30302EB830393F83A00704708B5D0F8EB
:103BA0002002FDF789F803289ABF024B185C022017
:103BB00008BD00BF7C45010808B5D0F82002FDF71C
:103BC00021F903289ABF024B185C022008BD00BFF0
:103BD0006045010808B5D0F82002FDF7E3F8032896
:103BE0009ABF024B185C022008BD00BF6445010863
:103BF00008B5D0F82002FDF7FBF808BD0048704773
:103C0000F00C0020704700BF0148FCF759BD00BF11
:103C10004034002012230B800048704774050020B8
:103C200004230B80004870477005002010B5044C39
:103C300004480A462146FEF77BFF204610BD00BF20
:103C4000303800208045010810B5044C04480A466D
:103C50002146FEF76DFF204610BD00BF3038002022
:103C60008C45010810B5044C04480A462146FEF76D
:103C70005FFF204610BD00BF30380020AC45010872
:103C800010B5044C04480A462146FEF751FF204671
:103C900010BD00BF30380020B845010830B5074CD2
:103CA00089B00D466846FFF70BF868462A4621465C
:103CB000FEF73EFF204609B030BD00BF303800207F
:103CC00000F056BC00F024BA00F05CB908B900F06E
:103CD0001DB800F0B9B800BF10B58BB2044621463C
:103CE00010461A4600F0B6F9002010BD10B58BB290
:103CF0000446214610461A4600F078FB002010BD0D
:103D000008B500F0A1FA002008BD00BF102110B5D1
:103D10004A480022FCF74CFC49498A68484B900706
:103D2000FBD55022DA609A68454CD207FBD5434850
:103D3000E36810210122FCF73BFC404810210022DF
:103D4000FCF736FC3F4B1B78002B52D0A2683C4B53
:103D50009007FBD50122DA601A469168384BC907F3
:103D6000FBD5DA681A469168354B8C07FBD50022E3
:103D7000DA601A469168324BC807FBD5DA681A46F2
:103D800091682F4B8907FBD53122DA601A4691687A
:103D90002B4BCC07FBD5DA681A469168284B88076D
:103DA000FBD50022DA601A469168254BC907FBD57E
:103DB000DA681A469168224B8C07FBD51122DA602B
:103DC0001A4691681E4BC807FBD5DA681A469168F7
:103DD0001B4B8907FBD50022DA609A681849D40783
:103DE000FBD5CB68154810210122BDE81040FCF737
:103DF000DFBBA268124B9007FBD50122DA601A469E
:103E000091680F4BC907FBD5DA681A4691680C4BCD
:103E10008C07FBD50022DA601A469168084BC80768
:103E2000FBD5DA681A469168054B8907FBD5002255
:103E3000DA609A680249D207FBD5D2E70000024057
:103E400000300140100F0020102110B54A48002218
:103E5000FCF7AEFB49498A68484B9007FBD55022D6
:103E6000DA609A68454CD207FBD54348E3681021D5
:103E70000122FCF79DFB404810210022FCF798FB33
:103E80003F4B1B78002B52D0A2683C4B9007FBD5D0
:103E90000122DA601A469168384BC907FBD5DA6807
:103EA0001A469168354B8C07FBD53C22DA601A46DE
:103EB0009168324BC807FBD5DA681A4691682F4BD8
:103EC0008907FBD53122DA601A4691682B4BCC0763
:103ED000FBD5DA681A469168284B8807FBD5002283
:103EE000DA601A469168254BC907FBD5DA681A468D
:103EF0009168224B8C07FBD51122DA601A46916833
:103F00001E4BC807FBD5DA681A4691681B4B890718
:103F1000FBD50022DA609A681849D407FBD5CB6834
:103F2000154810210122BDE81040FCF741BBA268F2
:103F3000124B9007FBD50122DA601A4691680F4BAD
:103F4000C907FBD5DA681A4691680C4B8C07FBD57C
:103F50001C22DA601A469168084BC807FBD5DA685C
:103F60001A469168054B8907FBD50022DA609A68EA
:103F70000249D207FBD5D2E70000024000300140E1
:103F8000100F0020102110B52F480022FCF710FB65
:103F90002E498A682D4B9007FBD50522DA601A4618
:103FA00091682A4BC907FBD5DA681A469168274BF6
:103FB0008C07FBD5A522DA601A469168234BC80707
:103FC000FBD5DC681A46E0B29168204B8907FBD527
:103FD0003522DA601A4691681C4BCC07FBD5DA68AB
:103FE0001A469168194B8907FBD5A522DA609A68B1
:103FF0001649D407FBD5164BCC681B78E4B200EB0E
:104000000424D3B18A68114B9207FBD51522DA60DC
:104010001A4691680D4BC807FBD5DA681A469168B5
:104020000A4B8907FBD5A522DA609A680749D207AF
:10403000FBD5CB68DBB204EB03440348102101221B
:10404000FCF7B6FA204610BD0000024000300140E7
:10405000100F002070B504460E46154610212A4860
:104060000022FCF7A5FA29498A68284B9207FBD55C
:104070000322DA601A469168244BC807FBD5DA6838
:10408000C6F307401A469168204B8907FBD5D860D4
:104090001A4691681D4BC807FBD5DA68C6F307209E
:1040A0001A469168194B8907FBD5D8601A46916862
:1040B000164BC907FBD5DA681A469168134B880777
:1040C000FBD5F6B2DE601A469168104BC907FBD5E6
:1040D000681EDA6880B27DB1013020441946A525FA
:1040E0009A689607FCD5CD609A68D207FCD5CA6855
:1040F00004F8012B8442F3D1034810210122BDE8CA
:104100007040FCF755BA00BF00000240003001408B
:10411000102170B526480022FCF74AFA25498A6822
:10412000244B9407FBD59F22DA601A469168214BF5
:10413000C807FBD5DA681A4691681E4B8907FBD57C
:10414000A522DA601A4691681A4BCE07FBD5DC68C7
:104150001A46E4B29168174B8D07FBD5A522DA60A9
:104160001A469168134BC807FBD5DD681A46EDB2B5
:104170009168104B8907FBD5A522DA609A680D4932
:10418000D207FBD5CE680A4810210122FCF710FAAD
:104190002802F6B240EA0440304301D0EF2C00D0B0
:1041A00070BD172E044B94BF002601261E7070BDF3
:1041B0000000024000300140100F0020102108B51F
:1041C0000B480022FCF7F4F90A498A68094B90076A
:1041D000FBD50622DA609A680649D207FBD5CB6880
:1041E000034810210122BDE80840FCF7E1B900BFF7
:1041F000000002400030014010B51148102100229B
:10420000FCF7D6F90F4B05241946A5209A689207AA
:10421000FCD5CC609A68D207FCD5CA689A68920728
:10422000FCD5C8609A68D207FCD5CA68D207EDD41D
:10423000034810210122BDE81040FCF7B9B900BFC6
:10424000000002400030014010B50446FFF75EFD5B
:10425000FFF7B4FF102121480022FCF7A9F92049FB
:104260008A681F4B9207FBD5D822DA601A469168FC
:104270001B4BC807FBD5DA68C4F307401A469168A0
:10428000174B8907FBD5D8601A469168144BC807AD
:10429000FBD5DA68C4F307201A469168104B8907EA
:1042A000FBD5D8601A4691680D4BC807FBD5DA6874
:1042B0001A4691680A4B8907FBD5E4B2DC609A681C
:1042C0000749D207FBD5CB68044810210122FCF72F
:1042D0006FF9BDE81040FFF78FBF00BF000002403C
:1042E0000030014008B5FFF711FDFFF767FF10210F
:1042F0000C480022FCF75CF90B498A680A4B9007CE
:10430000FBD5C722DA609A680749D207FBD5CB688C
:10431000044810210122FCF74BF9BDE80840FFF7E3
:104320006BBF00BF000002400030014070B5044682
:104330000E461546FFF742FF10212A480022FCF7DF
:1043400037F929498A68284B9207FBD50222DA609F
:104350001A469168244BC807FBD5DA68C6F30740B4
:104360001A469168204B8907FBD5D8601A46916898
:104370001D4BC807FBD5DA68C6F307201A469168BB
:10438000194B8907FBD5D8601A469168164BC907A7
:10439000FBD5DA681A469168134B8807FBD5F6B24D
:1043A000DE601A469168104BC907FBD56A1ED968B2
:1043B00092B275B1A518611E184611F8014F9A689E
:1043C0009607FCD5C4609A68D207FCD5A942C2689A
:1043D000F3D1044810210122FCF7EAF8BDE870404F
:1043E000FFF70ABF00000240003001402DE9F0470E
:1043F000130A904611F0FF020D46824622D1ABB35C
:10440000DBB203F1FF395FFA89F9064693B109F18E
:104410000106044600EB06260F1A4FF48072204670
:10442000E1191444FFF782FFB442F6D105F5807517
:1044300005EB0925304629465FFA88F2BDE8F047CA
:10444000FFF774BF5442E4B2BBB95FFA88F39C42F1
:104450000CD21A44D6B22246FFF768FF32460AEB66
:1044600004006119BDE8F047FFF760BF50462946D8
:104470004246BDE8F047FFF759BFA2B2C2EB0808B9
:104480001FFA88F84FEA18295FFA89F65FFA88F769
:1044900006F1FF38FFF74AFF25440AEB04065FFAEE
:1044A00088F8B9F1000F1CD008F1010A344606EB78
:1044B0000A2AAE1B4FF480722046A1191444FFF75C
:1044C00035FF5445F6D105F5807505EB08250FB984
:1044D000BDE8F087504629463A46BDE8F047FFF769
:1044E00025BFB246F3E700BF2DE9F0431E4B1F4D39
:1044F0005A6C87B042F480525A6406AC5B6C20223E
:1045000044F8142D03F480530093052621462846D1
:1045100002234FF003090027009A0293CDF8109070
:1045200003970596FBF76AFF2146284680230193EF
:104530004FF001080596FBF761FF2146284640230E
:1045400001930596CDF80C80FBF758FF1023214608
:104550002846CDF81090CDF8088003970193FBF71B
:104560004DFF07B0BDE8F083003802400000024074
:10457000F0B5144D8BB0FFF7B7FF1348102101229F
:10458000FCF716F800244FF4827E4FF400720723E4
:104590002846022701266946059209930094029451
:1045A000069407940894CDF804E003970496FCF76A
:1045B000B3FF2B68054A43F040032B6014700BB027
:1045C000F0BD00BF0030014000000240100F00208D
:1045D0000023037043704360704700BFF0B51C7840
:1045E0005E78012C01444BD048D3022C44D1884240
:1045F00014463CD007782C4D46EA97163F2E98BFBC
:1046000015F806E007F03F0688BF4FF03D0EAD5DA0
:1046100084F800E065705D680135132D00F101003C
:104620005D602FD00234884238D006781E4DB7081E
:1046300006F00306ED5D25700130360104F1010E30
:10464000884225D0077846EA17163F2E98BF164DA8
:1046500000F1010094BFAD5D3D2507F00F068842D3
:104660000EF101044FEA86068EF80050C2D10221F5
:104670005E70A01A1970F0BD0020F0BD1446D2E79C
:104680009646DDE70A270025A77003345D60CAE778
:1046900001215E70C2EB0E001970F0BD00215E704A
:1046A000A01A1970F0BD00BF184601080B78012B45
:1046B00018D0022B05D003460A2203F8012B181A42
:1046C00070474B783F2B9CBF0F4AD15C034688BF95
:1046D0003D2103F8021B3D2242700A2203F8012B00
:1046E000181A70474B783F2B9CBF074AD25C4FF09B
:1046F0003D034370837088BF3D22C31C02700A22B1
:1047000003F8012B181A704718460108002303709C
:1047100043707047F0B45C7814701C78032C7FD819
:10472000DFE804F04E341A02014416463D4F884239
:104730005AD010F8015BA5F12B042A2DE4B2F6D96A
:10474000502CF4D83C5D2506F1D4357804F03F04B4
:104750002C433470013635E001441646314F88420F
:1047600049D010F8015BA5F12B042A2DE4B2F6D94B
:10477000502CF4D83C57002CF1DB3578C4F3830778
:104780003D43A401357074700136CFE701441646ED
:10479000244F884236D010F8015BA5F12B042A2D56
:1047A000E4B2F6D9502CF4D83C57002CF1DB357824
:1047B000C4F301173D432401357074700136CDE711
:1047C00001441646174F884223D010F8015BA5F12B
:1047D0002B042A2DE4B2F6D9502CF4D83C57002CE7
:1047E000F1DBA4003470D3E70321197031785970DC
:1047F000B01AF0BC70470221197031785970B01AA4
:10480000F0BC70470121197031785970B01AF0BCB2
:1048100070470021197031785970B01AF0BC704798
:104820000020E6E7C84501082DE9F041DFF8A4C003
:10483000244DACFB013482B00F4624090646CAB9A8
:10484000A5FB04735B09A5FB03751F4A1F49C3EB56
:1048500003176D09A4EB8707C5EB0515A2FB0442FE
:10486000A3EB85030097D20A01F02CF9304602B081
:10487000BDE8F081A5FB04E34FF0FA0E0EFB1477C0
:104880005B094FF47A7EA5FB03850EFB07F70E4A02
:104890000F49ACFB07C7C3EB031E6D09A4EB8E0EDB
:1048A000C5EB05153F09A2FB0442A3EB8503CDF838
:1048B00000E00197D20A01F005F9304602B0BDE8E8
:1048C000F08100BF89888888C5B3A291704601082D
:1048D0005C460108D34D621038B50C46054600F021
:1048E000BDFA224601462846BDE83840FFF79CBF86
:1048F000F8B103780BB91846704730B583B00D4650
:10490000002201A904460FF0F3FA019B73B19C4207
:1049100001D10BE0019313F8012B202AFAD0092AC8
:10492000F8D01AB92860012003B030BD002003B0D0
:1049300030BD704728B3F0B5067883B016B90020B3
:1049400003B0F0BD14460D46002201A907460FF042
:10495000CFFA019B0646002BF1D09F4201D1EEE732
:10496000019313F8010B2028FAD00928F8D02A283F
:1049700009D00028E3D1034601202E60236003B054
:10498000F0BD00207047184601A900221F46019380
:104990000FF0AEFA019B002BD1D09F4201D1CEE7A0
:1049A000019313F8012B202AFAD0092AF8D0002A03
:1049B000C5D1012871F10003DDDB431EDCE700BF38
:1049C00070B4FAB18D1C861804782409092C94BFA0
:1049D0003034373405F8024C10F8014B04F00F0462
:1049E000092C94BF30343734B04205F8014C05F13E
:1049F0000205E9D101EB42020BB100231370084616
:104A000070BC70470A46F7E7F8B504460F461646ED
:104A10001D4600211822FBF703FC27606660A56095
:104A2000F8BD00BF2DE9F84F0346002203F8012B23
:104A30000133427003F8012B03F8012B03F8012B1B
:104A400003F8012B03F8012B1A70CE688B689E4285
:104A500060DAD1F8048058F826700C46054668499B
:104A6000022238460FF018F9F0B9237D002B54D0FC
:104A7000226813786BB1002102E012F8103F43B1B5
:104A8000042BFAD123698B4201F10101F5D1216197
:104A900013462B60E3686268591CE16052F82330CA
:104AA0006B600120BDE8F88F3B782D2BE0D1237D92
:104AB000002BDDD1731CE36058F826707A78002A49
:104AC00070D02668337823B96CE016F8103F002BBD
:104AD00068D0013B012BF8D8B3789342F5D12E6012
:104AE0003378022BDDD138460FF0A8F8022868D9B8
:104AF000BB1C6B60BB783D2BD3D1FB1C6B60FB7880
:104B0000002BCED173789B0775D500236B600120F5
:104B1000BDE8F88F1046BDE8F88F731CE36058F8C5
:104B200026703D2138460FF037F907F1020980461B
:104B3000002841D0C9EB000A266833782BB937E04A
:104B4000012A1DD916F8103F93B3032B03F1FF324E
:104B5000F6D1BAF1000FF5D12E603378032B02D1D4
:104B6000012323753378022B9BD1B8F1000F28D095
:104B700008F101036B6098F80130002BC2D090E778
:104B8000D6F804B05846BBF1000FDBD00FF056F852
:104B90008245D7D15946484652460FF07DF8002845
:104BA000D0D1D9E7002385E888000120BDE8F88F3F
:104BB000002385E8880074E748460FF03FF88246F6
:104BC000BAE77378A26813F0020FE3680AD0934241
:104BD0009BDA591C6268E16052F823306B60012057
:104BE000BDE8F88F934206DA626852F8231009781C
:104BF0002D297FF451AF034B6B600120BDE8F88F86
:104C0000844601081C5D010870B502460E465948ED
:104C1000594904F001FD002825DB337806F1100422
:104C200023B94FE014F8103B002B4BD014F80F5C65
:104C30006807F7D4514804F0EFFC002813DB14F8A0
:104C4000103C022B12D0042B05F0010518D0052BC7
:104C500024D0032B73D014F80E1CC9B1484804F0BB
:104C6000DBFC0028DEDA4FF0FF3070BDA9071DD451
:104C700054F80C1C54F8082C424804F0CDFCF0E722
:104C8000002D60D154F80C1C3F4804F0C5FCE8E747
:104C900054F80C1C3D4804F0BFFCE2E7002D58D14D
:104CA00054F80C1C3A4804F0B7FCDAE714F80E1C70
:104CB000002954D154F80C1C54F8082C354804F041
:104CC000ABFCCEE73448354904F0A6FC3378054602
:104CD000344683B924E06268002A46D0304804F0A4
:104CE0009BFC0546002DBEDBE068D8B104F076FCE5
:104CF00014F8103FA3B162785207F9D4032BF7D010
:104D0000E0680028F4D0043B012B0FD9A1780029DA
:104D1000E1D1616881B1234804F07EFC0546E1E7FA
:104D2000E81770BD204804F04DFCE1E71F486168BA
:104D300004F072FC0546D5E7002DD7DA93E71C484E
:104D400004F06AFC8DE754F80C1C1A4804F064FC6B
:104D500087E754F80C1C184804F05EFC81E754F80F
:104D6000082C164804F058FC7BE7154804F054FC66
:104D70000546B7E788460108AE5D0108345C0108C6
:104D8000E4460108B0460108C8460108EC4601089F
:104D9000D8460108A446010890460108C15D0108F3
:104DA000FC4601080C47010820550108F44601089B
:104DB00084460108C0460108D0460108984601080B
:104DC00018470108F8B5074648680D46164650B121
:104DD0000C490EF069FD044628B938463146FFF704
:104DE00013FF2046F8BD0849084A094804F014FC9E
:104DF000686804F0F3FB38463146FFF705FF4FF0D3
:104E0000FF34EEE72C470108865D0108135D0108B9
:104E10003447010838B504460EF010FF0546204619
:104E200004F0D0FB3A2004F0A7FB142D05F1010497
:104E300005DC0134202004F09FFB162CF9D138BD8D
:104E4000704700BF06F072B808B506F053FCA0F139
:104E50000200B0FA80F0400908BD00BF06F0B6B805
:104E600006F0E0BF07F000B84FF0500383F311885D
:104E7000BFF36F8FBFF34F8F704700BF06F0E6B9E7
:104E8000FA23044A03FB00F0A2FB0030800906F07D
:104E9000DDB900BFD34D621070B584B0064615462B
:104EA00003AC089A00920846C3F38F0231462B46A2
:104EB000019405F0DFFE01280CBF0398002004B028
:104EC00070BD00BFF0B585B007460B9C0A9D50CC65
:104ED0000196164608469A083946334602940095CC
:104EE00005F08EFE05B0F0BD05F0F4BE05F0B0BFD4
:104EF00030B528CB83B00024009404460846114600
:104F00002A4605F0FDF8054618B114B1214605F012
:104F10008FFC284603B030BD002105F0A9B800BFC2
:104F200008B532EA220228BF4FF0FF32002305F015
:104F300063F9A0F10100B0FA80F0400908BD00BF9C
:104F400008B532EA220228BF4FF0FF3205F0F0FA2E
:104F5000A0F10100B0FA80F0400908BD002208B5B8
:104F6000134605F02BFA003018BF012008BD00BF22
:104F70000146012005F012BA002108B50A460B4689
:104F800005F03AF9003018BF012008BD31EA2101CF
:104F900028BF4FF0FF3108B505F07AFB003018BF8D
:104FA000012008BD05F004B9002108B50A460B46EA
:104FB00005F022F9003018BF012008BD08B5002116
:104FC00005F060FAA0F10100B0FA80F0400908BDD8
:104FD00031EA210128BF4FF0FF3108B505F058FB39
:104FE000003018BF012008BD07F070B807F088B87E
:104FF00007F078B8044B036010B44023034C0C60F6
:1050000013605DF8044B70476811002014100020F5
:10501000044B036010B44023034C0C6013605DF834
:10502000044B704714110020140F0020704700BF7C
:10503000704700BF00F082BD2DE9F043ADF2544D42
:1050400006A81E21002206F0C9FAB0F1000827DDEB
:10505000DFF8589009AC002654F80CEC2378A168CE
:105060002269A58ACDF800E0676801970291039252
:10507000042BDEF8007054F8041C54F8082C98BF78
:1050800019F80330084804974FEA850588BF3F2385
:105090000136059504F0C0FAB04504F12404DBD1D3
:1050A0000DF2544DBDE8F0833C470108DC47010890
:1050B000F0B58FB00024079401E0082C1FD02046E3
:1050C00006A907AA05F0EEFB01340028F5D00698E2
:1050D00008A905F001FC0028EFD00998089F0D9E53
:1050E0000B9D0390C01B04900799069A0C9B029796
:1050F00000960195034804F08FFA082CDFD10FB019
:10510000F0BD00BF7047010810B50C480C4CFFF70C
:1051100081FE0C490C4804F07FFA0C48FFF77AFE38
:105120000B4B2046196804F077FA0A48FFF772FE25
:105130002046FA21BDE8104004F06EBAA4470108E9
:10514000385A0108AC470108A8470108C0470108C0
:105150002C040020D0470108F0B5002A059D069FC9
:1051600067DD91F800C0BCF1000F2CD00E46002482
:1051700016F801EF0134BEF1000FF9D1A24223DC91
:10518000724613F0020F0CBF4FF0200E4FF0300E9E
:1051900013F001031AD1002A52DD3C680CE00468C8
:1051A00084F800E00468013404603C6801343C6029
:1051B000013A03F1010349D0A542F9D90028EED103
:1051C0006FF00100F0BD6446121BDAE76646BCF1E1
:1051D000000F15D000233C680BE0046826700468BB
:1051E000013404603C6801343C6011F8016F013304
:1051F0003EB1A542F9D90028EFD16FF00100F0BD12
:105200006346002A1FDD3C681A440BE0016881F800
:1052100000E00168013101603C6801343C60013309
:10522000934211D0A542FAD90028EFD16FF00100C6
:10523000F0BD13F001030FD191F800C04FF0200E24
:105240006646002EC7D11A461046F0BD91F800C040
:105250006646002EBFD1F6E70E784FF0200E002EE6
:10526000B8D13246F0E700BFF0B587B00F460F9EC9
:10527000109D002945D00C46864673BB00238DF84F
:1052800017300DF11701002F33D01F460E9B0DF183
:105290001701A3F13A00B4FBF2F302FB1344092C0B
:1052A000C8BF2418303401F8014D1C46002BF2D140
:1052B000FFB10C9B002B34D12D2301F8013C0024BD
:1052C00001390096019570460C9A0D9BFFF744FF3B
:1052D000002800DB204407B0F0BD0A2ACED1002907
:1052E000CCDA00234C428DF81730002C36D0012741
:1052F000CCE7119B9BB12B2301F8013C0024013921
:10530000DFE700960195302403A90C9A0D9B8DF8D8
:105310000D708DF80C40FFF71FFF07B0F0BD119C1A
:10532000CFE70D9B9B07C7D52B689E420ED9BEF1D8
:10533000000F10D0DEF800302D221A70DEF8003099
:105340000133CEF800302B6801332B600C9B013BFE
:105350000C930124B5E76FF00100BCE70DF11701D4
:10536000A7E700BF000000002DE9F04F2DED028BF4
:10537000B3B0013A1D780B91002411463E9A129465
:1053800081460692002D00F0F580DFED8E8AA24660
:1053900088461A461AE01578129B98450ED9B9F13D
:1053A000000F00F08F80D9F800301D70D9F8001080
:1053B000129B01310133C9F8001012930AF1010A5E
:1053C00014466578621C002D00F0D580252DE2D1B1
:1053D0005378541C002B00F0CE80252B79D02D2B38
:1053E00003BF9378941C012600262B2B73D0002238
:1053F0000A9203E014F8013F46F00206302BF9D080
:105400002E2B33D0A3F13002D2B2092A2ED9062294
:10541000079200276C2B04BF63780134682B5FD0A0
:10542000583B202B46D8DFE813F017034500450012
:105430004500450045004500450045004500450044
:10544000BB0102028D01D100D1004500450045009D
:1054500045004500450045004500D4014500450094
:10546000B60045002202450045001B020621002728
:105470000D463146621C3E468B4603E000EB4C0570
:1054800012F8013BA3F130012E2BC8B202F1FF3418
:105490000AD0092805EB850C07EB870E07D8002EEC
:1054A000ECD101EB4E07EBE700250126E8E7079575
:1054B0005E46AFE7129B984540F20A82B9F1000FB1
:1054C00040F0EE816FF0010033B0BDEC028BBDE81F
:1054D000F08F224660E7012263780A9214448DE738
:1054E0006378583B0134202BE4D801A252F823F012
:1054F000655A0008B5540008B5540008B5540008B2
:10550000B5540008B5540008B5540008B554000857
:10551000B5540008B5540008B5540008A157000858
:105520000D59000845570008CD550008CD55000815
:10553000B5540008B5540008B5540008B554000827
:10554000B5540008B5540008B5540008B554000817
:10555000E7580008B5540008B554000897550008EE
:10556000B554000801590008B5540008B5540008A6
:10557000EB580008AA460B9B13F0010305D1B9F1C3
:10558000000F9FD0D9F800201370504633B0BDEC07
:10559000028BBDE8F08F069B0B4D1968CDF800809B
:1055A00012A8002908BF294601903A4633464846CA
:1055B000069DFFF7D1FD002805F1040584DB824438
:1055C0000695FEE6CDCCCC3DE4470108069B03F1F1
:1055D000070E2EF0070E9EED007B0EF1080500224F
:1055E000002351EC170B8DED087B06950DF082F82A
:1055F000002840F00E820A9B002B40F06C811DAB0E
:105600000A939B46079B072B0ED8BB4B079D03EBCA
:10561000C503DDE90801D3E900230CF047FCCDE91F
:105620000801002D00F02482079D00230120013392
:1056300000EB8000AB424FEA4000F8D107950CF038
:1056400071FDCDE90C01DDE908010DF07BF80028C2
:1056500000F06381079D0DF14B0C03464FF0000EE7
:10566000A64AA2FB0312D20802EB8201A3EB41037C
:1056700030330CF8013F0EF1010E1346002AEFD132
:1056800013A901EB0E030BF1FF3213F801CD02F861
:1056900001CF8B42F9D10795F344079B002B3FD0F4
:1056A0000CF040FD02460B46DDE908010CF0FCFB66
:1056B000DDE90C230CF0ACFD0DF044F82E238BF843
:1056C0000030002800F0EC81079D0DF14B01002215
:1056D0008A4BA3FB00E3DB0803EB830EA0EB4E0039
:1056E000303001F8010F01321846002BF0D19542FD
:1056F000079598BF13A940F29E8113A9531E079DD9
:105700000B4430200132954203F8010F4FF0300E68
:10571000F8D8002A40F08F818BF801E00BF1020BE2
:1057200012A800250190CDF800800A998BF800504E
:105730003A4633464846FFF70FFD0028FFF6C4AE51
:1057400082443EE6069B073323F00703D3E90001BA
:10575000083306930DF016F800EE100A08EE100A52
:105760000CF082FB002840F0DE806E2361228DF871
:1057700074308DF876308DF875200DF1770012A910
:10578000002505703A46019133464846CDF8008021
:105790001DA9FFF7E1FC0028FFF696AE824410E653
:1057A0003346069E12A831688DF8441001903A469F
:1057B000CDF800800025484611A98DF84550FFF727
:1057C000CBFC002806F10406FFF67EAE8244069666
:1057D000F7E50020D9F8003030221A70D9F80030EF
:1057E0007822591CC9F800105A70D9F80030069A6E
:1057F0000133C9F80030134604330AF1020A116874
:10580000069300B189B241220A98059012AB029228
:10581000049300970196CDF80C804846102200238F
:10582000FFF722FD0028FFF64FAE8244C9E5069A35
:1058300013460433116806930A980590612212AB4F
:105840000292049300970196CDF80C8048460A22F4
:105850000123FFF709FD0028FFF636AE8244B0E5CC
:10586000069A13460433116806936122CCE7069A20
:1058700013460433116806930A980590612212AB0F
:105880000292049300970196CDF80C8048460A22B4
:105890000023FFF7E9FC0028FFF616AE824490E5EE
:1058A000D9F8003025221A70D9F80020129B511C1B
:1058B0000133C9F8001098452178129308D9517026
:1058C000D9F80020129B01320133C9F8002012934D
:1058D0000AF1020A75E52B238DF874301DAB0DF12A
:1058E000750B0A938EE6012074E7069A134604337B
:1058F00011880693B9E700BFF0470108CDCCCCCCA6
:10590000069A1346043311880693B5E7069A1346A0
:105910000433B2F9001006938EE730238BF8003081
:105920000BF1010BB9E6B0EE480A0CF09DFA012824
:10593000B0EE480A40F2A1800CF092FA002800F084
:1059400085802D23B1EE488A8DF87430B7EE007A49
:10595000B4EEC78AF1EE10FAF2EE047A54BFF0EE1C
:10596000686AF0EE676A0021B4EEE78AF1EE10FA99
:1059700018EE103A04DAB4EEC78AF1EE10FA04D544
:105980001BB128EE268A0131EEE70122B7EE007A3C
:105990000DF175054FF02E0C01E001320546C8EE01
:1059A000077A012A05F10100FCEEE77ACDED077ACE
:1059B0009DF81C3007EE903A03F1300E85F800E0B8
:1059C000F8EEE77A6ED067EE277A072A27EE287A74
:1059D00038EE678AE1D1F0EE007AF4EEE76A6523EB
:1059E000F1EE10FA037035DD00290CBF2B232D23B7
:1059F000334A437082FB0132CB17C3EBA20202EBA6
:105A00008203A1EB430330333032C3708270043021
:105A1000B5E6DDE9080101F100430F930E909DED1D
:105A20000E7B2D238DF874301DAB8DED087B0DF1B1
:105A3000750B0A93E6E58B18584613F8015D00F8DC
:105A4000015F8B42F9D10132934469E620238DF83E
:105A500074307BE72B23CBE7069A13460433116897
:105A60000693D0E6069A1346043311680693C9E6F6
:105A70009FED117B8DED0C7BE5E50CF0F1F9002835
:105A800014BF20232D2369216E228DF874306623E4
:105A90008DF875108DF876208DF877301EA86EE69B
:105AA00002462AE667EE277A85F801C0A81C38EE80
:105AB000678A27EE287A70E7000000000000F03FB8
:105AC000676666660EB410B587B009AC039054F8EB
:105AD000043B009403A800214FF0FF320594FFF728
:105AE00043FC07B0BDE8104003B0704710B584B068
