:020000040800F2
:1000000000500020CD010008891C00088D1C00084C
:10001000911C0008951C0008991C000800000000B5
:10002000000000000000000000000000B190000887
:100030009D1C000800000000419100088591000807
:100040002D0200082D0200082D0200082D020008D4
:100050002D0200082D0200082D0200082D020008C4
:100060002D0200082D0200082D0200082D020008B4
:100070002D0200082D0200082D0200082D020008A4
:100080002D0200082D0200082D020008AD250008F1
:10009000B12500082D0200082D0200082D020008DD
:1000A0002D0200082D0200082D0200082D02000874
:1000B0002D0200082D0200082D0200082D02000864
:1000C0002D0200082D0200082D0200082D02000854
:1000D0002D0200082D0200082D0200082D02000844
:1000E0002D0200082D020008CD25000800000000A8
:1000F0000000000000000000000000000000000000
:0C01000000000000000000005FF808F1A3
:10010C003C6D637573683E003230313931303136B5
:08011C002D313634303236007B
:020124000000D9
:0801280030B9000001000000E5
:1001300070B4840746D0541E002A41D0CDB2034685
:1001400002E0621EE4B3144603F8015B9A07F8D19B
:10015000032C2ED9CDB245EA05250F2C45EA0545DD
:1001600019D9264603F11002103E0F2E42F8105CFA
:1001700042F80C5C42F8085C42F8045C02F11002A0
:10018000F2D8A4F1100222F00F0204F00F04103292
:10019000032C13440DD91E462246043A032A46F87E
:1001A000045BFAD8221F22F003020432134404F045
:1001B00003042CB1C9B21C4403F8011BA342FBD1B8
:1001C00070BC704714460346C2E700BF002103E03D
:1001D0000F4B5B58435004310E480F4B42189A4264
:1001E000F6D30E4A02E0002342F8043B0C4B9A423D
:1001F000F9D30C4A03E05FF0A53342F8043B0A4B05
:100200009A42F8D300F014F809F078F8704700002B
:100210007CD3000800000020480900204809002085
:100220000C160020004C002000500020FEE70000CB
:1002300030B43C4B3C49186882B040F00100186073
:100240005D6800202940596019684FF41F0421F0AF
:10025000847121F48031196019681A4621F48021D3
:100260001960596821F4FE0159609C60009001906A
:10027000196841F48031196003E0009BB3F5A06F69
:1002800009D0136803F400330193009B01330093FA
:10029000019B002BF1D0234B1B6813F4003318BFD4
:1002A00001230193019B012B06D0204B4FF00062EC
:1002B0009A6002B030BC70471D4A1A4B106819464C
:1002C00040F010001060106820F00300106010680B
:1002D00040F0020010605A685A605A685A605A68C2
:1002E00042F480625A605A6822F47C125A605A685A
:1002F00042F4E8125A601A6842F080721A600B6881
:10030000084A9B01FBD51146536823F00303536051
:10031000536843F0020353604B6803F00C03082B4F
:10032000FAD1C2E7001002400000FFF800ED00E043
:100330000020024040F0BF60024B40F40030D86023
:10034000704700BF00ED00E0C3785BB9037801217E
:100350005A09174803F01F03203201FA03F340F84B
:100360002230704730B4134A4378D2688178D24340
:100370000F24C2F30222D440C2F1040503FA05F2AD
:1003800004EA0103017813431B0101F16042DBB26F
:1003900002F5614282F800330378012203F01F0066
:1003A00003495B09824041F8232030BC704700BFFD
:1003B00000E100E000ED00E008B5174B984212D0D4
:1003C000164B98421BD0164B984200D008BD4FF4F4
:1003D0000040012100F078FBBDE808404FF40040E8
:1003E000002100F071BB4FF40070012100F06CFBA4
:1003F000BDE808404FF40070002100F065BB4FF4E9
:100400008060012100F060FBBDE808404FF480608F
:10041000002100F059BB00BF00240140002801402A
:10042000003C014042680B6822F4702230B422F490
:1004300080720C79134343EA0423436085688C6817
:10044000CA68094B22432B404C79134343EA4403C7
:1004500083600A7CC36A013AD2B223F4700343EA90
:100460000253C36230BC7047FDF7F1FF836819B9CE
:1004700023F001038360704743F0010383607047FA
:10048000836819B923F480738360704743F48073E1
:1004900083607047836843F008038360704700BF40
:1004A0008068C0F3C0007047836843F00403836032
:1004B000704700BF8068C0F380007047836819B937
:1004C00023F4A0038360704743F4A0038360704764
:1004D000092970B41CD9A1F10A0404EB4404C568CD
:1004E0000726A640A34025EA06042343062AC36044
:1004F0001AD90C2A25D90D3AC46A02EB82021F23AD
:10050000934024EA030391401943C16270BC7047D1
:1005100001EB410605690724B440B34025EA040411
:100520002343062A0361E4D8013A446B02EB8202BA
:100530001F23934024EA030391401943416370BC95
:100540007047073A046B02EB82021F23934024EAB0
:10055000030391401943016370BC70474FF6FE726C
:1005600003683A491A4088424FF000030260036072
:1005700043608360C36027D0354B98422AD0354B07
:1005800098422DD0344B984230D0344B984239D0D9
:10059000334B98423CD0334B98420FD0324B984269
:1005A0003CD0324B98423FD0314B984242D0314BF5
:1005B000984245D0304B98421ED070472F4A53681E
:1005C00043F07063536070472C4A536843F00F0345
:1005D00053607047294A536843F0F00353607047F3
:1005E000264A536843F4706353607047234A536844
:1005F00043F4704353607047214A536843F47023B7
:100600005360DAE71D4A536843F470235360704720
:100610001A4A536843F4700353607047184A53688A
:1006200043F00F0353607047154A536843F0F003DB
:1006300053607047124A536843F4706353607047C5
:100640000F4A536843F470435360704708000240F8
:100650001C000240300002404400024058000240AA
:100660006C00024080000240080402401C0402406A
:10067000300402404404024058040240000002409A
:10068000000402408A6830B40D6A0B692A434D6940
:1006900013438A691D43CB6945EA02044D6A026827
:1006A00023438C6A1D4322F4FF432C4323F0700341
:1006B00023430360CB6830BC43600B6883604B68A6
:1006C000C360704729B94FF6FE7302681340036098
:1006D0007047036843F0010303607047014B5861A2
:1006E000704700BF0004014070B4CD78EB0648BFEE
:1006F0008B7805F00F0448BF1C430B8813F0FF0FE5
:1007000030D013F00106026840F03C8103F002058E
:10071000ADB2002D40F01C8103F00405ADB2002DF8
:1007200040F0238103F00805ADB2002D40F0DC80DD
:1007300003F01005ADB2002D40F0E38003F020057A
:10074000ADB2002D40F0EA8003F04005ADB2002DBF
:1007500040F0F18003F080039BB2002B40F01E813B
:1007600002600B88FF2B29D903F48075ADB2426873
:10077000002D32D103F40075ADB2002D40D103F449
:100780008065ADB2002D4ED103F40065ADB2002DF1
:100790005CD103F48055ADB2002D6AD103F400554D
:1007A000ADB2002D78D103F48045ADB2002D40F0FC
:1007B000878003F400439BB213B9426070BC70475A
:1007C000CD7864F31F72282D04BF4361CD78482D86
:1007D00004BF4FF400430361EFE7CB7822F00F0230
:1007E000282B42EA040200F0F480482B04BF4FF4A7
:1007F000807303610B8803F40075ADB2002DBED089
:10080000CB7822F0F002282B42EA041200F0DE80BE
:10081000482B04BF4FF4007303610B8803F4806519
:10082000ADB2002DB0D0CB7822F47062282B42EA12
:10083000042200F0C880482B04BF4FF4806303619A
:100840000B8803F40065ADB2002DA2D0CB7822F462
:100850007042282B42EA043200F0B280482B04BFD9
:100860004FF4006303610B8803F48055ADB2002D93
:1008700094D0CB7822F47022282B42EA044200F074
:100880009C80482B04BF4FF4805303610B8803F412
:100890000055ADB2002D86D0CB7822F47002282B03
:1008A00042EA045200F08680482B04BF4FF4005304
:1008B00003610B8803F48045ADB2002D3FF479AF9E
:1008C000CB7822F07062282B42EA04626FD0482B6A
:1008D00004BF4FF4804303610B8803F400439BB2D1
:1008E000002B3FF46AAF6BE7CE7822F47042282EDB
:1008F00042EA043270D0482E7FF41AAF05610B88AB
:1009000016E7CE7822F47022282E42EA04426BD0F9
:10091000482E7FF413AF05610B880FE7CE7822F4E1
:100920007002282E42EA04525BD0482E7FF40CAFAE
:1009300005610B8808E7CE7822F07062282E42EA23
:1009400004625DD0482E7FF405AF05610B8801E796
:10095000CE7822F0F002282E42EA04124DD0482E22
:100960007FF4DAAE05610B88D6E6CE7822F47062A9
:10097000282E42EA04223DD0482E7FF4D3AE0561F2
:100980000B88CFE622F00F02282D42EA04022ED077
:10099000482D7FF4BBAE06610B88B7E6CD7864F3D3
:1009A0001F72282D1BD0482D08BF0361D8E6456172
:1009B000CB788CE74561CB7876E74561CB7860E70B
:1009C0004561CB784AE74561CB7834E74561CB7820
:1009D0001EE74561CB7808E745610B88A8E64361CF
:1009E000BEE645610B88AFE645610B88A6E6466129
:1009F0000B888BE645610B8894E645610B888BE696
:100A000045610B88A6E600BF4FF6FF710222042362
:100A100001808270C3707047806880B2704700BFE9
:100A20000161704741617047C1607047014B1860B8
:100A3000704700BF00300040014B5860704700BF56
:100A400000300040014B9860704700BF003000400C
:100A50004AF6AA22014B1A60704700BF00300040DE
:100A6000014B1860704700BFD8004242034A5368E8
:100A700023F4404318435060704700BF0010024009
:100A8000044A536919B923EA0000506170471843BA
:100A90005061704700100240044A936919B923EA73
:100AA0000000906170471843906170470010024049
:100AB000044AD36919B923EA0000D061704718438A
:100AC000D061704700100240044AD36819B923EA84
:100AD0000000D06070471843D0607047001002409B
:100AE000274A038890429BB212D002F500629042DE
:100AF0000ED0B0F1804F0BD0A2F59832904207D0C3
:100B000002F58062904203D002F58062904203D1E8
:100B10004A8823F0700313431A4A904227D002F503
:100B20008062904223D0CA8823F440739BB213435F
:100B300003808A88124B82850A889842028511D0E8
:100B4000114B98420ED003F5406398420AD003F54A
:100B50008063984206D003F58063984202D0012357
:100B6000838270470B7A0386012383827047038058
:100B70008B8883850B88038501238382704700BFA0
:100B8000002C01400010004000340140038CF0B400
:100B900023F001031B041B0C0384048C8788028B45
:100BA0004E8824F002040B891B4D240422F07302AA
:100BB000240C334312040E882343120CA8429BB228
:100BC000BCB242EA060216D005F50065A84212D072
:100BD00005F54065A8420ED005F58065A8420AD00B
:100BE00005F58065A84206D084800283CA88F0BCDF
:100BF0008286038470474E89CF898D8923F008034C
:100C0000334324F440748E883D4323F004032C4383
:100C10003343A4B2E8E700BF002C0140038CF0B5D9
:100C200023F010031B041B0C0384038C8588028BA8
:100C300023F020031B04B1F808E022F4E6420C88FC
:100C4000184E1B0C4F88120443EA0E13120C43EA91
:100C5000071342EA0422B0429BB2ADB294B208D06C
:100C6000114A904205D085800483CA880287038494
:100C7000F0BD4FF6BF7623F080024B8992B2B1F8F7
:100C80000CE042EA031225F440658B88CF891640B8
:100C900045EA8E0546EA031345EA87059BB2ADB2E5
:100CA000E1E700BF002C014000340140038CF0B5A7
:100CB00023F480731B041B0C0384038C848823F4AB
:100CC0000073828B0D891B04194E1B0C4F8822F078
:100CD000730243EA052312040D8843EA0723120C2A
:100CE000B0429BB2A4B245EA020509D006F50066FF
:100CF000B04205D084808583CA8882870384F0BD92
:100D00004FF6FF3623F400624B8992B2B1F80CE043
:100D100042EA032224F440548B88CF89164044EAE7
:100D20000E1446EA032344EA07149BB2A4B2E1E797
:100D3000002C0140038CF0B523F480531B041B0CE2
:100D40000384028C8488838B22F400521204B1F84D
:100D500008E023F4E643114D120C4F881B040E8863
:100D600042EA0E321B0C42EA073243EA0623A8424B
:100D700092B2A4B29BB20AD005F50065A84206D093
:100D800084808383CB88A0F840300284F0BD8D89B5
:100D900024F4804444EA8514A4B2F1E7002C014015
:100DA000038829B923F001031B041B0C038070473F
:100DB0009BB243F001030380704700BF018582822C
:100DC000704700BF81847047818570478186704776
:100DD0000187704781877047A0F84010704700BFB7
:100DE00008B538B1064B1B681B689847054B186857
:100DF0000A3008BD034B01221B681A8208BD00BFE0
:100E0000D40C0020D80C002008B538B1064B1B6864
:100E10009B689847054B18680C3008BD034B0122AE
:100E20001B681A8208BD00BFD40C0020D80C00201B
:100E300008B51F4B002832D01E481A6800210180D7
:100E4000137813F07F0316D0012B27D0022B24D167
:100E5000527902F00F039B0003F1804303F5B8437E
:100E600012061B681FD403F44053B3F5805F0ED104
:100E7000012303700BE0527A930654BF03780223D8
:100E800051064CBF43F0010323F0010303700A4BEA
:100E90001B681B699847074808BD084608BD1B68C2
:100EA00002221A8208BD03F03003102BEFD1DFE7D6
:100EB000D80C0020A80C0020D40C00202DE9F04113
:100EC000254F3C68238A267A23B9042E2AD0A58A86
:100ED000042603E0A58AAB42FAD902269D4228BF28
:100EE0001D46A369284698478046002000F0DEFD95
:100EF0002A460146404600F0E9FC2946002000F061
:100F0000F5FD638A228A1549521B1D44144B228227
:100F1000658230204FF440523C6808801A80267267
:100F2000BDE8F0810F4A1178012906D00B4B102241
:100F300007261A802672BDE8F0810B480B4900682D
:100F4000064D80B2014449000B804B8030213C6843
:100F500013702980E3E700BFD80C0020E00C0020CC
:100F6000DE0C002048090020505C004002300020C8
:100F700038B52F4B1B68187810F07F0003D002287B
:100F800006D0022038BD5A7A22F020025A7238BDAB
:100F90005A88002AF6D11A79002AF3D15A7922F018
:100FA00080008400150604F18044224D04F5B84405
:100FB00021682D784CBF01F0300101F44051A84266
:100FC000DFD20029DDD09B7A002BDAD0120623680D
:100FD00009D503F03003102B1ED0174B1B685B693B
:100FE0009847002038BD03F44053B3F5805FF4D137
:100FF000D8B9124B93F82C1000F086FD236823F427
:10100000804323F070039BB283F4405343F40043C6
:1010100043F080032360E0E7C4B2204600F014FDF3
:101020002046302100F092FCD7E700F0FBFCE5E71A
:10103000D80C00202C050020D40C0020A80400208F
:1010400038B5204B1C68617921F0800083000D06C3
:1010500003F180431C4D03F5B8431A682D784CBF4B
:1010600002F0300202F44052A84201D3022038BDFF
:1010700060880028FAD1002AF8D0A27A002AF5D098
:1010800009061A6811D522F4E04222F0400292B219
:1010900082F0100242F4004242F080021A600B4BD0
:1010A0001B689B699847002038BD22F4804222F0DB
:1010B000700292B282F4805242F4004242F0800206
:1010C0001A60ECE7D80C00202C050020D40C00207E
:1010D000054B1B685A8A10B108681044704789880C
:1010E0008A1A1A82704700BFD80C0020F0B5A94BAD
:1010F000A94D1968A94A2B6889B20A44197A520085
:10110000092983B014685BD0A4B2640004F1804460
:1011100004F5C04422781A702B6862785A70A0884F
:101120002E6800F023FD708020892E6800F01EFDDF
:10113000B080A2892B680121DA801972002A44D07C
:101140005878062800F09580002857D15988002942
:1011500000F0A480924C23681B699847032800F094
:1011600014814FF6FF712B681A8A8A4256D00228E2
:101170000CD05AB193F900100029C0F2C4808949FB
:101180004FF44050032208801A7201E008221A72BC
:10119000854B002093F82C1000F0B6FC2B68187AD1
:1011A000082806D17F49814B4FF4805410220C80CF
:1011B0001A80A0F10900B0FA80F0400903B0F0BD38
:1011C000DA8801211972002ABAD11A785E7812F0F1
:1011D0007F0226D0012A00F0AD80022A00F00681AD
:1011E0006F4C236830465B699847032800F03281D2
:1011F00000282ED02B6808221A72C9E708285FD170
:101200001A785206A6D16A4A00209A6158829047FD
:101210004FF6FF712B681A8A8A42AAD109221A72E4
:10122000B6E7092E00F0FF80052E00F0D080032ED7
:1012300000F0E880012ED3D1DA78012AD0D19A8843
:10124000002ACDD15B7A9F06CAD5FFF791FE002810
:10125000C6D1504A574B1268002192B213445B002A
:101260001980524A59802B683021118006221A7247
:101270008EE71A7856067FF46DAF9A78484C012AAB
:1012800000F0E580022A00F09F80032A7FF463AF1C
:101290002268526A002AB7D106205CE75A6822F415
:1012A0007F42B2F5003F7FF455AF187810F07F0011
:1012B00040F0D4809A88002A7FF44CAF3E4AA3E7DE
:1012C0000A287FF447AF1A7802F07F02012A7FF4E0
:1012D00041AF9A7A002A3FF43DAF598800297FF444
:1012E00039AF5A682E4C22F47F42B2F5803F7FF42A
:1012F00032AF587923689B6998472B68002840F0E3
:10130000EB802E4A80E7D98801910198824235D836
:10131000914240F2AA802249096891F82C0081B2DA
:10132000914240F2A780264A002010709982FFF770
:10133000C5FD2DE70B2E1A4C7FF453AF2268587968
:10134000D978936998472B68134F9A7A002A3FF40B
:1013500048AF00287FF445AF1A79002A7FF441AFE7
:101360009B78002B7FF43DAF164B1B68DB689847DA
:101370003B685979DA78D9721A736AE7084A019991
:101380001268198292F82C10D0E72B6809221A7281
:10139000FEE600BF505C0040D80C00200430002066
:1013A000B00C0020DE0C0020A8040020E00C00207F
:1013B000E10D000802300020310E0008090E00087F
:1013C00048090020D40C00202268126A62E793F9D1
:1013D0000320002A07DB9A782AB99A881AB99A7AE0
:1013E000002A3FF436AF08221A72D1E6012E3FF4EC
:1013F0002CAF032E7FF4F4AEFFF722FE00283FF45B
:1014000028AFEDE6DA78012A7FF4EAAE9A88002A5E
:101410007FF4E6AE5A7A314942F0200209685A72E6
:10142000CB69984715E72E49DA7849789142FFF45D
:10143000D7AE997800297FF4D3AE998800297FF43C
:10144000CFAE26499A720B685B68984701E722681D
:10145000D2691FE72B6809221A7299E6012830D059
:10146000022812D008461F4C75E61E4A126892F8F0
:101470002C105BE792FBF0F400FB1422002A7FF4AF
:1014800055AF194A0120107050E7587900F00F014C
:101490008A00040602F18042114C02F5B84212683B
:1014A00024784CBF02F0300202F44052A14206D22E
:1014B00010F0700003D1002A7FF400AF4AE600204C
:1014C00048E6084C587923689B6998472B6818B9F7
:1014D0009A7A002A7FF4F2AE58783CE6D40C0020C9
:1014E0002C050020B00C002048090020F8B5284C3D
:1014F00023681A7A022A26D0042A24D0062A18D071
:101500000821244A1972002092F82C1000F0FCFAED
:101510002368187A082806D11F49204B4FF48054BD
:1015200010220C801A80A0F10900B0FA80F0400966
:10153000F8BD5A78052A0BD0194B1B689B68984751
:1015400023680821DDE7FFF7B9FC2368197AD8E79B
:101550001A7812F07F02EFD11249DF780E7876B157
:10156000114840F60F73056842F400412B4041F0EA
:10157000800101320B43964240F8043BF1D10B4A03
:1015800047F080070A4B17601B681B6A9847D3E730
:10159000D80C0020A8040020DE0C0020E00C002065
:1015A000B00C00202C050020005C00404C5C00408A
:1015B000D40C0020F8B53A4D2C68237A022B07D0C2
:1015C000042B05D0032B1CD0052B1AD0072B47D09A
:1015D0000823344A2372002092F82C1000F094FA69
:1015E0002B68187A082806D12F49304B4FF48054C5
:1015F00010220C801A80A0F10900B0FA80F0400996
:10160000F8BDA369228AB3B1B2B1A68A964228BFB7
:10161000164630469847228A638A921B334407460F
:1016200022826382002000F051FA32460146384699
:1016300000F066F9228AD2B9A38A3BB31B492A6813
:101640001B4B062010721A681A4B92B213445B00AF
:1016500000221A805A802C683022237A0A80B8E748
:10166000154B1B68DB6898472C680823B1E70E4BC5
:1016700000204FF4405201461A8000F037FA238AC6
:10168000A28A0A4930209A42088003D82C68032392
:1016900023729EE7002BD2D02C680523237298E793
:1016A000D80C0020A8040020DE0C0020E00C002054
:1016B000505C004002300020B00C002070B40C4B95
:1016C0001E787EB10B4C002240F60F73256842F461
:1016D00000412B4041F0800101320B43964244F817
:1016E000043BF1D1044B40F08000186070BC70479F
:1016F0002C050020005C00404C5C0040704700BF9F
:1017000070B4074A07490848084E094C094B02259E
:1017100015720860236032601B6870BC184700BFF8
:10172000B80C0020D40C0020D8040020D80C0020D5
:10173000B00C0020A80400202DE9F04FDFF880A1B4
:10174000DFF88091D0464F4685B00023DFF878B1AE
:10175000564DADF80E30DBF80030554C99B21B04F5
:10176000544E524AAAF8001040F19480B8F8003064
:1017700003F00F03990001F1804101F5B84189F8A8
:101780000030002B31D14BF6BF73216889B229801C
:10179000298801F030013180298801F440512980E5
:1017A00021680B4083F4005383F0200343F400438B
:1017B00043F080032360B8F80030D90642D523688F
:1017C0009BB2ADF80E30BDF80E301B0565D4BDF8E8
:1017D0000E301BB2002BBEDA40F68F7301922168E7
:1017E0000B402360FFF7E6FE34E00B689BB2ADF8D8
:1017F0000E30BDF80E301BB2002B17DBBDF80E30DB
:101800001A06A8D548F60F7299F800302A499B00AD
:1018100003F1804303F5B843186802401A6099F851
:101820000030013B51F82330984794E740F68F731E
:101830000868224A03400B603B78013B52F8233092
:101840009847DBE748F60F73019221680B4023604D
:10185000FFF74CFE4BF6BF73019A2068118812887F
:101860000340CD0448BF83F480539404328848BFBA
:1018700083F40053D006328848BF83F010039106EA
:1018800048BF83F0200343F4004343F08003084A39
:101890009BB2136005B0BDE8F08F40F68F730192E4
:1018A00021680B402360FFF721FCD3E7DE0C00200A
:1018B000005C0040E00C002068040020840400204C
:1018C00048150020B40C0020445C004001F1005198
:1018D000013201F5405152104FEA41010FD030B4AE
:1018E0000230002310F8015C10F8024C023044EA88
:1018F000052421F8234001339A42F3D130BC7047CC
:1019000001F10051013201F5405152104FEA4101FD
:1019100005D051F8043B013A20F8023BF9D1704759
:101920004FF6F873014A034013607047505C004063
:10193000800000F1804000F5B840036823F4EC43D8
:1019400023F07003194389B201607047800000F1F1
:10195000804000F5B8400368CA0623F4E04323F052
:1019600040039BB248BF83F010038A0648BF83F050
:10197000200343F4004343F080030360704700BF3B
:10198000800000F1804000F5B8400368CA0423F4E9
:10199000804323F070039BB248BF83F480538A04D2
:1019A00048BF83F4005343F4004343F080030360D3
:1019B000704700BF800000F1804000F5B840036828
:1019C00023F4E04323F040039BB283F0300343F45D
:1019D000004343F080030360704700BF800000F1C4
:1019E000804000F5B840036823F4804323F070037F
:1019F0009BB283F4405343F4004343F080030360FD
:101A0000704700BF40F60F62800000F1804000F593
:101A1000B8400368134043F4004343F0800303607D
:101A2000704700BF800000F1804000F5B8400368B7
:101A30005B0408D540F60F730268134043F440433B
:101A400043F0800303607047800000F1804000F5A0
:101A5000B84003685B0608D540F60F730268134070
:101A600043F4004343F0C00303607047064B49084A
:101A70001B6849009BB203EBC00000F1005000F569
:101A80004050400001607047505C0040054A064BE2
:101A90001268490892B202EBC000034449005B009F
:101AA00019607047505C004004300020064B1B68F2
:101AB0009BB203EBC00000F1005000F54050400025
:101AC000006880B2704700BF505C0040054A064B7A
:101AD000126892B202EBC00003445B00186880B247
:101AE000704700BF505C004004300020044A054BA2
:101AF000126892B202EBC00003445B0019607047A9
:101B0000505C0040023000200E4A0F4B12683E2904
:101B100092B202EBC00003444FEA43030AD94A09D8
:101B2000C80604BF02F1FF3292B2920242F40042B0
:101B30001A6070474A08C90748BF013292021A600A
:101B4000704700BF505C004006300020054A064B3D
:101B5000126892B202EBC00003445B001868C0F345
:101B600009007047505C004006300020C3B2000AF4
:101B700040EA0320704700BF10B40649064C074AEC
:101B800000204FF43F4320600B8013605DF8044B4E
:101B9000704700BFDC0C0020445C0040405C00400B
:101BA00070B500F07F0528460E46FFF7CFFF0446CC
:101BB0002846FFF78BFF224601463046FFF7A0FE7E
:101BC000204670BD10B5002403E0204600F03AF82E
:101BD000013400F02FF88442F7DB00F027FB00F01F
:101BE00009F9BDE81040002007F06ABC704700BF4B
:101BF00008B500F043FB00F041F900F0A5F900F052
:101C00000BF8FFF7F3FF4FF4165000F047FB0030DE
:101C100018BF012008BD00BF08B502204FF40051D5
:101C200000F0EAF9BDE8084002204FF4005100F04E
:101C300033BA00BF0120704702204FF4005100F07A
:101C400033BA00BF02204FF4005100F025BA00BFA4
:101C500002204FF4005100F02FBA00BF08B54FF436
:101C60000051022000F03AFAB0FA80F0400908BDB5
:101C700008B501460C220123024801F0B5F9012004
:101C800008BD00BFE8F7FF1FFEE700BFFEE700BF8B
:101C9000FEE700BFFEE700BFFEE700BFFEE700BFB4
:101CA0002DE9F04393B001A84B4CFEF7ADFE4B4D30
:101CB0000023DFF83881271D8DF80730012614F83E
:101CC000013B15F8012B06FA03F358F8220001A98D
:101CD000ADF80430FEF708FDBC424FF00109EED12B
:101CE00049464FF40070FEF7D7FE4FF40040FEF770
:101CF000BDFE3B4F3B48FEF75FFB00254FF46022E3
:101D00000423384802A92C46029505952E468DF8E5
:101D10000C908DF80D9004928DF818303D46FEF72A
:101D200081FBE1B24A1C0134D2B22E480223FEF7F5
:101D3000CFFB042C25F8026BF3D12A480121FEF7D2
:101D400095FB28480121FEF79BFB2648FEF7A2FBE6
:101D50002448FEF7A5FB0028FAD12248FEF7A4FB91
:101D60002048FEF7A7FB04460028F9D101200146D0
:101D7000FEF786FE21461C48FEF7A4FCDFF87080C3
:101D80001948FEF7EBFB4FF480764FF0040C4FF050
:101D9000800E20224FF4805307A94FF4806512482B
:101DA000CDF828C0CDF830E00F9210930897099431
:101DB0000B941194CDF81C800D960E95FEF762FCE5
:101DC00009480121FEF77EFC06480121FEF776FB5B
:101DD00013B0BDE8F08300BF78BF00087CBF0008E7
:101DE0004C090020002401400800024080BF000888
:101DF0004C240140F8B50D4C0D4D271D012615F85A
:101E0000013B14F8010B06FA03F100F0A3F8BC4201
:101E1000F5D10848FEF7D0FA07480021FEF752FC3A
:101E2000BDE8F8400448FEF799BB00BF7CBF00083E
:101E300078BF0008002401400800024000000000B4
:101E400008B50B4B33F8100008F0FAF807F0E0FC87
:101E500005A3D3E9002307F02FFD0022054B07F06F
:101E60002BFD07F0E3FF08BD6666666666660A40FE
:101E70004C0900200000303F042070474FF44070B0
:101E8000FEF758BA431E002844D000BF00BF00BF71
:101E900000BF00BF00BF00BF00BF00BF00BF00BF4A
:101EA00000BF00BF00BF00BF00BF00BF00BF00BF3A
:101EB00000BF00BF00BF00BF00BF00BF00BF00BF2A
:101EC00000BF00BF00BF00BF00BF00BF00BF00BF1A
:101ED00000BF00BF00BF00BF00BF00BF00BF00BF0A
:101EE00000BF00BF00BF00BF00BF00BF00BF00BFFA
:101EF00000BF00BF00BF00BF00BF00BF00BF00BFEA
:101F000000BF00BF00BF00BF00BF00BF00BF13F194
:101F1000FF33BAD2704700BF41F2707282B010F145
:101F2000FF300CD30192019B002BF8D0019B013BA9
:101F30000193019B002BF9D110F1FF30F2D202B0D6
:101F4000704700BF072070474FF4FE700121FEF775
:101F5000A3BD00BF2DE9F041032282B04823804693
:101F60000D460F4F8DF806208DF80730002401260E
:101F700002E00134202C0FD045FA04F3DB07F8D53A
:101F800006FA04F357F8280001A90134ADF804302B
:101F9000FEF7AAFB202CEFD102B0BDE8F08100BF14
:101FA00080BF00082DE9F041002A82B014BF48220A
:101FB0002822032380460D460E4F8DF807208DF80A
:101FC00006300024012602E00134202C0FD045FA0F
:101FD00004F3DB07F8D506FA04F357F8280001A943
:101FE0000134ADF80430FEF77FFB202CEFD102B0B6
:101FF000BDE8F08180BF00082DE9F041032282B0E6
:10200000102380460D460F4F8DF806208DF80730BF
:102010000024012602E00134202C0FD045FA04F3FD
:10202000DB07F8D506FA04F357F8280001A90134B4
:10203000ADF80430FEF758FB202CEFD102B0BDE81C
:10204000F08100BF80BF00082DE9F041032282B07B
:10205000142380460D460F4F8DF806208DF807306B
:102060000024012602E00134202C0FD045FA04F3AD
:10207000DB07F8D506FA04F357F8280001A9013464
:10208000ADF80430FEF730FB202CEFD102B0BDE8F4
:10209000F08100BF80BF0008024B89B253F82000D6
:1020A000FEF7BEBC80BF0008024B89B253F8200087
:1020B000FEF7B8BC80BF000838B5074B0C4653F894
:1020C00020502846FEF7A8FC80EA040189B2284681
:1020D000BDE83840FEF7A8BC80BF0008044B10B52F
:1020E00053F820000C46FEF797FC204010BD00BFBF
:1020F00080BF00082DE9F04F8046012089B00F46CF
:10210000424C01461646424DFEF7D2FCDFF818B1AC
:102110000322182304F1040A8DF802208DF80330FD
:102120004FF0010914F8013B15F8012B09FA03F3EC
:102130005BF822006946ADF80030FEF7D5FA544549
:10214000F0D10025B8F1000F4FF0804001A9314CCB
:10215000ADF80650ADF80A50ADF80450ADF808508F
:1021600008BF4FF47A78FEF7BBFC60220123ADF87C
:102170001650ADF81850ADF8102004F11005ADF868
:10218000123054F8043B4FF0804004A99847AC4209
:10219000F7D14FF080400121FEF702FE002FDCBF97
:1021A00064273B461C4CC8BFBBB24FF080400021A7
:1021B0002380FEF707FE21884FF08040013989B265
:1021C000FEF702FE07FB08F7144B4FF0804019683A
:1021D0000122B1FBF7F7791E89B2FEF7EFFD002E61
:1021E000ABBFB6B2322737463E460D4C0D4D04F11B
:1021F000100854F8043B4FF080403146984744455E
:1022000025F8027BF5D109B0BDE8F08F9CBF00082E
:10221000C0BF0008B0BF0008300400202C0400201C
:10222000A0BF00085409002080BF0008F8B5074C83
:10223000074D271D012615F8013B14F8010B06FA7E
:1022400003F1FFF787FEBC42F5D1F8BDC0BF00081F
:102250009CBF000838B504460D46054B89B253F8BB
:1022600020304FF080409847024B23F8145038BD7F
:10227000A0BF0008540900200420704708B545F2AB
:102280005550FEF7D3FB40F6FF70FEF7DBFBBDE8D1
:1022900008400220FEF7D0BBFEF7DABB10B50121E3
:1022A0000022802005F042FD0B4C0022206001211D
:1022B000802005F03BFD094A2368106053B150B1FE
:1022C00000F088F800F09AF800F0B6F8FFF718FA76
:1022D000012010BD184610BDE40C0020E80C0020C1
:1022E0000120704708B5064B0021186805F0D6FCA0
:1022F000044B00211868BDE8084005F0CFBC00BFC2
:10230000E40C0020E80C002010B5074B0446014601
:102310004FF0FF32186805F007FF002814BF204671
:102320004FF0FF3010BD00BFE40C002010B5064B8D
:1023300004460A460146186805F0F6FE002814BF58
:1023400020464FF0FF3010BDE40C00202DE9F04393
:10235000002983B0D8BF002718DD89460646DFF87C
:102360003C8000270524F55DD8F800000DF1070139
:10237000FA2200238DF8075005F01AFD01284FF0CE
:10238000010007D006F07CFC013CECD1384603B0DC
:10239000BDE8F08307444F45E4D1F7E7E80C00209F
:1023A00070B506460A4D82B0052428680DF1070174
:1023B000FA2200238DF8076005F0FAFC01284FF09F
:1023C000010003D006F05CFC013CEED102B070BD10
:1023D000E80C002010B582B0182203234FF4C0543B
:1023E000054801A9ADF804408DF807208DF80630A6
:1023F000FEF77AF902B010BD0008014008B50020D0
:10240000FEF72EFBBDE808404FF400000121FEF767
:102410004FBB00BF064B9B7A23B9064B01221A60C3
:10242000FDF706BF034B05221A60FDF701BF00BF91
:10243000B80C00208009002010B5094B82B002AC16
:1024400044F8043D2046FDF77FFF2A22062320465C
:102450008DF804208DF80530FDF776FF02B010BD31
:1024600014070001704700BF704700BF012070478C
:1024700070B5002382B0019371B10446074E451830
:1024800001E0AC4208D02146306801AA002305F0E3
:10249000E7FD01340028F4D102B070BDE40C002047
:1024A000F8B5204D2B78012B31D01F4F3B68B3F589
:1024B000006F2DD01D4A11688B4230D01DD898B2C4
:1024C000C91A40291ED94033A1F1400C4024184AB2
:1024D000DFF860E001261044C02122463B60CEF8C0
:1024E00000C02E70FFF7F2F930462146FFF7FEFAE2
:1024F0003046BDE8F840FFF75DBAC3F500614029FA
:1025000098B2E0D80B448CB24FF0000CDFE7F8BD76
:10251000064B00201968386009B10346D0E7002354
:102520002B70F8BD5C0900206409002060090020C0
:10253000F00C002068090020F0B5104D83B0104C5D
:10254000104F114E0FE022689DF80710531CB3F591
:10255000006FB95402BF002213462260326818BFD0
:1025600023609A4207D028680DF10701002205F088
:1025700063FF0128E7D003B0F0BD00BFE80C0020E6
:1025800060090020F00C00206409002000B589B02B
:102590006846FFF76DFB684603491822002300F0E8
:1025A0004DFD09B05DF804FB36040020704700BF04
:1025B00008B500F06FF8044B4FF080521A60BFF37B
:1025C0004F8FBFF36F8F08BD04ED00E04FF4802004
:1025D000FEF784B8F8B5154A1378012B00D0F8BD82
:1025E000134C2368FBB1402B124E15D831689DB2B5
:1025F00000278AB20B441048C02110442A46336099
:102600002760FFF763F929460120FFF76FFABDE85D
:10261000F8400120FFF7CEB9A3F140073368402509
:102620009AB22B44E7E71370F8BD00BF5C090020A5
:102630006809002064090020F00C002010B5074C48
:1026400003202146FFF7ACFAC1B22046FFF710FF86
:10265000BDE810400320FFF7C1B900BF08150020F6
:1026600008B50A4B1B68052B00D008BD084A136843
:10267000052B03F1010101D0116008BD0023136097
:10268000FFF75AFFBDE80840FFF70ABF80090020A6
:102690006C09002030B56449644C0B68644D9BB2F2
:1026A000238022882B8889B01A40920556D422882C
:1026B00002F4004213424DD1228802F48062134298
:1026C0003FD1228802F40052134204D04DF6FF722B
:1026D000554B1A602B88228802F48052134227D16E
:1026E000228802F4006213420AD0524B1B78E3B9ED
:1026F000022000F07BFA4FF2FF724B4B1A602B88DE
:10270000228802F4807213420DD04FF6FF61464BCF
:10271000494A1960126815042CD4484B00221A60EB
:10272000072000F063FA09B030BD00F0CDF9E2E710
:102730004EF6FF723C4B00201A6000F057FA2B88CF
:10274000CEE74FF6FF31384A3D4B11605B68984742
:102750002B88B6E7FEF7F0FF2B88ADE74FF6FF5367
:10276000384A0B6013780133DBB21370FFF778FF40
:102770002B889CE731490A6801320A600A68032AFB
:10278000CED9314802681407CAD404682F4A304DA4
:10279000A4B214602C68A4B200946C68A4B2019432
:1027A000AC68A4B20294EC68A4B203942C69A4B2FD
:1027B00004946C69A4B20594AC69A4B20694EC6963
:1027C000A4B20794146844F0010414601468A4B21D
:1027D0000460146824F001041460126892B202606C
:1027E0001A6811485205FBD54FF6FF330360009B72
:1027F000174A9BB21360019B9BB25360029B9BB232
:102800009360039B9BB2D360049B9BB21361059BB7
:102810009BB25361069B9BB29361079B00229BB2C4
:1028200040F8283C0A607BE7445C004048150020E3
:10283000DC0C002084090020485C0040780900205E
:10284000A804002074090020405C004070090020AA
:10285000005C0040034B9B7A13B1034B05221A60C6
:10286000704700BFB80C002080090020014B0422F3
:102870001A60704780090020704700BF212810B5FA
:10288000034603D0202810D0022010BD0E4B1A683A
:10289000137803F07F03212BF6D10C4900249161BA
:1028A000548220468847204610BD074A1268117896
:1028B00001F07F01212903D0054A0220137010BDC9
:1028C000034804490370E9E7D80C00200D290008EB
:1028D0007C09002025290008074B1B681B7803F0A2
:1028E0007F03212B01D00220704700F0DF00022877
:1028F00014BF022000207047D80C002009B102202C
:10290000704701288CBF02200020704708B103489F
:102910007047034B08221B681A8270472405002069
:10292000D80C002008B103487047034B08221B68ED
:102930001A82704724050020D80C002010B5FFF73C
:1029400025FE064B00241B689C7200F0A5F8FFF7DB
:1029500013F9FFF789FD024B1C6010BDD80C002055
:102960008009002010B5334B334A1B68D27900240C
:102970005A729C72DC722046FEF7D2FF20464FF45A
:102980000071FEF7D5FF20461021FEF7DFFF20463D
:102990004021FFF77BF880212046FFF767F82046AB
:1029A000FFF730F8254B204693F82C10FFF7ACF8D2
:1029B0002046FFF713F821460120FEF7B9FF01205A
:1029C000C021FFF753F801202021FEF7BFFF214669
:1029D0000120FEF7D5FF02204FF4C061FEF7A8FFEB
:1029E00002204FF48071FFF741F821460220FEF7E4
:1029F000C7FF02202021FEF7A9FF21460320FEF792
:102A000097FF03204FF48871FFF740F8032040211F
:102A1000FFF77AF803204FF44051FEF7B1FF21464B
:102A20000320FEF793FF2046FEF748FE044B0122E9
:102A30001A6010BDD80C00202CC00008A80400208B
:102A40008009002010B5054C2378202B00D010BD44
:102A5000FFF70CFD0023237010BD00BF7C09002090
:102A60000149FEF735BB00BFFC0400200149FEF719
:102A70002FBB00BFA0040020054B1B68DB78042B94
:102A800004D8044901EBC301FEF722BB00207047C4
:102A9000D80C00200405002038B50120FFF7E2FC27
:102AA000064D074B074C00224FF4E05101201860FF
:102AB0001A602A6021801960104638BD445C0040CD
:102AC000405C0040DC0C0020F0B441490023414A46
:102AD00082B001930B6810683F4A404C80B210608E
:102AE00020689BB280B25060606843F4806580B219
:102AF0009060A06880B2D060E06880B21061206908
:102B000080B25061606980B29061A66923F00104CF
:102B10002B46A4B2B6B245F0010544F480673048B4
:102B2000D6610B600D600F6003682D495D05FBD514
:102B30004FF6FF330B60136826489BB2036053685F
:102B400044F481649BB2436093689BB28360D36812
:102B50009BB2C36013699BB2036153699BB243612B
:102B600093699BB28361D369194A9BB2C3611460B4
:102B700013681C4C9BB243F00403136023681A488B
:102B80000193236823F0030343F0010323600369E7
:102B900043F0040303610B68DB0410D54EF6FF75A8
:102BA0004FF6F7730D6011680B401360019B2360B3
:102BB000036923F00403036102B0F0BC704730BF27
:102BC000036923F00403036102B0F0BC704700BF47
:102BD000405C0040005C004050150020045C004058
:102BE000445C00400070004000ED00E070B5324CE5
:102BF000072818BF20702378052B4BD8DFE803F097
:102C0000181F30353F0363782B49013BDBB26370FB
:102C1000637803F0FF02002B3ED14FF6EF73274895
:102C2000274C06680625334003600D70226070BD96
:102C3000234B1B68002B30D00523237070BD4FF64B
:102C4000FB731E4D2A6813402B60FFF7E3FB1C4B00
:102C50004FF43F4004210122286021701A6070BDAA
:102C6000022203236270237070BD6378124A013B15
:102C7000DBB2637063787BB90423137070BD0F4AB5
:102C8000052013680A219BB243F0100313602070E3
:102C9000617070BD0623237070BD4FF6FB73074D46
:102CA0002A6813402B60FFF7B5FB4FF43F42062321
:102CB0002A60237070BD00BF4C150020405C0040AE
:102CC000880900200023037043704360704700BFF1
:102CD000F0B51D780144012D5C7848D045D3022D14
:102CE00041D18842154639D007782A4E44EA9714D4
:102CF0003F2C98BF16F804E007F03F04365D88BF0C
:102D00004FF03D0E85F800E06E705E6801300136D0
:102D1000132E5E602DD00235884236D004781D4EC9
:102D2000A708F65D04F00304013024012E7005F1BC
:102D3000010E884223D00778013044EA17143F2C53
:102D400096BF144E3D26365D07F00F0488420EF103
:102D500001054FEA84048EF80060C5D102215C7041
:102D6000A81A1970F0BD0020F0BD1546D4E79646AC
:102D7000DFE70A270026AF7003355E60CCE701214C
:102D80005C70C2EB0E001970F0BD00215C70A81AD7
:102D90001970F0BD70C000080B78012B17D0022B02
:102DA00005D003460A2203F8012B181A70474B7806
:102DB0003F2B96BF0E4A3D21D15C03463D2203F8CE
:102DC000021B42700A2203F8012B181A70474B7835
:102DD0003F2B96BF064A3D22D25C3D2302704370D2
:102DE00083700A22C31C03F8012B181A704700BF16
:102DF00070C000080023037043707047F0B45C7823
:102E000014701C78032C7FD8DFE804F04E341A02CB
:102E1000164601443D4F88425AD010F8015BA5F197
:102E20002B042A2DE4B2F6D9502CF4D83C5D2506AB
:102E3000F1D4357804F03F042C433470013635E08A
:102E400016460144314F884249D010F8015BA5F184
:102E50002B042A2DE4B2F6D9502CF4D83C57002C80
:102E6000F1DB3578C4F383073D43A40135707470FA
:102E70000136CFE716460144244F884236D010F879
:102E8000015BA5F12B042A2DE4B2F6D9502CF4D81D
:102E90003C57002CF1DB3578C4F301173D43240186
:102EA000357074700136CDE716460144174F8842DD
:102EB00023D010F8015BA5F12B042A2DE4B2F6D93A
:102EC000502CF4D83C57002CF1DBA4003470D3E72D
:102ED000032119703178B01A5970F0BC7047022183
:102EE00019703178B01A5970F0BC7047012119700F
:102EF0003178B01A5970F0BC7047002119703178E0
:102F0000B01A5970F0BC70470020E6E7B4C0000862
:102F1000704700BF704700BFF8B103780BB918467F
:102F2000704730B583B00D46002201A9044608F071
:102F3000CBFA019B73B19C4201D10BE0019313F8D2
:102F4000012B202AFAD0092AF8D01AB928600120CA
:102F500003B030BD002003B030BD704728B3F0B5DA
:102F6000067883B016B9002003B0F0BD14460D46B4
:102F7000002201A9074608F0A7FA019B0646002B8C
:102F8000F1D09F4201D1EEE7019313F8010B202805
:102F9000FAD00928F8D02A2809D00028E3D103461E
:102FA00001202E60236003B0F0BD0020704718465A
:102FB00001A900221F46019308F086FA019B002B0D
:102FC000D1D09F4201D1CEE7019313F8012B202AE3
:102FD000FAD0092AF8D0002AC5D1012871F10003DE
:102FE000DDDB431EDCE700BFF0B52AB38D1C87187C
:102FF00004780235240904F1300604F1370E092C57
:1030000094BF3446744605F8044C10F8014B04F0A4
:103010000F0404F1300604F1370E092C94BF344636
:103020007446B84205F8034CE2D101EB42020BB101
:10303000002313700846F0BD0A46F8E770B44AB1A1
:103040008C1E861810F8015BB04224F8025FF9D19B
:1030500001EB42010BB100230B8070BC704700BF35
:10306000F8B504460F4616461D4600211822FDF706
:103070005FF827606660A560F8BD00BF03460022C8
:103080002DE9F04F03F8012B0133427003F8012BB7
:1030900003F8012B03F8012B03F8012B03F8012B94
:1030A0001A70CE688B6883B09E424CD2D1F80480EF
:1030B0000C4658F8267005467B490222384608F02F
:1030C0000DF9F8B9237DD80741D5226813786BB183
:1030D000002102E012F8103F43B1042BFAD123691A
:1030E0008B4201F10101F5D1134621612B60E368A8
:1030F0006268591CE16052F8233001206B6003B014
:10310000BDE8F08F3B782D2BDFD1237DDA07DCD4AF
:10311000731CE36058F826707A78002A72D026680B
:10312000337823B96EE016F8103F002B6AD0013BCC
:10313000012BF8D8B3789342F5D12E603378022B67
:1031400073D00120DBE7104603B0BDE8F08F731C9D
:10315000E36058F826303D2118461E46019308F0DA
:1031600007F906F102098046002875D0C9EB000670
:1031700022681378002B4AD0924626B93CE01AF810
:10318000103F002B43D0013B012BD346F7D8DAF890
:103190000470002FF3D0384608F072F88642EED162
:1031A00039464846324608F099F80028E7D1C5F874
:1031B00000B09BF80030032B05D1237D43F00103C1
:1031C00023759BF80030022BBBD1B8F1000F58D00B
:1031D00008F101036B6098F80130002BB1D19BF826
:1031E0000130990734D500236B60012087E7012A5D
:1031F00012D91AF8103F53B1032B03F1FF32D34613
:10320000F5D1D4E7002385E88800012077E7019A0B
:1032100000236A602B6094E7DAF804000028E8D005
:1032200008F02EF80028E4D1C1E7384608F028F865
:10323000022816D9BB1C6B60BB783D2B81D1FB1CCF
:103240006B60FB78002B7FF47CAF73789B07CAD44C
:10325000164B01206B6052E7484608F011F806460D
:1032600086E7737813F0020FE36810D0A1685A1C48
:103270008A42B8D86168E26051F8233001206B605F
:103280003DE79BF8013013F0020FE368EED1A2682E
:10329000591C9142DCD8626852F8230000782D282E
:1032A0007FF428AFD4E700BF04C10008E4D00008D1
:1032B00070B502460E465948594904F03DF80028B9
:1032C00025DB337806F1100423B94FE014F8103BE6
:1032D000002B4BD014F80F5C6807F7D4514804F06A
:1032E0002BF8002813DB14F8103C022B12D0042B0F
:1032F00005F0010518D0052B24D0032B73D014F84A
:103300000E1CC9B1484804F017F80028DEDA4FF067
:10331000FF3070BDA9071DD454F80C1C54F8082CBC
:10332000424804F009F8F0E7002D60D154F80C1C75
:103330003F4804F001F8E8E754F80C1C3D4803F05E
:10334000FBFFE2E7002D58D154F80C1C3A4803F07B
:10335000F3FFDAE714F80E1C002954D154F80C1CC2
:1033600054F8082C354803F0E7FFCEE734483549D8
:1033700003F0E2FF33780546344683B924E06268FF
:10338000002A46D0304803F0D7FF0546002DBEDBAB
:10339000E068D8B103F080FF14F8103FA3B1627861
:1033A0005207F9D4032BF7D0E0680028F4D0043B8F
:1033B000012B0FD9A1780029E1D1616881B123489F
:1033C00003F0BAFF0546E1E7E81770BD204803F0B7
:1033D0004DFFE1E71F48616803F0AEFF0546D5E702
:1033E000002DD7DA93E71C4803F0A6FF8DE754F8C9
:1033F0000C1C1A4803F0A0FF87E754F80C1C18486F
:1034000003F09AFF81E754F8082C164803F094FF64
:103410007BE7154803F090FF0546B7E708C10008B1
:1034200060D1000830D0000864C1000830C1000835
:1034300048C100086CC1000858C1000824C1000838
:1034400010C1000870D100087CC100088CC10008C0
:1034500064CC000874C1000804C1000840C1000821
:1034600050C1000818C1000898C10008F8B54B68A1
:103470000D46074616465BB118460D4907F0C4FDD8
:10348000044628B938463146FFF712FF2046F8BDFA
:103490000849094A094803F04FFF686803F0FCFE39
:1034A00038463146FFF704FF4FF0FF34EEE700BF28
:1034B000ACC1000830D10008D8D00008B4C1000861
:1034C000F0B5002A059C069F6CDD91F800C0BCF1A8
:1034D000000F2FD00E46002516F801EF0135BEF182
:1034E000000FF9D1AA4226DC724613F0020F0CBF7E
:1034F0004FF0200E4FF0300E13F001031DD1002AC3
:1035000014DD3B6800285FD015469C4208D903684B
:1035100083F800E00368013303603B6801333B60DC
:10352000013DF2D191F800C01346002266464EB923
:103530001846F0BD6546521BD7E76646BCF1000F42
:103540005BD000233D6840B3AC4207D905682E70BC
:103550000568013505603D6801353D6011F8016F72
:103560000133002EF0D1002AE2DD3968002836D080
:1035700015468C4208D9016881F800E001680131E4
:103580000160396801313960013DF2D19818F0BD10
:1035900011F8016F0133002EE5D0AC42F8D96FF07D
:1035A0000100F0BD13F0010307D191F800C04FF006
:1035B000200E6646002EC5D1BAE70E784FF0200ED9
:1035C000002EBED13046F0BD054601E0013A11D0D3
:1035D0009C4205F10105F9D96FF00100F0BDD0184A
:1035E00001E0834208D08C4203F10103F9D96FF066
:1035F0000100F0BD2A4697E7F0BD6346B3E700BF80
:10360000F0B587B00F46109D002949D00C4686467C
:10361000002B30D100238DF817300DF11701002F4A
:1036200035D01E460E9B0DF11701A3F13A07B4FBEE
:10363000F2F302FB13443819092CC8BF0446303496
:1036400001F8014D1C46002BF1D106B30C9B002B59
:1036500038D12D2301F8013C0C9A002401390F9B2D
:1036600070468DE828000D9BFFF72AFF002800DB3D
:10367000204407B0F0BD0A2ACCD10029CADA0023C1
:103680004C428DF81730002C3BD00126CAE7119B25
:10369000ABB12B2301F8013C002401390C9ADEE781
:1036A0000F9B30248DE8280003A90C9A0D9B8DF800
:1036B0000D708DF80C40FFF703FF07B0F0BD1C46FE
:1036C0000C9ACCE70D9B9B07C3D52B680F9A9A42A7
:1036D0000ED9BEF1000F11D0DEF800302D221A7085
:1036E000DEF800300133CEF800302B6801332B6058
:1036F0000C9B0124013B0C931A46B0E76FF00100CC
:10370000B7E70DF11701A1E72DE9F04FB3B002F1D2
:10371000FF3B1D783C9A002407460B9112940792B8
:10372000002D00F0E483A146DA4680461A4619E0EF
:10373000129B9A450ED9B8F1000F00F08D80D8F891
:1037400000301D70D8F80010129B01310133C8F809
:1037500000101293144609F101096578621C002DCE
:1037600000F0D080252DE3D15378541C002B00F0BD
:10377000C980252B75D02D2B03BF9378941C01266F
:1037800000262B2B6FD00022099203E014F8013F92
:1037900046F00206302BF9D02E2B33D0A3F13002A5
:1037A000D2B2092A2ED90622089200276C2B04BF18
:1037B00063780134682B5BD0583B202B44D8DFE87A
:1037C00013F06E03430043004300430043004300F3
:1037D0004300430043004300B501FE018901C500D9
:1037E000C50043004300430043004300430043003F
:1037F0004300D00143004300AE00430025024300D4
:1038000043001702002706232246BB461D461446E6
:1038100012F8013BA3F130012E2BC8B20ED00928BB
:1038200005EB850C07EB870E0CD8BBF1000F02D01F
:1038300000EB4C05EBE701EB4E07E8E700254FF006
:10384000010BE4E70895B1E7129B9A4540F20F821D
:10385000B8F1000F40F0F3816FF0010033B0BDE824
:10386000F08F224664E7012263780992144491E7BD
:1038700063780134583B202BE6D801A252F823F09C
:10388000AB3E0008493800084938000849380008AC
:103890004938000849380008493800084938000804
:1038A0004938000849380008493800082D3B00080D
:1038B000A13C0008D53A00084D3900084D390008F0
:1038C00049380008493800084938000849380008D4
:1038D00049380008493800084938000849380008C4
:1038E000853C000849380008493800081F3900089D
:1038F00049380008953C0008493800084938000854
:10390000893C000847460B9B13F0010303D1002FAD
:10391000A2D03A681370484633B0BDE8F08F079BD9
:10392000B74D196812A8002908BF294601903A46E8
:103930003346CDF800A04046079DFFF7C1FD0028A3
:1039400005F104058ADB8144079506E7079B002201
:1039500003F1070E2EF0070EDEF800300C93184628
:10396000DEF804301D460A93294600230EF10805AF
:10397000079506F013FA002840F07182099B002B8E
:1039800040F078811DAB9B460D93089B072B0ED80A
:103990001D469C4B0C9803EBC5030A99D3E9002301
:1039A00005F0D8FD0C900A91002D00F08482089D4E
:1039B00000230120013300EB8000AB424FEA4000BE
:1039C000F8D1089505F002FFCDE90E010C980A998F
:1039D00006F00CFA03460990002800F06881DFF831
:1039E00028C2089D0DF14B0E0020ACFB0312D2083B
:1039F00002EB8201A3EB410330330EF8013F0130AB
:103A00001346002AF1D10DF14C0E0EEB00030BF121
:103A1000FF3213F8011D734502F8011FF9D12B463F
:103A200008958344002B43D0099805F0CFFE024649
:103A30000B460C980A9905F08BFDDDE90E2305F085
:103A40003BFF06F0D3F92E238BF80030002800F05E
:103A50005082DFF8B4C1089D0DF14B0E0021ACFB84
:103A60000023DB0803EB8302A0EB4202303201317A
:103A70000EF8012F1846002BF1D18D42089598BF02
:103A80000DF14C0E40F2F7810DF14C0E4B1E089DCE
:103A90007344302201318D4203F8012F4FF0300082
:103AA000F8D8002940F0E7818BF801000BF1020BF8
:103AB00012A800250190CDF800A00D993A46334692
:103AC00040468BF80050FFF7FBFC0028FFF6C6AE1F
:103AD000814442E6079B073323F00703D3E9000143
:103AE0000833079306F0A2F9054605F013FD0028F8
:103AF00040F0E4806E2361228DF874308DF87630CA
:103B00008DF875200DF1770E12A900250191CDF8E1
:103B100000A03A46334640461DA98EF80050FFF7F4
:103B2000CFFC0028FFF69AAE814416E6079B12A947
:103B3000D3F800E03A4633460191CDF800A00025C5
:103B4000404611A9079E8DF844E08DF84550FFF7D7
:103B5000B7FC002806F10406FFF680AE8144079604
:103B6000FBE50020D8F8003030221A70D8F8003079
:103B70007822591CC8F800105A70D8F80030079AFB
:103B80000133C8F800301346043309F10209116803
:103B9000079300B189B24122099812AB05900292B5
:103BA000049300970196CDF80CA040461022002304
:103BB000FFF726FD0028FFF651AE8144CDE5079AB8
:103BC00013461168043307930998612212AB0590DC
:103BD0000292049300970196CDF80CA040460A2269
:103BE0000123FFF70DFD0028FFF638AE8144B4E550
:103BF000079A13461168043307936122CCE700BF8C
:103C0000BCC10008C8C10008CDCCCCCC079A134673
:103C10001168043307930998612212AB0590029250
:103C2000049300970196CDF80CA040460A22002389
:103C3000FFF7E6FC0028FFF611AE81448DE5D8F8C9
:103C4000003025221A70D8F80020129B511C013335
:103C5000C8F800109A452178129308D95170D8F805
:103C60000020129B01320133C8F80020129309F1A1
:103C7000020972E52B238DF874301DAB0DF1750B25
:103C80000D9382E601206DE7079A134604331188ED
:103C90000793B2E7079A1346043311880793BAE7EC
:103CA000079A13460433B2F9001007938CE73023C8
:103CB0008BF800300BF1010B089BB3E6284605F0AA
:103CC00029FC0128284640F2FB8005F021FC002851
:103CD00000F0DD8005F100452D2328464FF07E5190
:103CE0008DF8743006F09EFB002840F0FD80824B7A
:103CF000089309944FF0000B089C06E028462146E3
:103D000006F0F2F905460BF1010B7C49284606F056
:103D10009DFB4FF07E5118B9284606F083FB28B171
:103D20002846002106F074FB0028E7D0284606F05C
:103D3000A1FB2E2300F130028DF875208DF876302E
:103D400006F07EF90146284606F0C4F86A490546A1
:103D500006F07EFA06F08EFB00F130038DF8773026
:103D600006F06EF9644906F0BFF90146284606F0F0
:103D7000B1F86349054606F06BFA06F07BFB00F1EB
:103D800030038DF8783006F05BF95D4906F0ACF948
:103D90000146284606F09EF85A49054606F058FAAC
:103DA00006F068FB00F130038DF8793006F048F931
:103DB000544906F099F90146284606F08BF8524915
:103DC000054606F045FA06F055FB00F130038DF884
:103DD0007A3006F035F94C4906F086F90146284656
:103DE00006F078F84949054606F032FA06F042FB3B
:103DF00000F130038DF87B3006F022F9434906F0DC
:103E000073F90146284606F065F8414906F020FAA4
:103E100006F030FB652300F130024FF08041089836
:103E2000099C8DF87C208DF87D3006F019FB80BB55
:103E30002B21384A4FEAEB7382FB0B02C3EBA20241
:103E400002EB8203ABEB4303303330328DF87E104C
:103E50008DF880308DF87F200DF1810E54E60A9A9E
:103E60002D2302F100428DF874301DAB0A920DF142
:103E7000750B0D9389E55A460EEB010313F8010DFE
:103E8000734502F8010FF9D101318B4410E620236C
:103E900023E7BBF1000F0CBF2B212D21C9E7079AA7
:103EA000134604331168079375E6079A13460433E3
:103EB000116807936EE6184B0022CDE90E2385E5C5
:103EC00005F026FB002814BF20202D2069216E223A
:103ED00066238DF874008DF875108DF876208DF8B6
:103EE00077300DF1780E0FE6044B089301E7A946F1
:103EF00009E50146C8E500BFCDCCCC3D000020411E
:103F00000AD7233C6E12833A16B7D138ABC5273790
:103F1000BC378635676666660000F03F10B584B032
:103F200004AC44F8040D0B460092204600214FF0EB
:103F3000FF32FFF7E9FB04B010BD00BF10B4084A20
:103F4000084C13680849002B08BF2346184410602A
:103F50005DF8044B884294BF18464FF0FF3070471D
:103F6000741500200C160020004C002038B5FDF719
:103F700061FE054605F0AEF8002D06DD0024204662
:103F80000134FDF75FFEAC42F9D1002D06DD0024BF
:103F900020460134FDF75CFEAC42F9D14FF4FA70D3
:103FA000FDF7BAFFF1E700BF30B5184C83B02378B6
:103FB0000BB103B030BDFDF71BFEE8B11449154845
:103FC0000B78002B08BF002103F026FBB8B1124983
:103FD000124D134800F06EF803238DE828001148B5
:103FE000002311494FF4806204F0F8FA2B684BB1BA
:103FF0000123237003B030BDFFF7B8FFDEE7FFF702
:10400000B5FFE4E7FFF7B2FFF2E700BF8C0900203D
:104010002401000818C6000848C2000878150020CE
:1040200028D200085D78000840C2000830B5194C5D
:1040300083B02378F3B9FDF7DBFD28B316491748A1
:104040000B78002B08BF002103F0E6FAC8B1144931
:10405000144D154800F02EF803238DE8280013486E
:10406000002313494FF4806204F0B8FA2B6873B14F
:104070000123237004F0B6FB03B0BDE83040FFF726
:1040800075BFFFF773FFE2E7FFF770FFD6E7FFF7B3
:104090006DFFEDE78C0900202401000818C6000818
:1040A00048C200087815002028D200085D78000872
:1040B00040C200082DE9F84304461E4A1E4E13680C
:1040C000356801331360037888462F2B08BF01340D
:1040D00025B12846214606F097FFC8B1B76827B139
:1040E0003846214606F090FF90B1D6F81090B9F10D
:1040F000000F04D04846214606F086FF40B15DB16E
:104100004FB10225B9F1000F06D00020BDE8F883B9
:104110000120BDE8F8830125D8F80430984700282D
:10412000F3D006EBC50346F83540C3F80480012000
:10413000BDE8F883D01500207C15002003782F2BD4
:1041400001D0002070474378EBB110B4104C2268C6
:104150001A445278520710D02F2B0ED0013006E0AF
:1041600022681A445278520707D02F2B05D001F845
:10417000013B10F8013F002BF2D1002301200B700E
:104180005DF8044B704700230B700120704700BF9F
:104190003405002003782F2B01D00020704743788E
:1041A000002BFAD010B4114A01301468E21805E06F
:1041B0002F2B0CD010F8013FE21823B15278520790
:1041C000F6D12F2B03D000205DF8044B704701304F
:1041D00003782BB101F8013B10F8013F002BF9D116
:1041E000002301200B705DF8044B7047340500205C
:1041F00003782F2B01D0002070472DE9F04144783F
:1042000088B0451C6F466A46CCB1334BD3F800E00A
:104210000EEB04035B785B0711D02F2C0FD02846E0
:10422000234604E07678760709D02F2B07D002F8D2
:10423000013B10F8013F0EEB0306002BF2D1DFF833
:104240009C800023D8F800000E46137020B1394638
:1042500006F0DAFE002839D0D8F8080018B139463F
:1042600006F0D2FE88B3D8F8100020B1394606F027
:10427000CBFE70B3002074B1174B1A68131905E018
:104280002F2C0CD015F8014F131924B15B785B0764
:10429000F6D12F2C03D0002008B0BDE8F081013505
:1042A0002B783A462BB102F8013B15F8013F002B61
:1042B000F9D1002313700028EDD043683146384609
:1042C0009B6B984708B0BDE8F081012008EBC00067
:1042D000D1E70220FAE700BF340500207C1500205A
:1042E0002DE9F047037888B02F2B80460D4600F16A
:1042F000010410D04FF00009564FBB680133BB607A
:1043000098F800302F2B3FD0FB6800200133FB6072
:1043100008B0BDE8F08743786E46002B00F090802F
:104320004D4A1768FA185278520700F089802F2BEF
:104330006A460DD0214604E04078400708D02F2B74
:1043400006D002F8013B11F8013FF818002BF3D119
:10435000424F00233868137018B1314606F054FEFE
:1043600078B1B86820B1314606F04EFE00286FD013
:1043700038690028BED0314606F046FE0028B9D183
:10438000022007EBC009B7E798F80130002BBBD03B
:10439000314A1168CA1806E02F2B09D014F8013FE2
:1043A000CA18002BB0D052785207F5D12F2BABD1C1
:1043B000013423786E466A462BB102F8013B14F8AB
:1043C000013F002BF9D100231370B9F1000F9BD0EE
:1043D00004F080FE224B5868A0B31A69A2B3DA69D0
:1043E000A2B39A6A52B15A6B042442B104F094FE0B
:1043F000D9F8043007221B681A6085E7032404EB10
:10440000440AD9F804204FEA8A0A03EB0A08C8F8DC
:10441000042004F081FED9F804203046136A2946AE
:1044200098470F4B38B9D9F8043006221B681A6038
:10443000C8F8040068E743F80A0004F10A0067E7D7
:10444000324685E70446DAE70124D8E70224D6E7B6
:10445000012096E7D0150020340500207C150020AF
:1044600094150020F8B51E4C23690133236120B355
:104470000A3804282DD8002A1DDD4700194B3E18A4
:1044800003EB8606357A6DB93844800003445B68D7
:10449000144EF3B15B6A30589847002813DB5DB1C6
:1044A0000130F8BD4FF0000E0D70013A013186F871
:1044B00008E00125E8E70020F8BD0846BDE8F8401F
:1044C000114602F075BB002D14BF01204FF0FF30E4
:1044D000F8BD63694FF0FF3001336361F8BD00BF81
:1044E000D01500209415002070B5124C451EA3690C
:1044F000012D03F10103A3610FD90A38042813D851
:1045000000EB40000C4B80001D186D6865B1EC6A33
:1045100018582346BDE8704018471446084611460F
:1045200002F094FE204670BDE3694FF0FF30013386
:10453000E36170BDD015002094150020F8B5114B33
:104540000A381A6B042802F101021A6314D800EB2E
:1045500040000D4D84002E1972686AB1536B2859C2
:1045600017689847386004F0B5FD002373602B513D
:1045700004F0D2FD0120F8BD5A6B002001325A63CD
:10458000F8BD00BFD01500209415002003782F2B14
:1045900001D0002070472DE9F0438DB045780DF132
:1045A0001008471C4246B5B1434B186843195B7865
:1045B0005B0710D02F2D0ED03C462B4604E07678BA
:1045C000760708D02F2B06D002F8013B14F8013FE4
:1045D000C618002BF3D1394E002330680C461370F7
:1045E00020B1414606F010FD002863D0B06818B134
:1045F000414606F009FD58B1306928B1414606F040
:1046000003FD4FF0020C28B100200DB0BDE8F0838F
:104610004FF0010C002D3ED0DFF89C90D9F800003F
:1046200043195B78590743D02F2D41D039462B468B
:104630006A4606E09EF801E01EF0070F09D02F2B16
:1046400007D002F8013B11F8013F00EB030E002BED
:10465000F0D1D9F8001000204B195B7810705B077F
:1046600007D116E017F8015F4B19A5B15B785A071F
:104670000FD02F2DF6D101373B780DF111022BB160
:1046800002F8013B17F8013F002BF9D1002313700A
:1046900004E02F2DEFD02F23ADF8103006EBCC0621
:1046A00073684046DB6B214698470DB0BDE8F08348
:1046B0006A46CEE78446ADE7340500207C1500202D
:1046C00001207047024600230B60184613607047B4
:1046D000002070470020704700207047002070477E
:1046E0004FF0FF30704700BF10B40F4B013853F844
:1046F0003040ACB1002A0FDD03EBC0025268114418
:1047000000290DDBA26891420ADC03EBC0030846D6
:1047100059605DF8044B70471CBFA268511AEFE75F
:104720004FF0FF30F5E700BF9409002000207047EC
:10473000034B0138002243F830200120704700BFAE
:1047400094090020074900220B4643F8042B043348
:104750004A6043F8042B43F8042B43F8042B1A60F7
:1047600001207047940900202DE9F0410646114DC3
:10477000114F002457F834304FEAC4082BB10134EC
:10478000032CF7D10020BDE8F081286820B9F6E7B6
:1047900055F80C0F0028F2D0314606F035FC002801
:1047A000F6D1B844C8F8040047F83450601CBDE89E
:1047B000F08100BFF4C200089409002070B50546DE
:1047C0000E46084C084802E054F80C0F40B1294648
:1047D00006F01AFC0028F7D1A3680120336070BDF1
:1047E00070BD00BFF4C2000888C20008F8B5104BC5
:1047F000013853F83050BDB103EBC0067768AB68A1
:10480000DB1B23EAE3739A42A8BF1A4614460AB98F
:104810001046F8BD08466968394406F0E7F8726842
:10482000204614447460F8BD4FF0FF30F8BD00BF5F
:104830009409002038B50D46084906F0E5FB50B94B
:10484000074C0848A1680022A84754F80C0F00281C
:10485000F8D1012038BD002038BD00BF90C200084B
:10486000F4C2000888C20008F0B589B0431E0A1DD2
:104870000F4602A81C490026FEF7F2FB354602A9A6
:104880006846FEF7FBFB1949044680B1009BEBB17B
:104890005C68204606F0B8FB154930B1204606F0AA
:1048A000B3FB0028EBD1019EE9E70125E7E7B6B1AC
:1048B000304602F09FFD0F4A0F4B002814BF1046F0
:1048C000184602F0E9FC204609B0F0BD3868694698
:1048D000054AFEF7CBFD0446204609B0F0BD294647
:1048E00002F0C8FD0446EEE718C3000888C30008BC
:1048F0008CC300086CD0000898D100082DE9F04F57
:104900008FB00A1D431E4FF47A754FF0FF34804676
:104910000E4608A8424904950594FEF7A1FB414CB8
:10492000414D424F4FF0000906A808A9FEF7A6FB2B
:10493000002858D0069B002B67D05B68A34248D064
:10494000AB4256D0BB42EFD10B9B56F8230002F08E
:1049500051FD0B9F8246C7EB0803019306EB8707C7
:10496000002840D0324B98423DD0324E4FF0000BE1
:1049700001983946D0478046002834D1B9F1000F5C
:1049800004D0059B0BF1010B9B451EDA049BFA2416
:10499000032B9CBF0423049304F02CF8054604F079
:1049A00029F8049B022104FB03F3A6FB032305EB78
:1049B00093139842DCD20DF10F00FDF7B7FC0130E4
:1049C000EDD09DF80F30032BE9D140460FB0BDE884
:1049D000F08F04A90798FEF79FFA06A808A9FEF72A
:1049E0004DFB0028A6D14FF0010840460FB0BDE8AE
:1049F000F08F079805A9FEF78FFA059B4FF0010984
:104A0000002B91DC4FF0FF38DFE7306806A9044A3D
:104A1000FEF72CFD804640460FB0BDE8F08F00BF8A
:104A200048C3000864D00008B0D100089CD1000839
:104A3000FD480008D34D6210F8B5037C0446002BF6
:104A40000F4614BF01258025082615E0FDF724FB3D
:104A5000A068FDF717FAA1882078FDF71DFBA06874
:104A6000FDF710FA2078A188FDF71EFB237C6A0071
:104A70004BB1013ED5B20AD03D426078E188E5D124
:104A8000FDF712FBE4E7013E4FEA5505F4D1E1885A
:104A90006078FDF701FBA068FDF7F4F92078A188A4
:104AA000FDF7FAFAE1886078FDF718FB0546A06883
:104AB000FDF7E8F92078A188FDF7F6FAB5FA85F058
:104AC0004009F8BDF8B5274E074656F820400D4678
:104AD000002C3DD02078A188FDF73CFA6078E18871
:104AE000FDF738FA2B686868A968EA682360606097
:104AF000A160E260A178E2782B69012505FA02F253
:104B000005FA01F12361E280A180207889B2FDF7E6
:104B100073FA6078E188FDF797FAE1886078FDF72D
:104B2000C3FAA068FDF7AEF9A1882078FDF7BCFABA
:104B3000A068FDF7A7F9A1882078FDF7ADFAA06875
:104B4000FDF7A0F96078E188FDF7A6FA2846F8BDE0
:104B5000142004F051FA044610B146F82700C1E7CA
:104B6000F8BD00BFB00900202DE9F84F914CDDF8E9
:104B700028A054F82040002C00F0F6800D461E4678
:104B800091466078E188002B34D0FDF785FAA06863
:104B9000FDF778F9A1882078FDF77EFAA068FDF787
:104BA00071F9E1886078FDF77FFAA068FDF76AF98E
:104BB0002078A188FDF778FA0B9B002B5BD09DF83D
:104BC0002C102046FFF738FF002800F0D680002E7A
:104BD000C8BF761906DD15F8011B2046FFF72CFF2C
:104BE000B542F8D1BAF1000F49D10C9B23B3012093
:104BF000BDE8F88FFDF750FAA068FDF743F9A188EA
:104C00002078FDF749FAA068FDF73CF9E188607863
:104C1000FDF74AFAA068FDF735F92078A188FDF77D
:104C200043FA0B9B23BBE3685B00D9B22046FFF736
:104C300003FF002800F0A180E1886078FDF734FAD6
:104C4000A068FDF71FF9A1882078FDF72DFAA0686C
:104C5000FDF718F9A1882078FDF71EFAA068FDF786
:104C600011F96078E188FDF717FA0120BDE8F88FA7
:104C70009DF82C10DAE7E3685B00D9B2A1E7E18880
:104C80006078FDF709FAA068FDF7FCF8A1882078A4
:104C9000FDF702FAA068FDF7F5F8E1886078FDF706
:104CA00003FAA068FDF7EEF82078A188FDF7FCF97B
:104CB0000B9B002B5BD09DF82C102046FFF7BCFE11
:104CC00000285AD0BAF1000F8FDD09F1FF390AF13F
:104CD000FF3B4FF00008237C6078002BE18814BF75
:104CE000012680260825FDF7D7F9002702E0013DBF
:104CF000D6B21BD0A068FDF7C5F82078A188FDF7D3
:104D0000CBF96078E188FDF7E9F900B13743A06895
:104D1000FDF7B8F82078A188FDF7C6F9237C72006A
:104D2000002BE4D1013D4FEA5606E3D1C34560783C
:104D3000E18816DCFDF7B0F9A068FDF7A3F8A188BB
:104D40002078FDF7A9F9A068FDF79CF808F10108A3
:104D50002078A188FDF7A8F9D04509F8017FBAD1DC
:104D600043E7FDF7A1F9E7E72046BDE8F88FE368E0
:104D7000590041F00101C9B29FE7E1886078FDF771
:104D800093F9A068FDF77EF8A1882078FDF78CF9EB
:104D9000A068FDF777F8A1882078FDF77DF9A06875
:104DA000FDF770F86078E188FDF776F94FF0FF3095
:104DB000BDE8F88FB00900202DE9F04FADF5177D63
:104DC00000240A1D431E012605258246894610A897
:104DD000A54908948DF82C408DF82D408DF82F4072
:104DE0000E948DF83C408DF82E600D95A046FEF790
:104DF00037F9A346059404949C4D9D4C9D4E09A8FB
:104E000010A9FEF73BF928B3099B002B00F0A780FF
:104E10005F68A74255D0AF4260D0B74263D0964A90
:104E2000974248D0954A974255D03846944906F063
:104E3000EBF8002842D03846924906F0E5F8002801
:104E400056D1012309A810A98DF83C30FEF716F9B8
:104E50000028D9D1049B002B40F0DB80059B002B60
:104E600040F0DF80139A059C01325245139207AE41
:104E700080F09B8016AD0AE0139A336801325245E8
:104E80002B551392294604F1010480F08F8059F8C4
:104E900022003146FEF740F80028EDD17A4802F0B2
:104EA000E5F9139B59F8230002F0F6F901200DF5FE
:104EB000177DBDE8F08F01230493A0E74FF0010BAD
:104EC0009DE70A980EA9FEF727F8002800F0C08099
:104ED0004FF0010893E70123059390E70A980DA985
:104EE000FEF71AF88BE70A9808A9FEF715F886E787
:104EF0003846664906F088F868B13846644906F0D5
:104F000083F8002835D0634A97427FF478AF139B2B
:104F1000013B13939EE706A90A980A2206F0C8FAF5
:104F2000069B8DF82C00A3B11A782E2A11D1581C9B
:104F300006905B786BB106A90A2206F0B9FA069BC7
:104F40008DF82E00002B3FF45AAF1B78002B3FF456
:104F500056AF514802F0C2F94FF0FF3005E0D9F8E2
:104F6000000009A9404AFEF781FA0DF5177DBDE85A
:104F7000F08F06A90A980A2206F09AFA069B8DF885
:104F80002D00002BE5D01A782E2AE2D1581C06906D
:104F90005B78002BDDD006A90A2206F089FA069B71
:104FA0008DF82F00002BD0D129E716A9089AB8F167
:104FB000000F49D00E9B56AD8DE80C08002023460B
:104FC0002A46FFF7D1FD306000283FD0013045D0A0
:104FD000089B002B1BD04FF00003336017DD1C46ED
:104FE00005E03368089A01339A4233600BDDE95CCF
:104FF0002A4802F0A1F904444E2CF2DD0A2001F007
:1050000007FE0024EDE714B10A2001F001FE0020A4
:10501000ABE70BA90020FFF755FDB0FA80F040097F
:10502000A3E71F4D2C68002CF1D02078A188FCF755
:1050300091FF6078E188FCF78DFF204603F0E8FFE0
:10504000049B2B60184690E74346B4E701208CE7A9
:10505000204602F043F94FF0FF3086E7114802F096
:105060003DF9022081E700BF44C70008E8D00008EE
:1050700044D0000834D0000868D100080CD10008E2
:10508000E4C90008ECC90008F8C90008F0C9000824
:10509000F4C90008B8D1000848D1000808CA0008BF
:1050A000B009002004CA0008F8B52C4D074655F891
:1050B00020400E46002C47D020782189FCF74AFF7B
:1050C00060786189FCF746FFA078A189FCF742FF70
:1050D000E078E189FCF73EFF72683068B368F168F8
:1050E0006260E160A36094F807C02060217994F8C1
:1050F00005E0A7797269B3693069012505FA0EFEEA
:1051000005FA0CF605FA01F105FA07F76261A361E9
:10511000A4F80AE02181206189B22078A781E68184
:10512000FCF718FF60786189FCF766FFA078A18919
:10513000FCF762FFE078E189FCF75EFFE078E18947
:10514000FCF7AAFF2846F8BD1C2003F055FF0446D3
:1051500010B145F82700BFE7F8BD00BFAC0900203B
:105160002DE9F04F644C83B054F820A0BAF1000F41
:1051700000F0BD801C469AF818300D4693469AF808
:105180000200BAF80C10002B40F09980FCF78CFF5D
:105190009AF80300BAF80E10FCF786FF002C00F016
:1051A0009C802B1F009401930125019ADAF814309A
:1051B00052F8046F9AF8198001929AF81890002B0F
:1051C00000F0838000273C464AE0E243134405FA9E
:1051D00003F333429AF80100BAF80A104CD0FCF7F6
:1051E0005BFFC8459AF80200BAF80C104CD0FCF7E7
:1051F00053FFDAF81000FCF745FE9AF80200BAF8FF
:105200000C10FCF751FF9AF81A30002B4CD1DAF849
:1052100014309AF80100013B1B1B05FA03F33342DB
:10522000BAF80A1048D0FCF737FF9AF80000BAF82D
:105230000810FCF753FF50B19AF81A30002B41D1F7
:10524000DAF81430013B1B1B05FA03F31F43DAF8AD
:105250001000FCF717FEDAF814300134A34235D9F8
:105260009AF81A20002AB0D005FA04F333429AF8CB
:105270000100BAF80A10B2D1FCF716FFC8459AF837
:105280000200BAF80C10B2D1FCF70EFFDAF81000E9
:10529000FCF7F8FD9AF80200BAF80C10FCF7FCFED7
:1052A0009AF81A30002BB2D005FA04F333429AF878
:1052B0000100BAF80A10B6D1FCF7F6FEB5E7FCF724
:1052C000EBFE65E705FA04F3C0E71F46009B4BF8C9
:1052D000047B013B00937FF468AF9AF80300BAF8AF
:1052E0000E10FCF7D9FE012003B0BDE8F08F504648
:1052F00003B0BDE8F08F00BFAC0900202DE9F04FEE
:10530000A04FADF6540D00240A1D431E05260825A6
:1053100083468A4607A89C490E97119612950D94CC
:105320008DF84C408DF84D408DF84E400194A046CC
:10533000FDF796FEA146954D954E964F05A807A9F7
:10534000FDF79CFEF8B1059B002B00F0AF805C6878
:10535000AC425CD0B4424BD0BC4260D08E4A944246
:1053600049D08E4A944257D020468D4905F04CFED4
:10537000002843D1012305A807A98DF84C30FDF77B
:105380007DFE0028DFD1B9F1000F40F08480019B41
:10539000002B40F036811C460A9801300A90834564
:1053A00040F24F8114AB03EB84055AF820002946E4
:1053B00004AAFDF7D3FD002800F0658129460A986C
:1053C000049B013001340A90002B79D00A68013423
:1053D000B4F5807F03F1FF3341F8042FF4DD714809
:1053E000049301F07BFF01200DF6540DBDE8F08F12
:1053F0004FF00108A2E74FF001099FE720466A49F4
:1054000005F002FED0B901238DF84D3096E70698DD
:1054100011A9FDF781FD91E7012301938EE706981D
:1054200012A9FDF779FD002888D0129B023B1E2BA4
:1054300084D9384601F052FF0120D5E720465B4968
:1054400005F0E2FD18B901238DF84E3076E72046CD
:10545000574905F0D9FD002834D02046554905F0BC
:10546000D3FD002851D02046534905F0CDFD00283A
:105470006CD02046514905F0C7FD002800F0A480FB
:105480004F4A94427FF45AAF0A9B013B0A93B9F109
:10549000000F3FF47CAF0DA90020FFF705FEB0FA26
:1054A00080F040090DF6540DBDE8F08FDAF80000E9
:1054B00005A9354AFDF7DAFF0DF6540DBDE8F08F6A
:1054C00004936CE703A906980A2205F0F1FF039BF9
:1054D0008DF83400A3B11A782E2A11D1581C0390EC
:1054E0005B786BB103A90A2205F0E2FF039B8DF8FC
:1054F0003800002B3FF422AF1B78002B3FF41EAF87
:10550000304801F0EBFE01206EE703A906980A225D
:1055100005F0CEFF039B8DF83500002BF0D01A78F4
:105520002E2AEDD1581C03905B78002BE8D003A9FC
:105530000A2205F0BDFF039B8DF83900002B3FF4D4
:10554000FDAE1B78002B3FF4F9AED9E703A906980E
:105550000A2205F0ADFF039B8DF83600002BCFD05B
:105560001A782E2ACCD1581C03905B78002BC7D018
:1055700003A90A2205F09CFF039B8DF83A00002B3B
:10558000BAD1DBE60001020364C80008E8D00008D5
:1055900034D000085CD0000868D100080CD10008A5
:1055A00010CA000830CA000818CA0008ECC9000870
:1055B00020CA000824CA000828CA00082CCA00080B
:1055C000B8D1000848D1000803A906980A2205F0BE
:1055D0006FFF039B8DF83700002B91D01A782E2A8D
:1055E0008ED1581C03905B78002B89D003A90A2226
:1055F00005F05EFF039B8DF83B00002B7FF47CAF32
:105600009CE6284D2C68D4B120782189FCF7A2FCB7
:1056100060786189FCF79EFCA078A189FCF79AFC70
:10562000E078E189FCF796FC204603F0F1FCC5F830
:1056300000904846D8E615B10A2001F0E9FA0020AA
:10564000D2E664B3002014A90DF58A622346FFF761
:1056500087FD10B3B8F1000FF1D000252E460DF2F2
:105660004C4701E0A642E6DA0F4857F8041F01F064
:1056700063FE05444E2D06F10106F3DD0A2001F01C
:10568000C7FA0025EEE7094801F0F0FD0A9B5AF839
:10569000230001F001FE0120A6E60120A4E64FF060
:1056A000FF30A1E6AC09002038CA0008F8C900089C
:1056B0002DE9F0478EB000240A1D431E0126052562
:1056C0008246894608A872498DF814408DF8154025
:1056D0008DF81640ADF818600795FDF7C1FCA0469F
:1056E00027466C4D6C4C6D4E03A808A9FDF7C6FC0F
:1056F00090B1039B002B73D05B68A34241D0AB42B7
:1057000041D0B34246D0664A93423FD0654A934265
:1057100045D0654A9342E7D1002F71D1B8F1000F0F
:1057200040F098800B9B534580F0A58059F82300EA
:1057300002A9FDF7F1FB00285BD05C4B029D1C68C1
:10574000002C59D09DB981E0FCF7AEFCA068FCF7B5
:1057500099FBA3782078A188002B6ED0FCF79CFCE5
:10576000A068FCF78FFB03F0D7FC013D6ED003F07F
:10577000B1FCA3782078A188002BE5D1FCF78CFC44
:10578000E4E70127B0E74FF00108ADE701238DF80A
:105790001630A9E7049807A9FDF7BEFBA4E701A905
:1057A00004980A2205F084FE019B8DF8140093B141
:1057B0001A782E2A0FD1581C01905B785BB101A991
:1057C0000A2205F075FE019B8DF81500002B8BD089
:1057D0001B78002B88D0364801F080FD012005E0C1
:1057E000D9F8000003A92A4AFDF740FE0EB0BDE833
:1057F000F087304801F072FD01200EB0BDE8F0875F
:105800002A4D2C68002C3BD02078A188FCF7A2FB05
:1058100005AB07CB2060607801238340616020786E
:1058200099B2A260A380FCF7E7FBA7782078A18853
:10583000EFB9FCF739FC3846D8E7FCF735FCA0682F
:10584000FCF720FB03F068FC013D90D100200EB076
:10585000BDE8F087154D2C6884B12078A188FCF74D
:1058600079FB204603F0D4FB2F603846BEE7FCF7F7
:1058700013FC0020BAE74FF0FF30B7E73846B5E732
:105880000C2003F0B9FB04460028B5D02860BFE720
:10589000F4C700080CD1000868D10008E8D000085F
:1058A0003CD000087CD0000854D00008B409002087
:1058B00048D10008B0D100080A462DE9F04F002673
:1058C000B346B046B146374693B00691431E043204
:1058D0000CA89D499D4C9E4DFDF7C2FB0796019675
:1058E00003960296049605960AA80CA9FDF7C6FB36
:1058F000002835D00A9B002B00F09380D3F804A039
:10590000A24576D0AA457AD05046924905F07CFB54
:1059100000286CD05046904905F076FB00286BD0EB
:1059200050468E4905F070FB002874D08C4B9A4588
:1059300000F055818B4B9A4570D08B4B9A4500F007
:10594000B2808A4B9A4575D0029A894B0AA89A452B
:1059500008BF01220CA90292FDF790FB0028C9D1D3
:10596000049B002B69D1029B002B40F0E180059B3A
:10597000002B40F0BB80019B002B71D1B8F1000FD0
:1059800040F00081002F40F02E81B9F1000F40F06F
:105990003F81039B002B00F02081764C0826274690
:1059A0000FE0FCF76FFA38787988FCF775FB03F0A5
:1059B000B3FB2D20FCF766FA013E4FEA5B0B00F0CB
:1059C000B38003F087FB20786188FCF76DFB1BF048
:1059D00001054FF00F00E4D13C20FCF753FA387872
:1059E0007988FCF759FB03F097FB2846E2E701278B
:1059F0007AE74FF0010877E74FF0010974E70B9859
:105A000008A9FDF789FA00283FF46EAF01239DF83D
:105A100020B0039368E70123019365E70123059311
:105A200062E7069B0AA91868474AFDF71FFD13B0F5
:105A3000BDE8F08F0123049356E74E4C079A0123EB
:105A4000B34099B21046638022706670FCF7FCFA8E
:105A500020786188FCF720FB002013B0BDE8F08FB0
:105A6000444C03F037FB61882078FCF71DFB0120D4
:105A7000FCF708FA61882078FCF70EFB0920FCF798
:105A800001FA61882078FCF729FB044603F044FB07
:105A90003220FCF7F7F9211C18BF0121364801F02C
:105AA0004BFC0598C3E70A2209A90B9805F000FDF5
:105AB000099BC2B207929BB11A782E2A10D1581CAA
:105AC00009905B7863B109A90A2205F0F1FC099BF2
