:020000040800F2
:1000000000500020CD010008B1100008B510000814
:10001000B9100008BD100008C11000080000000061
:10002000000000000000000000000000C17A00088D
:10003000C510000800000000517B0008957B0008F7
:100040002D0200082D0200082D0200082D020008D4
:100050002D0200082D0200082D0200082D020008C4
:100060002D0200082D0200082D0200082D020008B4
:100070002D0200082D0200082D0200082D020008A4
:100080002D0200082D0200082D0200082D02000894
:100090002D0200082D0200082D0200082D02000884
:1000A0002D0200082D0200082D0200082D02000874
:1000B0002D0200082D0200082D0200082D02000864
:1000C0002D0200082D0200082D0200082D02000854
:1000D0002D020008E51700082D0200082D02000877
:1000E0002D0200082D0200082D020008000000006B
:1000F0000000000000000000000000000000000000
:0C01000000000000000000005FF808F1A3
:10010C003C6D637573683E003230313931303130BB
:08011C002D3131343833370076
:020124000000D9
:0801280040A3000001000000EB
:1001300070B4840746D0541E002A41D0CDB2034685
:1001400002E0621EE4B3144603F8015B9A07F8D19B
:10015000032C2ED9CDB245EA05250F2C45EA0545DD
:1001600019D9264603F11002103E0F2E42F8105CFA
:1001700042F80C5C42F8085C42F8045C02F11002A0
:10018000F2D8A4F1100222F00F0204F00F04103292
:10019000032C13440DD91E462246043A032A46F87E
:1001A000045BFAD8221F22F003020432134404F045
:1001B00003042CB1C9B21C4403F8011BA342FBD1B8
:1001C00070BC704714460346C2E700BF002103E03D
:1001D0000F4B5B58435004310E480F4B42189A4264
:1001E000F6D30E4A02E0002342F8043B0C4B9A423D
:1001F000F9D30C4A03E05FF0A53342F8043B0A4B05
:100200009A42F8D300F014F807F080FD7047000020
:10021000B8BB000800000020600800206008002033
:100220006C0C0020004C002000500020FEE7000075
:1002300030B43C4B3C49186882B040F00100186073
:100240005D6800202940596019684FF41F0421F0AF
:10025000847121F48031196019681A4621F48021D3
:100260001960596821F4FE0159609C60009001906A
:10027000196841F48031196003E0009BB3F5A06F69
:1002800009D0136803F400330193009B01330093FA
:10029000019B002BF1D0234B1B6813F4003318BFD4
:1002A00001230193019B012B06D0204B4FF00062EC
:1002B0009A6002B030BC70471D4A1A4B106819464C
:1002C00040F010001060106820F00300106010680B
:1002D00040F0020010605A685A605A685A605A68C2
:1002E00042F480625A605A6822F47C125A605A685A
:1002F00042F4E8125A601A6842F080721A600B6881
:10030000084A9B01FBD51146536823F00303536051
:10031000536843F0020353604B6803F00C03082B4F
:10032000FAD1C2E7001002400000FFF800ED00E043
:100330000020024040F0BF60024B40F40030D86023
:10034000704700BF00ED00E0C3785BB9037801217E
:100350005A09174803F01F03203201FA03F340F84B
:100360002230704730B4134A4378D2688178D24340
:100370000F24C2F30222D440C2F1040503FA05F2AD
:1003800004EA0103017813431B0101F16042DBB26F
:1003900002F5614282F800330378012203F01F0066
:1003A00003495B09824041F8232030BC704700BFFD
:1003B00000E100E000ED00E008B5174B984212D0D4
:1003C000164B98421BD0164B984200D008BD4FF4F4
:1003D0000040012100F0BAFBBDE808404FF40040A6
:1003E000002100F0B3BB4FF40070012100F0AEFB20
:1003F000BDE808404FF40070002100F0A7BB4FF4A7
:100400008060012100F0A2FBBDE808404FF480604D
:10041000002100F09BBB00BF0024014000280140E8
:10042000003C014042680B6822F4702230B422F490
:1004300080720C79134343EA0423436085688C6817
:10044000CA68094B22432B404C79134343EA4403C7
:1004500083600A7CC36A013AD2B223F4700343EA90
:100460000253C36230BC7047FDF7F1FF836819B9CE
:1004700023F001038360704743F0010383607047FA
:10048000836819B923F480738360704743F48073E1
:1004900083607047836843F008038360704700BF40
:1004A0008068C0F3C0007047836843F00403836032
:1004B000704700BF8068C0F380007047836819B937
:1004C00023F4A0038360704743F4A0038360704764
:1004D000092970B41CD9A1F10A0404EB4404C568CD
:1004E0000726A640A34025EA06042343062AC36044
:1004F0001AD90C2A25D90D3AC46A02EB82021F23AD
:10050000934024EA030391401943C16270BC7047D1
:1005100001EB410605690724B440B34025EA040411
:100520002343062A0361E4D8013A446B02EB8202BA
:100530001F23934024EA030391401943416370BC95
:100540007047073A046B02EB82021F23934024EAB0
:10055000030391401943016370BC70474FF6FE726C
:1005600003683A491A4088424FF000030260036072
:1005700043608360C36027D0354B98422AD0354B07
:1005800098422DD0344B984230D0344B984239D0D9
:10059000334B98423CD0334B98420FD0324B984269
:1005A0003CD0324B98423FD0314B984242D0314BF5
:1005B000984245D0304B98421ED070472F4A53681E
:1005C00043F07063536070472C4A536843F00F0345
:1005D00053607047294A536843F0F00353607047F3
:1005E000264A536843F4706353607047234A536844
:1005F00043F4704353607047214A536843F47023B7
:100600005360DAE71D4A536843F470235360704720
:100610001A4A536843F4700353607047184A53688A
:1006200043F00F0353607047154A536843F0F003DB
:1006300053607047124A536843F4706353607047C5
:100640000F4A536843F470435360704708000240F8
:100650001C000240300002404400024058000240AA
:100660006C00024080000240080402401C0402406A
:10067000300402404404024058040240000002409A
:10068000000402408A6830B40D6A0B692A434D6940
:1006900013438A691D43CB6945EA02044D6A026827
:1006A00023438C6A1D4322F4FF432C4323F0700341
:1006B00023430360CB6830BC43600B6883604B68A6
:1006C000C360704729B94FF6FE7302681340036098
:1006D0007047036843F001030360704770B4CD783E
:1006E000EB0648BF8B7805F00F0448BF1C430B880E
:1006F00013F0FF0F30D013F00106026840F03C8188
:1007000003F00205ADB2002D40F01C8103F004059A
:10071000ADB2002D40F0238103F00805ADB2002DED
:1007200040F0DC8003F01005ADB2002D40F0E38016
:1007300003F02005ADB2002D40F0EA8003F0400543
:10074000ADB2002D40F0F18003F080039BB2002B8E
:1007500040F01E8102600B88FF2B29D903F48075BD
:10076000ADB24268002D32D103F40075ADB2002D58
:1007700040D103F48065ADB2002D4ED103F4006585
:10078000ADB2002D5CD103F48055ADB2002D6AD11D
:1007900003F40055ADB2002D78D103F48045ADB21D
:1007A000002D40F0878003F400439BB213B94260F0
:1007B00070BC7047CD7864F31F72282D04BF43616D
:1007C000CD78482D04BF4FF400430361EFE7CB78A9
:1007D00022F00F02282B42EA040200F0F480482B9A
:1007E00004BF4FF4807303610B8803F40075ADB24E
:1007F000002DBED0CB7822F0F002282B42EA041262
:1008000000F0DE80482B04BF4FF4007303610B88B7
:1008100003F48065ADB2002DB0D0CB7822F47062C5
:10082000282B42EA042200F0C880482B04BF4FF472
:10083000806303610B8803F40065ADB2002DA2D084
:10084000CB7822F47042282B42EA043200F0B280C6
:10085000482B04BF4FF4006303610B8803F48055F9
:10086000ADB2002D94D0CB7822F47022282B42EA2E
:10087000044200F09C80482B04BF4FF48053036176
:100880000B8803F40055ADB2002D86D0CB7822F44E
:100890007002282B42EA045200F08680482B04BFE5
:1008A0004FF4005303610B8803F48045ADB2002D73
:1008B0003FF479AFCB7822F07062282B42EA0462D1
:1008C0006FD0482B04BF4FF4804303610B8803F4BF
:1008D00000439BB2002B3FF46AAF6BE7CE7822F463
:1008E0007042282E42EA043270D0482E7FF41AAFAC
:1008F00005610B8816E7CE7822F47022282E42EA92
:1009000004426BD0482E7FF413AF05610B880FE7CC
:10091000CE7822F47002282E42EA04525BD0482E90
:100920007FF40CAF05610B8808E7CE7822F0706287
:10093000282E42EA04625DD0482E7FF405AF05619F
:100940000B8801E7CE7822F0F002282E42EA04124A
:100950004DD0482E7FF4DAAE05610B88D6E6CE780E
:1009600022F47062282E42EA04223DD0482E7FF401
:10097000D3AE05610B88CFE622F00F02282D42EAA4
:1009800004022ED0482D7FF4BBAE06610B88B7E67B
:10099000CD7864F31F72282D1BD0482D08BF03614A
:1009A000D8E64561CB788CE74561CB7876E7456141
:1009B000CB7860E74561CB784AE74561CB7834E78F
:1009C0004561CB781EE74561CB7808E745610B8828
:1009D000A8E64361BEE645610B88AFE645610B883A
:1009E000A6E646610B888BE645610B8894E6456177
:1009F0000B888BE645610B88A6E600BF4FF6FF71BA
:100A00000222042301808270C3707047806880B224
:100A1000704700BF0161704741617047C160704716
:100A2000014B1860704700BF00300040014B586018
:100A3000704700BF00300040014B9860704700BF16
:100A4000003000404AF6AA22014B1A60704700BFEE
:100A500000300040034A536823F440431843506079
:100A6000704700BF0010024030B4214A536803F0C1
:100A70000C03042B06D0082B25D01BB11D4A1346AE
:100A8000026001E01B4B0360194A1B4C51681B4D6F
:100A9000C1F30311615CCB4043605168C1F3022193
:100AA000615C23FA01F181605168C1F3C221615C8C
:100AB000CB40C3605268C2F38132AA5C30BCB3FB46
:100AC000F2F30361704753685168C3F38343C9036A
:100AD00003F1020307D55268920304D4054A02FBCE
:100AE00003F30360D0E7064A02FB03F30360CBE79E
:100AF0000010024000127A0034040020300400206C
:100B000000093D00044A536919B923EA0000506105
:100B1000704718435061704700100240044A9369BF
:100B200019B923EA0000906170471843906170473B
:100B300000100240044AD36919B923EA0000D061C9
:100B400070471843D061704700100240044AD368D0
:100B500019B923EA0000D06070471843D06070478D
:100B600000100240274A038890429BB212D002F53F
:100B7000006290420ED0B0F1804F0BD0A2F59832B7
:100B8000904207D002F58062904203D002F5806265
:100B9000904203D14A8823F0700313431A4A9042CB
:100BA00027D002F58062904223D0CA8823F4407394
:100BB0009BB2134303808A88124B82850A8898422D
:100BC000028511D0114B98420ED003F54063984234
:100BD0000AD003F58063984206D003F580639842FB
:100BE00002D00123838270470B7A0386012383821C
:100BF000704703808B8883850B880385012383825C
:100C0000704700BF002C014000100040003401403C
:100C1000038CF0B423F001031B041B0C0384048C2D
:100C20008788028B4E8824F002040B891B4D240414
:100C300022F07302240C334312040E882343120C57
:100C4000A8429BB2BCB242EA060216D005F5006586
:100C5000A84212D005F54065A8420ED005F5806582
:100C6000A8420AD005F58065A84206D08480028398
:100C7000CA88F0BC8286038470474E89CF898D89EB
:100C800023F00803334324F440748E883D4323F05B
:100C900004032C433343A4B2E8E700BF002C014017
:100CA000038CF0B523F010031B041B0C0384038C8E
:100CB0008588028B23F020031B04B1F808E022F49E
:100CC000E6420C88184E1B0C4F88120443EA0E13A0
:100CD000120C43EA071342EA0422B0429BB2ADB2BF
:100CE00094B208D0114A904205D085800483CA8806
:100CF00002870384F0BD4FF6BF7623F080024B8954
:100D000092B2B1F80CE042EA031225F440658B88F8
:100D1000CF89164045EA8E0546EA031345EA870562
:100D20009BB2ADB2E1E700BF002C014000340140AE
:100D3000038CF0B523F480731B041B0C0384038C19
:100D4000848823F40073828B0D891B04194E1B0CBD
:100D50004F8822F0730243EA052312040D8843EA08
:100D60000723120CB0429BB2A4B245EA020509D097
:100D700006F50066B04205D084808583CA888287E4
:100D80000384F0BD4FF6FF3623F400624B8992B224
:100D9000B1F80CE042EA032224F440548B88CF8956
:100DA000164044EA0E1446EA032344EA07149BB2B1
:100DB000A4B2E1E7002C0140038CF0B523F480538A
:100DC0001B041B0C0384028C8488838B22F4005246
:100DD0001204B1F808E023F4E643114D120C4F88D9
:100DE0001B040E8842EA0E321B0C42EA073243EA29
:100DF0000623A84292B2A4B29BB20AD005F50065C0
:100E0000A84206D084808383CB88A0F84030028437
:100E1000F0BD8D8924F4804444EA8514A4B2F1E73E
:100E2000002C0140038829B923F001031B041B0C8B
:100E3000038070479BB243F001030380704700BFFB
:100E400001858282704700BF818470478185704729
:100E5000818670470187704781877047A0F84010EE
:100E6000704700BF70B504460D46038ACA889BB21E
:100E700023F440531343038282898B88088992B2FA
:100E80004989034322F4B0520B4322F00C0213436E
:100E90009BB2A381A38AAA899BB223F4407386B034
:100EA0001343A38201A8FFF7DFFD1B48039B0499AE
:100EB000A289844208BF0B4612B2002A2A6803EBBB
:100EC0008303B4BF5200920003EB8303B3FBF2F33E
:100ED000124EA589A6FB03202DB240096422002DE5
:100EE00000FB12334FEA00100ADB1A013232A6FB74
:100EF0000223C3F3431303439BB2238106B070BDA7
:100F0000D9003231A6FB0131C1F3421242EA00039B
:100F10009BB2238106B070BD003801401F85EB51A4
:100F2000838929B923F400531B041B0C8381704768
:100F30009BB243F400538381704700BF10B401F0AB
:100F40001F04C1F342110123012903FA04F311D054
:100F500002290CBF1030143032B9026822EA0303B0
:100F600003605DF8044B70470268134303605DF84B
:100F7000044B70470C30EFE7C1F3080181807047E4
:100F80008088C0F308007047C94389B20180704768
:100F9000C1F3421210B4012301F01F04012A03FA25
:100FA00004F316D0022A0CBF028A828A92B213403E
:100FB000028892B24BB1090A01238B40134214BF3D
:100FC000012000205DF8044B704718465DF8044B83
:100FD0007047828992B21340EAE700BF090A0123F1
:100FE0008B40DB439BB20380704700BF10B50024E9
:100FF00003E0204600F03AF8013400F02FF8844274
:10100000F7DB00F027FB00F009F9BDE810400020F5
:1010100006F05EBF704700BF08B500F043FB00F06C
:1010200041F900F0A5F900F00BF8FFF7F3FF4FF4DA
:10103000165000F047FB003018BF012008BD00BF6C
:1010400008B502204FF4005100F0EAF9BDE808406D
:1010500002204FF4005100F033BA00BF0120704766
:1010600002204FF4005100F033BA00BF02204FF4C9
:10107000005100F025BA00BF02204FF4005100F0EB
:101080002FBA00BF08B54FF40051022000F03AFA21
:10109000B0FA80F0400908BD08B501460C220123D2
:1010A000024800F021FE012008BD00BFE8F7FF1F45
:1010B000FEE700BFFEE700BFFEE700BFFEE700BFA0
:1010C000FEE700BFFEE700BF2DE9F04393B001A8A3
:1010D0004B4CFFF793FC4B4D0023DFF83881271D65
:1010E0008DF80730012614F8013B15F8012B06FA9C
:1010F00003F358F8220001A9ADF80430FFF7EEFA27
:10110000BC424FF00109EED149464FF40070FFF7A1
:1011100005FD4FF40040FFF79DFC3B4F3B48FFF7B8
:101120004BF900254FF460220423384802A92C46CD
:10113000029505952E468DF80C908DF80D90049231
:101140008DF818303D46FFF76DF9E1B24A1C0134C5
:10115000D2B22E480223FFF7BBF9042C25F8026B0C
:10116000F3D12A480121FFF781F928480121FFF72F
:1011700087F92648FFF78EF92448FFF791F90028F0
:10118000FAD12248FFF790F92048FFF793F9044677
:101190000028F9D101200146FFF7B4FC21461C4884
:1011A000FFF790FADFF870801948FFF7D7F94FF48E
:1011B00080764FF0040C4FF0800E20224FF48053C5
:1011C00007A94FF480651248CDF828C0CDF830E06B
:1011D0000F921093089709940B941194CDF81C80EA
:1011E0000D960E95FFF74EFA09480121FFF76AFAAE
:1011F00006480121FFF762F913B0BDE8F08300BF94
:1012000088A900088CA9000860080020002401407B
:101210000800024090A900084C240140F8B50D4C8C
:101220000D4D271D012615F8013B14F8010B06FA98
:1012300003F100F0A3F8BC42F5D10848FFF7BCF871
:1012400007480021FFF73EFABDE8F8400448FFF7E1
:1012500085B900BF8CA9000888A9000800240140B6
:10126000080002400000000008B50B4B33F81000E6
:1012700007F0EEFB06F0D4FF05A3D3E9002307F047
:1012800023F80022054B07F01FF807F0D7FA08BD36
:101290006666666666660A40600800200000303FA9
:1012A000042070474FF44070FFF744B8431E0028F5
:1012B00044D000BF00BF00BF00BF00BF00BF00BFE1
:1012C00000BF00BF00BF00BF00BF00BF00BF00BF26
:1012D00000BF00BF00BF00BF00BF00BF00BF00BF16
:1012E00000BF00BF00BF00BF00BF00BF00BF00BF06
:1012F00000BF00BF00BF00BF00BF00BF00BF00BFF6
:1013000000BF00BF00BF00BF00BF00BF00BF00BFE5
:1013100000BF00BF00BF00BF00BF00BF00BF00BFD5
:1013200000BF00BF00BF00BF00BF00BF00BF00BFC5
:1013300000BF00BF00BF13F1FF33BAD2704700BF38
:1013400041F2707282B010F1FF300CD30192019B18
:10135000002BF8D0019B013B0193019B002BF9D19D
:1013600010F1FF30F2D202B0704700BF0720704783
:101370004FF4FE700121FFF7D1BB00BF2DE9F04112
:10138000032282B0482380460D460F4F8DF8062079
:101390008DF807300024012602E00134202C0FD004
:1013A00045FA04F3DB07F8D506FA04F357F82800EA
:1013B00001A90134ADF80430FFF790F9202CEFD1EA
:1013C00002B0BDE8F08100BF90A900082DE9F0410E
:1013D000002A82B014BF48222822032380460D46EB
:1013E0000E4F8DF807208DF806300024012602E00C
:1013F0000134202C0FD045FA04F3DB07F8D506FAA8
:1014000004F357F8280001A90134ADF80430FFF7C0
:1014100065F9202CEFD102B0BDE8F08190A9000859
:101420002DE9F041032282B0102380460D460F4F74
:101430008DF806208DF807300024012602E00134E3
:10144000202C0FD045FA04F3DB07F8D506FA04F395
:1014500057F8280001A90134ADF80430FFF73EF930
:10146000202CEFD102B0BDE8F08100BF90A90008A8
:101470002DE9F041032282B0142380460D460F4F20
:101480008DF806208DF807300024012602E0013493
:10149000202C0FD045FA04F3DB07F8D506FA04F345
:1014A00057F8280001A90134ADF80430FFF716F908
:1014B000202CEFD102B0BDE8F08100BF90A9000858
:1014C000024B89B253F82000FFF7A4BA90A9000894
:1014D000024B89B253F82000FFF79EBA90A900088A
:1014E00038B5074B0C4653F820502846FFF78EFAC4
:1014F00080EA040189B22846BDE83840FFF78EBA79
:1015000090A90008044B10B553F820000C46FFF7D3
:101510007DFA204010BD00BF90A900082DE9F04FD2
:101520008046012089B00F46424C01461646424D86
:10153000FFF700FBDFF818B10322182304F1040AB7
:101540008DF802208DF803304FF0010914F8013BAB
:1015500015F8012B09FA03F35BF822006946ADF890
:101560000030FFF7BBF85445F0D10025B8F1000F6B
:101570004FF0804001A9314CADF80650ADF80A504B
:10158000ADF80450ADF8085008BF4FF47A78FFF773
:10159000E9FA60220123ADF81650ADF81850ADF805
:1015A000102004F11005ADF8123054F8043B4FF050
:1015B000804004A99847AC42F7D14FF08040012108
:1015C000FFF730FC002FDCBF64273B461C4CC8BF34
:1015D000BBB24FF0804000212380FFF735FC21880B
:1015E0004FF08040013989B2FFF730FC07FB08F764
:1015F000144B4FF0804019680122B1FBF7F7791EB8
:1016000089B2FFF71DFC002EABBFB6B232273746BA
:101610003E460D4C0D4D04F1100854F8043B4FF0BC
:10162000804031469847444525F8027BF5D109B002
:10163000BDE8F08FACA90008D0A90008C0A9000837
:10164000440400202C040020B0A9000868080020F1
:1016500090A90008F8B5074C074D271D012615F87D
:10166000013B14F8010B06FA03F1FFF787FEBC42B9
:10167000F5D1F8BDD0A90008ACA9000838B50446DA
:101680000D46054B89B253F820304FF08040984703
:10169000024B23F8145038BDB0A900086808002098
:1016A0000420704708B545F25550FFF7B9F940F6E8
:1016B000FF70FFF7C1F9BDE808400220FFF7B6B997
:1016C000FFF7C0B970B5012186B000220546802021
:1016D00005F008F83D4C012120600022802005F033
:1016E00001F83B4E24683060002C6CD0002868D094
:1016F0002046384905F0CCFB3068374905F0C8FB77
:1017000036484FF45871FFF73FFC0022334840F64B
:101710006F71FFF713FC04200121FFF7FFF94FF46D
:1017200080400121FFF7FAF94FF480644822032337
:1017300069462B48ADF800408DF803208DF8023043
:10174000FEF7CCFF18234FF40072694624488DF849
:101750000330ADF80020FEF7C1FF002D14BF2B466B
:101760004FF4165300250C221C4802A90293ADF831
:101770001220ADF80C50ADF80E50ADF81050ADF889
:101780001450FFF76FFB15480121FFF7C9FB134801
:101790004FF45871FFF7F8FB104840F22551012231
:1017A000FFF7CCFB012425220A2301A88DF806505F
:1017B0008DF804208DF805308DF80740FEF7C4FD44
:1017C000204606B070BD204606B070BD8C0B0020D0
:1017D000880B0020D4A90008D8A9000800380140CF
:1017E0000008014010B52D4882B0002440F2277156
:1017F0000194FFF7CDFB012819D0284840F225516C
:10180000FFF7C6FB012822D0244840F22531FFF71C
:10181000BFFB012833D0019B3BB1214B4FF08052DD
:101820001A60BFF34F8FBFF36F8F02B010BD1D4B17
:101830000DF10301186801AA05F0DAFA012827D092
:101840002246164840F22771FFF778FBD5E7134888
:10185000FFF796FB144B02A901F8050D01AA1868C1
:10186000002305F0D9F80D4840F22551FFF7B6FBEB
:101870000A4840F22531FFF78BFB0128CBD10748FE
:10188000FFF77EFB054840F22531FFF7A7FBC2E7D3
:1018900002489DF80310FFF76FFBAEE700380140E8
:1018A00004ED00E0880B00208C0B00200120704725
:1018B00008B5064B0021186804F0CCFE044B00214B
:1018C0001868BDE8084004F0C5BE00BF8C0B0020BE
:1018D000880B002010B5074B044601464FF0FF323D
:1018E000186805F0FDF8002814BF20464FF0FF30BF
:1018F00010BD00BF8C0B002010B5064B04460A46F5
:101900000146186805F0ECF8002814BF20464FF097
:10191000FF3010BD8C0B00202DE9F041B1F1000823
:1019200082B022DD0546144E00EB080701E005F009
:10193000AFFE2C784FF0FF3230680DF10701002325
:101940008DF8074004F010FF012802464FF0010017
:10195000EDD1054440F227710848FFF7EFFABD4288
:10196000E7D1404602B0BDE8F0814FF000084046A4
:1019700002B0BDE8F08100BF880B002000380140B4
:1019800030B5054683B00D4C01E005F081FE4FF007
:10199000FF3220680DF1070100238DF8075004F095
:1019A000E3FE012802464FF00100EED1044840F268
:1019B0002771FFF7C3FA03B030BD00BF880B0020CA
:1019C000003801400023037043704360704700BF3C
:1019D000F0B51D780144012D5C7848D045D3022D27
:1019E00041D18842154639D007782A4E44EA9714E7
:1019F0003F2C98BF16F804E007F03F04365D88BF1F
:101A00004FF03D0E85F800E06E705E6801300136E3
:101A1000132E5E602DD00235884236D004781D4EDC
:101A2000A708F65D04F00304013024012E7005F1CF
:101A3000010E884223D00778013044EA17143F2C66
:101A400096BF144E3D26365D07F00F0488420EF116
:101A500001054FEA84048EF80060C5D102215C7054
:101A6000A81A1970F0BD0020F0BD1546D4E79646BF
:101A7000DFE70A270026AF7003355E60CCE701215F
:101A80005C70C2EB0E001970F0BD00215C70A81AEA
:101A90001970F0BDDCA900080B78012B17D0022BC0
:101AA00005D003460A2203F8012B181A70474B7819
:101AB0003F2B96BF0E4A3D21D15C03463D2203F8E1
:101AC000021B42700A2203F8012B181A70474B7848
:101AD0003F2B96BF064A3D22D25C3D2302704370E5
:101AE00083700A22C31C03F8012B181A704700BF29
:101AF000DCA900080023037043707047F0B45C78E1
:101B000014701C78032C7FD8DFE804F04E341A02DE
:101B1000164601443D4F88425AD010F8015BA5F1AA
:101B20002B042A2DE4B2F6D9502CF4D83C5D2506BE
:101B3000F1D4357804F03F042C433470013635E09D
:101B400016460144314F884249D010F8015BA5F197
:101B50002B042A2DE4B2F6D9502CF4D83C57002C93
:101B6000F1DB3578C4F383073D43A401357074700D
:101B70000136CFE716460144244F884236D010F88C
:101B8000015BA5F12B042A2DE4B2F6D9502CF4D830
:101B90003C57002CF1DB3578C4F301173D43240199
:101BA000357074700136CDE716460144174F8842F0
:101BB00023D010F8015BA5F12B042A2DE4B2F6D94D
:101BC000502CF4D83C57002CF1DBA4003470D3E740
:101BD000032119703178B01A5970F0BC7047022196
:101BE00019703178B01A5970F0BC70470121197022
:101BF0003178B01A5970F0BC7047002119703178F3
:101C0000B01A5970F0BC70470020E6E720AA00081F
:101C1000704700BF704700BFF8B103780BB9184692
:101C2000704730B583B00D46002201A9044608F084
:101C300053F9019B73B19C4201D10BE0019313F85E
:101C4000012B202AFAD0092AF8D01AB928600120DD
:101C500003B030BD002003B030BD704728B3F0B5ED
:101C6000067883B016B9002003B0F0BD14460D46C7
:101C7000002201A9074608F02FF9019B0646002B18
:101C8000F1D09F4201D1EEE7019313F8010B202818
:101C9000FAD00928F8D02A2809D00028E3D1034631
:101CA00001202E60236003B0F0BD0020704718466D
:101CB00001A900221F46019308F00EF9019B002B99
:101CC000D1D09F4201D1CEE7019313F8012B202AF6
:101CD000FAD0092AF8D0002AC5D1012871F10003F1
:101CE000DDDB431EDCE700BFF0B52AB38D1C87188F
:101CF00004780235240904F1300604F1370E092C6A
:101D000094BF3446744605F8044C10F8014B04F0B7
:101D10000F0404F1300604F1370E092C94BF344649
:101D20007446B84205F8034CE2D101EB42020BB114
:101D3000002313700846F0BD0A46F8E7F8B50446DC
:101D40000F4616461D4600211822FEF7F1F92760BE
:101D50006660A560F8BD00BF034600222DE9F04F84
:101D600003F8012B0133427003F8012B03F8012B18
:101D700003F8012B03F8012B03F8012B1A70CE682E
:101D80008B6883B09E424CD2D1F804800C4658F840
:101D9000267005467B490222384607F0A7FFF8B9AE
:101DA000237DD80741D5226813786BB1002102E06A
:101DB00012F8103F43B1042BFAD123698B4201F191
:101DC0000101F5D1134621612B60E3686268591C5B
:101DD000E16052F8233001206B6003B0BDE8F08F62
:101DE0003B782D2BDFD1237DDA07DCD4731CE36035
:101DF00058F826707A78002A72D02668337823B98A
:101E00006EE016F8103F002B6AD0013B012BF8D88A
:101E1000B3789342F5D12E603378022B73D0012032
:101E2000DBE7104603B0BDE8F08F731CE36058F8A1
:101E300026303D2118461E46019307F0A1FF06F10A
:101E400002098046002875D0C9EB00062268137885
:101E5000002B4AD0924626B93CE01AF8103F002BDE
:101E600043D0013B012BD346F7D8DAF80470002F9A
:101E7000F3D0384607F00CFF8642EED1394648468B
:101E8000324607F033FF0028E7D1C5F800B09BF8D1
:101E90000030032B05D1237D43F0010323759BF80C
:101EA0000030022BBBD1B8F1000F58D008F101036C
:101EB0006B6098F80130002BB1D19BF80130990785
:101EC00034D500236B60012087E7012A12D91AF864
:101ED000103F53B1032B03F1FF32D346F5D1D4E7C2
:101EE000002385E88800012077E7019A00236A60D3
:101EF0002B6094E7DAF804000028E8D007F0C8FE69
:101F00000028E4D1C1E7384607F0C2FE022816D9FE
:101F1000BB1C6B60BB783D2B81D1FB1C6B60FB78DD
:101F2000002B7FF47CAF73789B07CAD4164B01203B
:101F30006B6052E7484607F0ABFE064686E77378CB
:101F400013F0020FE36810D0A1685A1C8A42B8D877
:101F50006168E26051F8233001206B603DE79BF837
:101F6000013013F0020FE368EED1A268591C9142D0
:101F7000DCD8626852F8230000782D287FF428AF5F
:101F8000D4E700BF70AA000828B9000870B502465F
:101F90000E465948594903F0ABFE002825DB33783B
:101FA00006F1100423B94FE014F8103B002B4BD07E
:101FB00014F80F5C6807F7D4514803F099FE002825
:101FC00013DB14F8103C022B12D0042B05F0010592
:101FD00018D0052B24D0032B73D014F80E1CC9B1D4
:101FE000484803F085FE0028DEDA4FF0FF3070BD70
:101FF000A9071DD454F80C1C54F8082C424803F0CF
:1020000077FEF0E7002D60D154F80C1C3F4803F038
:102010006FFEE8E754F80C1C3D4803F069FEE2E768
:10202000002D58D154F80C1C3A4803F061FEDAE751
:1020300014F80E1C002954D154F80C1C54F8082C28
:10204000354803F055FECEE73448354903F050FEDD
:1020500033780546344683B924E06268002A46D0C6
:10206000304803F045FE0546002DBEDBE068D8B1E0
:1020700003F0EEFD14F8103FA3B162785207F9D4D3
:10208000032BF7D0E0680028F4D0043B012B0FD9D4
:10209000A1780029E1D1616881B1234803F028FECD
:1020A0000546E1E7E81770BD204803F0BBFDE1E716
:1020B0001F48616803F01CFE0546D5E7002DD7DAFE
:1020C00093E71C4803F014FE8DE754F80C1C1A48E3
:1020D00003F00EFE87E754F80C1C184803F008FEC6
:1020E00081E754F8082C164803F002FE7BE71548F8
:1020F00003F0FEFD0546B7E774AA00089CB9000886
:1021000074B80008D0AA00089CAA0008B4AA000865
:10211000D8AA0008C4AA000890AA00087CAA00084F
:10212000ACB90008E8AA0008F8AA000844B40008FE
:10213000E0AA000870AA0008ACAA0008BCAA00081F
:1021400084AA000804AB0008F8B54B680D460746A2
:1021500016465BB118460D4907F05EFC044628B9E7
:1021600038463146FFF712FF2046F8BD0849094AB4
:10217000094803F0BDFD686803F06AFD3846314642
:10218000FFF704FF4FF0FF34EEE700BF18AB000885
:102190006CB900081CB9000820AB0008F0B5002A93
:1021A000059C069F6CDD91F800C0BCF1000F2FD09C
:1021B0000E46002516F801EF0135BEF1000FF9D1EA
:1021C000AA4226DC724613F0020F0CBF4FF0200E1D
:1021D0004FF0300E13F001031DD1002A14DD3B68CF
:1021E00000285FD015469C4208D9036883F800E0B8
:1021F0000368013303603B6801333B60013DF2D16A
:1022000091F800C01346002266464EB91846F0BD4C
:102210006546521BD7E76646BCF1000F5BD0002332
:102220003D6840B3AC4207D905682E70056801359A
:1022300005603D6801353D6011F8016F0133002EE6
:10224000F0D1002AE2DD3968002836D015468C42EC
:1022500008D9016881F800E001680131016039683E
:1022600001313960013DF2D19818F0BD11F8016FCC
:102270000133002EE5D0AC42F8D96FF00100F0BD7B
:1022800013F0010307D191F800C04FF0200E66460D
:10229000002EC5D1BAE70E784FF0200E002EBED129
:1022A0003046F0BD054601E0013A11D09C4205F1EF
:1022B0000105F9D96FF00100F0BDD01801E08342AB
:1022C00008D08C4203F10103F9D96FF00100F0BD91
:1022D0002A4697E7F0BD6346B3E700BFF0B587B085
:1022E0000F46109D002949D00C468646002B30D160
:1022F00000238DF817300DF11701002F35D01E4641
:102300000E9B0DF11701A3F13A07B4FBF2F302FBA8
:1023100013443819092CC8BF0446303401F8014D64
:102320001C46002BF1D106B30C9B002B38D12D237A
:1023300001F8013C0C9A002401390F9B70468DE88E
:1023400028000D9BFFF72AFF002800DB204407B080
:10235000F0BD0A2ACCD10029CADA00234C428DF8FC
:102360001730002C3BD00126CAE7119BABB12B23C1
:1023700001F8013C002401390C9ADEE70F9B302460
:102380008DE8280003A90C9A0D9B8DF80D708DF82F
:102390000C40FFF703FF07B0F0BD1C460C9ACCE7DA
:1023A0000D9B9B07C3D52B680F9A9A420ED9BEF19D
:1023B000000F11D0DEF800302D221A70DEF8003048
:1023C0000133CEF800302B6801332B600C9B0124C5
:1023D000013B0C931A46B0E76FF00100B7E70DF12F
:1023E0001701A1E72DE9F04FB3B002F1FF3B1D78D3
:1023F0003C9A002407460B9112940792002D00F09E
:10240000E483A146DA4680461A4619E0129B9A45B3
:102410000ED9B8F1000F00F08D80D8F800301D7093
:10242000D8F80010129B01310133C8F80010129344
:10243000144609F101096578621C002D00F0D08076
:10244000252DE3D15378541C002B00F0C980252B97
:1024500075D02D2B03BF9378941C012600262B2BBF
:102460006FD00022099203E014F8013F46F0020603
:10247000302BF9D02E2B33D0A3F13002D2B2092A5F
:102480002ED90622089200276C2B04BF63780134F2
:10249000682B5BD0583B202B44D8DFE813F06E0349
:1024A0004300430043004300430043004300430014
:1024B00043004300B501FE018901C500C50043008A
:1024C0004300430043004300430043004300D00166
:1024D00043004300AE0043002502430043001702BF
:1024E000002706232246BB461D46144612F8013B30
:1024F000A3F130012E2BC8B20ED0092805EB850CB4
:1025000007EB870E0CD8BBF1000F02D000EB4C0597
:10251000EBE701EB4E07E8E700254FF0010BE4E79E
:102520000895B1E7129B9A4540F20F82B8F1000F6F
:1025300040F0F3816FF0010033B0BDE8F08F224628
:1025400064E7012263780992144491E763780134C7
:10255000583B202BE6D801A252F823F0872B000825
:102560002525000825250008252500082525000823
:102570002525000825250008252500082525000813
:102580002525000825250008092800087D290008C0
:10259000B12700082926000829260008252500085B
:1025A00025250008252500082525000825250008E3
:1025B0002525000825250008252500086129000893
:1025C0002525000825250008FB25000825250008ED
:1025D000712900082525000825250008652900081F
:1025E00047460B9B13F0010303D1002FA2D03A689A
:1025F0001370484633B0BDE8F08F079BB74D19689C
:1026000012A8002908BF294601903A463346CDF862
:1026100000A04046079DFFF7C1FD002805F1040515
:102620008ADB8144079506E7079B002203F1070E2A
:102630002EF0070EDEF800300C931846DEF804305A
:102640001D460A93294600230EF10805079506F05A
:10265000ADF8002840F07182099B002B40F0788192
:102660001DAB9B460D93089B072B0ED81D469C4B1C
:102670000C9803EBC5030A99D3E9002305F072FC1B
:102680000C900A91002D00F08482089D0023012007
:10269000013300EB8000AB424FEA4000F8D10895CF
:1026A00005F09CFDCDE90E010C980A9906F0A6F8FC
:1026B00003460990002800F06881DFF828C2089DD1
:1026C0000DF14B0E0020ACFB0312D20802EB82018D
:1026D000A3EB410330330EF8013F01301346002ACB
:1026E000F1D10DF14C0E0EEB00030BF1FF3213F89C
:1026F000011D734502F8011FF9D12B46089583444B
:10270000002B43D0099805F069FD02460B460C9852
:102710000A9905F025FCDDE90E2305F0D5FD06F04C
:102720006DF82E238BF80030002800F05082DFF87F
:10273000B4C1089D0DF14B0E0021ACFB0023DB085A
:1027400003EB8302A0EB4202303201310EF8012F7D
:102750001846002BF1D18D42089598BF0DF14C0E13
:1027600040F2F7810DF14C0E4B1E089D7344302250
:1027700001318D4203F8012F4FF03000F8D80029C5
:1027800040F0E7818BF801000BF1020B12A8002545
:102790000190CDF800A00D993A46334640468BF89B
:1027A0000050FFF7FBFC0028FFF6C6AE814442E66E
:1027B000079B073323F00703D3E90001083307938E
:1027C00006F03CF8054605F0ADFB002840F0E4803B
:1027D0006E2361228DF874308DF876308DF8752077
:1027E0000DF1770E12A900250191CDF800A03A460F
:1027F000334640461DA98EF80050FFF7CFFC002855
:10280000FFF69AAE814416E6079B12A9D3F800E0C2
:102810003A4633460191CDF800A00025404611A963
:10282000079E8DF844E08DF84550FFF7B7FC00286F
:1028300006F10406FFF680AE81440796FBE5002012
:10284000D8F8003030221A70D8F800307822591C9D
:10285000C8F800105A70D8F80030079A0133C8F849
:1028600000301346043309F102091168079300B1DF
:1028700089B24122099812AB059002920493009705
:102880000196CDF80CA0404610220023FFF726FD4C
:102890000028FFF651AE8144CDE5079A1346116832
:1028A000043307930998612212AB059002920493B6
:1028B00000970196CDF80CA040460A220123FFF7AD
:1028C0000DFD0028FFF638AE8144B4E5079A1346A3
:1028D0001168043307936122CCE700BF28AB0008DE
:1028E00030AB0008CDCCCCCC079A1346116804332A
:1028F00007930998612212AB059002920493009706
:102900000196CDF80CA040460A220023FFF7E6FC12
:102910000028FFF611AE81448DE5D8F8003025225D
:102920001A70D8F80020129B511C0133C8F800100F
:102930009A452178129308D95170D8F80020129B3B
:1029400001320133C8F80020129309F1020972E53F
:102950002B238DF874301DAB0DF1750B0D9382E6B2
:1029600001206DE7079A1346043311880793B2E7F5
:10297000079A1346043311880793BAE7079A134658
:102980000433B2F9001007938CE730238BF8003042
:102990000BF1010B089BB3E6284605F0C3FA0128AA
:1029A000284640F2FB8005F0BBFA002800F0DD80ED
:1029B00005F100452D2328464FF07E518DF87430E7
:1029C00006F038FA002840F0FD80824B0893099405
:1029D0004FF0000B089C06E02846214606F08CF8D4
:1029E00005460BF1010B7C49284606F037FA4FF0FB
:1029F0007E5118B9284606F01DFA28B12846002154
:102A000006F00EFA0028E7D0284606F03BFA2E23FF
:102A100000F130028DF875208DF8763006F018F848
:102A20000146284605F05EFF6A49054606F018F99A
:102A300006F028FA00F130038DF8773006F008F838
:102A4000644906F059F80146284605F04BFF6349F2
:102A5000054606F005F906F015FA00F130038DF889
:102A6000783005F0F5FF5D4906F046F80146284646
:102A700005F038FF5A49054606F0F2F806F002FA6A
:102A800000F130038DF8793005F0E2FF544906F08B
:102A900033F80146284605F025FF5249054606F061
:102AA000DFF806F0EFF900F130038DF87A3005F029
:102AB000CFFF4C4906F020F80146284605F012FFEA
:102AC0004949054606F0CCF806F0DCF900F1300380
:102AD0008DF87B3005F0BCFF434906F00DF8014648
:102AE000284605F0FFFE414906F0BAF806F0CAF99B
:102AF000652300F130024FF080410898099C8DF861
:102B00007C208DF87D3006F0B3F980BB2B21384A4C
:102B10004FEAEB7382FB0B02C3EBA20202EB8203D0
:102B2000ABEB4303303330328DF87E108DF88030BC
:102B30008DF87F200DF1810E54E60A9A2D2302F1C3
:102B400000428DF874301DAB0A920DF1750B0D9398
:102B500089E55A460EEB010313F8010D734502F89F
:102B6000010FF9D101318B4410E6202323E7BBF19B
:102B7000000F0CBF2B212D21C9E7079A1346043300
:102B80001168079375E6079A134604331168079393
:102B90006EE6184B0022CDE90E2385E505F0C0F95D
:102BA000002814BF20202D2069216E2266238DF875
:102BB00074008DF875108DF876208DF877300DF152
:102BC000780E0FE6044B089301E7A94609E5014694
:102BD000C8E500BFCDCCCC3D000020410AD7233C46
:102BE0006E12833A16B7D138ABC52737BC37863556
:102BF000676666660000F03F10B584B004AC44F828
:102C0000040D0B460092204600214FF0FF32FFF7E3
:102C1000E9FB04B010BD00BF10B4084A084C1368AB
:102C20000849002B08BF2346184410605DF8044B88
:102C3000884294BF18464FF0FF307047940B002035
:102C40006C0C0020004C002038B5FEF707FA054652
:102C500004F048FF002D06DD002420460134FEF775
:102C600005FAAC42F9D1002D06DD002420460134DE
:102C7000FEF702FAAC42F9D14FF4FA70FEF760FBAE
:102C8000F1E700BF30B5184C83B023780BB103B027
:102C900030BDFEF7C1F9E8B1144915480B78002B97
:102CA00008BF002103F094F9B8B11249124D13483E
:102CB00000F06EF803238DE8280011480023114925
:102CC0004FF4806204F092F92B684BB1012323701A
:102CD00003B030BDFFF7B8FFDEE7FFF7B5FFE4E76D
:102CE000FFF7B2FFF2E700BF7008002024010008E0
:102CF000B0AC0008B0AB0008980B002034BA000854
:102D000015620008A8AB000830B5194C83B02378D1
:102D1000F3B9FEF781F928B3164917480B78002B51
:102D200008BF002103F054F9C8B11449144D1548E7
:102D300000F02EF803238DE82800134800231349E0
:102D40004FF4806204F052F92B6873B101232370B1
:102D500004F050FA03B0BDE83040FFF775BFFFF74D
:102D600073FFE2E7FFF770FFD6E7FFF76DFFEDE7D0
:102D70007008002024010008B0AC0008B0AB0008C7
:102D8000980B002034BA000815620008A8AB0008B0
:102D90002DE9F84304461E4A1E4E13683568013378
:102DA0001360037888462F2B08BF013425B12846CD
:102DB000214606F031FEC8B1B76827B13846214632
:102DC00006F02AFE90B1D6F81090B9F1000F04D0A9
:102DD0004846214606F020FE40B15DB14FB10225C4
:102DE000B9F1000F06D00020BDE8F8830120BDE84E
:102DF000F8830125D8F8043098470028F3D006EB73
:102E0000C50346F83540C3F804800120BDE8F883C7
:102E1000F00B00209C0B002003782F2B01D000200A
:102E200070474378EBB110B4104C22681A445278C2
:102E3000520710D02F2B0ED0013006E022681A4422
:102E40005278520707D02F2B05D001F8013B10F81C
:102E5000013F002BF2D1002301200B705DF8044BE1
:102E6000704700230B700120704700BF4C04002006
:102E700003782F2B01D0002070474378002BFAD025
:102E800010B4114A01301468E21805E02F2B0CD061
:102E900010F8013FE21823B152785207F6D12F2BD8
:102EA00003D000205DF8044B7047013003782BB14C
:102EB00001F8013B10F8013F002BF9D1002301205C
:102EC0000B705DF8044B70474C04002003782F2BE7
:102ED00001D0002070472DE9F041447888B0451CAE
:102EE0006F466A46CCB1334BD3F800E00EEB0403D7
:102EF0005B785B0711D02F2C0FD02846234604E0C7
:102F00007678760709D02F2B07D002F8013B10F80E
:102F1000013F0EEB0306002BF2D1DFF89C8000236B
:102F2000D8F800000E46137020B1394606F074FD43
:102F3000002839D0D8F8080018B1394606F06CFDE1
:102F400088B3D8F8100020B1394606F065FD70B39B
:102F5000002074B1174B1A68131905E02F2C0CD000
:102F600015F8014F131924B15B785B07F6D12F2CAC
:102F700003D0002008B0BDE8F08101352B783A4637
:102F80002BB102F8013B15F8013F002BF9D10023CA
:102F900013700028EDD04368314638469B6B984744
:102FA00008B0BDE8F081012008EBC000D1E70220A5
:102FB000FAE700BF4C0400209C0B00202DE9F047ED
:102FC000037888B02F2B80460D4600F1010410D005
:102FD0004FF00009564FBB680133BB6098F80030D2
:102FE0002F2B3FD0FB6800200133FB6008B0BDE809
:102FF000F08743786E46002B00F090804D4A1768AA
:10300000FA185278520700F089802F2B6A460DD0AB
:10301000214604E04078400708D02F2B06D002F864
:10302000013B11F8013FF818002BF3D1424F002368
:103030003868137018B1314606F0EEFC78B1B86804
:1030400020B1314606F0E8FC00286FD0386900282E
:10305000BED0314606F0E0FC0028B9D1022007EBD3
:10306000C009B7E798F80130002BBBD0314A11688E
:10307000CA1806E02F2B09D014F8013FCA18002BFC
:10308000B0D052785207F5D12F2BABD10134237831
:103090006E466A462BB102F8013B14F8013F002B43
:1030A000F9D100231370B9F1000F9BD004F01AFD81
:1030B000224B5868A0B31A69A2B3DA69A2B39A6A1C
:1030C00052B15A6B042442B104F02EFDD9F80430F9
:1030D00007221B681A6085E7032404EB440AD9F829
:1030E00004204FEA8A0A03EB0A08C8F8042004F017
:1030F0001BFDD9F804203046136A294698470F4B28
:1031000038B9D9F8043006221B681A60C8F80400E0
:1031100068E743F80A0004F10A0067E7324685E7EA
:103120000446DAE70124D8E70224D6E7012096E72F
:10313000F00B00204C0400209C0B0020B40B00205E
:10314000F8B51E4C23690133236120B30A380428E3
:103150002DD8002A1DDD4700194B3E1803EB8606CB
:10316000357A6DB93844800003445B68144EF3B17E
:103170005B6A30589847002813DB5DB10130F8BD19
:103180004FF0000E0D70013A013186F808E001257C
:10319000E8E70020F8BD0846BDE8F840114602F017
:1031A000E3B9002D14BF01204FF0FF30F8BD636973
:1031B0004FF0FF3001336361F8BD00BFF00B00201A
:1031C000B40B002070B5124C451EA369012D03F10C
:1031D0000103A3610FD90A38042813D800EB40007B
:1031E0000C4B80001D186D6865B1EC6A18582346B9
:1031F000BDE87040184714460846114602F002FD2B
:10320000204670BDE3694FF0FF300133E36170BDCC
:10321000F00B0020B40B0020F8B5114B0A381A6BE4
:10322000042802F101021A6314D800EB40000D4D8E
:1032300084002E1972686AB1536B28591768984731
:10324000386004F04FFC002373602B5104F06CFCD9
:103250000120F8BD5A6B002001325A63F8BD00BF4F
:10326000F00B0020B40B002003782F2B01D000209E
:1032700070472DE9F0438DB045780DF11008471CDB
:103280004246B5B1434B186843195B785B0710D0D1
:103290002F2D0ED03C462B4604E07678760708D0DA
:1032A0002F2B06D002F8013B14F8013FC618002B63
:1032B000F3D1394E002330680C46137020B14146DB
:1032C00006F0AAFB002863D0B06818B1414606F0AA
:1032D000A3FB58B1306928B1414606F09DFB4FF081
:1032E000020C28B100200DB0BDE8F0834FF0010CB6
:1032F000002D3ED0DFF89C90D9F8000043195B7890
:10330000590743D02F2D41D039462B466A4606E057
:103310009EF801E01EF0070F09D02F2B07D002F80E
:10332000013B11F8013F00EB030E002BF0D1D9F85F
:10333000001000204B195B7810705B0707D116E076
:1033400017F8015F4B19A5B15B785A070FD02F2DE5
:10335000F6D101373B780DF111022BB102F8013B98
:1033600017F8013F002BF9D10023137004E02F2D33
:10337000EFD02F23ADF8103006EBCC067368404633
:10338000DB6B214698470DB0BDE8F0836A46CEE777
:103390008446ADE74C0400209C0B002001207047C0
:1033A000024600230B6018461360704700207047E8
:1033B0000020704700207047002070474FF0FF301A
:1033C000704700BF10B40F4B013853F83040ACB118
:1033D000002A0FDD03EBC0025268114400290DDB07
:1033E000A26891420ADC03EBC003084659605DF80D
:1033F000044B70471CBFA268511AEFE74FF0FF3033
:10340000F5E700BF7808002000207047034B013823
:10341000002243F830200120704700BF78080020C8
:10342000074900220B4643F8042B04334A6043F853
:10343000042B43F8042B43F8042B1A600120704737
:10344000780800202DE9F0410646114D114F002467
:1034500057F834304FEAC4082BB10134032CF7D1AC
:103460000020BDE8F081286820B9F6E755F80C0F78
:103470000028F2D0314606F0CFFA0028F6D1B84441
:10348000C8F8040047F83450601CBDE8F08100BF64
:103490005CAC00087808002070B505460E46084C64
:1034A000084802E054F80C0F40B1294606F0B4FA7F
:1034B0000028F7D1A3680120336070BD70BD00BF44
:1034C0005CAC0008F0AB0008F8B5104B013853F8BD
:1034D0003050BDB103EBC0067768AB68DB1B23EA55
:1034E000E3739A42A8BF1A4614460AB91046F8BDBB
:1034F00008466968394405F081FF72682046144423
:103500007460F8BD4FF0FF30F8BD00BF78080020B0
:1035100038B50D46084906F07FFA50B9074C0848FF
:10352000A1680022A84754F80C0F0028F8D1012008
:1035300038BD002038BD00BFF8AB00085CAC000807
:10354000F0AB0008F0B589B0431E0A1D0F4602A873
:103550001C490026FEF7F2FB354602A96846FEF735
:10356000FBFB1949044680B1009BEBB15C68204627
:1035700006F052FA154930B1204606F04DFA0028FF
:10358000EBD1019EE9E70125E7E7B6B1304602F04D
:103590000DFC0F4A0F4B002814BF1046184602F0CE
:1035A00057FB204609B0F0BD38686946054AFEF76A
:1035B000CBFD0446204609B0F0BD294602F036FC9A
:1035C0000446EEE780AC0008C8AD0008CCAD0008AA
:1035D000B0B80008D4B900082DE9F04F8FB00A1D2B
:1035E000431E4FF47A754FF0FF3480460E4608A80C
:1035F000424904950594FEF7A1FB414C414D424FD1
:103600004FF0000906A808A9FEF7A6FB002858D02D
:10361000069B002B67D05B68A34248D0AB4256D0D4
:10362000BB42EFD10B9B56F8230002F0BFFB0B9F70
:103630008246C7EB0803019306EB8707002840D0BA
:10364000324B98423DD0324E4FF0000B0198394634
:10365000D0478046002834D1B9F1000F04D0059B33
:103660000BF1010B9B451EDA049BFA24032B9CBF34
:103670000423049303F0C6FE054603F0C3FE049B37
:10368000022104FB03F3A6FB032305EB93139842EB
:10369000DCD20DF10F00FEF72FF90130EDD09DF8CF
:1036A0000F30032BE9D140460FB0BDE8F08F04A9DD
:1036B0000798FEF7B1FA06A808A9FEF74DFB002807
:1036C000A6D14FF0010840460FB0BDE8F08F079833
:1036D00005A9FEF7A1FA059B4FF00109002B91DC2B
:1036E0004FF0FF38DFE7306806A9044AFEF72CFDEB
:1036F000804640460FB0BDE8F08F00BF2CB00008F8
:10370000A8B80008ECB90008D8B90008D9350008F5
:10371000D34D6210F8B5037C0446002B0F4614BF4E
:1037200001258025082615E0FDF7CAFEA068FDF7F3
:10373000BDFDA1882078FDF7C3FEA068FDF7B6FDAA
:103740002078A188FDF7C4FE237C6A004BB1013EBE
:10375000D5B20AD03D426078E188E5D1FDF7B8FEE8
:10376000E4E7013E4FEA5505F4D12078A188FDF742
:10377000AFFEE1886078FDF7A3FEA068FDF796FD37
:103780002078A188FDF79CFEE1886078FDF7BAFEFD
:103790000546A068FDF78AFD2078A188FDF798FE10
:1037A000B5FA85F04009F8BDF8B5254E074656F83C
:1037B00020400D46002C3AD02078A188FDF7DEFD90
:1037C0006078E188FDF7DAFD2B686868A968EA6827
:1037D00023606060A160E260A178E2782B69012536
:1037E00005FA02F205FA01F12361E280A180207856
:1037F00089B2FDF715FE6078E188FDF739FE607843
:10380000E188FDF765FEA1882078FDF761FEA068DC
:10381000FDF74CFDA1882078FDF752FEA068FDF76A
:1038200045FD6078E188FDF74BFE2846F8BD142081
:1038300004F0EAF8044610B146F82700C4E7F8BDE2
:10384000940800202DE9F84F894CDDF828A054F8A1
:103850002040002C00F0E9800D461E46914660781D
:10386000E1888BB3FDF72CFEA1882078FDF728FEB8
:10387000A068FDF71BFDE1886078FDF729FEA068D0
:10388000FDF714FD2078A188FDF722FE0B9B002B8D
:1038900055D09DF82C102046FFF73CFF002800F083
:1038A000CD80002EC8BF761906DD15F8011B204615
:1038B000FFF730FFB542F8D1BAF1000F43D10C9BAE
:1038C0000BB30120BDE8F88FFDF7FAFDA188207841
:1038D000FDF7F6FDA068FDF7E9FCE1886078FDF7EB
:1038E000F7FDA068FDF7E2FC2078A188FDF7F0FD68
:1038F0000B9B0BBBE3685B00D9B22046FFF70AFFC6
:10390000002800F09B806078E188FDF7E1FDA18848
:103910002078FDF7DDFDA068FDF7C8FCA1882078C0
:10392000FDF7CEFDA068FDF7C1FC6078E188FDF7EA
:10393000C7FD0120BDE8F88F9DF82C10DDE7E36896
:103940005B00D9B2A7E76078E188FDF7B9FDA188EF
:103950002078FDF7B5FDA068FDF7A8FCE188607848
:10396000FDF7B6FDA068FDF7A1FC2078A188FDF762
:10397000AFFD0B9B002B5BD09DF82C102046FFF772
:10398000C9FE00285AD0BAF1000F98DD09F1FF39BD
:103990000AF1FF3B4FF00008237C6078002BE188A0
:1039A00014BF012680260825FDF78AFD002702E0C6
:1039B000013DD6B21BD0A1882078FDF781FDA0681B
:1039C000FDF774FC6078E188FDF79CFD00B137439A
:1039D0002078A188FDF77CFDA068FDF767FC237CBB
:1039E0007200002BE4D1013D4FEA5606E3D1D845E1
:1039F0006078E18816DBFDF763FDA068FDF756FCF3
:103A0000A1882078FDF75CFDA068FDF74FFC08F168
:103A100001082078A188FDF75BFDD04509F8017FFA
:103A2000BAD14CE7FDF754FDE7E72046BDE8F88F33
:103A3000E368590041F00101C9B29FE76078E1886D
:103A4000FDF746FDA1882078FDF742FDA068FDF74F
:103A50002DFCA1882078FDF733FDA068FDF726FC3A
:103A60006078E188FDF72CFD4FF0FF30BDE8F88F5E
:103A7000940800202DE9F04F0B68ADF5197D8946BB
:103A8000824608A9D81C00230A93FEF7C5F802460F
:103A900008B1089A013A00230125052408920593EC
:103AA00004938DF834308DF835308DF8373010931D
:103AB0008DF84430984612A8A2499B4609F10402A9
:103AC0000AF1FF338DF836500F94FEF737F99E4C0C
:103AD0009E4D9F4E0BA812A9FEF73EF928B30B9BF3
:103AE000002B00F0A7805F68A74255D0AF4260D09E
:103AF000B74263D0974A974248D0974A974255D0E9
:103B00003846964905F088FF002842D03846944947
:103B100005F082FF002856D101230BA812A98DF8C9
:103B20004430FEF719F90028D9D1049B002B40F04E
:103B3000DB80059B002B40F0DF80159A059C01324D
:103B40005245159209AE80F09B8018AD0AE0159A97
:103B50003368013252452B551592294604F1010470
:103B600080F08F8059F822003146FEF755F8002882
:103B7000EDD17C4802F056F8159B59F8230002F06D
:103B800067F801200DF5197DBDE8F08F012304933E
:103B9000A0E74FF0010B9DE70C9810A9FEF73CF849
:103BA000002800F0C3804FF0010893E7012305933C
:103BB00090E70C980FA9FEF72FF88BE70C980AA94D
:103BC000FEF72AF886E73846674905F025FF68B111
:103BD0003846664905F020FF002835D0644A9742F0
:103BE0007FF478AF159B013B15939EE707A90C98CE
:103BF0000A2206F065F9079B8DF83400A3B11A7804
:103C00002E2A11D1581C07905B786BB107A90A22A4
:103C100006F056F9079B8DF83600002B3FF45AAF9B
:103C20001B78002B3FF456AF524802F033F84FF0A8
:103C3000FF3005E0D9F800000BA9424AFEF784FAEC
:103C40000DF5197DBDE8F08F07A90C980A2206F042
:103C500037F9079B8DF83500002BE5D01A782E2A0E
:103C6000E2D1581C07905B78002BDDD007A90A220F
:103C700006F026F9079B8DF83700002BD0D129E7F5
:103C800018A908980A9AB8F1000F4BD0109B58ADAC
:103C90008DE80C0823462A46FFF7D4FD3060002843
:103CA00042D0013048D00A9B002B1BD04FF00003BC
:103CB000336017DD1C4605E033680A9A01339A42E7
:103CC00033600BDDE95C2C4802F012F804444E2C02
:103CD000F2DD0A2001F078FC0024EDE714B10A209F
:103CE00001F072FC0020ABE708980DA9FFF75CFD1E
:103CF000B0FA80F04009A3E7089E204D55F8264011
:103D0000002CEFD02078A188FDF738FB6078E1889F
:103D1000FDF734FB204603F083FE049B45F8263074
:103D200018468DE74346B2E7012089E7204601F0B7
:103D3000B1FF4FF0FF3083E7114801F0ABFF0220E5
:103D40007EE700BFD4B1000888B800082CB900088D
:103D500078B80008A4B9000850B900086CB0000891
:103D600074B0000880B0000878B000087CB000088B
:103D7000F4B9000884B9000890B000089408002045
:103D80008CB00008F8B52C4D074655F820400E467B
:103D9000002C47D020782189FDF7F0FA60786189FE
:103DA000FDF7ECFAA078A189FDF7E8FAE078E1895F
:103DB000FDF7E4FA72683068B368F1686260E16048
:103DC000A36094F807C02060217994F805E0A779F2
:103DD0007269B3693069012505FA0EFE05FA0CF621
:103DE00005FA01F105FA07F76261A361A4F80AE098
:103DF0002181206189B22078A781E681FDF7BEFA92
:103E000060786189FDF70CFBA078A189FDF708FBBC
:103E1000E078E189FDF704FBE078E189FDF750FBEC
:103E20002846F8BD1C2003F0EFFD044610B145F80C
:103E30002700BFE7F8BD00BF900800202DE9F04F34
:103E4000644C83B054F820A0BAF1000F00F0BD809C
:103E50001C469AF818300D4693469AF80200BAF8B4
:103E60000C10002B40F09980FDF732FB9AF803000C
:103E7000BAF80E10FDF72CFB002C00F09C802B1FD5
:103E8000009401930125019ADAF8143052F8046F76
:103E90009AF8198001929AF81890002B00F083800C
:103EA00000273C464AE0E243134405FA03F3334259
:103EB0009AF80100BAF80A104CD0FDF701FBC8458A
:103EC0009AF80200BAF80C104CD0FDF7F9FADAF8BB
:103ED0001000FDF7EBF99AF80200BAF80C10FDF7A4
:103EE000F7FA9AF81A30002B4CD1DAF814309AF815
:103EF0000100013B1B1B05FA03F33342BAF80A1019
:103F000048D0FDF7DDFA9AF80000BAF80810FDF77E
:103F1000F9FA50B19AF81A30002B41D1DAF814307E
:103F2000013B1B1B05FA03F31F43DAF81000FDF7F2
:103F3000BDF9DAF814300134A34235D99AF81A20C1
:103F4000002AB0D005FA04F333429AF80100BAF817
:103F50000A10B2D1FDF7BCFAC8459AF80200BAF8C7
:103F60000C10B2D1FDF7B4FADAF81000FDF79EF9A3
:103F70009AF80200BAF80C10FDF7A2FA9AF81A3073
:103F8000002BB2D005FA04F333429AF80100BAF8D4
:103F90000A10B6D1FDF79CFAB5E7FDF791FA65E78F
:103FA00005FA04F3C0E71F46009B4BF8047B013B76
:103FB00000937FF468AF9AF80300BAF80E10FDF78B
:103FC0007FFA012003B0BDE8F08F504603B0BDE892
:103FD000F08F00BF900800202DE9F04F0B68ADF680
:103FE000540D8A46834603A9D81CFDF715FE08B177
:103FF0000398013800230121022203270526082502
:10400000039001938DF834308DF835308DF83630CB
:104010008DF837308DF838308DF84C308DF84D30C4
:104020008DF84E308DF839108DF83A209846994623
:1040300007A8A7490AF104020BF1FF338DF83B7082
:1040400011961295FDF77AFEA24DA34EA34F05A837
:1040500007A9FDF781FEF8B1059B002B00F0AF80AA
:104060005C68AC425CD0B4424BD0BC4260D09C4A4D
:10407000944249D09B4A944257D020469A4905F031
:10408000CBFC002843D1012305A807A98DF84C30AB
:10409000FDF762FE0028DFD1B9F1000F40F0848007
:1040A000019B002B40F034811C460A9801300A9095
:1040B000834540F24F8114AB03EB84055AF820008E
:1040C000294604AAFDF7CAFD002800F065812946AB
:1040D0000A98049B013001340A90002B79D00A68B9
:1040E0000134B4F5807F03F1FF3341F8042FF4DD90
:1040F0007E48049301F0CEFD01200DF6540DBDE87D
:10410000F08F4FF00108A2E74FF001099FE720462A
:10411000774905F081FCD0B901238DF84D3096E741
:10412000069811A9FDF778FD91E7012301938EE729
:10413000069812A9FDF770FD002888D0129B023B5B
:104140001E2B84D9384601F0A5FD0120D5E7204675
:10415000684905F061FC18B901238DF84E3076E707
:104160002046654905F058FC002834D020466349B4
:1041700005F052FC002851D02046614905F04CFC66
:1041800000286CD020465F4905F046FC002800F06E
:1041900082805D4A94427FF45AAF0A9B013B0A93A6
:1041A000B9F1000F3FF47CAF03980DA9FFF7EAFDCA
:1041B000B0FA80F040090DF6540DBDE8F08FDAF842
:1041C000000005A9424AFDF7BFFF0DF6540DBDE8FA
:1041D000F08F04936CE702A906980A2205F070FE9E
:1041E000029B8DF83400A3B11A782E2A11D1581CE5
:1041F00002905B786BB102A90A2205F061FE029B76
:104200008DF83800002B3FF422AF1B78002B3FF4D1
:104210001EAF3E4801F03EFD01206EE702A9069860
:104220000A2205F04DFE029B8DF83500002BF0D0E0
:104230001A782E2AEDD1581C02905B78002BE8D01A
:1042400002A90A2205F03CFE029B8DF83900002BE2
:104250003FF4FDAE1B78002B3FF4F9AED9E702A97D
:1042600006980A2205F02CFE029B8DF83600002BE2
:10427000CFD01A782E2ACCD1581C02905B78002B14
:10428000C7D002A90A2205F01BFE029B8DF83A0056
:10429000002BBAD1DBE602A906980A2205F010FE2F
:1042A000029B8DF83700002BB3D01A782E2AB0D19C
:1042B000581C02905B78002BABD002A90A2205F0B3
:1042C000FFFD029B8DF83B00002B9ED1BFE600BF97
:1042D000F4B200082CB9000878B80008A0B80008AB
:1042E000A4B9000850B9000898B00008B8B0000898
:1042F000A0B0000874B00008A8B00008ACB0000876
:10430000B0B00008B4B00008F4B9000884B90008DF
:10431000039E294D55F82640D4B120782189FDF718
:104320002DF860786189FDF729F8A078A189FDF75B
:1043300025F8E078E189FDF721F8204603F070FBCD
:1043400045F826904846D8E615B10A2001F03CF918
:104350000020D2E664B3039814A90DF58A622346BF
:10436000FFF76CFD10B3B8F1000FF1D000252E4619
:104370000DF24C4701E0A642E6DA104857F8041F58
:1043800001F0B6FC05444E2D06F10106F3DD0A20CE
:1043900001F01AF90025EEE7094801F043FC0A9BF9
:1043A0005AF8230001F054FC0120A6E60120A4E6FF
:1043B0004FF0FF30A1E600BF90080020C0B0000819
:1043C00080B000082DE9F0470B688EB08946824620
:1043D00001A9D81CFDF720FC054608B1019D013D4F
:1043E00000244FF0010E052608A8794909F10402BE
:1043F0000AF1FF3301958DF814408DF815408DF8C2
:1044000016400796ADF818E0FDF798FCA046274641
:10441000704D714C714E03A808A9FDF79DFC90B139
:10442000039B002B75D05B68A34243D0AB4243D0C3
:10443000B34248D06A4A934241D06A4A934247D035
:10444000694A9342E7D1002F73D1B8F1000F40F0D1
:104450009C800B9B534580F0AC8059F8230002A947
:10446000FDF7DAFB00285DD0604B019A029D53F8FE
:104470002240002C59D09DB983E0FDF729F8A068AF
:10448000FCF714FFA3782078A188002B70D0FDF7EB
:1044900017F8A068FCF70AFF03F046FB013D70D057
:1044A00003F020FBA3782078A188002BE5D1FDF74D
:1044B00007F8E4E70127AEE74FF00108ABE7012377
:1044C0008DF81630A7E7049807A9FDF7A5FBA2E72A
:1044D000694604980A2205F0F3FC009B8DF814004D
:1044E00093B11A782E2A0FD1581C00905B785BB1DB
:1044F00069460A2205F0E4FC009B8DF81500002BAC
:1045000089D01B78002B86D0394801F0C3FB0120ED
:1045100005E0D9F8000003A92D4AFDF715FE0EB0FD
:10452000BDE8F087334801F0B5FB01200EB0BDE8CF
:10453000F087019E2D4D55F82640002C3ED0207866
:10454000A188FCF71BFF05AB07CB20606078012337
:1045500083406160207899B2A260A380FCF760FF7D
:10456000A7782078A18807BBFCF7B2FF3846D6E7CA
:10457000FCF7AEFFA068FCF799FE03F0D5FA013D09
:104580008ED100200EB0BDE8F087019E174D55F882
:1045900026408CB12078A188FCF7F0FE204603F07D
:1045A0003FFA45F826703846B9E7FCF789FF002046
:1045B000B5E74FF0FF30B2E73846B0E70C2003F024
:1045C00023FA04460028B0D045F82600BBE700BF18
:1045D00084B2000850B90008A4B900082CB900083A
:1045E00080B80008C0B8000898B8000898080020F3
:1045F00084B90008ECB9000838B5084B04461868BF
:104600000D4618B1214605F007FA30B92946224671
:10461000BDE83840024801F06BBB38BD9C08002063
:10462000F4B300082DE9F047DCB00024431E0A1D56
:104630008A4608A8994902948DF83840A046A146B8
:10464000FDF77CFB2746964D964E04A808A9FDF77A
:1046500083FB044638B3049B002B67D05C68AC42F4
:1046600019D0B44251D020468F4905F0D5F9002821
:104670004ED08E4B9C4254D08D4B9C42E5D1059838
:1046800002A9FDF7C9FA0028DFD18A4801F002FB30
:104690004FF0FF3451E004A808A9FDF75DFB0127A6
:1046A00004460028D7D19DF83830002B00F0CF8089
:1046B00017B9B9F1000F79D0002001F09DFC064632
:1046C000002841D005F0E4FA0546002839D07A4B9D
:1046D0007A490EA8B9F1000F08BF1946FEF76EFC23
:1046E000074670B3B8F1000F33D131462A46FEF7C2
:1046F00069FDA8424FD13846FEF78EFD304603F0E3
:104700008FF920465CB0BDE8F0874FF001099CE7C7
:1047100006A8FDF757F901A8FDF7ECF94FF00108DD
:1047200093E70EA8059905F055FA8EE7DAF8000030
:1047300004A95A4AFDF708FD044620465CB0BDE8CE
:10474000F087304603F06CF9012420465CB0BDE8E8
:10475000F08730464FF000080378002BCBD00A2BAF
:1047600078D0431C01E00A2A76D01D46191A13F8A6
:10477000012B002AF7D10029BDD016AA01ABFDF705
:10478000BDF98146002859D0384616A94A46FEF799
:1047900019FD484552D03846FEF73EFD012430460B
:1047A00003F03EF920465CB0BDE8F08703A90EA8EF
:1047B000FEF78CFB0028C7D00EA84149FEF7FEFB90
:1047C00007460028C0D0A1463E4EB8F1000F14BFE6
:1047D00064224FF48C72384616A9FEF7B1FC051E10
:1047E0004ADBA9443ED0B8F1000F29D006AB2FAA6E
:1047F000294616A8FDF7ECF801462FA801F002FAA9
:104800006423AB422EDC039B99452BDAFA25029BED
:104810000DF1030005FB03F3A6FB03318909FDF746
:104820006BF80130D1D09DF80330032BEFD138461F
:10483000FEF7F2FC0A2000F0C7FE7EE728468BE771
:1048400016A8294601F0DEF94FF48C73D9E74FF032
:10485000FF3472E70546002185F800800135002904
:104860008BD148E7B8F1000F0ED13846FEF7D4FCE3
:10487000154801F0D7F960E73846FEF7CDFC0A206D
:1048800000F0A2FE012458E706A916A8FDF704F9D6
:10489000014616A801F0B6F9E7E700BF84B40008A6
:1048A00090B9000804B900083CB40008F4B8000846
:1048B0002CB90008E0B900080CB4000838B40008AE
:1048C00034BA0008D34D621044B400082DE9F04713
:1048D00092B0431E0A1D0F4604A84649FDF72EFA62
:1048E000454D0026684604A9FDF736FA044668B12E
:1048F000009B002B45D05B68AB42F3D1684604A90E
:10490000019EFDF729FA04460028F1D18DF8280010
:10491000002E40D002A93046FEF77EFA002864D06F
:104920000DF1280830464146FEF7A2FA2546334FDE
:10493000DFF8D49057F83560E6B1304602A905F0AB
:104940006BF82F23B0B99DF828203146002A14BFF8
:10495000424600220DF109008DF80830C9F8002008
:1049600005F038F93146264801F0C2F902A8254978
:10497000FEF77AFC0135032DDCD1204612B0BDE8EC
:10498000F087386869461B4AFDF7DEFB044620467F
:1049900012B0BDE8F0870DF128084146FEF768FA2D
:1049A0002546164FDFF860A057F835602F230DF12C
:1049B00009000135B6B19DF828200DF14809002AFB
:1049C00014BF4246002209F8403D3146CAF8002093
:1049D00005F000F931460A4801F08AF948460949CC
:1049E000FEF742FC032DDFD1C7E70124204612B0B9
:1049F000BDE8F087D4B3000890B800089C0B0020F5
:104A000040B40008F94500089C0800202DE9F04F4B
:104A10000E46002215469DB04FF47A7304468B462D
:104A20000F9210921192129213920D93FCF79EFC2A
:104A30003246A946AA46A846631E0990043216A823
:104A4000A349FDF77BF9A34C4FF0FF33A24EA34FD0
:104A50000495029500950795059503950195089590
:104A6000069314A816A9FDF777F900282DD0149BFA
:104A7000002B00F092805B68A34262D0B34263D007
:104A8000BB4266D0964A934268D0964A93426AD017
:104A9000954A93426CD0954A934200F08C80944A98
:104AA000934269D0934A934200F08280924A9342A3
:104AB000D7D10DA91598FDF7AFF8012314A816A9B1
:104AC0000893FDF749F90028D1D18346B8F1000FCA
:104AD0005AD040460A220EA905F0F2F90E9A8046F5
:104AE00022B111782E294AD000294DD1CDF828B015
:104AF0004FF0FF34B8F1000F46DB099B434543DD1F
:104B00000A9B002B5ED1B9F1000F40F0D180009BD1
:104B1000002B40F05B81029B002B40F06481049BE2
:104B2000002B40F0CD80002D4ED0079813A9FDF743
:104B300073F8002848D1714801F0ACF84FF0010B30
:104B400027E0DDF854808CE7DDF854A04FF0010930
:104B500087E7159B01930123009382E7159B03933D
:104B6000012302937DE7159B05930123049378E7C6
:104B7000159B0125079374E70123069371E7501CE9
:104B80000E905278002A7DD15D4801F083F84FF0F5
:104B9000010B58461DB0BDE8F08FDBF8000014A9EA
:104BA0004B4AFDF7D1FA834658461DB0BDE8F08F59
:104BB0000023069355E70999524801F099F84FF000
:104BC000000BE6E71F2CDFD8B9F1000F68D1009B7E
:104BD000002B40F0F880029B002B40F01481049BD6
:104BE000002B40F0228185F001030993012202FA93
:104BF00004F30B932B464D469946434F0A9B002BDB
:104C000000F0848045B1069B5A1C00F0E7801A46EC
:104C100040460B99FCF7DAFB009B002B40F0BC8070
:104C2000029B002B40F0B380049B002B3BD1B9F1D9
:104C3000000F40F0C380099B002B40F0B280089B1E
:104C4000002BA6D00D9BFA24032B9CBF04230D93AD
:104C500002F0D8FB064602F0D5FB0D9B022104FBB7
:104C600003F3A7FB032306EB93139842C6D20DF17F
:104C70003300FCF741FE0130EDD09DF83330032BBB
:104C8000E9D186E70A220EA905F01AF90E9A044620
:104C90001AB11278002A7FF477AF01230A9329E72B
:104CA00000230993A2E740460B99FCF711FCBEE7ED
:104CB00050460FA9FCF7B0FF00283FF43CAF26E7B1
:104CC000059812A9FCF7A8FF00283FF434AF2AE7A3
:104CD00054B50008CCB90008FCB8000834B9000885
:104CE00098B900084CB90008ECB80008ECB9000805
:104CF000E0B80008D4B80008A8B80008E0B9000877
:104D000084B900080CB60008D34D62105DB1069B53
:104D1000013370D0BAF1000F00F084800F99404643
:104D2000069AFCF753FB009B33B1019B002B6DD01F
:104D300010994046FCF774FB029B33B1039B002B98
:104D400067D011994046FCF7BBFB049B33B1059B30
:104D5000002B61D012994046FCF7BAFBB9F1000F65
:104D600006D0079B002B5AD013994046FCF7B8FB9E
:104D7000099B002B3FF463AF4FF0FF314046FCF737
:104D8000C1FB00F0D7FF2B4800F04CFF57E740462F
:104D90000B99FCF795FB47E740460B99FCF740FB66
:104DA0003EE740460B99FCF7ADFB234A234B002816
:104DB00014BF1046184600F035FF40E740460B99F7
:104DC000FCF78EFB37E7CDF824900FE7019810A988
:104DD000FCF722FF00283FF4AEAE9CE640460B995C
:104DE000FCF7CCFA18E7039811A9FCF715FF002887
:104DF0003FF4A1AE93E6BAF1000F19D00F994046E7
:104E0000FCF7BCFA8FE7009B0993EFE64FF0FF3108
:104E10008FE74FF0FF3195E74FF0FF319BE74FF001
:104E2000FF31A2E74FF0FF3179E7029B0993DDE6FE
:104E30000699E4E744B4000804B6000808B6000880
:104E40002DE9F04F8BB007468A46FCF707F94FF083
:104E5000FF357B1904460AF1040204A85C49019558
:104E6000FCF76CFF2E46A8465A4F5B4DDFF8849145
:104E700002A804A9FCF770FF8346D0B1029B002B67
:104E800041D05B68AB4230D0BB4231D04B4532D0D1
:104E9000524A934232D0524A934242D0514A02A8D7
:104EA00004A99A4208BF0126FCF756FF8346002852
:104EB000E4D1012E3FD001980028C0F282808442C4
:104EC0007FDDB8F1010F79D0B8F1020F26D0B8F12B
:104ED000000F70D0FCF7D6F8434A444B002814BFAB
:104EE0001046184600F0B4FE14E04FF00008BFE78B
:104EF0004FF00108BCE74FF00208B9E7039801A999
:104F0000FCF78AFEB4E7DAF8000002A9304AFDF7A0
:104F10001BF9834658460BB0BDE8F08FFCF7ACF8A0
:104F2000F8E721464FF0000B314800F0E1FE58460B
:104F30000BB0BDE8F08F002C019006DDFCF790F877
:104F40000198013084420190F8DC00252E460DF1D5
:104F500003003E21FCF7D0FC013003D09DF8033064
:104F6000032B19D0002C019608DD55B92846FCF713
:104F70007DF801980130A0420190F8DB85F0010531
:104F8000E5E70020FCF76CF80198013084420190BD
:104F9000F8DC85F00105DAE7002084420190B9DDF4
:104FA000FCF764F80198013084420190F8DC58461F
:104FB0000BB0BDE8F08FFCF759F8ABE7FCF750F801
:104FC000A8E7064800F066FE4FF0FF3BA2E700BFEF
:104FD000E4B4000898B900084CB9000844B90008C6
:104FE000ECB900080CB9000810B60008A8B1000818
:104FF0000CB60008ECB800082DE9F04F044691B05B
:105000008B46FCF74DFB0027BA46B946B846631EEF
:105010004FF0FF340290069407940BF104020AA8A3
:105020005C495D4C5D4D5E4E0197FCF787FE039732
:1050300008A80AA9FCF790FE034640B3089B002B82
:1050400066D05B68A34239D0AB423AD0B3423BD082
:10505000544A934243D0544A934275D0534A9342A0
:1050600049D0534A9342E3D1099807A9FCF7D4FDEC
:1050700042F21073079A9A4200F28680012308A830
:105080000AA90193FCF768FE03460028D6D1B8F1BF
:10509000000F48D1B9F1000F6BD1039A0AB9CDF8CE
:1050A00018800293019B002B6ED006980799FCF79D
:1050B000E5FA029B184611B0BDE8F08F4FF00108E9
:1050C000B6E74FF00109B3E7099804A9FCF7A4FD7E
:1050D000384B049A9A4246D84FF0010AA8E709983B
:1050E00005A9FCF799FD42F20E72059B023B934223
:1050F00039D801279CE7099806A9FCF78DFD069B86
:10510000002B3BDB029A9A4238DD012303938FE7A1
:10511000DBF8000008A91F4AFDF716F803461846F9
:1051200011B0BDE8F08FBAF1000F16D00498AFB1FE
:105130000599019AA2B1079A0193FCF7EFF9019B37
:10514000184611B0BDE8F08F02991B4800F0D0FD61
:105150000023184611B0BDE8F08FE8E73946E8E7CC
:105160004FF0FF32E8E70F4800F094FD4FF0FF33B7
:10517000D5E70190FCF76EFA019BD0E70B4800F0F1
:1051800089FD4FF0FF33CAE7094800F083FD4FF077
:10519000FF33C4E79CB70008A4B9000850B9000861
:1051A000C8B8000858B90008ECB9000844B90008AC
:1051B000F4B90008A08601000CB600080000000049
:1051C0002DE9F04FA5B0044602915022002110A80D
:1051D000FAF7AEFF804FDFF818E28048DFF814825C
:1051E0007F4D804EDFF810A2DFF800B201220223CB
:1051F00003214FF06C0C4FF06909CDF848E013978C
:105200004FF0490E442716904FF47A70CDF85C8029
:105210008DF840308DF850308DF841108DF85110D8
:105220008DF842C08DF852908DF860208DF8612085
:105230008DF870208DF871208DF862E08DF8727015
:10524000CDF844A0CDF854B019951B951D961F9626
:105250000690FCF725F84FF00008C146029A074671
:10526000631E10A904320AA8FCF768FDCDF804807B
:10527000CDF80C8008A80AA9FCF76EFDB8B1089B10
:10528000002B78D05B68AB4261D0B34262D05B4503
:1052900063D05345EED106A90998FCF7BDFC012364
:1052A00008A80AA90393FCF757FD0028E7D1044694
:1052B000B9F1000F7DD1019B002B40F08380824625
:1052C000DFF83891039CB8F1000F5FD1002F19DD92
:1052D00045467E1E2846FBF7C7FF02F0A1FF3CA310
:1052E000D3E9002302F03EFE02460B463E4800F0A2
:1052F000FFFCAE42CCBF2C200A20013500F064F93F
:10530000BD42E7D1F4B1069BFA25032B9CBF0423D1
:10531000069302F077F8064602F074F8069B022125
:1053200005FB03F3A9FB032306EB93139842CAD2B0
:105330000DF11700FCF7E0FA0130EDD09DF81730C1
:10534000032BE9D15446204625B0BDE8F08F4FF03D
:1053500001098FE7012301938CE70998002889D080
:1053600007A9FCF759FC079B002B25DB9F4223DD97
:105370004FF001087EE7029B08A9186810AAFCF705
:10538000E3FE0446204625B0BDE8F08F0798FBF702
:105390006BFF02F045FF0EA3D3E9002302F0E2FD0C
:1053A00002460B46104800F0A3FC0A2000F00CF95E
:1053B000A8E7FBF789FEC6E70C4800F06BFC4FF04E
:1053C000FF34C0E7FBF72AFFBDE700BFAFF3008063
:1053D0007B14AE47E17A743FE4AD000814B60008D0
:1053E000A4B9000850B9000834B6000844B9000850
:1053F000D4AD000824B60008A8B80008D34D621048
:1054000010B50F4890B000F00DFC2C2000F0DCF837
:105410000C4800F01DFC10AC002304F8403D204671
:10542000FBF73AFE10B19DF8003013B9002010B020
:1054300010BD204600F00CFC002010B010BD00BFD5
:105440007CB900081CB8000808B5FBF7CFFD0020A8
:1054500008BD00BFF0B500230B70037805463BB1D3
:10546000202B01D0092B74D115F8013F002BF7D167
:105470000024234600200646002C37D042F8205056
:105480000C780134E0B20870DBB92B784BB932E00C
:10549000092B08D0272B2FD0222B2DD015F8013F18
:1054A0004BB3202BF4D12E70681C03783BB1202B1A
:1054B00001D0092B0ED110F8013F002BF7D108784D
:1054C000F0BD2C781CB916E015F8014F9CB1A34231
:1054D000FAD1E8E7272B054609D0222B07D0087818
:1054E0000023132807D82C78002CC7D1F0BD451C09
:1054F00008781328F7D9F0BD00F18044013C52F838
:1055000024E0681CAE4502EB840438BF2F460DD260
:1055100017F8014C07F801490C7804F18044013C6C
:1055200052F824E002EB8404BE45F1D30EF10107EA
:1055300027606C78002CC2D0A34202D106E09C42C6
:1055400004D010F8014F002CF9D1B8E706700130F3
:10555000ABE7272B284602D1447801358AE7222B76
:10556000FAD02C78002385E72DE9F843894631B33A
:10557000DFF8508005460024474608E0C7F8702150
:105580001B782B700134A14505F1010514D0D8F822
:1055900070315A1C5BB11E78002EEFD1D7F8740120
:1055A000C7F8706118B102F03BFAC7F87461284679
:1055B000FCF790F90130E5D12046BDE8F8830C46B0
:1055C000FAE700BFA008002000B5094B83B0D3F86C
:1055D00078318DF807001BB10DF1070001219847C4
:1055E0009DF80700FCF7CCF903B05DF804FB00BFA1
:1055F000A00800202DE9F0410A2884B0054600F0FB
:105600005D810D2800F0E9801B2800F0E680082865
:1056100000F0E7807F2800F0E480032800F0C482D7
:105620001A2800F0B782102800F0E0810E286ED012
:10563000012800F07281052800F09A81062800F008
:10564000B881022800F04E81042800F0EC810B287C
:1056500000F058820C2800F0C080002800F0BD80C7
:10566000BE4C94F85560330600F1B78094F856703C
:10567000092808BF2025BE42214600F0AA8204EB7B
:1056800006034FF0000283F8592008DD07F15900A6
:1056900007F1580320441944F21B03F025FF7B1C3B
:1056A000DBB203F15708A04401362744404684F892
:1056B000563087F8585084F8556004F0E9FAD4F869
:1056C0007831054613B14046294698472946404659
:1056D000FCF722F994F8555094F856309D427CDD41
:1056E00008260BE00DF10F0098479DF80F00FCF71E
:1056F00047F994F85630013DAB426EDAD4F8783170
:1057000001218DF80F60002BECD10820EFE7934CBE
:1057100094F85730012B60D95E1E012E314600F0FF
:1057200051828F4D05F1800000E01D462B4613F895
:10573000012B002AF9D16A781D46002A4DD08342F8
:105740004BD201390129F1D194F8552094F8563003
:1057500084F85760934213D2D4F8783101218148FC
:1057600003B198477F480121FCF7D6F894F85630EA
:1057700094F855200133DBB29A4284F85630EBD8C6
:105780008AB1D4F878310321774803B19847764835
:105790000321FCF7C1F894F85530013BDBB284F8E3
:1057A0005530002BEDD12946704804F013FA6F48AC
:1057B00004F06EFAC3B26D4884F8553084F8563060
:1057C00004F066FAD4F87831054613B167482946E3
:1057D000984729466548FCF79FF8002004B0BDE8CB
:1057E000F0815E4C94F85550002DF6D094F8566038
:1057F000002EF2D0B54200F06C81AE4208DA06F11C
:10580000570006F1580120442144AA1B03F06CFE06
:105810006B1EDBB2D4F87821E118013E0025082088
:1058200084F8553084F8566081F858508DF804009B
:1058300022B101A8012190479DF80400FCF7A0F8CF
:1058400094F8565058352544284604F021FAD4F8E7
:105850007831064613B128463146984728463146E6
:10586000FCF75AF8D4F8783120208DF805002BB1D8
:105870000DF10500012198479DF80500FCF780F81F
:1058800094F8555094F8563001359D42A5DD082610
:105890000BE00DF1060098479DF80600FCF770F844
:1058A00094F85630013DAB4297DAD4F878310121B3
:1058B0008DF80660002BECD10820EFE7274B002184
:1058C000D3F878218DF803001960002A00F0AA802F
:1058D0000DF10300012190479DF80300FCF750F8FB
:1058E00001207BE71D4C94F85630002B3FF475AF38
:1058F000D4F8783108208DF80A002BB10DF10A0098
:10590000012198479DF80A00FCF73AF894F85630C0
:105910000020013B84F8563060E7104C94F8563074
:10592000002B3FF45AAF08250FE00DF10700984710
:105930009DF80700FCF724F894F85630013BDBB2E1
:1059400084F85630002B3FF448AFD4F87831012169
:105950008DF80750002BE8D10820EBE7A0080020C5
:105960007909002074B8000828B80008F808002059
:10597000A14C94F8563094F855209A427FF62DAFFA
:10598000E21892F85800D4F8782101338DF8080015
:1059900084F8563022B102A8012190479DF80800F2
:1059A000FBF7EEFF94F8563094F855209A42E7D86A
:1059B00013E7914B93F8562093F8551091427FF6D8
:1059C0000CAF991891F85800D3F8784101328DF84E
:1059D000090083F856202CB10DF109000121A047E0
:1059E0009DF80900FBF7CCFF0020F7E6824C94F805
:1059F00057600136012E314600F0E48004F1D905EC
:105A000004F259102A4615F8013B002BFAD15378BD
:105A1000002B3FF4E2AE8542BFF4DFAE013901292D
:105A2000F0D191E65AE7744C94F8562094F855500A
:105A3000AA42BFF4D2AE02F1580606DA02F15901C9
:105A4000A0192144AA1A03F04FFD6B1EDBB22644B5
:105A5000E2180021304684F8553082F8581004F0DE
:105A600017F9D4F87831054613B1304629469847DE
:105A700030462946FBF750FFD4F8783120208DF8C6
:105A80000B002BB10DF10B00012198479DF80B0085
:105A9000FBF776FF94F8555094F8563001359D4247
:105AA0007FF79BAE08260BE003A898479DF80C00F3
:105AB000FBF766FF94F85630013DAB42BFF68DAE62
:105AC000D4F8783101218DF80C60002BECD108203E
