:020000040800F2
:10000000005000202D0200088D0200088D0200081B
:100010008D0200088D0200088D020008000000001B
:1000200000000000000000000000000031AE0008E9
:100030008D02000800000000C1AE000805AF0008F6
:100040008D0200088D0200088D0200088D02000854
:100050008D0200088D0200088D0200088D02000844
:100060008D0200088D0200088D0200088D02000834
:100070008D0200088D0200088D0200088D02000824
:100080008D0200088D0200088D0200088D02000814
:10009000E53A00088D0200088D0200088D02000874
:1000A0008D0200088D0200088D0200088D020008F4
:1000B0008D0200088D0200088D0200088D020008E4
:1000C0008D0200088D0200088D0200088D020008D4
:1000D0008D0200088D0200088D0200088D020008C4
:1000E0008D0200088D020008F13A000800000000AF
:1000F0000000000000000000000000000000000000
:0C01000000000000000000005FF808F1A3
:10010C003C6D637573683E003230323230323231BE
:10011C002D313832393239004D43555348206465FE
:10012C007369676E65642062792050656E67205331
:10013C0068756C696E2C20616C6C207269676874D0
:10014C00732072657365727665642E0A68747470B8
:10015C00733A2F2F6769746875622E636F6D2F70F9
:10016C00656E677368756C696E2F6D637573680067
:10017C0014ED000800000020AC040000B0040020C6
:04018C000836000031
:1001900070B4840746D0541E002A41D0CDB2034625
:1001A00002E0621EE4B3144603F8015B9A07F8D13B
:1001B000032C2ED9CDB245EA05250F2C45EA05457D
:1001C00019D9264603F11002103E0F2E42F8105C9A
:1001D00042F80C5C42F8085C42F8045C02F1100240
:1001E000F2D8A4F1100222F00F0204F00F04103232
:1001F000032C13440DD91E462246043A032A46F81E
:10020000045BFAD8221F22F003020432134404F0E4
:1002100003042CB1C9B21C4403F8011BA342FBD157
:1002200070BC704714460346C2E700BF002103E0DC
:100230000F4B5B58435004310E480F4B42189A4203
:10024000F6D30E4A02E0002342F8043B0C4B9A42DC
:10025000F9D30C4A03E05FF0A53342F8043B0A4BA4
:100260009A42F8D300F014F80BF016F8704700002B
:1002700014ED000800000020AC040020B0040020B1
:10028000B83A0020004E002000500020FEE7000099
:1002900010B4104B104A1968104841F00101196060
:1002A00059684FF41F040A405A601A684FF0006101
:1002B00022F0847222F480321A601A6822F48022BA
:1002C0001A605A6822F4FE025A609C6081605DF8F0
:1002D000044B7047001002400000FFF800ED00E002
:1002E000014B1868704700BF502000204FF6FF02F6
:1002F000064900F00700CB681A4042F0BF6343F4A0
:10030000003343EA0023CB60704700BF00ED00E0FC
:1003100030B4184BDB68C3F30223C3F10705042D87
:1003200003F1040428BF0425062C17D9033B01243C
:100330009C40013C22400124AC40013C21409940BA
:10034000002842EA01020CDB120100F16040D2B247
:1003500000F5614080F8002330BC7047002213464E
:10036000E9E7054B00F00F001201D2B203441A7600
:1003700030BC704700ED00E0FCEC00E0002807DB3B
:10038000044A00F01F01012340098B4042F820304D
:10039000704700BF00E100E0124BDB6813F0100370
:1003A00005D011491023CA6942F00202CA610D4A00
:1003B000D268500706D50C4943F00403CA6942F0DD
:1003C0000102CA61074AD169C90708D50648C1694F
:1003D00041F00401C161D16921F00101D161014AFB
:1003E000D36070470020024058200020064B186957
:1003F00010F0800006D00549054A59605A60186916
:10040000C0F3C010704700BF0020024023016745C1
:10041000AB89EFCD034A0020136943F080031361D9
:10042000704700BF0020024070B50446FFF758FF38
:10043000124D064601E0621C13D1EB680F4ADB0740
:10044000F9D4D368980644BF2023D3600B4BDA68F5
:10045000D10602D4DA69D2070BD5FFF79DFF012040
:1004600070BD24B1FFF73CFF801B8442E5D203201E
:1004700070BDD86810F00400EFD170BD00200240BC
:100480002DE9F84FDFF8A48098F81850012D02D11B
:100490000220BDE8F88F1E46054601234CF250307D
:1004A00091460C4688F81830FFF7BEFFB8BB012D07
:1004B0003AD0022D0CBF02200420471EFFB20137A4
:1004C00000253F01A246DFF868B001E0BD4226D01A
:1004D000C5F120030022C8F81C2006FA03F329FA0C
:1004E00005F0A5F12002184326FA02F2DBF81030DD
:1004F000104343F0010384B2CBF810304CF250307B
:10050000AAF80040FFF790FFDBF81030103523F019
:1005100001030AF1020ACBF810300028D6D00023DC
:1005200088F81830BDE8F88F2846C6E75820002024
:10053000002002402DE9F8432E4E337E012B43D09C
:100540000123337603688146022B88464CF25030F3
:1005500032D0FFF769FF90BB4FF0FF33C8F800308F
:10056000D9F80850D9F80C3005EB83239D4226D2E8
:100570000746214C09E0D9F80C20D9F8083005F5D8
:10058000806503EB8223AB421AD9F76123694CF2F1
:10059000503043F0020323616561236943F0400357
:1005A0002361FFF741FF236923F002032361002841
:1005B000E1D0C8F8005003E0FFF736FF38B1012062
:1005C00000233376BDE8F8830220BDE8F8830A4CA7
:1005D000F06123694CF2503043F004032361236936
:1005E00043F040032361FFF71FFF236923F0040357
:1005F0002361E5E758200020002002402DE9F04F5C
:10060000002583B02A46DFF8C8E16B4CDFF8C4C18F
:1006100003E00132102A00F0858001230E68934028
:100620001E409E42F5D14B68122B00F09F8000F2D5
:100630008980022B00F09F807FD9032B00F09980E6
:10064000112B01D1CD680435FF2E6ED88246036888
:100650004FEA820B4FF00F0909FA0BF823EA08085A
:1006600005FA0BF348EA0303CAF800304B68DB00D5
:10067000CFD5524B514FD3F8188022F0030348F0E6
:100680000108C7F81880D7F8188003F1804308F0F4
:100690000108CDF8048003F5803302F00308DDF88B
:1006A00004A04FEA8808D3F808A009FA08F97045B1
:1006B0002AEA090A72D0604573D0414FB84275D01A
:1006C000404FB8420CBF4FF003094FF0040909FA3C
:1006D00008F949EA0A09C3F808904B68013213F493
:1006E000803F236814BF3343B34323604B6813F444
:1006F000003F636814BF3343B34363604B6813F434
:10070000801FA36814BF3343B343A3604B6813F443
:10071000001FE36814BF1E4323EA0606102AE660A2
:100720007FF47BAF03B0BDE8F08FA2F1080B436804
:100730004FEA8B0B00F1040A8CE79BB1012B83D1AC
:10074000CD6881E7204FBB420CD017D91F4FBB4269
:1007500008D007F58037BB4204D0DFF87C804345E2
:100760007FF472AF8B689BB904256DE7CD680C35BB
:100770006AE7002568E7CD68083565E7DFF85C8043
:100780004345EFD008F5803843457FF45DAFE9E796
:10079000012B0CBF06614661082555E74FF00009A3
:1007A00097E74FF0010909FA08F992E74FF00209BB
:1007B00009FA08F98DE700BF00040140001002406B
:1007C0000010014000140140000021100000311011
:1007D00000080140000C0140000022100000111030
:1007E000002869D0F0B590F8293487B0054603F0A9
:1007F000FF02002B5BD02E46032385F8293428689E
:1008000000F07AFF56F810EB6C4637460FCF0FC456
:100810003B682F1D236097E80E00704600F05AFFDA
:100820000021286800F072FF00210C462B462A4662
:10083000012082F82810918601310F2982F82900C1
:1008400082F82B409463D463146402F12002F0D147
:100850000022114683F828229A8601320F2A83F853
:10086000291283F82B12C3F83812C3F83C12C3F8CC
:1008700040124FF0000403F12003EBD1EE460FCEFF
:10088000D5F800C0AEE80F0033686046CEF80030FF
:1008900097E80E0000F03CFF012385F8244028680B
:1008A00085F8293401F0B0FB204607B0F0BD80F890
:1008B000282402F0D1FF9EE70120704790F82824F9
:1008C000012A01D10220704710B50446012180F8A9
:1008D000281403F005F9206801F094FB206800F06B
:1008E00001FF002084F8280410BD00BF10B590F867
:1008F00028340446012B01D1022010BD84F82410B5
:10090000012380F82834006801F076FB002084F889
:10091000280410BD38B5CCB20546200619D40846C7
:1009200005EB411101F50A71E4094C7008700A6188
:10093000CB7095F82834012B01D1022038BD01235A
:1009400085F82834286800F0FDFE002085F828048A
:1009500038BD01F07F0005EB40112831E4E700BF0E
:10096000CBB21A0610B5044617D40A4600EB411163
:1009700001F50A71DB094B700A7094F82834012BD9
:1009800001D1022010BD012384F82834206801F031
:100990007FF8002084F8280410BD01F07F0200EBEE
:1009A00042112831E6E700BFF8B501F07F014D01A3
:1009B0004419002684F82812C4F83C22C4F84032B6
:1009C000C4F8446284F8296205F50A754119006883
:1009D00001F04CF93046F8BD01F00F0100EB411079
:1009E000B0F84402704700BFF8B501F07F014D0137
:1009F00044190026012784F82810E263236484F850
:100A00002970666405F128010144006801F02EF99F
:100A10003046F8BD2DE9F043044683B0006801F08C
:100A2000F5FA020444D4206801F0F0FA430500F11D
:100A30001982206801F0EAFA470408D52268B2F862
:100A4000443023F480431B041B0CA2F8443020687C
:100A500001F0DCFA860408D52268B2F8443023F4A9
:100A600000531B041B0CA2F84430206801F0CEFA9E
:100A7000C50400F1D881206801F0C8FA000500F132
:100A8000AF81206801F0C2FA820500F19C812068E4
:100A900001F0BCFAC30508D52268B2F8443023F44B
:100AA00080731B041B0CA2F8443003B0BDE8F08334
:100AB000276800233846ADF8043004F22C45ADF821
:100AC0000630B7F844309BB21A04ADF80430ABD509
:100AD000BDF8042012F00F065FD1BDF804103B886A
:100AE00001F0100189B2002900F0A9809BB2ADF895
:100AF0000630BDF806301B0500F14381BDF8063015
:100B00001BB2002BDDDA3B8823F070031B051B0DA5
:100B10003B80206894F82822B0F850309BB203EB59
:100B2000C20300EB4303D3F80C34C3F30903C4F846
:100B30004432002B40F01F822046002102F0C2FE0A
:100B40002168D4F83802B1F850303E289BB201F544
:100B5000806103F1060340F2E781C0F34F12C6063D
:100B600004BF02F1FF3292B26FEAC2626FEA5242F0
:100B700092B241F813202268138823F4804323F0B3
:100B800070031B041B0C83F4405343F4004343F0F5
:100B9000800313802768384693E737F826309BB2E6
:100BA000ADF80630BDF806301BB2002B79DBBDF87E
:100BB00006301B0685D537F826304FEA461823F451
:100BC000E14323F070031B041B0C27F8263004EBD1
:100BD000080797F832302068002B40F0B480B0F856
:100BE000503097F828209BB203EBC20300F5806ECB
:100BF00002335EF8133004EB4612C3F30903536467
:100C0000002B40F0898104EB0801B0F8503091F8D6
:100C100028209BB203EBC20302335EF81330CA6B89
:100C2000C3F309034B641A440B6CCA63204691F862
:100C300028108BBB02F04EFE2768384641E723F4AC
:100C4000E14323F070031B041B0C3B80206894F8E5
:100C50002830B0F85020E66B92B202EBC30300EBF1
:100C60004303D3F804342046C3F309031E446364EA
:100C7000E66302F02FFE94F824307BB1236C6BB94D
:100C800094F82420216842F08002A1F84C202768C3
:100C900084F82430384614E7FFF7A6FE2768384664
:100CA0000FE737F826304FEA461823F070031B058C
:100CB0001B0D27F8263004EB080999F8323220681A
:100CC000002B00F0ED8099F8283230F8231000EB6B
:100CD000830211F4804FB0F8501089B201EBC303C6
:100CE00000EB430300F02B81D3F80474C7F309072A
:100CF000002F40F05481138823F0F0031B051B0DD7
:100D000043F4004343F0C003138004EB0801D1F81F
:100D10004432D1F83C223B44C1F84432D1F840324D
:100D20003A44C1F83C2223B1D1F83802874280F01E
:100D30001A8104EB0801204691F8281202F0C2FD46
:100D40002768384633E797F828E030F82E30590600
:100D500040F1BE80B0F8501004EB461289B201EBAE
:100D6000CE0300EB4303D3F80434C3F30903536405
:100D7000002B00F0BD80F96BFA8D01F04DF9206871
:100D8000B6E0B7F8503094F828229BB203EBC203C8
:100D900007EB4303D3F80C343846C3F30903C4F814
:100DA00044322946B4F82C2201F04EF9226820463C
:100DB000138823F070031B051B0D138002F07AFDCE
:100DC000276838467DE622682046B2F8443023F48E
:100DD00000731B041B0CA2F8443002F083FD56E69E
:100DE0002268B2F840309BB243F00803A2F84030CA
:100DF0002268B2F8443023F400631B041B0CA2F8F1
:100E000044302268B2F840309BB243F00403A2F8A9
:100E10004030206801F0FAF8C1043FF532AE2046B8
:100E200002F072FD2DE622682046B2F8403023F031
:100E300004031B041B0CA2F840302268B2F84030B7
:100E400023F008031B041B0CA2F8403002F060FDE5
:100E50002268B2F8443023F480531B041B0CA2F820
:100E6000443008E622682046B2F8443023F4806318
:100E70001B041B0CA2F8443002F038FD94F828340F
:100E8000012B3FF4D6AD0025012384F8283484F8E3
:100E900024502946206801F0AFF884F82854C8E5AA
:100EA000B0F8503099F828129BB203EBC10300EB65
:100EB0004303D3F80C74C7F30907002F3FF425AFA1
:100EC000D9F83C12B9F82C223B4601F0BDF81CE7DA
:100ED000B0F8503004EB46129BB203EBCE0300EBAC
:100EE0004303D3F80C34C3F309035364002B50D1EC
:100EF00004EB080393F8282030F8223023F0F003A5
:100F00001B051B0D43F4404343F0800320F82230BF
:100F1000206800F5806E76E6F96BBA8D01F07CF8FA
:100F2000206800F5806E6EE6C0F34F02C00744BF34
:100F3000013292B2920292B241F813201BE6D3F82A
:100F40000C74C7F30907002F3FF4D5AED9F83C1253
:100F5000B9F830223B4601F077F899F82822236847
:100F600003EB8202C7E691F828122046FFF71CFD2A
:100F7000276838461BE6B4F82C22D4F83C1201F05E
:100F800063F8D4F83C22D4F844321344C4F83C3219
:100F9000D2E5F96B3A8E01F03FF82068A8E7B9F87E
:100FA0002E22D9F83C12D5E738B5CBB21A06044642
:100FB00019D40D4600EB411101F50A71DB0901223C
:100FC0004B700D708A7094F82834934201D102203E
:100FD00038BD84F82824206800F082FF4DB100203D
:100FE00084F8280438BD01F07F0500EB4511283155
:100FF000E4E7206804F22C4101F00CF8EFE700BFB1
:1010000038B5CBB21A06054619D40A4600EB411191
:1010100001F50A71DB0900244B700A708C7095F899
:101020002834012B01D1022038BD012385F8283452
:10103000286800F08FFF85F82844204638BD01F06D
:101040007F0200EB42112831E4E700BF11F0800F6E
:101050000CD001F07F0100EB4110283062B1190C77
:101060000122C380018182720020704700EB411091
:1010700000F50A70002AF2D1827283800020704746
:101080008368DA070BD5836843F460238360836841
:1010900043F4E0438360836823F001038360836843
:1010A000DB0743D40368224A23F01F03036041682F
:1010B000204B0A404260826813408360C36803F09B
:1010C0007F43C360036903F040430361436923F432
:1010D0007F6323F00F034361836923F47F6323F06D
:1010E0000F038361C36923F47F6323F00F03C3619C
:1010F000036A23F47F6323F00F030362436A6FEAFA
:1011000013336FEA03334362836A23F47F6323F06C
:101110000F038362C36A03F07F43C362036B03F070
:1011200040430363836B9B0D9B05836301207047E2
:10113000000030FFF00601FF8368DB070DD4426832
:101140004B6822F480721343436083680A6823F477
:10115000006313438360012070470020704700BF85
:101160008368DB0723D44B6830B4C3B9436823F4E6
:10117000684343608368CD680C680A692C4323F494
:101180006023224323F4817313438360C36A4A6854
:1011900023F470031343C36230BC012070474268DC
:1011A0008C6822F46842234313434360E2E7002043
:1011B000704700BF3E4B10B498421FD03D4B0022F9
:1011C0001C68012924F001041C601A605A609A60AE
:1011D000DA6034D002294BD0032955D0042934D009
:1011E000052958D006295BD0072905BF4FF0807329
:1011F0004360002001205DF8044B7047012914D0A2
:10120000022929D0032939D0042939D0052939D018
:1012100006294AD0274B00221C6824F001041C60D8
:101220001A605A609A60DA60DEE7234B0022196880
:1012300021F0010119601A605A609A60DA60012396
:1012400043605DF8044B184670474FF48053436089
:101250005DF8044B01207047184B1C68002224F0F5
:10126000010402291C601A605A609A60DA60B3D1E6
:10127000102343605DF8044B01207047104BECE7EE
:10128000104BEAE7104BE8E74FF4807343605DF8DA
:10129000044B012070474FF4803343600120AAE7DC
:1012A0004FF4801343600120A5E7084BD5E700BF4A
:1012B0000000024080000240080002401C00024082
:1012C0003000024044000240580002406C000240DE
:1012D000F0B4134F02F108033944546968CB1D433D
:1012E00011F8013C2E43916946EA0405C458D669B9
:1012F0002943556A0E4324F4FF41354321F0700120
:101300002943C15051680344D96011680120996094
:101310005968146A0A0C120422435A60F0BC7047E0
:10132000FCD100082DE9F04F0E68C6F30F2696FA9F
:10133000A6F3002B00F0B180B3FA83F31D4636FA12
:1013400003F200F0938040F201194FF0010E4FF0CC
:101350000F084FF0011C2CE0B7FA87F7BF0008FA1E
:1013600007F7FF433A4093FAA3F7002F3ED0B7FAAE
:1013700087F7BF000BFA07FB4BEA02020251C7686E
:101380001A0A27EA0207D1F810B092FAA2F27AB349
:10139000B2FA82F20BFA02FB4BEA0707C7604A680F
:1013A00022F00802012A25D0013536FA05F22B4633
:1013B0005CD00EFA03F23242F6D0072D85BFA5F1BC
:1013C00008030CFA03F309FA03F343F080631C0EDD
:1013D0000259D1F804B093FAA3F7002FBCD14FF013
:1013E000FF373A4093FAA3F7002FC0D18027C1E717
:1013F0002022CFE793FAA3F78A6850F804B0002FB1
:1014000041D0B7FA87F74FF0030ABF000AFA07F78F
:10141000FF4307EA0B0B93FAA3F7002F3BD0B7FA71
:1014200087F7BF00BA4042EA0B020251CF6893FA35
:10143000A3FBBBF1000F1CD093FAA3F3BBFA8BFB09
:101440004FF0040A4FEA8B0B0AFA0BFB6FEA0B0B07
:101450000BEA0202ABB1B3FA83F39B009F403A431D
:101460000135025136FA05F22B46A2D10120BDE822
:10147000F08F4FF0FF3B0BEA020293FAA3F3002B2D
:10148000E9D18023EAE74FF0FF3707EA0B0B93FA25
:10149000A3F7002FC3D18027C4E720231D464EE7C2
:1014A000194A036890421ED0B0F1804F12D0A2F5C5
:1014B000943290420ED002F5806290420AD00360CE
:1014C0008B68C3620B888362436943F00103436105
:1014D000012070474A6823F070031343CA6823F45D
:1014E00040731343EBE74A6823F070031343CA6861
:1014F00023F44073134303608B68C3620B888362D9
:101500000B7C0363E0E700BF002C01400023036075
:1015100043608360C360036143618361C36170475B
:101520001029F0B403466ED048D9B1F5807F24D09D
:10153000B1F5805F64D1016A654E21F4805101628A
:10154000016A146921F400514768C06941EA043115
:1015500021F4805120F4E640B34292E8300041EAA1
:10156000053140EA042000F084805F60D861D268D1
:1015700001201A641962F0BC7047016A544E21F4CC
:1015800080710162016A146921F400714768C069C1
:1015900041EA042121F4807120F07300B34292E803
:1015A000300041EA052140EA040068D05F60D8615C
:1015B000D2680120DA631962F0BC704701291FD19B
:1015C000016A434F21F001010162046A106924F0AD
:1015D00002045E68996920431568546820F0010090
:1015E00021F07301BB4244EA000441EA05015BD0EB
:1015F0005E609961D26801205A631C62F0BC70473A
:101600000020F0BC7047016A314E21F010010162E8
:10161000016A146921F020014768806941EA0411D8
:1016200021F0100120F4E640B34292E8300041EA94
:10163000051140EA042007D05F609861D26801205C
:101640009A631962F0BC70475569946921F0800172
:1016500027F4806741EA851147EA84079568D469D1
:1016600021F0400127F4006741EA851147EAC407E9
:10167000E2E7946927F4804747EA841775E75569DC
:10168000946921F4006127F4805741EA852147EAF3
:1016900004179568D46921F4806127F4005741EA62
:1016A000852147EA441781E75769956924F00800C6
:1016B00026F4807640EA870094682E43D76920F0AC
:1016C000040026F4007640EA840446EA47068FE7E1
:1016D000002C014084B001A880E80E0004B0002076
:1016E000704700BF0246B0F8403000209BB243F480
:1016F0003F43A2F84030704744F2FF210246B0F861
:10170000403000200B40A2F8403070470020704766
:1017100084B070B4044601250020A4F84050A4F819
:101720004000A4F84400A4F85000B4F8405004AEBF
:1017300086E80E00ADB245F43F45A4F8405070BCB9
:1017400004B07047CB7830B4032B10D8DFE813F027
:101750007501680104005B010A7830F8223023F437
:10176000EC4323F070031B041B0C20F822300C7890
:1017700030F8242044F4004522F0F0031B051B0D33
:1017800045F080052B4320F824308B7A002B37D18D
:101790004B78002B00F0EE80B0F850300C788A883F
:1017A0009BB203EBC403520800EB43035200C3F89F
:1017B00000240C7830F8243000EB84025B060ED550
:1017C00030F8243023F0F0031B051B0D43F40043D5
:1017D00043F0C00320F824300A7800EB820213881B
:1017E000002023F4E04323F040031B041B0C83F090
:1017F000200343F4004343F08003138030BC704760
:101800000A7800F5806430F8223023F4F8731B0561
:101810001B0D43F4014343F0800320F82230B0F85D
:101820005030CA880D789BB2520803EBC5035200B2
:1018300044F81320B0F850300D780A899BB203EBBE
:10184000C50352080433520044F813204B780C7837
:10185000002B4FD130F8243000EB84025D040ED50C
:1018600030F8243023F0F0031B051B0D43F44043F4
:1018700043F0800320F824300A7800EB82021388BA
:101880005B060CD5138823F0F0031B051B0D43F4F6
:10189000004343F0C00313800A7800EB82021388F0
:1018A00023F0F0031B051B0D43F4004343F0C0037A
:1018B00013800A7830F8223023F4804323F0700339
:1018C0001B041B0C83F4405343F4004343F0800398
:1018D00020F822300A7830F8223023F0C0031B05AC
:1018E0001B0D43F4004343F0800320F8223030BC4A
:1018F0000020704730F8243000EB84025D040ED5E0
:1019000030F8243023F0F0031B051B0D43F4404353
:1019100043F0800320F824300A7800EB8202138819
:101920005B0600F19780138823F0F0031B051B0D65
:1019300043F4404343F0800313800A7830F82230A8
:1019400023F0C0031B051B0D43F4004343F0800349
:1019500020F822300A7830F8223023F0F0039B047C
:101960009B0C43F4004343F0800320F8223030BC4A
:1019700000207047B0F850300C788A889BB203EB97
:10198000C40352080433520000F5806444F8132065
:10199000B0F850300D690A789BB206333E2D03EB48
:1019A000C20365D8C5F34F02ED0744BF013292B2BE
:1019B000920292B244F813200C7830F8243000EBF5
:1019C00084025B040ED530F8243023F0F0031B05AD
:1019D0001B0D43F4404343F0800320F824300A7881
:1019E00000EB82021388002023F4804323F070036D
:1019F0001B041B0C83F4405343F4004343F0800367
:101A0000138030BC70470A7830F822309BB223F440
:101A1000EC4323F0700343F4C06320F82230A6E6C1
:101A20000A7830F822309BB223F4EC4323F07003A1
:101A300043F4806320F8223099E60A7830F82230A7
:101A40009BB223F4EC4323F0700343F4007320F8BB
:101A500022308CE6138823F0F0031B051B0D43F4A2
:101A6000004343F0C00313800A7800EB82025AE778
:101A7000C5F34F12ED0604BF02F1FF3292B26FEAD6
:101A8000C2626FEA524292B244F8132094E700BF58
:101A90008B7A10B43BBB4B780C78002B00F0B480F1
:101AA00030F8243000EB84025B060ED530F8243089
:101AB00023F0F0031B051B0D43F4004343F0C00368
:101AC00020F824300A7800EB82021388002023F0EB
:101AD000C0031B051B0D43F4004343F08003138038
:101AE0005DF8044B70474B780C78002B4CD130F8E4
:101AF000243000EB84025B040ED530F8243023F050
:101B0000F0031B051B0D43F4404343F0800320F812
:101B100024300A7800EB820213885C060CD5138807
:101B200023F0F0031B051B0D43F4004343F0C003F7
:101B300013800A7800EB8202138823F0F0031B0560
:101B40001B0D43F4004343F0C00313800A7830F8C0
:101B5000223023F0F0039B049B0C43F4004343F03A
:101B6000800320F822300A7830F8223023F0C003B6
:101B70001B051B0D43F4004343F0800320F8223083
:101B80005DF8044B0020704730F8243000EB8402ED
:101B90005B040ED530F8243023F0F0031B051B0D39
:101BA00043F4404343F0800320F824300A7800EBEC
:101BB000820213885B064AD4138823F0F0031B05C6
:101BC0001B0D43F4404343F0800313800A7830F840
:101BD000223023F0C0031B051B0D43F4004343F0E8
:101BE000800320F822300A7830F8223023F0F00306
:101BF0009B049B0C43F4004343F0800320F8223005
:101C00005DF8044B0020704730F8243000EB84026C
:101C10005B040ED530F8243023F0F0031B051B0DB8
:101C200043F4404343F0800320F824300A7800EB6B
:101C300082021388002023F0F0039B049B0C43F4E2
:101C4000004343F0800313805DF8044B7047138812
:101C500023F0F0031B051B0D43F4004343F0C003C6
:101C600013800A7800EB8202A6E700BF4A78F0B43E
:101C7000012A70D08B690C69A34232D800248C6190
:101C80008C7A002C33D1B0F850200C7892B2063206
:101C90003E2B02EBC40200F5806540F29C80C3F34A
:101CA0004F14DE0604BF04F1FF34A4B26FEAC4642B
:101CB0006FEA5444A4B245F812400A7830F8223052
:101CC00023F4804323F070031B041B0C83F4405364
:101CD00043F4004343F0800320F82230F0BC00209E
:101CE00070471B1B8B6123468C7A002CCBD0002ABB
:101CF000E3D1B0F850200C7892B202323E2B02EBC6
:101D0000C40200F5806640F2AF805C09A5B213F012
:101D10001F0704BF05F1FF35ADB26FEAC5656FEA75
:101D20005545ADB246F812504A78002A40F0C980B5
:101D3000B0F850300A789BB20633A4B203EBC2026B
:101D40000FB9013CA4B26FEAC4646FEA54439BB27A
:101D500046F81230B1E78E690B699E4246D80023DF
:101D60008B618B7A002B47D1B4B28D88013464101B
:101D700000EB45054B6910D005F20445023313F81A
:101D8000017C13F8022C013C42EA072225F8042CBE
:101D900003F1020305F10405F1D1B0F850300A78DF
:101DA0009BB203EBC20300EB4303C3F804640A785D
:101DB00030F8223023F4E04323F040031B041B0CD3
:101DC00083F0300343F4004343F0800320F82230D3
:101DD000F0BC00207047C3F34F04DB0744BF01345D
:101DE000A4B2A402A4B245F8124066E7F61A8E61C6
:101DF0001E468B7A002BB7D00A78B5B230F8223065
:101E0000B0F8504013F0400FA4B204EBC20200F54A
:101E1000806302F1020243F8126014BF0F89CF8879
:101E200001356D1003EB47074B690DD002330022DB
:101E300013F8016C13F8024C023344EA062427F825
:101E400022400132AA42F3D14B7853BB0A7830F8D2
:101E5000223023F0F0031B051B0D43F4004343F035
:101E6000C00320F82230A2E75C08A5B213F00107F6
:101E70001CBF0135ADB2AD02ADB246F812504A7882
:101E8000FAB9B0F850300A789BB20633A4B203EB2B
:101E9000C2030FB10134A4B2A402A4B246F81340A5
:101EA0000BE7012B83D10A7830F8223023F0F003BE
:101EB0001B051B0D43F4404343F0800320F8223000
:101EC00075E7012A7FF4F9AEB0F850200C7892B291
:101ED00002EBC40200EB4202C2F80434EDE600BF9C
:101EE0000A782AB34B788BB930F8223023F4804338
:101EF00023F070031B041B0C83F4805343F4004352
:101F000043F0800320F822300020704730F8223060
:101F100023F4E04323F040031B041B0C83F0100365
:101F200043F4004343F0800320F822300020704740
:101F300003889BB223F4804323F0400383F480534F
:101F400083F0100343F4004343F080030380002038
:101F5000704700BF4B7810B40C7833B330F824309E
:101F600000EB84025B060ED530F8243023F0F0033A
:101F70001B051B0D43F4004343F0C00320F824303D
:101F80000A7800EB82021388002023F4E04323F058
:101F900040031B041B0C83F0300343F4004343F065
:101FA000800313805DF8044B704730F8243000EB59
:101FB00084025B040ED530F8243023F0F0031B05B7
:101FC0001B0D43F4404343F0800320F824300A788B
:101FD00000EB82021388002023F4804323F0700377
:101FE0001B041B0C83F4405343F4004343F0800371
:101FF00013805DF8044B704711B98023A0F84C3072
:10200000002070470020704700207047B0F844005F
:1020100080B2704700207047013300F580605B108C
:1020200000EB42020FD070B40231002411F8016CB1
:1020300011F8025C023145EA062522F824500134E9
:10204000A342F3D170BC7047013300F580605B1090
:1020500000EB420205D052F8040B013B21F8020BC1
:10206000F9D17047054A064BA2FB002080090138D0
:1020700000210522586099601A607047D34D6210A4
:1020800010E000E0014B1860704700BF2C040020F6
:1020900010B5D0F81C32D0F818425BB194F80002A9
:1020A000FF2807D09B68214694F801229847FF2318
:1020B00084F80032002010BD43230380004870479D
:1020C00098D20008432303800048704748D2000894
:1020D000432303800048704704D200080A2303808A
:1020E000004870478CD2000838B50446D0F8185222
:1020F00001F0F0FCC5F80C02D4F818324BB1D4F85A
:102100001C32D5F80402DB6805F5037198470020FE
:1021100038BD022038BD00BFD0F818323BB110B531
:102120000024C3F8144201F029FA204610BD022011
:10213000704700BF70B50B780C4613F0600205467F
:10214000D0F8186211D0202A0DD1CA8812B31B060C
:1021500014D44B78314686F80032E38886F8013291
:10216000E28800F007FC002070BD4B780A2BFAD102
:102170000B49012200F0E6FB002070BDD0F81C32B4
:1021800048789B683146984728463146E28800F0F7
:10219000D9FBE8E7D0F81C3248789B689847E2E71B
:1021A000CC06002010B50446812101F02FFC01214E
:1021B000204601F02BFC2046822101F027FCD4F8B8
:1021C000183233B1D4F81C325B6898470023C4F846
:1021D0001832002010BD00BF38B5037C04468121B1
:1021E00002223BBB4FF4007301F000FC20460121AA
:1021F00002224FF4007301F0F9FB164D82210322F5
:102200000823204601F0F2FBD4F81C32C4F818521F
:102210001B6898470023C5F81432C5F81832237C90
:102220002046D5F80422012173B1402301F044FC7B
:10223000002038BD402301F0D9FB204601210222B5
:10224000402301F0D3FBD8E74FF4007301F034FCD6
:10225000002038BDB004002019B1C0F81C120020C5
:1022600070470220704700BFD0F818320020C3F832
:102270000812C3F810227047D0F818320020C3F8B3
:1022800004127047D0F8183273B1D3F814220AB18F
:10229000012070470122C3F814228121D3F80822BB
:1022A000B3F8103201F0FABB02207047D0F81822C0
:1022B00082B110B5047CD2F80422012124B140235C
:1022C00001F0FAFB002010BD4FF4007301F0F4FBA5
:1022D000204610BD0220704788B108B5D0F81432EE
:1022E00013B10023C0F8143209B1C0F81012012351
:1022F000027080F8FC3101F00FFB002008BD0220C5
:10230000704700BF19B1C0F81412002070470220B6
:10231000704700BF08B501F05BFB002008BD00BF9F
:1023200008B5D0F8143213B11B68984708B10220E1
:1023300008BD08BD08B5D0F814325B689847002086
:1023400008BD00BF38B5044600F50275284600F008
:10235000C9FA94F808120120B4F80E2201F01F0304
:102360008342C4F8F401C4F8F82115D00ED3022B2F
:1023700006D0204601F0800101F056FB002038BD58
:102380002046294600F046FA002038BD204629465E
:1023900000F0D6F8002038BD2046294600F01CFA8F
:1023A000002038BD10B5044631B91346D0F8F421E9
:1023B000032A0CD0002010BDD0F814329B69002BEA
:1023C000F8D090F8FC21032AF4D19847F2E7D0F82E
:1023D0000C11D0F8102191420CD8D0F814321B699E
:1023E0001BB190F8FC21032A0FD0204600F0DCFA44
:1023F000002010BD891A8A4228BF0A46C0F80C1175
:1024000092B2194600F0C6FAD4E79847EDE700BF4C
:1024100070B5044651B91346D0F8F421022A15D0FC
:1024200094F80032012B0CD0002070BDD0F814328B
:102430005B69002BF8D090F8FC21032AF4D198476F
:10244000F2E7002384F80032002070BDC669026AFA
:10245000964223D88369B3FBF2F502FB15358DB99B
:102460009A420FD8D0F8F82193420BD22A4600F0B6
:1024700077FAC4F8F851204629462A462B4601F03F
:102480001BFBCDE7D4F81432DB681BB194F8FC21B8
:10249000032A0BD0204600F093FAC1E7B21A0D468A
:1024A000C261194692B200F05BFAE4E72046984711
:1024B000F0E700BF38B5402304461D4600210A4618
:1024C00001F094FA2B460022C4F8105120468021D6
:1024D00001F08CFAD4F818320122256284F8FC212C
:1024E0002BB1D4F8143220465B682179984700203C
:1024F00038BD00BF01740020704700BF90F8FC2178
:10250000042380F8FD2180F8FC310020704700BFD3
:10251000034690F8FD21002083F8FC21704700BF9E
:1025200008B590F8FC21032A01D0002008BDD0F89E
:102530001432DB69002BF8D09847002008BD00BF9B
:1025400030B54B7883B00D460446092B0BD8DFE835
:1025500003F035480A580A05650A7D158B8813B9BA
:10256000CB88002B7FD08021204601F05DFA2046E9
:10257000002101F059FA002003B030BD8978954D53
:1025800001292970EFD890F8FC31022B00F08980E6
:10259000032BE8D1002900F012814168012909D0FC
:1025A000C9B2FFF7C7FE297820466160FFF7B8FE81
:1025B0000228D8D0204600F0F7F9DCE790F8FC318B
:1025C000023B012BCFD8D0F804320022C2600BB1FD
:1025D0000223C360204604F10C01022200F0B2F98C
:1025E000C9E790F8FC31023B012BBCD84B88012B8A
:1025F000C1D10022D0F81432C0F804229B68984759
:10260000D8E74B88012BB6D1D0F81422C0F8043299
:1026100093689847204600F0C7F9ACE74A88130A48
:10262000013B072B9FD801A151F823F00127000897
:1026300025270008132700086725000867250008DC
:10264000F1260008BD26000867250008CA88012A6F
:1026500089D190F8FC31022B1CD0032B83D1011DB2
:1026600000F070F987E790F8FC318D78032B05F0C6
:102670007F053FF478AF80F8FE51294601F000FA5B
:10268000204600F091F9002D00F08D80022384F89F
:10269000FC3170E70146002341F8083F00F052F991
:1026A00069E7002986D001210323416080F8FC31CD
:1026B000FFF736FE02287FF47DAF54E7D0F81432DE
:1026C0000DF106001B6B98470146BDF80630002B44
:1026D0003FF451AFEA88002A3FF44DAF934228BF40
:1026E000134620461A46ADF8063000F02BF942E7B3
:1026F000D0F814320DF106005B6B98470146E4E711
:10270000D0F810320DF10601007C1B689847014695
:10271000DBE7D2B2052A3FF626AFDFE802F0292038
:10272000170E3B32037C002B41D1D0F814320DF14F
:1027300006009B6A98470146C7E7D0F810320DF1B2
:102740000601007C1B6998470146BEE7D0F81032AD
:102750000DF10601007CDB6898470146B5E7D0F82B
:1027600010320DF10601007C9B6898470146ACE7EA
:10277000D0F810320DF10601007C5B6898470146E5
:10278000A3E7D0F810320DF10601007C9B69984751
:1027900001469AE7D0F810320DF10601007C5B6922
:1027A0009847014691E7012384F8FC31E3E6D0F82D
:1027B00014320DF10600DB6A9847014685E70223D3
:1027C000416080F8FC31FFF7B5FD204600F0ECF8E1
:1027D000D1E600BFCD06002038B590F8FC310446A4
:1027E000032B03D10B790D46012B08D9802101F071
:1027F0001BF92046002101F017F9002038BDD0F860
:1028000014329B689847EB88002BF6D1204600F0E5
:10281000CBF8F2E770B50B788A8803F06003202BC1
:102820000C46D6B2054655D04B78012B34D019D37F
:10283000032B15D190F8FC31022B31D0032B40D162
:102840004B8823B9730602D0314601F0EDF8D5F874
:10285000143221469B6828469847284600F0A4F881
:10286000002070BD90F8FC31022B19D0032B28D129
:1028700006F07F04130600EB041431464CBF1434F9
:1028800004F5827401F0ECF848BB2060284621462C
:10289000022200F057F8E3E790F8FC31022B05D153
:1028A0007206DDD0314601F0BFF8D9E7032B08D11D
:1028B0004B88002BD4D17106CFD0314601F0C2F83D
:1028C000C5E7802101F0B0F82846002101F0ACF8FE
:1028D000002070BDD0F814329B689847C0E70123F0
:1028E0002360D3E70B7803704B784370CA788B78FA
:1028F00003EB022343804A790B7903EB02238380A5
:10290000CA798B7903EB0223C3807047A8B170B4F6
:10291000032300260E704B7005787DB102235C1CEA
:10292000E4B2CD540E5510F8015F0233DBB2002D36
:10293000F5D198B20B70108070BC7047022003462E
:10294000F8E700BF38B5134602250A468361C36124
:10295000C0F8F451002101F0A1F8002038BD00BFFB
:1029600010B50C4613460021224601F097F80020CE
:1029700010BD00BF38B5134603250A46C0F808311C
:10298000C0F80C31C0F8F451002101F095F8002096
:1029900038BD00BF10B50C4613460021224601F099
:1029A0008BF8002010BD00BF08B500210423C0F83B
:1029B000F4310A460B4601F071F8002008BD00BF53
:1029C00008B500210523C0F8F4310A460B4601F092
:1029D00073F8002008BD00BF704700BF00F008BAC0
:1029E00008B500F03FFD00F089FA00F0B3FB00F0FD
:1029F00009F8FFF7F3FF002000F0C6FD003018BF14
:102A0000012008BD2DE9F8430C4C0D4F04F10409D9
:102A10004FF0010817F8013B14F8016B08FA03F5B1
:102A200029463046002200F0BFFB3046294600F020
:102A3000E9FB4C45EED1BDE8F88300BFE0D20008C9
:102A4000DCD200080420704738B50546074A084B19
:102A5000125C012404FA02F1185C00F0CBFB054A79
:102A6000AC4013781C43147038BD00BFDCD20008A2
:102A7000E0D20008CE06002038B50546074A084BCC
:102A8000125C012404FA02F1185C00F0BBFB054A59
:102A9000AC40137823EA0404147038BDDCD200087B
:102AA000E0D20008CE06002038B50546074A084B9C
:102AB000125C012404FA02F1185C00F0ABFB054A39
:102AC000AC4013785C40147038BD00BFDCD2000805
:102AD000E0D20008CE060020034B1B7843FA00F03A
:102AE00000F00100704700BFCE060020BFF34F8FFB
:102AF0000549064BCA6802F4E0621343CB60BFF39A
:102B00004F8F00BFFDE700BF00ED00E00400FA05B5
:102B100010B5044601460C220448012301F0A0F937
:102B20002046BDE8104009F013BE00BFE8F7FF1FC4
:102B300040F60F732DE9F04F9FB01EA941F8503DAC
:102B40000024022604237A480D930C960B940E94CD
:102B5000FEF7E8FB774B78489A694FF4807542F4AA
:102B600000729A619A69DFF8E49102F400720692A9
:102B7000069A5A68DFF8DC8122F4404242F40042AF
:102B80005A60FEF77DFA08A96B4808940995FEF78C
:102B9000D3FA4FF460224FF440130FA966480F9206
:102BA0001093129611941395FEF7DAFA4FF0007312
:102BB00093FAA3FCBCFA8CF24FF440714FF0F8701A
:102BC00091FAA1F190FAA0F004910290B1FA81F18A
:102BD000B0FA80F0D340B340039005910193019B7C
:102BE000BCF1000F18BF19464FF0F87393FAA3F623
:102BF000029B08BF6146002B039B504818BF1A4632
:102C000004EB440344EA035308BF202203F0F875A1
:102C1000084425FA02F107228A40016821EA0202EB
:102C2000002E00F08280B6FA86F6049F4FF0000A6C
:102C30005745059F25FA06F518BFBB464FF0070E0E
:102C40000EFA05FE4EEA0202026058F8042B08BF95
:102C50004FF0200B02F44070394920FA0BF080004D
:102C600001441F2502F01F000A6803F01F0305FA44
:102C700000F7834022EA070701343B43042C0B6032
:102C800029F802ABABD12C4B1A46996841F00101EF
:102C90009960996841F0040199609468264D14F098
:102CA0000404FAD1234B01215A69264E42F0010255
:102CB0005A615B6924480B400793079B3368DFF830
:102CC00098A023F001033360FEF774FA1F4B4FF412
:102CD000807C4FF4806E14AA4FF020094FF08008DA
:102CE00004274FF4805B012117481593169418941C
:102CF000CDF850A0CDF85C90CDF86480CDF868C0D8
:102D0000CDF86CE01C97CDF874B0FEF7E1FA3368AB
:102D10000F4A43F001033360AB68012143F4A00381
:102D2000AB6011701FB0BDE8F08F20267DE700BFBB
:102D30000008014000100240002401400C24014022
:102D40002C2401400800024000000240D006002070
:102D5000CF060020E4D200084C24014040F60F7357
:102D600010B586B006A941F8143D032208230024BB
:102D70000D48039202930594FEF7D4FA0B4B9A6820
:102D8000184622F001029A60FEF77AF9084A0121FA
:102D90001368084823F001031360FEF70BFA064B93
:102DA0001C7006B010BD00BF0008014000240140A7
:102DB0000800024000000240CF06002008B5064B84
:102DC00033F8100009F0ACF8044909F0FDF84FF0B1
:102DD000665109F0F9F808BDD0060020333353409E
:102DE00004207047014B1878704700BFCF060020C1
:102DF00070B5244B92B0DA69002542F00202DA6124
:102E0000DB69022213400126009301A903241E4816
:102E1000009B0494029201960395FDF7EFFB1B4B78
:102E20001B4A1B681B4CA2FB032305A91B0A204657
:102E3000079306950895ADF814508DF82450FEF7C9
:102E40002FFB0AA8FEF762FB0AAA602320464FF474
:102E500080710A930B960D950E95FEF761FB236A20
:102E60000D4923F40073236262684B6822F4805298
:102E70006260226823F00303324322604B6012B089
:102E800070BD00BF00100240000C01402C04002067
:102E9000D34D6210000400401804004008B5104BE8
:102EA000B3F9002082420CD10E4B188800B20E4BB1
:102EB00000EBD072002152105962D8629862DA6336
:102EC00008BD0A4A18801368B3FBF0F009F024F833
:102ED00008F006FA09F03EFA024B80B21880E5E7E6
:102EE000D8060020DA060020000400402C04002050
:102EF000014B0022DA6370470004004010B5514CCA
:102F000082B0A369002143F00103A361A3690A46CB
:102F100003F001030093009BE3696FF00B0043F0A3
:102F20008053E361E36903F080530193019BFDF754
:102F3000EFF900210A466FF00A00FDF7E9F90021D8
:102F40000A466FF00900FDF7E3F900210A466FF029
:102F50000400FDF7DDF900210A466FF00300FDF7DC
:102F6000D7F900210A466FF00100FDF7D1F90021E1
:102F70000A464FF0FF30FDF7CBF93349334A4B682F
:102F800023F0E06343F000734B60136823F0070302
:102F900043F002031360136803F00703022B00D011
:102FA000FEE72246236843F400232360236843F4AA
:102FB000803323601168234B8903FBD519465A6877
:102FC00022F47C1242F4E8125A601A6842F08072CD
:102FD0001A600A681B4B9201FBD519465A6822F009
:102FE000F0025A605A6822F4E06242F480625A6049
:102FF0005A6822F460525A605A6822F0030242F082
:1030000002025A604B680F4C03F00C03082BF9D1F5
:103010000F48FFF727F80F4A0D48136843F00403E1
:103020001360FFF72FF863680B4A23F48003636093
:103030000023D168032082F82330FDF757F902B04E
:1030400010BD00BF001002400000014000200240FF
:1030500000A24A0410E000E000ED00E082B005228A
:1030600010F1FF300CD30192019B002BF8D0019B93
:10307000013B0193019B002BF9D110F1FF30F2D2FB
:1030800002B0704741F2707282B010F1FF300CD381
:103090000192019B002BF8D0019B013B0193019B06
:1030A000002BF9D110F1FF30F2D202B0704700BF0F
:1030B000F0B50D4687B006460120FDF7B5F9FDF7DE
:1030C00095F9A5B10024012702940597049601946F
:1030D00000F0D4F902A801A9FDF72CFA68B9B5F5FA
:1030E000806F04DDA5F5806506F58066ECE70124B8
:1030F000FDF790F9204607B0F0BD0024FDF78AF9EE
:10310000204607B0F0BD00BF70B51446054601204B
:103110000E46FDF789F9FDF769F9002C10DD043E34
:1031200002E0043C002C0BDD00F0A8F92946022047
:1031300056F8042F0023FDF7A3F904350028F0D03A
:10314000FDF768F9002CCCBF0020012070BD00BF46
:1031500005207047064B82B09A6942F07C029A6162
:103160009B6903F07C030193019B02B0704700BF91
:103170000010024010B5002A84B002D0D4BF022251
:10318000012204AB074C43F8101D194654F82000E7
:1031900003230024029201940393FDF72FFA04B055
:1031A00010BD00BF04D3000810B584B004AB72B9E1
:1031B0000F4C43F8101D194654F820000323012436
:1031C000029201940393FDF719FA04B010BD084A66
:1031D00043F8101D194652F8200003230122112440
:1031E000019402920393FDF709FA04B010BD00BFE9
:1031F00004D30008024B89B253F82030196170479C
:1032000004D30008024B89B253F82030596170474B
:1032100004D30008064B53F82000C36801EA0302F8
:1032200099431CBF89B201610AB192B242617047F1
:1032300004D30008024B53F82030986808407047C8
:1032400004D300084163704781637047C1637047CE
:10325000016470472DE9F04F0446614893B0C66998
:103260000D4646F00106C661C16912AB0F2743F84F
:10327000447D01F0010100914FF0030E1946022731
:103280000023A0F584301646CDF810E0009A02978E
:103290000393FDF7B3F9002C00F09A806400002D31
:1032A000DCBF64252B464F49C8BFABB20B804FF043
:1032B0008040036804FB05F423F001034A4A0360DD
:1032C00015684FF00009B5FBF4F5CA46B1F900E006
:1032D000002EB8BF32270EF1FF3205A905F1FF35E8
:1032E000ACBFB7B23E460792ADF814500446CDF8D5
:1032F0001890CDF820908DF82490FEF7D1F80AA808
:10330000FEF704F9394D60200121DFF8F4B0DFF851
:10331000F480CDF83490CDF838900A900B9135F8C0
:10332000029B4FF0804049460AAAFEF7F9F8B9F12E
:10333000010F49D0B9F1040F44D0B9F1100F45D0B5
:10334000B9F1400F47D0B9F5807F46D0B9F5806F0D
:103350000CBF052206221BF80230254903F18043E9
:1033600011F802E00320996900FA0EF021EA000149
:103370009961204B216A985C0223834021EA030370
:103380001D492362895C4FF4807362688B4022EA96
:1033900003034FF080496360484658F82A303146AD
:1033A0009847164B23F81A700AF1010ABAF1040F74
:1033B000B5D1D9F8003043F00103C9F8003013B09B
:1033C000BDE8F08F0122C6E70022C4E70222C2E76F
:1033D0004FF4FA6463E70322BDE70422BBE700BFB2
:1033E00000100240680400202C04002020D30008B4
:1033F00018D3000838D3000848D30008DC060020A2
:1034000040D3000828D3000800B585B004A90F23D5
:1034100041F8103D032200230748039201930293D1
:10342000FDF7ECF84FF08042136823F001031360BE
:1034300005B05DF804FB00BF0008014038B5044644
:103440000D46054B4FF0804053F824309847034B0E
:1034500023F8145038BD00BF28D30008DC06002034
:103460000420704745F2555040F6FF71024B02228E
:10347000186099605A607047003000404AF6AA22EE
:10348000014B1A60704700BF003000402DE9F04F3B
:10349000DFF8DCA0DFF8DC809AF800302F4F304EE8
:1034A000DFF8D4B083B0002B2E4BD8F8000008BF53
:1034B0001D462D4B0DF107014FF0FF3218BF5D4641
:1034C0002A4C18BF1C4600F087FF10B99AF800304C
:1034D000E9E700F00DFF9DF80720012300EB030949
:1034E0002A702360D8F800000DF10701012200F0D6
:1034F00073FF28B123689DF807105A1CE954226015
:1035000000F0F6FE814502D323683E2BEADDDFF8AA
:103510004C9073684FF0FF31A3B1386800F08AFF18
:10352000C0B12846218800F081F958B1D9F80000CF
:1035300000F06CFF012000F0EBFE73684FF0FF31EC
:10354000002BEAD19AF90030B3FA83F35B098AF8C9
:103550000030A8E7012000F0DBFEDAE7302300208E
:10356000B8200020DC220020282300202023002077
:10357000242300201C23002078200020014B186801
:1035800000F04EBF3023002070B5802182B00122B0
:10359000214B224800F0F8FE214C224B3F212060B5
:1035A0000122214800F0F0FE204D214A2860012030
:1035B000014600F029FF1F4A2368106033B32B68CF
:1035C00023B308B31C4A1D4D002403231C4E019253
:1035D000009322461B481C494FF4AF732C603460A3
:1035E00000F0BAFEA8B1002218491948FEF774FE8F
:1035F00018491748FEF786FE17491548FEF72CFEB6
:103600001348FEF787FE012002B070BD184602B0D5
:1036100070BD01F0D9FCE6E750D3000868D300087C
:103620002C23002058D3000870D300081C2300204E
:10363000F80900203023002060D300082023002058
:103640002823002078D300088D3400087C04002053
:10365000B8200020300400206C04002001207047B6
:1036600008B5054B186800F0A3FE0449044A00237E
:103670000B60136008BD00BF2C230020282300200E
:103680002023002010B5074B044601464FF0FF32BF
:10369000186800F0A1FE002814BF20464FF0FF304C
:1036A00010BD00BF2C23002010B5064B04460A466F
:1036B0000146186800F090FE002814BF20464FF025
:1036C000FF3010BD2C2300202DE9F047B1F1000A96
:1036D00024DD144D0446144FA84600EB0A064FF0B3
:1036E000010908E000F068FE002308B188F8003006
:1036F0000134B4420FD02B78002238682146002BC9
:10370000F0D1FA2200F058FE0028F1D10134B44281
:1037100088F80090EFD15046BDE8F0874FF0000ADE
:10372000F9E700BFC80700201C23002000B583B0C4
:1037300002AB03F8010D18460121FFF7C5FF03B0E6
:103740005DF804FB0020704770B50D685DB104465C
:10375000094E01E0013D06D02146306800F04AFEE6
:1037600001340028F6D105490548FEF785FD0448D7
:10377000FEF79CFD002070BD2C2300203423002088
:10378000B820002038B50C4C00220C492046FEF72A
:103790006BFD20460A49FEF76FFD0A4D0A4B0B4CA4
:1037A00000204FF4165108222860206018715871CB
:1037B00019609A7138BD00BFB8200020DC220020BB
:1037C0003423002028230020B423002020230020BD
:1037D000202813D021280FD1134B1A680A701A68B9
:1037E000120A4A705A888A70DA78CA701A790A718D
:1037F0005A794A719B798B710020704730B48B786D
:1038000048780A781B04CD7843EA00230C7948797C
:1038100013438979044A43EA0563507113601471B4
:103820009171002030BC7047B423002010B5094CC2
:10383000D4F81832D3F814320BB1012010BD0A4667
:1038400001462046FEF710FD2046BDE81040FEF779
:1038500019BD00BFB82000200268144B9A4200D066
:10386000704700B5002083B002464FF4C051FFF707
:103870009BFC4FF4C0510020FFF7C4FC0C20FFF765
:1038800001FC0B4B0A21DA69142042F40002DA61D0
:10389000DB69002203F400030193019BFCF738FD70
:1038A0001420FCF76BFD03B05DF804FB005C0040E6
:1038B000001002400146D0F85C0401F22C41FEF7F2
:1038C00041BD00BF00EB4113D3F83C22D0F85C04AB
:1038D000FEF768BD00EB4113DA6BD0F85C04FEF72D
:1038E00097BD00BFD0F85C04FEF71ABE10B50446C1
:1038F0000121D0F85C04FEF7FDFDD4F85C04BDE8BE
:103900001040FEF7D7BD00BFD0F85C04FEF7F6BD4F
:10391000D0F85C04FEF7FCBDF8B52B4B2B4FC3F879
:103920005C040021012204460426C0F8203202254E
:1039300018461F605E609D60D96019629A61DA6105
:10394000FCF74EFF08B101F03FFB00210A46D4F816
:1039500020024023FDF77AFB80210B46D4F8200299
:103960000022FDF773FBD4F8200201210022C023BE
:10397000FDF76CFBD4F82002812100224FF4807304
:10398000FDF764FBD4F82002022100224FF4A0735B
:10399000FDF75CFBD4F82002822100224FF4C073B3
:1039A000FDF754FBD4F82002032100224FF4E0730A
:1039B000FDF74CFBD4F82002832100224FF4007362
:1039C000FDF744FB0020F8BDBC230020005C004054
:1039D00008B5D0F82002FCF771FF03289ABF024B0C
:1039E000185C022008BD00BF88D3000810B514463B
:1039F000D0F820021A462346FCF78CFF03289ABF12
:103A0000014B185C022010BD8CD3000808B5D0F81B
:103A10002002FCF7A5FF03289ABF024B185C022086
:103A200008BD00BF94D3000808B5D0F82002FDF708
:103A3000BBFA03289ABF024B185C022008BD00BFE6
:103A400090D3000808B5D0F82002FDF7D9FA032872
:103A50009ABF024B185C022008BD00BF98D3000833
:103A60000A06D0F8203204D403EB411393F82A025B
:103A7000704701F07F0103EB411393F82A00704770
:103A800008B5D0F82002FCF731FF03289ABF024B9B
:103A9000185C022008BD00BF9CD3000808B5D0F810
:103AA0002002FCF7A1FF03289ABF024B185C0220FA
:103AB00008BD00BF80D3000808B5D0F82002FCF78D
:103AC00073FF03289ABF024B185C022008BD00BF99
:103AD00084D3000808B5D0F82002FCF77DFF08BDAC
:103AE000704700BF0148FCF795BF00BFBC23002012
:103AF000704700BF12230B8000487047A0D3000816
:103B000004230B80004870479804002010B5044C33
:103B10000A4604482146FEF7F9FE204610BD00BFC4
:103B20001C280020B4D3000810B5044C0A460448F1
:103B30002146FEF7EBFE204610BD00BF1C280020EA
:103B4000C0D3000810B5044C0A4604482146FEF7CD
:103B5000DDFE204610BD00BF1C280020E0D3000879
:103B600010B5044C0A4604482146FEF7CFFE204615
:103B700010BD00BF1C280020ECD3000830B50D4656
:103B800089B0064C6846FEF7C3FF68462A462146C0
:103B9000FEF7BCFE204609B030BD00BF1C28002047
:103BA0000023037043704360704700BFF0B51D7879
:103BB0000144012D5C7848D045D3022D41D1884283
:103BC000154639D007782A4E44EA97143F2C98BFFF
:103BD00016F804E007F03F04365D88BF4FF03D0E55
:103BE00085F800E06E705E6801300136132E5E606D
:103BF0002DD00235884236D004781D4EA708F65DD8
:103C000004F00304013024012E7005F1010E8842F6
:103C100023D00778013044EA17143F2C96BF144E86
:103C20003D26365D07F00F0488420EF101054FEA8C
:103C300084048EF80060C5D102215C70A81A197046
:103C4000F0BD0020F0BD1546D4E79646DFE70A2711
:103C50000026AF7003355E60CCE701215C70C2EBDB
:103C60000E001970F0BD00215C70A81A1970F0BD2B
:103C7000FCD300080B78012B17D0022B05D003468C
:103C80000A2203F8012B181A70474B783F2B96BF76
:103C90000E4A3D21D15C03463D2203F8021B4270CF
:103CA0000A2203F8012B181A70474B783F2B96BF56
:103CB000064A3D22D25C3D230270437083700A2283
:103CC000C31C03F8012B181A704700BFFCD300086F
:103CD00030B583B00D46002201A9044608F05CFE11
:103CE000019B73B19C4201D10BE0019313F8012BAE
:103CF000202AFAD0092AF8D01AB92860012003B086
:103D000030BD002003B030BDF0B5234F83B0A7FB1A
:103D1000013405462409CAB92049214AA1FB04639C
:103D20005B09A1FB0361A2FB04624909C3EB031613
:103D3000C1EB0111A4EB8604A3EB81030094D20A2A
:103D4000184901F01DF9284603B0F0BDFA2303FB22
:103D50001411124EA6FB04234FF47A7202FB01F1F8
:103D60005B09A6FB03260E4AA7FB0171A2FB0472A6
:103D70007609C3EB0317C6EB0616A4EB8704090903
:103D80000191A3EB86030094D20A074901F0F8F8E9
:103D9000284603B0F0BD00BFD34D621089888888E3
:103DA000C5B3A2915CD4000848D4000838B50C46CD
:103DB000054600F09DFA224601462846BDE83840F7
:103DC000FFF7A2BF08B103780BB900207047FFF7D7
:103DD0007FBF00BF28B3F0B5067883B016B90020C6
:103DE00003B0F0BD14460D46002201A9074608F0B5
:103DF000D3FD019B0646002BF1D09F4201D1EEE797
:103E0000019313F8010B2028FAD00928F8D02A28AA
:103E100009D00028E3D1034601202E60236003B0BF
:103E2000F0BD00207047184601A900221F460193EB
:103E300008F0B2FD019B002BD1D09F4201D1CEE70B
:103E4000019313F8012B202AFAD0092AF8D0002A6E
:103E5000C5D1012871F10003DDDB431EDCE700BFA3
:103E600070B4F2B18D1C8618047802352409092C2F
:103E700094BF3034373405F8044C10F8014B04F08B
:103E80000F04092C94BF30343734B04205F8034C8A
:103E9000EAD101EB42020BB100231370084670BC5B
:103EA00070470A46F7E700BF00B583B001A901F0EB
:103EB000ABF903B05DF804FBF8B504460F461646AF
:103EC0001D4600211822FCF763F927606660A56093
:103ED000F8BD00BF2DE9F84F0346002203F8012B7F
:103EE0000133427003F8012B03F8012B03F8012B77
:103EF00003F8012B03F8012B1A70CE688B689E42E1
:103F00005DDAD1F804800C4658F8267005466549FC
:103F10000222384608F04AFCF0B9237D002B57D026
:103F2000226813786BB1002102E012F8103F43B110
:103F3000042BFAD123698B4201F10101F5D113461B
:103F400021612B60E3686268591CE16052F82330FC
:103F500001206B60BDE8F88F3B782D2BE0D1237DED
:103F6000002BDDD1731CE36058F826707A784AB3D1
:103F7000266833781BB925E016F8103F13B3013BD0
:103F8000012BF9D8B3789342F6D12E603378022B07
:103F90001BD1384608F0DCFB022864D9BB1C6B60DF
:103FA000BB783D2B11D1FB1C6B60FB786BB9737830
:103FB0009B0772D500236B600120BDE8F88F104687
:103FC000BDE8F88F002385E888000120BDE8F88F60
:103FD000731CE36058F826703D21384608F030FC29
:103FE00007F102098046002838D0C9EB000A26688C
:103FF000337833B9E6E7012A1ED916F8103F002BB3
:10400000E0D0032B03F1FF32F5D1BAF1000FF4D168
:104010002E603378032B02D1012323753378022BD2
:10402000D3D1B8F1000F1ED008F101036B6098F8EE
:104030000130002BBBD0C8E7D6F804B0BBF1000FAD
:10404000DBD0584608F084FB8245D6D15946484615
:10405000524608F0ABFB0028CFD1D9E7484608F01C
:1040600077FB8246C3E77378A26813F0020FE36818
:104070000AD093429EDA591C6268E16052F82330FC
:1040800001206B60BDE8F88F934206DA626852F84F
:10409000231009782D297FF457AF034B01206B6063
:1040A000BDE8F88F70D4000866EA000870B50246D3
:1040B0000E465948594904F095FB002825DB337812
:1040C00006F1100423B94FE014F8103B002B4BD03D
:1040D00014F80F5C6807F7D4514804F083FB0028FC
:1040E00013DB14F8103C022B12D0042B05F0010551
:1040F00018D0052B24D0032B73D014F80E1CC9B193
:10410000484804F06FFB0028DEDA4FF0FF3070BD46
:10411000A9071DD454F80C1C54F8082C424804F08C
:1041200061FBF0E7002D60D154F80C1C3F4804F00F
:1041300059FBE8E754F80C1C3D4804F053FBE2E758
:10414000002D58D154F80C1C3A4804F04BFBDAE728
:1041500014F80E1C002954D154F80C1C54F8082CE7
:10416000354804F03FFBCEE73448354904F03AFBCC
:1041700033780546344683B924E06268002A46D085
:10418000304804F02FFB0546002DBEDBE068D8B1B7
:1041900004F00AFB14F8103FA3B162785207F9D477
:1041A000032BF7D0E0680028F4D0043B012B0FD993
:1041B000A1780029E1D1616881B1234804F012FBA4
:1041C0000546E1E7E81770BD204804F0DBFAE1E7B7
:1041D0001F48616804F006FB0546D5E7002DD7DAD5
:1041E00093E71C4804F0FEFA8DE754F80C1C1A48BB
:1041F00004F0F8FA87E754F80C1C184804F0F2FAB7
:1042000081E754F8082C164804F0ECFA7BE71548CF
:1042100004F0E8FA0546B7E774D40008EFEA0008AE
:10422000E4E60008D0D400089CD40008B4D4000808
:10423000D8D40008C4D4000890D400087CD4000866
:1042400007EB0008E8D40008F8D40008F8E10008FB
:10425000E0D4000870D40008ACD40008BCD4000836
:1042600084D4000804D50008F8B54B680D4607460D
:1042700016465BB118460D4908F02EF9044628B9D8
:1042800038463146FFF712FF2046F8BD0849094A73
:10429000094804F0A7FA686804F086FA38463146FF
:1042A000FFF704FF4FF0FF34EEE700BF18D500081A
:1042B000C6EA00085DEA000820D5000838B50446C3
:1042C00008F046FA0546204604F05CFA3A2004F06D
:1042D00033FA092D05F1010405DC0134202004F036
:1042E0002BFA0B2CF9D138BD704700BF05F0D4BFB5
:1042F00006F018B806F0AEBD06F0CEBD4FF0500384
:1043000083F31188BFF36F8FBFF34F8F704700BFE8
:1043100006F0B4B9FA2303FB00F0034BA3FB003013
:10432000800906F0ABB900BFD34D6210F0B5074667
:10433000164685B00A9D03ACC3F38F020846334688
:1043400039460095019405F037FE01280CBF03980B
:10435000002005B0F0BD00BFF0B58646174685B019
:104360000B9A0A9C92E8600008469A0871463B4600
:1043700001960295009405F0E5FD05B0F0BD00BF83
:1043800005F04ABE05F00ABF70B5002682B028CB02
:1043900004460096084611462A4605F045F80546AB
:1043A00018B114B1214605F0B9FB284602B070BD22
:1043B000002104F0E5BF00BF08B532EA220228BFA1
:1043C0004FF0FF32002305F08FF8A0F10100B0FAA2
:1043D00080F0400908BD00BF08B532EA220228BFBC
:1043E0004FF0FF3205F01AFAA0F10100B0FA80F0A8
:1043F000400908BD002208B5134605F03BF900301E
:1044000018BF012008BD00BF05F054B8002108B551
:104410000A460B4605F068F8003018BF012008BDB9
:1044200008B5002105F096F9A0F10100B0FA80F07E
:10443000400908BD31EA210128BF4FF0FF3108B51E
:1044400005F09CFA003018BF012008BD06F040BE00
:1044500006F0E4BE30B4044D044C402305600C600B
:10446000136030BC704700BF480A00209C0A00203F
:10447000704700BF704700BF00F0A6BD2DE9F043B4
:10448000ADF2544D06A81E21002206F0D3FA071EF5
:1044900026DDDFF8588009AC4FF00009227854F887
:1044A0000C6C042A6568A1684FF03F0398BF18F8A8
:1044B000023022690096019502910392A58A36681E
:1044C000AD0054F8041C54F8082C074809F1010900
:1044D0000496059504F086F94F4504F12404DDD1D6
:1044E0000DF2544DBDE8F08328D50008ACD5000886
:1044F000F0B500238FB01C46079301E0082C1FD0B5
:10450000204606A907AA05F039FB01340028F5D09A
:10451000069808A905F04CFB0028EFD00898099DE3
:104520000D9F2E1A02900B9807990190069A0C9BEA
:10453000039504960097034804F054F9082CDFD142
:104540000FB0F0BD50D5000810B50D48FFF7B6FE0E
:104550000C4A0D490D4804F045F90D48FFF7AEFE31
:104560000C4C0D4B2046196804F03CF90B48FFF742
:10457000A5FE2046BDE81040FA2104F033B900BF83
:1045800074D500088CD5000880D5000878D50008BF
:1045900094D5000890E600082C040020A0D500085F
:1045A000F0B5002A059D069F67DD91F800C0BCF1BB
:1045B000000F2CD00E46002416F801EF0134BEF196
:1045C000000FF9D1A24223DC724613F0020F0CBF98
:1045D0004FF0200E4FF0300E13F001031AD1002AD5
:1045E00052DD3C680CE0046884F800E004680134A3
:1045F00004603C6801343C60013A03F1010349D096
:10460000A542F9D90028EED16FF00100F0BD644653
:10461000121BDAE76646BCF1000F15D000233C6898
:104620000BE0046826700468013404603C680134BF
:104630003C6011F8016F01333EB1A542F9D9002861
:10464000EFD16FF00100F0BD6346002A1FDD3C682A
:104650001A440BE0016881F800E001680131016053
:104660003C6801343C600133934211D0A542FAD931
:104670000028EFD16FF00100F0BD13F001030FD15E
:1046800091F800C04FF0200E6646002EC7D11A46A2
:104690001046F0BD91F800C06646002EBFD1F6E787
:1046A0000E784FF0200E002EB8D13246F0E700BF52
:1046B000F0B587B00F460F9E109D002945D00C46DF
:1046C000864673BB00238DF817300DF11701002FBC
:1046D00033D01F460E9B0DF11701A3F13A00B4FB36
:1046E000F2F302FB1344092CC8BF2418303401F83C
:1046F000014D1C46002BF2D1FFB10C9B002B34D195
:104700002D2301F8013C00240139009601957046E3
:104710000C9A0D9BFFF744FF002800DB204407B0F4
:10472000F0BD0A2ACED10029CCDA00234C428DF804
:104730001730002C36D00127CCE7119B9BB12B23DF
:1047400001F8013C00240139DFE70096019530248F
:1047500003A90C9A0D9B8DF80D708DF80C40FFF796
:104760001FFF07B0F0BD119CCFE70D9B9B07C7D57E
:104770002B689E420ED9BEF1000F10D0DEF800303B
:104780002D221A70DEF800300133CEF800302B688D
:1047900001332B600C9B0124013B0C93B5E76FF0B8
:1047A0000100BCE70DF11701A7E700BF2DE9F04FAD
:1047B000B3B002F1FF3B1D783C9A002407460B91F1
:1047C00012940792002D00F0B983A146DA46804684
:1047D0001A461AE01578129B9A450ED9B8F1000FC7
:1047E00000F08F80D8F800301D70D8F80010129BB0
:1047F00001310133C8F800101293144609F1010980
:104800006578621C002D00F0D380252DE2D153780D
:10481000541C002B00F0CC80252B77D02D2B03BF10
:104820009378941C012600262B2B71D0002209922C
:1048300003E014F8013F46F00206302BF9D02E2B8E
:1048400033D0A3F13002D2B2092A2ED9062208921F
:1048500000276C2B04BF63780134682B5DD0583B74
:10486000202B46D8DFE813F0420345004500450001
:104870004500450045004500450045004500B7019D
:10488000F5018C01C800C800450045004500450001
:104890004500450045004500D20145004500B100F6
:1048A00045002E02450045000E0206210D46314608
:1048B0000027621C3E468B4603E000EB4C0512F8D5
:1048C000013BA3F130012E2BC8B202F1FF340AD014
:1048D000092805EB850C07EB870E07D8002EECD1D5
:1048E00001EB4E07EBE700250126E8E708955E4659
:1048F000AFE7129B9A4540F21682B8F1000F40F0E4
:10490000FA816FF0010033B0BDE8F08F224662E714
:1049100001226378099214448FE763780134583B8D
:10492000202BE6D801A252F823F000BFF94E000870
:10493000F3480008F3480008F3480008F34800086B
:10494000F3480008F3480008F3480008F34800085B
:10495000F3480008F3480008D74B0008634D0008EF
:10496000814B0008F9490008F9490008F34800089C
:10497000F3480008F3480008F3480008F34800082B
:10498000F3480008F3480008F3480008534D0008B6
:10499000F3480008F3480008CB490008F348000832
:1049A000714D0008F3480008F3480008574D00080F
:1049B00047460B9B13F0010303D1002FA1D03A68A7
:1049C0001370484633B0BDE8F08F079BBA4D1968A5
:1049D00012A8002908BF294601903A463346CDF86F
:1049E00000A04046079DFFF7DBFD002805F1040508
:1049F00089DB8144079503E7079B002203F1070E3B
:104A00002EF0070EDEF800300C931846DEF8043066
:104A10001D460A93294600230EF10805079507F065
:104A20002DF9002840F04482099B002B40F0898139
:104A30001DAB9B460D93089B072B0ED89F4B089DE3
:104A40000C9803EBC5030A99D3E9002306F0F2FCA6
:104A50000C900A91002D00F05582089D0023012042
:104A6000013300EB8000AB424FEA4000F8D10895DB
:104A700006F01CFECDE90E010C980A9907F026F904
:104A80000990002800F08481099BDFF834C2089D5A
:104A90000DF14B0E0020ACFB0312D20802EB820199
:104AA000A3EB410330330EF8013F01301346002AD7
:104AB000F1D10DF14C0E0EEB00030BF1FF3213F8A8
:104AC000011D734502F8011FF9D108958344089B25
:104AD000002B43D0099806F0E9FD02460B460C98DE
:104AE0000A9906F0A5FCDDE90E2306F055FE07F055
:104AF000EDF82E238BF80030002800F02182DFF83B
:104B0000C0C1089D0DF14B0E0021ACFB0023DB085A
:104B100003EB8302A0EB4202303201310EF8012F89
:104B20001846002BF1D18D42089598BF0DF14C0E1F
:104B300040F2CA810DF14C0E4B1E089D7344302289
:104B400001318D4203F8012F4FF03000F8D80029D1
:104B500040F0BA818BF801000BF1020B12A800257E
:104B60000190CDF800A00D993A46334640468BF8A7
:104B70000050FFF715FD0028FFF6C5AE81443FE663
:104B8000079B073323F00703D3E90001083307939A
:104B900007F0BCF8054606F089FB002840F0FE80CF
:104BA0006E2361228DF874308DF876308DF8752083
:104BB0000DF17701002012AD08703A4633464046A9
:104BC000CDF800A001951DA9FFF7EAFC0028FFF62B
:104BD0009AAE814414E6079B12A9D3F800E03A4646
:104BE00033460191CDF800A00025404611A9079E4B
:104BF0008DF844E08DF84550FFF7D2FC002806F10F
:104C00000406FFF680AE81440796F9E50020D8F847
:104C1000003030221A70D8F800307822591CC8F8B9
:104C200000105A70D8F8003009F102090133C8F8B1
:104C30000030002F7AD1002800F0A080079A0427C6
:104C4000134611683B4446F00206079389B241229D
:104C50001EE0079A134611680433079309986122EE
:104C600012AB05900292049300970196CDF80CA028
:104C700040460A220123FFF71BFD0028FFF643AE42
:104C80008144BDE5079A13461168043307936122F6
:104C9000099812AB05900292049300970196CDF803
:104CA0000CA0404610220023FFF702FD0028FFF66B
:104CB0002AAE8144A4E500BFB4D50008C0D50008E1
:104CC000CDCCCCCC079A13461168043307930998CE
:104CD000612212AB05900292049300970196CDF8E1
:104CE0000CA040460A220023FFF7E2FC0028FFF652
:104CF0000AAE814484E5D8F8003025221A70D8F82D
:104D00000020129B511C0133C8F800109A452178ED
:104D1000129308D95170D8F80020129B0132013348
:104D2000C8F80020129309F1020969E5079A46F0D4
:104D300002061346043311680793002887D089B20E
:104D400085E72B238DF874301DAB0DF1750B0D939A
:104D500071E601205BE7079A134604331188079335
:104D600095E7079A13460433B2F90010079375E7E5
:104D7000079A1346043311880793A8E7079A46F069
:104D800002061346043311680827079341227FE780
:104D900030238BF800300BF1010B98E6284606F023
:104DA00085FA0128284640F2B28006F07DFA0028F4
:104DB00000F096802D2305F100458DF874302846CB
:104DC0004FF07E5107F09EFA002840F0B480684B07
:104DD000099300239B460894099C6649284607F0DE
:104DE000A5FA4FF07E5118B9284607F08BFA40B16A
:104DF0003DB12846214607F0E7F80BF1010B0546C7
:104E0000EBE701231A46089C0DF17503CDF820B09D
:104E10000A940D964FF07E5B0C9714461E4601E0F7
:104E20003E4601345946284607F082F907F0B8FAA1
:104E3000C0B200F13002012C327006F1010700F01F
:104E4000818007F06DF80146584607F0BDF801462D
:104E5000284606F0AFFF46490546584607F0B4F825
:104E6000072C8346DCD13A466523099813704FF02E
:104E70008041099207F064FA0A9C0C9F0D9E099AE2
:104E800090B3089B002B0CBF2B202D20089D3A4986
:104E9000EB1781FB05E1C3EBA10101EB8103A5EB5E
:104EA00043033031303391705070D370111D81E65F
:104EB0000A9A2D2302F100428DF874301DAB0A923C
:104EC0000DF1750B0D93B6E55A460EEB010313F881
:104ED000010D734502F8010FF9D101318B443DE614
:104EE00020238DF874306AE72B20CFE7079A13460A
:104EF000043311680793AAE6079A1346043311682E
:104F00000793A3E61D4B0022CDE90E23B4E506F07E
:104F1000CBF900284FF0690114BF20202D206E220C
:104F200066238DF875108DF874008DF876208DF855
:104F300077301EA93EE60F4B09934AE7A94638E5AC
:104F40000146F7E54FF02E03737006F0E9FF0146C6
:104F5000584607F039F80146284606F02BFF044969
:104F60000546584607F030F8B71C834658E700BF9F
:104F7000CDCCCC3D00002041676666660000F03F66
:104F80000EB410B587B009AC54F8043B03900094FC
:104F900003A800214FF0FF320594FFF707FC07B08C
:104FA000BDE8104003B0704710B584B004AC44F8BD
:104FB000040D0B460092204600214FF0FF32FFF710
:104FC000F5FB04B010BD00BF38B5FDF73BFD05464D
:104FD000FFF794F9002D06DD002420460134FDF78B
:104FE0004BFDAC42F9D1002D06DD002420460134F2
:104FF000FDF75AFDAC42F9D14FF4FA70FEF742F8D2
:10500000F1E700BF014B1868704700BF9C0B002000
:10501000024B1A6818601046704700BF9C0B0020B6
:10502000704700BF30B5154D83B02C680CB103B08C
:1050300030BDFFF759F9FFF7F3FFFDF7D1FCD0B111
:105040000F48214603F0BAFCA8B10E490E4800F003
:1050500035F80E490E4800F031F80E49032301914E
:10506000009322460C480D494FF48053FFF774F922
:1050700028600028DBD1FFF7A7FF00BF1C3A002003
:105080001CDC000890D6000854E2000850D6000846
:1050900038D6000844D600083CD60008C58E000863
:1050A00008B5054B1B681BB1FFF720F9FFF78CFF14
:1050B000FFF7B8FFF8E700BF1C3A0020F8B5054637
:1050C0000F460378144E2F2B08BF0135002456F8E5
:1050D0003400013418B1294607F0FEF9B8B1032CA9
:1050E000F5D132680C4BA2B19A6822B11B69022437
:1050F00013B10020F8BD01247B6898470028F8D040
:1051000006EBC40346F834505F600120F8BD01206F
:10511000F8BD1446F0E700BF243A002003782F2B97
:1051200001D0002070474378EBB110B4104C2268D6
:105130001A445278520710D02F2B0ED0013006E0BF
:1051400022681A445278520707D02F2B05D001F855
:10515000013B10F8013F002BF2D1002301200B701E
:105160005DF8044B704700230B700120704700BFAF
:10517000A804002003782F2B01D00020704743782B
:10518000002BFAD010B4114A01301468E21805E07F
:105190002F2B0CD010F8013FE21823B152785207A0
:1051A000F6D12F2B03D000205DF8044B704701305F
:1051B00003782BB101F8013B10F8013F002BF9D126
:1051C000002301200B705DF8044B7047A8040020F9
:1051D00070B584B06946FFF7A1FF70B1094E002495
:1051E00056F8340006EBC405013418B1694607F0DF
:1051F00073F920B1032CF3D1002004B070BD284610
:10520000FBE700BF243A002070B588B005460E4683
:10521000FFF7DEFF694604462846FFF7ABFF28B1DB
:1052200034B1636868469B6B3146984708B070BDDF
:10523000204608B070BD00BF2DE9F04188B004469B
:105240000E46FFF7C5FF694605462046FFF792FF69
:1052500090B1A5B1FFF74EF81A4900240B465A68E1
:105260000C3382B10134052CF9D1FFF745F86B6896
:1052700007221B6800201A6008B0BDE8F0812846AC
:1052800008B0BDE8F08104EB44086B684FEA880879
:1052900001EB08077B60FFF72FF86B6868461B6A15
:1052A00031469847074A034638B96A6806211268AA
:1052B00011607B6008B0BDE8F08142F8080004F19D
:1052C0000A00D9E73C3A00200A38042827D8002AE7
:1052D00023DDF8B54600154B351803EB85052C7A10
:1052E00074B93044800003445B68104DD3B15B6AED
:1052F0002858984700280ADB0CB10130F8BDF8BDEA
:1053000000270C70013A01312F720124E9E7002CCB
:1053100014BF01204FF0FF30F8BD002070474FF060
:10532000FF3070474FF0FF30F8BD00BF3C3A00201F
:105330000A38042815D8F8B500EB40000B4D84005E
:105340002E1973687BB15A6B28591F6890473860D3
:10535000FEF7D0FF002373602B51FEF7CDFF012035
:10536000F8BD002070471846F8BD00BF3C3A002049
:1053700070B58CB00E460546FFF72AFF044620B1F3
:1053800028466946FFF7CAFE10B900200CB070BD70
:1053900028460DF11101FFF7EDFE30B1636831468B
:1053A000DB6B04A898470CB070BD2F23ADF810300C
:1053B000F4E700BF01207047024600230B60184647
:1053C000136070470020704700207047002070472E
:1053D000002070474FF0FF30704700BF70B40138B5
:1053E00046000E4C33189B00E55823449DB1002A1B
:1053F0000DDD9B68194400290DDB6B8899420ADC9E
:10540000304404EB80040846A16070BC70471CBFA8
:105410006B88591AEFE74FF0FF30F6E7F81B0020D2
:10542000002070470138044B00EB40008000002250
:105430001A500120704700BFF81B00200D490022C0
:105440000B4643F8042B04334A6043F8042B43F81B
:10545000042B43F8042B43F8042B43F8042B43F8A4
:10546000042B05491A600868044BC01AB0FA80F092
:1054700040097047F81B002000FC000846434653D3
:10548000F8B54FF6FD750F4C2288531E9BB2AB4208
:1054900015D80F46064605E034F8042F531E9BB27C
:1054A000AB420CD802F1006000F57C40314607F0B9
:1054B00013F80028F0D1638801203B60F8BD00207C
:1054C000F8BD00BF10FC00082DE9F043002407469A
:1054D00025464FF6FD76DFF88490DFF8848083B0B0
:1054E00058F8043043B10C34242C05F10105F7D1F0
:1054F000002003B0BDE8F083B9F80000431E9BB262
:10550000B34206D9EFE739F8040F431E9BB2B3420A
:10551000E9D800F1006000F57C40394606F0DCFF78
:105520000028F0D105EB4502920048F80290B9F846
:105530000040019004F1006404F57C44204690444E
:1055400007F006F920440130019BC8F80400681CEC
:10555000C8F8083003B0BDE8F08300BF10FC0008B5
:10556000F81B002038B501380F4C00EB40008300D9
:10557000E5581C44ADB16D88A368ED1A25EAE575C0
:105580009542A8BF15460DB9284638BD0846616842
:105590002A46194406F02AFFA26828461544A56049
:1055A00038BD4FF0FF3038BDF81B002070B50E46F7
:1055B0000E4906F091FFB0B94FF6FD750C4C2088EE
:1055C000431E9BB2AB420CD800F1006000F57C405A
:1055D00061880022B04734F8040F431E9BB2AB42EF
:1055E000F2D9012070BD002070BD00BF4CD600086C
:1055F00010FC00082DE9F8434FF6FD78134D2C8878
:10560000631E9BB243451ED816460F46814605E0F1
:1056100035F8044F631E9BB2434514D804F100646F
:1056200004F57C442046494606F056FF0028EFD199
:10563000204607F08DF82044013038606B88012047
:105640003360BDE8F8830020BDE8F88310FC000853
:1056500001207047024600230B6018461360704714
:1056600000207047002070470020704700207047DE
:105670004FF0FF30704700BF10B40F4B013853F8A4
:105680003040ACB1002A0FDD03EBC0025268114478
:1056900000290DDBA26891420ADC03EBC003084637
:1056A00059605DF8044B70471CBFA268511AEFE7C0
:1056B0004FF0FF30F5E700BF201C002000207047AE
:1056C000034B0138002243F830200120704700BF0F
:1056D000201C0020074900220B4643F8042B04330A
:1056E0004A6043F8042B43F8042B43F8042B1A6058
:1056F00001207047201C00202DE9F0410646114D85
:10570000114F002457F834304FEAC4082BB101344C
:10571000032CF7D10020BDE8F081286820B9F6E716
:1057200055F80C0F0028F2D0314606F0D5FE0028BF
:10573000F6D1B844C8F8040047F83450601CBDE8FE
:10574000F08100BFE0D60008201C002070B505469F
:105750000E46084C084802E054F80C0F40B12946A8
:1057600006F0BAFE0028F7D1A3680120336070BDAF
:1057700070BD00BFE0D60008D0D60008F8B5104BC9
:10578000013853F83050BDB103EBC0067768AB6801
:10579000DB1B23EAE3739A42A8BF1A4614460AB9F0
:1057A0001046F8BD08466968394406F01FFE726865
:1057B000204614447460F8BD4FF0FF30F8BD00BFC0
:1057C000201C002038B50D46084906F085FE50B96A
:1057D000074C0848A1680022A84754F80C0F00287D
:1057E000F8D1012038BD002038BD00BF4CD60008DC
:1057F000E0D60008D0D60008F8B505460F46164694
:10580000084C094802E054F80C0F50B1294606F044
:1058100063FE0028F7D1636801203B60A368336012
:10582000F8BDF8BDE0D60008D0D600082DE9F0415B
:1058300088B0431E0A1D0026884602A82749FEF7A5
:105840003BFB3746354602A96846FEF743FB244931
:105850000446B8B1009B2BB35C68204606F03CFEC2
:10586000204930B1204606F037FE1F4918B9019F84
:10587000E9E70125E7E7204606F02EFE0028E2D101
:10588000019EE0E7CFB1384602F0F8FF174A184B07
:10589000002814BF1046184602F086FF204608B0C4
:1058A000BDE8F081D8F8000069460C4AFEF7DCFC40
:1058B0000446204608B0BDE8F08156B1304602F0FB
:1058C000F7FF0028EAD002F037FF0A2002F034FF89
:1058D000E4E7294603F006F80446DFE710DE000897
:1058E000D4D70008D8D70008E0D70008CFE90008CF
:1058F00026EB00082DE9F04F8FB00A1D431E4FF430
:105900007A7581460E4608A84FF0FF3450490027AB
:1059100004950594B846FEF7CFFA4E4DDFF848A13E
:1059200006A808A9FEF7D6FA002867D0069B002B28
:105930007DD05C68AC4267D054456CD02046464967
:1059400006F0CAFD002852D0444B9C42E8D10B9B84
:1059500056F8230002F092FF0B9B8346C3EB09022B
:1059600006EB83030092019300286DD03C4B9842D4
:1059700044D03C4E4FF0000A9DE80300D8478146D2
:10598000002861D1B8F1000F04D0059B0AF1010A8B
:105990009A4535DA002F54D1049BFA24032B9CBF7F
:1059A00004230493FEF7A4FC0546FEF7A1FC049B28
:1059B000022104FB03F3A6FB032305EB9313984298
:1059C000DAD20DF10F00FDF76FFE0130EDD09DF83A
:1059D0000F30032BE9D103F01DF888B100200146F8
:1059E000024602F0FFFF48460FB0BDE8F08F06A860
:1059F00008A90127FEF76EFA002897D14FF0FF396A
:105A000048460FB0BDE8F08F079804A9FEF7DAF911
:105A1000002885D1F2E7079805A9FEF7D3F90028F9
:105A2000ECD0059B002BE9DD4FF0010878E73068EA
:105A300006A9074AFEF718FC814648460FB0BDE8A4
:105A4000F08F02F0ABFEA7E74FF00109D8E700BFE7
:105A500004D70008CAE90008E8D70008A3EA00084C
:105A6000F5580008D34D62103AEB0008F0B54FF43A
:105A70007A738BB00F4604460193FEF739FC631E20
:105A800006463A1D04A82249FEF716FA214D04E005
:105A9000029B0BB35B68AB4227D002A804A9FEF7B8
:105AA00019FA04460028F3D1019D0021002DB8BF4A
:105AB0000335AD1006E09DF80330032B1ED0FEF732
:105AC00017FC811B691A0DF10300FDF7EDFD013094
