:020000040800F2
:1000000000000220BD020008211000082510000891
:10001000291000082D100008311000080000000011
:1000200000000000000000000000000021A5000802
:100030003510000800000000B1A5000815A6000852
:100040002103000821030008210300082103000800
:1000500021030008210300082103000821030008F0
:1000600021030008210300082103000821030008E0
:1000700021030008210300082103000821030008D0
:1000800021030008210300082103000800000000EC
:100090000000000000000000000000002103000834
:1000A00021030008210300082103000821030008A0
:1000B0002103000821030008210300082103000890
:1000C0002103000821030008210300082103000880
:1000D00021030008251B0008210300080000000080
:1000E000210300082103000821030008000000008C
:1000F00000000000000000000000000021030008D4
:10010000000000002103000821030008210300086B
:1001100000000000000000000000000000000000DF
:10012000210300082103000821030008210300081F
:100130002103000800000000000000000000000093
:100140000000000000000000000000002103000883
:1001500021030008210300082103000821030008EF
:100160002103000821030008000000000000000037
:10017000000000000000000000000000000000007F
:100180000000000021030008000000000000000043
:0801900021030008210300080F
:100198003C6D637573683E00323032303036303132
:1001A8002D323135393133004D435553482064657C
:1001B8007369676E65642062792050656E672053A5
:1001C80068756C696E2C20616C6C20726967687444
:1001D800732072657365727665642E0A687474702C
:1001E800733A2F2F6769746875622E636F6D2F706D
:1001F800656E677368756C696E2F6D6375736800DB
:020208000000F4
:08020C007CB2000001000000BB
:1002200070B4840746D0541E002A41D0CDB2034694
:1002300002E0621EE4B3144603F8015B9A07F8D1AA
:10024000032C2ED9CDB245EA05250F2C45EA0545EC
:1002500019D903F110022646103E0F2E42F8105C09
:1002600042F80C5C42F8085C42F8045C02F11002AF
:10027000F2D8A4F1100222F00F0204F00F041032A1
:10028000032C13440DD91E462246043A032A46F88D
:10029000045BFAD8221F22F003020432134404F054
:1002A00003042CB1C9B21C4403F8011BA342FBD1C7
:1002B00070BC704714460346C2E700BFDFF844D065
:1002C000002103E0104B5B58435004310F48104BA2
:1002D00042189A42F6D30F4A02E0002342F8043B48
:1002E0000D4B9A42F9D30D4A03E05FF0A53342F873
:1002F000043B044B9A42F8D300F014F80AF090FA49
:10030000704700000000022010EE000800000020EE
:100310004C080020580800201833002000F8012065
:10032000FEE7000010B41049104BD1F88820104CA3
:1003300042F47002C1F888201A68002042F00102DD
:100340001A6098601A6822F0847222F480321A606F
:100350005C601A684FF0006422F480221A60D86052
:100360008C605DF8044B704700ED00E000380240FF
:100370001030002430B4184BDB68C3F30223C3F100
:100380000705042D03F1040428BF0425062C17D902
:10039000033B01249C40013C22400124AC40013C31
:1003A00021409940002842EA01020CDB00F1604044
:1003B00000F561401201D2B280F8002330BC7047D2
:1003C00000221346E9E7054B00F00F001201034439
:1003D000D2B21A7630BC704700ED00E0FCEC00E0D1
:1003E00000F01F0101234009024A8B4042F82030EF
:1003F000704700BF00E100E02DE9F04F002283B01C
:10040000DFF8A0E1DFF8A0A1614E01274FF0030C57
:10041000814603E00132102A00F0AC800B6807FA35
:1004200002F003408342F5D14C6824F0100002280A
:1004300012D1D50809EB850502F007002C6A80006F
:100440004FF00F0808FA00F824EA08080C69844005
:1004500048EA04042C624C68D9F800004FEA4208CC
:100460000CFA08F504F00304ED4304FA08F42840FC
:100470000443C9F800404C6824F01004013C012CEE
:1004800013D8D9F80840C8682C4000FA08F0204377
:10049000C9F808004868D9F80440C0F3001090403B
:1004A00024EA03042043C9F80400D9F80C40886802
:1004B000254000FA08F02843C9F80C004868C50038
:1004C000A8D54FF00008CDF80480DEF8440040F4D1
:1004D0008040CEF84400DEF8444022F0030000F1F2
:1004E000804004F4804400F59C30019402F0030441
:1004F000019DD0F808B0A4000F25A540D1452BEAF6
:10050000050B11D0234DA94537D0234DA94537D030
:10051000224DA94539D0224DA9450CBF4FF0040802
:100520004FF0070808FA04F848EA0B0585604C68A4
:100530003068DD43E4034CBF1843284030604C680A
:100540007068A4034CBF1843284070604C68B068C2
:10055000E4024CBF18432840B0604C68F068A40225
:1005600002F1010254BF05EA00030343102AF360BD
:100570007FF454AF03B0BDE8F08F07FA04F8D3E777
:100580004FF0020808FA04F8CEE70CFA04F8CBE7BB
:10059000003C01400004024000080240000C024000
:1005A000001002400038024000000240054B5A6A29
:1005B00042F480725A625A6A22F480725A620120AE
:1005C000704700BF00380240064B9B68DB0707D42A
:1005D00043680A6823F440331343436001207047A3
:1005E00000207047002001408368DA070BD583683C
:1005F00023F070638360836823F4702383608368CF
:1006000023F0010383608368DB074DD410B40468D2
:100610002649274B274A24F03F04046044682140C0
:10062000416081680B408360C36803F07843C36016
:10063000036903F040430361436923F47F6323F0BC
:100640000F034361836923F47F6323F00F03836106
:10065000C36923F47F6323F00F03C361036A23F4A8
:100660007F6323F00F030362436A6FEA13336FEA79
:1006700003334362836A23F47F6323F00F038362AF
:10068000C36A03F07F43C362036B03F04043036319
:10069000836B9B0D9B058363536823F403035360B3
:1006A00001205DF8044B70470120704700003FF8BF
:1006B000FCF08080002301408368DB0713D430B452
:1006C00042688D680C6822F040732C4323F48073D9
:1006D0002343436083684A6823F4006313438360C1
:1006E00030BC012070470020704700BF8368DB07E3
:1006F00023D44B6870B4C3B9436823F468434360A0
:1007000086680D69CC680E4A0B6832402C43224340
:1007100003F0706313438360C36A4A6823F4700371
:100720001343C36270BC0120704742688C6822F496
:100730006842234313434360E2E70020704700BF51
:10074000FDFCFFC011F5803F21D030B4644B654CF7
:100750005B5C1A58A04222F001021A5021D0624A72
:1007600090424DD0614A0024212514605460946069
:10077000D460146155611A5822F060621A50002941
:100780002ED13F2383600121084630BC7047554B72
:10079000984200F08E80544B98426FD0002108465A
:1007A000704700293BD0012964D0022976D0032963
:1007B00078D0042900F08B80052900F08C80062970
:1007C0004BD007294BD0494A00242125146054609E
:1007D0009460D460146155611A5822F060621A5016
:1007E00001292CD002292ED0032931D0042938D058
:1007F00005294ED0062957D0072936D00021C3E756
:1008000079B9103200212124116051609160D160CA
:10081000116154611A5822F060621A50B1E7344AEB
:10082000F0E7012928D002293AD003294DD0042924
:100830004FD0052951D00629C5D12E4AC4E74FF41F
:1008400074638360A0E74FF47C13836001219BE70E
:100850004FF074638360012196E7274AB4E7274A83
:10086000B2E73F23C36001218EE74FF07463C3609A
:10087000012189E7224AA7E7224AA5E7224B1A6904
:1008800042F480021A611A6922F480021A6101217D
:1008900085E74FF47463C360012175E71B4A93E752
:1008A0001B4A91E71B4A8FE74FF47C13C360012179
:1008B0006AE7A3F5205301211A6942F400121A6174
:1008C0001A6922F400121A6169E7134A7CE7134A95
:1008D0007AE7134A78E7134A76E7134A74E700BFCA
:1008E000A0D000080060024000640240B8640240EA
:1008F00010600240A0640240A0600240B860024064
:1009000028600240286402400038024040600240F3
:1009100040640240586002405864024070600240E7
:10092000706402408860024088640240F0B5D76875
:100930009668234B1569546913F801E0D169936AED
:100940003E4335432C43956950F80E602C432143B8
:1009500026F45F360B4326F478761E4340F80E608B
:10096000D16A00EB0E03B1B15C69156B24F007048A
:1009700029432143596150F80E40516B24F0C07453
:10098000214340F80E1050F80E40916B24F4C0043F
:10099000214340F80E105168D96011689960596878
:1009A000146A090C09042143596050F80E30526A48
:1009B00023F06063134340F80E300120F0BD00BF08
:1009C000A0D000082DE9F0410D6895FAA5F3B3FA1F
:1009D00083F335FA03F400F0A0801A464C6801272F
:1009E00003264FF00F0E05E00D68013235FA02FCC8
:1009F000134657D007FA03F32B40F6D0D0F8008007
:100A000093FAA3FCBCFA8CFC93FAA3F54FEA4C0CC6
:100A100006FA0CFCB5FA85F56D0028EA0C08AC4026
:100A200048EA040404604C68013C012C48D9C568BC
:100A300093FAA3FCBCFA8CFC93FAA3F44FEA4C0C97
:100A400006FA0CFC25EA0C080D69B4FA84F464007B
:100A5000A54048EA0505C5604C68022CC4D193FA4C
:100A6000A3F4B4FA84F4072C4FEA13253EDC046A9D
:100A700093FAA3F5B5FA85F593FAA3F3AD000EFA50
:100A800005F524EA050C4C69B3FA83F39B009C40FE
:100A90004CEA040404620D684C68013235FA02FC29
:100AA0001346A7D1013C012C07D8CB68426803FB51
:100AB00005F322EA05051D4345600120BDE8F081EC
:100AC000846893FAA3FCBCFA8CFC93FAA3F54FEA72
:100AD0004C0C06FA0CFC24EA0C088C68B5FA85F577
:100AE0006D00AC4048EA04048460A0E7446A95FACB
:100AF000A5FCBCFA8CFC95FAA5F34FEA8C050EFA1E
:100B000005F524EA05084C69B3FA83F39B009C4081
:100B100048EA040444624C6866E74C68C2E700BFD8
:100B2000F0B41F4A936803F00C03042B35D0082B54
:100B300019D01C4B1A4A036091681B4D1B4CC1F322
:100B40000311695CCB4043609168C1F38221615C11
:100B500023FA01F181609268C2F34232A25CD34071
:100B6000C360F0BC704757685568536851680D4EB4
:100B70000F4CC1F30141C3F3881217F4800F01F148
:100B8000010108BF344605F03F034900B4FBF3F30D
:100B900002FB03F3B3FBF1F3CCE7054BCAE700BF5D
:100BA000003802400024F40088D0000898D00008E3
:100BB00040787D01274A0368904233D0B0F1804FDE
:100BC00022D0A2F57C4290421ED002F58062904273
:100BD0001AD002F58062904216D002F59A32904205
:100BE00016D002F58062904212D002F580629042E7
:100BF0000ED003608B68C3620B888362436943F045
:100C000001034361012070474A6823F070031343D6
:100C1000CA6823F440731A4302608B68C3620B886E
:100C20008362EBE74A6823F0700310B41A43CC6880
:100C300022F44072224302608B68C3620B88836295
:100C40000B7C0363436943F0010343615DF8044B8C
:100C5000012070470000014000230360436083606F
:100C6000C360036143618361C3617047F0B51029BC
:100C700083B003466DD048D9B1F5807F24D0B1F55B
:100C8000805F63D1016A684F21F480510162006A7C
:100C900011695E68DC69556820F4005040EA013152
:100CA00024F4E640146821F48051BB4241EA053146
:100CB00040EA042000F085805E60D861D2681A6442
:100CC0000120196203B0F0BD016A574F21F4807111
:100CD0000162006A11695E68DC69556820F4007081
:100CE00040EA012124F07300146821F48071BB42B2
:100CF00041EA052140EA040469D05E60DC61D26803
:100D0000DA630120196203B0F0BD01291ED1016A26
:100D1000454F21F001010162016A106955685C6864
:100D20009E6921F00201014321F001012943156868
:100D300026F07300BB4240EA05005FD05C6098611A
:100D4000D2685A630120196203B0F0BD002003B0DD
:100D5000F0BD016A344F21F010010162006A11698F
:100D60005E689C69556820F0200040EA011124F477
:100D7000E640146821F01001BB4241EA051140EA47
:100D8000042407D05E609C61D2689A6301201962D6
:100D900003B0F0BDD069019097695069956821F062
:100DA000800126F4806641EA801146EA87060198B0
:100DB00021F0400126F4006641EA851146EAC006AA
:100DC000E0E7946926F4804646EA841674E7D06921
:100DD000019097695069956821F4006126F4805666
:100DE00041EA802146EA0716019821F4806126F441
:100DF000005641EA852146EA40167EE724F4807ECB
:100E0000576994699668D56921F008014EEA040E85
:100E100041EA870121F004012EF4007E41EA8601B7
:100E20004EEA45048AE700BF00000140C3689B0406
:100E300001D50020704770B50446CE684B68E26863
:100E400008690D4633438969184322F41643014368
:100E500023F00C030B43E3602269AB6822F4405299
:100E60001343236162696B6922F44072134384B0B7
:100E700063616846FFF754FE264B9C4208D0264B20
:100E80009C4229D0254B9C4202D0002004B070BD6A
:100E9000039B002BF9D02A68002AF6D0A9692048C4
:100EA00003EB8303B1F5004F03EB830316D09200ED
:100EB000B3FBF2F3A0FB03214909642202FB1132C8
:100EC00012013232A0FB0223C3F3471303EB0113D9
:100ED0009BB2A3600120D9E7029BDAE75200B3FB83
:100EE000F2F3A0FB03125109642202FB1133DB0071
:100EF0003233A0FB0323C3F34F1303F0070202EBCB
:100F0000011203F0F80302EB43039BB2A36001203C
:100F1000BCE700BF00100140004400400014014045
:100F20001F85EB51054A064BA2FB002080090138C2
:100F300000210522586099601A607047D34D6210F5
:100F400010E000E0014B1860704700BF2C04002047
:100F500008B500F0D5F9BDE8084000F0B9BC00BF05
:100F6000704700BF08B500F07BFA00F019FD00F0F3
:100F7000DDFC00F0FBFA00F009F8FFF7F1FF0020BC
:100F800000F022FD003018BF012008BD08B5022086
:100F90004FF4005100F05AFB02204FF40051BDE81D
:100FA000084000F083BB00BF0120704702204FF4CF
:100FB000005100F083BB00BF02204FF4005100F04D
:100FC00075BB00BF02204FF4005100F07FBB00BF93
:100FD00008B54FF40051022000F088FBB0FA80F011
:100FE000400908BDBFF34F8F0549064BCA6802F49C
:100FF000E0621343CB60BFF34F8F00BFFDE700BF3C
:1010000000ED00E00400FA0508B501460C220123BA
:10101000024801F04BF8012008BD00BF107AFF1F05
:10102000FEE700BFFEE700BFFEE700BFFEE700BF30
:10103000FEE700BFFEE700BF2DE9F04FA1B020A9F9
:10104000DFF8B482A348A44EA44D0F23002441F836
:10105000543D022703230C930D9710940F94FFF730
:10106000B1FCD8F8443043F48073C8F84430D8F861
:10107000443003F4807301933046019BFFF796FAE6
:1010800020A94FF4003341F8803D3046FFF79CFA29
:101090002846FFF7A9FA4FF4807303A92846059361
:1010A000049403944FF44016FFF706FB4FF4407985
:1010B00006A928460997069408940796CDF8289023
:1010C000FFF714FB864987484FF0007292FAA2F7A7
:1010D0004FF0F873B7FA87F722FA07FE93FAA3F7EF
:1010E00093FAA3F750F82E7047F0070740F82E70D8
:1010F00099FAA9F74FF4007EB7FA87F72EFA07FEA0
:1011000051F82E7027F01F0741F82E70764F3C8063
:1011100092FAA2F7B7FA87F722FA07FA93FAA3F737
:10112000B7FA87F793FAA3FC4FF0070E26FA07FBEE
:1011300050F82A70BCFA8CFC0EFA0BFB26FA0CF65F
:101140000EFA06F627EA0B07374340F82A7099FA99
:10115000A9F64FF40077B6FA86F6F74051F8276003
:1011600026F4787646F0200641F827605E4E7480BB
:1011700092FAA2F6B6FA86F622FA06FB93FAA3FCD6
:10118000BCFA8CFC93FAA3FA4FF4C00750F82B601A
:10119000BAFA8AFA27FA0CFC0EFA0CFC27FA0AF7BC
:1011A00026EA0C060EFA07FC46EA0C0640F82B600D
:1011B00099FAA9F64FF40077B6FA86F6F74051F897
:1011C000276026F4F84646F4006641F82760464E4C
:1011D000B48092FAA2F6B6FA86F6F24093FAA3F732
:1011E000B7FA87F793FAA3F34FF4100C50F8226084
:1011F000B3FA83F32CFA07F70EFA07F72CFA03FC7D
:1012000026EA07060EFA0CFE46EA0E0640F82260B1
:1012100099FAA9F94FF40073B9FA89F923FA09F296
:10122000324E51F82230324FDFF8D09023F4782339
:1012300043F4C03341F82230AB682B4A43F001033A
:10124000D480AB60D8F8303043F48003C8F8303035
:10125000D8F8303003F480030293029B336823F004
:101260000103336021463846FFF76CFA4FF4807370
:1012700014931D4B129321464FF4006C4FF4005E03
:1012800011AA032338464FF4806804274FF4803AAC
:101290001D93139415941A941C941E941F94CDF8C6
:1012A0004490CDF85880CDF85CC0CDF860E0199737
:1012B000CDF86CA0FFF73AFB33680E4A43F0010308
:1012C0003360AB68012143F08043AB60117021B003
:1012D000BDE8F08F000002400023014000200140E3
:1012E0002C2001400C2001401833002010640240E3
:1012F0000064024058080020003802404C200140A1
:1013000010B586B006A90F23002441F8183D0E48F9
:1013100001940223029305940494FFF753FB0B48B6
:10132000836823F001038360FFF75EF9084A0948E8
:10133000136823F0010313602146FFF703FA064BFD
:101340001C7006B010BD00BF00000240002001402C
:1013500010640240006402405808002000000000B1
:1013600008B50F4B33F8100007EE900AF8EEE77A55
:1013700017EE900A09F0E0FC07A3D3E9002309F077
:101380002FFD0022074B09F02BFD09F0E3FF00EED3
:10139000100A08BDAFF300806666666666660A409E
:1013A000183300200000303F0420704738B524492E
:1013B0000A68234B9003FBD55D68224C22482349E1
:1013C000234A2C4020435860586820F4403058602D
:1013D000586801400A435A601A6842F080721A60E5
:1013E0001A461168164B8901FBD59A6822F0F00263
:1013F0009A609A6822F4E05242F480529A609A68A5
:1014000022F460429A609A6822F0030242F00202DB
:101410009A601A46936803F00C03082BFAD10D4822
:10142000FFF780FD0C4A0B48136843F00403136078
:10143000FFF788FD094B0022D96883F8232038BDC7
:10144000003802400080BFFF193040000080BFF02C
:101450001930400400D8B80510E000E000ED00E0CD
:1014600030B5244A244B546C2449254844F4804424
:101470005464546C83B004F480440194019C146C53
:1014800044F080541464146C04F080540094009C64
:10149000DD684FF6FF042C402143D9600021DC6851
:1014A0001976DC685976DC689976DC68D977DC686F
:1014B00083F82010DC6883F82210DC6883F823109E
:1014C000036823F00F0343F003030360036803F092
:1014D0000F03032B00D0FEE70A490B6843F4404397
:1014E0000B60136843F480331360FFF75FFF03B0B2
:1014F00030BD00BF0038024000ED00E00003FA05F7
:10150000003C02400070004082B0002210F1FF3029
:1015100012D30192019B032BF8D800BF00BF00BF7C
:1015200000BF00BF00BF019B01330193019B032B50
:10153000F3D910F1FF30ECD202B0704782B041F61F
:10154000641210F1FF300CD30192019B002BF8D0F4
:10155000019B013B0193019B002BF9D110F1FF305E
:10156000F2D202B0704700BF062070471C4B1A6BC6
:1015700042F001021A631A6B86B002F00102009277
:10158000009A1A6B42F002021A631A6B02F002020E
:101590000192019A1A6B42F004021A631A6B02F06C
:1015A00004020292029A1A6B42F008021A631A6B42
:1015B00002F008020392039A1A6B42F010021A63B7
:1015C0001A6B02F010020492049A1A6B42F0800225
:1015D0001A631B6B03F080030593059B06B07047ED
:1015E0000038024000B587B006AB094A43F8181D21
:1015F00052F820001946022200230193039304931A
:1016000005930292FFF7DEF907B05DF804FB00BF17
:10161000A8D0000810B5002A86B002D0D4BF02229C
:10162000012206AB084C43F8181D04921946022209
:10163000002354F820000193039305930292FFF7CF
:10164000C1F906B010BD00BFA8D0000810B586B023
:1016500006AB094A43F8181D52F820001946022229
:101660000023012401940393049305930292FFF74E
:10167000A9F906B010BD00BFA8D0000810B586B00B
:1016800006AB094A43F8181D52F8200019460222F9
:101690000123002401930393049305940292FFF71E
:1016A00091F906B010BD00BFA8D00008024B53F856
:1016B00020309961704700BFA8D00008024B53F852
:1016C0002030090499617047A8D00008064B53F8F0
:1016D0002000436901EA0302994318BF81610AB1FE
:1016E00012048261704700BFA8D00008024B53F873
:1016F0002030186908407047A8D00008416370473F
:1017000081637047C1637047016470472DE9F04FF2
:10171000644C236C95B043F00103236414AB256C37
:101720000F2443F8484D05F0010504460F46019586
:1017300019464FF0010E022300265B48019D0593D8
:1017400015460393CDF818E00496FEF755FE002CDD
:1017500000F0A0806100002FD8BF6427534A544B8B
:10176000544CDFF86891CCBFB8B238464FF0804B8C
:101770001080DBF8000020F00100CBF80000B2F987
:1017800000201B68002D4FF0000A02F1FF32B8BFA5
:10179000322601FB07F15846B3FBF1F307A903F129
:1017A000FF330992ADF81C30ACBFAEB23546CDF870
:1017B00020A0CDF828A08DF82CA0FFF7FBF90CA8ED
:1017C000FFF74AFA3C4FCDF83CA060220123CDF848
:1017D00040A00C920D9334F8028B4FF080404146AC
:1017E0000CAAFFF743FAB8F1010F4FD0B8F1040F7C
:1017F0004AD0B8F1100F4BD0B8F1400F4DD0B8F52A
:10180000807F4CD0B8F5806F0CBF052206222B4993
:1018100019F8023011F802C0294903F1804311F888
:1018200002E02849885C9A69032101FA0CF122EA56
:1018300001029A61DBF8201057F82A30022202FADE
:101840000EF221EA0202CBF82020DBF804104FF45C
:101850008072824021EA02024FF08048CBF80420D7
:10186000404629469847184B23F81A600AF1010AA6
:10187000BAF1040FAFD1D8F8003043F00103C8F833
:10188000003015B0BDE8F08F0122C0E70022BEE7AE
:101890000222BCE74FF4FA615DE70322B7E70422B6
:1018A000B5E700BF003802400000024030040020CD
:1018B0002C040020C8D00008D0D00008C0D00008F8
:1018C000E0D00008F0D000085C080020E8D0000854
:1018D00000B587B006A90F2341F8143D022200236A
:1018E00007480492029305930393FEF785FD4FF09A
:1018F0008042136823F00103136007B05DF804FB16
:101900000000024038B50446054B4FF0804053F8C4
:1019100024300D469847034B23F8145038BD00BFC0
:10192000D0D000085C0800200420704708B50F4A9A
:10193000136843F4807313600120FFF7FFFD0C4B25
:101940000C4A1968914207D00A4A1A604FF0FF31D9
:10195000002299605A6008BD99685A68C9438A4252
:10196000F2D10132D14399605A6008BD0070004045
:101970004C080020424F4F54044B054A1A60002186
:101980004FF0FF3259609A60704700BF4C0800204A
:10199000424F4F54014B5868704700BF4C0800201D
:1019A000044B45F2555040F6FF71022218609960D1
:1019B0005A60704700300040024B4AF6AA221A6073
:1019C000704700BF003000402DE9F04196B000257F
:1019D0000746009580200121474A484B484C06F0B5
:1019E00009FD2060002800F08380009580200121FF
:1019F000444A454B454E06F0FDFC3060002877D048
:101A000020684349434C07F0E1F83068424907F049
:101A1000DDF8424B42481A6B42F001021A631A6B1E
:101A200002F001020392039A5A6C42F010025A64C7
:101A30000DF158085B6C0C954FF4007248F8342D8A
:101A400003F0100307220493414602230E92049EE2
:101A50000A930B9301260D95FEF7B4FF41464FF410
:101A600080632F4809930D96FEF7ACFF002F08BF47
:101A70004FF416570C230FA9204613930F97109578
:101A80001195129514951595FFF7D0F9E3686FF449
:101A9000007143F400536FF04002E3602160226064
:101AA00023680593059B63680593059B236806934C
:101AB000069B63680693069B23680793079B6368EE
:101AC0000793079B23680893089B63680893089B08
:101AD000E36843F020032A46E3600A212520FEF74D
:101AE00049FC2520FEF77CFC304616B0BDE8F081AD
:101AF000002016B0BDE8F081240E0020540D002017
:101B0000500D0020A40D0020FC0C00204C0D0020E6
:101B1000F8D0000800100140FCD000080038024056
:101B20000000024010B584B00023204C0293E3680B
:101B30001B0602D52368180625D41C4B1A6891068B
:101B400016D41A4B1A68120706D55A681A680392F7
:101B5000039A5B680393039B029B3BB1144B4FF0CA
:101B600080521A60BFF34F8FBFF36F8F04B010BD68
:101B700004A95B6801F8093D0E4B02AA186800230E
:101B800006F0E8FDDDE70C4B0DF10701186802AA2D
:101B900006F0CCFF012804D0E36823F08003E36063
:101BA000CBE79DF807306360C7E700BF0010014036
:101BB00004ED00E0500D00204C0D00200120704786
:101BC00008B5064B0021186806F0CCFB044B002139
:101BD0001868BDE8084006F0C5BB00BF500D0020E6
:101BE0004C0D002010B5074B044601464FF0FF3264
:101BF000186806F013FE002814BF20464FF0FF308F
:101C000010BD00BF500D002010B5064B04460A461B
:101C10000146186806F002FE002814BF20464FF067
:101C2000FF3010BD500D00202DE9F0410F1E82B095
:101C300021DD044600EB0708114D124E01E007F0CC
:101C40000FFD23788DF8073028680DF107014FF05C
:101C5000FF32002306F026FC01284FF00100EED1F0
:101C6000F368044443F080034445F360E9D1384607
:101C700002B0BDE8F0810027384602B0BDE8F0812F
:101C80004C0D00200010014030B5054683B00C4CCF
:101C900001E007F0E5FC20688DF807500DF1070121
:101CA0004FF0FF32002306F0FDFB01284FF001004A
:101CB000EFD1044AD36843F08003D36003B030BD52
:101CC0004C0D00200010014000230370437043605E
:101CD000704700BFF0B51C785E78012C01444BD0F2
:101CE00048D3022C44D1884214463CD007782C4D6E
:101CF00046EA97163F2E98BF15F806E007F03F0614
:101D000088BF4FF03D0EAD5D84F800E065705D6802
:101D10000135132D00F101005D602FD0023488429F
:101D200038D006781E4DB70806F00306ED5D257025
:101D30000130360104F1010E884225D0077846EAC9
:101D400017163F2E98BF164D00F1010094BFAD5DF0
:101D50003D2507F00F0688420EF101044FEA860682
:101D60008EF80050C2D102215E70A01A1970F0BD29
:101D70000020F0BD1446D2E79646DDE70A2700258D
:101D8000A77003345D60CAE701215E70C2EB0E00EC
:101D90001970F0BD00215E70A01A1970F0BD00BF6F
:101DA00000D100080B78012B18D0022B05D0034678
:101DB0000A2203F8012B181A70474B783F2B9CBF5F
:101DC0000F4AD15C034688BF3D2103F8021B3D2228
:101DD00042700A2203F8012B181A70474B783F2BE8
:101DE0009CBF074AD25C4FF03D034370837088BFAD
:101DF0003D22C31C02700A2203F8012B181A7047F7
:101E000000D100080023037043707047F0B45C7881
:101E100014701C78032C7FD8DFE804F04E341A02CB
:101E2000014416463D4F88425AD010F8015BA5F197
:101E30002B042A2DE4B2F6D9502CF4D83C5D2506AB
:101E4000F1D4357804F03F042C433470013635E08A
:101E500001441646314F884249D010F8015BA5F184
:101E60002B042A2DE4B2F6D9502CF4D83C57002C80
:101E7000F1DB3578C4F383073D43A40135707470FA
:101E80000136CFE701441646244F884236D010F879
:101E9000015BA5F12B042A2DE4B2F6D9502CF4D81D
:101EA0003C57002CF1DB3578C4F301173D43240186
:101EB000357074700136CDE701441646174F8842DD
:101EC00023D010F8015BA5F12B042A2DE4B2F6D93A
:101ED000502CF4D83C57002CF1DBA4003470D3E72D
:101EE0000321197031785970B01AF0BC7047022183
:101EF000197031785970B01AF0BC7047012119700F
:101F000031785970B01AF0BC7047002119703178DF
:101F10005970B01AF0BC70470020E6E744D10008C1
:101F2000704700BF704700BF01F078B8F0B583B0CC
:101F300005460E4607F04AFA234AA2FB003424095C
:101F4000D6B92248224A2349A0FB04635B09A0FBBF
:101F500003604009C3EB0316A4EB8606C0EB001038
:101F6000A2FB0442A3EB80030096D20A284601F0AC
:101F700019F8284603B0F0BD144EDFF854E01649B6
:101F8000A6FB0473FA2707FB14005B094FF47A776A
:101F9000A6FB03C607FB00F0A2FB0020C3EB031760
:101FA0007609A4EB8707C6EB0616AEFB04420009D0
:101FB0000190A3EB86030097D20A284600F0F2FFB7
:101FC000284603B0F0BD00BFD34D621089888888D1
:101FD000C5B3A291A8D1000894D10008F8B1037844
:101FE0000BB91846704730B583B00D46002201A9E1
:101FF00004460AF0C9FD019B73B19C4201D10BE07C
:10200000019313F8012B202AFAD0092AF8D01AB923
:102010002860012003B030BD002003B030BD704700
:1020200028B3F0B5067883B016B9002003B0F0BD30
:1020300014460D46002201A907460AF0A5FD019BA2
:102040000646002BF1D09F4201D1EEE7019313F831
:10205000010B2028FAD00928F8D02A2809D0002816
:10206000E3D1034601202E60236003B0F0BD0020C1
:102070007047184601A900221F4601930AF084FD0B
:10208000019B002BD1D09F4201D1CEE7019313F8E1
:10209000012B202AFAD0092AF8D0002AC5D101281C
:1020A00071F10003DDDB431EDCE700BFF0B532B3A6
:1020B0008D1C87180478240904F1300604F1370ECA
:1020C000092C94BF3446744605F8024C10F8014BB5
:1020D00004F00F0404F1300604F1370E092C94BF0C
:1020E00034467446B84205F8014C05F10205E1D1C9
:1020F00001EB42020BB1002313700846F0BD0A4603
:10210000F8E700BFF8B504460F4616461D46002105
:102110001822FEF785F827606660A560F8BD00BF4D
:10212000034600222DE9F04F03F8012B01334270E2
:1021300003F8012B03F8012B03F8012B03F8012B03
:1021400003F8012B1A70CE688B689E4283B04CD284
:10215000D1F8048058F826700C4605467B490222C7
:1021600038460AF019FCF8B9237DD80741D5226812
:1021700013786BB1002102E012F8103F43B1042B39
:10218000FAD123698B4201F10101F5D12161134696
:102190002B60E3686268591CE16052F823306B6081
:1021A000012003B0BDE8F08F3B782D2BDFD1237DDC
:1021B000DA07DCD4731CE36058F826707A78002ABA
:1021C00072D02668337823B96EE016F8103F002BE2
:1021D0006AD0013B012BF8D8B3789342F5D12E6039
:1021E0003378022B74D00120DBE7104603B0BDE842
:1021F000F08F731CE36058F8263001933D21184698
:102200001E460AF015FC06F102098046002876D029
:10221000C9EB000622681378002B4AD0924626B9F3
:102220003CE01AF8103F002B43D0013B012BD34672
:10223000F7D8DAF804703846002FF2D00AF07EFBA7
:102240008642EED13946484632460AF0A5FB0028C0
:10225000E7D1C5F800B09BF80030032B05D1237DF2
:1022600043F0010323759BF80030022BBBD1B8F17A
:10227000000F59D008F101036B6098F80130002B72
:10228000B1D19BF80130990735D500236B6001204F
:1022900087E7012A12D91AF8103F53B1032B03F133
:1022A000FF32D346F5D1D4E7002385E8880001202A
:1022B00077E70023019A6A602B6094E7DAF804302C
:1022C0001846002BE7D00AF039FB0028E3D1C0E71D
:1022D00038460AF033FB022816D9BB1C6B60BB786A
:1022E0003D2B80D1FB1C6B60FB78002B7FF47BAF18
:1022F00073789B07C9D4164B6B60012051E74846A1
:102300000AF01CFB064685E7737813F0020FE368BA
:1023100010D0A1685A1C8A42B7D86168E26051F8AF
:1023200023306B6001203CE79BF8013013F0020F73
:10233000E368EED1A268591C9142DCD8626852F879
:10234000230000782D287FF427AFD4E7BCD1000804
:1023500014EB000870B502460E465948594905F07D
:1023600051FB002825DB337806F1100423B94FE038
:1023700014F8103B002B4BD014F80F5C6807F7D40F
:10238000514805F03FFB002813DB14F8103C022BEA
:1023900012D0042B05F0010518D0052B24D0032BF7
:1023A00073D014F80E1CC9B1484805F02BFB002867
:1023B000DEDA4FF0FF3070BDA9071DD454F80C1CB5
:1023C00054F8082C424805F01DFBF0E7002D60D1C1
:1023D00054F80C1C3F4805F015FBE8E754F80C1CBA
:1023E0003D4805F00FFBE2E7002D58D154F80C1CD6
:1023F0003A4805F007FBDAE714F80E1C002954D11F
:1024000054F80C1C54F8082C354805F0FBFACEE7BC
:102410003448354905F0F6FA33780546344683B931
:1024200024E06268002A46D0304805F0EBFA054601
:10243000002DBEDBE068D8B105F094FA14F8103F27
:10244000A3B162785207F9D4032BF7D0E0680028D3
:10245000F4D0043B012B0FD9A1780029E1D16168A8
:1024600081B1234805F0CEFA0546E1E7E81770BDD3
:10247000204805F061FAE1E71F48616805F0C2FAFB
:102480000546D5E7002DD7DA93E71C4805F0BAFAE0
:102490008DE754F80C1C1A4805F0B4FA87E754F895
:1024A0000C1C184805F0AEFA81E754F8082C1648C1
:1024B00005F0A8FA7BE7154805F0A4FA0546B7E74A
:1024C000C0D10008BCEB00089CE500081CD2000845
:1024D000E8D1000800D2000824D2000810D2000879
:1024E000DCD10008C8D10008DCEB000834D20008B9
:1024F00044D2000834E000082CD20008BCD1000807
:10250000F8D1000808D20008D0D1000850D2000845
:10251000F8B5074648680D46164650B10C490AF012
:1025200043F8044628B938463146FFF713FF2046E2
:10253000F8BD0849084A094805F064FA686805F0DA
:1025400011FA38463146FFF705FF4FF0FF34EEE74A
:1025500064D2000884EB000808EB00086CD2000885
:10256000F0B5002A059C069F6CDD91F800C0BCF117
:10257000000F2FD00E46002516F801EF0135BEF1F1
:10258000000FF9D1AA4226DC724613F0020F0CBFED
:102590004FF0200E4FF0300E13F001031DD1002A32
:1025A00014DD3B6800285FD015469C4208D90368BB
:1025B00083F800E00368013303603B6801333B604C
:1025C000013DF2D191F800C01346002266464EB993
:1025D0001846F0BD6546521BD7E76646BCF1000FB2
:1025E0005BD000233D6840B3AC4207D905682E702C
:1025F0000568013505603D6801353D6011F8016FE2
:102600000133002EF0D1002AE2DD3968002836D0EF
:1026100015468C4208D9016881F800E00168013153
:102620000160396801313960013DF2D19818F0BD7F
:1026300011F8016F0133002EE5D0AC42F8D96FF0EC
:102640000100F0BD13F0010307D191F800C0664608
:102650004FF0200E002EC5D1BAE70E784FF0200EB5
:10266000002EBED13046F0BD054601E0013A11D042
:102670009C4205F10105F9D96FF00100F0BDD018B9
:1026800001E0834208D08C4203F10103F9D96FF0D5
:102690000100F0BD2A4697E7F0BD6346B3E700BFEF
:1026A000F0B587B00F46109D002949D00C468646EC
:1026B000002B30D100238DF817300DF11701002FBA
:1026C00035D01E460E9B0DF11701A3F13A07B4FB5E
:1026D000F2F302FB13443819092CC8BF0446303406
:1026E00001F8014D1C46002BF1D106B30C9B002BC9
:1026F00038D12D2301F8013C0C9A002401390F9B9D
:1027000070468DE828000D9BFFF72AFF002800DBAC
:10271000204407B0F0BD0A2ACCD10029CADA002330
:102720004C428DF81730002C3BD00126CAE7119B94
:10273000ABB12B2301F8013C002401390C9ADEE7F0
:102740000F9B0C9A8DF80D708DE82800302403A99A
:102750000D9B8DF80C40FFF703FF07B0F0BD1C4642
:102760000C9ACCE70D9B9B07C3D52B680F9A9A4216
:102770000ED9BEF1000F11D0DEF800302D221A70F4
:10278000DEF800300133CEF800302B6801332B60C7
:102790000C9B013B0C9301241A46B0E76FF001003B
:1027A000B7E70DF11701A1E72DE9F04F2DED068BED
:1027B000B5B0013A1D780C9100241146449A149446
:1027C00083460792002D00F0F980DFED908A9FED9F
:1027D00090AADFED909A9FED909AA14688461A46FE
:1027E00019E0149B98450ED9BBF1000F00F08D80C5
:1027F000DBF800301D70DBF80010149B0131013351
:10280000CBF80010149309F1010914466578621C95
:10281000002D00F0D480252DE3D15378541C002BDB
:1028200000F0CD80252B77D02D2B03BF9378941CFF
:10283000012600262B2B71D00022099203E014F808
:10284000013F46F00206302BF9D02E2B33D0A3F1F6
:102850003002D2B2092A2ED90622089200276C2B08
:1028600004BF63780134682B5DD0583B202B44D8DB
:10287000DFE813F0680343004300430043004300D4
:1028800043004300430043004300C6010E0297018A
:10289000D600D600430043004300430043004300FA
:1028A00043004300E00143004300B50043002E0213
:1028B000430043002702002706232246BA461D464E
:1028C000144612F8013BA3F130012E2BC8B20ED0F2
:1028D000092805EB850C07EB870E0CD8BAF1000F21
:1028E00002D000EB4C05EBE701EB4E07E8E70025D3
:1028F0004FF0010AE4E70895B1E7149B984540F2D0
:102900001882BBF1000F40F0FC816FF0010035B080
:10291000BDEC068BBDE8F08F224662E701226378AA
:10292000099214448FE76378583B0134202BE4D894
:1029300001A252F823F000BF512F0008FB28000825
:10294000FB280008FB280008FB280008FB280008DB
:10295000FB280008FB280008FB280008FB280008CB
:10296000FB280008012C0008752D0008A32B000887
:10297000212A0008212A0008FB280008FB2800085B
:10298000FB280008FB280008FB280008FB2800089B
:10299000FB280008FB280008492D0008FB28000838
:1029A000FB280008DF290008FB280008692D000823
:1029B000FB280008FB2800084D2D0008A9460C9BA9
:1029C00013F0010305D1BBF1000F9ED0DBF800200E
:1029D0001370484635B0BDEC068BBDE8F08F079B01
:1029E0000E4D1968CDF8008014A8002908BF2946AB
:1029F00001903A4633465846079DFFF7B1FD00283F
:102A000005F1040583DB81440795FFE6CDCCCC3D81
:102A10000AD7233C6E12833A16B7D13874D2000815
:102A2000079B03F1070E2EF0070E9EED007B0EF1C3
:102A300008050022002351EC170B8DED0A7B07954A
:102A400008F040FC002840F05882099B002B40F021
:102A500073811FAB0D939A46089B072B0ED81D461A
:102A6000BD4B03EBC503DDE90A01D3E9002308F000
:102A700005F8CDE90A01002D00F07082089D0023C1
:102A80000120013300EB8000AB424FEA4000F8D157
:102A9000089508F02FF9CDE90E01DDE90A0108F0EB
:102AA00039FC03460990002800F06B81DFF8ACC2C6
:102AB000089D0DF1530E0020ACFB0312D20802EB6F
:102AC0008201A3EB410330330EF8013F013013467E
:102AD000002AF1D10DF1540E0EEB00030AF1FF3282
:102AE00013F8011D02F8011F7345F9D108958244BE
:102AF0002B46002B43D0099808F0FCF802460B4601
:102B0000DDE90A0107F0B8FFDDE90E2308F068F9F6
:102B100008F000FC2E238AF80030002800F03782ED
:102B2000DFF838C2089D0DF1530E0021ACFB0023E5
:102B3000DB0803EB8302A0EB4202303201310EF8D6
:102B4000012F1846002BF1D18D42089598BF0DF149
:102B5000540E40F2E4810DF1540E4B1E089D734457
:102B6000302201318D4203F8012F4FF03000F8D8A8
:102B7000002940F0D4818AF801000AF1020A14A861
:102B800000250190CDF800800D998AF800503A4652
:102B900033465846FFF7E4FC0028FFF6B8AE814400
:102BA00034E6079B073323F00703D3E9000108331A
:102BB000079308F0CFFB00EE100A08EE100A07F0AA
:102BC0003BFF002840F0E4806E2361228DF87C30CA
:102BD0008DF87E308DF87D200DF17F0E14A9002533
:102BE0000191CDF800803A46334658461FA98EF829
:102BF0000050FFF7B5FC0028FFF689AE814405E6DA
:102C00003A46079F14A9334600253E680191CDF846
:102C10000080584613A98DF84C608DF84D50FFF791
:102C20009FFC3E46002806F10406FFF670AE814484
:102C30000796EBE50020DBF8003030221A70DBF855
:102C400000307822591CCBF800105A70DBF80030A5
:102C5000079A0133CBF800301346043309F1020917
:102C60001168079300B189B241220998059014AB0D
:102C70000292049300970196CDF80C8058461022DA
:102C80000023FFF70DFD0028FFF641AE8144BDE5AE
:102C9000079A134604331168079309980590612237
:102CA00014AB0292049300970196CDF80C8058461D
:102CB0000A220123FFF7F4FC0028FFF628AE814426
:102CC000A4E5079A13460433116807936122CCE701
:102CD000079A1346043311680793099805906122F7
:102CE00014AB0292049300970196CDF80C805846DD
:102CF0000A220023FFF7D4FC0028FFF608AE814427
:102D000084E5DBF8003025221A70DBF80020149BE4
:102D1000511C0133CBF8001098452178149308D941
:102D20005170DBF80020149B01320133CBF80020F6
:102D3000149309F1020969E52B238DF87C301FAB50
:102D40000DF17D0A0D9387E6012074E7079A13467B
:102D5000043311880793B9E780D20008CDCCCCCCDE
:102D6000ABC52737BC378635079A1346043311881D
:102D70000793B2E7079A13460433B2F9001007939A
:102D80008BE730238AF800300AF1010A089BB0E68D
:102D9000B0EE480A07F050FE0128B0EE480A40F2B3
:102DA000E28007F045FE002800F0C580B1EE488AB9
:102DB0002D23B7EE007AB4EEC78AF1EE10FAF2EEE8
:102DC000047A8DF87C3054BFF0EE686AF0EE676AE2
:102DD000002302E028EE268A0133B4EEE78AF1EE02
:102DE00010FA04DAB4EEC78AF1EE10FA04D5B5EEA3
:102DF000408AF1EE10FAEDD1BDEEC86A5FED285AB7
:102E00001FED287AF8EEC67A16EE102A78EE677A69
:102E1000303287EEA86A8DF87D202E228DF87E2034
:102E200065228DF88520B0EE005ABDEEC66AF4EE3C
:102E3000C56AF8EEC64A16EE102AE4EEE87A303299
:102E40008DF87F20F1EE10FA87EE8A6ABDEEC66A31
:102E5000F8EEC64A16EE102AE4EECA7A02F1300203
:102E60008DF8802087EEA96ABDEEC66AF8EEC64AE4
:102E700016EE102AE4EEE97A02F130028DF8812094
:102E800087EE896ABDEEC66AF8EEC64A16EE102ACB
:102E9000E4EEC97A02F130028DF8822087EEA56A4D
:102EA000BDEEC66AF8EEC64A16EE102AE4EEE57AE2
:102EB00002F130028DF88320C7EE877AFDEEE77AC3
:102EC00017EE902A02F130028DF8842035DC2B2198
:102ED000334A8DF8861082FB0321DA17C2EBA10278
:102EE00002EB8201A3EB4103303330328DF888309E
:102EF0008DF887200DF1890E70E6DDE90A0101F1F8
:102F00000043119310909DED107B2D238DF87C30A4
:102F10001FAB8DED0A7B0DF17D0A0D939CE50EEB49
:102F20000103524613F8010D02F8010F7345F9D160
:102F300001318A4423E620233BE7002B0CBF2B21E1
:102F40002D21C5E7079A13460433116807938BE6D2
:102F5000079A134604331168079384E69FED0E7BAE
:102F60008DED0E7B99E507F063FD002814BF20204E
:102F70002D2069216E2266238DF87C008DF87D104E
:102F80008DF87E208DF87F300DF1800E26E601460B
:102F9000E1E500BFAFF30080000000000000F03F5B
:102FA000676666660EB410B587B009AC039054F836
:102FB000043B009403A800214FF0FF320594FFF773
:102FC000F3FB07B0BDE8104003B0704710B584B004
:102FD00004AC0B4644F8040D0021009220464FF04B
:102FE000FF32FFF7E1FB04B010BD00BF10B4084A88
:102FF000084C13680849002B08BF2346184410608A
:103000005DF8044B884294BF18464FF0FF3070477C
:10301000A80E00202033002000F8012038B5FDF76D
:10302000C3FF05464FF0500383F31188BFF36F8F42
:10303000BFF34F8F002806DD002420460134FDF742
:10304000BBFFAC42F9D1002D06DD0024204601343F
:10305000FDF7B8FFAC42F9D14FF4FA70FEF76EFA03
:10306000F1E700BF044B036010B42023034C0C6055
:1030700013605DF8044B7047841F0020AC0E0020E5
:10308000044B036010B44023034C0C6013605DF8E4
:10309000044B7047D8300020D82F0020704700BF65
:1030A00010B51A4C237884B00BB104B010BDFFF7F3
:1030B000F5FFFDF757FFF8B1154916480B78002BBF
:1030C00008BF002104F00EFEC8B11349134800F0F8
:1030D0007DF8134A134B144803218DE80E0000239A
:1030E00012494FF4806205F0B5FF114B186048B1EA
:1030F0000123237004B010BDFFF790FFDCE7FFF75A
:103100008DFFE2E7FFF78AFFF2E700BF64080020C7
:103110000802000860D8000800D30008D8E30008BF
:10312000300F0020301F0020217F0008F8D2000857
:103130002C0F002010B51B4C237884B013BBFFF775
:10314000ADFFFDF70FFF38B3174918480B78002B78
:1031500008BF002104F0C6FDD8B11549154800F09C
:1031600035F8154A154B164803218DE80E0000234B
:1031700014494FF4806205F06DFF134B186070B175
:103180000123237006F0A4F804B0BDE81040FFF757
:1031900045BFFFF743FFE0E7FFF740FFD4E7FFF746
:1031A0003DFFEDE7640800200802000860D8000831
:1031B00000D30008D8E30008300F0020301F0020A3
:1031C000217F0008F8D200082C0F00202DE9F843D9
:1031D0001E4A1F4E13683568013313600378044696
:1031E0002F2B894608BF013425B12846214609F016
:1031F000DBF9C8B1B76827B13846214609F0D4F9E0
:1032000090B1D6F81080B8F1000F04D040462146A6
:1032100009F0CAF940B15DB14FB10225B8F1000F14
:1032200006D00020BDE8F8830120BDE8F883012521
:10323000D9F8043098470028F3D006EBC50346F8C8
:103240003540C3F804900120BDE8F88380310020A8
:103250002C31002003782F2B01D0002070474378B9
:10326000EBB110B4104C22681A445278520710D0B7
:103270002F2B0ED0013006E022681A4452785207F4
:1032800007D02F2B05D001F8013B10F8013F002B90
:10329000F2D1002301200B705DF8044B704700232E
:1032A0000B700120704700BF3804002003782F2BDB
:1032B00001D0002070474378002BFAD010B4114A97
:1032C00014680130E21805E02F2B0CD010F8013FF4
:1032D000E21823B152785207F6D12F2B03D00020E9
:1032E0005DF8044B7047013003782BB101F8013BC6
:1032F00010F8013F002BF9D1002301200B705DF87D
:10330000044B70473804002003782F2B01D0002095
:1033100070472DE9F041447888B0451C6F466A46F5
:10332000CCB1334BD3F800E00EEB04035B785B07C2
:1033300011D02F2C0FD02846234604E0767876074C
:1033400009D02F2B07D002F8013B10F8013F0EEBFC
:103350000306002BF2D1DFF89C80D8F80000002390
:103360000E46137020B1394609F01EF9002839D0F5
:10337000D8F8080018B1394609F016F988B3D8F81A
:10338000100020B1394609F00FF970B3002074B174
:10339000174B1A68131905E02F2C0CD015F8014FA4
:1033A000131924B15B785B07F6D12F2C03D00020D2
:1033B00008B0BDE8F08101352B783A462BB102F810
:1033C000013B15F8013F002BF9D1002313700028B1
:1033D000EDD04368314638469B6B984708B0BDE84E
:1033E000F081012008EBC000D1E70220FAE700BF1E
:1033F000380400202C31002003782F2B01D000202E
:103400007047F0B5447889B0451C6E466A46B4B141
:103410002D4B1F683B195B785B0710D02F2C0ED00B
:103420002946234604E04078400708D02F2B06D0D9
:1034300002F8013B11F8013FF818002BF3D1234F9C
:1034400038680023137020B1314609F0ADF8002828
:1034500034D0B86818B1314609F0A6F868B33869B5
:1034600020B1314609F0A0F858B3002074B1164BD2
:103470001A68131905E02F2C0BD015F8014F1319FA
:1034800024B15B785B07F6D12F2C02D0002009B065
:10349000F0BD01352B7832462BB102F8013B15F80F
:1034A000013F002BF9D1002313700028EED04368B0
:1034B00030469B69984709B0F0BD012007EBC0007A
:1034C000D4E70220FAE700BF380400202C310020A6
:1034D00003782F2B01D0002070472DE9F04144786C
:1034E00088B0451C6F466A46CCB1334BD3F800E038
:1034F0000EEB04035B785B0711D02F2C0FD028460E
:10350000234604E07678760709D02F2B07D002F8FF
:10351000013B10F8013F0EEB0306002BF2D1DFF860
:103520009C80D8F8000000230E46137020B1394665
:1035300009F03AF8002839D0D8F8080018B139460F
:1035400009F032F888B3D8F8100020B1394609F0F4
:103550002BF870B3002074B1174B1A68131905E0EB
:103560002F2C0CD015F8014F131924B15B785B0791
:10357000F6D12F2C03D0002008B0BDE8F081013532
:103580002B783A462BB102F8013B15F8013F002B8E
:10359000F9D1002313700028EDD043683146384636
:1035A000DB69984708B0BDE8F081012008EBC00056
:1035B000D1E70220FAE700BF380400202C310020B8
:1035C0002DE9F04F03782F2B89B080460D4600F18E
:1035D000010410D04FF00009574FBB680133BB60A6
:1035E00098F800302F2B3FD0FB680133FB600020A0
:1035F00009B0BDE8F08F43786E46002B00F0918053
:103600004E4A1768FA185278520700F08A802F2B1A
:103610006A460DD0214604E04078400708D02F2BA1
:1036200006D002F8013B11F8013FF818002BF3D146
:10363000434F38680023137018B1314608F0B4FFC7
:1036400078B1B86820B1314608F0AEFF002870D0DC
:1036500038690028BED0314608F0A6FF0028B9D14D
:10366000022007EBC009B7E798F80130002BBBD068
:10367000324A1168CA1806E02F2B09D014F8013F0E
:10368000CA18002BB0D052785207F5D12F2BABD1EE
:10369000013423786E466A462BB102F8013B14F8D8
:1036A000013F002BF9D100231370B9F1000F9BD01B
:1036B00006F048FF234B5868A8B31A69AAB3DA6921
:1036C000AAB39A6A52B15A6B042442B106F05CFF65
:1036D000D9F804301B6807221A6085E7032404EB3D
:1036E000440A4FEA8A0A03EB0A08D9F80430C8F8FA
:1036F000043006F049FFD9F80430DFF848B01B6AFF
:1037000030462946984738B9D9F804301B68062254
:103710001A60C8F8040067E74BF80A0004F10A00D1
:1037200066E7324684E70446D9E70124D7E7022456
:10373000D5E7012095E700BF803100203804002044
:103740002C31002044310020F8B51E4C2369013390
:10375000236120B30A3804282DD8002A1DDD470034
:10376000194B3E1803EB8606357A6DB93844800054
:103770000344154E5B68F3B15B6A305898470028E4
:1037800013DB5DB10130F8BD4FF0000E0D70013A52
:10379000013186F808E00125E8E70020F8BD084679
:1037A000BDE8F840114603F067BD002D14BF0120AD
:1037B0004FF0FF30F8BD6369013363614FF0FF30B4
:1037C000F8BD00BF803100204431002070B5124C9C
:1037D000A369451E0133012DA3610FD90A380428BE
:1037E00013D800EB40000D4B80001D186D6865B1CB
:1037F000EC6A18582346BDE870401847144608463E
:10380000114604F089F8204670BDE3690133E36195
:103810004FF0FF3070BD00BF8031002044310020E8
:10382000F8B5104B1A6B0A38013204281A6314D801
:1038300000EB40000C4D84002E1972686AB1536B86
:10384000285917689847386006F07CFE002373609B
:103850002B5106F099FE0120F8BD5A6B01325A63D4
:103860000020F8BD803100204431002003782F2B48
:1038700001D0002070472DE9F0438DB045780DF15F
:103880001008471C4246B5B1434B186843195B7892
:103890005B0710D02F2D0ED03C462B4604E07678E7
:1038A000760708D02F2B06D002F8013B14F8013F11
:1038B000C618002BF3D1394E306800230C46137024
:1038C00020B1414608F070FE002863D0B06818B1FE
:1038D000414608F069FE58B1306928B1414608F008
:1038E00063FE4FF0020C28B100200DB0BDE8F0835C
:1038F0004FF0010C002D3ED0DFF89C90D9F800006D
:1039000043195B78590743D02F2D41D039462B46B8
:103910006A4606E09EF801E01EF0070F09D02F2B43
:1039200007D002F8013B11F8013F00EB030E002B1A
:10393000F0D1D9F800104B1900205B7810705B07AC
:1039400007D116E017F8015F4B19A5B15B785A074C
:103950000FD02F2DF6D101373B780DF111022BB18D
:1039600002F8013B17F8013F002BF9D10023137037
:1039700004E02F2DEFD02F23ADF8103006EBCC064E
:10398000404673682146DB6B98470DB0BDE8F08375
:103990006A46CEE78446ADE7380400202C3100208B
:1039A00001207047024600230B60184613607047E1
:1039B00000207047002070470020704700207047AB
:1039C0004FF0FF30704700BF10B401380E4B53F872
:1039D0003040ACB1002A0FDD03EBC0025268114445
:1039E00000290DDBA26891420ADC03EBC003084604
:1039F00059605DF8044B70471CBFA268511AEFE78D
:103A00004FF0FF30F5E700BF6C0800200020704742
:103A10000138034B002243F830200120704700BFDB
:103A20006C08002007490B46002243F8042B04339E
:103A30004A6043F8042B43F8042B43F8042B01207D
:103A40001A6070476C0800202DE9F041114D124FAB
:103A50000646002457F834304FEAC4082BB101342D
:103A6000032CF7D10020BDE8F081286820B9F6E7E3
:103A700055F80C0F0028F2D0314608F095FD0028CB
:103A8000F6D1B84447F83450C8F80400601CBDE8CB
:103A9000F08100BF54D300086C08002070B50A4BB9
:103AA0000A4C05460E4602E054F80C3F4BB118464E
:103AB000294608F079FD0028F6D1A368336001207B
:103AC00070BD184670BD00BF40D3000854D3000835
:103AD000F8B501380F4B53F83050BDB103EBC006B9
:103AE000AB687768DB1B23EAE3739A42A8BF1A46E8
:103AF00014460AB91046F8BD08466968394408F00A
:103B0000E9F97368234473602046F8BD4FF0FF3035
:103B1000F8BD00BF6C08002038B50D46084908F014
:103B200043FD50B9074C0848A1680022A84754F843
:103B30000C0F0028F8D1012038BD002038BD00BF8F
:103B400048D3000854D3000840D30008F0B589B02A
:103B5000431E0A1D0F4602A81C49FEF7D3FA002691
:103B6000354602A96846FEF7DBFA1949044680B1DA
:103B7000009BEBB15C68204608F016FD154930B19A
:103B8000204608F011FD0028EBD1019EE9E7012550
:103B9000E7E7B6B1304603F091FF0F4A0F4B00281C
:103BA00014BF1046184603F0DDFE204609B0F0BDF4
:103BB0003868064A6946FEF7ABFC0446204609B061
:103BC000F0BD294603F0BCFF0446EEE778D30008B9
:103BD000A8D30008ACD3000878EA00080CEC000871
:103BE0002DE9F04F8FB00A1D431E4FF47A754FF048
:103BF000FF3480460E4608A8434904950594FEF715
:103C000081FA424C424D434F4FF0000906A808A9E3
:103C1000FEF786FA002859D0069B002B66D05B6819
:103C2000A34249D0AB4257D0BB42EFD10B9B56F8D1
:103C3000230003F043FF0B9FC7EB08038246019369
:103C400006EB8707002841D0334B98423ED0334ED5
:103C50004FF0000B01983946D0478046002835D1F7
:103C6000B9F1000F04D0059B0BF1010B9B451FDA46
:103C7000049B032B9CBF0423049305F0A7FBFA24A9
:103C8000054605F0A3FB049B04FB03F3A6FB0323FB
:103C900005EB931398424FF002010DF10F00D9D2BA
:103CA000FDF7B2FF0130ECD09DF80F30032BE8D1C7
:103CB00040460FB0BDE8F08F04A90798FEF78EF9D3
:103CC00006A808A9FEF72CFA0028A5D14FF0010894
:103CD00040460FB0BDE8F08F079805A9FEF77EF9C2
:103CE000059B002B0CDD4FF001098FE73068064A79
:103CF00006A9FEF70DFC804640460FB0BDE8F08FE8
:103D00004FF0FF38D4E700BF20D8000858EA000879
:103D100024EC000810EC0008E13B0008D34D6210D1
:103D2000F8B5037C002B04460F4614BF01258025FF
:103D3000082615E0FDF7BAFCA068FDF7E5FBA188B1
:103D40002078FDF7B3FCA068FDF7DEFB2078A188A2
:103D5000FDF7B4FC237C6A004BB1013ED5B20AD01A
:103D60003D426078E188E5D1FDF7A8FCE4E7013E3B
:103D70004FEA5505F4D1E1886078FDF797FCA0681B
:103D8000FDF7C2FB2078A188FDF790FCE188607800
:103D9000FDF7ACFC0546A068FDF7B6FB2078A188CE
:103DA000FDF78CFCB5FA85F04009F8BDF8B5274D54
:103DB00055F8204007460E46002C3DD02078A188BB
:103DC000FDF710FC6078E188FDF70CFC3368B568FE
:103DD000F06877682360E2786760A560E060A178AA
:103DE00033692361012505FA02F305FA01F1E38045
:103DF000A180207889B2FDF729FC6078E188FDF781
:103E00003DFCE1886078FDF759FCA068FDF77CFB7C
:103E1000A1882078FDF752FCA068FDF775FBA1880A
:103E20002078FDF743FCA068FDF76EFB6078E18821
:103E3000FDF73CFC2846F8BD142006F0D7FC0446EC
:103E400010B145F82700C1E7F8BD00BF8408002085
:103E50002DE9F84F914CDDF828A054F82040002CB3
:103E600000F0F6800D461E4691466078E188002BF2
:103E700034D0FDF71BFCA068FDF746FBA188207835
:103E8000FDF714FCA068FDF73FFBE1886078FDF7C3
:103E900015FCA068FDF738FB2078A188FDF70EFC23
:103EA0000B9B002B5BD09DF82C102046FFF738FFB2
:103EB000002800F0D680002EC8BF761906DD15F860
:103EC000011B2046FFF72CFFB542F8D1BAF1000FD5
:103ED00049D10C9B23B30120BDE8F88FFDF7E6FB29
:103EE000A068FDF711FBA1882078FDF7DFFBA06833
:103EF000FDF70AFBE1886078FDF7E0FBA068FDF7BD
:103F000003FB2078A188FDF7D9FB0B9B23BBE3685B
:103F10005B00D9B22046FFF703FF002800F0A18024
:103F2000E1886078FDF7CAFBA068FDF7EDFAA1888B
:103F30002078FDF7C3FBA068FDF7E6FAA18820789A
:103F4000FDF7B4FBA068FDF7DFFA6078E188FDF7C4
:103F5000ADFB0120BDE8F88F9DF82C10DAE7E3688F
:103F60005B00D9B2A1E7E1886078FDF79FFBA0680C
:103F7000FDF7CAFAA1882078FDF798FBA068FDF745
:103F8000C3FAE1886078FDF799FBA068FDF7BCFAF9
:103F90002078A188FDF792FB0B9B002B5BD09DF84E
:103FA0002C102046FFF7BCFE00285AD0BAF1000FB3
:103FB0008FDD09F1FF390AF1FF3B4FF00008237C48
:103FC0006078E188002B14BF012680260825FDF7C4
:103FD0006DFB002702E0013DD6B21BD0A068FDF7C3
:103FE00093FA2078A188FDF761FB6078E188FDF7FE
:103FF0007DFB00B13743A068FDF786FA2078A188E1
:10400000FDF75CFB237C7200002BE4D1013D4FEAFD
:104010005606E3D1C3456078E18816DCFDF746FB20
:10402000A068FDF771FAA1882078FDF73FFBA06832
:10403000FDF76AFA08F101082078A188FDF73EFB38
:10404000D04509F8017FBAD143E7FDF737FBE7E731
:104050002046BDE8F88FE368590041F00101C9B27C
:104060009FE7E1886078FDF729FBA068FDF74CFA2F
:10407000A1882078FDF722FBA068FDF745FAA1880A
:104080002078FDF713FBA068FDF73EFA6078E18821
:10409000FDF70CFB4FF0FF30BDE8F88F84080020DF
:1040A0002DE9F04F0B68ADF5197D8946824608A9C8
:1040B000D81C002308930A93FDF790FF10B1089BCA
:1040C000013B08934FF48033002405250D9312A87B
:1040D000A4490F9509F104020AF1FF3310948DF8F9
:1040E000444005940494FEF70DF8A046A3469E4D67
:1040F0009E4C9F4E0BA812A9FEF712F828B30B9BFB
:10410000002B00F0A7805F68A74255D0AF4260D077
:10411000B74263D0974A974248D0974A974255D0C2
:104120003846964908F040FA002842D0384694496B
:1041300008F03AFA002856D101230BA812A98DF8ED
:104140004430FDF7EDFF0028D9D1049B002B40F04F
:10415000DB80059B002B40F0DF80159A059C013227
:104160005245159209AD80F09B8018AE09E0159A72
:104170002B68335501325245159204F1010480F049
:104180009080294659F82200FDF728FF3146002883
:10419000EDD17C4803F0D0FB159B59F8230003F0C8
:1041A000E1FB01200DF5197DBDE8F08F012304939B
:1041B000A0E74FF0010B9DE70C9810A9FDF70EFF4B
:1041C000002800F0C3804FF0010893E70123059316
:1041D00090E70C980FA9FDF701FF8BE70C980AA94F
:1041E000FDF7FCFE86E73846674908F0DDF968B15F
:1041F0003846664908F0D8F9002835D0644A974215
:104200007FF478AF159B013B15939EE707A90C98A7
:104210000A2208F0ADFC079B8DF83400A3B11A7890
:104220002E2A11D1581C07905B786BB107A90A227E
:1042300008F09EFC079B8DF83600002B3FF45AAF28
:104240001B78002B3FF456AF524803F0ADFB4FF004
:10425000FF3005E0D9F80000424A0BA9FEF758F9F3
:104260000DF5197DBDE8F08F07A90C980A2208F01A
:104270007FFC079B8DF83500002BE5D01A782E2A9D
:10428000E2D1581C07905B78002BDDD007A90A22E9
:1042900008F06EFC079B8DF83700002BD0D129E782
:1042A00018A908980A9AB8F1000F4BD0109B58AE85
:1042B0008DE80C0823463246FFF7CAFD2860002827
:1042C00042D0013048D00A9B002B1BD04FF0000396
:1042D0002B6017DD1C4605E02B680A9A01339A42D1
:1042E0002B600BDDF15C2C4803F08CFB04444E2C5E
:1042F000F2DD0A2002F0F0FF0024EDE714B10A20FD
:1043000002F0EAFF0020ABE708980DA9FFF74EFD89
:10431000B0FA80F04009A3E7089E204D55F82640EA
:10432000002CEFD02078A188FDF75CF96078E18857
:10433000FDF758F9204606F065FA049B45F826304B
:1043400018468DE74346B2E7012089E7204603F08F
:104350002BFB4FF0FF3083E7114803F025FB0220D1
:104360007EE700BF44DB000818EB000830EA0008D5
:1043700020EA0008C4EB00085CEB0008F4DB00084E
:10438000FCDB000808DC000800DC000804DC000896
:104390002CEC00089CEB000818DC000884080020C6
:1043A00014DC0008F8B5304D55F8204007460E469D
:1043B000002C50D020782189FDF714F960786189AC
:1043C000FDF710F9A078A189FDF70CF9E078E189F3
:1043D000FDF708F973683268B068F1686360E160FE
:1043E00094F806C094F807E0A0602260237967790A
:1043F000B0693269012505FA03F105FA07F7736917
:10440000A06105FA0CF605FA0EF0636122612181C4
:10441000E08189B220786781A681FDF7E3F86078B2
:104420006189FDF713F9A078A189FDF70FF9E0780C
:10443000E189FDF70BF9E078E189FDF737F9237E93
:10444000A078A1891BB9FDF739F92846F8BDFDF719
:104450002DF92846F8BD1C2006F0C8F9044610B115
:1044600045F82700B6E7F8BDA4080020F8B5394B99
:1044700053F82050002D6AD04F798E7991F807E0DB
:104480000A7908780C46012303FA02F103FA07F7C8
:1044900003FA06F603FA0EF321816781A681E38110
:1044A0002B7883424CD089B2FDF79CF8687863780A
:1044B000834240D06989FDF795F860786189FDF7FE
:1044C000C5F8A878A378834230D0A989FDF78AF887
:1044D000A078A189FDF7BAF8237EA078A189002BE6
:1044E00032D1FDF7EBF8E878E378834203D1E27943
:1044F000EB799A420AD0E989FDF774F8E078E1890E
:10450000FDF7A4F8E078E189FDF7D0F82268636848
:10451000A168E068E8602A606B60A960226963694D
:10452000A169A9612A616B610120F8BDA279AB790B
:104530009A42CAD1D7E762796B799A42BAD1C0E779
:104540002B799342AFD1B1E7FDF7B0F8CBE728461E
:10455000F8BD00BFA40800202DE9F04F5B4C83B0EC
:1045600054F820B00092BBF1000F00F0AB801C4665
:104570009BF818309BF802008A46BBF80C10002B01
:1045800077D1FDF79BF89BF80300BBF80E10FDF701
:1045900095F8DBF81000FCF7B7FF002C78D0AAF1F3
:1045A000040A01940125DBF814305AF8047F9BF8C3
:1045B00019809BF81890002B61D00026344637E014
:1045C000E243134405FA03F33B429BF80100BBF8B6
:1045D0000A1039D0FDF76AF8C8459BF80200BBF80D
:1045E0000C1039D0FDF762F8DBF81000FCF78CFFF7
:1045F0009BF80200BBF80C10FDF760F89BF8000078
:10460000BBF80810FDF772F848B19BF81A309BBB55
:10461000DBF81430013B1B1B05FA03F31E43DBF8E8
:104620001000FCF771FFDBF814300134A34227D9E6
:104630009BF81A20002AC3D005FA04F33B429BF8EA
:104640000100BBF80A10C5D1FDF738F8C8459BF842
:104650000200BBF80C10C5D1FDF730F8DBF81000F4
:10466000FCF752FF9BF80200BBF80C10FDF71EF898
:10467000C4E7FDF71BF886E705FA04F3CEE71E460C
:10468000009B43F8046B0093019B013B01938AD18B
:104690009BF818307BB19BF80200BBF80C10FDF7BB
:1046A00005F89BF80300BBF80E10FCF7FFFF012094
:1046B00003B0BDE8F08F9BF80200BBF80C10FCF7CC
:1046C000FDFFEEE7584603B0BDE8F08FA4080020D8
:1046D0002DE9F04FADF2544D0A6801908B4600234E
:1046E000D01C03A90393FDF779FC10B1039B013B98
:1046F0000393A34B0E93019BA249A34F00240825CB
:10470000052607A80BF10402013B12950D948DF8C4
:104710004C408DF84D408DF84E4000941196FDF7B9
:10472000F1FCA046A146A246984D994C05A807A9C0
:10473000FDF7F6FC10B3059B002B00F0BA805E6815
:10474000A6425AD0AE4252D0BE4267D0914A96425B
:1047500050D0914A964255D0904A96426ED03046FB
:104760008F4907F021FF00284FD1012305A807A991
:104770008DF84C30FDF7D4FC0028DCD1BAF1000FE5
:1047800040F08C80B8F1000F40F03B81009B002B83
:1047900040F03F810A9801301E460A90019B9842E2
:1047A00080F0598114AB03EB86045BF820002146AE
:1047B00004AAFDF735FC002800F06D810A98049BDF
:1047C0000130013621460A90002B7CD001360A6860
:1047D00041F8042F802E03F1FF33F5DD7148049377
:1047E00003F0E2F801200DF2544DBDE8F08F4FF0D8
:1047F00001099BE74FF0010A98E7069811A9FDF718
:10480000EDFB93E70123009390E73046664907F0FC
:10481000CBFEB0B901238DF84D3087E7069812A979
:10482000FDF7DCFB002881D0129B013B1F2B7FF69C
:104830007DAF384603F0B8F80120D4E74FF0010807
:1048400074E73046594907F0AFFE18B901238DF8D7
:104850004E306BE73046564907F0A6FE002834D0AC
:104860003046544907F0A0FE00286DD0304652492A
:1048700007F09AFE002800F0A78030464F4907F065
:1048800093FE002844D04E4A96427FF44FAF0A9BD5
:10489000013B0A93BAF1000F3FF474AF03980DA9DE
:1048A000FFF780FDB0FA80F040090DF2544DBDE8ED
:1048B000F08FDBF80000334A05A9FDF729FE0DF261
:1048C000544DBDE8F08F049368E702A906980A22C8
:1048D00008F04EF9029B8DF83400A3B11A782E2A05
:1048E00011D1581C02905B786BB102A90A2208F022
:1048F0003FF9029B8DF83800002B3FF417AF1B786F
:10490000002B3FF413AF2F4803F04EF801206AE765
:1049100002A906980A2208F02BF9029B8DF83700AD
:10492000002BF0D01A782E2AEDD1581C02905B781B
:10493000002BE8D002A90A2208F01AF9029B8DF890
:104940003B00002BDBD1F1E602A906980A2208F011
:104950000FF9029B8DF83500002BD4D01A782E2A3F
:10496000D1D1581C02905B78002BCCD002A90A222E
:1049700008F0FEF8029B8DF83900002BBFD1D5E678
:104980000001020318DE000850EA000820EA0008CF
:1049900018EB0008C4EB00085CEB000800EB000813
:1049A00020DC000840DC000828DC0008FCDB0008F4
:1049B00030DC000834DC000838DC00083CDC00088F
:1049C0002CEC00089CEB000802A906980A2208F0CB
:1049D000CFF8029B8DF83600002B94D01A782E2A3F
:1049E00091D1581C02905B78002B8CD002A90A222E
:1049F00008F0BEF8029B8DF83A00002B7FF47FAFE1
:104A000094E603980DA9FFF731FDB0FA80F0400954
:104A1000E9E6039E274D55F82640D4B12078218938
:104A2000FCF7E0FD60786189FCF7DCFDA078A189E6
:104A3000FCF7D8FDE078E189FCF7D4FD204605F0CD
:104A4000E1FE45F826804046CDE614B10A2002F08A
:104A500043FC0020C7E656B3039814A994AA334632
:104A6000FFF77AFD08B3B9F1000FF2D00024254614
:104A700093AF01E0B542E8DA0F4857F8041F02F09F
:104A8000C1FF04444E2C05F10105F3DD0A2002F0BC
:104A900023FC0024EEE7094802F04EFF0A9B5BF876
:104AA000230002F05FFF01209DE601209BE64FF00E
:104AB000FF3098E6A408002048DC000808DC000865
:104AC0002DE9F04789468EB00EA9D9F800300022B2
:104AD000824641F8342D581DFDF780FA10B1019B34
:104AE000013B019300240126052508A878498DF88B
:104AF000144009F104020AF1FF338DF815408DF8D6
:104B00001640ADF818600795FDF7FCFAA046274659
:104B1000704D714C714E03A808A9FDF701FB90B1CF
:104B2000039B002B75D05B68A34243D0AB4243D0BC
:104B3000B34248D06A4A934241D06A4A934247D02E
:104B4000694A9342E7D1002F73D1B8F1000F40F0CA
:104B50009C800B9B534580F0AC8059F8230002A940
:104B6000FDF73CFA00285DD0604B019A029D53F896
:104B70002240002C59D09DB983E0FCF79FFDA0682E
:104B8000FCF7C2FCA3782078A188002B70D0FCF73A
:104B90008DFDA068FCF7B8FC05F0F6FC013D70D077
:104BA00005F0D0FCA3782078A188002BE5D1FCF794
:104BB0007DFDE4E70127AEE74FF00108ABE70123F5
:104BC0008DF81630A7E7049807A9FDF707FAA2E7C2
:104BD000694604980A2207F0CBFF009B8DF8140069
:104BE00093B11A782E2A0FD1581C00905B785BB1D4
:104BF00069460A2207F0BCFF009B8DF81500002BC8
:104C000089D01B78002B86D0394802F0CDFE0120D8
:104C100005E0D9F800002E4A03A9FDF779FC0EB093
:104C2000BDE8F087334802F0BFFE01200EB0BDE8BA
:104C3000F087019E2D4D55F82640002C3ED020785F
:104C4000A188FCF7CFFC05AB07CB206063786160DF
:104C500001219940A1802078A26089B2FCF7F6FC7E
:104C6000A7782078A18807BBFCF728FD3846D6E74F
:104C7000FCF724FDA068FCF747FC05F085FC013D2E
:104C80008ED100200EB0BDE8F087019E174D55F87B
:104C900026408CB12078A188FCF7A4FC204605F0C2
:104CA000B1FD45F826703846B9E7FCF7FFFC002057
:104CB000B5E74FF0FF30B2E73846B0E70C2005F01B
:104CC00095FD04460028B0D045F82600BBE700BF9C
:104CD000A8DD00085CEB0008C4EB000818EB000836
:104CE00028EA000898EA000848EA0008940800202A
:104CF0009CEB000824EC00082DE9F04F8B4695B0A2
:104D000014A9DBF800300022044641F8242D181DB8
:104D1000FDF764F910B10B9B013B0B930026631E5A
:104D20000EA8B349B34CB44D0BF10402FDF7EAF9F8
:104D3000B046079604960196B1463746039602960A
:104D4000059606960CA80EA9FDF7EAF9002839D0B9
:104D50000C9B002B00F0A380D3F804A0A24500F028
:104D60008580AA4500F088805046A44907F01CFCC5
:104D7000002879D05046A24907F016FC002878D0C8
:104D80005046A04907F010FC002800F082809E4B9E
:104D90009A4500F082819D4B9A457DD09C4B9A4567
:104DA00000F0CA809B4B9A4500F08280029A9A4B91
:104DB0000CA89A4508BF01220EA90292FDF7B0F98E
:104DC0000028C5D1059B002B75D1029B002B40F01C
:104DD000FE80069B002B40F0D280019B002B40F010
:104DE0008280B8F1000F40F02181002F40F05981FE
:104DF000B9F1000F40F06F81039B002B00F04B8155
:104E0000864D0B9F049C082605EB8708A94611E0F8
:104E1000FCF77AFB19F82700B8F80210FCF746FCFB
:104E200005F0B2FB2D20FCF76FFB013E4FEA540466
:104E300000F0C98005F086FB15F82700B8F80210CD
:104E4000FCF73CFC14F0010A4FF00F00E0D13C20CD
:104E5000FCF75AFB19F82700B8F80210FCF726FCFB
:104E600005F092FB5046DEE701276BE74FF00108A3
:104E700068E74FF0010965E70D9809A9FDF7AEF85D
:104E800000283FF45FAF9DF824300493012303937F
:104E900058E70123019355E70123069352E7DBF816
:104EA0000000534A0CA9FDF733FB15B0BDE8F08FA5
:104EB0000123059346E70B9D584C079A04F82520DB
:104EC00004EB85070123B340104699B27B807E70C6
:104ED000FCF7D4FB14F825007988FCF7E7FB0020E9
:104EE00015B0BDE8F08F0B9D4C4C04EB850605F02A
:104EF00029FB718814F82500FCF7E0FB0120FCF782
:104F000003FB718814F82500FCF7D0FB0920FCF79F
:104F1000FBFA718814F82500FCF7E8FB044605F05D
:104F200033FB3220FCF7F0FA211C18BF01213C486A
:104F300002F068FD0698B8E70A220AA90D9807F062
:104F400017FE0A9BC2B207929BB11A782E2A10D183
:104F5000581C0A905B7863B10AA90A2207F008FE80
:104F60000A9BC6B2002B3FF4EDAE1B78002B3FF43A
:104F7000E9AE2C4802F018FD4FF0FF3095E70B9D8D
:104F8000264C04EB850614F825007188FCF796FB87
:104F90004FF4FA70FCF7B8FA05F0D4FA718814F8F7
:104FA0002500FCF783FB3C20FCF7AEFA14F8250043
:104FB0007188FCF79BFB044605F0E6FA4FF4967007
:104FC000FCF7A2FA74B9002015B0BDE8F08F0B9A77
:104FD000124B03EB820113F822004988FCF702FB15
:104FE000059862E7104802F0BDFC01205DE700BFB4
:104FF00008DF000820EA0008A8EB000850DC0008E1
:1050000054DC000858DC0008F4EB000864EB0008EE
:1050100098EA0008C4EB00085CEB0008B408002024
:1050200040E500089CEB00085CDC00080B9E374D57
:10503000019C05EB8608082705F084FAB8F80210F1
:1050400015F82600FCF73AFB0120FCF75DFAB8F8EA
:10505000021015F82600FCF729FB0920FCF754FA8A
:10506000B8F8021015F82600FCF740FB814605F061
:105070008BFA3220C4F34704FCF746FAB9F1000F6B
:1050800001D044F08004013FD6D12146204802F0EF
:10509000B9FC384609E7012007E7119B013B119352
:1050A00090E60B9D194C04EB850605F04BFA7188D0
:1050B00014F82500FCF702FB3C20FCF725FA14F855
:1050C00025007188FCF7F2FA05F05EFA4046FCF71D
:1050D0001BFA4046E9E60B9D0C4C04EB850605F0F7
:1050E00031FA718814F82500FCF7E8FA0F20FCF774
:1050F0000BFA14F825007188FCF7D8FA05F044FA89
:105100002D20FCF701FA3846CFE600BFB408002096
:1051100040E5000838B5094B1B6804460D4623B12D
:105120001846214607F040FA30B92946224604487D
:10513000BDE8384002F066BC38BD00BFC40800209E
:1051400018E000082DE9F047DCB00024431E0A1DDA
:105150008A4608A887498DF83840FCF7D3FF864D6A
:10516000864E2746A046A14608A904A8FCF7D8FF0A
:105170008349044608B3049B002B4FD05C68AC42C3
:1051800020460CD0B4420DD007F00EFA7D4B58B13A
:105190009C42E9D10EA8059907F072FBE4E74FF0B5
:1051A0000108E1E70127DFE706A8FCF78DFD02A86B
:1051B000FCF728FE4FF00109D6E79DF83830002BA8
:1051C00000F08A80B8F1000F01D1002F43D00020F9
:1051D00002F09CFD064678B307F0B0FB054640B3ED
:1051E000694B6A490EA8002F08BF1946FEF7E8F977
:1051F0000746F0B1B9F1000F76D131462A46FEF7E5
:10520000E5FAA8421DD03846FEF70AFB304605F005
:10521000F9FA012420465CB0BDE8F087DAF8000016
:10522000544A04A9FDF774F9044620465CB0BDE871
:10523000F087304605F0E6FA012420465CB0BDE870
:10524000F0873846FEF7ECFA304605F0DBFA2046E8
:105250005CB0BDE8F08703A90EA8FEF755F800285A
:10526000EAD00EA84A49FEF7ABF905460028E3D07C
:105270002746B9F1000F14BF64224FF48C72284600
:1052800016A9FEF761FA061E62DB374456D016A84F
:105290003146B9F1000F22D006AB2FAAFCF71AFD58
:1052A00001462FA802F038FB6423B34246DC039B7F
:1052B0009F4243DA0DF107000021FCF7A5FC013005
:1052C000D7D09DF80730032BF4D12846FEF7A8FA73
:1052D0000A2002F001F8A8E74FF0FF34A5E702F03A
:1052E0001BFB4FF48C73E0E730464FF00008037867
:1052F000002BA6D00A2B1BD0431C01E00A2A19D090
:105300001D46191A13F8012B002AF7D1002998D04D
:1053100016AA02ABFCF77AFD814638B1384616A9C9
:105320004A46FEF753FA48457FF46DAF2846DEE75C
:105330000546002185F800800135E7E7B9F1000F47
:105340000ED12846FEF76CFA124802F0F5FA6CE727
:105350002846FEF765FA0A2001F0BEFF012464E743
:1053600006A916A8FCF71EFD014616A802F0D4FAFD
:10537000E7E700BFC8DF0008A8EB0008E8EA00087C
:105380002CE00008D8EA000828E0000824E0000823
:10539000D8E3000834E0000870B588B0431E0A1D49
:1053A0000E4602A81449154CFCF7ACFE00256846D1
:1053B00002A9FCF7B5FE58B1009B93B15B68A3420C
:1053C000F5D1684602A9019DFCF7AAFE0028F3D199
:1053D00075B12846FEF710F8B0FA80F0400908B021
:1053E00070BD3068044A6946FDF792F808B070BD98
:1053F0004FF0FF30F3E700BF98E00008D8EA00085C
:1054000070B588B006460D460A1D431E1649174C56
:1054100002A8FCF777FE04E0009B63B15B68A3423F
:1054200010D0684602A9FCF77BFE0028F4D14FF0AB
:10543000FF3008B070BD28680B4A6946FDF768F870
:1054400008B070BD059B01980133B342EFD255F807
:1054500023100028EBD00029E9D0FEF739F8B0FA84
:1054600080F0400908B070BDB8E00008D8EA000834
:1054700070B5C8B006460D460A1D431E2A492B4C7E
:1054800002A8FCF73FFE04E0009B63B15B68A34207
:1054900010D0684602A9FCF743FE0028F4D14FF073
:1054A000FF3048B070BD28681F4A6946FDF730F8E4
:1054B00048B070BD059B01980133B342EFD255F857
:1054C00023400028EBD0002CE9D01949FEF778F8EA
:1054D000054610B9012048B070BD20461549FEF7B9
:1054E0006FF8064638B91AE03046FEF76FF9844285
:1054F0000CD1FF2C0ADD08A94FF480722846FEF774
:1055000023F908A9044602460028EDD12846FEF7F3
:1055100087F93046FEF784F9002048B070BD284670
:10552000FEF77EF90120BCE7A8DF0008D8EA0008F2
:10553000D8E3000828E000082DE9F04792B0431EA8
:105540000A1D0F4604A84649464DFCF7DBFD002620
:10555000684604A9FCF7E4FD044668B1009B002BF3
:1055600045D05B68AB42F3D1684604A9019EFCF7C5
:10557000D7FD04460028F1D18DF82800002E40D038
:1055800002A93046FDF766FE002864D00DF1280818
:1055900030464146FDF78AFE334FDFF8D890254666
:1055A00057F8356002A93046D6B106F0FDFF314606
:1055B0002F23A8B99DF828208DF80830002A14BFA1
:1055C000434600230DF10900C9F8003007F058F9EF
:1055D0003146264802F016FA02A82549FEF746F998
:1055E0000135032DDCD1204612B0BDE8F0873868C4
:1055F0001B4A6946FCF78CFF0446204612B0BDE802
:10560000F0870DF128084146FDF750FE164FDFF8F0
:1056100064A0254657F835600DF148092F230DF198
:105620000900314601359EB19DF8282009F8403D1A
:10563000002A14BF43460023CAF8003007F020F9BF
:1056400031460A4802F0DEF948460949FEF70EF9EC
:10565000032DDFD1C7E70124204612B0BDE8F08753
:1056600078E0000840EA00082C31002030E0000813
:1056700015510008C40800202DE9F04389B0431EED
:105680000A1D894602A81D49DFF87C801C4F0025B1
:10569000FCF738FD2E4608E0009BABB15B689845EF
:1056A00008BF01269F4208BF0125684602A9FCF7F2
:1056B00037FD04460028EFD18EB9E5B1FCF75CF95F
:1056C000204609B0BDE8F083D9F800000B4A6946CE
:1056D000FCF71EFF0446204609B0BDE8F083FCF746
:1056E00059F90146074802F08DF9002DE6D1204610
:1056F00009B0BDE8F083FBF775FCFEE748E1000860
:1057000064EB000870E9000868EA00082DE9F04F32
:105710009DB000244FF47A730E4605468B460D93D8
:105720000F941094119412941394FBF71DFF3246BA
:105730006B1E0990043216A8A549A64DA64EA74F88
:10574000FCF7E0FC4FF0FF33049402940094A14670
:105750000794059403940194A246A04608940693E6
:1057600014A816A9FCF7DCFC00282DD0149B002BF4
:1057700000F092805B68AB4262D0B34263D0BB4220
:1057800066D0974A934268D0964A93426AD0964A26
:1057900093426CD0954A934200F08C80944A934295
:1057A00069D0944A934200F08280934A9342D7D1C1
:1057B0000DA91598FCF712FC012314A816A908934B
:1057C000FCF7AEFC0028D1D18346B8F1000F5AD0C7
:1057D00040460A220EA907F0CBF90E9A804622B164
:1057E00011782E294AD000294DD1CDF828B04FF09C
:1057F000FF35B8F1000F46DB099B434543DD0A9BAB
:10580000002B5ED1B9F1000F40F0D280009B002B3D
:1058100040F05C81029B002B40F06581049B002BD3
:1058200040F0CE80002C4ED0079813A9FCF7D6FB91
:10583000002848D1714802F0B7F84FF0010B27E07B
:10584000DDF854808CE7DDF854A04FF0010987E7BC
:10585000159B01930123009382E7159B039301237A
:1058600002937DE7159B05930123049378E7159B2D
:105870000793012474E70123069371E7501C0E90EF
:105880005278002A7ED15E4802F08EF84FF0010B6C
:1058900058461DB0BDE8F08FDBF800004C4A14A953
:1058A000FCF736FE834658461DB0BDE8F08F002356
:1058B000069355E70999534802F0A4F84FF0000BFE
:1058C000E6E71F2DDFD8B9F1000F69D1009B002B4F
:1058D00040F0F980029B002B40F01581049B002BC7
:1058E00040F0238184F001030993012202FA05F3B9
:1058F0000B93454F23464C4699460A9B002B00F0DC
:10590000858044B1069B5A1C00F0E8801A46404648
:105910000B99FBF77FFE009B002B40F0BD80029BA4
:10592000002B40F0B480049B002B3CD1B9F1000F58
:1059300040F0C480099B002B40F0B380089B002BF3
:10594000A6D00D9B032B9CBF04230D9303F03EFDBB
:10595000FA25064603F03AFD0D9B05FB03F3A7FB72
:10596000032306EB931398424FF002010DF133002D
:10597000C3D2FCF749F90130ECD09DF83330032B4A
:10598000E8D185E70A220EA907F0F2F80E9A05463B
:105990001AB11278002A7FF476AF01230A9328E720
:1059A00000230993A1E740460B99FBF787FEBDE76B
:1059B00050460FA9FCF712FB00283FF43BAF25E748
:1059C000059812A9FCF70AFB00283FF433AF29E73A
:1059D00078E1000804EC0008E0EA000820EB000889
:1059E00074EB000858EB0008D0EA000824EC00082B
:1059F000C0EA0008B4EA000858EA000818EC0008F9
:105A00009CEB000840E50008D34D62105CB1069B9A
:105A1000013370D0BAF1000F00F084800F99069A1C
:105A20004046FBF7F7FD009B33B1019B002B6DD087
:105A300010994046FBF70AFE029B33B1039B002BF3
:105A400067D011994046FBF731FE049B33B1059BAB
:105A5000002B61D012994046FBF730FEB9F1000FE0
:105A600006D0079B002B5AD013994046FBF72EFE19
:105A7000099B002B3FF462AF4FF0FF314046FBF72C
:105A800035FE01F0DDFF2B4801F056FF56E740469A
:105A90000B99FBF70BFE46E740460B99FBF7D6FD4B
:105AA0003DE740460B99FBF721FE234A234B002894
:105AB00014BF1046184601F03FFF3FE740460B99E0
:105AC000FBF704FE36E7CDF824900EE7019810A905
:105AD000FCF784FA00283FF4ADAE9BE640460B99F4
