:020000040800F2
:10000000008001205D020008C10F0008C50F000834
:10001000C90F0008CD0F0008D10F00080000000034
:1000200000000000000000000000000021A5000802
:10003000D50F000800000000B1A5000815A60008B3
:10004000C1020008C1020008C1020008C102000884
:10005000C1020008C1020008C1020008C102000874
:10006000C1020008C1020008C1020008C102000864
:10007000C1020008C1020008C1020008C102000854
:10008000C1020008C1020008C1020008000000000F
:10009000000000000000000000000000C102000895
:1000A000C1020008C1020008C1020008C102000824
:1000B000C1020008C1020008C1020008C102000814
:1000C000C1020008C1020008C1020008C102000804
:1000D000C1020008A11A0008C102000800000000C7
:1000E000C1020008C1020008C102000800000000AF
:1000F000000000000000000000000000C102000835
:1001000000000000C1020008C1020008C10200088E
:1001100000000000000000000000000000000000DF
:10012000C1020008C1020008C1020008C1020008A3
:10013000C1020008000000000000000000000000F4
:10014000000000000000000000000000C1020008E4
:10015000C1020008C1020008C1020008C102000873
:10016000C1020008C10200080000000000000000F9
:10017000000000000000000000000000000000007F
:1001800000000000C10200080000000000000000A4
:08019000C1020008C1020008D1
:100198003C6D637573683E00323031393131323429
:0801A8002D31343136313700EE
:0201B00000004D
:0801B40094B2000001000000FC
:1001C00070B4840746D0541E002A41D0CDB20346F5
:1001D00002E0621EE4B3144603F8015B9A07F8D10B
:1001E000032C2ED9CDB245EA05250F2C45EA05454D
:1001F00019D903F110022646103E0F2E42F8105C6A
:1002000042F80C5C42F8085C42F8045C02F110020F
:10021000F2D8A4F1100222F00F0204F00F04103201
:10022000032C13440DD91E462246043A032A46F8ED
:10023000045BFAD8221F22F003020432134404F0B4
:1002400003042CB1C9B21C4403F8011BA342FBD127
:1002500070BC704714460346C2E700BFDFF844D0C5
:10026000002103E0104B5B58435004310F48104B02
:1002700042189A42F6D30F4A02E0002342F8043BA8
:100280000D4B9A42F9D30D4A03E05FF0A53342F8D3
:10029000043B044B9A42F8D300F014F80AF0A6FA93
:1002A000704700000080012010F1000800000020CD
:1002B0004C08002058080020D00C002000780120B5
:1002C000FEE7000010B41049104BD1F88820104C04
:1002D00042F47002C1F888201A68002042F001023E
:1002E0001A6098601A6822F0847222F480321A60D0
:1002F0005C601A684FF0006422F480221A60D860B3
:100300008C605DF8044B704700ED00E0003802405F
:100310001030002430B4184BDB68C3F30223C3F160
:100320000705042D03F1040428BF0425062C17D962
:10033000033B01249C40013C22400124AC40013C91
:1003400021409940002842EA01020CDB00F16040A4
:1003500000F561401201D2B280F8002330BC704732
:1003600000221346E9E7054B00F00F001201034499
:10037000D2B21A7630BC704700ED00E0FCEC00E031
:1003800000F01F0101234009024A8B4042F820304F
:10039000704700BF00E100E02DE9F04F002283B07C
:1003A000DFF8A0E1DFF8A0A1614E01274FF0030CB8
:1003B000814603E00132102A00F0AC800B6807FA96
:1003C00002F003408342F5D14C6824F0100002286B
:1003D00012D1D50809EB850502F007002C6A8000D0
:1003E0004FF00F0808FA00F824EA08080C69844066
:1003F00048EA04042C624C68D9F800004FEA42082D
:100400000CFA08F504F00304ED4304FA08F428405C
:100410000443C9F800404C6824F01004013C012C4E
:1004200013D8D9F80840C8682C4000FA08F02043D7
:10043000C9F808004868D9F80440C0F3001090409B
:1004400024EA03042043C9F80400D9F80C40886862
:10045000254000FA08F02843C9F80C004868C50098
:10046000A8D54FF00008CDF80480DEF8440040F431
:100470008040CEF84400DEF8444022F0030000F152
:10048000804004F4804400F59C30019402F00304A1
:10049000019DD0F808B0A4000F25A540D1452BEA56
:1004A000050B11D0234DA94537D0234DA94537D091
:1004B000224DA94539D0224DA9450CBF4FF0040863
:1004C0004FF0070808FA04F848EA0B0585604C6805
:1004D0003068DD43E4034CBF1843284030604C686B
:1004E0007068A4034CBF1843284070604C68B06823
:1004F000E4024CBF18432840B0604C68F068A40286
:1005000002F1010254BF05EA00030343102AF3601D
:100510007FF454AF03B0BDE8F08F07FA04F8D3E7D7
:100520004FF0020808FA04F8CEE70CFA04F8CBE71B
:10053000003C01400004024000080240000C024060
:10054000001002400038024000000240054B5A6A89
:1005500042F480725A625A6A22F480725A6201200E
:10056000704700BF00380240064B9B68DB0707D48A
:1005700043680A6823F44033134343600120704703
:1005800000207047002001408368DA070BD583689C
:1005900023F070638360836823F47023836083682F
:1005A00023F0010383608368DB074DD410B4046833
:1005B0002649274B274A24F03F0404604468214021
:1005C000416081680B408360C36803F07843C36077
:1005D000036903F040430361436923F47F6323F01D
:1005E0000F034361836923F47F6323F00F03836167
:1005F000C36923F47F6323F00F03C361036A23F409
:100600007F6323F00F030362436A6FEA13336FEAD9
:1006100003334362836A23F47F6323F00F0383620F
:10062000C36A03F07F43C362036B03F04043036379
:10063000836B9B0D9B058363536823F40303536013
:1006400001205DF8044B70470120704700003FF81F
:10065000FCF08080002301408368DB0713D430B4B2
:1006600042688D680C6822F040732C4323F4807339
:100670002343436083684A6823F400631343836021
:1006800030BC012070470020704700BF8368DB0743
:1006900023D44B6870B4C3B9436823F46843436000
:1006A00086680D69CC680E4A0B6832402C432243A1
:1006B00003F0706313438360C36A4A6823F47003D2
:1006C0001343C36270BC0120704742688C6822F4F7
:1006D0006842234313434360E2E70020704700BFB2
:1006E000FDFCFFC011F5803F21D030B4644B654C58
:1006F0005B5C1A58A04222F001021A5021D0624AD3
:1007000090424DD0614A00242125146054609460C9
:10071000D460146155611A5822F060621A500029A1
:100720002ED13F2383600121084630BC7047554BD2
:10073000984200F08E80544B98426FD000210846BA
:10074000704700293BD0012964D0022976D00329C3
:1007500078D0042900F08B80052900F08C800629D0
:100760004BD007294BD0494A0024212514605460FE
:100770009460D460146155611A5822F060621A5076
:1007800001292CD002292ED0032931D0042938D0B8
:1007900005294ED0062957D0072936D00021C3E7B6
:1007A00079B9103200212124116051609160D1602B
:1007B000116154611A5822F060621A50B1E7344A4C
:1007C000F0E7012928D002293AD003294DD0042985
:1007D0004FD0052951D00629C5D12E4AC4E74FF480
:1007E00074638360A0E74FF47C13836001219BE76F
:1007F0004FF074638360012196E7274AB4E7274AE4
:10080000B2E73F23C36001218EE74FF07463C360FA
:10081000012189E7224AA7E7224AA5E7224B1A6964
:1008200042F480021A611A6922F480021A610121DD
:1008300085E74FF47463C360012175E71B4A93E7B2
:100840001B4A91E71B4A8FE74FF47C13C3600121D9
:100850006AE7A3F5205301211A6942F400121A61D4
:100860001A6922F400121A6169E7134A7CE7134AF5
:100870007AE7134A78E7134A76E7134A74E700BF2A
:10088000E8D000080060024000640240B864024002
:1008900010600240A0640240A0600240B8600240C4
:1008A0002860024028640240003802404060024054
:1008B0004064024058600240586402407060024048
:1008C000706402408860024088640240F0B5D768D6
:1008D0009668234B1569546913F801E0D169936A4E
:1008E0003E4335432C43956950F80E602C43214319
:1008F00026F45F360B4326F478761E4340F80E60EC
:10090000D16A00EB0E03B1B15C69156B24F00704EA
:1009100029432143596150F80E40516B24F0C074B3
:10092000214340F80E1050F80E40916B24F4C0049F
:10093000214340F80E105168D960116899605968D8
:10094000146A090C09042143596050F80E30526AA8
:1009500023F06063134340F80E300120F0BD00BF68
:10096000E8D000082DE9F0410D6895FAA5F3B3FA37
:1009700083F335FA03F400F0A0801A464C6801278F
:1009800003264FF00F0E05E00D68013235FA02FC28
:10099000134657D007FA03F32B40F6D0D0F8008067
:1009A00093FAA3FCBCFA8CFC93FAA3F54FEA4C0C27
:1009B00006FA0CFCB5FA85F56D0028EA0C08AC4087
:1009C00048EA040404604C68013C012C48D9C5681D
:1009D00093FAA3FCBCFA8CFC93FAA3F44FEA4C0CF8
:1009E00006FA0CFC25EA0C080D69B4FA84F46400DC
:1009F000A54048EA0505C5604C68022CC4D193FAAD
:100A0000A3F4B4FA84F4072C4FEA13253EDC046AFD
:100A100093FAA3F5B5FA85F593FAA3F3AD000EFAB0
:100A200005F524EA050C4C69B3FA83F39B009C405E
:100A30004CEA040404620D684C68013235FA02FC89
:100A40001346A7D1013C012C07D8CB68426803FBB1
:100A500005F322EA05051D4345600120BDE8F0814C
:100A6000846893FAA3FCBCFA8CFC93FAA3F54FEAD2
:100A70004C0C06FA0CFC24EA0C088C68B5FA85F5D7
:100A80006D00AC4048EA04048460A0E7446A95FA2B
:100A9000A5FCBCFA8CFC95FAA5F34FEA8C050EFA7E
:100AA00005F524EA05084C69B3FA83F39B009C40E2
:100AB00048EA040444624C6866E74C68C2E700BF39
:100AC000F0B41F4A936803F00C03042B35D0082BB5
:100AD00019D01C4B1A4A036091681B4D1B4CC1F383
:100AE0000311695CCB4043609168C1F38221615C72
:100AF00023FA01F181609268C2F34232A25CD340D2
:100B0000C360F0BC704757685568536851680D4E14
:100B10000F4CC1F30141C3F3881217F4800F01F1A8
:100B2000010108BF344605F03F034900B4FBF3F36D
:100B300002FB03F3B3FBF1F3CCE7054BCAE700BFBD
:100B4000003802400024F400D0D00008E0D00008B3
:100B500040787D01274A0368904233D0B0F1804F3E
:100B600022D0A2F57C4290421ED002F580629042D3
:100B70001AD002F58062904216D002F59A32904265
:100B800016D002F58062904212D002F58062904247
:100B90000ED003608B68C3620B888362436943F0A5
:100BA00001034361012070474A6823F07003134337
:100BB000CA6823F440731A4302608B68C3620B88CF
:100BC0008362EBE74A6823F0700310B41A43CC68E1
:100BD00022F44072224302608B68C3620B888362F6
:100BE0000B7C0363436943F0010343615DF8044BED
:100BF00001207047000001400023036043608360D0
:100C0000C360036143618361C3617047F0B510291C
:100C100083B003466DD048D9B1F5807F24D0B1F5BB
:100C2000805F63D1016A684F21F480510162006ADC
:100C300011695E68DC69556820F4005040EA0131B2
:100C400024F4E640146821F48051BB4241EA0531A6
:100C500040EA042000F085805E60D861D2681A64A2
:100C60000120196203B0F0BD016A574F21F4807171
:100C70000162006A11695E68DC69556820F40070E1
:100C800040EA012124F07300146821F48071BB4212
:100C900041EA052140EA040469D05E60DC61D26863
:100CA000DA630120196203B0F0BD01291ED1016A87
:100CB000454F21F001010162016A106955685C68C5
:100CC0009E6921F00201014321F0010129431568C9
:100CD00026F07300BB4240EA05005FD05C6098617B
:100CE000D2685A630120196203B0F0BD002003B03E
:100CF000F0BD016A344F21F010010162006A1169F0
:100D00005E689C69556820F0200040EA011124F4D7
:100D1000E640146821F01001BB4241EA051140EAA7
:100D2000042407D05E609C61D2689A630120196236
:100D300003B0F0BDD069019097695069956821F0C2
:100D4000800126F4806641EA801146EA8706019810
:100D500021F0400126F4006641EA851146EAC0060A
:100D6000E0E7946926F4804646EA841674E7D06981
:100D7000019097695069956821F4006126F48056C6
:100D800041EA802146EA0716019821F4806126F4A1
:100D9000005641EA852146EA40167EE724F4807E2B
:100DA000576994699668D56921F008014EEA040EE6
:100DB00041EA870121F004012EF4007E41EA860118
:100DC0004EEA45048AE700BF00000140C3689B0467
:100DD00001D50020704770B50446CE684B68E268C4
:100DE00008690D4633438969184322F416430143C9
:100DF00023F00C030B43E3602269AB6822F44052FA
:100E00001343236162696B6922F44072134384B017
:100E100063616846FFF754FE264B9C4208D0264B80
:100E20009C4229D0254B9C4202D0002004B070BDCA
:100E3000039B002BF9D02A68002AF6D0A969204824
:100E400003EB8303B1F5004F03EB830316D092004D
:100E5000B3FBF2F3A0FB03214909642202FB113228
:100E600012013232A0FB0223C3F3471303EB011339
:100E70009BB2A3600120D9E7029BDAE75200B3FBE3
:100E8000F2F3A0FB03125109642202FB1133DB00D1
:100E90003233A0FB0323C3F34F1303F0070202EB2B
:100EA000011203F0F80302EB43039BB2A36001209D
:100EB000BCE700BF001001400044004000140140A6
:100EC0001F85EB51054A064BA2FB00208009013823
:100ED00000210522586099601A607047D34D621056
:100EE00010E000E0014B1860704700BF2C040020A8
:100EF00008B500F0D7F9BDE8084000F0B3BC00BF6A
:100F0000704700BF08B500F07BFA00F013FD00F059
:100F1000D7FC00F0FBFA00F009F8FFF7F1FF002022
:100F200000F01CFD003018BF012008BD08B50220EC
:100F30004FF4005100F05AFB02204FF40051BDE87D
:100F4000084000F083BB00BF0120704702204FF42F
:100F5000005100F083BB00BF02204FF4005100F0AD
:100F600075BB00BF02204FF4005100F07FBB00BFF3
:100F700008B54FF40051022000F082FBB0FA80F077
:100F8000400908BDBFF34F8F0549064BCA6802F4FC
:100F9000E0621343CB60BFF34F8F00BFFDE700BF9C
:100FA00000ED00E00400FA0508B501460C2201231B
:100FB000024801F039F8012008BD00BF107AFF1F78
:100FC000FEE700BFFEE700BFFEE700BFFEE700BF91
:100FD000FEE700BFFEE700BF2DE9F04FA1B020A95A
:100FE000A54FA648A64DA74E0F23002441F8543D17
:100FF0004FF0020803230C93CDF8348010940F9423
:10100000FFF7B0FC7B6C43F480737B647B6C03F470
:10101000807301932846019BFFF798FA20A94FF4AB
:10102000003341F8803D2846FFF79EFA3046FFF72F
:10103000ABFA03A94FF480733046059304940394EC
:101040004FF44075FFF708FB4FF4E00306A9304664
:10105000CDF824800694089407930A95FFF716FBB1
:101060008949DFF834E24FF0007292FAA2F04FF0B3
:10107000F873B0FA80F022FA00FC93FAA3F093FA26
:10108000A3F05EF82C0040F007004EF82C0095FA13
:10109000A5F04FF4007CB0FA80F02CFA00FC51F877
:1010A0002C0020F01F0041F82C007848048092FAB0
:1010B000A2F0B0FA80F022FA00FA93FAA3F0B0FAA4
:1010C00080F093FAA3F94FF4401828FA00FB4FF090
:1010D000070C5EF82A00B9FA89F90CFA0BFB28FA1A
:1010E00009F80CFA08F820EA0B0040EA08004EF86C
:1010F0002A0095FAA5F04FF40078B0FA80F028FAAB
:1011000000F851F8280020F4787040F0200041F8F1
:1011100028005E48448092FAA2F0B0FA80F022FAE9
:1011200000FB93FAA3F9B9FA89F993FAA3FA4FF4F9
:10113000C0085EF82B00BAFA8AFA28FA09F90CFA04
:1011400009F928FA0AF820EA09000CFA08F940EA35
:1011500009004EF82B0095FAA5F04FF40078B0FA8C
:1011600080F028FA00F851F8280020F4F84040F404
:10117000006041F828004548848092FAA2F0B0FA55
:1011800080F0C24093FAA3F8B8FA88F893FAA3F370
:101190004FF410095EF82200B3FA83F329FA08F835
:1011A0000CFA08F829FA03F920EA08000CFA09FCFD
:1011B00040EA0C004EF8220095FAA5F54FF40073B2
:1011C000B5FA85F523FA05F2314D51F82230DFF8F2
:1011D000CC80DFF8CC9023F4782343F4C03341F87B
:1011E0002230B368294A43F00103D480B3603B6BDB
:1011F00043F480033B633B6B03F480030293029B45
:101200002B6823F001032B6021464046FFF76AFA62
:101210004FF4807314931D4B129321464FF4006CCE
:101220004FF4005E11AA0323404604274FF4806860
:101230004FF4803A1D93139415941A941C941E94A1
:101240001F94CDF84490CDF85880CDF85CC0CDF80F
:1012500060E01997CDF86CA0FFF738FB2B680D4ABA
:1012600043F001032B60B368012143F08043B36076
:10127000117021B0BDE8F08F00380240000002403C
:1012800000230140002001402C200140D00C002010
:1012900010640240580800200C2001400064024005
:1012A0004C20014010B586B006A90F23002441F858
:1012B000183D0E4801940223029305940494FFF70D
:1012C00051FB0B48836823F001038360FFF75CF94F
:1012D000084A0948136823F0010313602146FFF709
:1012E00001FA064B1C7006B010BD00BF00000240A2
:1012F00000200140106402400064024058080020B1
:1013000008B50F4B33F8100007EE900AF8EEE77AB5
:1013100017EE900A09F0F0FC07A3D3E9002309F0C7
:101320003FFD0022074B09F03BFD09F0F3FF00EE03
:10133000100A08BDAFF300806666666666660A40FE
:10134000D00C00200000303F0420704738B52449FD
:101350000A68234B9003FBD55D68224C2248234941
:10136000234A2C4020435860586820F4403058608D
:10137000586801400A435A601A6842F080721A6045
:101380001A461168164B8901FBD59A6822F0F002C3
:101390009A609A6822F4E05242F480529A609A6805
:1013A00022F460429A609A6822F0030242F002023C
:1013B0009A601A46936803F00C03082BFAD10D4883
:1013C000FFF780FD0C4A0B48136843F004031360D9
:1013D000FFF788FD094B0022D96883F8232038BD28
:1013E000003802400080BFFF193040000080BFF08D
:1013F0001930400400D8B80510E000E000ED00E02E
:1014000030B5244A244B546C2449254844F4804484
:101410005464546C83B004F480440194019C146CB3
:1014200044F080541464146C04F080540094009CC4
:10143000DD684FF6FF042C402143D9600021DC68B1
:101440001976DC685976DC689976DC68D977DC68CF
:1014500083F82010DC6883F82210DC6883F82310FE
:10146000036823F00F0343F003030360036803F0F2
:101470000F03032B00D0FEE70A490B6843F44043F7
:101480000B60136843F480331360FFF75FFF03B012
:1014900030BD00BF0038024000ED00E00003FA0557
:1014A000003C02400070004082B0002210F1FF308A
:1014B00012D30192019B032BF8D800BF00BF00BFDD
:1014C00000BF00BF00BF019B01330193019B032BB1
:1014D000F3D910F1FF30ECD202B0704782B041F680
:1014E000641210F1FF300CD30192019B002BF8D055
:1014F000019B013B0193019B002BF9D110F1FF30BF
:10150000F2D202B0704700BF062070471C4B1A6B26
:1015100042F001021A631A6B86B002F001020092D7
:10152000009A1A6B42F002021A631A6B02F002026E
:101530000192019A1A6B42F004021A631A6B02F0CC
:1015400004020292029A1A6B42F008021A631A6BA2
:1015500002F008020392039A1A6B42F010021A6317
:101560001A6B02F010020492049A1A6B42F0800285
:101570001A631B6B03F080030593059B06B070474D
:101580000038024000B587B006AB094A43F8181D81
:1015900052F820001946022200230193039304937A
:1015A00005930292FFF7DEF907B05DF804FB00BF78
:1015B000F0D0000810B5002A86B002D0D4BF0222B5
:1015C000012206AB084C43F8181D0492194602226A
:1015D000002354F820000193039305930292FFF730
:1015E000C1F906B010BD00BFF0D0000810B586B03C
:1015F00006AB094A43F8181D52F82000194602228A
:101600000023012401940393049305930292FFF7AE
:10161000A9F906B010BD00BFF0D0000810B586B023
:1016200006AB094A43F8181D52F820001946022259
:101630000123002401930393049305940292FFF77E
:1016400091F906B010BD00BFF0D00008024B53F86E
:1016500020309961704700BFF0D00008024B53F86A
:101660002030090499617047F0D00008034B53F80B
:101670002020536959405161704700BFF0D00008E5
:10168000024B53F82030186908407047F0D000082A
:101690004163704781637047C1637047016470475D
:1016A0002DE9F04F644C236C95B043F001032364A3
:1016B00014AB256C0F2443F8484D05F00105044692
:1016C0000F46019519464FF0010E022300265B4894
:1016D000019D059315460393CDF818E00496FEF797
:1016E0005BFE002C00F0A0806100002FD8BF6427B3
:1016F000534A544B544CDFF86891CCBFB8B23846CB
:101700004FF0804B1080DBF8000020F00100CBF898
:101710000000B2F900201B68002D4FF0000A02F112
:10172000FF32B8BF322601FB07F15846B3FBF1F395
:1017300007A903F1FF330992ADF81C30ACBFAEB27C
:101740003546CDF820A0CDF828A08DF82CA0FFF7C5
:1017500001FA0CA8FFF750FA3C4FCDF83CA06022EC
:101760000123CDF840A00C920D9334F8028B4FF07A
:10177000804041460CAAFFF749FAB8F1010F4FD05B
:10178000B8F1040F4AD0B8F1100F4BD0B8F1400FA8
:101790004DD0B8F5807F4CD0B8F5806F0CBF0522D6
:1017A00006222B4919F8023011F802C0294903F129
:1017B000804311F802E02849885C9A69032101FA04
:1017C0000CF122EA01029A61DBF8201057F82A3066
:1017D000022202FA0EF221EA0202CBF82020DBF804
:1017E00004104FF48072824021EA02024FF08048D8
:1017F000CBF80420404629469847184B23F81A6036
:101800000AF1010ABAF1040FAFD1D8F8003043F061
:101810000103C8F8003015B0BDE8F08F0122C0E721
:101820000022BEE70222BCE74FF4FA615DE7032223
:10183000B7E70422B5E700BF0038024000000240CD
:10184000300400202C04002010D1000818D100081A
:1018500008D1000828D1000838D100085C08002011
:1018600030D1000800B587B006A90F2341F8143D18
:101870000222002307480492029305930393FEF784
:101880008BFD4FF08042136823F00103136007B013
:101890005DF804FB0000024038B50446054B4FF0EC
:1018A000804053F824300D469847034B23F81450DA
:1018B00038BD00BF18D100085C0800200420704724
:1018C00008B50F4A136843F4807313600120FFF7D3
:1018D00005FE0C4B0C4A1968914207D00A4A1A605F
:1018E0004FF0FF31002299605A6008BD99685A682C
:1018F000C9438A42F2D10132D14399605A6008BD8E
:10190000007000404C080020424F4F54044B054AE1
:101910001A6000214FF0FF3259609A60704700BF93
:101920004C080020424F4F54014B5868704700BF8D
:101930004C080020044B45F2555040F6FF7102223E
:10194000186099605A60704700300040024B4AF6B8
:10195000AA221A60704700BF003000402DE9F04114
:10196000012194B000220746802006F0EFFC454C90
:10197000454E206001218020002206F0E7FC25680A
:101980003060002D7AD0002875D028463F49404C61
:1019900007F0B6F830683F4907F0B2F83E4B3F48D1
:1019A0001A6B42F001021A631A6B02F001020192F3
:1019B000019A5A6C42F010025A640DF150085B6CA7
:1019C0004FF4007248F8342D03F01003002607226C
:1019D0000293414602230C92029D0893099301252C
:1019E0000A960B96FEF7BEFF4FF4806341462B48E4
:1019F00007930B95FEF7B6FFB74208BF4FF4165793
:101A00000C230DA9204611930D970E960F96109654
:101A100012961396FFF7DAF9E3686FF4007143F456
:101A200000536FF04002E36021602260236803935B
:101A3000039B63680393039B23680493049B63687D
:101A40000493049B23680593059B63680593059B9A
:101A500023680693069B63680693069BE36843F03E
:101A600020033246E36025200A21FEF753FC25209F
:101A7000FEF786FC284614B0BDE8F081284614B075
:101A8000BDE8F081F00B0020EC0B002040D10008F5
:101A90000010014044D1000800380240000002401C
:101AA00010B584B00023204C0293E3681B0602D5D6
:101AB0002368180625D41C4B1A68910616D41A4BB5
:101AC0001A68120706D55A681A680392039A5B6867
:101AD0000393039B029B3BB1144B4FF080521A605F
:101AE000BFF34F8FBFF36F8F04B010BD04A95B68C5
:101AF00001F8093D0E4B02AA1868002306F0C4FD48
:101B0000DDE70C4B0DF10701186802AA06F0A8FFEB
:101B1000012804D0E36823F08003E360CBE79DF85D
:101B200007306360C7E700BF0010014004ED00E02C
:101B3000F00B0020EC0B00200120704708B5064B8D
:101B40000021186806F0BAFB044B00211868BDE8B4
:101B5000084006F0B3BB00BFF00B0020EC0B0020E8
:101B600010B5074B044601464FF0FF32186806F0E7
:101B7000EFFD002814BF20464FF0FF3010BD00BF1E
:101B8000F00B002010B5064B04460A4601461868C3
:101B900006F0DEFD002814BF20464FF0FF3010BDD8
:101BA000F00B00202DE9F0410F1E82B021DD04462C
:101BB00000EB0708114D124E01E007F03DFD2378C0
:101BC0008DF8073028680DF107014FF0FF32002330
:101BD00006F002FC01284FF00100EED1F368044446
:101BE00043F080034445F360E9D1384602B0BDE8D4
:101BF000F0810027384602B0BDE8F081EC0B0020F0
:101C00000010014030B5054683B00C4C01E007F0F0
:101C100013FD20688DF807500DF107014FF0FF32DA
:101C2000002306F0D9FB01284FF00100EFD1044A50
:101C3000D36843F08003D36003B030BDEC0B0020C9
:101C4000001001400023037043704360704700BFE1
:101C5000F0B51C785E78012C01444BD048D3022C9F
:101C600044D1884214463CD007782C4D46EA97165A
:101C70003F2E98BF15F806E007F03F0688BF4FF0EB
:101C80003D0EAD5D84F800E065705D680135132D93
:101C900000F101005D602FD00234884238D0067810
:101CA0001E4DB70806F00306ED5D257001303601C4
:101CB00004F1010E884225D0077846EA17163F2E18
:101CC00098BF164D00F1010094BFAD5D3D2507F0B2
:101CD0000F0688420EF101044FEA86068EF8005086
:101CE000C2D102215E70A01A1970F0BD0020F0BDB3
:101CF0001446D2E79646DDE70A270025A77003348D
:101D00005D60CAE701215E70C2EB0E001970F0BD84
:101D100000215E70A01A1970F0BD00BF48D1000804
:101D20000B78012B18D0022B05D003460A2203F8AA
:101D3000012B181A70474B783F2B9CBF0F4AD15C80
:101D4000034688BF3D2103F8021B3D2242700A2250
:101D500003F8012B181A70474B783F2B9CBF074A9A
:101D6000D25C4FF03D034370837088BF3D22C31C9B
:101D700002700A2203F8012B181A704748D1000894
:101D80000023037043707047F0B45C7814701C78C3
:101D9000032C7FD8DFE804F04E341A0201441646C3
:101DA0003D4F88425AD010F8015BA5F12B042A2D33
:101DB000E4B2F6D9502CF4D83C5D2506F1D4357840
:101DC00004F03F042C433470013635E001441646DC
:101DD000314F884249D010F8015BA5F12B042A2D20
:101DE000E4B2F6D9502CF4D83C57002CF1DB35780E
:101DF000C4F383073D43A401357074700136CFE707
:101E000001441646244F884236D010F8015BA5F1F4
:101E10002B042A2DE4B2F6D9502CF4D83C57002CD0
:101E2000F1DB3578C4F301173D432401357074703C
:101E30000136CDE701441646174F884223D010F8EB
:101E4000015BA5F12B042A2DE4B2F6D9502CF4D86D
:101E50003C57002CF1DBA4003470D3E70321197048
:101E600031785970B01AF0BC70470221197031787E
:101E70005970B01AF0BC704701211970317859704F
:101E8000B01AF0BC70470021197031785970B01A3F
:101E9000F0BC70470020E6E78CD10008704700BF17
:101EA000704700BF01F07AB8F0B583B005460E4622
:101EB00007F07AFA234AA2FB00342409D6B9224853
:101EC000224A2349A0FB04635B09A0FB036040098D
:101ED000C3EB0316A4EB8606C0EB0010A2FB044282
:101EE000A3EB80030096D20A284601F01BF828468F
:101EF00003B0F0BD144EDFF854E01649A6FB04739E
:101F0000FA2707FB14005B094FF47A77A6FB03C698
:101F100007FB00F0A2FB0020C3EB03177609A4EB3C
:101F20008707C6EB0616AEFB044200090190A3EB3F
:101F300086030097D20A284600F0F4FF284603B033
:101F4000F0BD00BFD34D621089888888C5B3A291C7
:101F5000F0D10008DCD10008F8B103780BB91846BD
:101F6000704730B583B00D46002201A904460AF03F
:101F7000EBFD019B73B19C4201D10BE0019313F87F
:101F8000012B202AFAD0092AF8D01AB9286001209A
:101F900003B030BD002003B030BD704728B3F0B5AA
:101FA000067883B016B9002003B0F0BD14460D4684
:101FB000002201A907460AF0C7FD019B0646002B37
:101FC000F1D09F4201D1EEE7019313F8010B2028D5
:101FD000FAD00928F8D02A2809D00028E3D10346EE
:101FE00001202E60236003B0F0BD0020704718462A
:101FF00001A900221F4601930AF0A6FD019B002BB8
:10200000D1D09F4201D1CEE7019313F8012B202AB2
:10201000FAD0092AF8D0002AC5D1012871F10003AD
:10202000DDDB431EDCE700BFF0B532B38D1C871843
:102030000478240904F1300604F1370E092C94BF0A
:102040003446744605F8024C10F8014B04F00F04B6
:1020500004F1300604F1370E092C94BF344674465F
:10206000B84205F8014C05F10205E1D101EB42024D
:102070000BB1002313700846F0BD0A46F8E700BF15
:10208000F8B504460F4616461D4600211822FEF7F5
:1020900097F827606660A560F8BD00BF0346002280
:1020A0002DE9F04F03F8012B0133427003F8012BA7
:1020B00003F8012B03F8012B03F8012B03F8012B84
:1020C0001A70CE688B689E4283B04CD2D1F80480DF
:1020D00058F826700C4605467B49022238460AF01D
:1020E0003BFCF8B9237DD80741D5226813786BB142
:1020F000002102E012F8103F43B1042BFAD123690A
:102100008B4201F10101F5D1216113462B60E36897
:102110006268591CE16052F823306B60012003B003
:10212000BDE8F08F3B782D2BDFD1237DDA07DCD49F
:10213000731CE36058F826707A78002A72D02668FB
:10214000337823B96EE016F8103F002B6AD0013BBC
:10215000012BF8D8B3789342F5D12E603378022B57
:1021600074D00120DBE7104603B0BDE8F08F731C8C
:10217000E36058F8263001933D2118461E460AF0C8
:1021800037FC06F102098046002876D0C9EB00062C
:1021900022681378002B4AD0924626B93CE01AF800
:1021A000103F002B43D0013B012BD346F7D8DAF880
:1021B00004703846002FF2D00AF0A0FB8642EED120
:1021C0003946484632460AF0C7FB0028E7D1C5F831
:1021D00000B09BF80030032B05D1237D43F00103B1
:1021E00023759BF80030022BBBD1B8F1000F59D0FA
:1021F00008F101036B6098F80130002BB1D19BF816
:102200000130990735D500236B60012087E7012A4B
:1022100012D91AF8103F53B1032B03F1FF32D34602
:10222000F5D1D4E7002385E88800012077E7002373
:10223000019A6A602B6094E7DAF804301846002BA4
:10224000E7D00AF05BFB0028E3D1C0E738460AF08C
:1022500055FB022816D9BB1C6B60BB783D2B80D187
:10226000FB1C6B60FB78002B7FF47BAF73789B07C4
:10227000C9D4164B6B60012051E748460AF03EFB7B
:10228000064685E7737813F0020FE36810D0A16863
:102290005A1C8A42B7D86168E26051F823306B60FB
:1022A00001203CE79BF8013013F0020FE368EED108
:1022B000A268591C9142DCD8626852F82300007869
:1022C0002D287FF427AFD4E704D20008F4ED0008EE
:1022D00070B502460E465948594905F03DFB0028A5
:1022E00025DB337806F1100423B94FE014F8103BD6
:1022F000002B4BD014F80F5C6807F7D4514805F059
:102300002BFB002813DB14F8103C022B12D0042BFB
:1023100005F0010518D0052B24D0032B73D014F839
:102320000E1CC9B1484805F017FB0028DEDA4FF053
:10233000FF3070BDA9071DD454F80C1C54F8082CAC
:10234000424805F009FBF0E7002D60D154F80C1C61
:102350003F4805F001FBE8E754F80C1C3D4805F048
:10236000FBFAE2E7002D58D154F80C1C3A4805F06E
:10237000F3FADAE714F80E1C002954D154F80C1CB7
:1023800054F8082C354805F0E7FACEE734483549CB
:1023900005F0E2FA33780546344683B924E06268F2
:1023A000002A46D0304805F0D7FA0546002DBEDB9E
:1023B000E068D8B105F080FA14F8103FA3B1627854
:1023C0005207F9D4032BF7D0E0680028F4D0043B7F
:1023D000012B0FD9A1780029E1D1616881B123488F
:1023E00005F0BAFA0546E1E7E81770BD204805F0A8
:1023F0004DFAE1E71F48616805F0AEFA0546D5E7FA
:10240000002DD7DA93E71C4805F0A6FA8DE754F8BB
:102410000C1C1A4805F0A0FA87E754F80C1C184861
:1024200005F09AFA81E754F8082C164805F094FA5A
:102430007BE7154805F090FA0546B7E708D2000893
:10244000B8EE000858E7000864D2000830D200084F
:1024500048D200086CD2000858D2000824D20008E4
:1024600010D20008D8EE00087CD200088CD20008F8
:10247000CCE1000874D2000804D2000840D2000861
:1024800050D2000818D2000898D20008F8B50746C4
:1024900048680D46164650B10C490AF065F80446E6
:1024A00028B938463146FFF713FF2046F8BD0849E2
:1024B000084A094805F050FA686805F0FDF9384601
:1024C0003146FFF705FF4FF0FF34EEE7ACD20008CE
:1024D00068EE0008E8ED0008B4D20008F0B5002A64
:1024E000059C069F6CDD91F800C0BCF1000F2FD059
:1024F0000E46002516F801EF0135BEF1000FF9D1A7
:10250000AA4226DC724613F0020F0CBF4FF0200ED9
:102510004FF0300E13F001031DD1002A14DD3B688B
:1025200000285FD015469C4208D9036883F800E074
:102530000368013303603B6801333B60013DF2D126
:1025400091F800C01346002266464EB91846F0BD09
:102550006546521BD7E76646BCF1000F5BD00023EF
:102560003D6840B3AC4207D905682E700568013557
:1025700005603D6801353D6011F8016F0133002EA3
:10258000F0D1002AE2DD3968002836D015468C42A9
:1025900008D9016881F800E00168013101603968FB
:1025A00001313960013DF2D19818F0BD11F8016F89
:1025B0000133002EE5D0AC42F8D96FF00100F0BD38
:1025C00013F0010307D191F800C066464FF0200ECA
:1025D000002EC5D1BAE70E784FF0200E002EBED1E6
:1025E0003046F0BD054601E0013A11D09C4205F1AC
:1025F0000105F9D96FF00100F0BDD01801E0834268
:1026000008D08C4203F10103F9D96FF00100F0BD4D
:102610002A4697E7F0BD6346B3E700BFF0B587B041
:102620000F46109D002949D00C468646002B30D11C
:1026300000238DF817300DF11701002F35D01E46FD
:102640000E9B0DF11701A3F13A07B4FBF2F302FB65
:1026500013443819092CC8BF0446303401F8014D21
:102660001C46002BF1D106B30C9B002B38D12D2337
:1026700001F8013C0C9A002401390F9B70468DE84B
:1026800028000D9BFFF72AFF002800DB204407B03D
:10269000F0BD0A2ACCD10029CADA00234C428DF8B9
:1026A0001730002C3BD00126CAE7119BABB12B237E
:1026B00001F8013C002401390C9ADEE70F9B0C9ACB
:1026C0008DF80D708DE82800302403A90D9B8DF83E
:1026D0000C40FFF703FF07B0F0BD1C460C9ACCE797
:1026E0000D9B9B07C3D52B680F9A9A420ED9BEF15A
:1026F000000F11D0DEF800302D221A70DEF8003005
:102700000133CEF800302B6801332B600C9B013B6A
:102710000C9301241A46B0E76FF00100B7E70DF102
:102720001701A1E7000000002DE9F04F2DED068B09
:10273000B5B0013A1D780C9100241146449A1494C6
:1027400083460792002D00F0F980DFED908A9FED1F
:1027500090AADFED909A9FED909AA14688461A467E
:1027600019E0149B98450ED9BBF1000F00F08D8045
:10277000DBF800301D70DBF80010149B01310133D1
:10278000CBF80010149309F1010914466578621C16
:10279000002D00F0D480252DE3D15378541C002B5C
:1027A00000F0CD80252B77D02D2B03BF9378941C80
:1027B000012600262B2B71D00022099203E014F889
:1027C000013F46F00206302BF9D02E2B33D0A3F177
:1027D0003002D2B2092A2ED90622089200276C2B89
:1027E00004BF63780134682B5DD0583B202B44D85C
:1027F000DFE813F068034300430043004300430055
:1028000043004300430043004300C6010E0297010A
:10281000D600D6004300430043004300430043007A
:1028200043004300E00143004300B50043002E0293
:10283000430043002702002706232246BA461D46CE
:10284000144612F8013BA3F130012E2BC8B20ED072
:10285000092805EB850C07EB870E0CD8BAF1000FA1
:1028600002D000EB4C05EBE701EB4E07E8E7002553
:102870004FF0010AE4E70895B1E7149B984540F250
:102880001882BBF1000F40F0FC816FF0010035B001
:10289000BDEC068BBDE8F08F224662E7012263782B
:1028A000099214448FE76378583B0134202BE4D815
:1028B00001A252F823F000BFD12E00087B280008A7
:1028C0007B2800087B2800087B2800087B2800085C
:1028D0007B2800087B2800087B2800087B2800084C
:1028E0007B280008812B0008F52C0008232B00080A
:1028F000A1290008A12900087B2800087B280008DE
:102900007B2800087B2800087B2800087B2800081B
:102910007B2800087B280008C92C00087B280008B9
:102920007B2800085F2900087B280008E92C0008A4
:102930007B2800087B280008CD2C0008A9460C9BAA
:1029400013F0010305D1BBF1000F9ED0DBF800208E
:102950001370484635B0BDEC068BBDE8F08F079B81
:102960000E4D1968CDF8008014A8002908BF29462B
:1029700001903A4633465846079DFFF7AFFD0028C1
:1029800005F1040583DB81440795FFE6CDCCCC3D02
:102990000AD7233C6E12833A16B7D138BCD200084E
:1029A000079B03F1070E2EF0070E9EED007B0EF144
:1029B00008050022002351EC170B8DED0A7B0795CB
:1029C00008F060FC002840F05882099B002B40F082
:1029D00073811FAB0D939A46089B072B0ED81D469B
:1029E000BD4B03EBC503DDE90A01D3E9002308F081
:1029F00025F8CDE90A01002D00F07082089D002322
:102A00000120013300EB8000AB424FEA4000F8D1D7
:102A1000089508F04FF9CDE90E01DDE90A0108F04B
:102A200059FC03460990002800F06B81DFF8ACC226
:102A3000089D0DF1530E0020ACFB0312D20802EBEF
:102A40008201A3EB410330330EF8013F01301346FE
:102A5000002AF1D10DF1540E0EEB00030AF1FF3202
:102A600013F8011D02F8011F7345F9D1089582443E
:102A70002B46002B43D0099808F01CF902460B4660
:102A8000DDE90A0107F0D8FFDDE90E2308F088F937
:102A900008F020FC2E238AF80030002800F037824E
:102AA000DFF838C2089D0DF1530E0021ACFB002366
:102AB000DB0803EB8302A0EB4202303201310EF857
:102AC000012F1846002BF1D18D42089598BF0DF1CA
:102AD000540E40F2E4810DF1540E4B1E089D7344D8
:102AE000302201318D4203F8012F4FF03000F8D829
:102AF000002940F0D4818AF801000AF1020A14A8E2
:102B000000250190CDF800800D998AF800503A46D2
:102B100033465846FFF7E2FC0028FFF6B8AE814482
:102B200034E6079B073323F00703D3E9000108339A
:102B3000079308F0EFFB00EE100A08EE100A07F00A
:102B40005BFF002840F0E4806E2361228DF87C302A
:102B50008DF87E308DF87D200DF17F0E14A90025B3
:102B60000191CDF800803A46334658461FA98EF8A9
:102B70000050FFF7B3FC0028FFF689AE814405E65C
:102B80003A46079F14A9334600253E680191CDF8C7
:102B90000080584613A98DF84C608DF84D50FFF712
:102BA0009DFC3E46002806F10406FFF670AE814407
:102BB0000796EBE50020DBF8003030221A70DBF8D6
:102BC00000307822591CCBF800105A70DBF8003026
:102BD000079A0133CBF800301346043309F1020998
:102BE0001168079300B189B241220998059014AB8E
:102BF0000292049300970196CDF80C80584610225B
:102C00000023FFF70BFD0028FFF641AE8144BDE530
:102C1000079A1346043311680793099805906122B7
:102C200014AB0292049300970196CDF80C8058469D
:102C30000A220123FFF7F2FC0028FFF628AE8144A8
:102C4000A4E5079A13460433116807936122CCE781
:102C5000079A134604331168079309980590612277
:102C600014AB0292049300970196CDF80C8058465D
:102C70000A220023FFF7D2FC0028FFF608AE8144A9
:102C800084E5DBF8003025221A70DBF80020149B65
:102C9000511C0133CBF8001098452178149308D9C2
:102CA0005170DBF80020149B01320133CBF8002077
:102CB000149309F1020969E52B238DF87C301FABD1
:102CC0000DF17D0A0D9387E6012074E7079A1346FC
:102CD000043311880793B9E7C8D20008CDCCCCCC17
:102CE000ABC52737BC378635079A1346043311889E
:102CF0000793B2E7079A13460433B2F9001007931B
:102D00008BE730238AF800300AF1010A089BB0E60D
:102D1000B0EE480A07F070FE0128B0EE480A40F213
:102D2000E28007F065FE002800F0C580B1EE488A19
:102D30002D23B7EE007AB4EEC78AF1EE10FAF2EE68
:102D4000047A8DF87C3054BFF0EE686AF0EE676A62
:102D5000002302E028EE268A0133B4EEE78AF1EE82
:102D600010FA04DAB4EEC78AF1EE10FA04D5B5EE23
:102D7000408AF1EE10FAEDD1BDEEC86A5FED285A37
:102D80001FED287AF8EEC67A16EE102A78EE677AEA
:102D9000303287EEA86A8DF87D202E228DF87E20B5
:102DA00065228DF88520B0EE005ABDEEC66AF4EEBD
:102DB000C56AF8EEC64A16EE102AE4EEE87A30321A
:102DC0008DF87F20F1EE10FA87EE8A6ABDEEC66AB2
:102DD000F8EEC64A16EE102AE4EECA7A02F1300284
:102DE0008DF8802087EEA96ABDEEC66AF8EEC64A65
:102DF00016EE102AE4EEE97A02F130028DF8812015
:102E000087EE896ABDEEC66AF8EEC64A16EE102A4B
:102E1000E4EEC97A02F130028DF8822087EEA56ACD
:102E2000BDEEC66AF8EEC64A16EE102AE4EEE57A62
:102E300002F130028DF88320C7EE877AFDEEE77A43
:102E400017EE902A02F130028DF8842035DC2B2118
:102E5000334A8DF8861082FB0321DA17C2EBA102F8
:102E600002EB8201A3EB4103303330328DF888301E
:102E70008DF887200DF1890E70E6DDE90A0101F178
:102E80000043119310909DED107B2D238DF87C3025
:102E90001FAB8DED0A7B0DF17D0A0D939CE50EEBCA
:102EA0000103524613F8010D02F8010F7345F9D1E1
:102EB00001318A4423E620233BE7002B0CBF2B2162
:102EC0002D21C5E7079A13460433116807938BE653
:102ED000079A134604331168079384E69FED0E7B2F
:102EE0008DED0E7B99E507F083FD002814BF2020AF
:102EF0002D2069216E2266238DF87C008DF87D10CF
:102F00008DF87E208DF87F300DF1800E26E601468B
:102F1000E1E500BFAFF30080000000000000F03FDB
:102F2000676666660EB410B587B009AC039054F8B6
:102F3000043B009403A800214FF0FF320594FFF7F3
:102F4000F3FB07B0BDE8104003B0704710B584B084
:102F500004AC0B4644F8040D0021009220464FF0CB
:102F6000FF32FFF7E1FB04B010BD00BF10B4084A08
:102F7000084C13680849002B08BF2346184410600A
:102F80005DF8044B884294BF18464FF0FF307047FD
:102F9000F80B0020D80C00200078012038B5FDF790
:102FA000D3FF054607F0CEFA002D06DD00242046AB
:102FB0000134FDF7D1FFAC42F9D1002D06DD00242C
:102FC00020460134FDF7CEFFAC42F9D14FF4FA7040
:102FD000FEF784FAF1E700BF30B5184C237883B0D0
:102FE0000BB103B030BDFDF78DFFE8B114491548B2
:102FF0000B78002B08BF002104F020FEB8B1124965
:10300000124D134800F06EF803238DE82800114894
:10301000114900234FF4806205F0B2FE2B684BB1DA
:103020000123237003B030BDFFF7B8FFDEE7FFF7E1
:10303000B5FFE4E7FFF7B2FFF2E700BF6408002046
:10304000B001000874D9000848D30008FC0B002028
:1030500044E50008797E000840D3000830B5194CDB
:10306000237883B0F3B9FDF74DFF28B3164917480D
:103070000B78002B08BF002104F0E0FDC8B1144913
:10308000144D154800F02EF803238DE8280013484E
:10309000134900234FF4806205F072FE2B6873B170
:1030A0000123237006F06CF803B0BDE83040FFF751
:1030B00075BFFFF773FFE2E7FFF770FFD6E7FFF793
:1030C0006DFFEDE764080020B001000874D9000826
:1030D00048D30008FC0B002044E50008797E000876
:1030E00040D300082DE9F8431E4A1F4E1368356887
:1030F00001331360037804462F2B894608BF01343F
:1031000025B12846214609F02FFAC8B1B76827B182
:103110003846214609F028FA90B1D6F81080B8F167
:10312000000F04D04046214609F01EFA40B15DB1BF
:103130004FB10225B8F1000F06D00020BDE8F8839A
:103140000120BDE8F8830125D9F80430984700280C
:10315000F3D006EBC50346F83540C3F804900120D0
:10316000BDE8F883540C0020000C002003782F2BBE
:1031700001D0002070474378EBB110B4104C2268A6
:103180001A445278520710D02F2B0ED0013006E08F
:1031900022681A445278520707D02F2B05D001F825
:1031A000013B10F8013F002BF2D1002301200B70EE
:1031B0005DF8044B704700230B700120704700BF7F
:1031C0003804002003782F2B01D00020704743786B
:1031D000002BFAD010B4114A14680130E21805E04F
:1031E0002F2B0CD010F8013FE21823B15278520770
:1031F000F6D12F2B03D000205DF8044B704701302F
:1032000003782BB101F8013B10F8013F002BF9D1F5
:10321000002301200B705DF8044B70473804002038
:1032200003782F2B01D0002070472DE9F04144781E
:1032300088B0451C6F466A46CCB1334BD3F800E0EA
:103240000EEB04035B785B0711D02F2C0FD02846C0
:10325000234604E07678760709D02F2B07D002F8B2
:10326000013B10F8013F0EEB0306002BF2D1DFF813
:103270009C80D8F8000000230E46137020B1394618
:1032800009F072F9002839D0D8F8080018B1394689
:1032900009F06AF988B3D8F8100020B1394609F06E
:1032A00063F970B3002074B1174B1A68131905E065
:1032B0002F2C0CD015F8014F131924B15B785B0744
:1032C000F6D12F2C03D0002008B0BDE8F0810135E5
:1032D0002B783A462BB102F8013B15F8013F002B41
:1032E000F9D1002313700028EDD0436831463846E9
:1032F0009B6B984708B0BDE8F081012008EBC00047
:10330000D1E70220FAE700BF38040020000C0020BB
:1033100003782F2B01D000207047F0B5447889B096
:10332000451C6E466A46B4B12D4B1F683B195B784D
:103330005B0710D02F2C0ED02946234604E040789E
:10334000400708D02F2B06D002F8013B11F8013FAF
:10335000F818002BF3D1234F38680023137020B1E5
:10336000314609F001F9002834D0B86818B1314667
:1033700009F0FAF868B3386920B1314609F0F4F879
:1033800058B3002074B1164B1A68131905E02F2C9E
:103390000BD015F8014F131924B15B785B07F6D1F8
:1033A0002F2C02D0002009B0F0BD01352B78324619
:1033B0002BB102F8013B15F8013F002BF9D1002396
:1033C00013700028EED0436830469B69984709B0D7
:1033D000F0BD012007EBC000D4E70220FAE700BFF0
:1033E00038040020000C002003782F2B01D000208F
:1033F00070472DE9F041447888B0451C6F466A4615
:10340000CCB1334BD3F800E00EEB04035B785B07E1
:1034100011D02F2C0FD02846234604E0767876076B
:1034200009D02F2B07D002F8013B10F8013F0EEB1B
:103430000306002BF2D1DFF89C80D8F800000023AF
:103440000E46137020B1394609F08EF8002839D0A5
:10345000D8F8080018B1394609F086F888B3D8F8CA
:10346000100020B1394609F07FF870B3002074B124
:10347000174B1A68131905E02F2C0CD015F8014FC3
:10348000131924B15B785B07F6D12F2C03D00020F1
:1034900008B0BDE8F08101352B783A462BB102F82F
:1034A000013B15F8013F002BF9D1002313700028D0
:1034B000EDD0436831463846DB69984708B0BDE82F
:1034C000F081012008EBC000D1E70220FAE700BF3D
:1034D00038040020000C00202DE9F04F03782F2B3A
:1034E00089B080460D4600F1010410D04FF000096C
:1034F000574FBB680133BB6098F800302F2B3FD08B
:10350000FB680133FB60002009B0BDE8F08F437811
:103510006E46002B00F091804E4A1768FA185278D8
:10352000520700F08A802F2B6A460DD0214604E016
:103530004078400708D02F2B06D002F8013B11F845
:10354000013FF818002BF3D1434F38680023137064
:1035500018B1314609F008F878B1B86820B13146A1
:1035600009F002F8002870D038690028BED0314632
:1035700008F0FAFF0028B9D1022007EBC009B7E72D
:1035800098F80130002BBBD0324A1168CA1806E007
:103590002F2B09D014F8013FCA18002BB0D0527855
:1035A0005207F5D12F2BABD1013423786E466A46F2
:1035B0002BB102F8013B14F8013F002BF9D1002395
:1035C0001370B9F1000F9BD006F0BCFF234B586875
:1035D000A8B31A69AAB3DA69AAB39A6A52B15A6B44
:1035E000042442B106F0D0FFD9F804301B6807224A
:1035F0001A6085E7032404EB440A4FEA8A0A03EBC6
:103600000A08D9F80430C8F8043006F0BDFFD9F82C
:103610000430DFF848B01B6A30462946984738B96D
:10362000D9F804301B6806221A60C8F8040067E75E
:103630004BF80A0004F10A0066E7324684E70446C4
:10364000D9E70124D7E70224D5E7012095E700BF99
:10365000540C002038040020000C0020180C00201E
:10366000F8B51E4C23690133236120B30A380428BE
:103670002DD8002A1DDD4700194B3E1803EB8606A6
:10368000357A6DB9384480000344154E5B68F3B158
:103690005B6A30589847002813DB5DB10130F8BDF4
:1036A0004FF0000E0D70013A013186F808E0012557
:1036B000E8E70020F8BD0846BDE8F840114603F0F1
:1036C00085BD002D14BF01204FF0FF30F8BD6369A8
:1036D000013363614FF0FF30F8BD00BF540C002090
:1036E000180C002070B5124CA369451E0133012D42
:1036F000A3610FD90A38042813D800EB40000D4B02
:1037000080001D186D6865B1EC6A18582346BDE845
:103710007040184714460846114604F0A7F82046A2
:1037200070BDE3690133E3614FF0FF3070BD00BF4E
:10373000540C0020180C0020F8B5104B1A6B0A38F6
:10374000013204281A6314D800EB40000C4D8400A9
:103750002E1972686AB1536B2859176898473860F8
:1037600006F0F0FE002373602B5106F00DFF0120E0
:10377000F8BD5A6B01325A630020F8BD540C00208A
:10378000180C002003782F2B01D0002070472DE962
:10379000F0438DB045780DF11008471C4246B5B195
:1037A000434B186843195B785B0710D02F2D0ED060
:1037B0003C462B4604E07678760708D02F2B06D0BF
:1037C00002F8013B14F8013FC618002BF3D1394E23
:1037D000306800230C46137020B1414608F0C4FE47
:1037E000002863D0B06818B1414608F0BDFE58B15A
:1037F000306928B1414608F0B7FE4FF0020C28B1FD
:1038000000200DB0BDE8F0834FF0010C002D3ED03C
:10381000DFF89C90D9F8000043195B78590743D032
:103820002F2D41D039462B466A4606E09EF801E02E
:103830001EF0070F09D02F2B07D002F8013B11F81B
:10384000013F00EB030E002BF0D1D9F800104B190B
:1038500000205B7810705B0707D116E017F8015F56
:103860004B19A5B15B785A070FD02F2DF6D1013730
:103870003B780DF111022BB102F8013B17F8013F23
:10388000002BF9D10023137004E02F2DEFD02F234C
:10389000ADF8103006EBCC06404673682146DB6B72
:1038A00098470DB0BDE8F0836A46CEE78446ADE7A1
:1038B00038040020000C002001207047024600233D
:1038C0000B60184613607047002070470020704757
:1038D00000207047002070474FF0FF30704700BF56
:1038E00010B401380E4B53F83040ACB1002A0FDD54
:1038F00003EBC0025268114400290DDBA26891421B
:103900000ADC03EBC003084659605DF8044B7047BE
:103910001CBFA268511AEFE74FF0FF30F5E700BF78
:103920006C080020002070470138034B002243F848
:1039300030200120704700BF6C08002007490B466B
:10394000002243F8042B04334A6043F8042B43F865
:10395000042B43F8042B01201A6070476C080020E8
:103960002DE9F041114D124F0646002457F834302E
:103970004FEAC4082BB10134032CF7D10020BDE875
:10398000F081286820B9F6E755F80C0F0028F2D02E
:10399000314608F0E9FD0028F6D1B84447F8345024
:1039A000C8F80400601CBDE8F08100BFF4D3000833
:1039B0006C08002070B50A4B0A4C05460E4602E022
:1039C00054F80C3F4BB11846294608F0CDFD0028AD
:1039D000F6D1A3683360012070BD184670BD00BFEA
:1039E00088D30008F4D30008F8B501380F4B53F81A
:1039F0003050BDB103EBC006AB687768DB1B23EA30
:103A0000E3739A42A8BF1A4614460AB91046F8BD95
:103A100008466968394408F03DFA736823447360C6
:103A20002046F8BD4FF0FF30F8BD00BF6C08002005
:103A300038B50D46084908F097FD50B9074C0848BD
:103A4000A1680022A84754F80C0F0028F8D10120E3
:103A500038BD002038BD00BF90D30008F4D3000863
:103A600088D30008F0B589B0431E0A1D0F4602A88E
:103A70001C49FEF705FB0026354602A96846FEF7FD
:103A80000DFB1949044680B1009BEBB15C682046F0
:103A900008F06AFD154930B1204608F065FD0028A0
:103AA000EBD1019EE9E70125E7E7B6B1304603F027
:103AB000B1FF0F4A0F4B002814BF1046184603F001
:103AC000FBFE204609B0F0BD3868064A6946FEF79D
:103AD000DDFC0446204609B0F0BD294603F0DCFFBA
:103AE0000446EEE718D4000888D400088CD40008F7
:103AF00058ED000808EF00082DE9F04F8FB00A1DBF
:103B0000431E4FF47A754FF0FF3480460E4608A8E6
:103B1000434904950594FEF7B3FA424C424D434F96
:103B20004FF0000906A808A9FEF7B8FA002859D0F6
:103B3000069B002B66D05B68A34249D0AB4257D0AE
:103B4000BB42EFD10B9B56F8230003F063FF0B9FA2
:103B5000C7EB08038246019306EB8707002841D094
:103B6000334B98423ED0334E4FF0000B019839460C
:103B7000D0478046002835D1B9F1000F04D0059B0D
:103B80000BF1010B9B451FDA049B032B9CBF042305
:103B9000049305F009FCFA24054605F005FC049B96
:103BA00004FB03F3A6FB032305EB931398424FF0AA
:103BB00002010DF10F00D9D2FDF7E4FF0130ECD086
:103BC0009DF80F30032BE8D140460FB0BDE8F08FD1
:103BD00004A90798FEF7C0F906A808A9FEF75EFA3F
:103BE0000028A5D14FF0010840460FB0BDE8F08F86
:103BF000079805A9FEF7B0F9059B002B0CDD4FF0E7
:103C000001098FE73068064A06A9FEF73FFC8046A7
:103C100040460FB0BDE8F08F4FF0FF38D4E700BF4B
:103C200048D4000838ED000820EF00080CEF000829
:103C3000F93A0008D34D6210F8B5037C002B044616
:103C40000F4614BF01258025082615E0FDF7FEFC70
:103C5000A068FDF729FCA1882078FDF7F7FCA06893
:103C6000FDF722FC2078A188FDF7F8FC237C6A0090
:103C70004BB1013ED5B20AD03D426078E188E5D132
:103C8000FDF7ECFCE4E7013E4FEA5505F4D1E1888D
:103C90006078FDF7DBFCA068FDF706FC2078A188C2
:103CA000FDF7D4FCE1886078FDF7EAFC0546A068E2
:103CB000FDF7FAFB2078A188FDF7D0FCB5FA85F076
:103CC0004009F8BDF8B5274D55F8204007460E4687
:103CD000002C3DD02078A188FDF754FC6078E18865
:103CE000FDF750FC3368B568F06877682360E278C8
:103CF0006760A560E060A17833692361012505FA5A
:103D000002F305FA01F1E380A180207889B2FDF782
:103D10006DFC6078E188FDF781FCE1886078FDF753
:103D20009DFCA068FDF7C0FBA1882078FDF796FCFC
:103D3000A068FDF7B9FBA1882078FDF787FCA06893
:103D4000FDF7B2FB6078E188FDF780FC2846F8BDFE
:103D5000142006F067FB044610B145F82700C1E7C0
:103D6000F8BD00BF940800202DE9F84F914CDDF814
:103D700028A054F82040002C00F0F6800D461E4686
:103D800091466078E188002B34D0FDF75FFCA06895
:103D9000FDF78AFBA1882078FDF758FCA068FDF7A5
:103DA00083FBE1886078FDF759FCA068FDF77CFB98
:103DB0002078A188FDF752FC0B9B002B5BD09DF86F
:103DC0002C102046FFF738FF002800F0D680002E88
:103DD000C8BF761906DD15F8011B2046FFF72CFF3A
:103DE000B542F8D1BAF1000F49D10C9B23B30120A1
:103DF000BDE8F88FFDF72AFCA068FDF755FBA18808
:103E00002078FDF723FCA068FDF74EFBE188607881
:103E1000FDF724FCA068FDF747FB2078A188FDF79B
:103E20001DFC0B9B23BBE3685B00D9B22046FFF768
:103E300003FF002800F0A180E1886078FDF70EFC08
:103E4000A068FDF731FBA1882078FDF707FCA0688A
:103E5000FDF72AFBA1882078FDF7F8FBA068FDF7A5
:103E600023FB6078E188FDF7F1FB0120BDE8F88FC6
:103E70009DF82C10DAE7E3685B00D9B2A1E7E1888E
:103E80006078FDF7E3FBA068FDF70EFBA1882078C2
:103E9000FDF7DCFBA068FDF707FBE1886078FDF724
:103EA000DDFBA068FDF700FB2078A188FDF7D6FBBD
:103EB0000B9B002B5BD09DF82C102046FFF7BCFE1F
:103EC00000285AD0BAF1000F8FDD09F1FF390AF14D
:103ED000FF3B4FF00008237C6078E188002B14BF83
:103EE000012680260825FDF7B1FB002702E0013DF1
:103EF000D6B21BD0A068FDF7D7FA2078A188FDF7CD
:103F0000A5FB6078E188FDF7BBFB00B13743A068F3
:103F1000FDF7CAFA2078A188FDF7A0FB237C720088
:103F2000002BE4D1013D4FEA5606E3D1C34560784A
:103F3000E18816DCFDF78AFBA068FDF7B5FAA188D9
:103F40002078FDF783FBA068FDF7AEFA08F10108C1
:103F50002078A188FDF782FBD04509F8017FBAD10E
:103F600043E7FDF77BFBE7E72046BDE8F88FE36812
:103F7000590041F00101C9B29FE7E1886078FDF77F
:103F80006DFBA068FDF790FAA1882078FDF766FB2D
:103F9000A068FDF789FAA1882078FDF757FBA06893
:103FA000FDF782FA6078E188FDF750FB4FF0FF30B3
:103FB000BDE8F88F940800202DE9F04F0B68ADF5AF
:103FC000197D8946824608A9D81C002308930A93C4
:103FD000FDF7C2FF10B1089B013B08934FF48033FB
:103FE000002405250D9312A8A4490F9509F1040298
:103FF0000AF1FF3310948DF8444005940494FEF7C1
:104000003FF8A046A3469E4D9E4C9F4E0BA812A97A
:10401000FEF744F828B30B9B002B00F0A7805F68E5
:10402000A74255D0AF4260D0B74263D0974A97427B
:1040300048D0974A974255D03846964908F094FAA6
:10404000002842D03846944908F08EFA002856D10C
:1040500001230BA812A98DF84430FEF71FF80028A1
:10406000D9D1049B002B40F0DB80059B002B40F056
:10407000DF80159A059C01325245159209AD80F0FA
:104080009B8018AE09E0159A2B68335501325245D2
:10409000159204F1010480F09080294659F822001D
:1040A000FDF75AFF31460028EDD17C4803F0EEFBC6
:1040B000159B59F8230003F0FFFB01200DF5197D36
:1040C000BDE8F08F01230493A0E74FF0010B9DE7BB
:1040D0000C9810A9FDF740FF002800F0C3804FF0B6
:1040E000010893E70123059390E70C980FA9FDF7CA
:1040F00033FF8BE70C980AA9FDF72EFF86E73846B9
:10410000674908F031FA68B13846664908F02CFA78
:10411000002835D0644A97427FF478AF159B013B65
:1041200015939EE707A90C980A2208F001FD079B4A
:104130008DF83400A3B11A782E2A11D1581C07909B
:104140005B786BB107A90A2208F0F2FC079B8DF897
:104150003600002B3FF45AAF1B78002B3FF456AFCC
:10416000524803F0CBFB4FF0FF3005E0D9F80000D8
:10417000424A0BA9FEF78AF90DF5197DBDE8F08FCB
:1041800007A90C980A2208F0D3FC079B8DF835008C
:10419000002BE5D01A782E2AE2D1581C07905B78C4
:1041A000002BDDD007A90A2208F0C2FC079B8DF87E
:1041B0003700002BD0D129E718A908980A9AB8F13E
:1041C000000F4BD0109B58AE8DE80C0823463246AA
:1041D000FFF7CAFD2860002842D0013048D00A9B72
:1041E000002B1BD04FF000032B6017DD1C4605E0B1
:1041F0002B680A9A01339A422B600BDDF15C2C4844
:1042000003F0AAFB04444E2CF2DD0A2003F00EF862
:104210000024EDE714B10A2003F008F80020ABE712
:1042200008980DA9FFF74EFDB0FA80F04009A3E70A
:10423000089E204D55F82640002CEFD02078A1880C
:10424000FDF7A0F96078E188FDF79CF9204606F0BB
:10425000F5F8049B45F8263018468DE74346B2E74B
:10426000012089E7204603F049FB4FF0FF3083E748
:10427000114803F043FB02207EE700BF58DC000832
:10428000F8ED000810ED0008F8EC0008C0EE00089A
:1042900044EE000808DD000810DD00081CDD000801
:1042A00014DD000818DD000828EF000894EE00086F
:1042B0002CDD00089408002028DD0008F8B5304DFA
:1042C00055F8204007460E46002C50D02078218912
:1042D000FDF758F960786189FDF754F9A078A18954
:1042E000FDF750F9E078E189FDF74CF97368326821
:1042F000B068F1686360E16094F806C094F807E084
:10430000A060226023796779B0693269012505FAD6
:1043100003F105FA07F77369A06105FA0CF605FACF
:104320000EF0636122612181E08189B2207867818A
:10433000A681FDF727F960786189FDF757F9A07824
:10434000A189FDF753F9E078E189FDF74FF9E078AD
:10435000E189FDF77BF9237EA078A1891BB9FDF7E0
:104360007DF92846F8BDFDF771F92846F8BD1C20F7
:1043700006F058F8044610B145F82700B6E7F8BD36
:1043800084080020F8B5394B53F82050002D6AD02E
:104390004F798E7991F807E00A7908780C46012365
:1043A00003FA02F103FA07F703FA06F603FA0EF32B
:1043B00021816781A681E3812B7883424CD089B229
:1043C000FDF7E0F868786378834240D06989FDF7AB
:1043D000D9F860786189FDF709F9A878A378834254
:1043E00030D0A989FDF7CEF8A078A189FDF7FEF8B5
:1043F000237EA078A189002B32D1FDF72FF9E87830
:10440000E378834203D1E279EB799A420AD0E989D1
:10441000FDF7B8F8E078E189FDF7E8F8E078E189A0
:10442000FDF714F922686368A168E068E8602A6013
:104430006B60A96022696369A169A9612A616B61E6
:104440000120F8BDA279AB799A42CAD1D7E7627947
:104450006B799A42BAD1C0E72B799342AFD1B1E7D9
:10446000FDF7F4F8CBE72846F8BD00BF840800202C
:104470002DE9F04F5B4C83B054F820B00092BBF1B3
:10448000000F00F0AB801C469BF818309BF8020030
:104490008A46BBF80C10002B77D1FDF7DFF89BF8AC
:1044A0000300BBF80E10FDF7D9F8DBF81000FCF79D
:1044B000FBFF002C78D0AAF1040A01940125DBF857
:1044C00014305AF8047F9BF819809BF81890002B41
:1044D00061D00026344637E0E243134405FA03F383
:1044E0003B429BF80100BBF80A1039D0FDF7AEF84B
:1044F000C8459BF80200BBF80C1039D0FDF7A6F8B0
:10450000DBF81000FCF7D0FF9BF80200BBF80C10A2
:10451000FDF7A4F89BF80000BBF80810FDF7B0F811
:1045200048B19BF81A309BBBDBF81430013B1B1BD6
:1045300005FA03F31E43DBF81000FCF7B5FFDBF8C8
:1045400014300134A34227D99BF81A20002AC3D083
:1045500005FA04F33B429BF80100BBF80A10C5D1F1
:10456000FDF77CF8C8459BF80200BBF80C10C5D1DC
:10457000FDF774F8DBF81000FCF796FF9BF80200DB
:10458000BBF80C10FDF762F8C4E7FDF75FF886E7AB
:1045900005FA04F3CEE71E46009B43F8046B009334
:1045A000019B013B01938AD19BF818307BB19BF8AA
:1045B0000200BBF80C10FDF749F89BF80300BBF8AC
:1045C0000E10FDF743F8012003B0BDE8F08F9BF813
:1045D0000200BBF80C10FDF741F8EEE7584603B0B7
:1045E000BDE8F08F840800202DE9F04FADF6540DA2
:1045F0000A6801908B460023D01C03A90393FDF7A2
:10460000ABFC10B1039B013B0393A44B0E93019BA6
:10461000A349A44F00240825052607A80BF104028E
:10462000013B12950D948DF84C408DF84D408DF85E
:104630004E4000941196FDF723FDA046A146A246E8
:10464000994D9A4C05A807A9FDF728FD10B3059BC5
:10465000002B00F0BB805E68A6425BD0AE4253D018
:10466000BE4268D0924A964251D0924A964256D063
:10467000914A96426FD03046904907F075FF002866
:1046800050D1012305A807A98DF84C30FDF706FD90
:104690000028DCD1BAF1000F40F08D80B8F1000F96
:1046A00040F03D81009B002B40F041810A98013091
:1046B0001E460A90019B984280F05B8114AB03EB8D
:1046C00086045BF82000214604AAFDF767FC002859
:1046D00000F071810A98049B0130013621460A904E
:1046E000002B7DD001360A6841F8042FB6F5807F93
:1046F00003F1FF33F4DD7248049303F0FFF8012067
:104700000DF6540DBDE8F08F4FF001099AE74FF018
:10471000010A97E7069811A9FDF71EFC92E701230D
:1047200000938FE73046674907F01EFFB0B90123B9
:104730008DF84D3086E7069812A9FDF70DFC00288C
:1047400080D0129B013B1F2B7FF67CAF384603F0D5
:10475000D5F80120D4E74FF0010873E730465A49F5
:1047600007F002FF18B901238DF84E306AE7304692
:10477000564907F0F9FE002834D03046544907F076
:10478000F3FE00286DD03046524907F0EDFE0028B8
:1047900000F0A8803046504907F0E6FE002844D0DB
:1047A0004E4A96427FF44EAF0A9B013B0A93BAF100
:1047B000000F3FF473AF03980DA9FFF77FFDB0FA28
:1047C00080F040090DF6540DBDE8F08FDBF80000D5
:1047D000334A05A9FDF75AFE0DF6540DBDE8F08FDA
:1047E000049367E702A906980A2208F0A1F9029B40
:1047F0008DF83400A3B11A782E2A11D1581C0290DA
:104800005B786BB102A90A2208F092F9029B8DF83D
:104810003800002B3FF416AF1B78002B3FF412AF8B
:104820002F4803F06BF801206AE702A906980A22D4
:1048300008F07EF9029B8DF83700002BF0D01A7833
:104840002E2AEDD1581C02905B78002BE8D002A9EB
:104850000A2208F06DF9029B8DF83B00002BDBD19A
:10486000F0E602A906980A2208F062F9029B8DF888
:104870003500002BD4D01A782E2AD1D1581C0290A2
:104880005B78002BCCD002A90A2208F051F9029BD8
:104890008DF83900002BBFD1D4E600BF0001020320
:1048A0002CDF000830ED0008F8EC0008F8ED0008F7
:1048B000C0EE000844EE0008E0ED000834DD00081A
:1048C00054DD00083CDD000810DD000844DD000870
:1048D00048DD00084CDD000850DD000828EF000826
:1048E00094EE000802A906980A2208F021F9029B1A
:1048F0008DF83600002B93D01A782E2A90D1581CB0
:1049000002905B78002B8BD002A90A2208F010F9E4
:10491000029B8DF83A00002B7FF47EAF92E603985D
:104920000DA9FFF72FFDB0FA80F04009E8E6039EDD
:10493000284D55F82640D4B120782189FCF722FE75
:1049400060786189FCF71EFEA078A189FCF71AFE49
:10495000E078E189FCF716FE204605F06FFD45F88A
:1049600026804046CCE614B10A2002F05FFC00200D
:10497000C6E666B3039814A90DF58A623346FFF7BD
:1049800077FD10B3B9F1000FF1D0002425460DF2E8
:104990004C4701E0B542E6DA0F4857F8041F02F031
:1049A000DBFF04444E2C05F10105F3DD0A2002F083
:1049B0003DFC0024EEE7094802F068FF0A9B5BF823
:1049C000230002F079FF01209AE6012098E64FF0DB
:1049D000FF3095E6840800205CDD00081CDD00083F
:1049E0002DE9F04789468EB00EA9D9F80030002293
:1049F000824641F8342D581DFDF7AEFA10B1019BE7
:104A0000013B019300240126052508A878498DF86B
:104A1000144009F104020AF1FF338DF815408DF8B6
:104A20001640ADF818600795FDF72AFBA04627460B
:104A3000704D714C714E03A808A9FDF72FFB90B182
:104A4000039B002B75D05B68A34243D0AB4243D09D
:104A5000B34248D06A4A934241D06A4A934247D00F
:104A6000694A9342E7D1002F73D1B8F1000F40F0AB
:104A70009C800B9B534580F0AC8059F8230002A921
:104A8000FDF76AFA00285DD0604B019A029D53F849
:104A90002240002C59D09DB983E0FCF7DFFDA068CF
:104AA000FCF702FDA3782078A188002B70D0FCF7DA
:104AB000CDFDA068FCF7F8FC05F066FD013D70D067
:104AC00005F040FDA3782078A188002BE5D1FCF704
:104AD000BDFDE4E70127AEE74FF00108ABE7012396
:104AE0008DF81630A7E7049807A9FDF735FAA2E775
:104AF000694604980A2208F01BF8009B8DF8140000
:104B000093B11A782E2A0FD1581C00905B785BB1B4
:104B100069460A2208F00CF8009B8DF81500002B5E
:104B200089D01B78002B86D0394802F0E7FE01209F
:104B300005E0D9F800002E4A03A9FDF7A7FC0EB046
:104B4000BDE8F087334802F0D9FE01200EB0BDE881
:104B5000F087019E2D4D55F82640002C3ED0207840
:104B6000A188FCF70FFD05AB07CB2060637861607F
:104B700001219940A1802078A26089B2FCF736FD1E
:104B8000A7782078A18807BBFCF768FD3846D6E7F0
:104B9000FCF764FDA068FCF787FC05F0F5FC013D1F
:104BA0008ED100200EB0BDE8F087019E174D55F85C
:104BB00026408CB12078A188FCF7E4FC204605F063
:104BC0003DFC45F826703846B9E7FCF73FFD00206C
:104BD000B5E74FF0FF30B2E73846B0E70C2005F0FC
:104BE00021FC04460028B0D045F82600BBE700BFF2
:104BF000BCDE000844EE0008C0EE0008F8ED000836
:104C000008ED000878ED000828ED0008A408002051
:104C100094EE000820EF00082DE9F04F8B4695B088
:104C200014A9DBF800300022044641F8242D181D99
:104C3000FDF792F910B10B9B013B0B930026631E0D
:104C40000EA8B349B34CB44D0BF10402FDF718FAAA
:104C5000B046079604960196B146374603960296EB
:104C6000059606960CA80EA9FDF718FA002839D06B
:104C70000C9B002B00F0A380D3F804A0A24500F009
:104C80008580AA4500F088805046A44907F06CFC56
:104C9000002879D05046A24907F066FC002878D059
:104CA0005046A04907F060FC002800F082809E4B2F
:104CB0009A4500F082819D4B9A457DD09C4B9A4548
:104CC00000F0CA809B4B9A4500F08280029A9A4B72
:104CD0000CA89A4508BF01220EA90292FDF7DEF941
:104CE0000028C5D1059B002B75D1029B002B40F0FD
:104CF000FE80069B002B40F0D280019B002B40F0F1
:104D00008280B8F1000F40F02181002F40F05981DE
:104D1000B9F1000F40F06F81039B002B00F04B8135
:104D2000864D0B9F049C082605EB8708A94611E0D9
:104D3000FCF7BAFB19F82700B8F80210FCF786FC5C
:104D400005F022FC2D20FCF7AFFB013E4FEA540496
:104D500000F0C98005F0F6FB15F82700B8F802103E
:104D6000FCF77CFC14F0010A4FF00F00E0D13C206E
:104D7000FCF79AFB19F82700B8F80210FCF766FC5C
:104D800005F002FC5046DEE701276BE74FF0010813
:104D900068E74FF0010965E70D9809A9FDF7DCF810
:104DA00000283FF45FAF9DF8243004930123039360
:104DB00058E70123019355E70123069352E7DBF8F7
:104DC0000000534A0CA9FDF761FB15B0BDE8F08F58
:104DD0000123059346E70B9D584C079A04F82520BC
:104DE00004EB85070123B340104699B27B807E70A7
:104DF000FCF714FC14F825007988FCF727FC002048
:104E000015B0BDE8F08F0B9D4C4C04EB850605F00A
:104E100099FB718814F82500FCF720FC0120FCF7B1
:104E200043FB718814F82500FCF710FC0920FCF7FF
:104E30003BFB718814F82500FCF722FC044605F0C2
:104E4000A3FB3220FCF730FB211C18BF01213C489A
:104E500002F082FD0698B8E70A220AA90D9807F029
:104E600067FE0A9BC2B207929BB11A782E2A10D114
:104E7000581C0A905B7863B10AA90A2207F058FE11
:104E80000A9BC6B2002B3FF4EDAE1B78002B3FF41B
:104E9000E9AE2C4802F032FD4FF0FF3095E70B9D54
:104EA000264C04EB850614F825007188FCF7D6FB28
:104EB0004FF4FA70FCF7F8FA05F044FB718814F827
:104EC0002500FCF7C3FB3C20FCF7EEFA14F82500A4
:104ED0007188FCF7D5FB044605F056FB4FF496703D
:104EE000FCF7E2FA74B9002015B0BDE8F08F0B9A18
:104EF000124B03EB820113F822004988FCF742FBB6
:104F0000059862E7104802F0D7FC01205DE700BF7A
:104F10001CE00008F8EC0008A0EE000864DD0008C2
:104F200068DD00086CDD0008F0EE00084CEE0008BB
:104F300078ED0008C0EE000844EE0008B408002038
:104F4000ACE6000894EE000870DD00080B9E374DBB
:104F5000019C05EB8608082705F0F4FAB8F8021062
:104F600015F82600FCF77AFB0120FCF79DFAB8F84B
:104F7000021015F82600FCF769FB0920FCF794FAEB
:104F8000B8F8021015F82600FCF77AFB814605F008
:104F9000FBFA3220C4F34704FCF786FAB9F1000F9C
:104FA00001D044F08004013FD6D12146204802F0D0
:104FB000D3FC384609E7012007E7119B013B119319
:104FC00090E60B9D194C04EB850605F0BBFA718841
:104FD00014F82500FCF742FB3C20FCF765FA14F8B6
:104FE00025007188FCF732FB05F0CEFA4046FCF74D
:104FF0005BFA4046E9E60B9D0C4C04EB850605F098
:10500000A1FA718814F82500FCF728FB0F20FCF7A3
:105010004BFA14F825007188FCF718FB05F0B4FA78
:105020002D20FCF741FA3846CFE600BFB408002037
:10503000ACE6000838B5094B1B6804460D4623B1A1
:105040001846214607F090FA30B92946224604480E
:10505000BDE8384002F080BC38BD00BFC408002065
:105060007CE100082DE9F047DCB00024431E0A1D56
:105070008A4608A8994902948DF83840FDF700F84F
:10508000974D984EA046A146274604A808A9FDF7CB
:1050900005F8044638B3049B002B67D05C68AC422B
:1050A00019D0B44251D020468F4907F05DFA00284C
:1050B0004ED08E4B9C4254D08D4B9C42E5D10598EE
:1050C00002A9FCF749FF0028DFD18A4802F016FC4C
:1050D0004FF0FF3451E004A808A9FCF7DFFF0127D7
:1050E00004460028D7D19DF83830002B00F0CF803F
:1050F00017B9B9F1000F79D0002002F0B3FD0646D0
:10510000002841D007F0FAFB0546002839D07A4B39
:105110007A490EA8B9F1000F08BF1946FEF7DCF96D
:10512000074670B3B8F1000F33D131462A46FEF777
:10513000D9FAA8424FD13846FEF7FEFA304605F0BC
:105140007DF920465CB0BDE8F0874FF001099CE78F
:1051500006A8FCF777FD01A8FCF712FE4FF0010846
:1051600093E70EA8059907F06BFB8EE7DAF80000CD
:105170005A4A04A9FDF78AF9044620465CB0BDE806
:10518000F087304605F05AF9012420465CB0BDE8AE
:10519000F08730464FF000080378002BCBD00A2B65
:1051A00078D0431C01E00A2A76D01D46191A13F85C
:1051B000012B002AF7D10029BDD016AA01ABFCF7BC
:1051C000E3FD8146002859D0384616A94A46FEF725
:1051D00089FA484552D03846FEF7AEFA304605F017
:1051E0002DF9012420465CB0BDE8F08703A90EA884
:1051F000FEF716F80028C7D00EA84149FEF76CF953
:1052000007460028C0D03F4EA146B8F1000F14BF9A
:1052100064224FF48C72384616A9FEF721FA051E57
:105220004ADBA9443ED0B8F1000F29D006AB2FAA23
:10523000294616A8FCF70CFD01462FA802F016FB24
:105240006423AB422EDC039B99452BDAFA25029BA3
:1052500005FB03F3A6FB033189090DF10300FCF7FD
:1052600091FC0130D1D09DF80330032BEFD13846AB
:10527000FEF762FA0A2001F0D9FF7EE728468BE7A5
:1052800016A8294602F0F2FA4FF48C73D9E74FF0D2
:10529000FF3472E70546002185F8008001350029BA
:1052A0008BD148E7B8F1000F0ED13846FEF744FA2B
:1052B000154802F0EBFA60E73846FEF73DFA0A209F
:1052C00001F0B4FF012458E706A916A8FCF728FD51
:1052D000014616A802F0CAFAE7E700BFFCE00008A2
:1052E000A0EE0008C8ED0008C4E10008B8ED000811
:1052F000F8ED000814EF000894E10008C0E1000890
:1053000044E50008D34D6210CCE1000870B588B0C8
:10531000431E0A1D0E4602A81449154CFCF7B0FEA8
:105320000025684602A9FCF7B9FE58B1009B93B16D
:105330005B68A342F5D1684602A9019DFCF7AEFE69
:105340000028F3D175B12846FDF7E2FFB0FA80F0EE
:10535000400908B070BD3068044A6946FDF796F808
:1053600008B070BD4FF0FF30F3E700BFBCE00008AD
:10537000B8ED000870B588B006460D460A1D431EFC
:105380001649174C02A8FCF77BFE04E0009B63B1B2
:105390005B68A34210D0684602A9FCF77FFE002894
:1053A000F4D14FF0FF3008B070BD28680B4A694651
:1053B000FDF76CF808B070BD059B01980133B3424E
:1053C000EFD255F823100028EBD00029E9D0FEF7E2
:1053D0000BF8B0FA80F0400908B070BDDCE00008BE
:1053E000B8ED000870B5C8B006460D460A1D431E4C
:1053F0002A492B4C02A8FCF743FE04E0009B63B152
:105400005B68A34210D0684602A9FCF747FE00285B
:10541000F4D14FF0FF3048B070BD28681F4A69468C
:10542000FDF734F848B070BD059B01980133B342D5
:10543000EFD255F823400028EBD0002CE9D01949D1
:10544000FEF74AF8054610B9012048B070BD204665
:105450001549FEF741F8064638B91AE03046FEF71E
:1054600041F984420CD1FF2C0ADD08A94FF4807267
:105470002846FEF7F5F808A9044602460028EDD1B3
:105480002846FEF759F93046FEF756F9002048B095
:1054900070BD2846FEF750F90120BCE75CE100082A
:1054A000B8ED000844E5000894E100082DE9F04754
:1054B00092B0431E0A1D0F4604A84649464DFCF70C
:1054C000DFFD0026684604A9FCF7E8FD044668B144
:1054D000009B002B45D05B68AB42F3D1684604A922
:1054E000019EFCF7DBFD04460028F1D18DF8280071
:1054F000002E40D002A93046FDF738FE002864D0C7
:105500000DF1280830464146FDF75CFE334FDFF8C9
:10551000D890254657F8356002A93046D6B107F035
:1055200023F831462F23A8B99DF828208DF808309C
:10553000002A14BF434600230DF10900C9F80030CA
:1055400007F07EF93146264802F006FA02A82549FE
:10555000FEF718F90135032DDCD1204612B0BDE865
:10556000F08738681B4A6946FCF790FF04462046DE
:1055700012B0BDE8F0870DF128084146FDF722FE84
:10558000164FDFF864A0254657F835600DF148093D
:105590002F230DF10900314601359EB19DF82820D9
:1055A00009F8403D002A14BF43460023CAF80030E2
:1055B00007F046F931460A4802F0CEF94846094953
:1055C000FEF7E0F8032DDFD1C7E70124204612B033
:1055D000BDE8F08724E2000820ED0008000C002060
:1055E000C8E1000835500008C40800202DE9F04348
:1055F00089B0431E0A1D894602A81D49DFF87C8038
:105600001C4F0025FCF73CFD2E4608E0009BABB18B
:105610005B68984508BF01269F4208BF0125684680
:1056200002A9FCF73BFD04460028EFD18EB9E5B195
:10563000FCF76CF9204609B0BDE8F083D9F800000A
:105640000B4A6946FCF722FF0446204609B0BDE834
:10565000F083FCF769F90146074802F07DF9002D57
:10566000E6D1204609B0BDE8F083FBF78BFCFEE7EE
:1056700044E200084CEE00085CEC000848ED00082D
:105680002DE9F04F9DB000244FF47A730E46054685
:105690008B460D930F941094119412941394FBF76E
:1056A00033FF32466B1E0990043216A8A549A64D59
:1056B000A64EA74FFCF7E4FC4FF0FF33049402948E
:1056C0000094A1460794059403940194A246A04631
:1056D0000894069314A816A9FCF7E0FC00282DD026
:1056E000149B002B00F092805B68AB4262D0B34207
:1056F00063D0BB4266D0974A934268D0964A9342A1
:105700006AD0964A93426CD0954A934200F08C80BE
:10571000944A934269D0944A934200F08280934A1B
:105720009342D7D10DA91598FCF716FC012314A8B4
:1057300016A90893FCF7B2FC0028D1D18346B8F132
:10574000000F5AD040460A220EA907F0F1F90E9A2E
:10575000804622B111782E294AD000294DD1CDF8AA
:1057600028B04FF0FF35B8F1000F46DB099B4345E9
:1057700043DD0A9B002B5ED1B9F1000F40F0D280CF
:10578000009B002B40F05C81029B002B40F0658168
:10579000049B002B40F0CE80002C4ED0079813A91C
:1057A000FCF7DAFB002848D1714802F0A7F84FF067
:1057B000010B27E0DDF854808CE7DDF854A04FF0B2
:1057C000010987E7159B01930123009382E7159B4D
:1057D0000393012302937DE7159B05930123049313
:1057E00078E7159B0793012474E70123069371E77B
:1057F000501C0E905278002A7ED15E4802F07EF84E
:105800004FF0010B58461DB0BDE8F08FDBF80000EB
:105810004C4A14A9FCF73AFE834658461DB0BDE831
:10582000F08F0023069355E70999534802F094F846
:105830004FF0000BE6E71F2DDFD8B9F1000F69D15B
:10584000009B002B40F0F980029B002B40F015815B
:10585000049B002B40F0238184F001030993012273
:1058600002FA05F30B93454F23464C4699460A9B93
:10587000002B00F0858044B1069B5A1C00F0E880A4
:105880001A4640460B99FBF795FE009B002B40F013
:10589000BD80029B002B40F0B480049B002B3CD1C8
:1058A000B9F1000F40F0C480099B002B40F0B38099
:1058B000089B002BA6D00D9B032B9CBF04230D93AC
:1058C00003F072FDFA25064603F06EFD0D9B05FB05
:1058D00003F3A7FB032306EB931398424FF0020157
:1058E0000DF13300C3D2FCF74DF90130ECD09DF837
:1058F0003330032BE8D185E70A220EA907F018F907
:105900000E9A05461AB11278002A7FF476AF012369
:105910000A9328E700230993A1E740460B99FBF778
:105920009DFEBDE750460FA9FCF716FB00283FF48B
:105930003BAF25E7059812A9FCF70EFB00283FF4C2
:1059400033AF29E7E4E2000800EF0008C0ED0008EB
:1059500000EE0008B4EE000838EE0008B0ED0008D4
:1059600020EF0008A0ED000894ED000838ED0008D5
:1059700014EF000894EE0008ACE60008D34D621066
:105980005CB1069B013370D0BAF1000F00F0848047
:105990000F99069A4046FBF70DFE009B33B1019B21
:1059A000002B6DD010994046FBF720FE029B33B1CF
:1059B000039B002B67D011994046FBF747FE049BE1
:1059C00033B1059B002B61D012994046FBF746FE90
:1059D000B9F1000F06D0079B002B5AD0139940460F
:1059E000FBF744FE099B002B3FF462AF4FF0FF3101
:1059F0004046FBF745FE01F0CFFF2B4801F046FF84
:105A000056E740460B99FBF721FE46E740460B99C7
:105A1000FBF7ECFD3DE740460B99FBF731FE234ACF
:105A2000234B002814BF1046184601F02FFF3FE714
:105A300040460B99FBF71AFE36E7CDF824900EE7A7
:105A4000019810A9FCF788FA00283FF4ADAE9BE658
:105A500040460B99FBF796FD17E7039811A9FCF751
:105A60007BFA00283FF4A0AE92E6BAF1000F19D0FD
:105A70000F994046FBF786FD8FE7009B0993EEE602
:105A80004FF0FF318FE74FF0FF3195E74FF0FF31D7
:105A90009BE74FF0FF31A2E74FF0FF3179E7029B20
:105AA0000993DCE60699E4E7CCE1000894E30008FA
:105AB00098E300082DE9F04F8BB006468A46FBF7C5
:105AC00043FA4FF0FF35731904460AF1040204A8A3
