:020000040800F2
:1000000000C000202D0200088D0200088D020008AB
:100010008D0200088D0200088D020008000000001B
:10002000000000000000000000000000B1750008A2
:100030008D02000800000000417600088576000867
:100040008D0200088D0200088D0200088D02000854
:100050008D0200088D0200088D0200088D02000844
:100060008D0200088D0200088D0200088D02000834
:100070008D0200088D0200088D0200088D02000824
:100080008D0200088D0200088D0200088D02000814
:100090008D0200088D0200088D0200088D02000804
:1000A0008D0200088D0200088D0200088D020008F4
:1000B0008D0200088D0200088D0200088D020008E4
:1000C0008D0200088D0200088D0200088D020008D4
:1000D0008D020008010C00088D0200088D02000846
:1000E0008D0200088D0200088D020008000000004B
:1000F0000000000000000000000000000000000000
:0C01000000000000000000005FF808F1A3
:10010C003C6D637573683E003230323230323231BE
:10011C002D313833313432004D435553482064650A
:10012C007369676E65642062792050656E67205331
:10013C0068756C696E2C20616C6C207269676874D0
:10014C00732072657365727665642E0A68747470B8
:10015C00733A2F2F6769746875622E636F6D2F70F9
:10016C00656E677368756C696E2F6D637573680067
:10017C0038B30008000000204C0800004C08002098
:04018C00201B000034
:1001900070B4840746D0541E002A41D0CDB2034625
:1001A00002E0621EE4B3144603F8015B9A07F8D13B
:1001B000032C2ED9CDB245EA05250F2C45EA05457D
:1001C00019D9264603F11002103E0F2E42F8105C9A
:1001D00042F80C5C42F8085C42F8045C02F1100240
:1001E000F2D8A4F1100222F00F0204F00F04103232
:1001F000032C13440DD91E462246043A032A46F81E
:10020000045BFAD8221F22F003020432134404F0E4
:1002100003042CB1C9B21C4403F8011BA342FBD157
:1002200070BC704714460346C2E700BF002103E0DC
:100230000F4B5B58435004310E480F4B42189A4203
:10024000F6D30E4A02E0002342F8043B0C4B9A42DC
:10025000F9D30C4A03E05FF0A53342F8043B0A4BA4
:100260009A42F8D300F014F807F0E2FA7047000061
:1002700038B30008000000204C0800204C08002083
:100280006C23002000BC002000C00020FEE700001E
:1002900010B4104B104A1968104841F00101196060
:1002A00059684FF41F040A405A601A684FF0006101
:1002B00022F0847222F480321A601A6822F48022BA
:1002C0001A605A6822F4FE025A609C6081605DF8F0
:1002D000044B7047001002400000FFF800ED00E002
:1002E0004FF6FF02064900F00700CB681A4042F0C3
:1002F000BF6343F4003343EA0023CB60704700BF81
:1003000000ED00E030B4184BDB68C3F30223C3F107
:100310000705042D03F1040428BF0425062C17D972
:10032000033B01249C40013C22400124AC40013CA1
:1003300021409940002842EA01020CDB120100F141
:100340006040D2B200F5614080F8002330BC7047B5
:1003500000221346E9E7054B00F00F001201D2B26C
:1003600003441A7630BC704700ED00E0FCEC00E07E
:10037000002807DB044A00F01F01012340098B40DD
:1003800042F82030704700BF00E100E02DE9F04F57
:10039000002583B02A46DFF8C8E16B4CDFF8C4C102
:1003A00003E00132102A00F0858001230E6893409B
:1003B0001E409E42F5D14B68122B00F09F8000F248
:1003C0008980022B00F09F807FD9032B00F0998059
:1003D000112B01D1CD680435FF2E6ED882460368FB
:1003E0004FEA820B4FF00F0909FA0BF823EA0808CD
:1003F00005FA0BF348EA0303CAF800304B68DB0048
:10040000CFD5524B514FD3F8188022F0030348F058
:100410000108C7F81880D7F8188003F1804308F066
:100420000108CDF8048003F5803302F00308DDF8FD
:1004300004A04FEA8808D3F808A009FA08F9704523
:100440002AEA090A72D0604573D0414FB84275D08C
:10045000404FB8420CBF4FF003094FF0040909FAAE
:1004600008F949EA0A09C3F808904B68013213F405
:10047000803F236814BF3343B34323604B6813F4B6
:10048000003F636814BF3343B34363604B6813F4A6
:10049000801FA36814BF3343B343A3604B6813F4B6
:1004A000001FE36814BF1E4323EA0606102AE66015
:1004B0007FF47BAF03B0BDE8F08FA2F1080B436877
:1004C0004FEA8B0B00F1040A8CE79BB1012B83D11F
:1004D000CD6881E7204FBB420CD017D91F4FBB42DC
:1004E00008D007F58037BB4204D0DFF87C80434555
:1004F0007FF472AF8B689BB904256DE7CD680C352E
:100500006AE7002568E7CD68083565E7DFF85C80B5
:100510004345EFD008F5803843457FF45DAFE9E708
:10052000012B0CBF06614661082555E74FF0000915
:1005300097E74FF0010909FA08F992E74FF002092D
:1005400009FA08F98DE700BF0004014000100240DD
:100550000010014000140140000021100000311083
:1005600000080140000C01400000221000001110A2
:100570000A4B5A68D20308D40948084B5B68C3F396
:100580008343023303FB00F070475B680548C3F305
:1005900040430133B0FBF3F0EFE700BF001002402F
:1005A00000093D0000127A00044B5B6803F00C0365
:1005B000082B01D1FFF7DCBF014870470010024053
:1005C00000127A0010B50446FFF7EEFF0B4B2060D7
:1005D0005A680B49C2F303128A5C0A49D040606032
:1005E0005A68C2F302228A5C20FA02F2A2605B68B7
:1005F000C3F3C223CB5CD840E06010BD00100240C2
:10060000989D0008A89D0008C3689B0401D50020A0
:10061000704730B50D460446C368C86849682A6902
:10062000014323F4B0530A4323F00C031343E36064
:100630002269AB6822F440521343236162696B69FB
:1006400022F44072134385B063616846FFF7BAFF36
:10065000174B9C4229D0174B9C4205D0164B9C420D
:1006600002D0002005B030BD029B002BF9D02968D4
:100670000029F6D003EB830303EB83038900B3FB6C
:10068000F1F10E4B6422A3FB0150400902FB101252
:1006900012013232A3FB0223C3F3471303EB00130F
:1006A0009BB20120A36005B030BD039BDDE700BF16
:1006B0000038014000440040004800401F85EB51D5
:1006C000054A064BA2FB00208009013800210522C3
:1006D000586099601A607047D34D621010E000E0D6
:1006E000014B1860704700BF2C040020704700BF0A
:1006F000704700BF08B500F0D1F900F07BF800F0BA
:1007000055F900F009F8FFF7F3FF002000F0DAF9DF
:10071000003018BF012008BD08B5002002464FF484
:10072000807100F06DF9BDE8084000204FF4807141
:1007300000F08CB90120704710B504464FF4807169
:10074000002000F08BF9034901230A78A3401343EA
:100750000B7010BD4C08002010B504464FF480719A
:10076000002000F073F9044901230A78A34022EA2B
:1007700003030B7010BD00BF4C08002010B50446E9
:100780004FF48071002000F071F9034901230A78C9
:10079000A34053400B7010BD4C080020034B1B7846
:1007A00043FA00F000F00100704700BF4C08002041
:1007B000BFF34F8F0549064BCA6802F4E06213434A
:1007C000CB60BFF34F8F00BFFDE700BF00ED00E03F
:1007D0000400FA0510B5044601460C220448012322
:1007E00000F01EFC2046BDE8104008F059BC00BFD8
:1007F000E8F7FF1F10B5514C82B0A369002143F008
:100800000103A361A3690A4603F001030093009B5F
:10081000E3696FF00B0043F08053E361E36903F099
:1008200080530193019BFFF76DFD00210A466FF095
:100830000A00FFF767FD00210A466FF00900FFF785
:1008400061FD00210A466FF00400FFF75BFD002107
:100850000A466FF00300FFF755FD00210A466FF0CE
:100860000100FFF74FFD00210A464FF0FF30FFF770
:1008700049FD3349334A4B6823F0E06343F000738A
:100880004B60136823F0070343F0020313601368FF
:1008900003F00703022B00D0FEE72246236843F44F
:1008A00000232360236843F4803323601168234BC3
:1008B0008903FBD519465A6822F47C1242F4E812E7
:1008C0005A601A6842F080721A600A681B4B9201E3
:1008D000FBD519465A6822F0F0025A605A6822F491
:1008E000E06242F480625A605A6822F460525A60B0
:1008F0005A6822F0030242F002025A604B680F4C21
:1009000003F00C03082BF9D10F48FFF7D9FE0F4A6B
:100910000D48136843F004031360FFF7E1FE6368BA
:100920000B4A23F4800363600023D168032082F81C
:100930002330FFF7D5FC02B010BD00BF001002400D
:10094000000001400020024000A24A0410E000E044
:1009500000ED00E082B0052210F1FF300CD30192CF
:10096000019B002BF8D0019B013B0193019B002BC5
:10097000F9D110F1FF30F2D202B0704741F270723B
:1009800082B010F1FF300CD30192019B002BF8D004
:10099000019B013B0193019B002BF9D110F1FF302A
:1009A000F2D202B0704700BF05207047064B82B0FC
:1009B0009A6942F07C029A619B6903F07C0301937F
:1009C000019B02B0704700BF0010024010B5002A22
:1009D00084B002D0D4BF0222012204AB074C43F8FA
:1009E000101D194654F8200003230024029201949C
:1009F0000393FFF7CBFC04B010BD00BFB09D00080F
:100A000010B584B004AB72B90F4C43F8101D1946F1
:100A100054F8200003230124029201940393FFF76A
:100A2000B5FC04B010BD084A43F8101D194652F831
:100A30002000032301221124019402920393FFF763
:100A4000A5FC04B010BD00BFB09D0008024B89B2E8
:100A500053F8203019617047B09D0008024B89B2ED
:100A600053F8203059617047B09D0008064B53F889
:100A70002000C36801EA030299431CBF89B20161E7
:100A80000AB192B242617047B09D0008024B53F820
:100A90002030986808407047B09D000845F25550D6
:100AA00040F6FF71024B0222186099605A6070474D
:100AB000003000404AF6AA22014B1A60704700BF7E
:100AC00000300040F0B5454B91B0044680214448C9
:100AD000012200F039FD434B186000287AD0424BC8
:100AE00042488021012200F02FFD414B1860002870
:100AF00070D0404B10AF9A694FF4007142F004027D
:100B00009A619A694FF0030E02F004020092009A73
:100B10009A69012542F480429A619B6947F8281D31
:100B200003F480430193394602263348CDF824E08C
:100B3000019B079608950026FFF728FC4FF4806379
:100B400039462D48069308950796FFF71FFCB442D7
:100B500018BF2346294C08BF4FF416530C220AA98C
:100B600020460A930E920B960C960D960F96FFF761
:100B70004BFDE3686FF4007143F400536FF04002E3
:100B8000E36021602260236832460293029B63681F
:100B90000A210293029B236825200393039B636829
:100BA0000393039B23680493049B63680493049B4F
:100BB00023680593059B63680593059BE36843F0F1
:100BC0002003E360FFF79EFB2520FFF7D1FB2846BB
:100BD00011B0F0BD002011B0F0BD00BFC49D0008F1
:100BE000CC9D0008C8220020D49D0008D09D00089C
:100BF000C4220020001002400008014000380140DB
:100C000010B51A4C82B0E3681B0602D5236818069B
:100C10001CD4164C236899060CD4144B1A6812077E
:100C200006D55A681A680192019A5B680193019B84
:100C300002B010BD0E4B626802A9186801F8052DBC
:100C400000F0B8FC6FF020032360E6E7094B0DF1DC
:100C50000301186800F0B8FC18B19DF80330636018
:100C6000D7E7E36823F08003E360D2E70038014070
:100C7000C8220020C422002008B5054B186800F0E7
:100C800077FC044B1868BDE8084000F071BC00BF59
:100C9000C8220020C422002010B582B002AB084C4C
:100CA00003F8010D0A462068194600F065FC28B1DA
:100CB000044A0120D36843F08003D36002B010BD22
:100CC000C42200200038014001207047FFF7D4BF44
:100CD00010B5074B044601464FF0FF32186800F08C
:100CE0005BFC002814BF20464FF0FF3010BD00BF52
:100CF000C822002010B5064B04460A460146186873
:100D000000F04AFC002814BF20464FF0FF3010BD11
:100D1000C822002070B50E1E11DD0446851902E0C0
:100D2000012000F0D5FB20784FF0FF31FFF7B4FF32
:100D30000028F5D00134AC42F5D1304670BD002614
:100D4000304670BD10B5044602E0012000F0C0FB43
:100D500020464FF0FF31FFF79FFF0028F5D010BD70
:100D60000023037043704360704700BFF0B51D78E7
:100D70000144012D5C7848D045D3022D41D18842F1
:100D8000154639D007782A4E44EA97143F2C98BF6D
:100D900016F804E007F03F04365D88BF4FF03D0EC3
:100DA00085F800E06E705E6801300136132E5E60DB
:100DB0002DD00235884236D004781D4EA708F65D46
:100DC00004F00304013024012E7005F1010E884265
:100DD00023D00778013044EA17143F2C96BF144EF5
:100DE0003D26365D07F00F0488420EF101054FEAFB
:100DF00084048EF80060C5D102215C70A81A1970B5
:100E0000F0BD0020F0BD1546D4E79646DFE70A277F
:100E10000026AF7003355E60CCE701215C70C2EB49
:100E20000E001970F0BD00215C70A81A1970F0BD99
:100E3000DC9D00080B78012B17D0022B05D0034650
:100E40000A2203F8012B181A70474B783F2B96BFE4
:100E50000E4A3D21D15C03463D2203F8021B42703D
:100E60000A2203F8012B181A70474B783F2B96BFC4
:100E7000064A3D22D25C3D230270437083700A22F1
:100E8000C31C03F8012B181A704700BFDC9D000833
:100E900030B583B00D46002201A9044608F024FABB
:100EA000019B73B19C4201D10BE0019313F8012B1C
:100EB000202AFAD0092AF8D01AB92860012003B0F4
:100EC00030BD002003B030BDF0B5234F83B0A7FB89
:100ED000013405462409CAB92049214AA1FB04630B
:100EE0005B09A1FB0361A2FB04624909C3EB031682
:100EF000C1EB0111A4EB8604A3EB81030094D20A99
:100F0000184901F011F9284603B0F0BDFA2303FB9C
:100F10001411124EA6FB04234FF47A7202FB01F166
:100F20005B09A6FB03260E4AA7FB0171A2FB047214
:100F30007609C3EB0317C6EB0616A4EB8704090971
:100F40000191A3EB86030094D20A074901F0ECF863
:100F5000284603B0F0BD00BFD34D62108988888851
:100F6000C5B3A2913C9E0008289E000838B50C46E7
:100F7000054600F09DFA224601462846BDE8384065
:100F8000FFF7A2BF08B103780BB900207047FFF745
:100F90007FBF00BF28B3F0B5067883B016B9002034
:100FA00003B0F0BD14460D46002201A9074608F023
:100FB0009BF9019B0646002BF1D09F4201D1EEE741
:100FC000019313F8010B2028FAD00928F8D02A2819
:100FD00009D00028E3D1034601202E60236003B02E
:100FE000F0BD00207047184601A900221F4601935A
:100FF00008F07AF9019B002BD1D09F4201D1CEE7B6
:10100000019313F8012B202AFAD0092AF8D0002ADC
:10101000C5D1012871F10003DDDB431EDCE700BF11
:1010200070B4F2B18D1C8618047802352409092C9D
:1010300094BF3034373405F8044C10F8014B04F0F9
:101040000F04092C94BF30343734B04205F8034CF8
:10105000EAD101EB42020BB100231370084670BCC9
:1010600070470A46F7E700BF00B583B001A901F059
:10107000ADF903B05DF804FBF8B504460F4616461B
:101080001D4600211822FFF783F827606660A560DF
:10109000F8BD00BF2DE9F84F0346002203F8012BED
:1010A0000133427003F8012B03F8012B03F8012BE5
:1010B00003F8012B03F8012B1A70CE688B689E424F
:1010C0005DDAD1F804800C4658F82670054665496B
:1010D0000222384608F012F8F0B9237D002B57D0D1
:1010E000226813786BB1002102E012F8103F43B17F
:1010F000042BFAD123698B4201F10101F5D113468A
:1011000021612B60E3686268591CE16052F823306A
:1011100001206B60BDE8F88F3B782D2BE0D1237D5B
:10112000002BDDD1731CE36058F826707A784AB33F
:10113000266833781BB925E016F8103F13B3013B3E
:10114000012BF9D8B3789342F6D12E603378022B75
:101150001BD1384607F0A4FF022864D9BB1C6B6082
:10116000BB783D2B11D1FB1C6B60FB786BB973789E
:101170009B0772D500236B600120BDE8F88F1046F5
:10118000BDE8F88F002385E888000120BDE8F88FCE
:10119000731CE36058F826703D21384607F0F8FFCD
:1011A00007F102098046002838D0C9EB000A2668FA
:1011B000337833B9E6E7012A1ED916F8103F002B21
:1011C000E0D0032B03F1FF32F5D1BAF1000FF4D1D7
:1011D0002E603378032B02D1012323753378022B41
:1011E000D3D1B8F1000F1ED008F101036B6098F85D
:1011F0000130002BBBD0C8E7D6F804B0BBF1000F1C
:10120000DBD0584607F04CFF8245D6D159464846B8
:10121000524607F073FF0028CFD1D9E7484607F0C0
:101220003FFF8246C3E77378A26813F0020FE368BA
:101230000AD093429EDA591C6268E16052F823306A
:1012400001206B60BDE8F88F934206DA626852F8BD
:10125000231009782D297FF457AF034B01206B60D1
:10126000BDE8F88F509E000895B0000870B50246A2
:101270000E465948594903F029FE002825DB3378EA
:1012800006F1100423B94FE014F8103B002B4BD0AB
:1012900014F80F5C6807F7D4514803F017FE0028D4
:1012A00013DB14F8103C022B12D0042B05F00105BF
:1012B00018D0052B24D0032B73D014F80E1CC9B101
:1012C000484803F003FE0028DEDA4FF0FF3070BD1F
:1012D000A9071DD454F80C1C54F8082C424803F0FC
:1012E000F5FDF0E7002D60D154F80C1C3F4803F0E9
:1012F000EDFDE8E754F80C1C3D4803F0E7FDE2E79C
:10130000002D58D154F80C1C3A4803F0DFFDDAE701
:1013100014F80E1C002954D154F80C1C54F8082C55
:10132000354803F0D3FDCEE73448354903F0CEFD10
:1013300033780546344683B924E06268002A46D0F3
:10134000304803F0C3FD0546002DBEDBE068D8B190
:1013500003F09EFD14F8103FA3B162785207F9D450
:10136000032BF7D0E0680028F4D0043B012B0FD901
:10137000A1780029E1D1616881B1234803F0A6FD7D
:101380000546E1E7E81770BD204803F06FFDE1E78F
:101390001F48616803F09AFD0546D5E7002DD7DAAE
:1013A00093E71C4803F092FD8DE754F80C1C1A4893
:1013B00003F08CFD87E754F80C1C184803F086FDF9
:1013C00081E754F8082C164803F080FD7BE71548A8
:1013D00003F07CFD0546B7E7549E000809B10008FC
:1013E00030AD0008B09E00087C9E0008949E000866
:1013F000B89E0008A49E0008709E00085C9E00082D
:1014000021B10008C89E0008D89E0008E8A900087D
:10141000C09E0008509E00088C9E00089C9E0008FC
:10142000649E0008E49E0008F8B54B680D46074628
:1014300016465BB118460D4907F0F6FC044628B97C
:1014400038463146FFF712FF2046F8BD0849094AE1
:10145000094803F03BFD686803F01AFD3846314641
:10146000FFF704FF4FF0FF34EEE700BFF89E0008DF
:10147000E3B000088CB00008009F000838B50446AF
:1014800007F00EFE0546204603F0F0FC3A2003F07C
:10149000C7FC092D05F1010405DC0134202003F00F
:1014A000BFFC0B2CF9D138BD704700BF05F098B9CF
:1014B00005F0EAB906F08EB806F0AEB84FF050036A
:1014C00083F31188BFF36F8FBFF34F8F704700BF57
:1014D00005F086BBFA2303FB00F0034BA3FB0030AF
:1014E000800905F07DBB00BFD34D6210F0B5074603
:1014F000164685B00A9D03ACC3F38F0208463346F7
:1015000039460095019404F0FBFF01280CBF0398B5
:10151000002005B0F0BD00BFF0B58646174685B087
:101520000B9A0A9C92E8600008469A0871463B466E
:1015300001960295009404F0A9FF05B0F0BD00BF2C
:1015400005F00EB805F0CEB870B5002682B028CBF5
:1015500004460096084611462A4604F0D7FA054686
:1015600018B114B1214604F059FD284602B070BDEF
:10157000002104F077BA00BF08B532EA220228BF82
:101580004FF0FF32002304F007FBA0F10100B0FA96
:1015900080F0400908BD00BF08B532EA220228BF2A
:1015A0004FF0FF3204F02EFCA0F10100B0FA80F001
:1015B000400908BD002208B5134604F0B3FB003013
:1015C00018BF012008BD00BF08B5002204F0CAFC06
:1015D000003018BF012008BD06F010B906F01AB996
:1015E00030B4044D044C402305600C60136030BCE3
:1015F000704700BF840C0020F009002030B4044D77
:10160000044C502305600C60136030BC704700BF71
:10161000F00A0020440B0020704700BF704700BF55
:1016200000F0BCBD2DE9F043ADF2544D06A81E21DB
:10163000002205F0DFFC071E26DDDFF8588009AC2C
:101640004FF00009227854F80C6C042A6568A168F0
:101650004FF03F0398BF18F80230226900960195B9
:1016600002910392A58A3668AD0054F8041C54F820
:10167000082C074809F101090496059503F026FC9A
:101680004F4504F12404DDD10DF2544DBDE8F08343
:10169000089F00088C9F0008F0B500238FB01C46FF
:1016A000079301E0082C1FD0204606A907AA04F0E2
:1016B00009FD01340028F5D0069808A904F01CFDA6
:1016C0000028EFD00898099D0D9F2E1A02900B98C4
:1016D00007990190069A0C9B03950496009703487E
:1016E00003F0F4FB082CDFD10FB0F0BD309F0008F1
:1016F00010B50D48FFF7C2FE0C4A0D490D4803F026
:10170000E5FB0D48FFF7BAFE0C4C0D4B204619685F
:1017100003F0DCFB0B48FFF7B1FE2046BDE81040AC
:10172000FA2103F0D3BB00BF549F00086C9F000850
:10173000609F0008589F0008749F0008D8AC0008FC
:101740002C040020809F0008F0B5002A059D069F0C
:1017500067DD91F800C0BCF1000F2CD00E460024CC
:1017600016F801EF0134BEF1000FF9D1A24223DCDB
:10177000724613F0020F0CBF4FF0200E4FF0300EE8
:1017800013F001031AD1002A52DD3C680CE0046812
:1017900084F800E00468013404603C6801343C6073
:1017A000013A03F1010349D0A542F9D90028EED14D
:1017B0006FF00100F0BD6446121BDAE76646BCF12B
:1017C000000F15D000233C680BE004682670046805
:1017D000013404603C6801343C6011F8016F01334E
:1017E0003EB1A542F9D90028EFD16FF00100F0BD5C
:1017F0006346002A1FDD3C681A440BE0016881F84B
:1018000000E00168013101603C6801343C60013353
:10181000934211D0A542FAD90028EFD16FF0010010
:10182000F0BD13F001030FD191F800C04FF0200E6E
:101830006646002EC7D11A461046F0BD91F800C08A
:101840006646002EBFD1F6E70E784FF0200E002E30
:10185000B8D13246F0E700BFF0B587B00F460F9E13
:10186000109D002945D00C46864673BB00238DF899
:1018700017300DF11701002F33D01F460E9B0DF1CD
:101880001701A3F13A00B4FBF2F302FB1344092C55
:10189000C8BF2418303401F8014D1C46002BF2D18A
:1018A000FFB10C9B002B34D12D2301F8013C002407
:1018B00001390096019570460C9A0D9BFFF744FF85
:1018C000002800DB204407B0F0BD0A2ACED1002951
:1018D000CCDA00234C428DF81730002C36D001278B
:1018E000CCE7119B9BB12B2301F8013C002401396B
:1018F000DFE700960195302403A90C9A0D9B8DF823
:101900000D708DF80C40FFF71FFF07B0F0BD119C64
:10191000CFE70D9B9B07C7D52B689E420ED9BEF122
:10192000000F10D0DEF800302D221A70DEF80030E3
:101930000133CEF800302B6801332B600C9B01245F
:10194000013B0C93B5E76FF00100BCE70DF1170107
:10195000A7E700BF2DE9F04FB3B002F1FF3B1D78C0
:101960003C9A002407460B9112940792002D00F038
:10197000B983A146DA4680461A461AE01578129BCA
:101980009A450ED9B8F1000F00F08F80D8F80030DA
:101990001D70D8F80010129B01310133C8F80010F7
:1019A0001293144609F101096578621C002D00F0BC
:1019B000D380252DE2D15378541C002B00F0CC802D
:1019C000252B77D02D2B03BF9378941C012600265E
:1019D0002B2B71D00022099203E014F8013F46F04E
:1019E0000206302BF9D02E2B33D0A3F13002D2B225
:1019F000092A2ED90622089200276C2B04BF63788F
:101A00000134682B5DD0583B202B46D8DFE813F01B
:101A1000420345004500450045004500450045009E
:101A2000450045004500B701F5018C01C800C8001C
:101A3000450045004500450045004500450045007E
:101A4000D20145004500B10045002E024500450089
:101A50000E0206210D4631460027621C3E468B468B
:101A600003E000EB4C0512F8013BA3F130012E2BF3
:101A7000C8B202F1FF340AD0092805EB850C07EB48
:101A8000870E07D8002EECD101EB4E07EBE70025BF
:101A90000126E8E708955E46AFE7129B9A4540F2BB
:101AA0001682B8F1000F40F0FA816FF0010033B0F8
:101AB000BDE8F08F224662E7012263780992144460
:101AC0008FE763780134583B202BE6D801A252F807
:101AD00023F000BFA12000089B1A00089B1A0008F1
:101AE0009B1A00089B1A00089B1A00089B1A000802
:101AF0009B1A00089B1A00089B1A00089B1A0008F2
:101B00007F1D00080B1F0008291D0008A11B0008ED
:101B1000A11B00089B1A00089B1A00089B1A0008CA
:101B20009B1A00089B1A00089B1A00089B1A0008C1
:101B30009B1A0008FB1E00089B1A00089B1A00084D
:101B4000731B00089B1A0008191F00089B1A000845
:101B50009B1A0008FF1E000847460B9B13F0010369
:101B600003D1002FA1D03A681370484633B0BDE8C6
:101B7000F08F079BBA4D196812A8002908BF2946A3
:101B800001903A463346CDF800A04046079DFFF746
:101B9000DBFD002805F1040589DB8144079503E797
:101BA000079B002203F1070E2EF0070EDEF800302F
:101BB0000C931846DEF804301D460A93294600238C
:101BC0000EF10805079506F081FA002840F04482DE
:101BD000099B002B40F089811DAB9B460D93089B10
:101BE000072B0ED89F4B089D0C9803EBC5030A9951
:101BF000D3E9002305F046FE0C900A91002D00F079
:101C00005582089D00230120013300EB8000AB4288
:101C10004FEA4000F8D1089505F070FFCDE90E01BC
:101C20000C980A9906F07AFA0990002800F084814D
:101C3000099BDFF834C2089D0DF14B0E0020ACFB70
:101C40000312D20802EB8201A3EB410330330EF8FA
:101C5000013F01301346002AF1D10DF14C0E0EEB7D
:101C600000030BF1FF3213F8011D734502F8011F49
:101C7000F9D108958344089B002B43D0099805F0BF
:101C80003DFF02460B460C980A9905F0F9FDDDE987
:101C90000E2305F0A9FF06F041FA2E238BF8003041
:101CA000002800F02182DFF8C0C1089D0DF14B0E25
:101CB0000021ACFB0023DB0803EB8302A0EB420214
:101CC000303201310EF8012F1846002BF1D18D4230
:101CD000089598BF0DF14C0E40F2CA810DF14C0EE3
:101CE0004B1E089D7344302201318D4203F8012FB1
:101CF0004FF03000F8D8002940F0BA818BF801008D
:101D00000BF1020B12A800250190CDF800A00D994F
:101D10003A46334640468BF80050FFF715FD002841
:101D2000FFF6C5AE81443FE6079B073323F0070368
:101D3000D3E900010833079306F010FA054605F0D1
:101D400081FD002840F0FE806E2361228DF8743002
:101D50008DF876308DF875200DF17701002012ADE9
:101D600008703A4633464046CDF800A001951DA9BB
:101D7000FFF7EAFC0028FFF69AAE814414E6079BC1
:101D800012A9D3F800E03A4633460191CDF800A0FD
:101D90000025404611A9079E8DF844E08DF8455076
:101DA000FFF7D2FC002806F10406FFF680AE81445E
:101DB0000796F9E50020D8F8003030221A70D8F8DC
:101DC00000307822591CC8F800105A70D8F800303A
:101DD00009F102090133C8F80030002F7AD1002838
:101DE00000F0A080079A0427134611683B4446F090
:101DF0000206079389B241221EE0079A1346116832
:101E0000043307930998612212AB05900292049360
:101E100000970196CDF80CA040460A220123FFF757
:101E20001BFD0028FFF643AE8144BDE5079A13462B
:101E30001168043307936122099812AB059002924E
:101E4000049300970196CDF80CA040461022002381
:101E5000FFF702FD0028FFF62AAE8144A4E500BF8B
:101E6000949F0008A09F0008CDCCCCCC079A1346C5
:101E70001168043307930998612212AB059002920E
:101E8000049300970196CDF80CA040460A22002347
:101E9000FFF7E2FC0028FFF60AAE814484E5D8F89B
:101EA000003025221A70D8F80020129B511C0133F3
:101EB000C8F800109A452178129308D95170D8F8C3
:101EC0000020129B01320133C8F80020129309F15F
:101ED000020969E5079A46F00206134604331168C1
:101EE0000793002887D089B285E72B238DF87430BB
:101EF0001DAB0DF1750B0D9371E601205BE7079AA1
:101F0000134604331188079395E7079A1346043361
:101F1000B2F90010079375E7079A13460433118846
:101F20000793A8E7079A46F00206134604331168A0
:101F30000827079341227FE730238BF800300BF10D
:101F4000010B98E6284605F07DFC0128284640F262
:101F5000B28005F075FC002800F096802D2305F175
:101F600000458DF8743028464FF07E5106F0F2FBA4
:101F7000002840F0B480684B099300239B460894E6
:101F8000099C6649284606F0F9FB4FF07E5118B9C6
:101F9000284606F0DFFB40B13DB12846214606F059
:101FA0003BFA0BF1010B0546EBE701231A46089CAF
:101FB0000DF17503CDF820B00A940D964FF07E5BBD
:101FC0000C9714461E4601E03E4601345946284609
:101FD00006F0D6FA06F0E6FBC0B200F13002012CA2
:101FE000327006F1010700F0818006F0C1F9014668
:101FF000584606F011FA0146284606F003F946490C
:102000000546584606F008FA072C8346DCD13A46C6
:102010006523099813704FF08041099206F0B8FBD0
:102020000A9C0C9F0D9E099A90B3089B002B0CBF35
:102030002B202D20089D3A49EB1781FB05E1C3EBCE
:10204000A10101EB8103A5EB4303303130339170E3
:102050005070D370111D81E60A9A2D2302F10042BF
:102060008DF874301DAB0A920DF1750B0D93B6E52A
:102070005A460EEB010313F8010D734502F8010FE8
:10208000F9D101318B443DE620238DF874306AE7A5
:102090002B20CFE7079A1346043311680793AAE66B
:1020A000079A1346043311680793A3E61D4B0022D9
:1020B000CDE90E23B4E505F0C3FB00284FF069011C
:1020C00014BF20202D206E2266238DF875108DF808
:1020D00074008DF876208DF877301EA93EE60F4B00
:1020E00009934AE7A94638E50146F7E54FF02E0384
:1020F000737006F03DF90146584606F08DF9014629
:10210000284606F07FF804490546584606F084F94B
:10211000B71C834658E700BFCDCCCC3D0000204122
:10212000676666660000F03F0EB410B587B009AC74
:1021300054F8043B0390009403A800214FF0FF32B1
:102140000594FFF707FC07B0BDE8104003B07047E7
:1021500010B584B004AC44F8040D0B460092204640
:1021600000214FF0FF32FFF7F5FB04B010BD00BFB8
:10217000074A0346106838B1064903448B4294BFAE
:1021800013604FF0FF307047034908461160F3E7D2
:10219000D80C002000BC00206C23002038B5FEF7CE
:1021A000C9FA0546FFF78AF9002D06DD002420460E
:1021B0000134FEF7D1FAAC42F9D1002D06DD00243E
:1021C00020460134FEF7DAFAAC42F9D14FF4FA7046
:1021D000FEF7D4FBF1E700BF014B1868704700BF62
:1021E000DC0C0020024B1A6818601046704700BFD4
:1021F000DC0C0020704700BF30B5134D83B02C6855
:102200000CB103B030BDFFF74FF9FFF7F3FFFEF756
:1022100071FAB0B10D48214602F044FF88B10C4973
:102220000C4800F02DF80C4903230191009322463D
:102230000A480B494FF48053FFF76EF928600028D5
:10224000DFD1FFF7ABFF00BFCC22002074A4000851
:1022500028A00008B4B1000818A0000820A00008B9
:10226000AD55000808B5054B1B681BB1FFF71EF9FB
:10227000FFF794FFFFF7C0FFF8E700BFCC22002074
:10228000F8B505460F460378144E2F2B08BF0135CD
:10229000002456F83400013418B1294606F0C4FD74
:1022A000B8B1032CF5D132680C4BA2B19A6822B1B7
:1022B0001B69022413B10020F8BD01247B689847F4
:1022C0000028F8D006EBC40346F834505F600120C4
:1022D000F8BD0120F8BD1446F0E700BFD42200206D
:1022E00003782F2B01D0002070474378EBB110B456
:1022F000104C22681A445278520710D02F2B0ED05F
:10230000013006E022681A445278520707D02F2B7A
:1023100005D001F8013B10F8013F002BF2D100235A
:1023200001200B705DF8044B704700230B700120F7
:10233000704700BF3804002003782F2B01D0002005
:1023400070474378002BFAD010B4114A013014685A
:10235000E21805E02F2B0CD010F8013FE21823B152
:1023600052785207F6D12F2B03D000205DF8044B92
:102370007047013003782BB101F8013B10F8013FA1
:10238000002BF9D1002301200B705DF8044B70473E
:102390003804002070B584B06946FFF7A1FF70B122
:1023A000094E002456F8340006EBC405013418B178
:1023B000694606F039FD20B1032CF3D1002004B0AA
:1023C00070BD2846FBE700BFD422002070B588B05E
:1023D00005460E46FFF7DEFF694604462846FFF72E
:1023E000ABFF28B134B1636868469B6B31469847B0
:1023F00008B070BD204608B070BD00BF2DE9F041A7
:1024000088B004460E46FFF7C5FF694605462046DC
:10241000FFF792FF90B1A5B1FFF74CF81A490024DD
:102420000B465A680C3382B10134052CF9D1FFF701
:1024300043F86B6807221B6800201A6008B0BDE8EB
:10244000F081284608B0BDE8F08104EB44086B68D1
:102450004FEA880801EB08077B60FFF72DF86B68EF
:1024600068461B6A31469847074A034638B96A6886
:102470000621126811607B6008B0BDE8F08142F867
:10248000080004F10A00D9E7EC2200200A380428E9
:1024900027D8002A23DDF8B54600154B351803EB85
:1024A00085052C7A74B93044800003445B68104D74
:1024B000D3B15B6A2858984700280ADB0CB1013079
:1024C000F8BDF8BD00270C70013A01312F720124CC
:1024D000E9E7002C14BF01204FF0FF30F8BD0020C9
:1024E00070474FF0FF3070474FF0FF30F8BD00BF2E
:1024F000EC2200200A38042815D8F8B500EB40007B
:102500000B4D84002E1973687BB15A6B28591F68D4
:1025100090473860FEF7CEFF002373602B51FEF723
:10252000CBFF0120F8BD002070471846F8BD00BF62
:10253000EC22002070B58CB00E460546FFF72AFF4E
:10254000044620B128466946FFF7CAFE10B90020AC
:102550000CB070BD28460DF11101FFF7EDFE30B152
:1025600063683146DB6B04A898470CB070BD2F231D
:10257000ADF81030F4E700BF012070470246002399
:102580000B601846136070470020704700207047AA
:1025900000207047002070474FF0FF30704700BFA9
:1025A00010B40F4B013853F83040ACB1002A0FDDA6
:1025B00003EBC0025268114400290DDBA26891426E
:1025C0000ADC03EBC003084659605DF8044B704712
:1025D0001CBFA268511AEFE74FF0FF30F5E700BFCC
:1025E000381D002000207047034B0138002243F8BB
:1025F00030200120704700BF381D0020074900220D
:102600000B4643F8042B04334A6043F8042B43F889
:10261000042B43F8042B1A6001207047381D00205A
:102620002DE9F0410646114D114F002457F8343082
:102630004FEAC4082BB10134032CF7D10020BDE8C8
:10264000F081286820B9F6E755F80C0F0028F2D081
:10265000314606F0E9FB0028F6D1B844C8F804007A
:1026600047F83450601CBDE8F08100BF7CA0000832
:10267000381D002070B505460E46084C084802E09B
:1026800054F80C0F40B1294606F0CEFB0028F7D1D4
:10269000A3680120336070BD70BD00BF7CA000083E
:1026A00068A00008F8B5104B013853F83050BDB1A0
:1026B00003EBC0067768AB68DB1B23EAE3739A423F
:1026C000A8BF1A4614460AB91046F8BD08466968FC
:1026D000394406F01DFB7268204614447460F8BD4E
:1026E0004FF0FF30F8BD00BF381D002038B50D4653
:1026F000084906F099FB50B9074C0848A168002228
:10270000A84754F80C0F0028F8D1012038BD00204C
:1027100038BD00BF70A000087CA0000868A00008B9
:10272000F8B505460F461646084C094802E054F82D
:102730000C0F50B1294606F077FB0028F7D16368EB
:1027400001203B60A3683360F8BDF8BD7CA00008A1
:1027500068A000082DE9F04188B0431E0A1D00263C
:10276000884602A82749FEF787FC3746354602A966
:102770006846FEF78FFC24490446B8B1009B2BB392
:102780005C68204606F050FB204930B1204606F038
:102790004BFB1F4918B9019FE9E70125E7E72046F0
:1027A00006F042FB0028E2D1019EE0E7CFB13846B7
:1027B00002F0D8FB174A184B002814BF10461846E1
:1027C00002F066FB204608B0BDE8F081D8F80000B2
:1027D00069460C4AFEF728FE0446204608B0BDE8CC
:1027E000F08156B1304602F0D7FB0028EAD002F063
:1027F00017FB0A2002F014FBE4E7294602F0E6FB8F
:102800000446DFE7F0A50008F0A00008F4A00008E7
:10281000FCA0000816B0000832B100082DE9F04F06
:102820008FB00A1D431E4FF47A7581460E4608A8E4
:102830004FF0FF345049002704950594B846FEF741
:102840001BFC4E4DDFF848A106A808A9FEF722FCA4
:10285000002867D0069B002B7DD05C68AC4267D017
:1028600054456CD02046464906F0DEFA002852D086
:10287000444B9C42E8D10B9B56F8230002F072FBBC
:102880000B9B8346C3EB090206EB83030092019383
:1028900000286DD03C4B984244D03C4E4FF0000A8B
:1028A0009DE80300D8478146002861D1B8F1000FA8
:1028B00004D0059B0AF1010A9A4535DA002F54D15C
:1028C000049BFA24032B9CBF04230493FEF7F0FD22
:1028D0000546FEF7EDFD049B022104FB03F3A6FB76
:1028E000032305EB93139842DAD20DF10F00FEF7A4
:1028F00001FA0130EDD09DF80F30032BE9D102F041
:10290000FDFB88B100200146024602F0DFFB48468D
:102910000FB0BDE8F08F06A808A90127FEF7BAFBA3
:10292000002897D14FF0FF3948460FB0BDE8F08F2F
:10293000079804A9FEF726FB002885D1F2E707983F
:1029400005A9FEF71FFB0028ECD0059B002BE9DD55
:102950004FF0010878E7306806A9074AFEF764FDE2
:10296000814648460FB0BDE8F08F02F08BFAA7E72A
:102970004FF00109D8E700BFA0A0000811B000087F
:1029800004A10008CDB000081D280008D34D621036
:1029900046B10008F0B54FF47A738BB00F46044689
:1029A0000193FEF785FD631E06463A1D04A82249E1
:1029B000FEF762FB214D04E0029B0BB35B68AB4268
:1029C00027D002A804A9FEF765FB04460028F3D12E
:1029D000019D0021002DB8BF0335AD1006E09DF824
:1029E0000330032B1ED0FEF763FD811B691A0DF126
:1029F0000300FEF77FF90130F1D120460BB0F0BDA6
:102A0000386802A90C4AFEF70FFD044620460BB0B9
:102A1000F0BD039801A9FEF7B5FA0028D1D14FF017
:102A2000FF34EAE702F06AFB0028E6D00020014606
:102A3000024602F04BFBE0E754A400084EB0000849
:102A40002DE9F04F8FB00C46054601910390FDF73C
:102A5000ABFF00270290221D6B1E08A86549FEF7F8
:102A60000BFBB846BA46B946634C644D644E06A8A3
:102A700008A9FEF70FFB00286CD0069A002A7DD02B
:102A8000D2F804B0A3455DD0AB4568D0B34568D05B
:102A900090685C4906F0C8F9002865D05A4A934509
:102AA000E5D10B9B019A52F8230002F05BFA0B9DD3
:102AB0000446002800F09C802FB13846FEF7D4FA77
:102AC000071C18BF0127B8F1000F1FD0404605A909
:102AD0000A2206F0FDFB059B0646002B71D01A78F2
:102AE0002E2A54D0002A56D14FF0FF33002E52DB4D
:102AF0000299B1424FDD0AB11F2B4CD8012130465B
:102B00009940FDF7C3FF002818BF0127BAF1000F55
:102B10000DD0BAF14C0F45D0BAF1650F5FD0BAF1C4
:102B2000470F04D1FFF758FB049B98423FDCB9F1F3
:102B3000000F01D087F00107002F3BD100200FB01C
:102B4000BDE8F08F06A808A9DDF81C80FEF7A2FA00
:102B5000002892D14FF0FF300FB0BDE8F08F079FF3
:102B600085E74FF0010982E7079804A9FEF70AFA02
:102B70000028EFD0069B93F802A078E7019B06A9F6
:102B800018681C4AFEF750FC0FB0BDE8F08F581CC7
:102B900005905B78BBB91D4802F08CF901200FB09D
:102BA000BDE8F08FFFF718FB049B9842BFDAB9F13C
:102BB000000FC3D1039B581B019B03EB8501A0476A
:102BC000CAE71A4690E70A2205A906F081FB059A92
:102BD000034612B11278002ADDD1012286E7FFF701
:102BE000FBFA049B9842A2D1B9F1000FA6D1E1E70C
:102BF0000120B1E730A6000835B00008C8B00008D1
:102C000007B000080CA10008CDB00008FCB0000817
:102C100010B504464078A168FDF720FFE068FDF795
:102C200099FE61682078FDF719FFE068FDF792FED4
:102C300061682078FDF70AFFE068FDF78BFE607899
:102C4000A168BDE81040FDF701BF00BF10B5044604
:102C50004078A168FDF7FAFEE068FDF77BFE616849
:102C60002078FDF7F3FEE068FDF774FEA168607858
:102C7000FDF7F4FEE068FDF76DFE20786168BDE8C1
:102C80001040FDF7EBBE00BFF8B5037D0446002BF6
:102C90000F4614BF01258025082615E0FDF7D6FE56
:102CA000E068FDF757FE61682078FDF7CFFEE06829
:102CB000FDF750FE20786168FDF7D0FE237D6A00A5
:102CC0004BB1013ED5B20AD03D426078A168E5D152
:102CD000FDF7C4FEE4E7013E4FEA5505F4D1A168D3
:102CE0006078FDF7B3FEE068FDF734FE2078616898
:102CF000FDF7ACFEA1686078FDF7C8FE0546E06808
:102D0000FDF728FE20786168FDF7A8FEB5FA85F08A
:102D10004009F8BD70B50B4E56F8204084B1054609
:102D2000616820780022FDF751FE6078A1680022DA
:102D3000FDF74CFE2046FEF751FC002346F82530F7
:102D400070BD00BF541D0020F8B51E4D074655F854
:102D500020400E4664B3207861680022FDF736FEFD
:102D60006078A1680022FDF731FE32687368B068B0
:102D7000F1682260A0606360E160E078A178736927
:102D80003269012505FA01F105FA00F0636161601D
:102D90002261A06000222078FDF732FE2A4660788A
:102DA000A168FDF72DFE2046FFF732FF2846F8BD4B
:102DB0001820FEF711FC044610B145F82700D4E7AF
:102DC000F8BD00BF541D00202DE9F84F5E4CDDF822
:102DD00028A054F82040002C00F0AE801E469146FA
:102DE0000D46002B6BD1BAF1000F00F09280204607
:102DF000FFF72CFF0B9B002B40F0828023695900CA
:102E000041F00101C9B22046FFF73EFF002800F063
:102E10008C80BAF1000F6DDD09F1FF390AF1FF3B3B
:102E20004FF00008237D6078002BA16814BF0126B5
:102E300080260825FDF70AFE002702E0013DD6B2F4
:102E40001BD0E068FDF786FD20786168FDF7FEFD88
:102E50006078A168FDF71AFE00B13743E068FDF71E
:102E600079FD20786168FDF7F9FD237D7200002B64
:102E7000E4D1013D4FEA5606E3D1C3456078A1682D
:102E800044DCFDF7E3FDE068FDF764FD6168207850
:102E9000FDF7DCFDE068FDF75DFD08F10108207835
:102EA0006168FDF7DBFDD04509F8017FBAD10C9BC5
:102EB0001BBB2046FFF7ACFE0120BDE8F88F204683
:102EC000FFF7C4FE0B9BF3B923695B00D9B2204620
:102ED000FFF7DAFE48B3002EC8BF761906DD15F8F5
:102EE000011B2046FFF7D0FEB542F8D1BAF1000F22
:102EF0007FF47DAF0C9B002BDBD00120BDE8F88F69
:102F00009DF82C107FE79DF82C10E0E7FDF7A6FD5B
:102F1000B9E72046FFF79AFE0B9B83B19DF82C1072
:102F20002046FFF7B1FE0028C3D12046FFF770FE10
:102F30004FF0FF30BDE8F88F2046BDE8F88F2369D9
:102F40005B00D9B2ECE700BF541D00202DE9F04F23
:102F5000ADF5197D00240A1D431E01260525824674
:102F600089460CA89E4909948DF848408DF849403F
:102F70008DF84B4016948DF85C408DF84A6015959D
:102F8000A046FEF779F8A34605940494954D964C17
:102F9000964E0AA80CA9FEF77DF828B30A9B002BD1
:102FA00000F0A7805F68A74255D0AF4260D0B7421B
:102FB00063D08F4A974248D08E4A974255D03846C0
:102FC0008D4905F031FF002842D038468B4905F085
:102FD0002BFF002856D101230AA80CA98DF85C30DC
:102FE000FEF758F80028D9D1049B002B40F0DA8076
:102FF000059B002B40F0DE800F9A059C0132924524
:103000000F9208AE40F39B8018AD0AE00F9A336828
:10301000013292452B550F92294604F1010440F3E9
:103020008F8059F822003146FDF7ACFF0028EDD122
:10303000734801F01BFF0F9B59F8230001F028FF94
:1030400001200DF5197DBDE8F08F01230493A0E761
:103050004FF0010B9DE70B9816A9FDF793FF002891
:1030600000F0B2804FF0010893E70123059390E749
:103070000B9815A9FDF786FF8BE70B9809A9FDF7BB
:1030800081FF86E738465F4905F0CEFE68B13846D5
:103090005D4905F0C9FE002835D05C4A97427FF4AF
:1030A00078AF0F9B013B0F939EE707A90B980A226D
:1030B00006F00EF9079B8DF84800A3B11A782E2A66
:1030C00011D1581C07905B786BB107A90A2206F052
:1030D000FFF8079B8DF84A00002B3FF45AAF1B788E
:1030E000002B3FF456AF4A4801F0E4FE4FF0FF30AA
:1030F00005E0D9F800000AA9394AFEF795F90DF55F
:10310000197DBDE8F08F07A90B980A2206F0E0F8B8
:10311000079B8DF84900002BE5D01A782E2AE2D1C2
:10312000581C07905B78002BDDD007A90A2206F017
:10313000CFF8079B8DF84B00002BD0D129E718A9B9
:10314000099AB8F1000F3BD0169B58AD8DE80C08DA
:10315000002023462A46FFF737FE306090B3013047
:1031600038D0099B002B1BD04FF00003336017DDD4
:103170001C4605E03368099A01339A4233600BDD3F
:10318000E95C244801F0A2FE04444E2CF2DD0A2042
:1031900001F046FE0024EDE714B10A2001F040FEE4
:1031A0000020ACE712A90020FFF7CEFDB0FA80F0B6
:1031B0004009A4E7049C2046FFF7ACFD20469EE7AB
:1031C0004346C2E701209AE7204601F073FE4FF024
:1031D000FF3094E7104801F06DFE02208FE700BF3A
:1031E00004A9000899B00008E9AF0008DDAF0008A5
:1031F0000FB10008D5B00008A0A70008A8A70008D4
:10320000B4A70008ACA70008B0A700084DB100089B
:10321000FCB00008C4A70008C0A7000870B5104E95
:1032200056F82040D4B10546A16820780022FDF769
:10323000CDFB6078E1680022FDF7C8FBA07821692A
:103240000022FDF7C3FBE07861690022FDF7BEFBB9
:103250002046FEF7C3F9002346F8253070BD00BFB5
:10326000501D0020F8B5364E074656F820400D4652
:10327000002C5BD02078A1680022FDF7A7FB6078C6
:10328000E1680022FDF7A2FBA07821690022FDF78A
:103290009DFBE07861690022FDF798FB29462346F3
:1032A00005F120020F684E688D68C86810319142A0
:1032B0001F605E609D60D86003F11003F2D10A6860
:1032C00001251A6021796079A279E37905FA01F183
:1032D00005FA03F305FA00F005FA02F26361A16052
:1032E000E060226120780022FDF770FB6078E168E1
:1032F0000022FDF785FBA07821690022FDF780FB05
:10330000E07861690022FDF77BFBE0786169FDF7F9
:103310009DFB94F82030A07821691BB9FDF79EFB36
:103320002846F8BDFDF792FB2846F8BD2420FEF79D
:1033300053F9044610B146F82700AFE7F8BD00BFC7
:10334000501D0020F8B53D4B53F82050002D72D091
:103350000C464E798879CF790A79012303FA00F077
:1033600003FA02F103FA06F6BB402061A160E660B1
:1033700063612B782078834256D00022FDF726FB2C
:103380006878637883424AD0E9680022FDF71EFB23
:103390006078E1680022FDF733FBA878A3788342C8
:1033A00038D029690022FDF711FBA078216900229D
:1033B000FDF726FB94F82030A0782169002B37D147
:1033C000FDF74CFBE878E378834203D1E279EB79AF
:1033D0009A420CD069690022FDF7F8FAE078616939
:1033E0000022FDF70DFBE0786169FDF72FFB04F18A
:1033F000200326686068A168E26810349C422E6051
:103400006860A960EA6005F11005F2D12368012027
:103410002B60F8BDA279AB799A42C2D1D2E762792A
:103420006B799A42B0D1B8E72B799342A5D1A7E73F
:10343000FDF70CFBC6E72846F8BD00BF501D002075
:103440002DE9F04F5B4C83B054F820A0BAF1000F87
:1034500000F0AC801C469AF820300D4693469AF84E
:103460000200DAF81010002B75D1FDF7F7FA9AF880
:103470000300DAF81410FDF7F1FADAF81800FDF796
:1034800069FA002C78D02B1F009401930125019A32
:10349000DAF81C3052F8047F9AF8218001929AF8E9
:1034A0002090002B61D00026344631E005FA04F369
:1034B0003B429AF80100DAF80C1037D0FDF7C6FA53
:1034C000C8459AF80200DAF8101037D0FDF7BEFAB6
:1034D000DAF81800FDF73EFA9AF80200DAF8101050
:1034E000FDF7BCFA9AF80000DAF80810FDF7CEFAFA
:1034F00028B19AF822308BB305FA04F31E43DAF8A8
:103500001800FDF727FADAF81C300134A3422DD950
:103510009AF82220002AC9D1E243134405FA03F3A2
:103520003B429AF80100DAF80C10C7D1FDF796FA81
:10353000C8459AF80200DAF81010C7D1FDF78EFAE4
:10354000DAF81800FDF706FA9AF80200DAF8101017
:10355000FDF77CFAC6E7FDF779FA88E7DAF81C3060
:10356000013B1B1B05FA03F3C8E71E46009B4BF803
:10357000046B013B00938AD19AF820307BB19AF812
:103580000200DAF81010FDF761FA9AF80300DAF891
:103590001410FDF75BFA012003B0BDE8F08F9AF834
:1035A0000200DAF81010FDF759FAEEE7504603B0C2
:1035B000BDE8F08F501D00202DE9F04F8B46002113
:1035C0008846C146C246ADF25C4D02270525082457
:1035D0000190431E4FF0010E8DF834108DF8351018
:1035E0008DF836108DF837108DF838108DF854108E
:1035F0008DF855108DF856108DF83A701395149477
:103600000BF10402032607A8AC49AD4CAD4DAE4FFB
:103610008DF839E08DF83B60FDF72EFDCDF8008088
:1036200005A807A9FDF736FD10B3059B002B00F098
:10363000BA805E68A6425AD0AE4252D0BE4267D02F
:10364000A24A964250D0A24A964255D0A14A9642EA
:103650006ED03046A04905F0E7FB00284FD101238A
:1036600005A807A98DF85430FDF714FD0028DCD11A
:10367000BAF1000F40F08C80B8F1000F40F01681D5
:10368000009B002B40F03C810A98009E01300A907C
:10369000019B834240F3398116AB03EB86045BF850
:1036A0002000214604AAFDF775FC002800F04D819A
:1036B00021460A98049B013001360A90002B7CD0E9
:1036C0000A680136802E03F1FF3341F8042FF5DD3F
:1036D0008248049301F0EEFB01200DF25C4DBDE841
:1036E000F08F4FF001099BE74FF0010A98E7069829
:1036F00013A9FDF747FC93E70123009390E73046B9
:10370000774905F091FBB0B901238DF8553087E773
:10371000069814A9FDF736FC002881D0149B013BC4
:103720001F2B7FF67DAF384601F0C4FB0120D4E7A4
:103730004FF0010874E730466A4905F075FB18B987
:1037400001238DF856306BE73046674905F06CFB76
:10375000002834D03046654905F066FB00286DD05E
:103760003046634905F060FB002800F08380304656
:10377000604905F059FB002844D05F4A96427FF427
:103780004FAF0A9B013B0A93BAF1000F3FF474AFAD
:103790000DA90020FFF766FDB0FA80F040090DF298
:1037A0005C4DBDE8F08FDBF8000005A9434AFDF74A
:1037B0003BFE0DF25C4DBDE8F08F049368E703A972
:1037C00006980A2205F084FD039B8DF83400A3B10E
:1037D0001A782E2A11D1581C03905B786BB103A97B
:1037E0000A2205F075FD039B8DF83800002B3FF48D
:1037F00017AF1B78002B3FF413AF404801F05AFB82
:1038000001206AE703A906980A2205F061FD039BDF
:103810008DF83700002BF0D01A782E2AEDD1581CE5
:1038200003905B78002BE8D003A90A2205F050FD35
:10383000039B8DF83B00002BDBD1F1E603A9069832
:103840000A2205F045FD039B8DF83500002BD4D0EE
:103850001A782E2AD1D1581C03905B78002BCCD03B
:1038600003A90A2205F034FD039B8DF83900002BD3
:10387000BFD1D5E603A906980A2205F029FD039BCE
:103880008DF83600002BB8D01A782E2AB5D1581CE6
:1038900003905B78002BB0D003A90A2205F018FD35
:1038A000039B8DF83A00002BA3D1B9E650460DA931
:1038B000FFF748FDB0FA80F040090EE7B0A6000817
:1038C00099B00008DDAF00080BB000080FB1000888
:1038D000D5B0000885B00008CCA70008ECA7000808
:1038E000D4A70008A8A70008DCA70008E0A70008E4
:1038F000E4A70008E8A700084DB10008FCB00008E4
:103900004046FFF78BFC4046E7E686B3002016A949
:1039100096AA3346FFF794FD38B3B9F1000F22D0D1
:103920000024254695AF01E0AE4218DD114857F856
:10393000041F01F0CBFA04444E2C05F10105F3DD20
:103940000A2001F06DFA0024EEE70B4801F08EFA30
:103950000A9B5BF8230001F09BFA0120BDE614B13D
:103960000A2001F05DFA0020B7E60120B5E64FF02D
:10397000FF30B2E6F4A70008B4A7000838B5084B3A
:10398000044618680D4618B1214605F04DFA30B9C5
:1039900029462246BDE83840024801F097BA38BDB2
:1039A000581D0020D4A900082DE9F041DAB0431ECB
:1039B0000A1D0F4606A8002647498DF83060FDF71E
:1039C0005BFB464D06A902A8FDF764FB444904468B
:1039D00090B1029BF3B15C68204605F025FA30B146
:1039E000AC42EFD10CA8039905F0FCFAEAE704A871
:1039F000FDF7B6F90126E5E79DF83030002B50D0F1
:103A000001A90CA8FEF7E2FC70B9012420465AB0C7
:103A1000BDE8F081386802A92F4AFDF705FD04468C
:103A200020465AB0BDE8F0810CA82E49FEF7E6FC0E
:103A300080460028E9D02746002E14BF64224FF4A8
:103A40008C72404614A9FEF721FD051E34DB2F447D
:103A50002AD014A82946FEB104AB2DAAFDF786F999
:103A600001462DA801F0F2F96423AB421CDC019B56
:103A70009F4219DA0DF103000021FDF73BF90130F7
:103A8000DAD09DF80330032BF4D14046FEF732FD27
:103A90000A2001F0C5F9B9E701F0D8F94FF48C73A9
:103AA000E3E74FF0FF34B1E76EB94046FEF722FD81
:103AB0000D4801F0DBF9A9E74046FEF71BFD0A209F
:103AC00001F0AEF9A1E704A914A8FDF7B3F9014686
:103AD00014A801F0BBF9E8E7FCA90008C8B0000889
:103AE000E0A90008B4B10008E8A900082DE9F04FEA
:103AF00093B0431E0A1D0F4604A83349FDF7BCFAD4
:103B0000324D0026684604A9FDF7C4FA044668B1A0
:103B1000009B002B48D05B68AB42F3D1684604A9F8
:103B2000019EFDF7B7FA04460028F1D18DF8280070
:103B30002EB1304602A9FEF7D3FB00283ED00DF18E
:103B4000280A51463046FEF7F7FBDFF88C90DFF885
:103B50008CB0002559F835700DF10808EFB126B189
:103B60003846414605F060F9B8B99DF828202F2362
:103B7000002A14BF5246002239460DF10900CBF845
:103B800000208DF8083005F02DFA3946104801F074
:103B90009DF940460F49FEF7CDFC0135032DD9D1E3
:103BA000204613B0BDE8F08F38686946064AFDF735
:103BB0003BFC0446204613B0BDE8F08F01242046AC
:103BC00013B0BDE8F08F00BFB4A90008F8AF00083B
:103BD000E4A900087D390008D4220020581D0020E7
:103BE00008B5FCF7E5FD4FF47A70FDF773FC012092
:103BF00008BD00BF2DE9F04F0D46002216469FB0CC
:103C000004468B4611921292139214921592FCF76D
:103C1000CBFE2A46B146B246B0460B90631E043234
:103C200018A8A849A84CA94DA94FFDF725FA089650
:103C300005960396019609960696049602960796AF
:103C40000A9616A818A9FDF725FA002837D0169B62
:103C5000002B00F0A3805B68A3426DD0AB426ED016
:103C6000BB4271D09B4A934273D09B4A934275D01A
:103C70009A4A934277D09A4A934200F0A280994A96
:103C8000934275D0984A934275D0984A934200F077
:103C90009080974A9342D4D11798964B984200F05F
:103CA0008A800FA9FDF76EF9002800F0C281012378
:103CB00016A818A90A93FDF7EDF90028C7D1834685
:103CC000B8F1000F61D040460A2210A905F000FBB0
:103CD000109A804622B111782E2950D0002954D153
:103CE000CDF830B04FF0FF34B8F1000F4DDB0B9B37
:103CF00043454ADD0C9B002B6AD1B9F1000F40F01F
:103D0000D980019B002B40F06A81039B002B40F07F
:103D10007181059B002B40F07581089B002B59D0C9
:103D2000099815A9FDF72EF9002853D1724801F022
:103D3000C1F84FF0010B2DE0DDF85C8081E7DDF884
:103D40005CA04FF001097CE7179B029301230193CC
:103D500077E7179B04930123039372E7179B06935E
:103D6000012305936DE7179B09930123089368E7E7
:103D70000123079365E74FF0FF33079361E7501C7A
:103D800010905278002A40F084805C4801F092F84C
:103D90004FF0010B58461FB0BDE8F08FDBF8000074
:103DA00016A9484AFDF740FB834658461FB0BDE8B8
:103DB000F08F012645E74FF47A730F9301230A939E
:103DC0003FE70B994E4801F081F84FF0000BE1E717
:103DD0001F2CDAD8B9F1000F69D1019B002B40F0FC
:103DE000FB80039B002B40F00281059B002B40F0E1
:103DF0002381089B83F001030B93012202FA04F351
:103E0000404F0D930C9B002B7ED0B9F1000F40F07A
:103E1000C180019B002B40F0B780039B002B40F03A
:103E2000D680059B002B40F0CD80089B002B40F0F6
:103E3000C4800B9B002B40F0B3800A9B002BA9D0C1
:103E40000F9BFA24032B9CBF04230F93FDF730FB39
:103E50000546FDF72DFB0F9B022104FB03F3A7FB97
:103E6000032305EB93139842CCD20DF13B00FCF7F2
:103E700041FF0130EDD09DF83B30032BE9D101F03B
:103E80003DF9002886D000200146024601F01EF9C7
:103E900080E70A2210A905F01BFA109A04461AB10D
:103EA0001278002A7FF471AF01230C931CE70023E2
:103EB0000B93A2E7504611A9FDF764F800283FF4E0
:103EC00035AF1EE798AB00082DB100086BB00008B5
:103ED0009FB0000805B10008C4B00008D6AF0008C4
:103EE00046B100085CB0000853B000087BB0000881
:103EF00011B0000895B000083CB10008FCB0000803
:103F0000D8AC0008D34D6210B9F1000F08D0BAF157
:103F1000000F00F0858011994046079AFCF756FD86
:103F2000019B3BB1029B002B7DD01299404632464B
:103F3000FCF766FD039B33B1049B002B76D01399ED
:103F40004046FCF783FD059B33B1069B002B61D0F7
:103F500014994046FCF782FD089B33B1099B002B66
:103F60005BD015994046FCF781FD0B9B002B3FF47D
:103F700064AF4FF0FF314046FCF788FD00F0BCFF16
:103F80002F4800F073FF58E740460D993246FCF782
:103F900037FD42E740460D99079AFCF717FD38E7D1
:103FA00040460D99FCF772FD264A274B002814BFA6
:103FB0001046184600F05AFF3FE740460D99FCF7BF
:103FC00055FD36E740460D99FCF748FD2DE7404684
:103FD0000D99FCF73BFD24E7CDF82C900DE70298F6
:103FE00012A9FCF7CFFF00283FF4A0AE8DE6019B9D
:103FF0000B9302E7049813A9FCF7C4FF00283FF4D1
:1040000095AE86E6069814A9FCF7BCFF00283FF49D
:104010008DAE82E64FF0FF319BE74FF0FF31A1E715
:104020004FF0FF3178E74FF0FF317FE74FF0FF317E
:1040300086E74FF0FF3BADE6039B0B93DDE600BF49
:10404000E8A900089CAA0008A0AA00082DE9F04FE2
:104050008BB006468B46FCF76DFB4FF0FF343319EF
:1040600005460BF1040204A85B490194A046A14651
:10407000FDF702F8594E5A4FDFF880A102A804A9B3
:10408000FDF708F80446D8B1029B002B49D05B68C5
:10409000B34234D0BB4235D0534536D0514A934217
:1040A00036D0514A934247D0504A02A804A99A42B6
:1040B00008BF4FF00108FCF7EDFF04460028E3D1EC
:1040C000B8F1010F41D0019800287FDB85427DDDEA
:1040D000B9F1000F71D0B9F1010F74D0B9F1020F2D
:1040E0006ED0FCF75BFB424A424B002814BF1046DF
:1040F000184600F0CDFE20460BB0BDE8F08F4FF023
:104100000009BBE74FF00109B8E74FF00209B5E736
:10411000039801A9FCF736FF0028AFD14FF0FF3418
:1041200006E0DBF8000002A92B4AFDF77DF9044602
:1041300020460BB0BDE8F08F294600242E4800F041
:10414000C5FE20460BB0BDE8F08F002D019006DDC6
:10415000FCF7F2FA0198013085420190F8DC002664
:1041600037460DF103003E21FCF7C4FD013003D0BA
:104170009DF80330032B11D0002D019708DD00209E
:104180004EB1FCF7D9FA0198013085420190F7DC75
:1041900086F00106E5E7FCF7DFFAF4E70020854248
:1041A0000190C5DDFCF7D8FA0198013085420190F5
:1041B000F8DC20460BB0BDE8F08FFCF7CDFAB7E78E
:1041C000FCF7DCFAB4E7FCF7B7FAB1E7054800F012
:1041D00071FE4FF0FF34ABE72CAA0008C4B0000812
:1041E00005B10008BEB0000846B1000871B0000873
:1041F000A4AA0008D8A80008D8AC0008D6AF0008C8
:104200000A462DE9F04FCDB000250191431E4FF035
:10421000FF34043206A8614902940394AB46FCF7CC
:104220002BFFAA46A9465E4E5E4FDFF8988104A890
:1042300006A9FCF72FFF0446D8B1049B002B00F021
:1042400084805B68B34257D0BB425AD043454DD0BF
:10425000554A93424DD0554A934257D0544A04A8E8
:1042600006A99A4208BF0125FCF714FF044600285E
:10427000E3D1BBF1000F4CD00BAE334602464BAF3F
:1042800043F8042FBB42FBD14FF00009C8464FF45E
:10429000803B0DF1300A04E008F10108B8F13F0F4E
:1042A00014DC5846FDF798F94AF82800002846D053
:1042B000D944002DF0D008F10101884602465B4642
:1042C0003C4800F003FEB8F13F0FEADD4A463A48A9
:1042D0003A4900F0FBFD56F8040F08B1FDF77EF9EE
:1042E000B742F8D120464DB0BDE8F08F4FF001093C
:1042F0009DE74FF0010A9AE7059802A9FCF742FEF4
:1043000095E7059803A9FCF73DFE90E74FF0010BF8
:104310008DE7B9F1000F23D0BAF1000F35D1039822
:10432000431C012B2BD9FDF757F9034624481946A6
:10433000029300F0CBFD20464DB0BDE8F08F0BEBB3
:10434000DB7B5FEA6B0BA9D1C0E7019B04A918686E
:10435000124AFDF769F8044620464DB0BDE8F08FDB
:10436000BAF1000FBED0029B5A1C03D01846FDF7CD
:1043700035F9B7E70A481C4600F09CFDB2E709484A
:1043800000F098FD4FF0FF34ACE7019B034918683B
:10439000FCF76CFF4FF0FF34A4E700BF58AC0008F7
:1043A000E9AF0008F1AF0008A6B0000871B000083E
:1043B00034B10008C8AC0008D4AC0008F6B000085E
:1043C000DCAC0008DCB000080A462DE9F04F0027FD
:1043D000B846B946BA4693B04FF0FF3610250124CF
:1043E000431E0796089509948B4604320CA8A649EB
:1043F000A64CA74DA74EFCF73FFE01970AA80CA9B3
:10440000FCF748FE00B30A9B002B6CD05B68A3420C
:1044100047D0AB424DD0B34257D09F4A93423DD094
:104420009E4A934242D09E4A934255D09D4A93421F
:1044300056D09D4A0AA80CA99A4208BF4FF001081D
:10444000FCF728FE0028DED1019A079B04925A1C33
:104450008346CDF80C80CDF8089000F0F781099BD9
:104460005A1E012A02D9042B40F0C681BAF1000F6E
:1044700044D1019A12B1012B00F0B880B8F1000FBD
:1044800002D0042B00F0AA81B9F1000F00F0AB813B
:104490000023039304930123059334E04FF0010AB2
:1044A000ACE70B9807A9FCF76DFDA7E70123019383
:1044B000A4E70B9808A9FCF765FD00289ED14FF0F2
:1044C000FF3B584613B0BDE8F08F0B9809A9FCF7E5
:1044D00059FD002892D1F2E700274FF001098DE73E
:1044E0000127B9468AE7DBF800000AA9664AFCF70B
:1044F0009BFF8346584613B0BDE8F08F002303931B
:104500000593029304935646B9460025CDF804B0AE
:10451000089B9D4217DAE6B1099B079F012B20D02B
:10452000022B67D0042B00F0D580604800F09EFC81
:104530000DF11B000021FCF7DDFB0130E8D09DF8F8
:104540001B30032BF4D1DDF804B0584613B0BDE89E
:10455000F08F5748079900F0B9FC099B079F012B82
:10456000DED12C463B46DFF858A1DFF858814FF0EA
:10457000000B1978002E14BF5046404600F0A6FCF0
:10458000079B089A013401339442079380F2E38039
:104590000BF1010BBBF1100FEBD1049B2BB9029B6C
:1045A000002B40F0F5802546BFE7424800F05EFC56
:1045B000DFF814A1B846ED1B103718F8012BDAF814
:1045C00000302E2013445B7813F0970F18BF10466D
:1045D00000F026FC089B05EB08029A4201DAB84578
:1045E000EBD17C20254600F01BFC9EE70593CDF81F
:1045F0000CA088E72C463B46DFF8D0A0DFF8D0803F
:104600004FF0000B1988002E14BF5046404600F0B2
:104610005DFC079B089A023402339442079380F2B0
:10462000EF800BF1010BBBF1080FEBD1029B002BCC
:10463000B9D0ED1B1F4800F019FC2B464D46B8467B
:10464000994610371C489DB1B8F8001000F03EFCA8
:1046500008F10208089B08EB09029A424FF020007B
:104660000CDA47450AD000F0DBFB1348002DEBD1F4
:10467000B8F90010114800F029FCE9E77C20A946B0
:10468000254600F0CDFB50E728AE0008E9AF000852
:10469000F1AF00080BB0000819B10008F0B0000835
:1046A00067B0000814B100082FB000081CB2000861
:1046B00010AD00081CAD000820AD000824AD0008B6
:1046C000E0AC0008E8AC000838040020F0AC0008BA
:1046D000F8AC00082C463B464FF0000819685E48CD
:1046E0005E4B0434002E08BF184600F0EFFB079B1A
:1046F000089A04339442079380F2958008F10108E8
:10470000B8F1040FEAD1039B1BB9029B002B3FF4C5
:104710004AAFED1B524800F0A9FBAA46039DB846DC
:1047200010375DBB4F48B9F1000F00D14E48D8F8A3
:10473000001000F0CBFB08F10408089B08EB0A020C
:104740009A424FF02000BFF64CAF47453FF449AFC7
:1047500000F066FBE5E7059B002B3FF41EAF0BF175
:104760000108B8F1100F3FF418AF08F101083F48F5
:1047700000F07CFBB8F1100FF7D10EE7D8F800007D
:1047800003F0DEF902460B46394800F09FFBD2E702
:10479000ED1B334800F06AFB2B46B8464D461037F8
:1047A000994612E098F8001000F090FB08F101081B
:1047B000089A08EB09039A424FF020007FF75EAF9A
:1047C000B8453FF45BAF00F02BFB2648002DE9D144
:1047D00098F90010244800F079FBE7E701230593DE
:1047E000002304938FE6CDF80890CDF81490CDF80F
:1047F0000C90CDF8109086E61E4800F05BFB5EE65C
:10480000059B002B3FF412AF0BF10108B8F1080F24
:104810003FF40CAF08F10108174800F027FBB8F18E
:10482000080FF7D102E7059B002B3FF46CAF08F1AE
:104830000108B8F1040F3FF466AF08F101080F4812
:1048400000F014FBB8F1040FF7D15CE70C489B466D
:1048500000F030FB4EE600BF00AD000808AD0008D8
:104860001CAD000820AD000824AD000818AD0008FC
:1048700034AD00080BB000082CAD000828AD0008CE
:10488000E9AF00082DE9F0418CB00A1D431E4FF03E
:10489000FF37012605460C4606A83E4901970296B9
:1048A000FCF7EAFB3C4E3D4FDFF8F88004A806A970
:1048B000FCF7F0FB60B1049B002B4CD05B68B3426B
:1048C00031D0BB4234D04345F0D1099B013B099321
:1048D000019E731C59D0029B5A1E012A01D9042B38
:1048E0004DD1099B01339D42099318DD54F82300F3
:1048F00003A9FCF747FB002835D0029B022B23D0ED
:10490000042B1AD0012BECD1019B039A1A70019B46
:1049100001330193099B01339D420993E6DC00209A
:104920000CB0BDE8F081059801A9FCF72BFBBDE7B1
:10493000059802A9FCF726FBB8E7019B039A1A60C9
:10494000019B04330193CCE7019B039A1A80019BDE
:1049500002330193C5E7206804A90E4AFCF764FD01
:104960000CB0BDE8F0810E4800F080FA099B54F8C5
:10497000230000F08DFA01200CB0BDE8F08107485B
:1049800000F098FA4FF0FF30EAE7034800F092FA9F
:104990003046E5E7B8AE0008E9AF00080BB0000804
:1049A000B4A7000828B1000810B50F4890B000F077
:1049B0005DFA2C2000F034FA0C4800F069FA10ACD3
:1049C000002304F8403D2046FBF704FF10B19DF89A
:1049D000003013B9002010B010BD204600F058FA86
:1049E000002010B010BD00BFF8AE000800AF0008F6
:1049F000FFF7DABF08B5FBF779FE002008BD00BF5E
:104A0000036801330360FBE730B58DB00D46431EEC
:104A10000A1D06A80F49FCF72FFB01E0009B7BB1A4
:104A2000684606A9FCF736FB04460028F6D10121AA
:104A300002A8FCF79BFA00F02BFA20460DB030BD1F
:104A400028686946034AFCF7EFFC044620460DB08F
:104A500030BD00BF60AF00082DE9F0418CB0431EAF
:104A60000A1D0F4606A86149FCF706FB604D0026AB
:104A700004A806A9FCF70EFB044670B1049B002BAA
:104A800000F083805B68AB42F2D104A806A9059EC2
:104A9000FCF700FB04460028F0D1002E75D030460C
:104AA000544904F0C1F9002879D03046524904F045
:104AB000BBF9002873D03046504904F0B5F90028FE
:104AC00073D030464E4904F0AFF900286DD030461F
:104AD0004C4904F0A9F900286DD030464A4904F049
:104AE000A3F9002867D03046484904F09DF928B161
:104AF0003046474904F098F9002846D1002318466B
:104B000006210CAD45F8243DFCF71CFDFBF7D2FF58
:104B1000062300932A463F483F494FF48073FCF731
:104B2000E5FC064600285CD0039DFBF7C3FF06E0CA
:104B3000FBF7C0FF9DF80B50032D4AD0039D0DF1EC
:104B40000B007D21FCF7D6F80130F1D1FBF7B2FF65
:104B5000039B30465B1B00215F00FCF7F3FC002049
:104B60000321FCF7EFFC039D4FF064080DF10B00EF
:104B7000FA21FCF7BFF8013020D09DF80B30032B51
:104B8000F4D13046FCF7DCFC05E0386804A9174A8C
:104B9000FCF74AFC044620460CB0BDE8F081FCF767
:104BA00041FD20460CB0BDE8F081FCF775FD2046C4
:104BB0000CB0BDE8F081FCF79BFDECE7039B1748C8
:104BC000591B08FB01F1B1FBF7F11D4600F07EF91E
:104BD000CCE73046FCF7B4FC29460020FCF7B2FCD9
:104BE000D9E70321FCF7AEFC0124D4E770AF00083D
:104BF00039B00008CCA8000804AF00080CAF0008CA
:104C000010AF0008F8A0000818AF000820AF000897
:104C100024AF00082CAF0008014A000838AF000894
:104C2000F0B500230B70037805463BB1202B01D073
:104C3000092B71D115F8013F002BF7D10024234631
:104C40000020064604B342F820500C780134E0B24C
:104C50000870DBB92B784BB930E0092B08D0272B33
:104C60002DD0222B2BD015F8013F3BB3202BF4D1B4
:104C70002E70681C03783BB1202B01D0092B0ED17C
:104C800010F8013F002BF7D10878F0BD2C781CB943
:104C900014E015F8014F8CB1A342FAD1E8E7272BB5
:104CA000054607D0222B05D008780023132805D805
:104CB0002C78C7E7451C08781328F9D9F0BD00F116
:104CC0008044013C52F824E0681CAE4502EB8404A9
:104CD00038BF2F460DD217F8014C07F801490C7860
:104CE00004F18044013C52F824E002EB8404BE4508
:104CF000F1D30EF1010727606C78002CC4D0A342D9
:104D000002D106E09C4204D010F8014F002CF9D1EA
:104D1000BAE706700130ADE7272B284602D1447868
:104D200001358DE7222BFAD02C78002388E700BFCD
:104D3000012820DD10B4144C234613F8D92F04F2B7
:104D40005914194601E019461A780133002AFAD19C
:104D50004A7842B1A3420AD201380128F1D118465B
:104D60005DF8044B704710465DF8044B7047002017
:104D70005DF8044B7047044B13F8D92F002A14BF79
:104D800018460020704700BF5C1D00202DE9F0414F
:104D9000134B583053F82040F4B1E9B191F800803A
:104DA000B8F1000F18D008460E4604F079F9616892
:104DB000074689B1002507E0304604F035F840B1D8
:104DC00014346168013539B1012FF5D16378434559
:104DD000F6D12846BDE8F0814FF0FF30BDE8F08104
:104DE0005C1D002070B50D4C0646D4F8703153B1EF
:104DF0001D786DB9D4F87401C4F8705118B1FCF77E
:104E0000EDFBC4F874513046BDE87040FBF760BF5D
:104E10005A1CC4F870211878307070BD5C1D0020D9
:104E200000B5094B83B0D3F87C318DF807001BB176
:104E30000DF10700012198479DF80700FBF782FF5D
:104E400003B05DF804FB00BF5C1D002038B5064BC5
:104E50000546D3F87C310C4603B1984728462146D5
:104E6000BDE83840FBF756BF5C1D002048B110B5C7
:104E7000044604F015F901462046BDE81040FFF74E
:104E8000E5BF704701480221FFF7E0BF1CB20008F0
:104E900068B110B5044604F003F901462046FFF757
:104EA000D5FFBDE8104002480221FFF7CFBF704791
:104EB0001CB2000838B108B5FFF7D8FFBDE80840BC
:104EC0000148FFF7E5BF704790AF00080FB410B579
:104ED000C2B044AB53F8041B02A81A460193FDF775
:104EE00037F9044602A82146FFF7B0FF204642B03A
:104EF000BDE8104004B0704701460148FFF7E6BF27
:104F00009CAF0008094A08B5002352F8041F31B1CC
:104F10000133042BF9D1FDF741F9002008BD044A03
:104F2000583342F82300012008BD00BFB81E0020FE
:104F30005C1D0020074AD2F85C3103B118471368A2
:104F4000002B04DB01D00448704704487047044834
:104F5000704700BF5C1D0020A4AF0008ACAF000884
:104F6000A8AF000838B50546002420462946FFF7BB
:104F70000DFF431C04D10134042CF6D1002038BDB0
:104F8000044B583453F8243000EB800003EB8000CE
:104F9000806838BD5C1D002038B5054600242046D9
:104FA0002946FFF7F3FE431C04D10134042CF6D14B
:104FB000002038BD044B583453F8243000EB8000F7
:104FC00003EB8000407838BD5C1D00202DE9F84FD0
:104FD00007468946304E56F804BFD846BBF1000F4D
:104FE0003ED0DBF804500024002D36D077B197F87E
:104FF00000A0BAF1000F09D0384604F051F801289A
:105000002946384638D903F00FFFF8B9B9F1000F37
:1050100003D198F80030012B18D02846FFF726FF5F
:10502000336823445B78F3B91C48FFF71FFF3368EC
:105030002344D868FFF72CFF1848FFF717FF3368A1
:1050400023441869FFF724FFD6F800B014340BEBA3
:105050000408D8F80450002DC8D1114B9E42BAD193
:105060000020BDE8F88F2F20FFF7DAFE33682344D5
:105070005878FFF7D5FED7E703F0D6FE0028E5D134
:1050800098F801205245C1D014340BEB0408D8F82D
:105090000450002DAAD1E0E7B81E0020F49E0008BD
:1050A000C81E002070B506460D46074C002120465C
:1050B0004FF4C072FBF76CF8C4F86061C4F870512B
:1050C000BDE87040FBF700BE5C1D0020F8B505464A
:1050D000094C0F46D4F874011646C4F8705108B153
:1050E000FCF77CFA002F08BF002584F87861C4F82B
:1050F00074510120F8BD00BF5C1D0020034BD3F8A4
:105100007001003018BF0120704700BF5C1D0020F7
:105110002DE9F043CE4C002383B0064684F8553089
:1051200084F85630002900F0CF800846FFF79EFE35
:10513000C74D2F460DF10700FFF754FE0130F9D09F
:105140009DF807300A2B00F0C3800D2BF2D01B2BEB
:10515000F0D0082B63D07F2B61D0032B00F00282AC
:105160001A2B00F0EB81102B00F090810E2B00F039
:10517000E480012B00F09780052B00F05381062B73
:1051800000F07481022B00F08F81042B00F0148159
:105190000B2B00F0A8810C2BCCD0002BCAD094F89C
:1051A00055E01EF0800FC5D194F856C0092B08BFFA
:1051B0002023E64500F0E38105EB0E024FF00001ED
:1051C00082F859100ADD0EF158020CF158002A44F9
:1051D000284412F8011D82425170FAD10CF10102EB
:1051E000D2B202F157000EF1010EA44420448CF813
:1051F000583084F855E084F85620FFF737FE94F8CD
:10520000558094F85630984594DD0820FFF708FE45
:1052100094F8563008F1FF389845F6DC8AE794F8A0
:105220005500002886D095F856E0BEF1000F81D0D9
:10523000704500F047810BDD0EF1570300F1570177
:105240002B44294413F8012F8B4203F8012CF9D188
:10525000431EDBB2E2180EF1FF3E0021082084F865
:10526000553084F856E082F85810FFF7D9FD94F8CD
:10527000560058302044FFF7F9FD2020FFF7D0FDFD
:1052800094F8558094F8563008F1010898457FF756
:1052900051AF0820FFF7C4FD94F8563008F1FF38ED
:1052A0009845F6DC46E794F85630002B3FF442AFC1
:1052B0000820FFF7B5FD94F85630013BDBB284F8C7
:1052C0005630002BF4D135E76248FFF7CFFD2FE7CA
:1052D000184600252560FFF7A3FD94F85520531EBE
:1052E000A1181B0681F858500AD51EB130465A49FC
:1052F00003F078FE94F85540204603B0BDE8F083F3
:105300005648821A431C803812F8011D03F8011D0B
:105310008342F9D15248A0F1810103F063FE94F871
:10532000593133B14D4B002103F801191A78002A85
:10533000FAD1002384F85730D7E794F85730012B7F
:105340007FF6F8AE03F1FF394846FFF7F1FC8046DF
:1053500000283FF4EFAE85F8579094F8552094F864
:10536000563093420CD23F48FFF780FD94F85630F8
:1053700094F855200133DBB2934284F85630F2D3CF
:1053800052B13948FFF772FD94F85530013BDBB25A
:1053900084F85530002BF4D141462F4803F022FE0B
:1053A0002D4803F07DFEC3B22B4884F8553084F8B5
:1053B0005630FFF75BFDBDE694F8560094F855E0D3
:1053C0007045BFF4B7AE00F1580009DA0EF158018C
:1053D0002B18294413F8012F8B4203F8012CF9D123
:1053E0000EF1FF33DBB2E2180021204484F855307F
:1053F00082F85810FFF73AFD2020FFF711FD94F8CE
:10540000558094F8563008F1010898457FF792AE20
:105410000820FFF705FD94F8563008F1FF3898454D
:10542000F6DC87E694F8563094F855209A427FF6D9
:1054300081AEE21892F85800013384F85630FFF735
:10544000EFFC94F8563094F855209A42F1D871E662
:105450005C1D002080A30008B41D0020B51E0020A4
:10546000351E002030AD0008B0AF000894F856306B
:1054700094F855209A427FF65DAEEA1892F85800EB
:10548000013385F85630FFF7CBFC53E694F857907C
:1054900009F101094846FFF74BFC804600283FF41C
:1054A00049AE84F8579058E794F85630002B3FF4F3
:1054B00041AE0820FFF7B4FC95F85630013B85F863
:1054C000563037E6431EDBB2EA180021354885F82E
:1054D000553082F85810FFF7C9FC95F85630013B5B
:1054E00085F8563026E694F8562094F855309A42BE
:1054F000BFF420AE4FF0000105EB0203904683F8A5
:10550000581018DA2020FFF78BFC94F8553008F17A
:1055100001089845F6DB97F85680434542460ADD78
:105520000820FFF77DFC94F8553008F101089845F4
:10553000F6DB97F8562084F85520FBE594F85630B2
:1055400000221C4484F858206FF001041648FFF72D
:105550008DFC002E3FF4D0AE20460023337003B004
:10556000BDE8F083FBF7B2FB002384F8553084F8E4
:105570005630236084F857304FF0FF34E6E70EF1E1
:105580000102D2B2A918AE444FF0000C18468EF8B2
:10559000583085F8552085F8562081F858C0FFF717
:1055A0003FFCC7E5B0AF00081CB2000880B5364824
:1055B00082B0FFF75BFCFFF7BDFCFFF757FC3348F9
:1055C000694601AAFDF7ACF8314C60B1009BD4F8F4
:1055D0007401C4F8703108B1FCF700F80023C4F876
:1055E000743184F878312A4E00202A49FFF790FD63
:1055F0000230022817D8FFF79DFCFFF737FC94F81C
:105600007831002BF0D0D6F87031002BECD01B781D
:10561000002BE9D03368002BE6D00020014602467B
:10562000FFF754FDE0E71C48011FA0F15402FFF70B
:10563000F7FAB0B1D6F80480002738464146FFF7A4
:10564000A5FB431C054614D0583754F8273000EB0F
:10565000800503EB8505AB6894F854000F49984723
:105660002060002384F8583084F8553084F8563090
:10567000C1E70137042FE0D10948FFF7F7FB606865
:10568000FFF706FC2560ECE71CB200080FB100082C
:105690005C1D00202C9F0008B41D0020601D002010
:1056A000C4AF0008F0B58BB0431E0A1D0F4604A816
:1056B0004FF0FF342A490194FBF7DEFC294E002508
:1056C00004A902A8FBF7E6FC27490446A8B1029BFF
:1056D000FBB15C68204603F0A7FB18B1B44208BFD9
:1056E0000125EDE7039801A9FBF74CFC0028E7D161
:1056F0004FF0FF3420460BB0F0BDD5B90198431CE4
:105700001ED01A4B98420DD8FCF76CFD20460BB00A
:10571000F0BD386802A9124AFBF786FE044620460F
:105720000BB0F0BD12480124FFF7B2FB20460BB0CE
:10573000F0BDFBF711F84FF0FF30FCF753FDEEE73B
:10574000FCF74AFD002806DBFCF746FD0146094848
:10575000FFF7BCFBE3E70848FFF79AFBDFE700BF72
:10576000D0B10008EBB000087CB1000800E1F505FD
:105770008CB10008D8AC000884B100082DE9F843CA
:10578000DFF8C890DFF8C8802F4FFBF793F9FCF7DC
:1057900023FD051E37DB49D00926012103E0012E38
:1057A00038D0013E2FD089FB0532EB17C3EB626284
:1057B00088FB0234D317C3EBA40404EB8404A2EBEC
:1057C000440407FB045505EB85056D00F9B1002C79
:1057D000E5D00FDB0020FAF7AFFF3220FBF778FEB1
:1057E0000020FAF7B9FF3220FBF772FEFBF762F9EF
:1057F000013CEFD1012E06D07D20FBF769FE013E72
:105800004FF00001CFD1FA20FBF762FEBDE7002C7C
:10581000F0DBDFD10020FAF78FFFFA20FBF758FE0C
:105820000020FAF799FFFBF745F9E3E7FAF784FF61
:10583000FA20FBF74DFE2846FAF78EFFFBF73AF900
:10584000FA20FBF745FEA0E7001F0AFA893BE65560
:105850006766666600B50D4A83B003230192009324
:105860000B480C490022E023FBF756FE28B10A48FA
:1058700003B05DF804EBFFF745BBFCF78FFC06486F
:1058800003B05DF804EBFFF73DBB00BF00B20008BA
:105890009CB100087D57000854B1000800F10803CE
:1058A0004FF0FF310022816002604360C3600361FA
:1058B000704700BF00230361704700BF43684B601F
:1058C0009A688A609A685160996008610368013338
:1058D0000360704730B40D686B1C11D000F10802F2
:1058E00000E01A4653681C68A542FAD24B609960E2
:1058F0008A6051600861036830BC013303607047FF
:1059000002695368F2E700BF4268816803699160E9
:105910008268416851605A68824204BF82685A6056
:10592000002202611A68013A1A601868704700BFC5
:1059300070B50446006CA56B30B9266876BBA068CC
:1059400001F0E4FBA66029E0164602466EB96068E5
:1059500003F0DEF96168236CA2680B449342636034
:1059600017D323683046636018E0E06803F0D0F98D
:10597000236CE2685B4221681A448A42E26002D2E8
:10598000A2681344E360022E05D135B1013D002029
:1059900004E0304602E0002000E028460135A5631F
:1059A00070BD00BF026C03467AB110B4C468806851
:1059B0001444844228BF1868DC6028BFD8605DF8B2
:1059C000044B0846D96803F0A3B9704770B5054683
:1059D00001F000FE95F84540E4B263B2002B16DDFD
:1059E0006B6AA3B105F1240605E0013CE3B2DCB229
:1059F0006BB16B6A5BB1304601F0B2F90028F4D0AC
:105A0000013C01F07BFAE3B2DCB2002BF1D1FF23C1
:105A100085F8453001F000FE01F0DCFD95F84440CA
:105A2000E4B263B2002B16DD2B69A3B105F11006B9
:105A300005E0013CE3B2DCB26BB12B695BB13046EF
:105A400001F08EF90028F4D0013C01F057FAE3B2DE
:105A5000DCB2002BF1D1FF2385F84430BDE8704063
:105A600001F0DABDF8B588B1C36B33B14FF0FF3642
:105A7000B6FBF3F3026C934211D24FF0500383F361
:105A80001188BFF36F8FBFF34F8FFEE74FF05003C6
:105A900083F31188BFF36F8FBFF34F8FFEE7044688
:105AA0000D4601F097FD226CE36B216803FB02F3C6
:105AB0009A1A0A440B440027FF20A763E26084F887
:105AC0004460A360616084F845002DB9236963B91F
