:020000040800F2
:1000000000C000201D0200087D0200087D020008DB
:100010007D0200087D0200087D020008000000004B
:10002000000000000000000000000000317E000819
:100030007D02000800000000C17E0008057F000866
:100040007D0200087D0200087D0200087D02000894
:100050007D0200087D0200087D0200087D02000884
:100060007D0200087D0200087D0200087D02000874
:100070007D0200087D0200087D0200087D02000864
:100080007D0200087D0200087D0200087D02000854
:100090007D0200087D0200087D0200087D02000844
:1000A0007D0200087D0200087D0200087D02000834
:1000B0007D0200087D0200087D0200087D02000824
:1000C0007D0200087D0200087D0200087D02000814
:1000D0007D020008190C00087D0200087D0200085E
:1000E0007D0200087D0200087D020008000000007B
:1000F0000000000000000000000000000000000000
:0C01000000000000000000005FF808F1A3
:10010C003C6D637573683E003230323130353036B9
:10011C002D313134353530004D435553482064650D
:10012C007369676E65642062792050656E67205331
:10013C0068756C696E2C20616C6C207269676874D0
:10014C00732072657365727665642E0A68747470B8
:10015C00733A2F2F6769746875622E636F6D2F70F9
:10016C00656E677368756C696E2F6D637573680067
:1001800070B4840746D0541E002A41D0CDB2034635
:1001900002E0621EE4B3144603F8015B9A07F8D14B
:1001A000032C2ED9CDB245EA05250F2C45EA05458D
:1001B00019D9264603F11002103E0F2E42F8105CAA
:1001C00042F80C5C42F8085C42F8045C02F1100250
:1001D000F2D8A4F1100222F00F0204F00F04103242
:1001E000032C13440DD91E462246043A032A46F82E
:1001F000045BFAD8221F22F003020432134404F0F5
:1002000003042CB1C9B21C4403F8011BA342FBD167
:1002100070BC704714460346C2E700BF002103E0EC
:100220000F4B5B58435004310E480F4B42189A4213
:10023000F6D30E4A02E0002342F8043B0C4B9A42EC
:10024000F9D30C4A03E05FF0A53342F8043B0A4BB4
:100250009A42F8D300F014F807F038FF7047000016
:100260009CE9000800000020840800208408002089
:10027000E023002000BC002000C00020FEE70000BA
:1002800010B4104B104A1968104841F00101196070
:1002900059684FF41F040A405A601A684FF0006111
:1002A00022F0847222F480321A601A6822F48022CA
:1002B0001A605A6822F4FE025A609C6081605DF800
:1002C000044B7047001002400000FFF800ED00E012
:1002D0004FF6FF02064900F00700CB681A4042F0D3
:1002E000BF6343F4003343EA0023CB60704700BF91
:1002F00000ED00E030B4184BDB68C3F30223C3F118
:100300000705042D03F1040428BF0425062C17D982
:10031000033B01249C40013C22400124AC40013CB1
:1003200021409940002842EA01020CDB120100F151
:100330006040D2B200F5614080F8002330BC7047C5
:1003400000221346E9E7054B00F00F001201D2B27C
:1003500003441A7630BC704700ED00E0FCEC00E08E
:10036000002807DB044A00F01F01012340098B40ED
:1003700042F82030704700BF00E100E02DE9F04F67
:10038000002583B02A46DFF8C8E16B4CDFF8C4C112
:1003900003E00132102A00F0858001230E689340AB
:1003A0001E409E42F5D14B68122B00F09F8000F258
:1003B0008980022B00F09F807FD9032B00F0998069
:1003C000112B01D1CD680435FF2E6ED8824603680B
:1003D0004FEA820B4FF00F0909FA0BF823EA0808DD
:1003E00005FA0BF348EA0303CAF800304B68DB0058
:1003F000CFD5524B514FD3F8188022F0030348F069
:100400000108C7F81880D7F8188003F1804308F076
:100410000108CDF8048003F5803302F00308DDF80D
:1004200004A04FEA8808D3F808A009FA08F9704533
:100430002AEA090A72D0604573D0414FB84275D09C
:10044000404FB8420CBF4FF003094FF0040909FABE
:1004500008F949EA0A09C3F808904B68013213F415
:10046000803F236814BF3343B34323604B6813F4C6
:10047000003F636814BF3343B34363604B6813F4B6
:10048000801FA36814BF3343B343A3604B6813F4C6
:10049000001FE36814BF1E4323EA0606102AE66025
:1004A0007FF47BAF03B0BDE8F08FA2F1080B436887
:1004B0004FEA8B0B00F1040A8CE79BB1012B83D12F
:1004C000CD6881E7204FBB420CD017D91F4FBB42EC
:1004D00008D007F58037BB4204D0DFF87C80434565
:1004E0007FF472AF8B689BB904256DE7CD680C353E
:1004F0006AE7002568E7CD68083565E7DFF85C80C6
:100500004345EFD008F5803843457FF45DAFE9E718
:10051000012B0CBF06614661082555E74FF0000925
:1005200097E74FF0010909FA08F992E74FF002093D
:1005300009FA08F98DE700BF0004014000100240ED
:100540000010014000140140000021100000311093
:1005500000080140000C01400000221000001110B2
:100560000A4B5A68D20308D40948084B5B68C3F3A6
:100570008343023303FB00F070475B68054803F4D4
:1005800000330133B0FBF3F0EFE700BF001002408F
:1005900000093D0000127A00044B5B6803F00C0375
:1005A000082B01D1FFF7DCBF014870470010024063
:1005B00000127A0010B50446FFF7EEFF0B4B2060E7
:1005C0005A680B49C2F303128A5C0A49D040606042
:1005D0005A68C2F302228A5C20FA02F2A2605B68C7
:1005E000C3F3C223CB5CD840E06010BD00100240D2
:1005F000C0CD0008D0CD0008C3689B0401D5002001
:10060000704730B50D460446C368C86849682A6912
:10061000014323F4B0530A4323F00C031343E36074
:100620002269AB6822F440521343236162696B690B
:1006300022F44072134385B063616846FFF7BAFF46
:10064000174B9C4229D0174B9C4205D0164B9C421D
:1006500002D0002005B030BD029B002BF9D02968E4
:100660000029F6D003EB830303EB83038900B3FB7C
:10067000F1F10E4B6422A3FB0150400902FB101262
:1006800012013232A3FB0223C3F3471303EB00131F
:100690009BB20120A36005B030BD039BDDE700BF26
:1006A0000038014000440040004800401F85EB51E5
:1006B000054A064BA2FB00208009013800210522D3
:1006C000586099601A607047D34D621010E000E0E6
:1006D000014B1860704700BF2C040020704700BF1A
:1006E000704700BF08B500F0E5F900F057F800F0DA
:1006F00069F900F009F8FFF7F3FF002000F0EEF9C8
:10070000003018BF012008BD08B5002002464FF494
:10071000807100F081F9BDE8084000204FF480713D
:1007200000F0A0B90120704700204FF4807100F064
:10073000A1B900BF00204FF4807100F093B900BF51
:1007400000204FF4807100F09DB900BF08B54FF450
:100750008071002000F0A6F9B0FA80F0400908BDD1
:10076000BFF34F8F0549064BCA6802F4E06213439A
:10077000CB60BFF34F8F00BFFDE700BF00ED00E08F
:100780000400FA0508B501460C220123024800F0D6
:10079000DFFC0C2008BD00BFE8F7FF1F10B5514C6F
:1007A00082B0A369002143F00103A361A3690A4653
:1007B00003F001030093009BE3696FF00B0043F02B
:1007C0008053E361E36903F080530193019BFFF7DA
:1007D00091FD00210A466FF00A00FFF78BFD002112
:1007E0000A466FF00900FFF785FD00210A466FF009
:1007F0000400FFF77FFD00210A466FF00300FFF7BA
:1008000079FD00210A466FF00100FFF773FD00211A
:100810000A464FF0FF30FFF76DFD3349334A4B680E
:1008200023F0E06343F000734B60136823F0070389
:1008300043F002031360136803F00703022B00D098
:10084000FEE72246236843F400232360236843F431
:10085000803323601168234B8903FBD519465A68FE
:1008600022F47C1242F4E8125A601A6842F0807254
:100870001A600A681B4B9201FBD519465A6822F090
:10088000F0025A605A6822F4E06242F480625A60D0
:100890005A6822F460525A605A6822F0030242F009
:1008A00002025A604B680F4C03F00C03082BF9D17D
:1008B0000F48FFF7FDFE0F4A0D48136843F004038D
:1008C0001360FFF705FF63680B4A23F4800363603E
:1008D0000023D168032082F82330FFF7F9FC02B02F
:1008E00010BD00BF00100240000001400020024087
:1008F00000A24A0410E000E000ED00E0431E0028E2
:1009000046D000BF00BF00BF00BF00BF00BF00BF98
:1009100000BF00BF00BF00BF00BF00BF00BF00BFDF
:1009200000BF00BF00BF00BF00BF00BF00BF00BFCF
:1009300000BF00BF00BF00BF00BF00BF00BF00BFBF
:1009400000BF00BF00BF00BF00BF00BF00BF00BFAF
:1009500000BF00BF00BF00BF00BF00BF00BF00BF9F
:1009600000BF00BF00BF00BF00BF00BF00BF00BF8F
:1009700000BF00BF00BF00BF00BF00BF00BF00BF7F
:1009800000BF00BF00BF00BF00BF13F1FF33B8D2EC
:10099000704700BF41F2707282B010F1FF300CD38B
:1009A0000192019B002BF8D0019B013B0193019B1D
:1009B000002BF9D110F1FF30F2D202B0704700BF26
:1009C00005207047064B82B09A6942F07C029A611A
:1009D0009B6903F07C030193019B02B0704700BF49
:1009E0000010024010B5002A84B002D0D4BF022209
:1009F000012204AB074C43F8101D194654F820009F
:100A000003230024029201940393FFF7B7FC04B080
:100A100010BD00BFD8CD000810B584B004AB72B9CA
:100A20000F4C43F8101D194654F8200003230124ED
:100A3000029201940393FFF7A1FC04B010BD084A91
:100A400043F8101D194652F82000032301221124F7
:100A5000019402920393FFF791FC04B010BD00BF14
:100A6000D8CD0008024B89B253F820301961704785
:100A7000D8CD0008024B89B253F820305961704735
:100A8000D8CD0008064B53F82000C36801EA0302E2
:100A900099431CBF89B201610AB192B242617047A9
:100AA000D8CD0008024B53F82030986808407047B2
:100AB000D8CD000845F2555040F6FF71024B022296
:100AC000186099605A607047003000404AF6AA22C8
:100AD000014B1A60704700BF00300040F0B5454B35
:100AE00091B0044680214448012200F0BDFD434BF3
:100AF000186000287AD0424B42488021012200F041
:100B0000B3FD414B1860002870D0404B10AF9A697C
:100B10004FF4007142F004029A619A694FF0030E9B
:100B200002F004020092009A9A69012542F4804280
:100B30009A619B6947F8281D03F480430193394665
:100B400002263348CDF824E0019B0796089500263D
:100B5000FFF714FC4FF4806339462D48069308953F
:100B60000796FFF70BFCB44218BF2346294C08BF79
:100B70004FF416530C220AA920460A930E920B96A4
:100B80000C960D960F96FFF737FDE3686FF4007132
:100B900043F400536FF04002E36021602260236859
:100BA00032460293029B63680A210293029B2368E8
:100BB00025200393039B63680393039B236804939B
:100BC000049B63680493049B23680593059B6368F7
:100BD0000593059BE36843F02003E360FFF78AFB7E
:100BE0002520FFF7BDFB284611B0F0BD002011B055
:100BF000F0BD00BFFCCD0008F4CD000804230020A8
:100C0000ECCD0008F8CD00080023002000100240C1
:100C1000000801400038014010B51A4C82B0E3686A
:100C20001B0602D5236818061CD4164C23689906A7
:100C30000CD4144B1A68120706D55A681A68019228
:100C4000019A5B680193019B02B010BD0E4B626874
:100C500002A9186801F8052D00F03CFD6FF0200393
:100C60002360E6E7094B0DF10301186800F03CFD35
:100C700018B19DF803306360D7E7E36823F0800381
:100C8000E360D2E700380140042300200023002065
:100C900008B5054B186800F0FBFC044B1868BDE86C
:100CA000084000F0F5BC00BF042300200023002012
:100CB00010B582B002AB084C03F8010D0A4620685B
:100CC000194600F0E9FC28B1044A0120D36843F03A
:100CD0008003D36002B010BD002300200038014023
:100CE00001207047FFF7D4BF10B5074B04460146FB
:100CF0004FF0FF32186800F0DFFC002814BF2046D8
:100D00004FF0FF3010BD00BF0423002010B5064B8C
:100D100004460A460146186800F0CEFC002814BFBD
:100D200020464FF0FF3010BD0423002070B50E1E8A
:100D300011DD0446851902E0012000F059FC2078FD
:100D40004FF0FF31FFF7B4FF0028F5D00134AC427B
:100D5000F5D1304670BD0026304670BD10B5044652
:100D600002E0012000F044FC20464FF0FF31FFF785
:100D70009FFF0028F5D010BD00230370437043602F
:100D8000704700BFF0B51D780144012D5C7848D054
:100D900045D3022D41D18842154639D007782A4ED5
:100DA00044EA97143F2C98BF16F804E007F03F047C
:100DB000365D88BF4FF03D0E85F800E06E705E68CE
:100DC00001300136132E5E602DD00235884236D0B8
:100DD00004781D4EA708F65D04F0030401302401D9
:100DE0002E7005F1010E884223D00778013044EAC5
:100DF00017143F2C96BF144E3D26365D07F00F04A6
:100E000088420EF101054FEA84048EF80060C5D1D6
:100E100002215C70A81A1970F0BD0020F0BD1546C3
:100E2000D4E79646DFE70A270026AF7003355E60F9
:100E3000CCE701215C70C2EB0E001970F0BD0021FF
:100E40005C70A81A1970F0BD54CE00080B78012B05
:100E500017D0022B05D003460A2203F8012B181ADB
:100E600070474B783F2B96BF0E4A3D21D15C03461D
:100E70003D2203F8021B42700A2203F8012B181AC4
:100E800070474B783F2B96BF064A3D22D25C3D23EC
:100E90000270437083700A22C31C03F8012B181AD6
:100EA000704700BF54CE00080023037043707047A2
:100EB000F0B45C7814701C78032C7FD8DFE804F061
:100EC0004E341A02164601443D4F88425AD010F85B
:100ED000015BA5F12B042A2DE4B2F6D9502CF4D8ED
:100EE0003C5D2506F1D4357804F03F042C43347082
:100EF000013635E016460144314F884249D010F89A
:100F0000015BA5F12B042A2DE4B2F6D9502CF4D8BC
:100F10003C57002CF1DB3578C4F383073D43A40133
:100F2000357074700136CFE716460144244F88426D
:100F300036D010F8015BA5F12B042A2DE4B2F6D9C6
:100F4000502CF4D83C57002CF1DB3578C4F3011752
:100F50003D432401357074700136CDE716460144D7
:100F6000174F884223D010F8015BA5F12B042A2DDE
:100F7000E4B2F6D9502CF4D83C57002CF1DBA40095
:100F80003470D3E7032119703178B01A5970F0BC6E
:100F90007047022119703178B01A5970F0BC70474F
:100FA000012119703178B01A5970F0BC70470021D6
:100FB00019703178B01A5970F0BC70470020E6E71C
:100FC00004CE0008F0B5234F83B0A7FB01340546DB
:100FD0002409CAB92049214AA1FB04635B09A1FB8A
:100FE0000361A2FB04624909C3EB0316C1EB0111C3
:100FF000A4EB8604A3EB81030094D20A184901F004
:1010000007F9284603B0F0BDFA2303FB1411124E72
:10101000A6FB04234FF47A7202FB01F15B09A6FBE5
:1010200003260E4AA7FB0171A2FB04727609C3EBEB
:101030000317C6EB0616A4EB870409090191A3EB7D
:1010400086030094D20A074901F0E2F8284603B06B
:10105000F0BD00BFD34D621089888888C5B3A291C6
:10106000ACCE000898CE000838B50C46054600F016
:10107000AFFA224601462846BDE83840FFF7A2BF36
:10108000F8B103780BB91846704730B583B00D46F8
:10109000002201A904460AF08DF8019B73B19C421D
:1010A00001D10BE0019313F8012B202AFAD0092A71
:1010B000F8D01AB92860012003B030BD002003B079
:1010C00030BD704728B3F0B5067883B016B900205C
:1010D00003B0F0BD14460D46002201A907460AF0F0
:1010E00069F8019B0646002BF1D09F4201D1EEE743
:1010F000019313F8010B2028FAD00928F8D02A28E8
:1011000009D00028E3D1034601202E60236003B0FC
:10111000F0BD00207047184601A900221F46019328
:101120000AF048F8019B002BD1D09F4201D1CEE7B5
:10113000019313F8012B202AFAD0092AF8D0002AAB
:10114000C5D1012871F10003DDDB431EDCE700BFE0
:1011500070B4F2B18D1C8618047802352409092C6C
:1011600094BF3034373405F8044C10F8014B04F0C8
:101170000F04092C94BF30343734B04205F8034CC7
:10118000EAD101EB42020BB100231370084670BC98
:1011900070470A46F7E700BFF8B504460F46164603
:1011A0001D4600211822FEF7EBFF27606660A56050
:1011B000F8BD00BF2DE9F84F0346002203F8012BCC
:1011C0000133427003F8012B03F8012B03F8012BC4
:1011D00003F8012B03F8012B1A70CE688B689E422E
:1011E0005DDAD1F804800C4658F82670054665494A
:1011F0000222384608F016FFF0B9237D002B57D0A5
:10120000226813786BB1002102E012F8103F43B15D
:10121000042BFAD123698B4201F10101F5D1134668
:1012200021612B60E3686268591CE16052F8233049
:1012300001206B60BDE8F88F3B782D2BE0D1237D3A
:10124000002BDDD1731CE36058F826707A784AB31E
:10125000266833781BB925E016F8103F13B3013B1D
:10126000012BF9D8B3789342F6D12E603378022B54
:101270001BD1384608F0A8FE022864D9BB1C6B605D
:10128000BB783D2B11D1FB1C6B60FB786BB973787D
:101290009B0772D500236B600120BDE8F88F1046D4
:1012A000BDE8F88F002385E888000120BDE8F88FAD
:1012B000731CE36058F826703D21384608F0FCFEA8
:1012C00007F102098046002838D0C9EB000A2668D9
:1012D000337833B9E6E7012A1ED916F8103F002B00
:1012E000E0D0032B03F1FF32F5D1BAF1000FF4D1B6
:1012F0002E603378032B02D1012323753378022B20
:10130000D3D1B8F1000F1ED008F101036B6098F83B
:101310000130002BBBD0C8E7D6F804B0BBF1000FFA
:10132000DBD0584608F050FE8245D6D15946484693
:10133000524608F077FE0028CFD1D9E7484608F09A
:1013400043FE8246C3E77378A26813F0020FE36896
:101350000AD093429EDA591C6268E16052F8233049
:1013600001206B60BDE8F88F934206DA626852F89C
:10137000231009782D297FF457AF034B01206B60B0
:10138000BDE8F88FC0CE00087FE4000870B50246C3
:101390000E465948594904F06FFA002825DB337886
:1013A00006F1100423B94FE014F8103B002B4BD08A
:1013B00014F80F5C6807F7D4514804F05DFA002870
:1013C00013DB14F8103C022B12D0042B05F001059E
:1013D00018D0052B24D0032B73D014F80E1CC9B1E0
:1013E000484804F049FA0028DEDA4FF0FF3070BDBB
:1013F000A9071DD454F80C1C54F8082C424804F0DA
:101400003BFAF0E7002D60D154F80C1C3F4804F083
:1014100033FAE8E754F80C1C3D4804F02DFAE2E7F3
:10142000002D58D154F80C1C3A4804F025FADAE79C
:1014300014F80E1C002954D154F80C1C54F8082C34
:10144000354804F019FACEE73448354904F014FA67
:1014500033780546344683B924E06268002A46D0D2
:10146000304804F009FA0546002DBEDBE068D8B12B
:1014700004F0E4F914F8103FA3B162785207F9D4EC
:10148000032BF7D0E0680028F4D0043B012B0FD9E0
:10149000A1780029E1D1616881B1234804F0ECF919
:1014A0000546E1E7E81770BD204804F0BBF9E1E725
:1014B0001F48616804F0E0F90546D5E7002DD7DA4A
:1014C00093E71C4804F0D8F98DE754F80C1C1A482F
:1014D00004F0D2F987E754F80C1C184804F0CCF952
:1014E00081E754F8082C164804F0C6F97BE7154844
:1014F00004F0C2F90546B7E7C4CE0008FCE40008D2
:1015000098E0000820CF0008ECCE000804CF0008C7
:1015100028CF000814CF0008E0CE0008CCCE000889
:1015200014E5000838CF000848CF0008ACDC0008FC
:1015300030CF0008C0CE0008FCCE00080CCF000859
:10154000D4CE000854CF0008F8B54B680D460746C6
:1015500016465BB118460D4908F0FAFB044628B957
:1015600038463146FFF712FF2046F8BD0849094AC0
:10157000094804F081F9686804F060F9384631469A
:10158000FFF704FF4FF0FF34EEE700BF68CF00081D
:10159000D0E4000876E4000870CF000838B50446AF
:1015A00008F012FD0546204604F03CF93A2004F00C
:1015B00013F9092D05F1010405DC0134202004F0A4
:1015C0000BF90B2CF9D138BD704700BF05F0A0BD59
:1015D00005F0F2BD06F03EBC06F05EBC4FF05003D5
:1015E00083F31188BFF36F8FBFF34F8F704700BF36
:1015F00005F022BFFA2303FB00F0034BA3FB0030EE
:10160000800905F019BF00BFD34D6210F0B5074641
:10161000164685B00A9D03ACC3F38F0208463346D5
:1016200039460095019405F017FC01280CBF03987A
:10163000002005B0F0BD00BFF0B58646174685B066
:101640000B9A0A9C92E8600008469A0871463B464D
:1016500001960295009405F0C5FB05B0F0BD00BFF2
:1016600005F02ABC05F0E6BC70B5002682B028CB98
:1016700004460096084611462A4604F027FF054610
:1016800018B114B1214605F0BBF9284602B070BD6F
:10169000002104F0D3BE00BF08B532EA220228BF01
:1016A0004FF0FF32002304F069FFA0F10100B0FA0F
:1016B00080F0400908BD00BF08B532EA220228BF09
:1016C0004FF0FF3205F090F8A0F10100B0FA80F081
:1016D000400908BD002208B5134605F015F8003092
:1016E00018BF012008BD00BF08B5002205F02CF985
:1016F000003018BF012008BD06F0C0BC06F0D8BC01
:1017000006F0C8BC30B4044D044C402305600C60A6
:10171000136030BC704700BFB80B00200C0C0020D9
:1017200030B4044D044C502305600C60136030BC91
:10173000704700BF240A0020780A0020704700BFCD
:10174000704700BF00F09EBD2DE9F043ADF2544D4F
:1017500006A81E21002206F035F8071E26DDDFF858
:10176000588009AC4FF00009227854F80C6C042A18
:101770006568A1684FF03F0398BF18F802302269EE
:101780000096019502910392A58A3668AD0054F83F
:10179000041C54F8082C074809F101090496059522
:1017A00004F06AF84F4504F12404DDD10DF2544DE4
:1017B000BDE8F08378CF000818D00008F0B500230A
:1017C0008FB01C46079301E0082C1FD0204606A9C5
:1017D00007AA05F04FF901340028F5D0069808A9AA
:1017E00005F062F90028EFD00898099D0D9F2E1A88
:1017F00002900B9807990190069A0C9B039504960A
:101800000097034804F038F8082CDFD10FB0F0BD82
:10181000ACCF000810B50D48FFF7C0FE0C4A0D49CB
:101820000D4804F029F80D48FFF7B8FE0C4C0D4B9D
:101830002046196804F020F80B48FFF7AFFE204659
:10184000BDE81040FA2104F017B800BFE0CF00084F
:10185000F8CF0008ECCF0008E4CF000800D0000863
:1018600028E000082C0400200CD00008F0B5002A65
:10187000059D069F67DD91F800C0BCF1000F2CD0DC
:101880000E46002416F801EF0134BEF1000FF9D125
:10189000A24223DC724613F0020F0CBF4FF0200E61
:1018A0004FF0300E13F001031AD1002A52DD3C68CC
:1018B0000CE0046884F800E00468013404603C68CB
:1018C00001343C60013A03F1010349D0A542F9D942
:1018D0000028EED16FF00100F0BD6446121BDAE77C
:1018E0006646BCF1000F15D000233C680BE004688D
:1018F00026700468013404603C6801343C6011F8CF
:10190000016F01333EB1A542F9D90028EFD16FF044
:101910000100F0BD6346002A1FDD3C681A440BE05D
:10192000016881F800E00168013101603C68013420
:101930003C600133934211D0A542FAD90028EFD17F
:101940006FF00100F0BD13F001030FD191F800C05A
:101950004FF0200E6646002EC7D11A461046F0BD45
:1019600091F800C06646002EBFD1F6E70E784FF022
:10197000200E002EB8D13246F0E700BFF0B587B098
:101980000F460F9E109D002945D00C46864673BB1E
:1019900000238DF817300DF11701002F33D01F46AB
:1019A0000E9B0DF11701A3F13A00B4FBF2F302FB19
:1019B0001344092CC8BF2418303401F8014D1C46CB
:1019C000002BF2D1FFB10C9B002B34D12D2301F859
:1019D000013C002401390096019570460C9A0D9B3C
:1019E000FFF744FF002800DB204407B0F0BD0A2ABF
:1019F000CED10029CCDA00234C428DF81730002CD0
:101A000036D00127CCE7119B9BB12B2301F8013C79
:101A100000240139DFE700960195302403A90C9AD0
:101A20000D9B8DF80D708DF80C40FFF71FFF07B070
:101A3000F0BD119CCFE70D9B9B07C7D52B689E423D
:101A40000ED9BEF1000F10D0DEF800302D221A7032
:101A5000DEF800300133CEF800302B6801332B6004
:101A60000C9B0124013B0C93B5E76FF00100BCE730
:101A70000DF11701A7E700BF2DE9F04FB3B002F158
:101A8000FF3B1D783C9A002407460B911294079265
:101A9000002D00F09C83A146DA4680461A461AE0E3
:101AA0001578129B9A450ED9B8F1000F00F08F807F
:101AB000D8F800301D70D8F80010129B01310133A6
:101AC000C8F800101293144609F101096578621CE8
:101AD000002D00F0D380252DE2D15378541C002B2B
:101AE00000F0CC80252B77D02D2B03BF9378941C4E
:101AF000012600262B2B71D00022099203E014F856
:101B0000013F46F00206302BF9D02E2B33D0A3F143
:101B10003002D2B2092A2ED90622089200276C2B55
:101B200004BF63780134682B5DD0583B202B46D826
:101B3000DFE813F02503450045004500450045005A
:101B400045004500450045004500B70100028C01F5
:101B5000C800C80045004500450045004500450057
:101B600045004500D20145004500B1004500260270
:101B700045004500190206210D4631460027621C2A
:101B80003E468B4603E000EB4C0512F8013BA3F107
:101B900030012E2BC8B202F1FF340AD0092805EB20
:101BA000850C07EB870E07D8002EECD101EB4E0712
:101BB000EBE700250126E8E708955E46AFE7129BB4
:101BC0009A4540F20E82B8F1000F40F0F2816FF0BA
:101BD000010033B0BDE8F08F224662E7012263784E
:101BE000099214448FE763780134583B202BE6D8E0
:101BF00001A252F823F000BF8B210008BF1B000890
:101C0000BF1B0008BF1B0008BF1B0008BF1B00084C
:101C1000BF1B0008BF1B0008BF1B0008BF1B00083C
:101C2000BF1B0008A31E0008152000084D1E000859
:101C3000C51C0008C51C0008BF1B0008BF1B00080E
:101C4000BF1B0008BF1B0008BF1B0008BF1B00080C
:101C5000BF1B0008BF1B0008F91F0008BF1B0008BE
:101C6000BF1B0008971C0008BF1B000809200008C4
:101C7000BF1B0008BF1B0008FD1F000847460B9B49
:101C800013F0010303D1002FA1D03A681370484626
:101C900033B0BDE8F08F079BB64D196812A8002934
:101CA00008BF294601903A463346CDF800A0404689
:101CB000079DFFF7DBFD002805F1040589DB814462
:101CC000079503E7079B002203F1070E2EF0070E8E
:101CD000DEF800300C931846DEF804301D460A93F7
:101CE000294600230EF10805079506F03BFF002862
:101CF00040F02782099B002B40F076811DAB9B466C
:101D00000D93089B072B0ED89B4B089D0C9803EB5B
:101D1000C5030A99D3E9002306F000FB0C900A9151
:101D2000002D00F03882089D00230120013300EBD4
:101D30008000AB424FEA4000F8D1089506F02AFC3B
:101D4000CDE90E010C980A9906F034FF099000289D
:101D500000F06781099BDFF824C2089D0DF14B0E4E
:101D60000020ACFB0312D20802EB8201A3EB41037B
:101D700030330EF8013F01301346002AF1D10DF146
:101D80004C0E0EEB00030BF1FF3213F8011D7345EF
:101D900002F8011FF9D108958344089B002B43D01A
:101DA000099806F0F7FB02460B460C980A9906F0D4
:101DB000B3FADDE90E2306F063FC06F0FBFE2E23EA
:101DC0008BF80030002800F00482DFF8B0C1089DD5
:101DD0000DF14B0E0021ACFB0023DB0803EB83026B
:101DE000A0EB4202303201310EF8012F1846002BD1
:101DF000F1D18D42089598BF0DF14C0E40F2AD81A6
:101E00000DF14C0E4B1E089D7344302201318D4262
:101E100003F8012F4FF03000F8D8002940F09D81E1
:101E20008BF801000BF1020B12A800250190CDF8F0
:101E300000A00D993A46334640468BF80050FFF714
:101E400015FD0028FFF6C5AE81443FE6079B07332A
:101E500023F00703D3E900010833079306F0CAFE15
:101E6000054606F03BFA002840F0E1806E2361222F
:101E70008DF874308DF876308DF875200DF177017E
:101E8000002012AD08703A4633464046CDF800A017
:101E900001951DA9FFF7EAFC0028FFF69AAE8144E0
:101EA00014E6079B12A9D3F800E03A4633460191A5
:101EB000CDF800A00025404611A9079E8DF844E00A
:101EC0008DF84550FFF7D2FC002806F10406FFF616
:101ED00080AE81440796F9E50020D8F80030302222
:101EE0001A70D8F800307822591CC8F800105A70BF
:101EF000D8F80030079A0133C8F80030134604338D
:101F000009F102091168079300B189B241220998C9
:101F100012AB05900292049300970196CDF80CA0A5
:101F2000404610220023FFF729FD0028FFF651AE9E
:101F30008144CBE5079A1346116804330793099847
:101F4000612212AB05900292049300970196CDF89E
:101F50000CA040460A220123FFF710FD0028FFF6DF
:101F600038AE8144B2E5079A1346116804330793EB
:101F70006122CCE720D0000828D00008CDCCCCCC02
:101F8000079A13461168043307930998612212AB2C
:101F900005900292049300970196CDF80CA040465C
:101FA0000A220023FFF7EAFC0028FFF612AE814464
:101FB0008CE5D8F8003025221A70D8F80020129B42
:101FC000511C0133C8F800109A452178129308D9A2
:101FD0005170D8F80020129B01320133C8F800205C
:101FE000129309F1020971E52B238DF874301DABB2
:101FF0000DF1750B0D9384E601206EE7079A1346E9
:10200000043311880793B3E7079A13460433118802
:102010000793BAE7079A13460433B2F900100793FF
:102020008DE730238BF800300BF1010BB5E6284625
:1020300006F054F90128284640F2B28006F04CF927
:10204000002800F096802D2305F100458DF87430AE
:1020500028464FF07E5107F0C9F8002840F0B480C0
:10206000674B099300239B460894099C65492846C1
:1020700007F0D0F84FF07E5118B9284607F0B6F8AF
:1020800040B13DB12846214606F012FF0BF1010B8D
:102090000546EBE701231A46089C0DF17503CDF8C0
:1020A00020B00A940D964FF07E5B0C9714461E46A6
:1020B00001E03E4601345946284606F0ADFF07F0E0
:1020C000BDF8C0B200F13002012C327006F10107F8
:1020D00000F0818006F098FE0146584606F0E8FEC2
:1020E0000146284606F0DAFD45490546584606F001
:1020F000DFFE072C8346DCD13A466523099813702E
:102100004FF08041099207F08FF80A9C0D9E0C9FBA
:10211000099A90B3089B002B0CBF2B202D20089D03
:102120003949EB1781FB05E1C3EBA10101EB810309
:10213000A5EB43033031303391705070D370111DD3
:102140009EE60A9A2D2302F100428DF874301DABF1
:102150000A920DF1750B0D93D3E55A460EEB010370
:1021600013F8010D734502F8010FF9D101318B44C9
:102170005AE620238DF874306AE72B20CFE7079AC0
:102180001346043311680793C0E6079A13460433D5
:1021900011680793B9E61D4B0022CDE90E23D1E566
:1021A00006F09AF800284FF0690114BF20202D2076
:1021B0006E2266238DF875108DF874008DF87620E8
:1021C0008DF877301EA95BE60E4B09934AE7A946C6
:1021D00055E5014614E64FF02E03737006F014FE29
:1021E0000146584606F064FE0146284606F056FDB4
:1021F00003490546584606F05BFEB71C834658E780
:10220000CDCCCC3D00002041676666660000F03F03
:102210000EB410B587B009AC54F8043B0390009499
:1022200003A800214FF0FF320594FFF725FC07B00B
:10223000BDE8104003B0704710B584B004AC44F85A
:10224000040D0B460092204600214FF0FF32FFF7AD
:1022500013FC04B010BD00BF074A0346106838B134
:10226000064903448B4294BF13604FF0FF30704720
:10227000034908461160F3E70C0D002000BC002064
:10228000E023002038B5FEF74DFA0546FFF7A6F922
:10229000002D06DD002420460134FEF74BFAAC4247
:1022A000F9D1002D06DD002420460134FEF748FA5E
:1022B000AC42F9D14FF4FA70FEF76CFBF1E700BFC6
:1022C000704700BF30B5134D83B02C680CB103B01C
:1022D00030BDFFF779F9FFF7F3FFFEF703FAB0B16E
:1022E0000D48214603F0B4FB88B10C490C4800F0BE
:1022F0002DF80C4903230191009322460A480B490B
:102300004FF48053FFF798F928600028DFD1FFF7DA
:10231000B9FF00BF0823002010D60008B0D0000885
:10232000D8E50008A8D00008A0D000087D6100080A
:1023300008B5054B1B681BB1FFF748F9FFF7A2FF73
:10234000FFF7C0FFF8E700BF08230020F8B50546F7
:102350000F46174A174E13680024013313600378A1
:102360002F2B08BF013556F83400013418B1294627
:1023700007F0EEFCB8B1032CF5D132680D4BA2B1D9
:102380009A6822B11B69022413B10020F8BD012410
:102390007B6898470028F8D006EBC40346F8345011
:1023A0005F600120F8BD0120F8BD1446F0E700BFD2
:1023B000642300201023002003782F2B01D000205D
:1023C00070474378EBB110B4104C22681A4452782D
:1023D000520710D02F2B0ED0013006E022681A448D
:1023E0005278520707D02F2B05D001F8013B10F887
:1023F000013F002BF2D1002301200B705DF8044B4C
:10240000704700230B700120704700BF3804002084
:1024100003782F2B01D0002070474378002BFAD08F
:1024200010B4114A01301468E21805E02F2B0CD0CB
:1024300010F8013FE21823B152785207F6D12F2B42
:1024400003D000205DF8044B7047013003782BB1B6
:1024500001F8013B10F8013F002BF9D100230120C6
:102460000B705DF8044B70473804002070B584B0E1
:102470006946FFF7A1FF70B1094E002456F83400F9
:1024800006EBC405013418B1694607F061FC20B1C0
:10249000032CF3D1002004B070BD2846FBE700BF39
:1024A0001023002070B588B005460E46FFF7DEFF0A
:1024B000694604462846FFF7ABFF28B134B163688C
:1024C00068469B6B3146984708B070BD204608B0FF
:1024D00070BD00BF2DE9F04389B004460F46FFF7F9
:1024E000C5FF204D0646AB68204601336946AB6008
:1024F000FFF78EFF88B186B1FFF76CF81A49002408
:102500000B465A680C337AB10134052CF9D1FFF728
:1025100063F8736807221B681A60EB6800200133B8
:10252000EB6009B0BDE8F08304EB440973684FEA3F
:10253000890901EB0908C8F80430FFF74DF8736802
:1025400068461B6A39469847074B30B973680622BC
:102550001B681A60C8F80400DFE743F8090004F1BB
:102560000A00DEE76423002028230020F8B51B4E74
:102570000A383369042803F10103336127D8002A9C
:1025800014DD4700164B3D1803EB85052C7A7CB90A
:102590003844800003445B68114DC3B15B6A28581E
:1025A000984700280DDB14B10130F8BD0020F8BDBC
:1025B0004FF0000E0C70013A013185F808E001245B
:1025C000E6E7002C14BF01204FF0FF30F8BD73691F
:1025D0004FF0FF3001337361F8BD00BF642300206A
:1025E0002823002030B40D4C0A38A369042803F1D5
:1025F0000103A3610BD800EB4000094B80001D18BC
:102600006D6825B1EC6A1858234630BC1847E36959
:102610004FF0FF300133E36130BC7047642300208A
:1026200028230020F8B5114B0A381A6B042802F150
:1026300001021A6314D800EB40000D4D84002E19DE
:1026400072686AB1536B2859176898473860FEF76B
:10265000C1FF002373602B51FEF7BEFF0120F8BDC0
:102660005A6B002001325A63F8BD00BF642300207A
:102670002823002070B58CB00E460546FFF7F6FE05
:10268000044620B128466946FFF796FE10B900209F
:102690000CB070BD28460DF11101FFF7B9FE30B145
:1026A00063683146DB6B04A898470CB070BD2F23DC
:1026B000ADF81030F4E700BF012070470246002358
:1026C0000B60184613607047002070470020704769
:1026D00000207047002070474FF0FF30704700BF68
:1026E00010B40F4B013853F83040ACB1002A0FDD65
:1026F00003EBC0025268114400290DDBA26891422D
:102700000ADC03EBC003084659605DF8044B7047D0
:102710001CBFA268511AEFE74FF0FF30F5E700BF8A
:10272000681D002000207047034B0138002243F849
:1027300030200120704700BF681D0020074900229B
:102740000B4643F8042B04334A6043F8042B43F848
:10275000042B43F8042B1A6001207047681D0020E9
:102760002DE9F0410646114D114F002457F8343041
:102770004FEAC4082BB10134032CF7D10020BDE887
:10278000F081286820B9F6E755F80C0F0028F2D040
:10279000314607F0DDFA0028F6D1B844C8F8040045
:1027A00047F83450601CBDE8F08100BF04D1000838
:1027B000681D002070B505460E46084C084802E02A
:1027C00054F80C0F40B1294607F0C2FA0028F7D19F
:1027D000A3680120336070BD70BD00BF04D1000844
:1027E000F0D00008F8B5104B013853F83050BDB1A7
:1027F00003EBC0067768AB68DB1B23EAE3739A42FE
:10280000A8BF1A4614460AB91046F8BD08466968BA
:10281000394406F0F9FF7268204614447460F8BD2C
:102820004FF0FF30F8BD00BF681D002038B50D46E1
:10283000084907F08DFA50B9074C0848A1680022F2
:10284000A84754F80C0F0028F8D1012038BD00200B
:1028500038BD00BFF8D0000804D10008F0D000084F
:10286000F8B505460F461646084C094802E054F8EC
:102870000C0F50B1294607F06BFA0028F7D16368B6
:1028800001203B60A3683360F8BDF8BD04D10008A7
:10289000F0D000082DE9F04188B0431E0A1D002643
:1028A000884602A82749FEF777FC3746354602A935
:1028B0006846FEF77FFC24490446B8B1009B2BB361
:1028C0005C68204607F044FA204930B1204607F002
:1028D0003FFA1F4918B9019FE9E70125E7E72046BC
:1028E00007F036FA0028E2D1019EE0E7CFB1384682
:1028F00003F00EF8174A184B002814BF104618466C
:1029000002F09CFF204608B0BDE8F081D8F8000036
:1029100069460C4AFEF718FE0446204608B0BDE89A
:10292000F08156B1304603F00DF80028EAD002F0ED
:1029300053FF0A2002F050FFE4E7294603F01CF899
:102940000446DFE748D10008D8D10008DCD10008F0
:10295000E4D10008F8E3000825E500082DE9F04F70
:102960008FB00A1D431E4FF47A754FF0FF34804636
:102970000E4608A8484904950594FEF70DFC474CFF
:10298000474D484F4FF0000906A808A9FEF712FC72
:1029900000285BD0069B002B68D05B68A3424BD01D
:1029A000AB4259D0BB42EFD10B9B56F8230002F04B
:1029B000AFFF0B9F8346C7EB0803019306EB870726
:1029C000002866D0384B984240D0384E4FF0000A6D
:1029D00001983946D847804600285AD1B9F1000FEE
:1029E00004D0059B0AF1010A9A4521DA049BFA24D6
:1029F000032B9CBF04230493FEF7EAFD0546FEF774
:102A0000E7FD049B022104FB03F3A6FB032305EB74
:102A100093139842DCD20DF10F00FEF777F90130E5
:102A2000EDD09DF80F30032BE9D103F03DF838BB12
:102A300040460FB0BDE8F08F04A90798FEF720FBD1
:102A400006A808A9FEF7B6FB0028A3D14FF0FF386F
:102A500040460FB0BDE8F08F079805A9FEF710FBC0
:102A6000059B4FF00109002B8EDCEFE7306806A9CB
:102A7000094AFEF769FD804640460FB0BDE8F08F79
:102A800000200146024602F0F7FF40460FB0BDE8C5
:102A9000F08F4FF00108CBE7D0D50008E6E300083F
:102AA00039E5000827E500085D290008D34D6210CC
:102AB000F0B54FF47A738BB00F4604460193FEF7DE
:102AC00087FD631E06463A1D04A82049FEF764FBF5
:102AD0001F4D04E0029B0BB35B68AB4227D002A8FA
:102AE00004A9FEF767FB04460028F3D1019D0021ED
:102AF000002DB8BF0335AD1006E09DF80330032B61
:102B00001AD0FEF765FD811B691A0DF10300FEF76F
:102B1000FDF80130F1D120460BB0F0BD386802A9B4
:102B20000A4AFEF711FD044620460BB0F0BD03989B
:102B300001A9FEF7A5FAD2E702F0B6FF0028EAD015
:102B400000200146024602F097FFE4E728D1000882
:102B500031E400082DE9F04F8BB089468246FDF73D
:102B60002FFF0027834609F104020AF1FF3304A86E
:102B70004349FEF711FBB846424C434D434E02A871
:102B800004A9FEF717FB002839D0029B002B3ED08A
:102B90005B68A3422CD0AB4236D0B342EFD1079B47
:102BA00059F8230002F0B4FE079D0446002864D0C3
:102BB000002F43D0384601A90A2208F0EFFA019B02
:102BC0000646002B56D01A782E2A42D04AB94FF02A
:102BD000FF320023002E04DBB34502DD03B31F2ABE
:102BE0001ED92B4802F03CFE01200BB0BDE8F08F4F
:102BF00002A804A9039FFEF7DDFA0028C5D14FF013
:102C0000FF300BB0BDE8F08F4FF00108B7E7D9F8FF
:102C1000000002A91A4AFEF797FC0BB0BDE8F08F3E
:102C2000012130469140FDF73DFF20B1B8F1000F82
:102C300004D00020E5E7B8F1000FE2D0C5EB0A00B0
:102C400009EB8501A047003018BF01200BB0BDE89B
:102C5000F08F581C01905B78002BC2D00A2201A98A
:102C600008F09CFA019B024613B11B78002BB8D1E7
:102C70000123AFE74FF0FF32ACE70120C1E700BF0F
:102C800088D1000818E40008DCE3000827E5000804
:102C9000E3E4000810B504464078E188FDF7EAFE59
:102CA000A068FDF72BFEA1882078FDF7E3FEA06861
:102CB000FDF724FEA1882078FDF7D4FEA068FDF77B
:102CC0001DFE6078E188BDE81040FDF7CBBE00BF77
:102CD00010B504464078E188FDF7C4FEA068FDF712
:102CE0000DFEA1882078FDF7BDFEA068FDF706FE69
:102CF000E1886078FDF7BEFEA068FDF7FFFD207853
:102D0000A188BDE81040FDF7B5BE00BFF8B5037C53
:102D10000446002B0F4614BF01258025082615E028
:102D2000FDF7A0FEA068FDF7E9FDA1882078FDF77A
:102D300099FEA068FDF7E2FD2078A188FDF79AFED4
:102D4000237C6A004BB1013ED5B20AD03D42607887
:102D5000E188E5D1FDF78EFEE4E7013E4FEA550537
:102D6000F4D1E1886078FDF77DFEA068FDF7C6FD2F
:102D70002078A188FDF776FEE1886078FDF792FE65
:102D80000546A068FDF7BAFD2078A188FDF772FE20
:102D9000B5FA85F04009F8BD70B50B4E56F82040E5
:102DA00084B10546A18820780022FDF71BFE6078DB
:102DB000E1880022FDF716FE2046FEF7A1FC002365
:102DC00046F8253070BD00BF841D0020F8B51D4EAB
:102DD000074656F820400D465CB32078A1880022B3
:102DE000FDF700FE6078E1880022FDF7FBFD2B680F
:102DF0006868A968EA6823606060A160E260A17801
:102E0000E2782B69012505FA01F105FA02F2236146
:102E1000A180E280207889B20022FDF7FDFD2A46DC
:102E20006078E188FDF7F8FD2046FFF733FF28467C
:102E3000F8BD1420FEF760FC044610B146F82700E8
:102E4000D5E7F8BD841D00202DE9F84F594CDDF879
:102E500028A054F82040002C00F09C801E4691468B
:102E60000D462046F3B1FFF733FF0B9B7BB39DF874
:102E70002C102046FFF74AFF002800F09480002E17
:102E8000C8BF761906DD15F8011B2046FFF73EFF87
:102E9000B542F8D1BAF1000F1DD10C9B73B10120DE
:102EA000BDE8F88FFFF714FF0B9B6BB9E3685B007D
:102EB000D9B22046FFF72AFF002874D02046FFF73A
:102EC000E9FE0120BDE8F88F9DF82C10F1E7E368DA
:102ED0005B00D9B2CDE72046FFF7FAFE0B9B002B33
:102EE0005BD09DF82C102046FFF710FF00285AD029
:102EF000BAF1000FD1DD09F1FF390AF1FF3B4FF0C4
:102F00000008237C6078002BE18814BF012680260E
:102F10000825FDF7A7FD002702E0013DD6B21BD032
:102F2000A068FDF7EBFC2078A188FDF79BFD607899
:102F3000E188FDF7B7FD00B13743A068FDF7DEFC7F
:102F40002078A188FDF796FD237C7200002BE4D148
:102F5000013D4FEA5606E3D1C3456078E18816DCAF
:102F6000FDF780FDA068FDF7C9FCA1882078FDF77A
:102F700079FDA068FDF7C2FC08F101082078A1885E
:102F8000FDF778FDD04509F8017FBAD185E7FDF757
:102F900071FDE7E72046BDE8F88FE368590041F08E
:102FA0000101C9B29FE72046FFF774FE4FF0FF30E2
:102FB000BDE8F88F841D00202DE9F04FADF5177D99
:102FC00000240A1D431E012605258246894610A8B5
:102FD0009E4908948DF82C408DF82D408DF82F4097
:102FE0000E948DF83C408DF82E600D95A046FEF7AE
:102FF000D3F8A34605940494954D964C964E09A893
:1030000010A9FEF7D7F828B3099B002B00F0A78082
:103010005F68A74255D0AF4260D0B74263D08F4AB5
:10302000974248D08E4A974255D038468D4906F08F
:103030008FFE002842D038468B4906F089FE0028D2
:1030400056D1012309A810A98DF83C30FEF7B2F83B
:103050000028D9D1049B002B40F0DA80059B002B7F
:1030600040F0DE80139A059C01329245139207AE20
:1030700040F39B8016AD0AE0139A33680132924503
:103080002B551392294604F1010440F38F8059F81F
:1030900022003146FDF7F4FF0028EDD1734802F01D
:1030A000C1FB139B59F8230002F0C8FB01200DF56A
:1030B000177DBDE8F08F01230493A0E74FF0010BCB
:1030C0009DE70A980EA9FDF7DBFF002800F0B2800B
:1030D0004FF0010893E70123059390E70A980DA9A3
:1030E000FDF7CEFF8BE70A9808A9FDF7C9FF86E731
:1030F00038465F4906F02CFE68B138465D4906F057
:1031000027FE002835D05C4A97427FF478AF139BA6
:10311000013B13939EE706A90A980A2208F03EF89D
:10312000069B8DF82C00A3B11A782E2A11D1581CB9
:1031300006905B786BB106A90A2208F02FF8069B6F
:103140008DF82E00002B3FF45AAF1B78002B3FF474
:1031500056AF4A4802F084FB4FF0FF3005E0D9F843
:10316000000009A9394AFEF7EFF90DF5177DBDE812
:10317000F08F06A90A980A2208F010F8069B8DF82D
:103180002D00002BE5D01A782E2AE2D1581C06908B
:103190005B78002BDDD006A90A2207F0FFFF069B13
:1031A0008DF82F00002BD0D129E716A9089AB8F185
:1031B000000F3BD00E9B56AD8DE80C080020234637
:1031C0002A46FFF741FE306090B3013038D0089BAB
:1031D000002B1BD04FF00003336017DD1C4605E0C9
:1031E0003368089A01339A4233600BDDE95C244866
:1031F00002F042FB04444E2CF2DD0A2002F0ECFA0D
:103200000024EDE714B10A2002F0E6FA0020ACE752
:103210000BA90020FFF7DAFDB0FA80F04009A4E71F
:10322000049C2046FFF7B8FD20469EE74346C2E7D0
:1032300001209AE7204602F013FB4FF0FF3094E79D
:10324000104802F00DFB02208FE700BFDCD700081A
:1032500083E40008B6E30008AAE3000802E50008DA
:10326000BFE40008ECD90008F4D9000800DA00082F
:10327000F8D90008FCD9000840E50008E3E400089C
:1032800010DA00080CDA000870B5104E56F820402D
:10329000D4B10546218920780022FDF7A3FB607890
:1032A00061890022FDF79EFBA078A1890022FDF72D
:1032B00099FBE078E1890022FDF794FB2046FEF7B8
:1032C0001FFA002346F8253070BD00BF801D002086
:1032D000F8B5354D074655F820400E46002C59D01C
:1032E000207821890022FDF77DFB6078618900222A
:1032F000FDF778FBA078A1890022FDF773FBE07849
:10330000E1890022FDF76EFB72683068B368F168EE
:103310006260E160A36094F807C02060217994F8AE
:1033200005E0A779B36930697269012505FA0EFED7
:1033300005FA0CF605FA01F105FA07F7A361A4F8FE
:103340000AE02181206189B2626120780022A78190
:10335000E681FDF747FB607861890022FDF75CFBA1
:10336000A078A1890022FDF757FBE078E1890022CF
:10337000FDF752FBE078E189FDF774FB237EA0782E
:10338000A1891BB9FDF776FB2846F8BDFDF76AFB5E
:103390002846F8BD1C20FEF7AFF9044610B145F8E9
:1033A0002700B1E7F8BD00BF801D0020F8B53B4BFA
:1033B00053F82050002D6FD00C464E798879CF7984
:1033C0000A79012303FA00F003FA02F103FA06F680
:1033D000BB40A08121816681E3812B7820788342E4
:1033E00053D089B20022FDF7FDFA687863788342F2
:1033F00046D069890022FDF7F5FA607861890022DC
:10340000FDF70AFBA878A378834234D0A98900226B
:10341000FDF7E8FAA078A1890022FDF7FDFA237EE6
:10342000A078A189002B34D1FDF724FBE878E3785C
:10343000834203D1E279EB799A420CD0E9890022E8
:10344000FDF7D0FAE078E1890022FDF7E5FAE078AF
:10345000E189FDF707FB21686268A368E0682960DD
:10346000E8606A60AB6021696269A36929616A6189
:10347000AB610120F8BDA279AB799A42C6D1D5E7FC
:1034800062796B799A42B4D1BCE72B799342A8D187
:10349000ABE7FDF7E7FAC9E72846F8BD801D002035
:1034A0002DE9F04F5B4C83B054F820A0BAF1000F27
:1034B00000F0AC801C469AF818300D4693469AF8F6
:1034C0000200BAF80C10002B75D1FDF7D3FA9AF868
:1034D0000300BAF80E10FDF7CDFADAF81000FDF788
:1034E0000DFA002C78D02B1F009401930125019A2E
:1034F000DAF8143052F8047F9AF8198001929AF899
:103500001890002B61D00026344631E005FA04F310
:103510003B429AF80100BAF80A1037D0FDF7A2FA38
:10352000C8459AF80200BAF80C1037D0FDF79AFA9D
:10353000DAF81000FDF7E2F99AF80200BAF80C1078
:10354000FDF798FA9AF80000BAF80810FDF7AAFA01
:1035500028B19AF81A308BB305FA04F31E43DAF84F
:103560001000FDF7CBF9DAF814300134A3422DD95D
:103570009AF81A20002AC9D1E243134405FA03F34A
:103580003B429AF80100BAF80A10C7D1FDF772FA67
:10359000C8459AF80200BAF80C10C7D1FDF76AFACC
:1035A000DAF81000FDF7AAF99AF80200BAF80C1040
:1035B000FDF758FAC6E7FDF755FA88E7DAF8143050
:1035C000013B1B1B05FA03F3C8E71E46009B4BF8A3
:1035D000046B013B00938AD19AF818307BB19AF8BA
:1035E0000200BAF80C10FDF73DFA9AF80300BAF899
:1035F0000E10FDF737FA012003B0BDE8F08F9AF8FE
:103600000200BAF80C10FDF735FAEEE7504603B0A9
:10361000BDE8F08F801D00202DE9F04F8B46002182
:103620008846C146C246ADF2544D022705250824FE
:103630000190431E4FF0010E8DF834108DF83510B7
:103640008DF836108DF837108DF838108DF84C1035
:103650008DF84D108DF84E108DF83A70119512942A
:103660000BF10402032607A8AC49AD4CAD4DAE4F9B
:103670008DF839E08DF83B60FDF78EFDCDF80080C8
:1036800005A807A9FDF796FD10B3059B002B00F0D8
:10369000BA805E68A6425AD0AE4252D0BE4267D0CF
:1036A000A24A964250D0A24A964255D0A14A96428A
:1036B0006ED03046A04906F04BFB00284FD10123C5
:1036C00005A807A98DF84C30FDF774FD0028DCD162
:1036D000BAF1000F40F08C80B8F1000F40F0168175
:1036E000009B002B40F03C810A98009E01300A901C
:1036F000019B834240F3398114AB03EB86045BF8F2
:103700002000214604AAFDF7DDFC002800F04D81D1
:1037100021460A98049B013001360A90002B7CD088
:103720000A680136802E03F1FF3341F8042FF5DDDE
:103730008248049302F094F801200DF2544DBDE844
:10374000F08F4FF001099BE74FF0010A98E70698C8
:1037500011A9FDF795FC93E70123009390E730460C
:10376000774906F0F5FAB0B901238DF84D3087E7B7
:10377000069812A9FDF784FC002881D0129B013B1A
:103780001F2B7FF67DAF384602F06AF80120D4E7A0
:103790004FF0010874E730466A4906F0D9FA18B9C3
:1037A00001238DF84E306BE73046674906F0D0FABA
:1037B000002834D03046654906F0CAFA00286DD09A
:1037C0003046634906F0C4FA002800F08380304692
:1037D000604906F0BDFA002844D05F4A96427FF463
:1037E0004FAF0A9B013B0A93BAF1000F3FF474AF4D
:1037F0000DA90020FFF76CFDB0FA80F040090DF232
:10380000544DBDE8F08FDBF8000005A9434AFDF7F1
:103810009BFE0DF2544DBDE8F08F049368E703A9B9
:1038200006980A2207F0BAFC039B8DF83400A3B176
:103830001A782E2A11D1581C03905B786BB103A91A
:103840000A2207F0ABFC039B8DF83800002B3FF4F5
:1038500017AF1B78002B3FF413AF404802F000F87D
:1038600001206AE703A906980A2207F097FC039B48
:103870008DF83700002BF0D01A782E2AEDD1581C85
:1038800003905B78002BE8D003A90A2207F086FC9E
:10389000039B8DF83B00002BDBD1F1E603A90698D2
:1038A0000A2207F07BFC039B8DF83500002BD4D057
:1038B0001A782E2AD1D1581C03905B78002BCCD0DB
:1038C00003A90A2207F06AFC039B8DF83900002B3C
:1038D000BFD1D5E603A906980A2207F05FFC039B37
:1038E0008DF83600002BB8D01A782E2AB5D1581C86
:1038F00003905B78002BB0D003A90A2207F04EFC9E
:10390000039B8DF83A00002BA3D1B9E650460DA9D0
:10391000FFF74CFDB0FA80F040090EE7FCD8000834
:1039200083E40008AAE30008E0E3000802E50008D9
:10393000BFE400086FE4000818DA000838DA00086D
:1039400020DA0008F4D9000828DA00082CDA000888
:1039500030DA000834DA000840E50008E3E4000843
:103960004046FFF791FC4046E7E686B3002014A9E5
:1039700094AA3346FFF794FD38B3B9F1000F22D073
:103980000024254693AF01E0AE4218DD114857F8F8
:10399000041F01F071FF04444E2C05F10105F3DD15
:1039A0000A2001F019FF0024EEE70B4801F03AFF6E
:1039B0000A9B5BF8230001F041FF0120BDE614B132
:1039C0000A2001F009FF0020B7E60120B5E64FF01C
:1039D000FF30B2E640DA000800DA000870B5084EA1
:1039E00056F820505DB10446A98828780022FCF7DB
:1039F000F9FF2846FDF784FE002346F8243070BD09
:103A0000881D0020F8B5184E074656F820400D4690
:103A100004B32078A1880022FCF7E4FF29686A68D3
:103A2000AB6821606178012505FA01F16260A3604D
:103A3000A180207889B20022FCF7EEFFA3782078DD
:103A4000A1881BB9FDF716F82846F8BDFDF70AF85E
:103A50002846F8BD0C20FDF74FFE044610B146F88D
:103A60002700DBE7F8BD00BF881D002038B5184BE4
:103A700053F820404CB30D4691B924E0FCF7FAFF0F
:103A8000A068FCF73BFFA3782078A18893B1FCF7EE
:103A9000E9FFFDF7A1FDA068FCF730FF013D12D062
:103AA000FDF798FDA3782078A188002BE6D1FCF7DC
:103AB000D9FFE5E7FCF7DEFFFDF78EFDA068FCF718
:103AC0001DFF013DECD1012038BD204638BD00BFAF
:103AD000881D00202DE9F0478EB000240A1D431EEA
:103AE000012605258246894608A849498DF81440D3
:103AF0008DF815408DF81640ADF818600795FDF764
:103B00004BFBA0462746434D434C444E03A808A90F
:103B1000FDF750FB90B1039B002B54D05B68A34290
:103B200022D0AB4222D0B34227D03D4A934220D08C
:103B30003C4A934226D03C4A9342E7D1002F55D1CC
:103B4000B8F1000F5CD10B9B9A455EDD59F823005C
:103B500002A9FDF795FA00283ED1344801F080FE15
:103B600001200EB0BDE8F0870127CFE74FF0010834
:103B7000CCE701238DF81630C8E7049807A9FDF7B4
:103B80007FFAC3E701A904980A2207F007FB019B0B
:103B90008DF8140093B11A782E2A0FD1581C019079
:103BA0005B785BB101A90A2207F0F8FA019B8DF856
:103BB0001500002BAAD01B78002BA7D01C4801F0C1
:103BC0004FFE012005E0D9F8000003A9104AFDF7D7
:103BD000BBFC0EB0BDE8F08740460299FFF746FFF8
:103BE000B0FA80F040090EB0BDE8F08705A90020CA
:103BF000FFF708FFB0FA80F040090EB0BDE8F0878B
:103C00003846FFF7EBFE3846E3E74FF0FF30E0E7DA
:103C10008CD80008BFE4000802E5000883E400082F
:103C2000AFE3000818E40008D4E3000839E5000811
:103C3000E3E40008F8B5064691F801E00C4D91F870
:103C400000C0012404FA0EF305EB8607604699B222
:103C5000224605F826C087F801E07B80FCF7DCFEF1
:103C600015F826007988FCF7FDFE2046F8BD00BF58
:103C70008C1D002070B50546124C04EB800671883F
:103C800014F82000FCF7F6FE4FF4FA70FCF736FE4D
:103C9000FDF7A0FC718814F82500FCF7E3FE3C203A
:103CA000FCF72CFE718814F82500FCF7FBFE044697
:103CB000FDF792FC4FF49670FCF720FEB4FA84F006
:103CC000400970BD8C1D0020F8B506460C46144D09
:103CD000FDF780FC05EB8607798815F82600FCF7D0
:103CE000C9FE74B10F20FCF709FE15F8260079888B
:103CF000FCF7B8FEFDF770FCBDE8F8402D20FCF79E
:103D0000FDBD3C20FCF7FAFD15F826007988FCF78C
:103D1000A9FEFDF761FC2046BDE8F840FCF7EEBDCA
:103D20008C1D002070B50546114CFDF753FC04EBCB
:103D30008506718814F82500FCF79CFE0120FCF72D
:103D4000DDFD718814F82500FCF78CFE0920FCF7D6
:103D5000D5FD718814F82500FCF7A4FE0446FDF794
:103D60003BFC3220FCF7CAFD201C18BF012070BDAF
:103D70008C1D002070B506460825002430466408D6
:103D8000FFF7D0FF10B164F07F04E4B2013DF5D13C
:103D9000204670BD0A462DE9F04F93B000240591EE
:103DA000431E04320CA87F498DF824408DF825402D
:103DB0002646FDF7F1F9A246A046A1462746029401
:103DC000019403940494784D784C0AA80CA9FDF74B
:103DD000F1F9002833D00A9B002B73D0D3F804B03C
:103DE000A34558D0AB455CD05846714905F0B0FFAB
:103DF00000284ED058466F4905F0AAFF00284DD044
:103E000058466D4905F0A4FF002855D06B4B9B45E3
:103E100000F0B8806A4B9B4551D06A4B9B456FD0F0
:103E2000694B9B4557D0019A684B0AA89B4508BF30
:103E300001220CA90192FDF7BDF90028CBD1039B0B
:103E4000002B4BD1019B002B40F08880049B002B62
:103E50007AD1BAF1000F49D1B8F1000F40F0878054
:103E6000002F40F09380B9F1000F40F09580029B45
:103E7000002B00F08580082406F001010020FFF7E8
:103E800023FF013C4FEA5606F6D1002013B0BDE8EF
:103E9000F08F012799E74FF0010896E74FF00109ED
:103EA00093E70B9807A9FDF7EBF800288DD00123C5
:103EB0009DF81C60029388E74FF0010A85E7012313
:103EC000049382E7059B0AA91868364AFDF73CFB74
:103ED00013B0BDE8F08F0123039376E709A9002012
:103EE000FFF7A8FE002013B0BDE8F08F049C204629
:103EF000FFF718FF0146364801F0BEFC2046E7E711
:103F000008A90B980A2207F049F9089B8DF82400AC
:103F1000A3B11A782E2A11D1581C08905B786BB186
:103F200008A90A2207F03AF9089B8DF82500002B12
:103F30003FF44BAF1B78002B3FF447AF254801F00F
:103F40008FFC4FF0FF30C3E70198FFF793FE002886
:103F50009BD1214801F072FC0120B9E71F4B039C63
:103F6000187822465988FCF73DFD2046B0E75046B8
:103F7000FFF700FF0146164801F07EFC5046A7E718
:103F80000120A5E70F9B013B0F9358E740464146B0
:103F9000FFF79AFE40469BE738460121FFF794FE63
:103FA000384695E7A0DB0008ECE40008AAE3000827
:103FB00048DA00084CDA000850DA00081BE500086F
:103FC000C6E4000818E4000802E50008BFE40008A1
:103FD00028E00008E3E4000854DA00088C1D002003
:103FE00038B5084B044618680D4618B1214605F04F
:103FF000AFFE30B929462246BDE83840024801F0FC
:104000003BBC38BD901D002090DC00082DE9F04736
:10401000DCB00024431E0A1D8A4608A887498DF893
:1040200038402746A046FDF7B7F8A146844D854E97
:1040300008A904A8FDF7BEF88349044608B3049B09
:10404000002B4FD05C68AC420DD0B4420ED020465D
:1040500005F07EFE7D4B58B19C42E9D10EA8059932
:1040600005F054FFE4E74FF00108E1E70127DFE73F
:1040700006A8FCF781FE02A8FCF716FF4FF0010925
:10408000D6E79DF83830002B00F08A80B8F1000F99
:1040900001D1002F43D0002001F05EFF064678B327
:1040A00005F092FF054640B3694B6A490EA8002F00
:1040B00008BF1946FEF70EFA0746F0B1B9F1000F36
:1040C00076D131462A46FEF78DFAA8421DD03846F1
:1040D000FEF7A8FA01243046FDF712FB20465CB03B
:1040E000BDE8F087DAF8000004A9544AFDF72CFA7D
:1040F000044620465CB0BDE8F0873046FDF700FB83
:10410000012420465CB0BDE8F0873846FEF78AFA05
:104110003046FDF7F5FA20465CB0BDE8F08703A90C
:104120000EA8FEF7BFF90028EAD00EA84A49FEF70C
:10413000D1F905460028E3D02746B9F1000F14BF96
:1041400064224FF48C72284616A9FEF70FFA061E59
:1041500062DB374456D016A83146B9F1000F22D0A1
:1041600006AB2FAAFCF70EFE01462FA801F04AFB72
:104170006423B34246DC039B9F4243DA0DF1070000
:104180000021FCF7C3FD0130D7D09DF80730032B89
:10419000F4D12846FEF746FA0A2001F01DFBA8E7F5
:1041A0004FF0FF34A5E701F02DFB4FF48C73E0E7EF
:1041B00030464FF000080378002BA6D00A2B1BD006
:1041C000431C01E00A2A19D01D46191A13F8012BC5
:1041D000002AF7D1002998D016AA02ABFCF768FE96
:1041E000814638B1384616A94A46FEF7FBF94845DC
:1041F0007FF46DAF2846DEE70546002185F8008094
:104200000135E7E7B9F1000F0ED12846FEF70AFAAB
:10421000124801F007FB6CE72846FEF703FA0A2074
:1042200001F0DAFA012464E706A916A8FCF70EFEED
:10423000014616A801F0E6FAE7E700BF40DC0008F7
:10424000ECE4000854E40008A4DC0008BAE4000828
:10425000A0DC00089CDC0008D8E50008ACDC000805
:104260002DE9F04F93B0431E0A1D0F4604A83349B1
:10427000FCF792FF324D0026684604A9FCF79AFF2E
:10428000044668B1009B002B48D05B68AB42F3D179
:10429000684604A9019EFCF78DFF04460028F1D171
:1042A0008DF828002EB1304602A9FEF785F80028C7
:1042B0003ED00DF1280A51463046FEF7A9F8DFF846
:1042C0008C90DFF88CB0002559F835700DF1080896
:1042D000EFB126B13846414605F03AFDB8B99DF830
:1042E00028202F23002A14BF5246002239460DF100
:1042F0000900CBF800208DF8083005F007FE39469C
:10430000104801F0B9FA40460F49FEF7B3F90135FC
:10431000032DD9D1204613B0BDE8F08F3868694627
:10432000064AFDF711F90446204613B0BDE8F08FA8
:104330000124204613B0BDE8F08F00BFD8DC000890
:10434000C5E30008A8DC0008E13F000810230020B6
:10435000901D002008B5FCF703FA4FF47A70FDF7C2
:1043600049F9012008BD00BF2DE9F04F0E4600229B
:1043700015469FB04FF47A7304468B461192129201
:104380001392149215920F93FCF71AFB3246A9462A
:10439000AA46A8460B90631E043218A8A349A44C51
:1043A000A44EA54FFCF7F8FE0895059503950195D9
:1043B000099506950495029507950A9516A818A9DA
:1043C000FCF7F8FE002831D0169B002B00F09980F6
:1043D0005B68A34267D0B34268D0BB426BD0974AB8
:1043E00093426DD0964A93426FD0964A934271D0D1
:1043F000954A934200F09680944A93426FD0944A33
:10440000934200F08980934A934200F08980924A57
:104410009342D3D10FA91798FCF732FE012316A8B7
:1044200018A90A93FCF7C6FE0028CDD18346B8F13F
:10443000000F5DD040460A2210A906F0AFFE109A88
:10444000804622B111782E294CD0002950D1CDF8C8
:1044500030B04FF0FF34B8F1000F49DB0B9B434500
:1044600046DD0C9B002B64D1B9F1000F40F0D580E4
:10447000019B002B40F06381039B002B40F0678180
:10448000059B002B40F06E81089B002B53D00998B0
:1044900015A9FCF7F5FD00284DD1704801F0E0F9B1
:1044A0004FF0010B29E0DDF85C8087E7DDF85CA0C8
:1044B0004FF0010982E7179B0293012301937DE7E7
:1044C000179B04930123039378E7179B069301231B
:1044D000059373E7179B0993012308936EE7012364
:1044E00007936BE7501C10905278002A40F08480AC
:1044F0005B4801F0B5F94FF0010B58461FB0BDE81D
:10450000F08FDBF8000016A9484AFDF71DF8834636
:1045100058461FB0BDE8F08F4FF0FF3307934DE7CB
:1045200001254BE70B994F4801F0A6F94FF0000B1E
:10453000E3E71F2CDCD8B9F1000F6BD1019B002BF6
:1045400040F0FA80039B002B40F00981059B002B73
:1045500040F01F81089B83F001030B93012202FAB4
:1045600004F30D932B464D4699463F4F0C9B002B71
:104570007CD0002D40F0CF80019B002B40F0D680F6
:10458000039B002B40F0CD80059B002B40F0B180B9
:10459000089B002B40F0A8800B9B002B40F0AE80C6
:1045A0000A9B002BA9D00F9BFA24032B9CBF04234A
:1045B0000F93FDF70DF80646FDF70AF80F9B022151
:1045C00004FB03F3A7FB032306EB93139842CDD21E
:1045D0000DF13B00FCF79AFB0130EDD09DF83B302C
:1045E000032BE9D101F060FA002886D000200146B3
:1045F000024601F041FA80E70A2210A906F0CEFD3A
:10460000109A04461AB11278002A7FF471AF012380
:104610000C9320E700230B93A0E7504611A9FCF769
:104620002FFD00283FF439AF22E700BFF8DC000877
:1046300020E500084EE4000889E40008CCE4000806
:10464000B6E4000801E4000839E500083FE400088A
:1046500036E4000865E40008E6E300082FE50008FA
:10466000E3E4000828E00008D34D621045B1BAF138
:10467000000F00F0828011994046079AFCF7B2F9CA
:10468000019B3BB1029B002B7AD0129940464A46CF
:10469000FCF7C2F9039B33B1049B002B73D0139931
:1046A0004046FCF7DFF9059B33B1069B002B6DD02C
:1046B00014994046FCF7DEF9089B33B1099B002BA7
:1046C00058D015994046FCF7DDF90B9B002B3FF4C1
:1046D00067AF4FF0FF314046FCF7E4F901F0E2F834
:1046E0002D4801F09FF85BE740460D99FCF7CAF9A9
:1046F00052E740460D99FCF7BDF949E740460D9950
:10470000FCF7D0F9254A264B002814BF104618465E
:1047100001F088F844E740460D99079AFCF762F9E2
:104720002AE740460D99FCF79DF92DE740460D9983
:104730004A46FCF771F923E7CDF82C900EE7029872
:1047400012A9FCF79DFC00283FF4A7AE94E604985C
:1047500013A9FCF795FC00283FF49FAE90E6019B5F
:104760000B93FBE6069814A9FCF78AFC00283FF49B
:1047700094AE89E64FF0FF31A4E74FF0FF317BE7BD
:104780004FF0FF3182E74FF0FF3189E74FF0FF3103
:104790008FE7039B0B93E1E6ACDC0008B8DD000873
:1047A000BCDD00082DE9F04F8BB006468B46FBF7C9
:1047B000B9FF4FF0FF34331905460BF1040204A88A
:1047C000594901942746A146FCF7E6FC574EDFF80D
:1047D0007881DFF878A102A804A9FCF7EBFC044675
:1047E000D0B1029B002B43D05B68B34232D043452B
:1047F00033D0534534D04E4A934234D04D4A93423D
:1048000041D04D4A02A804A99A4208BF0127FCF7EB
:10481000D1FC04460028E4D1012F3DD001980028A6
:104820007BDB854279DDB9F1000F6DD0B9F1010F65
:1048300070D0B9F1020F6AD0FBF788FF3F4A404BB6
:10484000002814BF1046184600F0F8FF20460BB0B1
:10485000BDE8F08F4FF00009BDE74FF00109BAE75E
:104860004FF00209B7E7039801A9FCF709FCB2E78A
:10487000DBF8000002A92C4AFCF766FE044620463D
:104880000BB0BDE8F08F294600242E4800F0F4FF5D
:1048900020460BB0BDE8F08F002D019006DDFBF740
:1048A00043FF0198013085420190F8DC002637462D
:1048B0000DF103003E21FCF729FA013003D09DF8E9
:1048C0000330032B11D0002D019708DD00204EB1DD
:1048D000FBF72AFF0198013085420190F7DC86F052
:1048E0000106E5E7FBF726FFF4E70020854201908B
:1048F000C5DDFBF71FFF0198013085420190F8DC10
:1049000020460BB0BDE8F08FFBF714FFB7E7FBF7CD
:1049100017FFB4E7FBF708FFB1E7054800F0A0FF79
:104920004FF0FF34ABE700BFB4DE0008B6E4000888
:10493000A8E4000839E500085BE40008C0DD0008D1
:1049400074DB000828E00008CCE4000801E400085B
:104950002DE9F04FCBB0431E0A1D4FF0FF35002468
:104960008B4604A8574900950195A246FCF714FC14
:10497000A146554E554FDFF8708102A804A9FCF7F7
:1049800019FC0546B8B1029B002B73D05B68B3429B
:1049900050D0BB4253D0434546D04D4A934246D0B7
:1049A0004C4A02A804A99A4208BF0124FCF702FC61
:1049B00005460028E7D1002C46D009AC2346024624
:1049C00049AE43F8042FB342FBD14FF00009C8466B
:1049D0004FF480370DF1280A09E008F1010841463B
:1049E0003B46B94400F048FFB8F13F0F0CDC3846B5
:1049F000FCF782FE024638484AF82820002AECD10B
:104A000007EBD7777F10EFD14A463448344900F09E
:104A100033FF54F8040F08B1FCF772FEA642F8D138
:104A200028464BB0BDE8F08F4FF00109A5E74FF0E5
:104A3000010AA2E703986946FCF722FB9DE7039869
:104A400001A9FCF71DFB98E7B9F1000F1DD0BAF1E1
:104A5000000F2FD10198431C012B25D9FCF74CFEE8
:104A6000034620481946009300F006FF28464BB045
:104A7000BDE8F08FDBF8000002A9124AFCF764FDE4
:104A8000054628464BB0BDE8F08FBAF1000FC7D0FD
:104A9000009B5A1C03D01846FCF732FEC0E70A48B8
:104AA0001D4600F0DDFEBBE7084800F0D9FE4FF0E0
:104AB000FF35B5E7DBF800000249FCF767FC4FF073
:104AC000FF35ADE79CE10008B6E30008BEE300084F
:104AD00090E400085BE4000814E0000824E000080B
:104AE000DDE400082CE00008EBE30008F0B58DB031
:104AF000431E0A1D0F4606A81A49FCF74DFB002568
:104B0000194E05E0049B1BB35B68B34208BF012547
:104B100004A806A9FCF74EFB04460028F2D102A81F
:104B200003A96DB101F0C4FA70B1039B029A00931E
:104B30000E490F4B0F4800F09FFE20460DB0F0BD10
:104B400001F062FA0028F0D1012420460DB0F0BD3A
:104B5000386804A9034AFCF7F7FC044620460DB068
:104B6000F0BD00BF24DF000812E40008B6E300082F
:104B7000BEE3000834E000082DE9F04F4FF00008D4
:104B8000C246C14693B04FF0FF361025431E0A1DA2
:104B9000079608958B460CA80124AF49AF4DB04E3F
:104BA000B04F0994CDF80480FCF7F6FACDF80880F0
:104BB0000AA80CA9FCF7FEFA08B30A9B002B61D0E7
:104BC0005B68AB4243D0B34249D0BB424CD0A64A0B
:104BD000934239D0A54A93423ED0A54A934248D049
:104BE000A44A93424AD00199A34A0AA89A4208BF0C
:104BF000012101910CA9FCF7DDFA0028DDD1079B0A
:104C000004465A1CCDF80CA000F0E181099B5A1E05
:104C1000012A02D9042B40F0B081B9F1000F3CD138
:104C2000029A12B1012B00F0CC80019A12B1042B30
:104C300000F09581BAF1000F00F0968100230193F6
:104C40000293012305932DE04FF00109B0E70B9883
:104C500007A9FCF715FAABE701230293A8E70B9825
:104C600008A9FCF70DFAA3E70B9809A9FCF708FAC5
:104C70009EE74FF000084FF0010A99E74FF0010856
:104C8000C24695E7DBF800000AA9734AFCF75CFC12
:104C90000446204613B0BDE8F08F0023019305932E
:104CA000039302934E464FF0000B0494089B9B45E0
:104CB00018DAE6B1099B079F012B20D0022B00F0E8
:104CC0008480042B00F0EE806C4800F0ABFD0DF109
:104CD0001B000021FCF71AF80130E7D09DF81B30CB
:104CE000032BF4D1049C204613B0BDE8F08F644838
:104CF000079900F0C1FD099B079F012BDED15D469E
:104D00003B46DFF890A1DFF8909100241978002E3F
:104D100014BF5046484600F0AFFD079B089A013586
:104D200001339542079380F2FD800134102CEDD1C0
:104D3000029B1BB9039B0BBBAB46C5E7514800F078
:104D400071FD514CB946C7EB0B0B103719F8012B0D
:104D500023682E2013445B7813F0970F18BF10467A
:104D600000F03AFD089B0BEB09029A4201DAB945C3
:104D7000ECD17C20AB4600F02FFDA5E74148B946B9
:104D8000C7EB0B0B00F04EFD1037444610E099F8CE
:104D9000001000F071FD09F10109089A09EB0B03FD
:104DA0009A424FF0200050DDB9454ED000F014FD7E
:104DB0003648002CEBD199F90010354800F05CFD25
:104DC000E9E70593CDF804906CE75D463B46DFF8D4
:104DD000CCA0DFF8CC9000241988002E14BF5046D8
:104DE000484600F049FD079B089A02350233954278
:104DF000079380F2C8800134082CEDD1039B002B6F
:104E00009AD044461F48B94600F00CFDC7EB0B0B87
:104E10001E4810379CB1B9F8001000F02DFD09F1C3
:104E20000209089B09EB0B029A424FF020000CDAB2
:104E30004F450AD000F0D0FC1448002CEBD1B9F952
:104E40000010134800F018FDE9E77C20A046AB46AF
:104E500000F0C2FC38E700BF84DF0008B6E30008BA
:104E6000BEE30008E0E300080CE50008F2E30008F8
:104E70004AE4000807E5000812E400085CE50008C1
:104E800078E0000884E000083804002088E000088A
:104E90008CE0000848E0000850E0000858E00008F6
:104EA00060E000085D463B464FF0000919684A483B
:104EB0004A4B0435002E08BF184600F0DDFC079B66
:104EC000089A04339542079370DA09F10109B9F1A0
:104ED000040FEBD1019B1BB9039B002B3FF42CAFBC
:104EE0003F4800F09FFC019CB946C7EB0B0B103705
:104EF0005CBB3C48B8F1000F00D13B48D9F800102A
:104F000000F0BAFC09F10409089B09EB0B029A4274
:104F10004FF02000BFF62DAF4F453FF42AAF00F011
:104F20005BFCE5E7059B002B3FF402AF04F10109B0
:104F3000B9F1100F3FF4FCAE09F101092B4800F064
:104F400071FCB9F1100FF7D1F2E6D9F8000003F0C7
:104F500043FB02460B46264800F08EFCD2E70123B5
:104F60000593002302939DE6CDF80CA0CDF814A084
:104F7000CDF804A0CDF808A094E61E4800F070FC1F
:104F80004FF0FF3485E6059B002B3FF437AF04F16B
:104F90000109B9F1080F3FF431AF09F101091648D1
:104FA00000F040FCB9F1080FF7D127E7059B002B73
:104FB00090D009F10109B9F1040F8BD009F1010971
:104FC0000E4800F02FFCB9F1040FF7D182E70C482E
:104FD0001C4600F045FC5CE668E0000870E0000854
:104FE00084E0000888E000088CE0000880E0000809
:104FF0009CE00008E0E3000894E0000890E000086E
:10500000B6E300082DE9F0418CB00A1D431E4FF0B5
:10501000FF37012605460C4606A83E490197029631
:10502000FCF7BAF83C4E3D4FDFF8F88004A806A91B
:10503000FCF7C0F860B1049B002B4CD05B68B34216
:1050400031D0BB4234D04345F0D1099B013B099399
:10505000019E731C59D0029B5A1E012A01D9042BB0
:105060004DD1099B01339D42099318DD54F823006B
:1050700003A9FCF705F8002835D0029B022B23D0AA
:10508000042B1AD0012BECD1019B039A1A70019BBF
:1050900001330193099B01339D420993E6DC002013
:1050A0000CB0BDE8F081059801A9FBF7E9FFBDE769
:1050B000059802A9FBF7E4FFB8E7019B039A1A6081
:1050C000019B04330193CCE7019B039A1A80019B57
:1050D00002330193C5E7206804A90E4AFCF734FAAD
:1050E0000CB0BDE8F0810E4800F09CFB099B54F821
:1050F000230000F0A3FB01200CB0BDE8F0810748BD
:1051000000F0AEFB4FF0FF30EAE7034800F0A8FBE9
:105110003046E5E744DF0008B6E30008E0E30008B6
:1051200000DA00081BE500082DE9F0418CB04FF0D3
:10513000FF34431E0A1D0125884606A859490094DC
:10514000019402940395FCF727F8574D574E584F9A
:10515000002404A806A9FCF72DF8B0B1049B002B8D
:105160007ED05B68AB423FD0B34242D0BB4245D019
:10517000504A934247D0504A04A806A99A4208BF11
:105180000124FCF717F80028E8D1009D6E1C00F000
:105190008480039B5A1E012A01D9042B6DD1029DE4
:1051A000691C70D0019D6A1C72D0002DC8BF0022FE
:1051B00007DC16E0042B35D0012B29D01A44954288
:1051C0000FDD022BF6D1002C35D00099BDF9086017
:1051D000B1F90070B7424CD11A44023195420091A6
:1051E000EFDC0CB0BDE8F08105986946FBF748FF9D
:1051F000AFE7059802A9FBF743FFAAE7059801A9C5
:10520000FBF73EFFA5E7059803A9FBF739FFA0E7E9
:10521000C4B100999DF808600F78B7422BD10131D5
:105220000091CBE7ACB10099029E0F68B74220D144
:1052300004310091C2E7009B029919800099039BF9
:10524000019DC9E7009B029919700099039B019D7C
:10525000E5E7009B029919600099039B019DE7E730
:10526000D8F8000004A90F4AFCF76EF90CB0BDE8AD
:10527000F0810120B5E71846B3E70E4800F0F0FAD8
:105280004FF0FF30ADE7094800F0EAFA2846A8E7FA
:10529000074800F0E5FA2846A3E7034800F0E0FAE3
:1052A00028469EE7FCE10008B6E30008AEE40008EB
:1052B000BEE30008E0E300085BE4000810B50F4817
:1052C00090B000F0AFFA2C2000F086FA0C4800F005
:1052D000B5FA10AC002304F8403D2046FBF752FA23
:1052E00010B19DF8003013B9002010B010BD204659
:1052F00000F0A4FA002010B010BD00BF5CE200086E
:1053000064E2000808B5FBF7E9F9002008BD00BF1A
:10531000036801330360FBE730B58DB00D46431ED3
:105320000A1D06A80F49FBF737FF01E0009B7BB180
:10533000684606A9FBF73EFF04460028F6D1012186
:1053400002A8FBF791FE00F079FA20460DB030BDBF
:1053500028686946034AFCF7F7F8044620460DB072
:1053600030BD00BF68E200082DE9F04F91B0431E48
:105370000A1D0F460AA88149FBF70EFF804D002643
:1053800008A80AA9FBF716FF60B1089B002B7DD087
:105390005B68AB42F4D108A80AA9099EFBF70AFF93
:1053A0000028F2D10446002E70D03046754904F032
:1053B000CFFC002874D03046734904F0C9FC0028A3
:1053C0006ED03046714904F0C3FC00286ED03046E0
:1053D0006F4904F0BDFC002868D030466D4904F0E8
:1053E000B7FC002868D030466B4904F0B1FC0028B7
:1053F00062D03046694904F0ABFC00285FD03046EB
:10540000674904F0A5FC002859D03046654904F0EE
:105410009FFC28B13046644904F09AFC002835D13D
:10542000624B63485A689D680292DA68196805926F
:105430005A6AD3F81090D3F814809F69DE69D3F8C4
:1054400030B0D3F834A0049203951D6A00F014FA2A
:105450000299584800F010FA0399059A564800F04E
:105460000BFA59465246554800F006FA494642465C
:10547000534800F001FA39463246524800F0FCF930
:105480002946049A504800F0F7F905E0386808A961
:105490003A4AFCF759F80446204611B0BDE8F08FAF
:1054A000FCF752F9204611B0BDE8F08FFCF786F901
:1054B000204611B0BDE8F08FFCF7ACF9ECE7002313
:1054C0001846062110AD45F8243DFCF7CBF8FBF754
:1054D000FDFA062300932A463C483D494FF4807369
:1054E000FCF794F80646002843D0079DFBF7EEFA38
:1054F00006E0FBF7EBFA9DF81B50032D31D0079D1A
:105500000DF11B007D21FBF701FC0130F1D1FBF710
:10551000DDFA079B30465B1B00215F00FCF7A2F819
:1055200000200321FCF79EF8079D4FF064080DF161
:105530001B00FA21FBF7EAFB013007D09DF81B3076
:10554000032BF4D13046FCF78BF8A5E7079B2148E5
:10555000591B08FB01F1B1FBF7F11D4600F08CF976
:10556000E5E73046FCF77CF829460020FCF77AF89E
:1055700092E70321FCF776F801248DE778E2000832
:105580001CE4000868DB000898E20008A0E20008BC
:10559000A4E20008E0D10008ACE20008B4E2000890
:1055A000B8E20008ECD30008D4E20008642300202D
:1055B000D8E20008E4E20008F0E2000800E3000896
:1055C00010E3000820E3000830E30008C0E2000810
:1055D00011530008CCE20008F0B500230B700378EB
:1055E00005463BB1202B01D0092B71D115F8013FA5
:1055F000002BF7D1002423460020064604B342F8CE
:1056000020500C780134E0B20870DBB92B784BB92C
:1056100030E0092B08D0272B2DD0222B2BD015F8CA
:10562000013F3BB3202BF4D12E70681C03783BB1B3
:10563000202B01D0092B0ED110F8013F002BF7D100
:105640000878F0BD2C781CB914E015F8014F8CB126
:10565000A342FAD1E8E7272B054607D0222B05D035
:1056600008780023132805D82C78C7E7451C08784C
:105670001328F9D9F0BD00F18044013C52F824E030
:10568000681CAE4502EB840438BF2F460DD217F8D4
:10569000014C07F801490C7804F18044013C52F8B0
:1056A00024E002EB8404BE45F1D30EF1010727602C
:1056B0006C78002CC4D0A34202D106E09C4204D0F6
:1056C00010F8014F002CF9D1BAE706700130ADE7B0
:1056D000272B284602D1447801358DE7222BFAD0BA
:1056E0002C78002388E700BF012820DD10B4144C7B
:1056F000234613F8D92F04F25914194601E019462C
:105700001A780133002AFAD14A7842B1A3420AD268
:1057100001380128F1D118465DF8044B7047104656
:105720005DF8044B704700205DF8044B7047044B54
:1057300013F8D92F002A14BF18460020704700BF65
:10574000941D00202DE9F041134B583053F82040B0
:10575000F4B1E9B191F80080B8F1000F18D0084613
:105760000E4604F031FC6168074689B1002507E068
:10577000304604F0EDFA40B114346168013539B1B6
:10578000012FF5D163784345F6D12846BDE8F08175
:105790004FF0FF30BDE8F081941D002070B50D4C36
:1057A0000646D4F8703153B11D786DB9D4F8740140
:1057B000C4F8705118B1FBF7A3FFC4F87451304618
:1057C000BDE87040FBF790BA5A1CC4F870211878F5
:1057D000307070BD941D002000B5094B83B0D3F824
:1057E0007C318DF807001BB10DF1070001219847AE
:1057F0009DF80700FBF7B2FA03B05DF804FB00BFA9
:10580000941D002038B5064B0546D3F87C310C4674
:1058100003B1984728462146BDE83840FBF786BAD1
:10582000941D002048B110B5044604F0CDFB01469C
:105830002046BDE81040FFF7E5BF704768B110B5DE
:10584000044604F0C1FB01462046FFF7DBFFBDE83C
:10585000104002480221FFF7D5BF70475CE5000801
:1058600038B108B5FFF7DEFFBDE808400148FFF793
:10587000E5BF704764E300080FB410B5C2B044AB95
:1058800053F8041B02A81A460193FCF7D5FC044602
:1058900002A82146FFF7B6FF204642B0BDE81040FF
:1058A00004B0704701460148FFF7E6BF70E3000807
:1058B000094A08B5002352F8041F31B10133042B03
:1058C000F9D1FCF7DFFC002008BD044A583342F848
:1058D0002300012008BD00BFF01E0020941D002001
:1058E000074AD2F85C3103B118471368002B04DB78
:1058F00001D004487047044870470448704700BF0F
:10590000941D002078E3000880E300087CE3000891
:1059100038B50546002420462946FFF713FF431CEF
:1059200004D10134042CF6D1002038BD044B583486
:1059300053F8243000EB800003EB8000806838BD12
:10594000941D002038B50546002420462946FFF75F
:10595000F9FE431C04D10134042CF6D1002038BDDB
:10596000044B583453F8243000EB800003EB8000E4
:10597000407838BD941D00202DE9F84F0746894630
:10598000304E56F804BFD846BBF1000F3ED0DBF8CE
:1059900004500024002D36D077B197F800A0BAF15A
:1059A000000F09D0384604F00FFB0128294638467D
:1059B00038D904F0CDF9F8B9B9F1000F03D198F84E
:1059C0000030012B18D02846FFF72CFF3368234402
:1059D0005B78F3B91C48FFF725FF33682344D86888
:1059E000FFF72CFF1848FFF71DFF336823441869A1
:1059F000FFF724FFD6F800B014340BEB0408D8F8F6
:105A00000450002DC8D1114B9E42BAD10020BDE8F0
:105A1000F88F2F20FFF7E0FE336823445878FFF714
:105A2000DBFED7E704F094F90028E5D198F80120CF
:105A30005245C1D014340BEB0408D8F80450002DA3
:105A4000AAD1E0E7F01E002064CF0008001F00206C
:105A500070B506460D46074C002120464FF4C07233
:105A6000FAF78EFBC4F86061C4F87051BDE870406D
:105A7000FBF736B9941D0020F8B50546094C0F46D2
:105A8000D4F874011646C4F8705108B1FBF738FE1B
:105A9000002F08BF002584F87861C4F874510120F4
:105AA000F8BD00BF941D0020034BD3F870010030F7
:105AB00018BF0120704700BF941D00202DE9F0435E
:105AC000CE4C002383B0064684F8553084F8563017
:105AD000002900F0CF800846FFF7A4FEC74D2F46EF
