:020000040800F2
:1000000000C00020CD010008B1100008B5100008A4
:10001000B9100008BD100008C11000080000000061
:10002000000000000000000000000000519F0008D8
:10003000C510000800000000E19F000825A000088E
:100040002D0200082D0200082D0200082D020008D4
:100050002D0200082D0200082D0200082D020008C4
:100060002D0200082D0200082D0200082D020008B4
:100070002D0200082D0200082D0200082D020008A4
:100080002D0200082D0200082D0200082D02000894
:100090002D0200082D0200082D0200082D02000884
:1000A0002D0200082D0200082D0200082D02000874
:1000B0002D0200082D0200082D0200082D02000864
:1000C0002D0200082D0200082D0200082D02000854
:1000D0002D020008E51700082D0200082D02000877
:1000E0002D0200082D0200082D020008000000006B
:1000F0000000000000000000000000000000000000
:0C01000000000000000000005FF808F1A3
:10010C003C6D637573683E003230313931303230BA
:08011C002D3132333330340081
:020124000000D9
:080128003CE9000001000000A9
:1001300070B4840746D0541E002A41D0CDB2034685
:1001400002E0621EE4B3144603F8015B9A07F8D19B
:10015000032C2ED9CDB245EA05250F2C45EA0545DD
:1001600019D9264603F11002103E0F2E42F8105CFA
:1001700042F80C5C42F8085C42F8045C02F11002A0
:10018000F2D8A4F1100222F00F0204F00F04103292
:10019000032C13440DD91E462246043A032A46F87E
:1001A000045BFAD8221F22F003020432134404F045
:1001B00003042CB1C9B21C4403F8011BA342FBD1B8
:1001C00070BC704714460346C2E700BF002103E03D
:1001D0000F4B5B58435004310E480F4B42189A4264
:1001E000F6D30E4A02E0002342F8043B0C4B9A423D
:1001F000F9D30C4A03E05FF0A53342F8043B0A4B05
:100200009A42F8D300F014F809F0C8FF70470000D4
:100210000010010800000020980800209808002025
:10022000E40C002000BC002000C00020FEE700001D
:1002300030B43C4B3C49186882B040F00100186073
:100240005D6800202940596019684FF41F0421F0AF
:10025000847121F48031196019681A4621F48021D3
:100260001960596821F4FE0159609C60009001906A
:10027000196841F48031196003E0009BB3F5A06F69
:1002800009D0136803F400330193009B01330093FA
:10029000019B002BF1D0234B1B6813F4003318BFD4
:1002A00001230193019B012B06D0204B4FF00062EC
:1002B0009A6002B030BC70471D4A1A4B106819464C
:1002C00040F010001060106820F00300106010680B
:1002D00040F0020010605A685A605A685A605A68C2
:1002E00042F480625A605A6822F47C125A605A685A
:1002F00042F4E8125A601A6842F080721A600B6881
:10030000084A9B01FBD51146536823F00303536051
:10031000536843F0020353604B6803F00C03082B4F
:10032000FAD1C2E7001002400000FFF800ED00E043
:100330000020024040F0BF60024B40F40030D86023
:10034000704700BF00ED00E0C3785BB9037801217E
:100350005A09174803F01F03203201FA03F340F84B
:100360002230704730B4134A4378D2688178D24340
:100370000F24C2F30222D440C2F1040503FA05F2AD
:1003800004EA0103017813431B0101F16042DBB26F
:1003900002F5614282F800330378012203F01F0066
:1003A00003495B09824041F8232030BC704700BFFD
:1003B00000E100E000ED00E008B5174B984212D0D4
:1003C000164B98421BD0164B984200D008BD4FF4F4
:1003D0000040012100F0BAFBBDE808404FF40040A6
:1003E000002100F0B3BB4FF40070012100F0AEFB20
:1003F000BDE808404FF40070002100F0A7BB4FF4A7
:100400008060012100F0A2FBBDE808404FF480604D
:10041000002100F09BBB00BF0024014000280140E8
:10042000003C014042680B6822F4702230B422F490
:1004300080720C79134343EA0423436085688C6817
:10044000CA68094B22432B404C79134343EA4403C7
:1004500083600A7CC36A013AD2B223F4700343EA90
:100460000253C36230BC7047FDF7F1FF836819B9CE
:1004700023F001038360704743F0010383607047FA
:10048000836819B923F480738360704743F48073E1
:1004900083607047836843F008038360704700BF40
:1004A0008068C0F3C0007047836843F00403836032
:1004B000704700BF8068C0F380007047836819B937
:1004C00023F4A0038360704743F4A0038360704764
:1004D000092970B41CD9A1F10A0404EB4404C568CD
:1004E0000726A640A34025EA06042343062AC36044
:1004F0001AD90C2A25D90D3AC46A02EB82021F23AD
:10050000934024EA030391401943C16270BC7047D1
:1005100001EB410605690724B440B34025EA040411
:100520002343062A0361E4D8013A446B02EB8202BA
:100530001F23934024EA030391401943416370BC95
:100540007047073A046B02EB82021F23934024EAB0
:10055000030391401943016370BC70474FF6FE726C
:1005600003683A491A4088424FF000030260036072
:1005700043608360C36027D0354B98422AD0354B07
:1005800098422DD0344B984230D0344B984239D0D9
:10059000334B98423CD0334B98420FD0324B984269
:1005A0003CD0324B98423FD0314B984242D0314BF5
:1005B000984245D0304B98421ED070472F4A53681E
:1005C00043F07063536070472C4A536843F00F0345
:1005D00053607047294A536843F0F00353607047F3
:1005E000264A536843F4706353607047234A536844
:1005F00043F4704353607047214A536843F47023B7
:100600005360DAE71D4A536843F470235360704720
:100610001A4A536843F4700353607047184A53688A
:1006200043F00F0353607047154A536843F0F003DB
:1006300053607047124A536843F4706353607047C5
:100640000F4A536843F470435360704708000240F8
:100650001C000240300002404400024058000240AA
:100660006C00024080000240080402401C0402406A
:10067000300402404404024058040240000002409A
:10068000000402408A6830B40D6A0B692A434D6940
:1006900013438A691D43CB6945EA02044D6A026827
:1006A00023438C6A1D4322F4FF432C4323F0700341
:1006B00023430360CB6830BC43600B6883604B68A6
:1006C000C360704729B94FF6FE7302681340036098
:1006D0007047036843F001030360704770B4CD783E
:1006E000EB0648BF8B7805F00F0448BF1C430B880E
:1006F00013F0FF0F30D013F00106026840F03C8188
:1007000003F00205ADB2002D40F01C8103F004059A
:10071000ADB2002D40F0238103F00805ADB2002DED
:1007200040F0DC8003F01005ADB2002D40F0E38016
:1007300003F02005ADB2002D40F0EA8003F0400543
:10074000ADB2002D40F0F18003F080039BB2002B8E
:1007500040F01E8102600B88FF2B29D903F48075BD
:10076000ADB24268002D32D103F40075ADB2002D58
:1007700040D103F48065ADB2002D4ED103F4006585
:10078000ADB2002D5CD103F48055ADB2002D6AD11D
:1007900003F40055ADB2002D78D103F48045ADB21D
:1007A000002D40F0878003F400439BB213B94260F0
:1007B00070BC7047CD7864F31F72282D04BF43616D
:1007C000CD78482D04BF4FF400430361EFE7CB78A9
:1007D00022F00F02282B42EA040200F0F480482B9A
:1007E00004BF4FF4807303610B8803F40075ADB24E
:1007F000002DBED0CB7822F0F002282B42EA041262
:1008000000F0DE80482B04BF4FF4007303610B88B7
:1008100003F48065ADB2002DB0D0CB7822F47062C5
:10082000282B42EA042200F0C880482B04BF4FF472
:10083000806303610B8803F40065ADB2002DA2D084
:10084000CB7822F47042282B42EA043200F0B280C6
:10085000482B04BF4FF4006303610B8803F48055F9
:10086000ADB2002D94D0CB7822F47022282B42EA2E
:10087000044200F09C80482B04BF4FF48053036176
:100880000B8803F40055ADB2002D86D0CB7822F44E
:100890007002282B42EA045200F08680482B04BFE5
:1008A0004FF4005303610B8803F48045ADB2002D73
:1008B0003FF479AFCB7822F07062282B42EA0462D1
:1008C0006FD0482B04BF4FF4804303610B8803F4BF
:1008D00000439BB2002B3FF46AAF6BE7CE7822F463
:1008E0007042282E42EA043270D0482E7FF41AAFAC
:1008F00005610B8816E7CE7822F47022282E42EA92
:1009000004426BD0482E7FF413AF05610B880FE7CC
:10091000CE7822F47002282E42EA04525BD0482E90
:100920007FF40CAF05610B8808E7CE7822F0706287
:10093000282E42EA04625DD0482E7FF405AF05619F
:100940000B8801E7CE7822F0F002282E42EA04124A
:100950004DD0482E7FF4DAAE05610B88D6E6CE780E
:1009600022F47062282E42EA04223DD0482E7FF401
:10097000D3AE05610B88CFE622F00F02282D42EAA4
:1009800004022ED0482D7FF4BBAE06610B88B7E67B
:10099000CD7864F31F72282D1BD0482D08BF03614A
:1009A000D8E64561CB788CE74561CB7876E7456141
:1009B000CB7860E74561CB784AE74561CB7834E78F
:1009C0004561CB781EE74561CB7808E745610B8828
:1009D000A8E64361BEE645610B88AFE645610B883A
:1009E000A6E646610B888BE645610B8894E6456177
:1009F0000B888BE645610B88A6E600BF4FF6FF71BA
:100A00000222042301808270C3707047806880B224
:100A1000704700BF0161704741617047C160704716
:100A2000014B1860704700BF00300040014B586018
:100A3000704700BF00300040014B9860704700BF16
:100A4000003000404AF6AA22014B1A60704700BFEE
:100A500000300040034A536823F440431843506079
:100A6000704700BF0010024030B4214A536803F0C1
:100A70000C03042B06D0082B25D01BB11D4A1346AE
:100A8000026001E01B4B0360194A1B4C51681B4D6F
:100A9000C1F30311615CCB4043605168C1F3022193
:100AA000615C23FA01F181605168C1F3C221615C8C
:100AB000CB40C3605268C2F38132AA5C30BCB3FB46
:100AC000F2F30361704753685168C3F38343C9036A
:100AD00003F1020307D55268920304D4054A02FBCE
:100AE00003F30360D0E7064A02FB03F30360CBE79E
:100AF0000010024000127A0034040020300400206C
:100B000000093D00044A536919B923EA0000506105
:100B1000704718435061704700100240044A9369BF
:100B200019B923EA0000906170471843906170473B
:100B300000100240044AD36919B923EA0000D061C9
:100B400070471843D061704700100240044AD368D0
:100B500019B923EA0000D06070471843D06070478D
:100B600000100240274A038890429BB212D002F53F
:100B7000006290420ED0B0F1804F0BD0A2F59832B7
:100B8000904207D002F58062904203D002F5806265
:100B9000904203D14A8823F0700313431A4A9042CB
:100BA00027D002F58062904223D0CA8823F4407394
:100BB0009BB2134303808A88124B82850A8898422D
:100BC000028511D0114B98420ED003F54063984234
:100BD0000AD003F58063984206D003F580639842FB
:100BE00002D00123838270470B7A0386012383821C
:100BF000704703808B8883850B880385012383825C
:100C0000704700BF002C014000100040003401403C
:100C1000038CF0B423F001031B041B0C0384048C2D
:100C20008788028B4E8824F002040B891B4D240414
:100C300022F07302240C334312040E882343120C57
:100C4000A8429BB2BCB242EA060216D005F5006586
:100C5000A84212D005F54065A8420ED005F5806582
:100C6000A8420AD005F58065A84206D08480028398
:100C7000CA88F0BC8286038470474E89CF898D89EB
:100C800023F00803334324F440748E883D4323F05B
:100C900004032C433343A4B2E8E700BF002C014017
:100CA000038CF0B523F010031B041B0C0384038C8E
:100CB0008588028B23F020031B04B1F808E022F49E
:100CC000E6420C88184E1B0C4F88120443EA0E13A0
:100CD000120C43EA071342EA0422B0429BB2ADB2BF
:100CE00094B208D0114A904205D085800483CA8806
:100CF00002870384F0BD4FF6BF7623F080024B8954
:100D000092B2B1F80CE042EA031225F440658B88F8
:100D1000CF89164045EA8E0546EA031345EA870562
:100D20009BB2ADB2E1E700BF002C014000340140AE
:100D3000038CF0B523F480731B041B0C0384038C19
:100D4000848823F40073828B0D891B04194E1B0CBD
:100D50004F8822F0730243EA052312040D8843EA08
:100D60000723120CB0429BB2A4B245EA020509D097
:100D700006F50066B04205D084808583CA888287E4
:100D80000384F0BD4FF6FF3623F400624B8992B224
:100D9000B1F80CE042EA032224F440548B88CF8956
:100DA000164044EA0E1446EA032344EA07149BB2B1
:100DB000A4B2E1E7002C0140038CF0B523F480538A
:100DC0001B041B0C0384028C8488838B22F4005246
:100DD0001204B1F808E023F4E643114D120C4F88D9
:100DE0001B040E8842EA0E321B0C42EA073243EA29
:100DF0000623A84292B2A4B29BB20AD005F50065C0
:100E0000A84206D084808383CB88A0F84030028437
:100E1000F0BD8D8924F4804444EA8514A4B2F1E73E
:100E2000002C0140038829B923F001031B041B0C8B
:100E3000038070479BB243F001030380704700BFFB
:100E400001858282704700BF818470478185704729
:100E5000818670470187704781877047A0F84010EE
:100E6000704700BF70B504460D46038ACA889BB21E
:100E700023F440531343038282898B88088992B2FA
:100E80004989034322F4B0520B4322F00C0213436E
:100E90009BB2A381A38AAA899BB223F4407386B034
:100EA0001343A38201A8FFF7DFFD1B48039B0499AE
:100EB000A289844208BF0B4612B2002A2A6803EBBB
:100EC0008303B4BF5200920003EB8303B3FBF2F33E
:100ED000124EA589A6FB03202DB240096422002DE5
:100EE00000FB12334FEA00100ADB1A013232A6FB74
:100EF0000223C3F3431303439BB2238106B070BDA7
:100F0000D9003231A6FB0131C1F3421242EA00039B
:100F10009BB2238106B070BD003801401F85EB51A4
:100F2000838929B923F400531B041B0C8381704768
:100F30009BB243F400538381704700BF10B401F0AB
:100F40001F04C1F342110123012903FA04F311D054
:100F500002290CBF1030143032B9026822EA0303B0
:100F600003605DF8044B70470268134303605DF84B
:100F7000044B70470C30EFE7C1F3080181807047E4
:100F80008088C0F308007047C94389B20180704768
:100F9000C1F3421210B4012301F01F04012A03FA25
:100FA00004F316D0022A0CBF028A828A92B213403E
:100FB000028892B24BB1090A01238B40134214BF3D
:100FC000012000205DF8044B704718465DF8044B83
:100FD0007047828992B21340EAE700BF090A0123F1
:100FE0008B40DB439BB20380704700BF704700BF5C
:100FF000704700BF08B500F055FB00F053F900F052
:10100000B7F900F00BF8FFF7F3FF4FF4165000F0BC
:1010100059FB003018BF012008BD00BF08B50020F3
:101020004FF4807100F0FCF9BDE8084000204FF457
:10103000807100F045BA00BF0120704700204FF4D6
:10104000807100F045BA00BF00204FF4807100F0BD
:1010500037BA00BF00204FF4807100F041BA00BFE2
:1010600008B54FF48071002000F04CFAB0FA80F01F
:10107000400908BDBFF34F8F0549064BCA6802F40B
:10108000E0621343CB60BFF34F8F00BFFDE700BFAB
:1010900000ED00E00400FA0508B501460C2201232A
:1010A000024800F079FE012008BD00BFE8F7FF1FED
:1010B000FEE700BFFEE700BFFEE700BFFEE700BFA0
:1010C000FEE700BFFEE700BF2DE9F04393B001A8A3
:1010D0004B4CFFF793FC4B4D0023DFF83881271D65
:1010E0008DF80730012614F8013B15F8012B06FA9C
:1010F00003F358F8220001A9ADF80430FFF7EEFA27
:10110000BC424FF00109EED149464FF40070FFF7A1
:1011100005FD4FF40040FFF79DFC3B4F3B48FFF7B8
:101120004BF900254FF460220423384802A92C46CD
:10113000029505952E468DF80C908DF80D90049231
:101140008DF818303D46FFF76DF9E1B24A1C0134C5
:10115000D2B22E480223FFF7BBF9042C25F8026B0C
:10116000F3D12A480121FFF781F928480121FFF72F
:1011700087F92648FFF78EF92448FFF791F90028F0
:10118000FAD12248FFF790F92048FFF793F9044677
:101190000028F9D101200146FFF7B4FC21461C4884
:1011A000FFF790FADFF870801948FFF7D7F94FF48E
:1011B00080764FF0040C4FF0800E20224FF48053C5
:1011C00007A94FF480651248CDF828C0CDF830E06B
:1011D0000F921093089709940B941194CDF81C80EA
:1011E0000D960E95FFF74EFA09480121FFF76AFAAE
:1011F00006480121FFF762F913B0BDE8F08300BF94
:1012000084EF000888EF00089808002000240140BF
:10121000080002408CEF00084C240140F8B50D4C4A
:101220000D4D271D012615F8013B14F8010B06FA98
:1012300003F100F0A3F8BC42F5D10848FFF7BCF871
:1012400007480021FFF73EFABDE8F8400448FFF7E1
:1012500085B900BF88EF000884EF00080024014032
:10126000080002400000000008B50B4B33F81000E6
:1012700009F082FE09F040FA05A3D3E9002309F042
:101280008FFA0022054B09F08BFA09F06BFD08BDBF
:101290006666666666660A40980800200000303F71
:1012A000042070474FF44070FFF744B8431E0028F5
:1012B00044D000BF00BF00BF00BF00BF00BF00BFE1
:1012C00000BF00BF00BF00BF00BF00BF00BF00BF26
:1012D00000BF00BF00BF00BF00BF00BF00BF00BF16
:1012E00000BF00BF00BF00BF00BF00BF00BF00BF06
:1012F00000BF00BF00BF00BF00BF00BF00BF00BFF6
:1013000000BF00BF00BF00BF00BF00BF00BF00BFE5
:1013100000BF00BF00BF00BF00BF00BF00BF00BFD5
:1013200000BF00BF00BF00BF00BF00BF00BF00BFC5
:1013300000BF00BF00BF13F1FF33BAD2704700BF38
:1013400041F2707282B010F1FF300CD30192019B18
:10135000002BF8D0019B013B0193019B002BF9D19D
:1013600010F1FF30F2D202B0704700BF0720704783
:101370004FF4FE700121FFF7D1BB00BF2DE9F04112
:10138000032282B0482380460D460F4F8DF8062079
:101390008DF807300024012602E00134202C0FD004
:1013A00045FA04F3DB07F8D506FA04F357F82800EA
:1013B00001A90134ADF80430FFF790F9202CEFD1EA
:1013C00002B0BDE8F08100BF8CEF00082DE9F041CC
:1013D000002A82B014BF48222822032380460D46EB
:1013E0000E4F8DF807208DF806300024012602E00C
:1013F0000134202C0FD045FA04F3DB07F8D506FAA8
:1014000004F357F8280001A90134ADF80430FFF7C0
:1014100065F9202CEFD102B0BDE8F0818CEF000817
:101420002DE9F041032282B0102380460D460F4F74
:101430008DF806208DF807300024012602E00134E3
:10144000202C0FD045FA04F3DB07F8D506FA04F395
:1014500057F8280001A90134ADF80430FFF73EF930
:10146000202CEFD102B0BDE8F08100BF8CEF000866
:101470002DE9F041032282B0142380460D460F4F20
:101480008DF806208DF807300024012602E0013493
:10149000202C0FD045FA04F3DB07F8D506FA04F345
:1014A00057F8280001A90134ADF80430FFF716F908
:1014B000202CEFD102B0BDE8F08100BF8CEF000816
:1014C000024B89B253F82000FFF7A4BA8CEF000852
:1014D000024B89B253F82000FFF79EBA8CEF000848
:1014E00038B5074B0C4653F820502846FFF78EFAC4
:1014F00080EA040189B22846BDE83840FFF78EBA79
:101500008CEF0008044B10B553F820000C46FFF791
:101510007DFA204010BD00BF8CEF00082DE9F04F90
:101520008046012089B00F46424C01461646424D86
:10153000FFF700FBDFF818B10322182304F1040AB7
:101540008DF802208DF803304FF0010914F8013BAB
:1015500015F8012B09FA03F35BF822006946ADF890
:101560000030FFF7BBF85445F0D10025B8F1000F6B
:101570004FF0804001A9314CADF80650ADF80A504B
:10158000ADF80450ADF8085008BF4FF47A78FFF773
:10159000E9FA60220123ADF81650ADF81850ADF805
:1015A000102004F11005ADF8123054F8043B4FF050
:1015B000804004A99847AC42F7D14FF08040012108
:1015C000FFF730FC002FDCBF64273B461C4CC8BF34
:1015D000BBB24FF0804000212380FFF735FC21880B
:1015E0004FF08040013989B2FFF730FC07FB08F764
:1015F000144B4FF0804019680122B1FBF7F7791EB8
:1016000089B2FFF71DFC002EABBFB6B232273746BA
:101610003E460D4C0D4D04F1100854F8043B4FF0BC
:10162000804031469847444525F8027BF5D109B002
:10163000BDE8F08FA8EF0008CCEF0008BCEF000871
:10164000440400202C040020ACEF0008A008002077
:101650008CEF0008F8B5074C074D271D012615F83B
:10166000013B14F8010B06FA03F1FFF787FEBC42B9
:10167000F5D1F8BDCCEF0008A8EF000838B5044656
:101680000D46054B89B253F820304FF08040984703
:10169000024B23F8145038BDACEF0008A00800201E
:1016A0000420704708B545F25550FFF7B9F940F6E8
:1016B000FF70FFF7C1F9BDE808400220FFF7B6B997
:1016C000FFF7C0B970B5012186B000220546802021
:1016D00006F05CFB3D4C012120600022802006F0DA
:1016E00055FB3B4E24683060002C6CD0002868D03D
:1016F0002046384906F024FF3068374906F020FFBD
:1017000036484FF45871FFF73FFC0022334840F64B
:101710006F71FFF713FC04200121FFF7FFF94FF46D
:1017200080400121FFF7FAF94FF480644822032337
:1017300069462B48ADF800408DF803208DF8023043
:10174000FEF7CCFF18234FF40072694624488DF849
:101750000330ADF80020FEF7C1FF002D14BF2B466B
:101760004FF4165300250C221C4802A90293ADF831
:101770001220ADF80C50ADF80E50ADF81050ADF889
:101780001450FFF76FFB15480121FFF7C9FB134801
:101790004FF45871FFF7F8FB104840F22551012231
:1017A000FFF7CCFB012425220A2301A88DF806505F
:1017B0008DF804208DF805308DF80740FEF7C4FD44
:1017C000204606B070BD204606B070BD040C002057
:1017D000000C0020D0EF0008D4EF000800380140D2
:1017E0000008014010B52D4882B0002440F2277156
:1017F0000194FFF7CDFB012819D0284840F225516C
:10180000FFF7C6FB012822D0244840F22531FFF71C
:10181000BFFB012833D0019B3BB1214B4FF08052DD
:101820001A60BFF34F8FBFF36F8F02B010BD1D4B17
:101830000DF10301186801AA06F032FE012827D035
:101840002246164840F22771FFF778FBD5E7134888
:10185000FFF796FB144B02A901F8050D01AA1868C1
:10186000002306F031FC0D4840F22551FFF7B6FB8E
:101870000A4840F22531FFF78BFB0128CBD10748FE
:10188000FFF77EFB054840F22531FFF7A7FBC2E7D3
:1018900002489DF80310FFF76FFBAEE700380140E8
:1018A00004ED00E0000C0020040C00200120704733
:1018B00008B5064B0021186806F020FA044B0021F9
:1018C0001868BDE8084006F019BA00BF040C0020F3
:1018D000000C002010B5074B044601464FF0FF32C4
:1018E000186806F055FC002814BF20464FF0FF3062
:1018F00010BD00BF040C002010B5064B04460A467C
:101900000146186806F044FC002814BF20464FF03A
:10191000FF3010BD040C00202DE9F041B1F10008AA
:1019200082B022DD0546144E00EB080701E007F007
:101930009FFB2C784FF0FF3230680DF10701002338
:101940008DF8074006F068FA012802464FF00100C2
:10195000EDD1054440F227710848FFF7EFFABD4288
:10196000E7D1404602B0BDE8F0814FF000084046A4
:1019700002B0BDE8F08100BF000C0020003801403B
:1019800030B5054683B00D4C01E007F071FB4FF018
:10199000FF3220680DF1070100238DF8075006F093
:1019A0003BFA012802464FF00100EED1044840F214
:1019B0002771FFF7C3FA03B030BD00BF000C002051
:1019C000003801400023037043704360704700BF3C
:1019D000F0B51D780144012D5C7848D045D3022D27
:1019E00041D18842154639D007782A4E44EA9714E7
:1019F0003F2C98BF16F804E007F03F04365D88BF1F
:101A00004FF03D0E85F800E06E705E6801300136E3
:101A1000132E5E602DD00235884236D004781D4EDC
:101A2000A708F65D04F00304013024012E7005F1CF
:101A3000010E884223D00778013044EA17143F2C66
:101A400096BF144E3D26365D07F00F0488420EF116
:101A500001054FEA84048EF80060C5D102215C7054
:101A6000A81A1970F0BD0020F0BD1546D4E79646BF
:101A7000DFE70A270026AF7003355E60CCE701215F
:101A80005C70C2EB0E001970F0BD00215C70A81AEA
:101A90001970F0BDD8EF00080B78012B17D0022B7E
:101AA00005D003460A2203F8012B181A70474B7819
:101AB0003F2B96BF0E4A3D21D15C03463D2203F8E1
:101AC000021B42700A2203F8012B181A70474B7848
:101AD0003F2B96BF064A3D22D25C3D2302704370E5
:101AE00083700A22C31C03F8012B181A704700BF29
:101AF000D8EF00080023037043707047F0B45C789F
:101B000014701C78032C7FD8DFE804F04E341A02DE
:101B1000164601443D4F88425AD010F8015BA5F1AA
:101B20002B042A2DE4B2F6D9502CF4D83C5D2506BE
:101B3000F1D4357804F03F042C433470013635E09D
:101B400016460144314F884249D010F8015BA5F197
:101B50002B042A2DE4B2F6D9502CF4D83C57002C93
:101B6000F1DB3578C4F383073D43A401357074700D
:101B70000136CFE716460144244F884236D010F88C
:101B8000015BA5F12B042A2DE4B2F6D9502CF4D830
:101B90003C57002CF1DB3578C4F301173D43240199
:101BA000357074700136CDE716460144174F8842F0
:101BB00023D010F8015BA5F12B042A2DE4B2F6D94D
:101BC000502CF4D83C57002CF1DBA4003470D3E740
:101BD000032119703178B01A5970F0BC7047022196
:101BE00019703178B01A5970F0BC70470121197022
:101BF0003178B01A5970F0BC7047002119703178F3
:101C0000B01A5970F0BC70470020E6E71CF00008DD
:101C1000704700BF704700BF01F082B8F0B583B0D5
:101C200005460F4607F0DEF8224EA6FB00342409D5
:101C3000D7B92149214AA1FB04035B09A1FB030198
:101C4000A2FB04024909C3EB0310A4EB8004C1EB1F
:101C50000111A3EB81030094D20A2846184901F030
:101C600023F8284603B0F0BDFA2303FB1400124901
:101C7000A1FB04234FF47A7202FB00F05B09A1FB85
:101C800003210E4AA6FB0060A2FB04624909C3EBD4
:101C90000316C1EB0111A4EB86040009A3EB810339
:101CA00001900094D20A2846064900F0FDFF28461C
:101CB00003B0F0BDD34D621089888888C5B3A29166
:101CC00080F000086CF00008F8B103780BB91846F2
:101CD000704730B583B00D46002201A904460BF0D1
:101CE000BDFB019B73B19C4201D10BE0019313F842
:101CF000012B202AFAD0092AF8D01AB9286001202D
:101D000003B030BD002003B030BD704728B3F0B53C
:101D1000067883B016B9002003B0F0BD14460D4616
:101D2000002201A907460BF099FB019B0646002BF8
:101D3000F1D09F4201D1EEE7019313F8010B202867
:101D4000FAD00928F8D02A2809D00028E3D1034680
:101D500001202E60236003B0F0BD002070471846BC
:101D600001A900221F4601930BF078FB019B002B79
:101D7000D1D09F4201D1CEE7019313F8012B202A45
:101D8000FAD0092AF8D0002AC5D1012871F1000340
:101D9000DDDB431EDCE700BFF0B52AB38D1C8718DE
:101DA00004780235240904F1300604F1370E092CB9
:101DB00094BF3446744605F8044C10F8014B04F007
:101DC0000F0404F1300604F1370E092C94BF344699
:101DD0007446B84205F8034CE2D101EB42020BB164
:101DE000002313700846F0BD0A46F8E7F8B504462C
:101DF0000F4616461D4600211822FEF799F9276066
:101E00006660A560F8BD00BF034600222DE9F04FD3
:101E100003F8012B0133427003F8012B03F8012B67
:101E200003F8012B03F8012B03F8012B1A70CE687D
:101E30008B6883B09E424CD2D1F804800C4658F88F
:101E4000267005467B49022238460AF03DFAF8B969
:101E5000237DD80741D5226813786BB1002102E0B9
:101E600012F8103F43B1042BFAD123698B4201F1E0
:101E70000101F5D1134621612B60E3686268591CAA
:101E8000E16052F8233001206B6003B0BDE8F08FB1
:101E90003B782D2BDFD1237DDA07DCD4731CE36084
:101EA00058F826707A78002A72D02668337823B9D9
:101EB0006EE016F8103F002B6AD0013B012BF8D8DA
:101EC000B3789342F5D12E603378022B73D0012082
:101ED000DBE7104603B0BDE8F08F731CE36058F8F1
:101EE00026303D2118461E4601930AF037FA06F1C6
:101EF00002098046002875D0C9EB000622681378D5
:101F0000002B4AD0924626B93CE01AF8103F002B2D
:101F100043D0013B012BD346F7D8DAF80470002FE9
:101F2000F3D038460AF0A2F98642EED13946484647
:101F300032460AF0C9F90028E7D1C5F800B09BF88D
:101F40000030032B05D1237D43F0010323759BF85B
:101F50000030022BBBD1B8F1000F58D008F10103BB
:101F60006B6098F80130002BB1D19BF801309907D4
:101F700034D500236B60012087E7012A12D91AF8B3
:101F8000103F53B1032B03F1FF32D346F5D1D4E711
:101F9000002385E88800012077E7019A00236A6022
:101FA0002B6094E7DAF804000028E8D00AF05EF924
:101FB0000028E4D1C1E738460AF058F9022816D9BA
:101FC000BB1C6B60BB783D2B81D1FB1C6B60FB782D
:101FD000002B7FF47CAF73789B07CAD4164B01208B
:101FE0006B6052E748460AF041F9064686E7737887
:101FF00013F0020FE36810D0A1685A1C8A42B8D8C7
:102000006168E26051F8233001206B603DE79BF886
:10201000013013F0020FE368EED1A268591C91421F
:10202000DCD8626852F8230000782D287FF428AFAE
:10203000D4E700BF94F00008740A010870B50246A6
:102040000E465948594905F0D5F8002825DB337864
:1020500006F1100423B94FE014F8103B002B4BD0CD
:1020600014F80F5C6807F7D4514805F0C3F800284E
:1020700013DB14F8103C022B12D0042B05F00105E1
:1020800018D0052B24D0032B73D014F80E1CC9B123
:10209000484805F0AFF80028DEDA4FF0FF3070BD99
:1020A000A9071DD454F80C1C54F8082C424805F01C
:1020B000A1F8F0E7002D60D154F80C1C3F4805F062
:1020C00099F8E8E754F80C1C3D4805F093F8E2E76E
:1020D000002D58D154F80C1C3A4805F08BF8DAE77B
:1020E00014F80E1C002954D154F80C1C54F8082C78
:1020F000354805F07FF8CEE73448354905F07AF8E1
:1021000033780546344683B924E06268002A46D015
:10211000304805F06FF80546002DBEDBE068D8B109
:1021200005F018F814F8103FA3B162785207F9D4FB
:10213000032BF7D0E0680028F4D0043B012B0FD923
:10214000A1780029E1D1616881B1234805F052F8F6
:102150000546E1E7E81770BD204804F0E5FFE1E738
:102160001F48616805F046F80546D5E7002DD7DA27
:1021700093E71C4805F03EF88DE754F80C1C1A480C
:1021800005F038F887E754F80C1C184805F032F8C9
:1021900081E754F8082C164805F02CF87BE7154821
:1021A00005F028F80546B7E798F00008380B010855
:1021B00008040108F4F00008C0F00008D8F0000896
:1021C000FCF00008E8F00008B4F00008A0F00008F7
:1021D000580B01080CF100081CF1000840FE000833
:1021E00004F1000894F00008D0F00008E0F00008C6
:1021F000A8F0000828F10008F8B54B680D4607461E
:1022000016465BB118460D4909F0F4FE044628B99C
:1022100038463146FFF712FF2046F8BD0849094A03
:10222000094804F0E7FF686804F094FF3846314637
:10223000FFF704FF4FF0FF34EEE700BF3CF100086A
:10224000E80A0108680A010844F10008F0B5002A0C
:10225000059C069F6CDD91F800C0BCF1000F2FD0EB
:102260000E46002516F801EF0135BEF1000FF9D139
:10227000AA4226DC724613F0020F0CBF4FF0200E6C
:102280004FF0300E13F001031DD1002A14DD3B681E
:1022900000285FD015469C4208D9036883F800E007
:1022A0000368013303603B6801333B60013DF2D1B9
:1022B00091F800C01346002266464EB91846F0BD9C
:1022C0006546521BD7E76646BCF1000F5BD0002382
:1022D0003D6840B3AC4207D905682E7005680135EA
:1022E00005603D6801353D6011F8016F0133002E36
:1022F000F0D1002AE2DD3968002836D015468C423C
:1023000008D9016881F800E001680131016039688D
:1023100001313960013DF2D19818F0BD11F8016F1B
:102320000133002EE5D0AC42F8D96FF00100F0BDCA
:1023300013F0010307D191F800C04FF0200E66465C
:10234000002EC5D1BAE70E784FF0200E002EBED178
:102350003046F0BD054601E0013A11D09C4205F13E
:102360000105F9D96FF00100F0BDD01801E08342FA
:1023700008D08C4203F10103F9D96FF00100F0BDE0
:102380002A4697E7F0BD6346B3E700BFF0B587B0D4
:102390000F46109D002949D00C468646002B30D1AF
:1023A00000238DF817300DF11701002F35D01E4690
:1023B0000E9B0DF11701A3F13A07B4FBF2F302FBF8
:1023C00013443819092CC8BF0446303401F8014DB4
:1023D0001C46002BF1D106B30C9B002B38D12D23CA
:1023E00001F8013C0C9A002401390F9B70468DE8DE
:1023F00028000D9BFFF72AFF002800DB204407B0D0
:10240000F0BD0A2ACCD10029CADA00234C428DF84B
:102410001730002C3BD00126CAE7119BABB12B2310
:1024200001F8013C002401390C9ADEE70F9B3024AF
:102430008DE8280003A90C9A0D9B8DF80D708DF87E
:102440000C40FFF703FF07B0F0BD1C460C9ACCE729
:102450000D9B9B07C3D52B680F9A9A420ED9BEF1EC
:10246000000F11D0DEF800302D221A70DEF8003097
:102470000133CEF800302B6801332B600C9B012414
:10248000013B0C931A46B0E76FF00100B7E70DF17E
:102490001701A1E72DE9F04FB3B002F1FF3B1D7822
:1024A0003C9A002407460B9112940792002D00F0ED
:1024B000E483A146DA4680461A4619E0129B9A4503
:1024C0000ED9B8F1000F00F08D80D8F800301D70E3
:1024D000D8F80010129B01310133C8F80010129394
:1024E000144609F101096578621C002D00F0D080C6
:1024F000252DE3D15378541C002B00F0C980252BE7
:1025000075D02D2B03BF9378941C012600262B2B0E
:102510006FD00022099203E014F8013F46F0020652
:10252000302BF9D02E2B33D0A3F13002D2B2092AAE
:102530002ED90622089200276C2B04BF6378013441
:10254000682B5BD0583B202B44D8DFE813F06E0398
:102550004300430043004300430043004300430063
:1025600043004300B501FE018901C500C5004300D9
:102570004300430043004300430043004300D001B5
:1025800043004300AE00430025024300430017020E
:10259000002706232246BB461D46144612F8013B7F
:1025A000A3F130012E2BC8B20ED0092805EB850C03
:1025B00007EB870E0CD8BBF1000F02D000EB4C05E7
:1025C000EBE701EB4E07E8E700254FF0010BE4E7EE
:1025D0000895B1E7129B9A4540F20F82B8F1000FBF
:1025E00040F0F3816FF0010033B0BDE8F08F224678
:1025F00064E7012263780992144491E76378013417
:10260000583B202BE6D801A252F823F0372C0008C3
:10261000D5250008D5250008D5250008D5250008B2
:10262000D5250008D5250008D5250008D5250008A2
:10263000D5250008D5250008B92800082D2A00084E
:1026400061280008D9260008D9260008D5250008E9
:10265000D5250008D5250008D5250008D525000872
:10266000D5250008D5250008D5250008112A000821
:10267000D5250008D5250008AB260008D52500087B
:10268000212A0008D5250008D5250008152A0008AC
:1026900047460B9B13F0010303D1002FA2D03A68E9
:1026A0001370484633B0BDE8F08F079BB74D1968EB
:1026B00012A8002908BF294601903A463346CDF8B2
:1026C00000A04046079DFFF7C1FD002805F1040565
:1026D0008ADB8144079506E7079B002203F1070E7A
:1026E0002EF0070EDEF800300C931846DEF80430AA
:1026F0001D460A93294600230EF10805079508F0A8
:10270000C1FA002840F07182099B002B40F07881CB
:102710001DAB9B460D93089B072B0ED81D469C4B6B
:102720000C9803EBC5030A99D3E9002307F086FE52
:102730000C900A91002D00F08482089D0023012056
:10274000013300EB8000AB424FEA4000F8D108951E
:1027500007F0B0FFCDE90E010C980A9908F0E2FAF3
:1027600003460990002800F06881DFF828C2089D20
:102770000DF14B0E0020ACFB0312D20802EB8201DC
:10278000A3EB410330330EF8013F01301346002A1A
:10279000F1D10DF14C0E0EEB00030BF1FF3213F8EB
:1027A000011D734502F8011FF9D12B46089583449A
:1027B000002B43D0099807F07DFF02460B460C988A
:1027C0000A9907F039FEDDE90E2307F0E9FF08F06A
:1027D000A9FA2E238BF80030002800F05082DFF891
:1027E000B4C1089D0DF14B0E0021ACFB0023DB08AA
:1027F00003EB8302A0EB4202303201310EF8012FCD
:102800001846002BF1D18D42089598BF0DF14C0E62
:1028100040F2F7810DF14C0E4B1E089D734430229F
:1028200001318D4203F8012F4FF03000F8D8002914
:1028300040F0E7818BF801000BF1020B12A8002594
:102840000190CDF800A00D993A46334640468BF8EA
:102850000050FFF7FBFC0028FFF6C6AE814442E6BD
:10286000079B073323F00703D3E9000108330793DD
:1028700008F078FA054607F095FD002840F0E4805E
:102880006E2361228DF874308DF876308DF87520C6
:102890000DF1770E12A900250191CDF800A03A465E
:1028A000334640461DA98EF80050FFF7CFFC0028A4
:1028B000FFF69AAE814416E6079B12A9D3F800E012
:1028C0003A4633460191CDF800A00025404611A9B3
:1028D000079E8DF844E08DF84550FFF7B7FC0028BF
:1028E00006F10406FFF680AE81440796FBE5002062
:1028F000D8F8003030221A70D8F800307822591CED
:10290000C8F800105A70D8F80030079A0133C8F898
:1029100000301346043309F102091168079300B12E
:1029200089B24122099812AB059002920493009754
:102930000196CDF80CA0404610220023FFF726FD9B
:102940000028FFF651AE8144CDE5079A1346116881
:10295000043307930998612212AB05900292049305
:1029600000970196CDF80CA040460A220123FFF7FC
:102970000DFD0028FFF638AE8144B4E5079A1346F2
:102980001168043307936122CCE700BF4CF10008C3
:1029900058F10008CDCCCCCC079A1346116804330B
:1029A00007930998612212AB059002920493009755
:1029B0000196CDF80CA040460A220023FFF7E6FC62
:1029C0000028FFF611AE81448DE5D8F800302522AD
:1029D0001A70D8F80020129B511C0133C8F800105F
:1029E0009A452178129308D95170D8F80020129B8B
:1029F00001320133C8F80020129309F1020972E58F
:102A00002B238DF874301DAB0DF1750B0D9382E601
:102A100001206DE7079A1346043311880793B2E744
:102A2000079A1346043311880793BAE7079A1346A7
:102A30000433B2F9001007938CE730238BF8003091
:102A40000BF1010B089BB3E6284607F0ABFC01280D
:102A5000284640F2FB8007F0A3FC002800F0DD8050
:102A600005F100452D2328464FF07E518DF8743036
:102A700008F074FC002840F0FD80824B0893099414
:102A80004FF0000B089C06E02846214608F0C8FAE3
:102A900005460BF1010B7C49284608F073FC4FF00A
:102AA0007E5118B9284608F059FC28B12846002163
:102AB00008F04AFC0028E7D0284608F077FC2E23CF
:102AC00000F130028DF875208DF8763008F054FA58
:102AD0000146284608F09AF96A49054608F054FB71
:102AE00008F064FC00F130038DF8773008F044FA08
:102AF000644908F095FA0146284608F087F96349C9
:102B0000054608F041FB08F051FC00F130038DF858
:102B1000783008F031FA5D4908F082FA014628461B
:102B200008F074F95A49054608F02EFB08F03EFCFF
:102B300000F130038DF8793008F01EFA544908F09E
:102B40006FFA0146284608F061F95249054608F037
:102B50001BFB08F02BFC00F130038DF87A3008F0F5
:102B60000BFA4C4908F05CFA0146284608F04EF989
:102B70004949054608F008FB08F018FC00F130034D
:102B80008DF87B3008F0F8F9434908F049FA01461E
:102B9000284608F03BF9414908F0F6FA08F006FC2F
:102BA000652300F130024FF080410898099C8DF8B0
:102BB0007C208DF87D3008F0EFFB80BB2B21384A5C
:102BC0004FEAEB7382FB0B02C3EBA20202EB820320
:102BD000ABEB4303303330328DF87E108DF880300C
:102BE0008DF87F200DF1810E54E60A9A2D2302F113
:102BF00000428DF874301DAB0A920DF1750B0D93E8
:102C000089E55A460EEB010313F8010D734502F8EE
:102C1000010FF9D101318B4410E6202323E7BBF1EA
:102C2000000F0CBF2B212D21C9E7079A134604334F
:102C30001168079375E6079A1346043311680793E2
:102C40006EE6184B0022CDE90E2385E507F0A8FBC0
:102C5000002814BF20202D2069216E2266238DF8C4
:102C600074008DF875108DF876208DF877300DF1A1
:102C7000780E0FE6044B089301E7A94609E50146E3
:102C8000C8E500BFCDCCCC3D000020410AD7233C95
:102C90006E12833A16B7D138ABC52737BC378635A5
:102CA000676666660000F03F0EB410B587B009ACE9
:102CB00054F8043B0390009403A800214FF0FF3226
:102CC0000594FFF7E7FB07B0BDE8104003B070477D
:102CD00010B584B004AC44F8040D0B4600922046B5
:102CE00000214FF0FF32FFF7D5FB04B010BD00BF4D
:102CF00010B4084A084C13680849002B08BF234643
:102D0000184410605DF8044B884294BF18464FF099
:102D1000FF3070470C0C0020E40C002000BC0020A9
:102D200038B5FEF789F9054607F024F9002D06DDD0
:102D3000002420460134FEF787F9AC42F9D1002D7A
:102D400006DD002420460134FEF784F9AC42F9D1B7
:102D50004FF4FA70FEF7F4FAF1E700BF30B5184C03
:102D600083B023780BB103B030BDFEF743F9E8B16F
:102D7000144915480B78002B08BF002104F0AAFB6A
:102D8000B8B11249124D134800F06EF803238DE8D4
:102D900028001148002311494FF4806205F012FD0C
:102DA0002B684BB10123237003B030BDFFF7B8FF90
:102DB000DEE7FFF7B5FFE4E7FFF7B2FFF2E700BF9A
:102DC000A80800202401000850F70008D8F10008E6
:102DD000100C00200C0C0108BD780008D0F1000890
:102DE00030B5194C83B02378F3B9FEF703F928B353
:102DF000164917480B78002B08BF002104F06AFB26
:102E0000C8B11449144D154800F02EF803238DE87D
:102E100028001348002313494FF4806205F0D2FCC8
:102E20002B6873B10123237005F0CCFE03B0BDE81D
:102E30003040FFF775BFFFF773FFE2E7FFF770FF62
:102E4000D6E7FFF76DFFEDE7A80800202401000892
:102E500050F70008D8F10008100C00200C0C0108F5
:102E6000BD780008D0F100082DE9F84304461E4A59
:102E70001E4E1368356801331360037888462F2B84
:102E800008BF013425B12846214609F0B3F8C8B17E
:102E9000B76827B13846214609F0ACF890B1D6F8AA
:102EA0001090B9F1000F04D04846214609F0A2F86D
:102EB00040B15DB14FB10225B9F1000F06D000203D
:102EC000BDE8F8830120BDE8F8830125D8F8043077
:102ED00098470028F3D006EBC50346F83540C3F801
:102EE00004800120BDE8F883680C0020140C002049
:102EF00003782F2B01D0002070474378EBB110B43A
:102F0000104C22681A445278520710D02F2B0ED042
:102F1000013006E022681A445278520707D02F2B5E
:102F200005D001F8013B10F8013F002BF2D100233E
:102F300001200B705DF8044B704700230B700120DB
:102F4000704700BF4C04002003782F2B01D00020D5
:102F500070474378002BFAD010B4114A013014683E
:102F6000E21805E02F2B0CD010F8013FE21823B136
:102F700052785207F6D12F2B03D000205DF8044B76
:102F80007047013003782BB101F8013B10F8013F85
:102F9000002BF9D1002301200B705DF8044B704722
:102FA0004C04002003782F2B01D0002070472DE91E
:102FB000F041447888B0451C6F466A46CCB1334B2B
:102FC000D3F800E00EEB04035B785B0711D02F2CE5
:102FD0000FD02846234604E07678760709D02F2BB9
:102FE00007D002F8013B10F8013F0EEB0306002B5F
:102FF000F2D1DFF89C800023D8F800000E46137051
:1030000020B1394608F0F6FF002839D0D8F808007A
:1030100018B1394608F0EEFF88B3D8F8100020B197
:10302000394608F0E7FF70B3002074B1174B1A68F7
:10303000131905E02F2C0CD015F8014F131924B1EA
:103040005B785B07F6D12F2C03D0002008B0BDE8D9
:10305000F08101352B783A462BB102F8013B15F887
:10306000013F002BF9D1002313700028EDD04368F5
:10307000314638469B6B984708B0BDE8F081012087
:1030800008EBC000D1E70220FAE700BF4C040020A3
:10309000140C00202DE9F047037888B02F2B8046D0
:1030A0000D4600F1010410D04FF00009564FBB68E7
:1030B0000133BB6098F800302F2B3FD0FB68002015
:1030C0000133FB6008B0BDE8F08743786E46002B03
:1030D00000F090804D4A1768FA185278520700F0B5
:1030E00089802F2B6A460DD0214604E040784007A6
:1030F00008D02F2B06D002F8013B11F8013FF81839
:10310000002BF3D1424F00233868137018B13146B9
:1031100008F070FF78B1B86820B1314608F06AFF56
:1031200000286FD038690028BED0314608F062FF11
:103130000028B9D1022007EBC009B7E798F80130A1
:10314000002BBBD0314A1168CA1806E02F2B09D0DA
:1031500014F8013FCA18002BB0D052785207F5D1AD
:103160002F2BABD1013423786E466A462BB102F87F
:10317000013B14F8013F002BF9D100231370B9F182
:10318000000F9BD006F0F6FE224B5868A0B31A69D8
:10319000A2B3DA69A2B39A6A52B15A6B042442B15B
:1031A00006F00AFFD9F8043007221B681A6085E789
:1031B000032404EB440AD9F804204FEA8A0A03EBFB
:1031C0000A08C8F8042006F0F7FED9F804203046B3
:1031D000136A294698470F4B38B9D9F804300622AC
:1031E0001B681A60C8F8040068E743F80A0004F195
:1031F0000A0067E7324685E70446DAE70124D8E7A4
:103200000224D6E7012096E7680C00204C04002039
:10321000140C00202C0C0020F8B51E4C236901333F
:10322000236120B30A3804282DD8002A1DDD470069
:10323000194B3E1803EB8606357A6DB93844800089
:1032400003445B68144EF3B15B6A3058984700281A
:1032500013DB5DB10130F8BD4FF0000E0D70013A87
:10326000013186F808E00125E8E70020F8BD0846AE
:10327000BDE8F840114603F0F9BB002D14BF012052
:103280004FF0FF30F8BD63694FF0FF3001336361E9
:10329000F8BD00BF680C00202C0C002070B5124C4B
:1032A000451EA369012D03F10103A3610FD90A385B
:1032B000042813D800EB40000C4B80001D186D68EB
:1032C00065B1EC6A18582346BDE8704018471446AB
:1032D0000846114603F018FF204670BDE3694FF021
:1032E000FF300133E36170BD680C00202C0C00201E
:1032F000F8B5114B0A381A6B042802F101021A635F
:1033000014D800EB40000D4D84002E1972686AB18C
:10331000536B285917689847386006F02BFE002336
:1033200073602B5106F048FE0120F8BD5A6B002057
:1033300001325A63F8BD00BF680C00202C0C00203D
:1033400003782F2B01D0002070472DE9F0438DB07A
:1033500045780DF11008471C4246B5B1434B18683B
:1033600043195B785B0710D02F2D0ED03C462B46BF
:1033700004E07678760708D02F2B06D002F8013BC0
:1033800014F8013FC618002BF3D1394E00233068E2
:103390000C46137020B1414608F02CFE002863D083
:1033A000B06818B1414608F025FE58B1306928B11F
:1033B000414608F01FFE4FF0020C28B100200DB06E
:1033C000BDE8F0834FF0010C002D3ED0DFF89C905B
:1033D000D9F8000043195B78590743D02F2D41D00D
:1033E00039462B466A4606E09EF801E01EF0070FBC
:1033F00009D02F2B07D002F8013B11F8013F00EB59
:10340000030E002BF0D1D9F8001000204B195B7887
:1034100010705B0707D116E017F8015F4B19A5B1D3
:103420005B785A070FD02F2DF6D101373B780DF17D
:1034300011022BB102F8013B17F8013F002BF9D123
:103440000023137004E02F2DEFD02F23ADF81030A0
:1034500006EBCC0673684046DB6B214698470DB0FF
:10346000BDE8F0836A46CEE78446ADE74C04002011
:10347000140C002001207047024600230B60184600
:10348000136070470020704700207047002070478D
:10349000002070474FF0FF30704700BF10B40F4B53
:1034A000013853F83040ACB1002A0FDD03EBC00205
:1034B0005268114400290DDBA26891420ADC03EB3B
:1034C000C003084659605DF8044B70471CBFA268F2
:1034D000511AEFE74FF0FF30F5E700BFB0080020CA
:1034E00000207047034B0138002243F830200120B0
:1034F000704700BFB0080020074900220B4643F880
:10350000042B04334A6043F8042B43F8042B43F89C
:10351000042B1A6001207047B00800202DE9F0410B
:103520000646114D114F002457F834304FEAC408B5
:103530002BB10134032CF7D10020BDE8F0812868BD
:1035400020B9F6E755F80C0F0028F2D0314608F004
:1035500051FD0028F6D1B844C8F8040047F83450AB
:10356000601CBDE8F08100BF84F20008B0080020B4
:1035700070B505460E46084C084802E054F80C0F9A
:1035800040B1294608F036FD0028F7D1A368012094
:10359000336070BD70BD00BF84F2000818F20008EF
:1035A000F8B5104B013853F83050BDB103EBC006ED
:1035B0007768AB68DB1B23EAE3739A42A8BF1A461D
:1035C00014460AB91046F8BD08466968394408F03F
:1035D000D9F97268204614447460F8BD4FF0FF308A
:1035E000F8BD00BFB008002038B50D46084908F006
:1035F00001FD50B9074C0848A1680022A84754F8BB
:103600000C0F0028F8D1012038BD002038BD00BFC4
:1036100020F2000884F2000818F20008F0B589B022
:10362000431E0A1D0F4602A81C490026FEF7DEFBBA
:10363000354602A96846FEF7E7FB1949044680B102
:10364000009BEBB15C68204608F0D4FC154930B112
:10365000204608F0CFFC0028EBD1019EE9E70125C8
:10366000E7E7B6B1304603F023FE0F4A0F4B0028C0
:1036700014BF1046184603F06DFD204609B0F0BD9A
:1036800038686946054AFEF7B7FD0446204609B08A
:10369000F0BD294603F04CFE0446EEE720F7000893
:1036A000C8F20008CCF20008D8090108880B01080C
:1036B0002DE9F04F8FB00A1D431E4FF47A754FF07D
:1036C000FF3480460E4608A8424904950594FEF74B
:1036D0008DFB414C414D424F4FF0000906A808A90F
:1036E000FEF792FB002858D0069B002B67D05B6842
:1036F000A34248D0AB4256D0BB42EFD10B9B56F809
:10370000230003F0D5FD0B9F8246C7EB080301930E
:1037100006EB8707002840D0324B98423DD0324E0E
:103720004FF0000B01983946D0478046002834D12D
:10373000B9F1000F04D0059B0BF1010B9B451EDA7C
:10374000049BFA24032B9CBF0423049305F04AFB3B
:10375000054605F047FB049B022104FB03F3A6FB8F
:10376000032305EB93139842DCD20DF10F00FEF713
:10377000C3F80130EDD09DF80F30032BE9D140465E
:103780000FB0BDE8F08F04A90798FEF79DFA06A8D0
:1037900008A9FEF739FB0028A6D14FF001084046E2
:1037A0000FB0BDE8F08F079805A9FEF78DFA059BCD
:1037B0004FF00109002B91DC4FF0FF38DFE7306854
:1037C00006A9044AFEF718FD804640460FB0BDE842
:1037D000F08F00BF44F90008C0090108A00B0108E0
:1037E0008C0B0108B1360008D34D621070B58AB059
:1037F000431E0A1D0E4604A84FF47A74164901941C
:10380000164DFEF7F3FA04E0029BB3B15B68AB42DE
:103810001CD002A804A9FEF7F7FA04460028F3D149
:103820000198FA2303FB00F30D48A0FB0330800945
:1038300005F01EFC20460AB070BD306802A9064A99
:10384000FEF7DAFC044620460AB070BD039801A9D1
:10385000FEF73AFADDE700BFA8F20008080A0108FF
:10386000D34D6210012813DD70B506460D460124C4
:1038700001E003F059FC55F8040F013403F054FC47
:10388000B4420448F5D1044803F04EFC002070BD5A
:10389000002070470804010840FE0008F8B5037CCA
:1038A0000446002B0F4614BF01258025082615E08D
:1038B000FDF706FEA068FDF7F9FCA1882078FDF76A
:1038C000FFFDA068FDF7F2FC2078A188FDF700FE5F
:1038D000237C6A004BB1013ED5B20AD03D426078EC
:1038E000E188E5D1FDF7F4FDE4E7013E4FEA550537
:1038F000F4D1E1886078FDF7E3FDA068FDF7D6FC20
:103900002078A188FDF7DCFDE1886078FDF7FAFDFD
:103910000546A068FDF7CAFC2078A188FDF7D8FD10
:10392000B5FA85F04009F8BDF8B5274E074656F8B8
:1039300020400D46002C3DD02078A188FDF71EFDCB
:103940006078E188FDF71AFD2B686868A968EA6865
:1039500023606060A160E260A178E2782B690125B4
:1039600005FA02F205FA01F12361E280A1802078D4
:1039700089B2FDF755FD6078E188FDF779FDE188B2
:103980006078FDF7A5FDA068FDF790FCA188207880
:10399000FDF79EFDA068FDF789FCA1882078FDF762
:1039A0008FFDA068FDF782FC6078E188FDF788FD57
:1039B0002846F8BD142006F05FFA044610B146F818
:1039C0002700C1E7F8BD00BFCC0800202DE9F84F63
:1039D000914CDDF828A054F82040002C00F0F6802F
:1039E0000D461E4691466078E188002B34D0FDF7E5
:1039F00067FDA068FDF75AFCA1882078FDF760FDFF
:103A0000A068FDF753FCE1886078FDF761FDA068D0
:103A1000FDF74CFC2078A188FDF75AFD0B9B002B8D
:103A20005BD09DF82C102046FFF738FF002800F0EF
:103A3000D680002EC8BF761906DD15F8011B20467A
:103A4000FFF72CFFB542F8D1BAF1000F49D10C9B1A
:103A500023B30120BDE8F88FFDF732FDA068FDF724
:103A600025FCA1882078FDF72BFDA068FDF71EFC42
:103A7000E1886078FDF72CFDA068FDF717FC207841
:103A8000A188FDF725FD0B9B23BBE3685B00D9B242
:103A90002046FFF703FF002800F0A180E18860784E
:103AA000FDF716FDA068FDF701FCA1882078FDF761
:103AB0000FFDA068FDF7FAFBA1882078FDF700FD57
:103AC000A068FDF7F3FB6078E188FDF7F9FC0120C1
:103AD000BDE8F88F9DF82C10DAE7E3685B00D9B2F7
:103AE000A1E7E1886078FDF7EBFCA068FDF7DEFB5D
:103AF000A1882078FDF7E4FCA068FDF7D7FBE188FA
:103B00006078FDF7E5FCA068FDF7D0FB2078A18880
:103B1000FDF7DEFC0B9B002B5BD09DF82C102046A4
:103B2000FFF7BCFE00285AD0BAF1000F8FDD09F173
:103B3000FF390AF1FF3B4FF00008237C6078002B2F
:103B4000E18814BF012680260825FDF7B9FC00276F
:103B500002E0013DD6B21BD0A068FDF7A7FB20789C
:103B6000A188FDF7ADFC6078E188FDF7CBFC00B1E2
:103B70003743A068FDF79AFB2078A188FDF7A8FCE1
:103B8000237C7200002BE4D1013D4FEA5606E3D1BD
:103B9000C3456078E18816DCFDF792FCA068FDF76C
:103BA00085FBA1882078FDF78BFCA068FDF77EFBE4
:103BB00008F101082078A188FDF78AFCD04509F8B2
:103BC000017FBAD143E7FDF783FCE7E72046BDE874
:103BD000F88FE368590041F00101C9B29FE7E1881D
:103BE0006078FDF775FCA068FDF760FBA188207880
:103BF000FDF76EFCA068FDF759FBA1882078FDF762
:103C00005FFCA068FDF752FB6078E188FDF758FC87
:103C10004FF0FF30BDE8F88FCC0800202DE9F04FC1
:103C2000ADF5177D00240A1D431E01260525824699
:103C3000894610A8A54908948DF82C408DF82D4090
:103C40008DF82F400E948DF83C408DF82E600D9528
:103C5000A046FEF7CBF8A346059404949C4D9D4CDA
:103C60009D4E09A810A9FEF7CFF828B3099B002B99
:103C700000F0A7805F68A74255D0AF4260D0B7423E
:103C800063D0964A974248D0954A974255D03846D5
:103C9000944908F0AFF9002842D03846924908F01C
:103CA000A9F9002856D1012309A810A98DF83C30A4
:103CB000FEF7AAF80028D9D1049B002B40F0DB8046
:103CC000059B002B40F0DF80139A059C0132524582
:103CD000139207AE80F09B8016AD0AE0139A33680A
:103CE000013252452B551392294604F1010480F00C
:103CF0008F8059F822003146FDF7E6FF0028EDD10C
:103D00007A4803F011FA139B59F8230003F022FAC2
:103D100001200DF5177DBDE8F08F01230493A0E786
:103D20004FF0010B9DE70A980EA9FDF7CDFF002883
:103D300000F0C0804FF0010893E70123059390E75E
:103D40000A980DA9FDF7C0FF8BE70A9808A9FDF7AF
:103D5000BBFF86E73846664908F04CF968B138463B
:103D6000644908F047F9002835D0634A97427FF448
:103D700078AF139B013B13939EE706A90A980A228A
:103D800009F060FB069B8DF82C00A3B11A782E2A4F
:103D900011D1581C06905B786BB106A90A2209F074
:103DA00051FB069B8DF82E00002B3FF45AAF1B7879
:103DB000002B3FF456AF514803F0EEF94FF0FF30BF
:103DC00005E0D9F8000009A9404AFEF715FA0DF5FB
:103DD000177DBDE8F08F06A90A980A2209F032FB88
:103DE000069B8DF82D00002BE5D01A782E2AE2D103
:103DF000581C06905B78002BDDD006A90A2209F03A
:103E000021FB069B8DF82F00002BD0D129E716A9A6
:103E1000089AB8F1000F49D00E9B56AD8DE80C08FA
:103E2000002023462A46FFF7D1FD306000283FD00E
:103E3000013045D0089B002B1BD04FF000033360AE
:103E400017DD1C4605E03368089A01339A42336057
:103E50000BDDE95C2A4803F0CDF904444E2CF2DD79
:103E60000A2002F033FE0024EDE714B10A2002F02C
:103E70002DFE0020ABE70BA90020FFF755FDB0FA9F
:103E800080F04009A3E71F4D2C68002CF1D020786A
:103E9000A188FDF773FA6078E188FDF76FFA204694
:103EA00005F0F6FF049B2B60184690E74346B4E705
:103EB00001208CE7204603F06FF94FF0FF3086E7D2
:103EC000114803F069F9022081E700BFD0FB000828
:103ED000780A01089809010880090108400B0108C7
:103EE000C40A010824FA00082CFA000838FA00086D
:103EF00030FA000834FA0008A80B0108140B010876
:103F000048FA0008CC08002044FA0008F8B52C4D07
:103F1000074655F820400E46002C47D020782189CE
:103F2000FDF72CFA60786189FDF728FAA078A1895D
:103F3000FDF724FAE078E189FDF720FA726830682D
:103F4000B368F1686260E160A36094F807C0206024
:103F5000217994F805E0A7797269B3693069012580
:103F600005FA0EFE05FA0CF605FA01F105FA07F757
:103F70006261A361A4F80AE02181206189B22078FE
:103F8000A781E681FDF7FAF960786189FDF748FAC3
:103F9000A078A189FDF744FAE078E189FDF740FABD
:103FA000E078E189FDF78CFA2846F8BD1C2005F081
:103FB00063FF044610B145F82700BFE7F8BD00BF16
:103FC000C80800202DE9F04F5B4C83B054F820A0C6
:103FD000BAF1000F00F0AC801C469AF818300D467C
:103FE00093469AF80200BAF80C10002B79D1FDF72D
:103FF0006FFA9AF80300BAF80E10FDF769FADAF8CA
:104000001000FDF753F9002C78D02B1F009401937A
:104010000125019ADAF8143052F8047F9AF81980D1
:1040200001929AF81890002B61D00026344637E0B0
:10403000E243134405FA03F33B429AF80100BAF84D
:104040000A1039D0FDF73CFAC8459AF80200BAF8D0
:104050000C1039D0FDF734FADAF81000FDF726F924
:104060009AF80200BAF80C10FDF732FA9AF800003C
:10407000BAF80810FDF746FA48B19AF81A309BBB17
:10408000DAF81430013B1B1B05FA03F31E43DAF880
:104090001000FDF70BF9DAF814300134A34227D9E8
:1040A0009AF81A20002AC3D005FA04F33B429AF882
:1040B0000100BAF80A10C5D1FDF70AFAC8459AF806
:1040C0000200BAF80C10C5D1FDF702FADAF81000B8
:1040D000FDF7ECF89AF80200BAF80C10FDF7F0F9C9
:1040E000C4E7FDF7EDF984E705FA04F3CEE71E46D1
:1040F000009B4BF8046B013B00938AD19AF818306F
:104100007BB19AF80200BAF80C10FDF7D9F99AF8C9
:104110000300BAF80E10FDF7D3F9012003B0BDE893
:10412000F08F9AF80200BAF80C10FDF7D1F9EEE71B
:10413000504603B0BDE8F08FC80800202DE9F04FCD
:10414000A04FADF6540D00240A1D431E0526082578
:1041500083468A4607A89C490E97119612950D949E
:104160008DF84C408DF84D408DF84E400194A0469E
:10417000FDF73CFEA146954D954E964F05A807A923
:10418000FDF742FEF8B1059B002B00F0AF805C68A4
:10419000AC425CD0B4424BD0BC4260D08E4A944218
:1041A00049D08E4A944257D020468D4907F022FFCD
:1041B000002843D1012305A807A98DF84C30FDF74D
:1041C00023FE0028DFD1B9F1000F40F08480019B6D
:1041D000002B40F036811C460A9801300A90834536
:1041E00040F24F8114AB03EB84055AF820002946B6
:1041F00004AAFDF78BFD002800F0658129460A9886
:10420000049B013001340A90002B79D00A680134F4
:10421000B4F5807F03F1FF3341F8042FF4DD7148DA
:10422000049302F0B9FF01200DF6540DBDE8F08FA4
:104230004FF00108A2E74FF001099FE720466A49C5
:1042400007F0D8FED0B901238DF84D3096E70698D7
:1042500011A9FDF739FD91E7012301938EE7069837
:1042600012A9FDF731FD002888D0129B023B1E2BBE
:1042700084D9384602F090FF0120D5E720465B49FB
:1042800007F0B8FE18B901238DF84E3076E72046C6
:10429000574907F0AFFE002834D02046554907F0B3
:1042A000A9FE002851D02046534907F0A3FE00285C
:1042B0006CD02046514907F09DFE002800F0A480F4
:1042C0004F4A94427FF45AAF0A9B013B0A93B9F1DB
:1042D000000F3FF47CAF0DA90020FFF717FEB0FAE6
:1042E00080F040090DF6540DBDE8F08FDAF80000BB
:1042F00005A9354AFDF780FF0DF6540DBDE8F08F96
:1043000004936CE703A906980A2209F09BF8039B23
:104310008DF83400A3B11A782E2A11D1581C0390BD
:104320005B786BB103A90A2209F08CF8039B8DF826
:104330003800002B3FF422AF1B78002B3FF41EAF58
:10434000304802F029FF01206EE703A906980A22EF
:1043500009F078F8039B8DF83500002BF0D01A781F
:104360002E2AEDD1581C03905B78002BE8D003A9CE
:104370000A2209F067F8039B8DF83900002B3FF4FF
:10438000FDAE1B78002B3FF4F9AED9E703A90698E0
:104390000A2209F057F8039B8DF83600002BCFD086
:1043A0001A782E2ACCD1581C03905B78002BC7D0EA
:1043B00003A90A2209F046F8039B8DF83A00002B66
:1043C000BAD1DBE60001020380FC0008780A01088C
:1043D00080090108B8090108400B0108C40A010856
:1043E00050FA000870FA000858FA00082CFA000881
:1043F00060FA000864FA000868FA00086CFA00081D
:10440000A80B0108140B010803A906980A2209F059
:1044100019F8039B8DF83700002B91D01A782E2ABB
:104420008ED1581C03905B78002B89D003A90A22F7
:1044300009F008F8039B8DF83B00002B7FF47CAF5C
:104440009CE6284D2C68D4B120782189FCF796FF92
:1044500060786189FCF792FFA078A189FCF78EFF54
:10446000E078E189FCF78AFF204605F011FDC5F8E8
:1044700000904846D8E615B10A2002F027FB00203C
:10448000D2E664B3002014A90DF58A622346FFF733
:1044900099FD10B3B8F1000FF1D000252E460DF2B2
:1044A0004C4701E0A642E6DA0F4857F8041F02F035
:1044B000A1FE05444E2D06F10106F3DD0A2002F0AF
:1044C00005FB0025EEE7094802F02EFE0A9B5AF88C
:1044D000230002F03FFE0120A6E60120A4E64FF0F3
:1044E000FF30A1E6C808002078FA000838FA000872
:1044F0002DE9F0478EB000240A1D431E0126052534
:104500008246894608A872498DF814408DF81540F6
:104510008DF81640ADF818600795FDF767FCA046CA
:1045200027466C4D6C4C6D4E03A808A9FDF76CFC3A
:1045300090B1039B002B73D05B68A34241D0AB4288
:1045400041D0B34246D0664A93423FD0654A934237
:1045500045D0654A9342E7D1002F71D1B8F1000FE1
:1045600040F098800B9B534580F0A58059F82300BC
:1045700002A9FDF7A9FB00285BD05C4B029D1C68DB
:10458000002C59D09DB981E0FCF7A2FFA068FCF790
:104590008DFEA3782078A188002B6ED0FCF790FFC9
:1045A000A068FCF783FE05F007FD013D6ED005F025
:1045B000E1FCA3782078A188002BE5D1FCF780FFEF
:1045C000E4E70127B0E74FF00108ADE701238DF8DC
:1045D0001630A9E7049807A9FDF776FBA4E701A91F
:1045E00004980A2208F02EFF019B8DF8140093B165
:1045F0001A782E2A0FD1581C01905B785BB101A963
:104600000A2208F01FFF019B8DF81500002B8BD0AC
:104610001B78002B88D0364802F0BEFD012005E053
:10462000D9F8000003A92A4AFDF7E6FD0EB0BDE85F
:10463000F087304802F0B0FD01200EB0BDE8F087F1
:104640002A4D2C68002C3BD02078A188FCF796FEE0
:1046500005AB07CB20606078012383406160207840
:1046600099B2A260A380FCF7DBFEA7782078A1882E
:10467000EFB9FCF72DFF3846D8E7FCF729FFA06813
:10468000FCF714FE05F098FC013D90D100200EB01F
:10469000BDE8F087154D2C6884B12078A188FCF71F
:1046A0006DFE204605F0F4FB2F603846BEE7FCF7B0
:1046B00007FF0020BAE74FF0FF30B7E73846B5E70D
:1046C0000C2005F0D9FB04460028B5D02860BFE7D0
:1046D00060FD0008C40A0108400B0108780A0108BF
:1046E00090090108F8090108B0090108D008002064
:1046F000140B0108A00B01080A462DE9F04F002613
:10470000B346B046B146374693B00691431E0432D5
:104710000CA89D499D4C9E4DFDF768FB07960196A0
:1047200003960296049605960AA80CA9FDF76CFB61
:10473000002835D00A9B002B00F09380D3F804A00A
:10474000A24576D0AA457AD05046924907F052FC4D
:1047500000286CD05046904907F04CFC00286BD0E4
:1047600050468E4907F046FC002874D08C4B9A4581
:1047700000F055818B4B9A4570D08B4B9A4500F0D9
:10478000B2808A4B9A4575D0029A894B0AA89A45FD
:1047900008BF01220CA90292FDF736FB0028C9D1FF
:1047A000049B002B69D1029B002B40F0E180059B0C
:1047B000002B40F0BB80019B002B71D1B8F1000FA2
:1047C00040F00081002F40F02E81B9F1000F40F041
:1047D0003F81039B002B00F02081764C0826274662
:1047E0000FE0FCF763FD38787988FCF769FE05F087
:1047F000E3FB2D20FCF75AFD013E4FEA5B0B00F076
:10480000B38005F0B7FB20786188FCF761FE1BF0F0
:1048100001054FF00F00E4D13C20FCF747FD38784C
:104820007988FCF74DFE05F0C7FB2846E2E7012733
:104830007AE74FF0010877E74FF0010974E70B982A
:1048400008A9FDF741FA00283FF46EAF01239DF857
:1048500020B0039368E70123019365E701230593E3
:1048600062E7069B0AA91868474AFDF7C5FC13B022
:10487000BDE8F08F0123049356E74E4C079A0123BD
:10488000B34099B21046638022706670FCF7F0FD69
:1048900020786188FCF714FE002013B0BDE8F08F8B
:1048A000444C05F067FB61882078FCF711FE01207D
:1048B000FCF7FCFC61882078FCF702FE0920FCF77D
:1048C000F5FC61882078FCF71DFE044605F074FBBA
:1048D0003220FCF7EBFC211C18BF0121364802F006
:1048E00089FC0598C3E70A2209A90B9808F0AAFDDC
:1048F000099BC2B207929BB11A782E2A10D1581C7C
:1049000009905B7863B109A90A2208F09BFD099B15
:10491000C6B2002B3FF408AF1B78002B3FF404AF66
:10492000264802F039FC4FF0FF30A0E7214C6188A7
:104930002078FCF7CDFD4FF4FA70FCF7B7FC05F0DA
:1049400019FB61882078FCF7BBFD3C20FCF7AEFC2E
:1049500061882078FCF7D6FD044605F02DFB4FF466
:104960009670FCF7A3FC54B9002013B0BDE8F08F9B
:10497000104B18785988FCF701FD049877E7104828
:1049800002F0E8FB012072E784F9000880090108C1
:10499000200B010880FA000884FA000888FA000851
:1049A000700B0108CC0A0108F8090108400B010846
:1049B000C40A0108D408002048030108140B0108A8
:1049C0008CFA0008DDF804A02C4C082705F0D2FA78
:1049D00061882078FCF77CFD0120FCF767FC61888A
:1049E0002078FCF76DFD0920FCF760FC61882078D9
:1049F000FCF788FD054605F0DFFA3220CAF3470AC6
:104A0000FCF754FC0DB14AF0800A013FDED151465B
:104A10001B4802F0EFFB384629E7012027E70F9BF0
:104A2000013B0F93BCE6154C05F0A4FA6188207891
:104A3000FCF74EFD3C20FCF739FC20786188FCF740
:104A40003FFD05F0B9FA4046FCF730FC40460EE762
:104A50000A4C05F08FFA61882078FCF739FD0F20A9
:104A6000FCF724FC20786188FCF72AFD05F0A4FA05
:104A70002D20FCF71BFC3846F9E600BFD4080020C7
:104A80004803010838B5084B044618680D4618B1AC
:104A9000214607F0AFFA30B929462246BDE8384032
:104AA000024802F0A7BB38BDD8080020F0FD00087E
:104AB0002DE9F047DCB00024431E0A1D8A4608A8F1
:104AC000994902948DF83840A046A146FDF78EF929
:104AD0002746964D964E04A808A9FDF795F9044679
:104AE00038B3049B002B67D05C68AC4219D0B44249
:104AF00051D020468F4907F07DFA00284ED08E4BCA
:104B00009C4254D08D4B9C42E5D1059802A9FDF7FB
:104B1000DBF80028DFD18A4802F03EFB4FF0FF347B
:104B200051E004A808A9FDF76FF901270446002801
:104B3000D7D19DF83830002B00F0CF8017B9B9F1EC
:104B4000000F79D0002002F0D9FC0646002841D0A1
:104B500007F08CFB0546002839D07A4B7A490EA81D
:104B6000B9F1000F08BF1946FEF794FA074670B373
:104B7000B8F1000F33D131462A46FEF78FFBA84229
:104B80004FD13846FEF7B4FB304605F081F9204698
:104B90005CB0BDE8F0874FF001099CE706A8FCF780
:104BA00011FF01A8FCF7A6FF4FF0010893E70EA83C
:104BB000059907F0FDFA8EE7DAF8000004A95A4AD1
:104BC000FDF71AFB044620465CB0BDE8F08730468E
:104BD00005F05EF9012420465CB0BDE8F087304660
:104BE0004FF000080378002BCBD00A2B78D0431C61
:104BF00001E00A2A76D01D46191A13F8012B002A63
:104C0000F7D10029BDD016AA01ABFCF777FF81468A
:104C1000002859D0384616A94A46FEF73FFB4845BA
:104C200052D03846FEF764FB0124304605F030F9D7
:104C300020465CB0BDE8F08703A90EA8FEF7B2F9E4
:104C40000028C7D00EA84149FEF724FA07460028DD
:104C5000C0D0A1463E4EB8F1000F14BF64224FF4FD
:104C60008C72384616A9FEF7D7FA051E4ADBA9440E
:104C70003ED0B8F1000F29D006AB2FAA294616A8BE
:104C8000FCF7A6FE01462FA802F03EFA6423AB42D1
:104C90002EDC039B99452BDAFA25029B0DF10300CC
:104CA00005FB03F3A6FB03318909FCF725FE013060
:104CB000D1D09DF80330032BEFD13846FEF718FB17
:104CC0000A2001F003FF7EE728468BE716A8294655
:104CD00002F01AFA4FF48C73D9E74FF0FF3472E701
:104CE0000546002185F80080013500298BD148E771
:104CF000B8F1000F0ED13846FEF7FAFA154802F067
:104D000013FA60E73846FEF7F3FA0A2001F0DEFEF8
:104D1000012458E706A916A8FCF7BEFE014616A80E
:104D200002F0F2F9E7E700BF80FE0008200B01085F
:104D3000500A010838FE0008400A0108780A0108F4
:104D4000940B010808FE000834FE00080C0C010852
:104D5000D34D621040FE00082DE9F04792B0431E8B
:104D60000A1D0F4604A84649FDF740F8454D0026A8
:104D7000684604A9FDF748F8044668B1009B002B7B
:104D800045D05B68AB42F3D1684604A9019EFDF7AC
:104D90003BF804460028F1D18DF82800002E40D0C1
:104DA00002A93046FEF7A4F8002864D00DF12808C7
:104DB00030464146FEF7C8F82546334FDFF8D49019
:104DC00057F83560E6B1304602A907F013F92F23F2
:104DD000B0B99DF828203146002A14BF424600226F
:104DE0000DF109008DF80830C9F8002007F0E0F94E
:104DF0003146264802F0FEF902A82549FEF7A0FA3E
:104E00000135032DDCD1204612B0BDE8F0873868AB
:104E100069461B4AFDF7F0F90446204612B0BDE88A
:104E2000F0870DF128084146FEF78EF82546164F0B
:104E3000DFF860A057F835602F230DF10900013528
:104E4000B6B19DF828200DF14809002A14BF42464A
:104E5000002209F8403D3146CAF8002007F0A8F9C1
:104E600031460A4802F0C6F948460949FEF768FA91
:104E7000032DDFD1C7E70124204612B0BDE8F0873B
:104E8000D0FD0008A8090108140C00203CFE000811
:104E9000854A0008D808002008B5FCF7EBF8FEE7C3
:104EA0002DE9F04F0E46002215469DB04FF47A735F
:104EB00004468B460F9210921192129213920D9308
:104EC000FCF754FA3246A946AA46A846631E099042
:104ED000043216A8A349FCF789FFA34C4FF0FF3317
:104EE000A24EA34F0495029500950795059503954D
:104EF00001950895069314A816A9FCF785FF0028CC
:104F00002DD0149B002B00F092805B68A34262D0EE
:104F1000B34263D0BB4266D0964A934268D0964A69
:104F200093426AD0954A93426CD0954A934200F0DE
:104F30008C80944A934269D0934A934200F08280D5
:104F4000924A9342D7D10DA91598FCF7BDFE0123D3
:104F500014A816A90893FCF757FF0028D1D183465F
:104F6000B8F1000F5AD040460A220EA908F06AFA9A
:104F70000E9A804622B111782E294AD000294DD1AF
:104F8000CDF828B04FF0FF34B8F1000F46DB099B95
:104F9000434543DD0A9B002B5ED1B9F1000F40F081
:104FA000D180009B002B40F05B81029B002B40F0E6
:104FB0006481049B002B40F0CD80002D4ED00798DB
:104FC00013A9FCF781FE002848D1714802F0E4F8EB
:104FD0004FF0010B27E0DDF854808CE7DDF854A09A
:104FE0004FF0010987E7159B01930123009382E7A6
:104FF000159B0393012302937DE7159B05930123E2
:10500000049378E7159B0125079374E70123069322
:1050100071E7501C0E905278002A7DD15D4802F055
:10502000BBF84FF0010B58461DB0BDE8F08FDBF820
:10503000000014A94B4AFDF7DFF8834658461DB01F
:10504000BDE8F08F0023069355E70999524802F016
:10505000D1F84FF0000BE6E71F2CDFD8B9F1000FB5
:1050600068D1009B002B40F0F880029B002B40F0A1
:105070001481049B002B40F0228185F001030993E9
:10508000012202FA04F30B932B464D469946434FF7
:105090000A9B002B00F0848045B1069B5A1C00F04F
:1050A000E7801A4640460B99FCF790F9009B002BCD
:1050B00040F0BC80029B002B40F0B380049B002B8F
:1050C0003BD1B9F1000F40F0C380099B002B40F0A9
:1050D000B280089B002BA6D00D9BFA24032B9CBF0B
:1050E00004230D9303F07EFE064603F07BFE0D9B2A
:1050F000022104FB03F3A7FB032306EB931398425F
:10510000C6D20DF13300FCF7F7FB0130EDD09DF86E
:105110003330032BE9D186E70A220EA908F092F971
:105120000E9A04461AB11278002A7FF477AF012351
:105130000A9329E700230993A2E740460B99FCF75D
:10514000C7F9BEE750460FA9FCF7BEFD00283FF4A3
:105150003CAF26E7059812A9FCF7B6FD00283FF4FE
:1051600034AF2AE764010108800B0108480A0108EE
:10517000800A0108340B0108B80A0108380A01083E
:10518000A00B0108280A01081C0A0108C00901082F
:10519000940B0108140B010848030108D34D621059
:1051A0005DB1069B013370D0BAF1000F00F084802E
:1051B0000F994046069AFCF709F9009B33B1019B11
:1051C000002B6DD010994046FCF72AF9029B33B1B1
:1051D000039B002B67D011994046FCF771F9049BA3
:1051E00033B1059B002B61D012994046FCF770F952
:1051F000B9F1000F06D0079B002B5AD013994046F7
:10520000FCF76EF9099B002B3FF463AF4FF0FF31C1
:105210004046FCF777F902F00FF82B4801F084FFC5
:1052200057E740460B99FCF74BF947E740460B9987
:10523000FCF7F6F83EE740460B99FCF763F9234A82
:10524000234B002814BF1046184601F06DFF40E7BD
:1052500040460B99FCF744F937E7CDF824900FE767
:10526000019810A9FCF730FD00283FF4AEAE9CE693
:1052700040460B99FCF782F818E7039811A9FCF750
:1052800023FD00283FF4A1AE93E6BAF1000F19D038
:105290000F994046FCF772F88FE7009B0993EFE601
:1052A0004FF0FF318FE74FF0FF3195E74FF0FF31BF
:1052B0009BE74FF0FF31A2E74FF0FF3179E7029B08
:1052C0000993DDE60699E4E740FE0008D0FF0008F8
:1052D000D4FF00082DE9F04F8BB007468A46FBF754
:1052E000ABFE4FF0FF357B1904460AF1040204A817
:1052F0005C490195FCF77AFD2E46A8465A4F5B4D56
:10530000DFF8849102A804A9FCF77EFD8346D0B1A2
:10531000029B002B41D05B68AB4230D0BB4231D006
:105320004B4532D0524A934232D0524A934242D0F5
:10533000514A02A804A99A4208BF0126FCF764FD5D
:1053400083460028E4D1012E3FD001980028C0F206
:10535000828084427FDDB8F1010F79D0B8F1020F6D
:1053600026D0B8F1000F70D0FBF77AFE434A444BC9
:10537000002814BF1046184601F0ECFE14E04FF070
:105380000008BFE74FF00108BCE74FF00208B9E79B
:10539000039801A9FCF798FCB4E7DAF8000002A929
:1053A000304AFCF729FF834658460BB0BDE8F08F22
:1053B000FBF750FEF8E721464FF0000B314801F0B3
:1053C00019FF58460BB0BDE8F08F002C019006DDA8
:1053D000FBF734FE0198013084420190F8DC00258F
:1053E0002E460DF103003E21FCF786FA013003D072
:1053F0009DF80330032B19D0002C019608DD55B918
:105400002846FBF721FE01980130A0420190F8DB0D
:1054100085F00105E5E70020FBF710FE019801305B
:1054200084420190F8DC85F00105DAE7002084422F
:105430000190B9DDFBF708FE01980130844201902C
:10544000F8DC58460BB0BDE8F08FFBF7FDFDABE78D
:10545000FBF7F4FDA8E7064801F09EFE4FF0FF3B86
:10546000A2E700BF60FF0008340B0108B80A01087A
:10547000A80A0108A00B0108580A0108D8FF000873
:10548000A4FB000848030108380A01082DE9F04F81
:10549000044691B08B46FCF703F90027BA46B9469B
:1054A000B846631E4FF0FF340290069407940BF148
:1054B00004020AA85C495D4C5D4D5E4E0197FCF705
:1054C00095FC039708A80AA9FCF79EFC034640B385
:1054D000089B002B66D05B68A34239D0AB423AD020
:1054E000B3423BD0544A934243D0544A934275D07E
:1054F000534A934249D0534A9342E3D1099807A9AA
:10550000FCF7E2FB42F21073079A9A4200F286809F
:10551000012308A80AA90193FCF776FC034600289A
:10552000D6D1B8F1000F48D1B9F1000F6BD1039A71
:105530000AB9CDF818800293019B002B6ED0069813
:105540000799FCF79BF8029B184611B0BDE8F08F55
:105550004FF00108B6E74FF00109B3E7099804A935
:10556000FCF7B2FB384B049A9A4246D84FF0010A36
:10557000A8E7099805A9FCF7A7FB42F20E72059B64
:10558000023B934239D801279CE7099806A9FCF70A
:105590009BFB069B002B3BDB029A9A4238DD0123E2
:1055A00003938FE7DBF8000008A91F4AFCF724FEED
:1055B0000346184611B0BDE8F08FBAF1000F16D0BF
:1055C0000498AFB10599019AA2B1079A0193FBF72C
:1055D000A5FF019B184611B0BDE8F08F02991B484A
:1055E00001F008FE0023184611B0BDE8F08FE8E78F
:1055F0003946E8E74FF0FF32E8E70F4801F0CCFD0D
:105600004FF0FF33D5E70190FCF724F8019BD0E77A
:105610000B4801F0C1FD4FF0FF33CAE7094801F024
:10562000BBFD4FF0FF33C4E7E0FE0008400B01086C
:10563000C40A0108100A0108D40A0108A00B0108D5
:10564000A80A0108A80B0108A08601004803010868
:105650002DE9F04FA5B0044602915022002110A878
:10566000FAF766FD804FDFF818E28048DFF8148211
:105670007F4D804EDFF810A2DFF800B20122022336
:1056800003214FF06C0C4FF06909CDF848E01397F7
:105690004FF0490E442716904FF47A70CDF85C8095
:1056A0008DF840308DF850308DF841108DF8511044
:1056B0008DF842C08DF852908DF860208DF86120F1
:1056C0008DF870208DF871208DF862E08DF8727081
:1056D000CDF844A0CDF854B019951B951D961F9692
:1056E0000690FBF7DDFD4FF00008C146029A074621
:1056F000631E10A904320AA8FCF778FBCDF80480D9
:10570000CDF80C8008A80AA9FCF77EFBB8B1089B6D
:10571000002B78D05B68AB4261D0B34262D05B456E
:1057200063D05345EED106A90998FCF7CDFA0123C1
:1057300008A80AA90393FCF767FB0028E7D10446F1
:10574000B9F1000F7DD1019B002B40F08380824690
:10575000DFF83891039CB8F1000F5FD1002F19DDFD
:1057600045467E1E2846FBF77FFD04F0C5FF3CA39F
:10577000D3E9002304F062FE02460B463E4801F0E6
:1057800039FDAE42CCBF2C200A20013501F09EF934
:10579000BD42E7D1F4B1069BFA25032B9CBF04233D
:1057A000069303F01FFB064603F01CFB069B022139
:1057B00005FB03F3A9FB032306EB93139842CAD21C
:1057C0000DF11700FCF798F80130EDD09DF8173077
:1057D000032BE9D15446204625B0BDE8F08F4FF0A9
:1057E00001098FE7012301938CE70998002889D0EC
:1057F00007A9FCF769FA079B002B25DB9F4223DDF5
:105800004FF001087EE7029B08A9186810AAFCF770
:10581000F3FC0446204625B0BDE8F08F0798FBF75F
:1058200023FD04F069FF0EA3D3E9002304F006FE74
:1058300002460B46104801F0DDFC0A2001F046F953
:10584000A8E7FBF741FCC6E70C4801F0A5FC4FF0C8
:10585000FF34C0E7FBF7E2FCBDE700BFAFF3008019
:105860007B14AE47E17A743FD4F20008DCFF0008F5
:10587000400B0108C40A0108FCFF0008A80A01083F
:10588000E4F20008ECFF0008C0090108D34D6210E3
:105890002DE9F04F0027BA46B946D7B0431E0A1D7E
:1058A0004FF0FF348B4606A87249734D734EDFF8F4
:1058B0000482029403940197FCF798FA009704A8D5
:1058C00006A9FCF7A1FA0446E8B1049B002B6AD0B4
:1058D0005B68AB4257D0B3425AD043454DD0684A7B
:1058E00093424DD0674A934257D0674A934257D06C
:1058F000664A04A806A99A4208BF0127FCF784FA61
:1059000004460028E1D1002F79D1019B002B55D00E
:105910000DF1580821464FF480720746054640466F
:10592000FAF706FC0CA806F00BF90C9E760807E0C7
:10593000013529463346374401F05CFC3F2D0ADC33
:10594000304604F099FA0246514848F82520002ACA
:10595000EED17610F2D13A464E484F4901F04AFC5A
:1059600015AD55AE55F8040F08B104F091FAB542E3
:10597000F8D1204657B0BDE8F08F4FF001099EE7FF
:105980004FF0010A9BE7059802A9FCF79DF996E7FD
:10599000059803A9FCF798F991E7012300938EE796
:1059A000012301938BE7DBF8000004A9314AFCF7DF
:1059B00023FC0446204657B0BDE8F08F009BB9F1A8
:1059C000000F18D0002B47D103994B1C012B4BD94A
:1059D000BAF1000F34D00298002837D0421C35D0DD
:1059E00004F064FA014602902C4801F003FC2046C2
:1059F00057B0BDE8F08FBAF1000FE3D1D3B916A8C4
:105A000006F09EF81699264801F0F4FB17992548F0
:105A100001F0F0FB1D99244801F0ECFB1E9923488E
:105A200001F0E8FB1F99224801F0E4FB204657B043
:105A3000BDE8F08F0298431C08D004F029FA98E7DB
:105A4000084604F019FA01460290CDE70A4801F031
:105A5000A3FB4FF0FF348CE7DBF800000549FCF7AF
:105A6000EDFA4FF0FF3484E7044801F095FB4FF066
:105A7000FF347EE71402010898090108A009010813
:105A8000F00A0108880A0108580A01088809010873
:105A90003403010844030108780B01084C03010892
:105AA0005403010864030108740301088403010816
:105AB00094030108C8090108F0B58DB0431E0A1D02
:105AC0000F4606A81A49FCF791F90025194E05E082
