:020000040800F2
:1000000000C000202D020008910700089507000895
:10001000990700089D070008A107000800000000DC
:1000200000000000000000000000000071900008C7
:10003000A507000800000000019100084591000894
:100040008D0200088D0200088D0200088D02000854
:100050008D0200088D0200088D0200088D02000844
:100060008D0200088D0200088D0200088D02000834
:100070008D0200088D0200088D0200088D02000824
:100080008D0200088D0200088D0200088D02000814
:100090008D0200088D0200088D0200088D02000804
:1000A0008D0200088D0200088D0200088D020008F4
:1000B0008D0200088D0200088D0200088D020008E4
:1000C0008D0200088D0200088D0200088D020008D4
:1000D0008D0200085D0C00088D0200088D020008EA
:1000E0008D0200088D0200088D020008000000004B
:1000F0000000000000000000000000000000000000
:0C01000000000000000000005FF808F1A3
:10010C003C6D637573683E003230323030363034BB
:10011C002D313233393330004D435553482064650B
:10012C007369676E65642062792050656E67205331
:10013C0068756C696E2C20616C6C207269676874D0
:10014C00732072657365727665642E0A68747470B8
:10015C00733A2F2F6769746875622E636F6D2F70F9
:10016C00656E677368756C696E2F6D637573680067
:02017C00000081
:08018000A8D9000001000000F5
:1001900070B4840746D0541E002A41D0CDB2034625
:1001A00002E0621EE4B3144603F8015B9A07F8D13B
:1001B000032C2ED9CDB245EA05250F2C45EA05457D
:1001C00019D9264603F11002103E0F2E42F8105C9A
:1001D00042F80C5C42F8085C42F8045C02F1100240
:1001E000F2D8A4F1100222F00F0204F00F04103232
:1001F000032C13440DD91E462246043A032A46F81E
:10020000045BFAD8221F22F003020432134404F0E4
:1002100003042CB1C9B21C4403F8011BA342FBD157
:1002200070BC704714460346C2E700BF002103E0DC
:100230000F4B5B58435004310E480F4B42189A4203
:10024000F6D30E4A02E0002342F8043B0C4B9A42DC
:10025000F9D30C4A03E05FF0A53342F8043B0A4BA4
:100260009A42F8D300F014F809F042F87047000001
:10027000A0FC00080000002080080020800800206A
:100280006431002000BC002000C00020FEE7000018
:1002900010B4104B104A1968104841F00101196060
:1002A00059684FF41F040A405A601A684FF0006101
:1002B00022F0847222F480321A601A6822F48022BA
:1002C0001A605A6822F4FE025A609C6081605DF8F0
:1002D000044B7047001002400000FFF800ED00E002
:1002E0004FF6FF02064900F00700CB681A4042F0C3
:1002F000BF6343F4003343EA0023CB60704700BF81
:1003000000ED00E030B4184BDB68C3F30223C3F107
:100310000705042D03F1040428BF0425062C17D972
:10032000033B01249C40013C22400124AC40013CA1
:1003300021409940002842EA01020CDB120100F141
:100340006040D2B200F5614080F8002330BC7047B5
:1003500000221346E9E7054B00F00F001201D2B26C
:1003600003441A7630BC704700ED00E0FCEC00E07E
:1003700000F01F010123034A40098B4042F820305E
:10038000704700BF00E100E02DE9F04F002583B089
:100390002A46DFF8C8E16B4CDFF8C4C103E0013244
:1003A000102A00F0858001230E6893401E409E4273
:1003B000F5D14B68122B00F09F8000F28980022B50
:1003C00000F09F807FD9032B00F09980112B01D181
:1003D000CD680435FF2E6ED8824603684FEA820B43
:1003E0004FF00F0909FA0BF823EA080805FA0BF396
:1003F00048EA0303CAF800304B68DB00CFD5524B04
:10040000514FD3F8188022F0030348F00108C7F8D1
:100410001880D7F8188003F1804308F00108CDF860
:10042000048003F5803302F00308DDF804A04FEAEE
:100430008808D3F808A009FA08F970452AEA090AD9
:1004400072D0604573D0414FB84275D0404FB8422A
:100450000CBF4FF003094FF0040909FA08F949EA03
:100460000A09C3F808904B68013213F4803F2368EF
:1004700014BF3343B34323604B6813F4003F6368F6
:1004800014BF3343B34363604B6813F4801FA36806
:1004900014BF3343B343A3604B6813F4001FE368F6
:1004A00014BF1E4323EA0606102AE6607FF47BAFE2
:1004B00003B0BDE8F08FA2F1080B43684FEA8B0B45
:1004C00000F1040A8CE79BB1012B83D1CD6881E751
:1004D000204FBB420CD017D91F4FBB4208D007F5A5
:1004E0008037BB4204D0DFF87C8043457FF472AF95
:1004F0008B689BB904256DE7CD680C356AE700254C
:1005000068E7CD68083565E7DFF85C804345EFD0E4
:1005100008F5803843457FF45DAFE9E7012B0CBF58
:1005200006614661082555E74FF0000997E74FF04F
:10053000010909FA08F992E74FF0020909FA08F9E6
:100540008DE700BF00040140001002400010014090
:10055000001401400000211000003110000801408B
:10056000000C0140000022100000111010B41A4AC3
:10057000536803F00C03082B11D15368DB0329D512
:100580005368164A03F400330133B2FBF3F2124B03
:100590005B68C3F38343023303FB02F300E00F4BBA
:1005A0000D4A036051680E4CC1F30311615C0D4CA0
:1005B000CB4043605168C1F30221615C23FA01F131
:1005C00081605268C2F3C222A25C5DF8044BD34042
:1005D000C3607047044ADAE70010024000127A0054
:1005E00048E0000858E0000800093D00C3689B048B
:1005F00001D50020704730B50D460446C368C86871
:1006000049682A69014323F4B0530A4323F00C03D9
:100610001343E3602269AB6822F440521343236121
:1006200062696B6922F44072134385B06361684666
:10063000FFF79CFF174B9C4229D0174B9C4205D0DB
:10064000164B9C4202D0002005B030BD029B002B0F
:10065000F9D029680029F6D003EB830303EB830369
:100660008900B3FBF1F10E4B6422A3FB015040095A
:1006700002FB101212013232A3FB0223C3F3471311
:1006800003EB00139BB20120A36005B030BD039BB8
:10069000DDE700BF00380140004400400048004052
:1006A0001F85EB51054A064BA2FB0020800901384B
:1006B00000210522586099601A607047D34D62107E
:1006C00010E000E0014B1860704700BF2C040020D0
:1006D000704700BF704700BF08B500F00BFA00F08C
:1006E00063F800F073F900F009F8FFF7F3FF00205A
:1006F00000F014FA003018BF012008BD08B5002032
:100700004FF4807100F0A2F9BDE8084000204FF4DA
:10071000807100F0C7B900BF0120704700204FF47E
:10072000807100F0C7B900BF00204FF4807100F065
:10073000B9B900BF00204FF4807100F0C3B900BF09
:1007400008B54FF48071002000F0CCF9B0FA80F0C9
:10075000400908BDBFF34F8F0549064BCA6802F434
:10076000E0621343CB60BFF34F8F00BFFDE700BFD4
:1007700000ED00E00400FA0508B501460C22012353
:10078000024800F029FD012008BD00BFE8F7FF1F67
:10079000FEE700BFFEE700BFFEE700BFFEE700BFC9
:1007A000FEE700BFFEE700BF10B5514C82B0A36961
:1007B000002143F00103A361A3690A4603F001038A
:1007C0000093009BE3696FF00B0043F08053E361FB
:1007D000E36903F080530193019BFFF793FD002130
:1007E0000A466FF00A00FFF78DFD00210A466FF000
:1007F0000900FFF787FD00210A466FF00400FFF7AC
:1008000081FD00210A466FF00300FFF77BFD002108
:100810000A466FF00100FFF775FD00210A464FF010
:10082000FF30FFF76FFD3349334A4B6823F0E06335
:1008300043F000734B60136823F0070343F0020397
:100840001360136803F00703022B00D0FEE7224673
:10085000236843F400232360236843F48033236038
:100860001168234B8903FBD519465A6822F47C1280
:1008700042F4E8125A601A6842F080721A600A68FC
:100880001B4B9201FBD519465A6822F0F0025A60C0
:100890005A6822F4E06242F480625A605A6822F494
:1008A00060525A605A6822F0030242F002025A6013
:1008B0004B680F4C03F00C03082BF9D10F48FFF7DE
:1008C000F1FE0F4A0D48136843F004031360FFF76D
:1008D000F9FE63680B4A23F4800363600023D16848
:1008E000032082F82330FFF7FBFC02B010BD00BFED
:1008F00000100240000001400020024000A24A0413
:1009000010E000E000ED00E0431E002844D000BFEE
:1009100000BF00BF00BF00BF00BF00BF00BF00BFDF
:1009200000BF00BF00BF00BF00BF00BF00BF00BFCF
:1009300000BF00BF00BF00BF00BF00BF00BF00BFBF
:1009400000BF00BF00BF00BF00BF00BF00BF00BFAF
:1009500000BF00BF00BF00BF00BF00BF00BF00BF9F
:1009600000BF00BF00BF00BF00BF00BF00BF00BF8F
:1009700000BF00BF00BF00BF00BF00BF00BF00BF7F
:1009800000BF00BF00BF00BF00BF00BF00BF00BF6F
:1009900000BF13F1FF33BAD2704700BF41F270724B
:1009A00082B010F1FF300CD30192019B002BF8D0E4
:1009B000019B013B0193019B002BF9D110F1FF300A
:1009C000F2D202B0704700BF05207047064B82B0DC
:1009D0009A6942F07C029A619B6903F07C0301935F
:1009E000019B02B0704700BF0010024010B584B0F8
:1009F00004AB084A43F8101D194652F8200003239F
:100A000002220024019402920393FFF7BDFC04B07C
:100A100010BD00BF60E0000810B5002A84B002D00D
:100A2000D4BF0222012204AB074C43F8101D194623
:100A300054F8200003230024029201940393FFF74B
:100A4000A3FC04B010BD00BF60E0000810B584B086
:100A500004AB084A43F8101D194652F8200003233E
:100A600000220124019402920393FFF78DFC04B04D
:100A700010BD00BF60E0000810B584B004AB084AA8
:100A800043F8101D194652F82000032301221124B7
:100A9000019402920393FFF777FC04B010BD00BFEE
:100AA00060E00008024B89B253F8203019617047AA
:100AB00060E00008024B89B253F82030596170475A
:100AC00060E00008064B53F82000C36801EA030207
:100AD00099431CBF89B201610AB192B24261704769
:100AE00060E00008024B53F82030986808407047D7
:100AF00060E0000845F2555040F6FF71024B0222BB
:100B0000186099605A607047003000404AF6AA2287
:100B1000014B1A60704700BF00300040F0B5012162
:100B200091B000220446802006F03EFA444D012197
:100B300028600022802006F037FA424E2D6830608F
:100B4000002D7AD0002876D028463F4906F0E8FDEF
:100B500030683E4906F0E4FD3D4B10AF9A694FF412
:100B6000007142F004029A619A694FF0030E02F09C
:100B700004020092009A9A69012542F480429A6127
:100B80009B6947F8281D03F48043022601933946E8
:100B90003048CDF824E0019B079608950026FFF722
:100BA000F3FB4FF4806339462A480693089507966D
:100BB000FFF7EAFBB44218BF2346274C08BF4FF4A7
:100BC00016530C220AA920460A930E920B960C96F5
:100BD0000D960F96FFF70AFDE3686FF4007143F47A
:100BE00000536FF04002E3602160226023683246C8
:100BF0000293029B636825200293029B23680A21CB
:100C00000393039B63680393039B23680493049BF0
:100C100063680493049B23680593059B63680593AD
:100C2000059BE36843F02003E360FFF76BFB25209F
:100C3000FFF79EFB284611B0F0BD284611B0F0BD6D
:100C4000EC0C0020E80C002074E0000878E00008BC
:100C500000100240000801400038014010B5002398
:100C600084B0204C0293E3681B0602D52368180663
:100C700025D41C4B1A68910616D41A4B1A68120711
:100C800006D55A681A680392039A5B680393039B1C
:100C9000029B3BB1144B4FF080521A60BFF34F8F51
:100CA000BFF36F8F04B010BD5A68104B04A901F850
:100CB000092D186802AA002306F0F6FADDE70C4BAE
:100CC0000DF10701186802AA06F0DAFC012804D029
:100CD000E36823F08003E360CBE79DF807306360AF
:100CE000C7E700BF0038014004ED00E0EC0C002035
:100CF000E80C00200120704708B5064B0021186859
:100D000006F0B2F8044B00211868BDE8084006F070
:100D1000ABB800BFEC0C0020E80C002010B5074B6E
:100D2000044601464FF0FF32186806F021FB002808
:100D300014BF20464FF0FF3010BD00BFEC0C002068
:100D400010B5064B04460A460146186806F010FB2B
:100D5000002814BF20464FF0FF3010BDEC0C0020DF
:100D60002DE9F043B1F1000883B021DD0446134EB4
:100D700000EB0809124F01E007F01EFA25783068F1
:100D80000DF107014FF0FF3200238DF8075006F0F8
:100D900033F901284FF00100EED1FB68044443F021
:100DA00080034C45FB60E9D1404603B0BDE8F083C9
:100DB0004FF00008404603B0BDE8F083E80C002087
:100DC0000038014030B5054683B00C4C01E007F017
:100DD000F3F920680DF107014FF0FF3200238DF881
:100DE000075006F009F901284FF00100EFD1044A3D
:100DF000D36843F08003D36003B030BDE80C00201B
:100E0000003801400023037043704360704700BF07
:100E1000F0B51D780144012D5C7848D045D3022DF2
:100E200041D18842154639D007782A4E44EA9714B2
:100E30003F2C98BF16F804E007F03F04365D88BFEA
:100E40004FF03D0E85F800E06E705E6801300136AF
:100E5000132E5E602DD00235884236D004781D4EA8
:100E6000A708F65D04F00304013024012E7005F19B
:100E7000010E884223D00778013044EA17143F2C32
:100E800096BF144E3D26365D07F00F0488420EF1E2
:100E900001054FEA84048EF80060C5D102215C7020
:100EA000A81A1970F0BD0020F0BD1546D4E796468B
:100EB000DFE70A270026AF7003355E60CCE701212B
:100EC0005C70C2EB0E001970F0BD00215C70A81AB6
:100ED0001970F0BD7CE000080B78012B17D0022BB5
:100EE00005D003460A2203F8012B181A70474B78E5
:100EF0003F2B96BF0E4A3D21D15C03463D2203F8AD
:100F0000021B42700A2203F8012B181A70474B7813
:100F10003F2B96BF064A3D22D25C3D2302704370B0
:100F200083700A22C31C03F8012B181A704700BFF4
:100F30007CE000080023037043707047F0B45C78D5
:100F400014701C78032C7FD8DFE804F04E341A02AA
:100F5000164601443D4F88425AD010F8015BA5F176
:100F60002B042A2DE4B2F6D9502CF4D83C5D25068A
:100F7000F1D4357804F03F042C433470013635E069
:100F800016460144314F884249D010F8015BA5F163
:100F90002B042A2DE4B2F6D9502CF4D83C57002C5F
:100FA000F1DB3578C4F383073D43A40135707470D9
:100FB0000136CFE716460144244F884236D010F858
:100FC000015BA5F12B042A2DE4B2F6D9502CF4D8FC
:100FD0003C57002CF1DB3578C4F301173D43240165
:100FE000357074700136CDE716460144174F8842BC
:100FF00023D010F8015BA5F12B042A2DE4B2F6D919
:10100000502CF4D83C57002CF1DBA4003470D3E70B
:10101000032119703178B01A5970F0BC7047022161
:1010200019703178B01A5970F0BC704701211970ED
:101030003178B01A5970F0BC7047002119703178BE
:10104000B01A5970F0BC70470020E6E7C0E0000815
:10105000704700BF704700BF01F082B8F0B583B0A1
:1010600005460F4606F05EFF224EA6FB003424091B
:10107000D7B92149214AA1FB04035B09A1FB030164
:10108000A2FB04024909C3EB0310A4EB8004C1EBEB
:101090000111A3EB81030094D20A2846184901F0FC
:1010A00023F8284603B0F0BDFA2303FB14001249CD
:1010B000A1FB04234FF47A7202FB00F05B09A1FB51
:1010C00003210E4AA6FB0060A2FB04624909C3EBA0
:1010D0000316C1EB0111A4EB86040009A3EB810305
:1010E00001900094D20A2846064900F0FDFF2846E8
:1010F00003B0F0BDD34D621089888888C5B3A29132
:1011000024E1000810E10008F8B103780BB9184693
:10111000704730B583B00D46002201A904460BF09C
:1011200045FA019B73B19C4201D10BE0019313F886
:10113000012B202AFAD0092AF8D01AB928600120F8
:1011400003B030BD002003B030BD704728B3F0B508
:10115000067883B016B9002003B0F0BD14460D46E2
:10116000002201A907460BF021FA019B0646002B3D
:10117000F1D09F4201D1EEE7019313F8010B202833
:10118000FAD00928F8D02A2809D00028E3D103464C
:1011900001202E60236003B0F0BD00207047184688
:1011A00001A900221F4601930BF000FA019B002BBE
:1011B000D1D09F4201D1CEE7019313F8012B202A11
:1011C000FAD0092AF8D0002AC5D1012871F100030C
:1011D000DDDB431EDCE700BFF0B52AB38D1C8718AA
:1011E00004780235240904F1300604F1370E092C85
:1011F00094BF3446744605F8044C10F8014B04F0D3
:101200000F0404F1300604F1370E092C94BF344664
:101210007446B84205F8034CE2D101EB42020BB12F
:10122000002313700846F0BD0A46F8E7F8B50446F7
:101230000F4616461D4600211822FEF7A9FF27601B
:101240006660A560F8BD00BF034600222DE9F04F9F
:1012500003F8012B0133427003F8012B03F8012B33
:1012600003F8012B03F8012B03F8012B1A70CE6849
:101270008B6883B09E424CD2D1F804800C4658F85B
:10128000267005467B49022238460AF0C5F8F8B9AF
:10129000237DD80741D5226813786BB1002102E085
:1012A00012F8103F43B1042BFAD123698B4201F1AC
:1012B0000101F5D1134621612B60E3686268591C76
:1012C000E16052F8233001206B6003B0BDE8F08F7D
:1012D0003B782D2BDFD1237DDA07DCD4731CE36050
:1012E00058F826707A78002A72D02668337823B9A5
:1012F0006EE016F8103F002B6AD0013B012BF8D8A6
:10130000B3789342F5D12E603378022B73D001204D
:10131000DBE7104603B0BDE8F08F731CE36058F8BC
:1013200026303D2118461E4601930AF0BFF806F10B
:1013300002098046002875D0C9EB000622681378A0
:10134000002B4AD0924626B93CE01AF8103F002BF9
:1013500043D0013B012BD346F7D8DAF80470002FB5
:10136000F3D038460AF02AF88642EED1394648468C
:1013700032460AF051F80028E7D1C5F800B09BF8D2
:101380000030032B05D1237D43F0010323759BF827
:101390000030022BBBD1B8F1000F58D008F1010387
:1013A0006B6098F80130002BB1D19BF801309907A0
:1013B00034D500236B60012087E7012A12D91AF87F
:1013C000103F53B1032B03F1FF32D346F5D1D4E7DD
:1013D000002385E88800012077E7019A00236A60EE
:1013E0002B6094E7DAF804000028E8D009F0E6FF63
:1013F0000028E4D1C1E7384609F0E0FF022816D9F9
:10140000BB1C6B60BB783D2B81D1FB1C6B60FB78F8
:10141000002B7FF47CAF73789B07CAD4164B012056
:101420006B6052E7484609F0C9FF064686E77378C5
:1014300013F0020FE36810D0A1685A1C8A42B8D892
:101440006168E26051F8233001206B603DE79BF852
:10145000013013F0020FE368EED1A268591C9142EB
:10146000DCD8626852F8230000782D287FF428AF7A
:10147000D4E700BF38E100083CF7000870B5024629
:101480000E465948594904F06DFF002825DB337892
:1014900006F1100423B94FE014F8103B002B4BD099
:1014A00014F80F5C6807F7D4514804F05BFF00287C
:1014B00013DB14F8103C022B12D0042B05F00105AD
:1014C00018D0052B24D0032B73D014F80E1CC9B1EF
:1014D000484804F047FF0028DEDA4FF0FF3070BDC7
:1014E000A9071DD454F80C1C54F8082C424804F0E9
:1014F00039FFF0E7002D60D154F80C1C3F4804F090
:1015000031FFE8E754F80C1C3D4804F02BFFE2E7FC
:10151000002D58D154F80C1C3A4804F023FFDAE7A8
:1015200014F80E1C002954D154F80C1C54F8082C43
:10153000354804F017FFCEE73448354904F012FF70
:1015400033780546344683B924E06268002A46D0E1
:10155000304804F007FF0546002DBEDBE068D8B137
:1015600004F0B0FE14F8103FA3B162785207F9D42A
:10157000032BF7D0E0680028F4D0043B012B0FD9EF
:10158000A1780029E1D1616881B1234804F0EAFE25
:101590000546E1E7E81770BD204804F07DFEE1E76D
:1015A0001F48616804F0DEFE0546D5E7002DD7DA56
:1015B00093E71C4804F0D6FE8DE754F80C1C1A483B
:1015C00004F0D0FE87E754F80C1C184804F0CAFE5B
:1015D00081E754F8082C164804F0C4FE7BE7154850
:1015E00004F0C0FE0546B7E73CE10008DCF7000860
:1015F00028F2000898E1000864E100087CE1000896
:10160000A0E100088CE1000858E1000844E100086E
:10161000FCF70008B0E10008C0E10008BCED0008DC
:10162000A8E1000838E1000874E1000884E100083E
:101630004CE10008CCE10008F8B54B680D460746C0
:1016400016465BB118460D4909F07CFD044628B9E1
:1016500038463146FFF712FF2046F8BD0849094ACF
:10166000094804F07FFE686804F02CFE38463146D5
:10167000FFF704FF4FF0FF34EEE700BFE0E10008A2
:10168000A4F7000830F70008E8E10008F0B5002AE8
:10169000059C069F6CDD91F800C0BCF1000F2FD0B7
:1016A0000E46002516F801EF0135BEF1000FF9D105
:1016B000AA4226DC724613F0020F0CBF4FF0200E38
:1016C0004FF0300E13F001031DD1002A14DD3B68EA
:1016D00000285FD015469C4208D9036883F800E0D3
:1016E0000368013303603B6801333B60013DF2D185
:1016F00091F800C01346002266464EB91846F0BD68
:101700006546521BD7E76646BCF1000F5BD000234D
:101710003D6840B3AC4207D905682E7005680135B5
:1017200005603D6801353D6011F8016F0133002E01
:10173000F0D1002AE2DD3968002836D015468C4207
:1017400008D9016881F800E0016801310160396859
:1017500001313960013DF2D19818F0BD11F8016FE7
:101760000133002EE5D0AC42F8D96FF00100F0BD96
:1017700013F0010307D191F800C04FF0200E664628
:10178000002EC5D1BAE70E784FF0200E002EBED144
:101790003046F0BD054601E0013A11D09C4205F10A
:1017A0000105F9D96FF00100F0BDD01801E08342C6
:1017B00008D08C4203F10103F9D96FF00100F0BDAC
:1017C0002A4697E7F0BD6346B3E700BFF0B587B0A0
:1017D0000F46109D002949D00C468646002B30D17B
:1017E00000238DF817300DF11701002F35D01E465C
:1017F0000E9B0DF11701A3F13A07B4FBF2F302FBC4
:1018000013443819092CC8BF0446303401F8014D7F
:101810001C46002BF1D106B30C9B002B38D12D2395
:1018200001F8013C0C9A002401390F9B70468DE8A9
:1018300028000D9BFFF72AFF002800DB204407B09B
:10184000F0BD0A2ACCD10029CADA00234C428DF817
:101850001730002C3BD00126CAE7119BABB12B23DC
:1018600001F8013C002401390C9ADEE70F9B30247B
:101870008DE8280003A90C9A0D9B8DF80D708DF84A
:101880000C40FFF703FF07B0F0BD1C460C9ACCE7F5
:101890000D9B9B07C3D52B680F9A9A420ED9BEF1B8
:1018A000000F11D0DEF800302D221A70DEF8003063
:1018B0000133CEF800302B6801332B600C9B0124E0
:1018C000013B0C931A46B0E76FF00100B7E70DF14A
:1018D0001701A1E72DE9F04FB3B002F1FF3B1D78EE
:1018E0003C9A002407460B9112940792002D00F0B9
:1018F000E483A146DA4680461A4619E0129B9A45CF
:101900000ED9B8F1000F00F08D80D8F800301D70AE
:10191000D8F80010129B01310133C8F8001012935F
:10192000144609F101096578621C002D00F0D08091
:10193000252DE3D15378541C002B00F0C980252BB2
:1019400075D02D2B03BF9378941C012600262B2BDA
:101950006FD00022099203E014F8013F46F002061E
:10196000302BF9D02E2B33D0A3F13002D2B2092A7A
:101970002ED90622089200276C2B04BF637801340D
:10198000682B5BD0583B202B44D8DFE813F06E0364
:10199000430043004300430043004300430043002F
:1019A00043004300B501FE018901C500C5004300A5
:1019B0004300430043004300430043004300D00181
:1019C00043004300AE0043002502430043001702DA
:1019D000002706232246BB461D46144612F8013B4B
:1019E000A3F130012E2BC8B20ED0092805EB850CCF
:1019F00007EB870E0CD8BBF1000F02D000EB4C05B3
:101A0000EBE701EB4E07E8E700254FF0010BE4E7B9
:101A10000895B1E7129B9A4540F20F82B8F1000F8A
:101A200040F0F3816FF0010033B0BDE8F08F224643
:101A300064E7012263780992144491E763780134E2
:101A4000583B202BE6D801A252F823F0772000085B
:101A5000151A0008151A0008151A0008151A0008AA
:101A6000151A0008151A0008151A0008151A00089A
:101A7000151A0008151A0008F91C00086D1E000848
:101A8000A11C0008191B0008191B0008151A0008E2
:101A9000151A0008151A0008151A0008151A00086A
:101AA000151A0008151A0008151A0008511E00081A
:101AB000151A0008151A0008EB1A0008151A000874
:101AC000611E0008151A0008151A0008551E0008A6
:101AD00047460B9B13F0010303D1002FA2D03A68B5
:101AE0001370484633B0BDE8F08F079BB74D1968B7
:101AF00012A8002908BF294601903A463346CDF87E
:101B000000A04046079DFFF7C1FD002805F1040530
:101B10008ADB8144079506E7079B002203F1070E45
:101B20002EF0070EDEF800300C931846DEF8043075
:101B30001D460A93294600230EF10805079508F073
:101B400053F9002840F07182099B002B40F0788106
:101B50001DAB9B460D93089B072B0ED81D469C4B37
:101B60000C9803EBC5030A99D3E9002307F018FD8D
:101B70000C900A91002D00F08482089D0023012022
:101B8000013300EB8000AB424FEA4000F8D10895EA
:101B900007F042FECDE90E010C980A9908F074F99D
:101BA00003460990002800F06881DFF828C2089DEC
:101BB0000DF14B0E0020ACFB0312D20802EB8201A8
:101BC000A3EB410330330EF8013F01301346002AE6
:101BD000F1D10DF14C0E0EEB00030BF1FF3213F8B7
:101BE000011D734502F8011FF9D12B460895834466
:101BF000002B43D0099807F00FFE02460B460C98C5
:101C00000A9907F0CBFCDDE90E2307F07BFE08F014
:101C10003BF92E238BF80030002800F05082DFF8CB
:101C2000B4C1089D0DF14B0E0021ACFB0023DB0875
:101C300003EB8302A0EB4202303201310EF8012F98
:101C40001846002BF1D18D42089598BF0DF14C0E2E
:101C500040F2F7810DF14C0E4B1E089D734430226B
:101C600001318D4203F8012F4FF03000F8D80029E0
:101C700040F0E7818BF801000BF1020B12A8002560
:101C80000190CDF800A00D993A46334640468BF8B6
:101C90000050FFF7FBFC0028FFF6C6AE814442E689
:101CA000079B073323F00703D3E9000108330793A9
:101CB00008F00AF9054607F027FC002840F0E48008
:101CC0006E2361228DF874308DF876308DF8752092
:101CD0000DF1770E12A900250191CDF800A03A462A
:101CE000334640461DA98EF80050FFF7CFFC002870
:101CF000FFF69AAE814416E6079B12A9D3F800E0DE
:101D00003A4633460191CDF800A00025404611A97E
:101D1000079E8DF844E08DF84550FFF7B7FC00288A
:101D200006F10406FFF680AE81440796FBE500202D
:101D3000D8F8003030221A70D8F800307822591CB8
:101D4000C8F800105A70D8F80030079A0133C8F864
:101D500000301346043309F102091168079300B1FA
:101D600089B24122099812AB059002920493009720
:101D70000196CDF80CA0404610220023FFF726FD67
:101D80000028FFF651AE8144CDE5079A134611684D
:101D9000043307930998612212AB059002920493D1
:101DA00000970196CDF80CA040460A220123FFF7C8
:101DB0000DFD0028FFF638AE8144B4E5079A1346BE
:101DC0001168043307936122CCE700BFF0E10008FB
:101DD000F8E10008CDCCCCCC079A13461168043347
:101DE00007930998612212AB059002920493009721
:101DF0000196CDF80CA040460A220023FFF7E6FC2E
:101E00000028FFF611AE81448DE5D8F80030252278
:101E10001A70D8F80020129B511C0133C8F800102A
:101E20009A452178129308D95170D8F80020129B56
:101E300001320133C8F80020129309F1020972E55A
:101E40002B238DF874301DAB0DF1750B0D9382E6CD
:101E500001206DE7079A1346043311880793B2E710
:101E6000079A1346043311880793BAE7079A134673
:101E70000433B2F9001007938CE730238BF800305D
:101E80000BF1010B089BB3E6284607F03DFB012848
:101E9000284640F2FB8007F035FB002800F0DD808B
:101EA00005F100452D2328464FF07E518DF8743002
:101EB00008F006FB002840F0FD80824B089309944F
:101EC0004FF0000B089C06E02846214608F05AF91E
:101ED00005460BF1010B7C49284608F005FB4FF045
:101EE0007E5118B9284608F0EBFA28B1284600219F
:101EF00008F0DCFA0028E7D0284608F009FB2E237A
:101F000000F130028DF875208DF8763008F0E6F893
:101F10000146284608F02CF86A49054608F0E6F91B
:101F200008F0F6FA00F130038DF8773008F0D6F8B3
:101F3000644908F027F90146284608F019F8634972
:101F4000054608F0D3F908F0E3FA00F130038DF804
:101F5000783008F0C3F85D4908F014F901462846C6
:101F600008F006F85A49054608F0C0F908F0D0FA1A
:101F700000F130038DF8793008F0B0F8544908F0DA
:101F800001F90146284607F0F3FF5249054608F0DB
:101F9000ADF908F0BDFA00F130038DF87A3008F0A1
:101FA0009DF84C4908F0EEF80146284607F0E0FF9E
:101FB0004949054608F09AF908F0AAFA00F13003F9
:101FC0008DF87B3008F08AF8434908F0DBF80146C9
:101FD000284607F0CDFF414908F088F908F098FA43
:101FE000652300F130024FF080410898099C8DF87C
:101FF0007C208DF87D3008F081FA80BB2B21384A97
:102000004FEAEB7382FB0B02C3EBA20202EB8203EB
:10201000ABEB4303303330328DF87E108DF88030D7
:102020008DF87F200DF1810E54E60A9A2D2302F1DE
:1020300000428DF874301DAB0A920DF1750B0D93B3
:1020400089E55A460EEB010313F8010D734502F8BA
:10205000010FF9D101318B4410E6202323E7BBF1B6
:10206000000F0CBF2B212D21C9E7079A134604331B
:102070001168079375E6079A1346043311680793AE
:102080006EE6184B0022CDE90E2385E507F03AFAFB
:10209000002814BF20202D2069216E2266238DF890
:1020A00074008DF875108DF876208DF877300DF16D
:1020B000780E0FE6044B089301E7A94609E50146AF
:1020C000C8E500BFCDCCCC3D000020410AD7233C61
:1020D0006E12833A16B7D138ABC52737BC37863571
:1020E000676666660000F03F0EB410B587B009ACB5
:1020F00054F8043B0390009403A800214FF0FF32F2
:102100000594FFF7E7FB07B0BDE8104003B0704748
:1021100010B584B004AC44F8040D0B460092204680
:1021200000214FF0FF32FFF7D5FB04B010BD00BF18
:1021300010B4084A084C13680849002B08BF23460E
:10214000184410605DF8044B884294BF18464FF065
:10215000FF307047F40C00206431002000BC0020E8
:1021600038B5FEF7D9FA05464FF0500383F31188CE
:10217000BFF36F8FBFF34F8F002806DD002420468A
:102180000134FEF7D1FAAC42F9D1002D06DD00246E
:1021900020460134FEF7CEFAAC42F9D14FF4FA7082
:1021A000FEF7FCFBF1E700BF30B4044D044C2023E4
:1021B00005600C60136030BC704700BFD01D00206C
:1021C000F80C002030B4044D044C402305600C6032
:1021D000136030BC704700BF242F0020242E002045
:1021E000704700BF10B51A4C84B023780BB104B00F
:1021F00010BDFFF7F5FFFEF76FFA00B3154916485B
:102200000B78002B08BF002104F01AFAD0B1134953
:10221000134800F07FF81349134A032301910292F7
:1022200000931248002312494FF4806205F0BEFC6F
:10223000104B186048B10123237004B010BDFFF7A4
:102240008FFFDBE7FFF78CFFE1E7FFF789FFF2E79E
:10225000800800207C01000800E7000878E2000800
:10226000E8F800087C0D00207C1D0020296A000889
:1022700070E20008780D002010B51C4C84B0237863
:102280001BBBFFF7ADFFFEF727FA40B3184919480B
:102290000B78002B08BF002104F0D2F9E0B11649F9
:1022A000164800F037F81649164A032301910292A6
:1022B00000931548002315494FF4806205F076FC21
:1022C000134B186070B10123237005F0ADFD04B00D
:1022D000BDE81040FFF744BFFFF742FFDFE7FFF71D
:1022E0003FFFD3E7FFF73CFFEDE700BF800800208A
:1022F0007C01000800E7000878E20008E8F8000820
:102300007C0D00207C1D0020296A000870E2000876
:10231000780D00202DE9F84304461E4A1E4E13682E
:10232000356801331360037888462F2B08BF0134CA
:1023300025B12846214608F005FFC8B1B76827B186
:102340003846214608F0FEFE90B1D6F81090B9F15B
:10235000000F04D04846214608F0F4FE40B15DB1BC
:102360004FB10225B9F1000F06D00020BDE8F88377
:102370000120BDE8F8830125D8F8043098470028EB
:10238000F3D006EBC50346F83540C3F804800120BE
:10239000BDE8F883CC2F0020782F002003782F2B66
:1023A00001D0002070474378EBB110B4104C226884
:1023B0001A445278520710D02F2B0ED0013006E06D
:1023C00022681A445278520707D02F2B05D001F803
:1023D000013B10F8013F002BF2D1002301200B70CC
:1023E0005DF8044B704700230B700120704700BF5D
:1023F0003404002003782F2B01D00020704743784D
:10240000002BFAD010B4114A01301468E21805E02C
:102410002F2B0CD010F8013FE21823B1527852074D
:10242000F6D12F2B03D000205DF8044B704701300C
:1024300003782BB101F8013B10F8013F002BF9D1D3
:10244000002301200B705DF8044B7047340400201A
:1024500003782F2B01D0002070472DE9F0414478FC
:1024600088B0451C6F466A46CCB1334BD3F800E0C8
:102470000EEB04035B785B0711D02F2C0FD028469E
:10248000234604E07678760709D02F2B07D002F890
:10249000013B10F8013F0EEB0306002BF2D1DFF8F1
:1024A0009C800023D8F800000E46137020B13946F6
:1024B00008F048FE002839D0D8F8080018B139468D
:1024C00008F040FE88B3D8F8100020B1394608F073
:1024D00039FE70B3002074B1174B1A68131905E068
:1024E0002F2C0CD015F8014F131924B15B785B0722
:1024F000F6D12F2C03D0002008B0BDE8F0810135C3
:102500002B783A462BB102F8013B15F8013F002B1E
:10251000F9D1002313700028EDD0436831463846C6
:102520009B6B984708B0BDE8F081012008EBC00024
:10253000D1E70220FAE700BF34040020782F002002
:102540002DE9F047037888B02F2B80460D4600F127
:10255000010410D04FF00009564FBB680133BB6037
:1025600098F800302F2B3FD0FB6800200133FB6030
:1025700008B0BDE8F08743786E46002B00F09080ED
:102580004D4A1768FA185278520700F089802F2BAD
:102590006A460DD0214604E04078400708D02F2B32
:1025A00006D002F8013B11F8013FF818002BF3D1D7
:1025B000424F00233868137018B1314608F0C2FD4D
:1025C00078B1B86820B1314608F0BCFD00286FD062
:1025D00038690028BED0314608F0B4FD0028B9D1D2
:1025E000022007EBC009B7E798F80130002BBBD0F9
:1025F000314A1168CA1806E02F2B09D014F8013FA0
:10260000CA18002BB0D052785207F5D12F2BABD17E
:10261000013423786E466A462BB102F8013B14F868
:10262000013F002BF9D100231370B9F1000F9BD0AB
:1026300006F030FD224B5868A0B31A69A2B3DA69DC
:10264000A2B39A6A52B15A6B042442B106F044FD17
:10265000D9F8043007221B681A6085E7032404EBCD
:10266000440AD9F804204FEA8A0A03EB0A08C8F89A
:10267000042006F031FDD9F804203046136A2946BB
:1026800098470F4B38B9D9F8043006221B681A60F6
:10269000C8F8040068E743F80A0004F10A0067E795
:1026A000324685E70446DAE70124D8E70224D6E774
:1026B000012096E7CC2F002034040020782F002042
:1026C000902F0020F8B51E4C23690133236120B3FD
:1026D0000A3804282DD8002A1DDD4700194B3E1862
:1026E00003EB8606357A6DB93844800003445B6895
:1026F000144EF3B15B6A30589847002813DB5DB184
:102700000130F8BD4FF0000E0D70013A013186F82E
:1027100008E00125E8E70020F8BD0846BDE8F840DC
:10272000114603F05BBA002D14BF01204FF0FF30BB
:10273000F8BD63694FF0FF3001336361F8BD00BF3E
:10274000CC2F0020902F002070B5124C451EA3699D
:10275000012D03F10103A3610FD90A38042813D80E
:1027600000EB40000C4B80001D186D6865B1EC6AF1
:1027700018582346BDE870401847144608461146CD
:1027800003F07AFD204670BDE3694FF0FF3001335E
:10279000E36170BDCC2F0020902F0020F8B5114BC5
:1027A0000A381A6B042802F101021A6314D800EBEC
:1027B00040000D4D84002E1972686AB1536B285980
:1027C00017689847386006F065FC002373602B514A
:1027D00006F082FC0120F8BD5A6B002001325A63DA
:1027E000F8BD00BFCC2F0020902F002003782F2BA6
:1027F00001D0002070472DE9F0438DB045780DF1F0
:102800001008471C4246B5B1434B186843195B7822
:102810005B0710D02F2D0ED03C462B4604E0767877
:10282000760708D02F2B06D002F8013B14F8013FA1
:10283000C618002BF3D1394E002330680C461370B4
:1028400020B1414608F07EFC002863D0B06818B182
:10285000414608F077FC58B1306928B1414608F08C
:1028600071FC4FF0020C28B100200DB0BDE8F083E0
:102870004FF0010C002D3ED0DFF89C90D9F80000FD
:1028800043195B78590743D02F2D41D039462B4649
:102890006A4606E09EF801E01EF0070F09D02F2BD4
:1028A00007D002F8013B11F8013F00EB030E002BAB
:1028B000F0D1D9F8001000204B195B7810705B073D
:1028C00007D116E017F8015F4B19A5B15B785A07DD
:1028D0000FD02F2DF6D101373B780DF111022BB11E
:1028E00002F8013B17F8013F002BF9D100231370C8
:1028F00004E02F2DEFD02F23ADF8103006EBCC06DF
:1029000073684046DB6B214698470DB0BDE8F08305
:102910006A46CEE78446ADE734040020782F0020D5
:1029200001207047024600230B6018461360704771
:10293000002070470020704700207047002070473B
:102940004FF0FF30704700BF10B40F4B013853F801
:102950003040ACB1002A0FDD03EBC00252681144D5
:1029600000290DDBA26891420ADC03EBC003084694
:1029700059605DF8044B70471CBFA268511AEFE71D
:102980004FF0FF30F5E700BF8808002000207047B7
:10299000034B0138002243F830200120704700BF6C
:1029A00088080020074900220B4643F8042B043313
:1029B0004A6043F8042B43F8042B43F8042B1A60B5
:1029C00001207047880800202DE9F0410646114D8E
:1029D000114F002457F834304FEAC4082BB10134AA
:1029E000032CF7D10020BDE8F081286820B9F6E774
:1029F00055F80C0F0028F2D0314608F0A3FB002850
:102A0000F6D1B844C8F8040047F83450601CBDE85B
:102A1000F08100BFCCE200088808002070B50546B0
:102A20000E46084C084802E054F80C0F40B1294605
:102A300008F088FB0028F7D1A3680120336070BD3F
:102A400070BD00BFCCE20008B8E20008F8B5104B3A
:102A5000013853F83050BDB103EBC0067768AB685E
:102A6000DB1B23EAE3739A42A8BF1A4614460AB94D
:102A70001046F8BD08466968394408F035F87268B0
:102A8000204614447460F8BD4FF0FF30F8BD00BF1D
:102A90008808002038B50D46084908F053FB50B9A6
:102AA000074C0848A1680022A84754F80C0F0028DA
:102AB000F8D1012038BD002038BD00BFC0E20008B9
:102AC000CCE20008B8E20008F0B589B0431E0A1D48
:102AD0000F4602A81C490026FEF7A8FB354602A9AE
:102AE0006846FEF7B1FB1949044680B1009BEBB183
:102AF0005C68204608F026FB154930B1204608F0F6
:102B000021FB0028EBD1019EE9E70125E7E7B6B1FB
:102B1000304603F083FC0F4A0F4B002814BF1046C9
:102B2000184603F0CFFB204609B0F0BD386869466F
:102B3000054AFEF781FD0446204609B0F0BD29464E
:102B400003F0ACFC0446EEE7F0E2000860E30008A6
:102B500064E30008A4F600082CF800082DE9F04F03
:102B60008FB00A1D431E4FF47A754FF0FF34804634
:102B70000E4608A8424904950594FEF757FB414CC0
:102B8000414D424F4FF0000906A808A9FEF75CFB33
:102B9000002858D0069B002B67D05B68A34248D022
:102BA000AB4256D0BB42EFD10B9B56F8230003F04B
:102BB00035FC0B9F8246C7EB0803019306EB8707A2
:102BC000002840D0324B98423DD0324E4FF0000B9F
:102BD00001983946D0478046002834D1B9F1000F1A
:102BE00004D0059B0BF1010B9B451EDA049BFA24D4
:102BF000032B9CBF0423049305F094F9054605F0CC
:102C000091F9049B022104FB03F3A6FB032305EBCC
:102C100093139842DCD20DF10F00FEF791F80130CA
:102C2000EDD09DF80F30032BE9D140460FB0BDE841
:102C3000F08F04A90798FEF767FA06A808A9FEF71F
:102C400003FB0028A6D14FF0010840460FB0BDE8B5
:102C5000F08F079805A9FEF757FA059B4FF0010979
:102C6000002B91DC4FF0FF38DFE7306806A9044AFB
:102C7000FEF7E2FC804640460FB0BDE8F08F00BF93
:102C800020E300088CF6000844F8000830F800083B
:102C90005D2B0008D34D621070B58AB0431E0A1D2B
:102CA0000E4604A84FF47A7416490194164DFEF7A7
:102CB000BDFA04E0029BB3B15B68AB421CD002A832
:102CC00004A9FEF7C1FA04460028F3D10198FA23BB
:102CD00003FB00F30D48A0FB0330800905F06CFAFC
:102CE00020460AB070BD306802A9064AFEF7A4FC6F
:102CF000044620460AB070BD039801A9FEF704FA05
:102D0000DDE700BFCCE80008D4F60008D34D621020
:102D1000012813DD70B506460D46012401E003F0DD
:102D2000BBFA55F8040F013403F0B6FAB442044874
:102D3000F5D1044803F0B0FA002070BD00207047C0
:102D400028F20008BCED0008F8B5037C0446002B0F
:102D50000F4614BF01258025082615E0FDF7A2FEC9
:102D6000A068FDF7D1FDA1882078FDF79BFEA06843
:102D7000FDF7CAFD2078A188FDF79CFE237C6A0040
:102D80004BB1013ED5B20AD03D426078E188E5D131
:102D9000FDF790FEE4E7013E4FEA5505F4D1E188E6
:102DA0006078FDF77FFEA068FDF7AEFD2078A18872
:102DB000FDF778FEE1886078FDF794FE0546A0688F
:102DC000FDF7A2FD2078A188FDF774FEB5FA85F025
:102DD0004009F8BDF8B5274E074656F820400D4685
:102DE000002C3DD02078A188FDF700FE6078E188B6
:102DF000FDF7FCFD2B686868A968EA6823606060DD
:102E0000A160E260A178E2782B69012505FA02F25F
:102E100005FA01F12361E280A180207889B2FDF7F3
:102E200015FE6078E188FDF727FEE1886078FDF700
:102E300041FEA068FDF768FDA1882078FDF73AFE05
:102E4000A068FDF761FDA1882078FDF72BFEA06842
:102E5000FDF75AFD6078E188FDF724FE2846F8BDAD
:102E6000142006F02BFA044610B146F82700C1E7FB
:102E7000F8BD00BFA40800202DE9F84F914CDDF803
:102E800028A054F82040002C00F0F6800D461E4685
:102E900091466078E188002B34D0FDF703FEA068EE
:102EA000FDF732FDA1882078FDF7FCFDA068FDF755
:102EB0002BFDE1886078FDF7FDFDA068FDF724FD9E
:102EC0002078A188FDF7F6FD0B9B002B5BD09DF8C9
:102ED0002C102046FFF738FF002800F0D680002E87
:102EE000C8BF761906DD15F8011B2046FFF72CFF39
:102EF000B542F8D1BAF1000F49D10C9B23B30120A0
:102F0000BDE8F88FFDF7CEFDA068FDF7FDFCA188B8
:102F10002078FDF7C7FDA068FDF7F6FCE188607832
:102F2000FDF7C8FDA068FDF7EFFC2078A188FDF74C
:102F3000C1FD0B9B23BBE3685B00D9B22046FFF7C2
:102F400003FF002800F0A180E1886078FDF7B2FD62
:102F5000A068FDF7D9FCA1882078FDF7ABFDA0683B
:102F6000FDF7D2FCA1882078FDF79CFDA068FDF755
:102F7000CBFC6078E188FDF795FD0120BDE8F88F76
:102F80009DF82C10DAE7E3685B00D9B2A1E7E1888D
:102F90006078FDF787FDA068FDF7B6FCA188207872
:102FA000FDF780FDA068FDF7AFFCE1886078FDF7D4
:102FB00081FDA068FDF7A8FC2078A188FDF77AFDC7
:102FC0000B9B002B5BD09DF82C102046FFF7BCFE1E
:102FD00000285AD0BAF1000F8FDD09F1FF390AF14C
:102FE000FF3B4FF00008237C6078002BE18814BF82
:102FF000012680260825FDF755FD002702E0013D4A
:10300000D6B21BD0A068FDF77FFC2078A188FDF721
:1030100049FD6078E188FDF765FD00B13743A068A0
:10302000FDF772FC2078A188FDF744FD237C720037
:10303000002BE4D1013D4FEA5606E3D1C345607849
:10304000E18816DCFDF72EFDA068FDF75DFCA18888
:103050002078FDF727FDA068FDF756FC08F1010870
:103060002078A188FDF726FDD04509F8017FBAD167
:1030700043E7FDF71FFDE7E72046BDE8F88FE3686B
:10308000590041F00101C9B29FE7E1886078FDF77E
:1030900011FDA068FDF738FCA1882078FDF70AFD36
:1030A000A068FDF731FCA1882078FDF7FBFCA06843
:1030B000FDF72AFC6078E188FDF7F4FC4FF0FF3063
:1030C000BDE8F88FA40800202DE9F04FADF5177D7D
:1030D00000240A1D431E012605258246894610A8A4
:1030E000A54908948DF82C408DF82D408DF82F407F
:1030F0000E948DF83C408DF82E600D95A046FEF79D
:1031000095F8A346059404949C4D9D4C9D4E09A8AA
:1031100010A9FEF799F828B3099B002B00F0A780AF
:103120005F68A74255D0AF4260D0B74263D0964A9D
:10313000974248D0954A974255D03846944908F06E
:1031400001F8002842D03846924907F0FBFF0028DA
:1031500056D1012309A810A98DF83C30FEF774F868
:103160000028D9D1049B002B40F0DB80059B002B6D
:1031700040F0DF80139A059C01325245139207AE4E
:1031800080F09B8016AD0AE0139A336801325245F5
:103190002B551392294604F1010480F08F8059F8D1
:1031A00022003146FDF7B0FF0028EDD17A4803F048
:1031B00073F8139B59F8230003F084F801200DF5F0
:1031C000177DBDE8F08F01230493A0E74FF0010BBA
:1031D0009DE70A980EA9FDF797FF002800F0C08030
:1031E0004FF0010893E70123059390E70A980DA992
:1031F000FDF78AFF8BE70A9808A9FDF785FF86E7A8
:103200003846664907F09EFF68B13846644907F0C2
:1032100099FF002835D0634A97427FF478AF139B1B
:10322000013B13939EE706A90A980A2209F0B2F916
:10323000069B8DF82C00A3B11A782E2A11D1581CA8
:1032400006905B786BB106A90A2209F0A3F9069BE8
:103250008DF82E00002B3FF45AAF1B78002B3FF463
:1032600056AF514803F050F84FF0FF3005E0D9F861
:10327000000009A9404AFEF7DFF90DF5177DBDE80A
:10328000F08F06A90A980A2209F084F9069B8DF8A6
:103290002D00002BE5D01A782E2AE2D1581C06907A
:1032A0005B78002BDDD006A90A2209F073F9069B92
:1032B0008DF82F00002BD0D129E716A9089AB8F174
:1032C000000F49D00E9B56AD8DE80C080020234618
:1032D0002A46FFF7D1FD306000283FD0013045D0AD
:1032E000089B002B1BD04FF00003336017DD1C46FA
:1032F00005E03368089A01339A4233600BDDE95CDC
:103300002A4803F02FF804444E2CF2DD0A2002F084
:1033100095FC0024EDE714B10A2002F08FFC002098
:10332000ABE70BA90020FFF755FDB0FA80F040098C
:10333000A3E71F4D2C68002CF1D02078A188FDF761
:1033400055FB6078E188FDF751FB204605F0C2FF90
:10335000049B2B60184690E74346B4E701208CE7B6
:10336000204602F0D1FF4FF0FF3086E7114802F00F
:10337000CBFF022081E700BFECE8000840F700081F
:1033800064F6000854F60008E4F7000884F7000823
:103390009CEB0008A4EB0008B0EB0008A8EB0008C9
:1033A000ACEB00084CF80008BCF70008C0EB0008C4
:1033B000A4080020BCEB0008F8B5314D074655F8CD
:1033C00020400E46002C51D020782189FDF70EFBBD
:1033D00060786189FDF70AFBA078A189FDF706FBFB
:1033E000E078E189FDF702FB72683068B368F16844
:1033F0006260E160A36094F807C02060217994F8CE
:1034000005E0A779B36972693069012505FA0EFEF6
:1034100005FA0CF605FA01F105FA07F7A3616261F6
:10342000A4F80AE02181206189B22078A781E68191
:10343000FDF7DCFA60786189FDF708FBA078A189C7
:10344000FDF704FBE078E189FDF700FBE078E18916
:10345000FDF728FB237EA078A1891BB9FDF72AFB85
:103460002846F8BDFDF71EFB2846F8BD1C2005F0D8
:1034700025FF044610B145F82700B5E7F8BD00BFA9
:10348000A0080020F8B5384B53F82050002D68D024
:103490000C464E798879CF790A79012303FA00F036
:1034A00003FA02F103FA06F6BB40A081218166818E
:1034B000E3812B78207883424CD089B2FDF796FACD
:1034C00068786378834240D06989FDF78FFA607825
:1034D0006189FDF7BBFAA878A378834230D0A98927
:1034E000FDF784FAA078A189FDF7B0FA237EA078D1
:1034F000A189002B32D1FDF7DDFAE878E378834229
:1035000003D1E279EB799A420AD0E989FDF76EFAA4
:10351000E078E189FDF79AFAE078E189FDF7C2FAEF
:1035200021686268A368E0682960E8606A60AB604F
:1035300021696269A36929616A61AB610120F8BDF3
:10354000A279AB799A42CAD1D7E762796B799A426C
:10355000BAD1C0E72B799342AFD1B1E7FDF7A2FA18
:10356000CBE72846F8BD00BFA00800202DE9F04FAA
:103570005B4C83B054F820A0BAF1000F00F0AC808F
:103580001C469AF818300D4693469AF80200BAF88D
:103590000C10002B79D1FDF78DFA9AF80300BAF8D8
:1035A0000E10FDF787FADAF81000FDF7ADF9002CE0
:1035B00078D02B1F009401930125019ADAF814307A
:1035C00052F8047F9AF8198001929AF81890002B0B
:1035D00061D00026344637E0E243134405FA03F392
:1035E0003B429AF80100BAF80A1039D0FDF75AFAAE
:1035F000C8459AF80200BAF80C1039D0FDF752FA13
:10360000DAF81000FDF780F99AF80200BAF80C1009
:10361000FDF750FA9AF80000BAF80810FDF762FAC0
:1036200048B19AF81A309BBBDAF81430013B1B1BE7
:1036300005FA03F31E43DAF81000FDF765F9DAF82E
:1036400014300134A34227D99AF81A20002AC3D093
:1036500005FA04F33B429AF80100BAF80A10C5D102
:10366000FDF728FAC8459AF80200BAF80C10C5D13F
:10367000FDF720FADAF81000FDF746F99AF8020093
:10368000BAF80C10FDF70EFAC4E7FDF70BFA84E761
:1036900005FA04F3CEE71E46009B4BF8046B013B92
:1036A00000938AD19AF818307BB19AF80200BAF8E0
:1036B0000C10FDF7F7F99AF80300BAF80E10FDF7B1
:1036C000F1F9012003B0BDE8F08F9AF80200BAF8D2
:1036D0000C10FDF7EFF9EEE7504603B0BDE8F08FB0
:1036E000A00800202DE9F04FA44FADF2544D002466
:1036F00001900A1D431E08258B46052607A8A049F0
:103700000D948DF84C408DF84D408DF84E400E973D
:103710001295A0461196A146FDF788FDA246009499
:10372000984D994C994F05A807A9FDF78DFD10B349
:10373000059B002B00F0BA805E68A6425AD0AE42CC
:1037400052D0BE4267D0924A964250D0914A964299
:1037500055D0914A96426ED03046904907F0F2FC1F
:1037600000284FD1012305A807A98DF84C30FDF79B
:103770006BFD0028DCD1BAF1000F40F08C80B8F16D
:10378000000F40F03C81009B002B40F040811E4622
:103790000A9801300A90019B984280F0588114AB3E
:1037A00003EB86045BF82000214604AAFDF7CEFC5B
:1037B000002800F06C8121460A98049B01300136F4
:1037C0000A90002B7CD00A680136802E03F1FF336B
:1037D00041F8042FF5DD7248049302F095FD0120B5
:1037E0000DF2544DBDE8F08F4FF001099BE74FF00B
:1037F000010A98E7069811A9FDF786FC93E70123D3
:10380000009390E73046674907F09CFCB0B901236C
:103810008DF84D3087E7069812A9FDF775FC002852
:1038200081D0129B013B1F2B7FF67DAF384602F003
:103830006BFD0120D4E74FF0010874E730465A4988
:1038400007F080FC18B901238DF84E306BE7304645
:10385000564907F077FC002834D03046544907F029
:1038600071FC00286DD03046524907F06BFC0028EF
:1038700000F0A8803046504907F064FC002844D08E
:103880004E4A96427FF44FAF0A9B013B0A93BAF12E
:10389000000F3FF474AF0DA90020FFF78DFDB0FAC3
:1038A00080F040090DF2544DBDE8F08FDBF80000C8
:1038B00005A9334AFDF7C0FE0DF2544DBDE8F08F67
:1038C000049368E703A906980A2208F063FE039BA5
:1038D0008DF83400A3B11A782E2A11D1581C039008
:1038E0005B786BB103A90A2208F054FE039B8DF8A4
:1038F0003800002B3FF417AF1B78002B3FF413AFB9
:103900002F4802F001FD01206AE703A906980A2268
:1039100008F040FE039B8DF83700002BF0D01A789A
:103920002E2AEDD1581C03905B78002BE8D003A918
:103930000A2208F02FFE039B8DF83B00002BDBD101
:10394000F1E603A906980A2208F024FE039B8DF8ED
:103950003500002BD4D01A782E2AD1D1581C0390D0
:103960005B78002BCCD003A90A2208F013FE039B3E
:103970008DF83900002BBFD1D5E600BF000102034E
:103980000CEA000854F6000840F7000884F6000826
:10399000E4F7000884F7000828F70008C8EB0008DF
:1039A000E8EB0008D0EB0008A4EB0008D8EB000817
:1039B000DCEB0008E0EB0008E4EB00084CF8000842
:1039C000BCF7000803A906980A2208F0E3FD039B50
:1039D0008DF83600002B93D01A782E2A90D1581CDF
:1039E00003905B78002B8BD003A90A2208F0D2FD4C
:1039F000039B8DF83A00002B7FF47EAF93E6504690
:103A00000DA9FFF73FFDB0FA80F04009E8E6274D29
:103A10002C68D4B120782189FCF7E8FF60786189AF
:103A2000FCF7E4FFA078A189FCF7E0FFE078E189EA
:103A3000FCF7DCFF204605F04DFCC5F80080404651
:103A4000CEE614B10A2002F0F9F80020C8E656B319
:103A5000002014A994AA3346FFF788FD08B3B9F1F2
:103A6000000FF2D00024254693AF01E0B542E8DA1A
:103A70000F4857F8041F02F075FC04444E2C05F162
:103A80000105F3DD0A2002F0D9F80024EEE7094829
:103A900002F002FC0A9B5BF8230002F013FC0120F9
:103AA0009EE601209CE64FF0FF3099E6A00800203A
:103AB000F0EB0008B0EB00082DE9F0478EB00024D1
:103AC0000A1D431E012605258246894608A872491B
:103AD0008DF814408DF815408DF81640ADF818603B
:103AE0000795FDF7A3FBA04627466C4D6C4C6D4E29
:103AF00003A808A9FDF7A8FB90B1039B002B73D086
:103B00005B68A34241D0AB4241D0B34246D0664A43
:103B100093423FD0654A934245D0654A9342E7D1EC
:103B2000002F71D1B8F1000F40F098800B9B5345E6
:103B300080F0A58059F8230002A9FDF7E5FA0028D6
:103B40005BD05C4B029D1C68002C59D09DB981E074
:103B5000FCF7B0FFA068FCF7D7FEA3782078A18817
:103B6000002B6ED0FCF79EFFA068FCF7CDFE05F0A1
:103B7000B3FA013D6ED005F08DFAA3782078A188C4
:103B8000002BE5D1FCF78EFFE4E70127B0E74FF00B
:103B90000108ADE701238DF81630A9E7049807A9BD
:103BA000FDF7B2FAA4E701A904980A2208F0F2FC92
:103BB000019B8DF8140093B11A782E2A0FD1581C4E
:103BC00001905B785BB101A90A2208F0E3FC019B3C
:103BD0008DF81500002B8BD01B78002B88D0364831
:103BE00002F092FB012005E0D9F8000003A92A4A5F
:103BF000FDF722FD0EB0BDE8F087304802F084FBEF
:103C000001200EB0BDE8F0872A4D2C68002C3BD077
:103C10002078A188FCF7EAFE05AB07CB206060782E
:103C2000012383406160207899B2A260A380FCF7F1
:103C30000DFFA7782078A188EFB9FCF73BFF384645
:103C4000D8E7FCF737FFA068FCF75EFE05F044FA02
:103C5000013D90D100200EB0BDE8F087154D2C68D5
:103C600084B12078A188FCF7C1FE204605F032FB24
:103C70002F603846BEE7FCF715FF0020BAE74FF08B
:103C8000FF30B7E73846B5E70C2005F017FB0446D0
:103C90000028B5D02860BFE79CE9000884F7000839
:103CA000E4F7000840F700085CF60008C4F60008D6
:103CB0007CF60008A8080020BCF7000844F80008BB
:103CC0000A462DE9F04F0026B346B046B1463746C6
:103CD00093B00691431E04320CA89D499D4C9E4D05
:103CE000FDF7A4FA079601960396029604960596A8
:103CF0000AA80CA9FDF7A8FA002835D00A9B002BCA
:103D000000F09380D3F804A0A24576D0AA457AD0DB
:103D10005046924907F016FA00286CD05046904958
:103D200007F010FA00286BD050468E4907F00AFAC7
:103D3000002874D08C4B9A4500F055818B4B9A45E6
:103D400070D08B4B9A4500F0B2808A4B9A4575D063
:103D5000029A894B0AA89A4508BF01220CA902922F
:103D6000FDF772FA0028C9D1049B002B69D1029B90
:103D7000002B40F0E180059B002B40F0BB80019BB5
:103D8000002B71D1B8F1000F40F00081002F40F0FE
:103D90002E81B9F1000F40F03F81039B002B00F012
:103DA0002081764C082627460FE0FCF7ADFD3878D9
:103DB0007988FCF777FE05F08FF92D20FCF7A4FD3C
:103DC000013E4FEA5B0B00F0B38005F063F9207809
:103DD0006188FCF76FFE1BF001054FF00F00E4D186
:103DE0003C20FCF791FD38787988FCF75BFE05F004
:103DF00073F92846E2E701277AE74FF0010877E7F1
:103E00004FF0010974E70B9808A9FDF77DF9002828
:103E10003FF46EAF01239DF820B0039368E70123C0
:103E2000019365E70123059362E7069B0AA91868D9
:103E3000474AFDF701FC13B0BDE8F08F012304935E
:103E400056E74E4C079A0123B34099B2104663805F
:103E500022706670FCF710FE20786188FCF722FE65
:103E6000002013B0BDE8F08F444C05F013F96188D1
:103E70002078FCF71FFE0120FCF746FD61882078C2
:103E8000FCF710FE0920FCF73FFD61882078FCF765
:103E900029FE044605F020F93220FCF735FD211CEF
:103EA00018BF0121364802F05DFA0598C3E70A22DF
:103EB00009A90B9808F06EFB099BC2B207929BB14F
:103EC0001A782E2A10D1581C09905B7863B109A981
:103ED0000A2208F05FFB099BC6B2002B3FF408AF33
:103EE0001B78002B3FF404AF264802F00DFA4FF088
:103EF000FF30A0E7214C61882078FCF7DBFD4FF410
:103F0000FA70FCF701FD05F0C5F861882078FCF730
:103F1000C9FD3C20FCF7F8FC61882078FCF7E2FD45
:103F2000044605F0D9F84FF49670FCF7EDFC54B94F
:103F3000002013B0BDE8F08F104B18785988FCF7BB
:103F400055FD049877E7104802F0BCF9012072E7AC
:103F5000FCEA000854F60008C8F70008F8EB00086F
:103F6000FCEB000800EC000814F800088CF70008CF
:103F7000C4F60008E4F7000884F70008AC08002045
:103F8000B8F10008BCF7000804EC0008DDF804A054
:103F90002C4C082705F07EF861882078FCF78AFD14
:103FA0000120FCF7B1FC61882078FCF77BFD09203B
:103FB000FCF7AAFC61882078FCF794FD054605F023
:103FC0008BF83220CAF3470AFCF79EFC0DB14AF089
:103FD000800A013FDED151461B4802F0C3F9384642
:103FE00029E7012027E70F9B013B0F93BCE6154C07
:103FF00005F050F861882078FCF75CFD3C20FCF768
:1040000083FC20786188FCF74DFD05F065F840469B
:10401000FCF77AFC40460EE70A4C05F03BF8618855
:104020002078FCF747FD0F20FCF76EFC20786188B4
:10403000FCF738FD05F050F82D20FCF765FC3846FC
:10404000F9E600BFAC080020B8F1000838B5084B0D
:10405000044618680D4618B1214607F073F830B9C8
:1040600029462246BDE83840024802F07BB938BDF7
:10407000B0080020A0ED00082DE9F047DCB00024D6
:10408000431E0A1D8A4608A887498DF838402746EE
:10409000A046FDF7CBF8A146844D854E08A904A89B
:1040A000FDF7D2F88349044608B3049B002B4FD098
:1040B0005C68AC420DD0B4420ED0204607F042F806
:1040C0007D4B58B19C42E9D10EA8059907F018F92B
:1040D000E4E74FF00108E1E70127DFE706A8FCF776
:1040E00091FE02A8FCF726FF4FF00109D6E79DF8E4
:1040F0003830002B00F08A80B8F1000F01D1002F7A
:1041000043D0002002F0B0FA064678B307F056F923
:10411000054640B3694B6A490EA8002F08BF1946EF
:10412000FEF70EFA0746F0B1B9F1000F76D131462D
:104130002A46FEF709FBA8421DD03846FEF72EFBA3
:104140000124304605F0C6F820465CB0BDE8F08793
:10415000DAF8000004A9544AFDF76EFA0446204636
:104160005CB0BDE8F087304605F0B4F80124204685
:104170005CB0BDE8F0873846FEF710FB304605F02E
:10418000A9F820465CB0BDE8F08703A90EA8FEF7A9
:104190005FF90028EAD00EA84A49FEF7D1F9054692
:1041A0000028E3D02746B9F1000F14BF64224FF472
:1041B0008C72284616A9FEF785FA061E62DB374484
:1041C00056D016A83146B9F1000F22D006AB2FAA5F
:1041D000FCF71EFE01462FA802F04EF86423B342FE
:1041E00046DC039B9F4243DA0DF107000021FCF7F8
:1041F000A7FD0130D7D09DF80730032BF4D1284616
:10420000FEF7CCFA0A2001F019FDA8E74FF0FF34C1
:10421000A5E702F031F84FF48C73E0E730464FF039
:1042200000080378002BA6D00A2B1BD0431C01E00A
:104230000A2A19D01D46191A13F8012B002AF7D1A2
:10424000002998D016AA02ABFCF778FE814638B157
:10425000384616A94A46FEF777FA48457FF46DAF0F
:104260002846DEE70546002185F800800135E7E7AE
:10427000B9F1000F0ED12846FEF790FA124802F06D
:104280000BF86CE72846FEF789FA0A2001F0D6FC05
:10429000012464E706A916A8FCF71EFE014616A82D
:1042A00001F0EAFFE7E700BF50ED0008C8F700089B
:1042B00010F70008B4ED000800F70008B0ED0008A2
:1042C000ACED0008E8F80008BCED00082DE9F04767
:1042D00092B0431E0A1D0F4604A84649FCF7A6FFEC
:1042E000454D0026684604A9FCF7AEFF044668B1B8
:1042F000009B002B45D05B68AB42F3D1684604A914
:10430000019EFCF7A1FF04460028F1D18DF828009A
:10431000002E40D002A93046FEF740F8002864D0B5
:104320000DF1280830464146FEF764F82546334F24
:10433000DFF8D49057F83560E6B1304602A906F0B0
:1043400001FF2F23B0B99DF828203146002A14BF61
:10435000424600220DF109008DF80830C9F800200E
:1043600006F0CEFF3146264801F0FCFF02A82549A1
:10437000FEF73CFA0135032DDCD1204612B0BDE832
:10438000F087386869461B4AFDF756F9044620460F
:1043900012B0BDE8F0870DF128084146FEF72AF873
:1043A0002546164FDFF860A057F835602F230DF132
:1043B00009000135B6B19DF828200DF14809002A01
:1043C00014BF4246002209F8403D3146CAF8002099
:1043D00006F096FF31460A4801F0C4FF48460949F5
:1043E000FEF704FA032DDFD1C7E70124204612B0FF
:1043F000BDE8F087E8ED000874F60008782F00208B
:10440000B8ED00084D400008B008002008B5FCF7E2
:10441000A1F9FEE72DE9F04F0E46002215469DB0AA
:104420004FF47A7304468B460F92109211921292B7
:1044300013920D93FCF7C8FA3246A946AA46A8463D
:10444000631E0990043216A8A349FCF7EFFEA34CA3
:104450004FF0FF33A24EA34F0495029500950795A8
:104460000595039501950895069314A816A9FCF7E0
:10447000EBFE00282DD0149B002B00F092805B688F
:10448000A34262D0B34263D0BB4266D0964A934205
:1044900068D0964A93426AD0954A93426CD0954A26
:1044A000934200F08C80944A934269D0934A93429D
:1044B00000F08280924A9342D7D10DA91598FCF75B
:1044C00023FE012314A816A90893FCF7BDFE0028BB
:1044D000D1D18346B8F1000F5AD040460A220EA926
:1044E00008F058F80E9A804622B111782E294AD049
:1044F00000294DD1CDF828B04FF0FF34B8F1000FAE
:1045000046DB099B434543DD0A9B002B5ED1B9F195
:10451000000F40F0D180009B002B40F05B81029B9C
:10452000002B40F06481049B002B40F0CD80002DD7
:104530004ED0079813A9FCF7E7FD002848D1714831
:1045400001F0E2FE4FF0010B27E0DDF854808CE72C
:10455000DDF854A04FF0010987E7159B0193012373
:10456000009382E7159B0393012302937DE7159B3C
:1045700005930123049378E7159B0125079374E7BE
:104580000123069371E7501C0E905278002A7DD1CA
:104590005D4801F0B9FE4FF0010B58461DB0BDE873
:1045A000F08FDBF8000014A94B4AFDF745F883466D
:1045B00058461DB0BDE8F08F0023069355E70999D2
:1045C000524801F0CFFE4FF0000BE6E71F2CDFD87A
:1045D000B9F1000F68D1009B002B40F0F880029BDE
:1045E000002B40F01481049B002B40F0228185F0C9
:1045F00001030993012202FA04F30B932B464D4663
:104600009946434F0A9B002B00F0848045B1069BDE
:104610005A1C00F0E7801A4640460B99FCF7FCF95B
:10462000009B002B40F0BC80029B002B40F0B3802D
:10463000049B002B3BD1B9F1000F40F0C380099BD4
:10464000002B40F0B280089B002BA6D00D9BFA24D3
:10465000032B9CBF04230D9303F064FC064603F078
:1046600061FC0D9B022104FB03F3A7FB032306EB74
:1046700093139842C6D20DF13300FCF761FB013071
:10468000EDD09DF83330032BE9D186E70A220EA93D
:1046900007F080FF0E9A04461AB11278002A7FF4C0
:1046A00077AF01230A9329E700230993A2E7404645
:1046B0000B99FCF7FFF9BEE750460FA9FCF724FD64
:1046C00000283FF43CAF26E7059812A9FCF71CFD33
:1046D00000283FF434AF2AE708EE000824F8000869
:1046E00008F7000848F7000894F7000880F700086A
:1046F000F8F6000844F80008E8F60008DCF60008C0
:104700008CF6000838F80008BCF70008B8F100087B
:10471000D34D62105DB1069B013370D0BAF1000F2A
:1047200000F084800F994046069AFCF775F9009BCB
:1047300033B1019B002B6DD010994046FCF786F9F0
:10474000029B33B1039B002B67D011994046FCF7C5
:10475000A9F9049B33B1059B002B61D01299404607
:10476000FCF7A8F9B9F1000F06D0079B002B5AD02F
:1047700013994046FCF7A6F9099B002B3FF463AF61
:104780004FF0FF314046FCF7ADF901F00BFE2B482E
:1047900001F082FD57E740460B99FCF783F947E7A4
:1047A00040460B99FCF752F93EE740460B99FCF75F
:1047B00099F9234A234B002814BF1046184601F0EC
:1047C0006BFD40E740460B99FCF77CF937E7CDF8E5
:1047D00024900FE7019810A9FCF796FC00283FF4FD
:1047E000AEAE9CE640460B99FCF700F918E703983B
:1047F00011A9FCF789FC00283FF4A1AE93E6BAF1B9
:10480000000F19D00F994046FCF7F0F88FE7009B96
:104810000993EFE64FF0FF318FE74FF0FF3195E757
:104820004FF0FF319BE74FF0FF31A2E74FF0FF3130
:1048300079E7029B0993DDE60699E4E7BCED000801
:10484000B8EE0008BCEE00082DE9F04F8BB007462B
:104850008A46FBF761FF4FF0FF357B1904460AF1EA
:10486000040204A85E490195FCF7E0FC2E46A84628
:104870005C4F5D4DDFF88C9102A804A9FCF7E4FCC5
:104880008346D0B1029B002B45D05B68AB4234D04D
:10489000BB4235D04B4536D0544A934236D0544A69
:1048A000934243D0534A02A804A99A4208BF012662
:1048B000FCF7CAFC83460028E4D1012E40D00198C1
:1048C0000028C0F28680844240F38380B8F1000F54
:1048D00076D0B8F1010F79D0B8F1020F73D0FBF7A1
:1048E0002FFF454A454B002814BF1046184601F0DB
:1048F000E9FC58460BB0BDE8F08F4FF00008BBE76D
:104900004FF00108B8E74FF00208B5E7039801A996
:10491000FCF7FAFBB0E7DAF8000002A9304AFCF72E
:104920008BFE834658460BB0BDE8F08F21464FF012
:10493000000B334801F016FD58460BB0BDE8F08F70
:10494000002C019006DDFBF7E9FE0198013084425E
:104950000190F8DC00252E460DF103003E21FCF706
:10496000EFF9013003D09DF80330032B19D0002C50
:10497000019608DD55B92846FBF7D6FE01980130AF
:10498000A0420190F8DB85F00105E5E70020FBF788
:10499000C5FE0198013084420190F8DC85F00105E4
:1049A000DAE7002084420190BCDDFBF7BDFE0198F0
:1049B000013084420190F8DC58460BB0BDE8F08F1E
:1049C000FBF7B2FEAEE7FBF7B5FEABE7FBF7A6FEE3
:1049D000A8E7064801F098FC4FF0FF3BA2E700BFB4
:1049E000E4EF000894F7000880F7000870F700086B
:1049F00044F8000818F70008C0EE000824ED00088D
:104A0000B8F10008F8F600082DE9F04FCBB0431ECE
:104A10000A1D4FF0FF3500248B4604A85649009527
:104A20000195A246FCF702FCA146544E544FDFF814
:104A30006C8102A804A9FCF707FC0546B8B1029BEB
:104A4000002B70D05B68B3424DD0BB4250D0434581
:104A500043D04C4A934243D04B4A02A804A99A42FD
:104A600008BF0124FCF7F0FB05460028E7D1002C25
:104A700043D00DF12808404629464FF48072FBF7D9
:104A800087FB2F462E464FF4803407E0013631462F
:104A90002346274401F066FC3F2E0CDC204604F040
:104AA0000DFC0246394848F82620002AEED104EBD6
:104AB000D4746410F0D13A463548364901F052FCBE
:104AC00009AC49AE54F8040F08B104F003FCB44239
:104AD000F8D128464BB0BDE8F08F4FF00109A8E7A8
:104AE0004FF0010AA5E703986946FCF70DFBA0E724
:104AF000039801A9FCF708FB9BE7B9F1000F1DD053
:104B0000BAF1000F2FD10198431C012B25D904F0D5
:104B1000D5FB034620481946009301F023FC2846A4
:104B20004BB0BDE8F08FDBF8000002A9124AFCF799
:104B300083FD054628464BB0BDE8F08FBAF1000F63
:104B4000C7D0009B5A1C03D0184604F0C3FBC0E733
:104B50000A481D4601F0D8FBBBE7094801F0D4FB29
:104B60004FF0FF35B5E7DBF800000349FCF786FCA2
:104B70004FF0FF35ADE700BF44F1000864F60008D0
:104B80006CF6000850F7000818F70008A4F10008B8
:104B9000B4F100081CF80008BCF1000894F6000805
:104BA000F0B58DB0431E0A1D0F4606A81A49FCF742
:104BB0003DFB0025194E05E0049B1BB35B68B34227
:104BC00008BF012504A806A9FCF73EFB04460028FF
:104BD000F2D102A803A96DB101F0A8FE70B1039B48
:104BE000029A00930E490F4B0F4801F0BBFB204681
:104BF0000DB0F0BD01F046FE0028F0D101242046A2
:104C00000DB0F0BD386804A9034AFCF715FD044651
:104C100020460DB0F0BD00BF54F00008BCF60008FF
:104C200064F600086CF60008C4F100080A462DE995
:104C3000F04F4FF00009C846CA46CB4691B04FF03E
:104C4000FF3610250191431E0596069504320AA8E9
:104C50000124A149A14DA24EA24F0794FCF7E6FA08
:104C6000CDF8009008A80AA9FCF7EEFA00B3089B5B
:104C7000002B65D05B68AB4246D0B3424CD0BB4200
:104C80004FD0994A93423CD0984A934241D0984A97
:104C900093424BD0974A93424DD0974A08A80AA90D
:104CA0009A4208BF4FF00108FCF7CEFA0028DED187
:104CB000009A059B01925A1C04464646CDF808A06E
:104CC00000F03B82079B5A1E012A02D9042B40F0B8
:104CD000CE81BBF1000F3ED1BAF1000F02D0012B03
:104CE00000F0B480B8F1000F02D0042B00F0F68180
:104CF000009B002B00F0B68100260123029603934F
:104D00002DE04FF0010BADE7099805A9FCF7FCF980
:104D1000A8E74FF0010AA5E7099806A9FCF7F4F9FE
:104D2000A0E7099807A9FCF7EFF99BE701234FF0EB
:104D30000009009396E74FF00109CDF8009091E744
:104D4000019B08A91868644AFCF776FC04462046D3
:104D500011B0BDE8F08F00260396019602960096EA
:104D60005E460027069B9F42F1DAE6B1079BDDF81D
:104D700014B0012B00F00C81022B6AD0042B00F040
:104D8000CB805E4801F088FA0DF113000021FBF79B
:104D9000D7FF0130E6D09DF81330032BF4D1204625
:104DA00011B0BDE8F08F5648059901F0DBFA079B7A
:104DB000DDF814B0012BDFD15B46B84635461978D3
:104DC000504801F0CFFA059B069A08F1010801331B
:104DD0009045059380F2EF800135102DEFD1029BB5
:104DE000002B40F00881019B0BB94746C9E75D469F
:104DF000454801F051FA0BF1100B7F1BB9F1000F80
:104E000016D101E000F01AFF15F9011B3F4801F02F
:104E1000A9FA069BEA199A424FF0200001DAAB4545
:104E2000F0D17C20474600F009FFAAE700F006FF1A
:104E300015F8011B364801F095FA069AEB199A42CB
:104E40004FF02000EDDDAB45F0D1EAE703935E467D
:104E500085E7B8465B46002E40F0BC803546198891
:104E60002C4801F07FFA059B069A08F102080233EC
:104E70004245059340F306810135082DEFD1019B92
:104E8000002BB2D05D46204801F006FA0BF1100B62
:104E90007F1BB9F1000F0FD135F9021B1B4801F040
:104EA00061FA069BEA199A424FF02000B9DA5D4593
:104EB000B7D000F0C3FEEFE735F8021B144801F04D
:104EC00051FA069AEB199A424FF02000A9DD5D4590
:104ED000A7D000F0B3FEEFE7B4F0000864F60008D6
:104EE0006CF6000884F60008F4F700089CF6000849
:104EF000F4F60008ECF70008BCF6000868F80008B3
:104F0000D8F10008E0F10008F4F10008F8F1000819
:104F1000FCF1000800F20008002E40F08A803D46B7
:104F20005B46B0461968874801F01CFA059B069A53
:104F300004350433AA42059340F3EC8008F10108DC
:104F4000B8F1040FEED1009B002B40F0AA80019B2A
:104F5000002B00F085807C4801F09EF9B9F1000F2C
:104F600040F0C180D8460BF1100BC8EB070758F88A
:104F7000041B764801F0F6F9069A08EB07039A42FB
:104F80004FF0200079DDC34577D000F057FEEEE703
:104F9000B8465B46002519786D4801F0E3F9059B9A
:104FA000069A08F1010801339045059303DA0135AB
:104FB000102DF0D113E7039B002B3FF410AF013508
:104FC000102D3FF40CAF0135624801F065F9102D4A
:104FD000F9D104E7002519885F4801F0C3F9059B62
:104FE000069A08F102080233904505934ADA013522
:104FF000082DF0D143E75D46534801F04DF9DFF845
:1050000078A17F1B0BF1100B15F8012BDAF800309B
:105010002E2013445B7813F0970F18BF104600F052
:105020000DFE069B7A199A42BFF6FBAE5D45EBD1A9
:10503000F7E65B46BA4607F110054FF0000819681D
:10504000464801F08FF9059B069A0AF1040A0433D9
:10505000924505935DDAAA4508F10108EFD172E7A0
:105060002F468EE6019303931E46029377E63C4853
:1050700001F04AF94FF0FF3469E67C202F4600F03A
:10508000DDFD7EE6039B002B3FF4F9AE0135082DD4
:105090003FF4F5AE0135334801F0FEF8082DF9D1A3
:1050A000EDE62948D846CBEB07070BF1100B01F0D2
:1050B000F3F858F8040B04F0D1FB02460B462A48DB
:1050C00001F050F9069B08EB07029A424FF02000CE
:1050D000D3DAC345D1D000F0B1FDEAE70123039351
:1050E000002302933BE6D8460BF1100BC8EB0707F1
:1050F00058F8041B1D4801F035F9069A08EB070320
:105100009A424FF02000B8DDC345B6D000F096FDBE
:10511000EEE75546039B002B3FF415AF08F101085D
:10512000B8F1040F3FF40FAF08F10108104801F087
:10513000B3F8B8F1040FF7D105E70E481C4601F0AB
:10514000E3F804E610F20008F4F10008F8F10008B2
:10515000E8F10008F0F1000808F2000818F2000871
:1051600084F6000824F200082CF20008FCF1000884
:1051700020F2000864F60008340400202DE9F04114
:105180008CB00A1D431E4FF0FF37012605460C4622
:1051900006A83E4901970296FCF748F83C4E3D4F61
:1051A000DFF8F88004A806A9FCF74EF860B1049B6C
:1051B000002B4CD05B68B34231D0BB4234D0434566
:1051C000F0D1099B013B0993019E731C59D0029BAE
:1051D0005A1E012A01D9042B4DD1099B0133AB4240
:1051E000099318D254F8230003A9FBF78DFF002878
:1051F00035D0029B022B23D0042B1AD0012BECD1EB
:10520000019B039A1A70019B01330193099B01339F
:10521000AB420993E6D300200CB0BDE8F0810598BD
:1052200001A9FBF771FFBDE7059802A9FBF76CFF29
:10523000B8E7019B039A1A60019B04330193CCE702
:10524000019B039A1A80019B02330193C5E72068F2
:1052500004A90E4AFCF7F0F90CB0BDE8F0810E4845
:1052600001F01AF8099B54F8230001F02BF80120F3
:105270000CB0BDE8F081074801F046F84FF0FF3070
:10528000EAE7034801F040F83046E5E774F000082B
:1052900064F6000884F60008B0EB000814F8000873
:1052A0002DE9F0418CB04FF0FF34431E0A1D01255B
:1052B000884606A859490094019402940395FBF787
:1052C000B5FF574D574E584F002404A806A9FBF7C9
:1052D000BBFFB0B1049B002B7ED05B68AB423FD0DC
:1052E000B34242D0BB4245D0504A934247D0504A85
:1052F00004A806A99A4208BF0124FBF7A5FF0028CD
:10530000E8D1009D6E1C00F08480039B5A1E012A88
:1053100001D9042B6DD1029D691C70D0019D6A1CBE
:1053200072D0002DC8BF002207DC16E0042B35D058
:10533000012B29D01A44AA420FDA022BF6D1002CF5
:1053400035D00099BDF90860B1F90070B7424CD171
:105350001A440231AA420091EFDB0CB0BDE8F081A3
:1053600005986946FBF7D0FEAFE7059802A9FBF761
:10537000CBFEAAE7059801A9FBF7C6FEA5E70598AD
:1053800003A9FBF7C1FEA0E7C4B100999DF808602E
:105390000F78B7422BD101310091CBE7ACB1009926
:1053A000029E0F68B74220D104310091C2E7009BF2
:1053B000029919800099039B019DC9E7009B0299FE
:1053C00019700099039B019DE5E7009B0299196004
:1053D0000099039B019DE7E7D8F8000004A90F4A54
:1053E000FCF72AF90CB0BDE8F0810120B5E71846BA
:1053F000B3E70E4800F088FF4FF0FF30ADE70948F3
:1054000000F082FF2846A8E7074800F07DFF284605
:10541000A3E7034800F078FF28469EE72CF3000836
:1054200064F6000878F700086CF6000884F60008B7
:1054300018F7000810B50F4890B000F02DFF2C2091
:1054400000F0FCFB0C4800F03DFF10AC002304F81A
:10545000403D2046FBF790F910B19DF8003013B99C
:10546000002010B010BD204600F02CFF002010B02E
:1054700010BD00BFB4F700088CF3000808B5FBF7B7
:1054800027F9002008BD00BF036801330360FBE774
:1054900030B58DB00D46431E0A1D06A80F49FBF717
:1054A000C5FE01E0009B7BB1684606A9FBF7CCFE78
:1054B00004460028F6D1012102A8FBF7CFFD00F039
:1054C00001FF20460DB030BD28686946034AFCF74D
:1054D000B3F8044620460DB030BD00BF90F300087D
:1054E0002DE9F04FADF2AC4D431E0A1D0F460FA83B
:1054F000002695490B96FBF799FE944C0DA80FA931
:10550000FBF7A2FE60B10D9B002B2FD05B68A3427E
:10551000F4D10DA80FA90E9EFBF796FE0028F2D13C
:1055200005461EB330468A4905F00CFE28B13046C8
:10553000884905F007FE00286FD115A803F0A4FAEA
:1055400015992AA8002202F05DFE031E079313DDC1
:105550000DF12B032AAC002708930995237B042B1C
:1055600055D8DFE803F04F4A45400E0038680DA9D2
:10557000754AFCF761F8054628460DF2AC4DBDE8CA
:10558000F08F089B44261E7033462668D4F80880A6
:1055900030466568D4F81090D4F814A0D4F81CB044
:1055A000069303F06FFAB4F820E0069B4FEA8E0EE4
:1055B00004900096CDF80490CDF808A0CDF80CB07A
:1055C00041462A46CDF814E0634800F0CBFE079B25
:1055D0000137BB4204F12404C0D1099D28460DF2D5
:1055E000AC4DBDE8F08F089B53261E703346CCE7C8
:1055F000089B42261E703346C7E7089B52261E7042
:105600003346C2E7089B58261E703346BDE74FF06D
:105610003F02089B1A703F23B7E730464F4905F019
:1056200091FD002863D030464D4905F08BFD0028E0
:105630005DD030464B4905F085FD002800F0B08074
:105640003046494905F07EFD002800F0A98030462B
:10565000464905F077FD002800F0AD813046444909
:1056600005F070FD002800F0A6813046414905F0A4
:1056700069FD30B13046404905F064FD00287FF4F3
:1056800075AF3E4B3E485A689C680692DA681968C6
:1056900009925A6AD3F81090D3F814809F69DE6992
:1056A000D3F830B0D3F834A0089207941C6A00F005
:1056B00059FE0699334800F055FE0799099A324879
:1056C00000F050FE59465246304800F04BFE494625
:1056D00042462F4800F046FE394632462D4800F03B
:1056E00041FE2146089A2C4800F03CFE44E72C4637
:1056F00015AE02E0082C3FF43FAF204631460BAA1E
:1057000002F0A2F801340028F4D030682AA902F08F
:10571000B5F80028EED02F9F2A98DDF8ACC0069788
:105720002D9F32680797C0EB0C070497069F0290E5
:105730000097079F0B992E9BCDF80CC00197174837
:1057400000F010FED6E700BFA0F30008C8F600087E
:1057500058F50008C0F30008C8F30008FCF300087F
:1057600000F4000868E300083CF400085CF5000859
:1057700060F500085CE500087CF50008CC2F0020EF
:1057800080F500088CF5000898F50008A8F50008D9
:10579000B8F50008C8F50008D8F5000808F40008B6
:1057A000B54800F079FD3A2000F048FA06242020A0
:1057B00000F044FA013CFAD1B04BB148196800F04E
:1057C000D1FDB04800F068FD3A2000F037FA0D2412
:1057D000202000F033FA013CFAD1FA2115AEA84896
:1057E00000F0C0FD304603F04FF9A74800F054FD2B
:1057F0003A2000F023FA202000F020FA3168A04877
:1058000000F0B0FDA14800F047FD3A2000F016FA84
:105810000524202000F012FA013CFAD1B168984822
:1058200000F0A0FD9A4800F037FD3A2000F006FA9B
:105830000A24202000F002FA013CFAD13169904894
:1058400000F090FD934800F027FD3A2000F0F6F9B3
:105850000724202000F0F2F9013CFAD17169884850
:1058600000F080FD8C4800F017FD3A2000F0E6F9CA
:105870000B24202000F0E2F9013CFAD1B4690DF1CB
:105880008C08204603F06CF921460246834800F05C
:1058900069FD062458F8047D2AA9384603F062F908
:1058A000214603463A467E48013C00F05BFD631CFE
:1058B000F0D17C4800F0F0FC3A2000F0BFF905245C
:1058C000202000F0BBF9013CFAD1B46B2AA9204694
:1058D00003F048F921460246704800F043FD724843
:1058E00000F0DAFC3A2000F0A9F90524202000F0AD
:1058F000A5F9013CFAD1F46B2AA9204603F032F94C
:1059000021460246654800F02DFD684800F0C4FCC1
:105910003A2000F093F90624202000F08FF9013C92
:10592000FAD1346C2AA9204603F01CF9214602461C
:105930005A4800F017FD5E4800F0AEFC3A2000F037
:105940007DF9202000F07AF9746C2AA9204603F032
:1059500009F921460246514800F004FD554800F07F
:105960009BFC3A2000F06AF90524202000F066F93B
:10597000013CFAD1B46C2AA9204603F0F3F8214681
:105980000246464800F0EEFC4B4800F085FC3A2009
:1059900000F054F90424202000F050F9013CFAD121
:1059A000F46C2AA9204603F0DDF8214602463B4864
:1059B00000F0D8FCE0E50023184606210C9302F025
:1059C000C5F906202AA915AA8DE807000CAB3B48AB
:1059D0003B49202202F0EAF80646002846D00DF1A5
:1059E0002B030C9C1F460893FBF790F805E0FBF790
:1059F0008DF83C78032C31D00C9C38467D21FBF788
:105A00009FF90130F3D1FBF781F80C9B30461B1B4B
:105A100000215F0002F09AF90020032102F096F9BC
:105A20000C9CDDF820904FF064084846FA21FBF703
:105A300087F9013007D099F80030032BF5D13046B3
:105A400002F0EEF898E50C9B1E48191B08FB01F1CB
:105A5000B1FBF7F11C4600F085FCE6E7304602F0AA
:105A6000DFF82146002002F071F985E5032102F0FC
:105A70006DF9012580E500BF44F400082C040020E6
:105A8000B8F1000854F4000860F4000878F4000845
:105A90008CF4000898F40008A8F40008B4F4000896
:105AA000C0F40008E4F40008F8F400080CF500085D
:105AB0001CF5000834F5000848F500088954000872
:105AC00068F5000874F50008F0B500230B70037842
:105AD00005463BB1202B01D0092B74D115F8013FAD
