:020000040800F2
:1000000000500020250200088502000839A50008DC
:100010008502000885020008850200080000000033
:100020000000000000000000000000008502000841
:100030008502000800000000BFA40008A5410008D8
:100040008502000885020008850200088502000874
:100050008502000885020008850200088502000864
:100060008502000885020008850200088502000854
:100070008502000885020008850200088502000844
:100080008502000885020008850200088502000834
:100090005137000885020008850200088502000823
:1000A0008502000885020008850200088502000814
:1000B0008502000885020008850200088502000804
:1000C00085020008850200088502000885020008F4
:1000D00085020008850200088502000885020008E4
:1000E00085020008850200085D3700080000000056
:1000F0000000000000000000000000000000000000
:0C01000000000000000000005FF808F1A3
:10010C003C6D637573683E003230323030393132B9
:10011C002D313534353332004D4355534820646509
:10012C007369676E65642062792050656E67205331
:10013C0068756C696E2C20616C6C207269676874D0
:10014C00732072657365727665642E0A68747470B8
:10015C00733A2F2F6769746875622E636F6D2F70F9
:10016C00656E677368756C696E2F6D637573680067
:01017C000082
:08018000B0E8000001000000DE
:1001880070B4840746D0541E002A41D0CDB203462D
:1001980002E0621EE4B3144603F8015B9A07F8D143
:1001A800032C2ED9CDB245EA05250F2C45EA054585
:1001B80019D9264603F11002103E0F2E42F8105CA2
:1001C80042F80C5C42F8085C42F8045C02F1100248
:1001D800F2D8A4F1100222F00F0204F00F0410323A
:1001E800032C13440DD91E462246043A032A46F826
:1001F800045BFAD8221F22F003020432134404F0ED
:1002080003042CB1C9B21C4403F8011BA342FBD15F
:1002180070BC704714460346C2E700BF002103E0E4
:100228000F4B5B58435004310E480F4B42189A420B
:10023800F6D30E4A02E0002342F8043B0C4B9A42E4
:10024800F9D30C4A03E05FF0A53342F8043B0A4BAC
:100258009A42F8D300F014F80AF096F970470000B3
:10026800E80A010800000020580A0020580A002067
:10027800FC340020004E002000500020FEE7000063
:1002880010B4104B104A1968104841F00101196068
:1002980059684FF41F040A405A601A684FF0006109
:1002A80022F0847222F480321A601A6822F48022C2
:1002B8001A605A6822F4FE025A609C6081605DF8F8
:1002C800044B7047001002400000FFF800ED00E00A
:1002D8004FF6FF02064900F00700CB681A4042F0CB
:1002E800BF6343F4003343EA0023CB60704700BF89
:1002F80000ED00E030B4184BDB68C3F30223C3F110
:100308000705042D03F1040428BF0425062C17D97A
:10031800033B01249C40013C22400124AC40013CA9
:1003280021409940002842EA01020CDB120100F149
:100338006040D2B200F5614080F8002330BC7047BD
:1003480000221346E9E7054B00F00F001201D2B274
:1003580003441A7630BC704700ED00E0FCEC00E086
:10036800002807DB044A00F01F01012340098B40E5
:1003780042F82030704700BF00E100E02DE9F04F5F
:10038800002583B02A46DFF8C8E16B4CDFF8C4C10A
:1003980003E00132102A00F0858001230E689340A3
:1003A8001E409E42F5D14B68122B00F09F8000F250
:1003B8008980022B00F09F807FD9032B00F0998061
:1003C800112B01D1CD680435FF2E6ED88246036803
:1003D8004FEA820B4FF00F0909FA0BF823EA0808D5
:1003E80005FA0BF348EA0303CAF800304B68DB0050
:1003F800CFD5524B514FD3F8188022F0030348F061
:100408000108C7F81880D7F8188003F1804308F06E
:100418000108CDF8048003F5803302F00308DDF805
:1004280004A04FEA8808D3F808A009FA08F970452B
:100438002AEA090A72D0604573D0414FB84275D094
:10044800404FB8420CBF4FF003094FF0040909FAB6
:1004580008F949EA0A09C3F808904B68013213F40D
:10046800803F236814BF3343B34323604B6813F4BE
:10047800003F636814BF3343B34363604B6813F4AE
:10048800801FA36814BF3343B343A3604B6813F4BE
:10049800001FE36814BF1E4323EA0606102AE6601D
:1004A8007FF47BAF03B0BDE8F08FA2F1080B43687F
:1004B8004FEA8B0B00F1040A8CE79BB1012B83D127
:1004C800CD6881E7204FBB420CD017D91F4FBB42E4
:1004D80008D007F58037BB4204D0DFF87C8043455D
:1004E8007FF472AF8B689BB904256DE7CD680C3536
:1004F8006AE7002568E7CD68083565E7DFF85C80BE
:100508004345EFD008F5803843457FF45DAFE9E710
:10051800012B0CBF06614661082555E74FF000091D
:1005280097E74FF0010909FA08F992E74FF0020935
:1005380009FA08F98DE700BF0004014000100240E5
:10054800001001400014014000002110000031108B
:1005580000080140000C01400000221000001110AA
:10056800002869D0F0B590F8293487B0054603F023
:10057800FF02002B5BD02E46032385F82934286818
:1005880000F07AFF56F810EB6C4637460FCF0FC4D1
:100598003B682F1D236097E80E00704600F05AFF55
:1005A8000021286800F072FF00210C462B462A46DD
:1005B800012082F82810918601310F2982F829003C
:1005C80082F82B409463D463146402F12002F0D1C2
:1005D8000022114683F828229A8601320F2A83F8CE
:1005E800291283F82B12C3F83812C3F83C12C3F847
:1005F80040124FF0000403F12003EBD1EE460FCE7A
:10060800D5F800C0AEE80F0033686046CEF8003079
:1006180097E80E0000F03CFF012385F82440286885
:1006280085F8293401F0B0FB204607B0F0BD80F80A
:10063800282402F057FF9EE70120704790F82824ED
:10064800012A01D10220704710B50446012180F823
:10065800281403F077F8206801F094FB206800F074
:1006680001FF002084F8280410BD00BF10B590F8E1
:1006780028340446012B01D1022010BD84F824102F
:10068800012380F82834006801F076FB002084F804
:10069800280410BD38B5CCB20546200619D4084642
:1006A80005EB411101F50A71E4094C7008700A6103
:1006B800CB7095F82834012B01D1022038BD0123D5
:1006C80085F82834286800F0FDFE002085F8280405
:1006D80038BD01F07F0005EB40112831E4E700BF89
:1006E800CBB21A0610B5044617D40A4600EB4111DE
:1006F80001F50A71DB094B700A7094F82834012B54
:1007080001D1022010BD012384F82834206801F0AB
:100718007FF8002084F8280410BD01F07F0200EB68
:1007280042112831E6E700BFF8B501F07F014D011D
:100738004419002684F82812C4F83C22C4F8403230
:10074800C4F8446284F8296205F50A7541190068FD
:1007580001F04CF93046F8BD01F00F0100EB4110F3
:10076800B0F84402704700BFF8B501F07F014D01B1
:1007780044190026012784F82810E263236484F8CA
:100788002970666405F128010144006801F02EF91A
:100798003046F8BD2DE9F043044683B0006801F007
:1007A800F5FA020444D4206801F0F0FA430500F198
:1007B8001982206801F0EAFA470408D52268B2F8DD
:1007C800443023F480431B041B0CA2F844302068F7
:1007D80001F0DCFA860408D52268B2F8443023F424
:1007E80000531B041B0CA2F84430206801F0CEFA19
:1007F800C50400F1D881206801F0C8FA000500F1AD
:10080800AF81206801F0C2FA820500F19C8120685E
:1008180001F0BCFAC30508D52268B2F8443023F4C5
:1008280080731B041B0CA2F8443003B0BDE8F083AE
:10083800276800233846ADF8043004F22C45ADF89B
:100848000630B7F844309BB21A04ADF80430ABD583
:10085800BDF8042012F00F065FD1BDF804103B88E4
:1008680001F0100189B2002900F0A9809BB2ADF80F
:100878000630BDF806301B0500F14381BDF806308F
:100888001BB2002BDDDA3B8823F070031B051B0D20
:100898003B80206894F82822B0F850309BB203EBD4
:1008A800C20300EB4303D3F80C34C3F30903C4F8C1
:1008B8004432002B40F01F822046002102F03AFE0D
:1008C8002168D4F83802B1F850303E289BB201F5BF
:1008D800806103F1060340F2E781C0F34F12C606B8
:1008E80004BF02F1FF3292B26FEAC2626FEA52426B
:1008F80092B241F813202268138823F4804323F02E
:1009080070031B041B0C83F4405343F4004343F06F
:10091800800313802768384693E737F826309BB260
:10092800ADF80630BDF806301BB2002B79DBBDF8F8
:1009380006301B0685D537F826304FEA461823F4CB
:10094800E14323F070031B041B0C27F8263004EB4B
:10095800080797F832302068002B40F0B480B0F8D0
:10096800503097F828209BB203EBC20300F5806E45
:1009780002335EF8133004EB4612C3F309035364E1
:10098800002B40F0898104EB0801B0F8503091F851
:1009980028209BB203EBC20302335EF81330CA6B04
:1009A800C3F309034B641A440B6CCA63204691F8DD
:1009B80028108BBB02F0C6FD2768384641E723F4B0
:1009C800E14323F070031B041B0C3B80206894F860
:1009D8002830B0F85020E66B92B202EBC30300EB6C
:1009E8004303D3F804342046C3F309031E44636465
:1009F800E66302F0A7FD94F824307BB1236C6BB951
:100A080094F82420216842F08002A1F84C2027683D
:100A180084F82430384614E7FFF7A6FE27683846DE
:100A28000FE737F826304FEA461823F070031B0506
:100A38001B0D27F8263004EB080999F83232206894
:100A4800002B00F0ED8099F8283230F8231000EBE5
:100A5800830211F4804FB0F8501089B201EBC30340
:100A680000EB430300F02B81D3F80474C7F30907A4
:100A7800002F40F05481138823F0F0031B051B0D51
:100A880043F4004343F0C003138004EB0801D1F89A
:100A98004432D1F83C223B44C1F84432D1F84032C8
:100AA8003A44C1F83C2223B1D1F83802874280F099
:100AB8001A8104EB0801204691F8281202F03AFD49
:100AC8002768384633E797F828E030F82E3059067B
:100AD80040F1BE80B0F8501004EB461289B201EB29
:100AE800CE0300EB4303D3F80434C3F30903536480
:100AF800002B00F0BD80F96BFA8D01F04DF92068EC
:100B0800B6E0B7F8503094F828229BB203EBC20342
:100B180007EB4303D3F80C343846C3F30903C4F88E
:100B280044322946B4F82C2201F04EF922682046B6
:100B3800138823F070031B051B0D138002F0F2FCD1
:100B4800276838467DE622682046B2F8443023F408
:100B580000731B041B0CA2F8443002F0FBFC56E6A1
:100B68002268B2F840309BB243F00803A2F8403044
:100B78002268B2F8443023F400631B041B0CA2F86B
:100B880044302268B2F840309BB243F00403A2F824
:100B98004030206801F0FAF8C1043FF532AE204633
:100BA80002F0EAFC2DE622682046B2F8403023F035
:100BB80004031B041B0CA2F840302268B2F8403032
:100BC80023F008031B041B0CA2F8403002F0E4FCDD
:100BD8002268B2F8443023F480531B041B0CA2F89B
:100BE800443008E622682046B2F8443023F4806393
:100BF8001B041B0CA2F8443002F0B0FC94F8283413
:100C0800012B3FF4D6AD0025012384F8283484F85D
:100C180024502946206801F0AFF884F82854C8E524
:100C2800B0F8503099F828129BB203EBC10300EBDF
:100C38004303D3F80C74C7F30907002F3FF425AF1B
:100C4800D9F83C12B9F82C223B4601F0BDF81CE754
:100C5800B0F8503004EB46129BB203EBCE0300EB26
:100C68004303D3F80C34C3F309035364002B50D166
:100C780004EB080393F8282030F8223023F0F0031F
:100C88001B051B0D43F4404343F0800320F822303A
:100C9800206800F5806E76E6F96BBA8D01F07CF875
:100CA800206800F5806E6EE6C0F34F02C00744BFAF
:100CB800013292B2920292B241F813201BE6D3F8A5
:100CC8000C74C7F30907002F3FF4D5AED9F83C12CE
:100CD800B9F830223B4601F077F899F828222368C2
:100CE80003EB8202C7E691F828122046FFF71CFDA5
:100CF800276838461BE6B4F82C22D4F83C1201F0D9
:100D080063F8D4F83C22D4F844321344C4F83C3293
:100D1800D2E5F96B3A8E01F03FF82068A8E7B9F8F8
:100D28002E22D9F83C12D5E738B5CBB21A060446BC
:100D380019D40D4600EB411101F50A71DB090122B6
:100D48004B700D708A7094F82834934201D10220B8
:100D580038BD84F82824206800F082FF4DB10020B7
:100D680084F8280438BD01F07F0500EB45112831CF
:100D7800E4E7206804F22C4101F00CF8EFE700BF2B
:100D880038B5CBB21A06054619D40A4600EB41110C
:100D980001F50A71DB0900244B700A708C7095F814
:100DA8002834012B01D1022038BD012385F82834CD
:100DB800286800F08FFF85F82844204638BD01F0E8
:100DC8007F0200EB42112831E4E700BF11F0800FE9
:100DD8000CD001F07F0100EB4110283062B1190CF2
:100DE8000122C380018182720020704700EB41100C
:100DF80000F50A70002AF2D18272838000207047C1
:100E08008368DA070BD5836843F4602383608368BB
:100E180043F4E0438360836823F0010383608368BD
:100E2800DB0743D40368224A23F01F0303604168A9
:100E3800204B0A404260826813408360C36803F015
:100E48007F43C360036903F040430361436923F4AC
:100E58007F6323F00F034361836923F47F6323F0E7
:100E68000F038361C36923F47F6323F00F03C36116
:100E7800036A23F47F6323F00F030362436A6FEA74
:100E880013336FEA03334362836A23F47F6323F0E7
:100E98000F038362C36A03F07F43C362036B03F0EB
:100EA80040430363836B9B0D9B058363012070475D
:100EB800000030FFF00601FF8368DB070DD44268AD
:100EC8004B6822F480721343436083680A6823F4F2
:100ED800006313438360012070470020704700BF00
:100EE8008368DB0723D44B6830B4C3B9436823F461
:100EF800684343608368CD680C680A692C4323F40F
:100F08006023224323F4817313438360C36A4A68CE
:100F180023F470031343C36230BC01207047426856
:100F28008C6822F46842234313434360E2E70020BD
:100F3800704700BF3E4B10B498421FD03D4B002273
:100F48001C68012924F001041C601A605A609A6028
:100F5800DA6034D002294BD0032955D0042934D083
:100F6800052958D006295BD0072905BF4FF08073A3
:100F78004360002001205DF8044B7047012914D01C
:100F8800022929D0032939D0042939D0052939D093
:100F980006294AD0274B00221C6824F001041C6053
:100FA8001A605A609A60DA60DEE7234B00221968FB
:100FB80021F0010119601A605A609A60DA60012311
:100FC80043605DF8044B184670474FF48053436004
:100FD8005DF8044B01207047184B1C68002224F070
:100FE800010402291C601A605A609A60DA60B3D161
:100FF800102343605DF8044B01207047104BECE769
:10100800104BEAE7104BE8E74FF4807343605DF854
:10101800044B012070474FF4803343600120AAE756
:101028004FF4801343600120A5E7084BD5E700BFC4
:101038000000024080000240080002401C000240FC
:101048003000024044000240580002406C00024058
:10105800F0B4134F02F108033944546968CB1D43B7
:1010680011F8013C2E43916946EA0405C458D66933
:101078002943556A0E4324F4FF41354321F070019A
:101088002943C15051680344D9601168012099600F
:101098005968146A0A0C120422435A60F0BC70475B
:1010A80050EF00082DE9F04F0E68C6F30F2696FAA8
:1010B800A6F3002B00F0B180B3FA83F31D4636FA8D
:1010C80003F200F0938040F201194FF0010E4FF047
:1010D8000F084FF0011C2CE0B7FA87F7BF0008FA99
:1010E80007F7FF433A4093FAA3F7002F3ED0B7FA29
:1010F80087F7BF000BFA07FB4BEA02020251C768E9
:101108001A0A27EA0207D1F810B092FAA2F27AB3C3
:10111800B2FA82F20BFA02FB4BEA0707C7604A6889
:1011280022F00802012A25D0013536FA05F22B46AD
:101138005CD00EFA03F23242F6D0072D85BFA5F136
:1011480008030CFA03F309FA03F343F080631C0E57
:101158000259D1F804B093FAA3F7002FBCD14FF08D
:10116800FF373A4093FAA3F7002FC0D18027C1E791
:101178002022CFE793FAA3F78A6850F804B0002F2B
:1011880041D0B7FA87F74FF0030ABF000AFA07F70A
:10119800FF4307EA0B0B93FAA3F7002F3BD0B7FAEC
:1011A80087F7BF00BA4042EA0B020251CF6893FAB0
:1011B800A3FBBBF1000F1CD093FAA3F3BBFA8BFB84
:1011C8004FF0040A4FEA8B0B0AFA0BFB6FEA0B0B82
:1011D8000BEA0202ABB1B3FA83F39B009F403A4398
:1011E8000135025136FA05F22B46A2D10120BDE89D
:1011F800F08F4FF0FF3B0BEA020293FAA3F3002BA8
:10120800E9D18023EAE74FF0FF3707EA0B0B93FA9F
:10121800A3F7002FC3D18027C4E720231D464EE73C
:10122800194A036890421ED0B0F1804F12D0A2F53F
:10123800943290420ED002F5806290420AD0036048
:101248008B68C3620B888362436943F0010343617F
:10125800012070474A6823F070031343CA6823F4D7
:1012680040731343EBE74A6823F070031343CA68DB
:1012780023F44073134303608B68C3620B88836253
:101288000B7C0363E0E700BF002C014000230360F0
:1012980043608360C360036143618361C3617047D6
:1012A8001029F0B403466ED048D9B1F5807F24D018
:1012B800B1F5805F64D1016A654E21F48051016205
:1012C800016A146921F400514768C06941EA043190
:1012D80021F4805120F4E640B34292E8300041EA1C
:1012E800053140EA042000F084805F60D861D2684C
:1012F80001201A641962F0BC7047016A544E21F447
:1013080080710162016A146921F400714768C0693B
:1013180041EA042121F4807120F07300B34292E87D
:10132800300041EA052140EA040068D05F60D861D6
:10133800D2680120DA631962F0BC704701291FD115
:10134800016A434F21F001010162046A106924F027
:1013580002045E68996920431568546820F001000A
:1013680021F07301BB4244EA000441EA05015BD065
:101378005E609961D26801205A631C62F0BC7047B4
:101388000020F0BC7047016A314E21F01001016263
:10139800016A146921F020014768806941EA041153
:1013A80021F0100120F4E640B34292E8300041EA0F
:1013B800051140EA042007D05F609861D2680120D7
:1013C8009A631962F0BC70475569946921F08001ED
:1013D80027F4806741EA851147EA84079568D4694C
:1013E80021F0400127F4006741EA851147EAC40764
:1013F800E2E7946927F4804747EA841775E7556957
:10140800946921F4006127F4805741EA852147EA6D
:1014180004179568D46921F4806127F4005741EADC
:10142800852147EA441781E75769956924F0080040
:1014380026F4807640EA870094682E43D76920F026
:10144800040026F4007640EA840446EA47068FE75B
:10145800002C014084B001A880E80E0004B00020F0
:10146800704700BF0246B0F8403000209BB243F4FA
:101478003F43A2F84030704744F2FF210246B0F8DB
:10148800403000200B40A2F84030704700207047E1
:1014980084B070B4044601250020A4F84050A4F894
:1014A8004000A4F84400A4F85000B4F8405004AE3A
:1014B80086E80E00ADB245F43F45A4F8405070BC34
:1014C80004B07047CB7830B4032B10D8DFE813F0A2
:1014D8007501680104005B010A7830F8223023F4B2
:1014E800EC4323F070031B041B0C20F822300C780B
:1014F80030F8242044F4004522F0F0031B051B0DAE
:1015080045F080052B4320F824308B7A002B37D107
:101518004B78002B00F0EE80B0F850300C788A88B9
:101528009BB203EBC403520800EB43035200C3F819
:1015380000240C7830F8243000EB84025B060ED5CA
:1015480030F8243023F0F0031B051B0D43F400434F
:1015580043F0C00320F824300A7800EB8202138895
:10156800002023F4E04323F040031B041B0C83F00A
:10157800200343F4004343F08003138030BC7047DA
:101588000A7800F5806430F8223023F4F8731B05DC
:101598001B0D43F4014343F0800320F82230B0F8D8
:1015A8005030CA880D789BB2520803EBC50352002D
:1015B80044F81320B0F850300D780A899BB203EB39
:1015C800C50352080433520044F813204B780C78B2
:1015D800002B4FD130F8243000EB84025D040ED587
:1015E80030F8243023F0F0031B051B0D43F440436F
:1015F80043F0800320F824300A7800EB8202138835
:101608005B060CD5138823F0F0031B051B0D43F470
:10161800004343F0C00313800A7800EB820213886A
:1016280023F0F0031B051B0D43F4004343F0C003F4
:1016380013800A7830F8223023F4804323F07003B3
:101648001B041B0C83F4405343F4004343F0800312
:1016580020F822300A7830F8223023F0C0031B0526
:101668001B0D43F4004343F0800320F8223030BCC4
:101678000020704730F8243000EB84025D040ED55A
:1016880030F8243023F0F0031B051B0D43F44043CE
:1016980043F0800320F824300A7800EB8202138894
:1016A8005B0600F19780138823F0F0031B051B0DE0
:1016B80043F4404343F0800313800A7830F8223023
:1016C80023F0C0031B051B0D43F4004343F08003C4
:1016D80020F822300A7830F8223023F0F0039B04F7
:1016E8009B0C43F4004343F0800320F8223030BCC5
:1016F80000207047B0F850300C788A889BB203EB12
:10170800C40352080433520000F5806444F81320DF
:10171800B0F850300D690A789BB206333E2D03EBC2
:10172800C20365D8C5F34F02ED0744BF013292B238
:10173800920292B244F813200C7830F8243000EB6F
:1017480084025B040ED530F8243023F0F0031B0527
:101758001B0D43F4404343F0800320F824300A78FB
:1017680000EB82021388002023F4804323F07003E7
:101778001B041B0C83F4405343F4004343F08003E1
:10178800138030BC70470A7830F822309BB223F4BB
:10179800EC4323F0700343F4C06320F82230A6E63C
:1017A8000A7830F822309BB223F4EC4323F070031C
:1017B80043F4806320F8223099E60A7830F8223022
:1017C8009BB223F4EC4323F0700343F4007320F836
:1017D80022308CE6138823F0F0031B051B0D43F41D
:1017E800004343F0C00313800A7800EB82025AE7F3
:1017F800C5F34F12ED0604BF02F1FF3292B26FEA51
:10180800C2626FEA524292B244F8132094E700BFD2
:101818008B7A10B43BBB4B780C78002B00F0B4806B
:1018280030F8243000EB84025B060ED530F8243003
:1018380023F0F0031B051B0D43F4004343F0C003E2
:1018480020F824300A7800EB82021388002023F065
:10185800C0031B051B0D43F4004343F080031380B2
:101868005DF8044B70474B780C78002B4CD130F85E
:10187800243000EB84025B040ED530F8243023F0CA
:10188800F0031B051B0D43F4404343F0800320F88D
:1018980024300A7800EB820213885C060CD5138882
:1018A80023F0F0031B051B0D43F4004343F0C00372
:1018B80013800A7800EB8202138823F0F0031B05DB
:1018C8001B0D43F4004343F0C00313800A7830F83B
:1018D800223023F0F0039B049B0C43F4004343F0B5
:1018E800800320F822300A7830F8223023F0C00331
:1018F8001B051B0D43F4004343F0800320F82230FE
:101908005DF8044B0020704730F8243000EB840267
:101918005B040ED530F8243023F0F0031B051B0DB3
:1019280043F4404343F0800320F824300A7800EB66
:10193800820213885B064AD4138823F0F0031B0540
:101948001B0D43F4404343F0800313800A7830F8BA
:10195800223023F0C0031B051B0D43F4004343F062
:10196800800320F822300A7830F8223023F0F00380
:101978009B049B0C43F4004343F0800320F822307F
:101988005DF8044B0020704730F8243000EB8402E7
:101998005B040ED530F8243023F0F0031B051B0D33
:1019A80043F4404343F0800320F824300A7800EBE6
:1019B80082021388002023F0F0039B049B0C43F45D
:1019C800004343F0800313805DF8044B704713888D
:1019D80023F0F0031B051B0D43F4004343F0C00341
:1019E80013800A7800EB8202A6E700BF4A78F0B4B9
:1019F800012A70D08B690C69A34232D800248C610B
:101A08008C7A002C33D1B0F850200C7892B2063280
:101A18003E2B02EBC40200F5806540F29C80C3F3C4
:101A28004F14DE0604BF04F1FF34A4B26FEAC464A5
:101A38006FEA5444A4B245F812400A7830F82230CC
:101A480023F4804323F070031B041B0C83F44053DE
:101A580043F4004343F0800320F82230F0BC002018
:101A680070471B1B8B6123468C7A002CCBD0002A35
:101A7800E3D1B0F850200C7892B202323E2B02EB40
:101A8800C40200F5806640F2AF805C09A5B213F08D
:101A98001F0704BF05F1FF35ADB26FEAC5656FEAF0
:101AA8005545ADB246F812504A78002A40F0C98030
:101AB800B0F850300A789BB20633A4B203EBC202E6
:101AC8000FB9013CA4B26FEAC4646FEA54439BB2F5
:101AD80046F81230B1E78E690B699E4246D800235A
:101AE8008B618B7A002B47D1B4B28D880134641096
:101AF80000EB45054B6910D005F20445023313F895
:101B0800017C13F8022C013C42EA072225F8042C38
:101B180003F1020305F10405F1D1B0F850300A7859
:101B28009BB203EBC20300EB4303C3F804640A78D7
:101B380030F8223023F4E04323F040031B041B0C4D
:101B480083F0300343F4004343F0800320F822304D
:101B5800F0BC00207047C3F34F04DB0744BF0134D7
:101B6800A4B2A402A4B245F8124066E7F61A8E6140
:101B78001E468B7A002BB7D00A78B5B230F82230DF
:101B8800B0F8504013F0400FA4B204EBC20200F5C5
:101B9800806302F1020243F8126014BF0F89CF88F4
:101BA80001356D1003EB47074B690DD00233002256
:101BB80013F8016C13F8024C023344EA062427F8A0
:101BC80022400132AA42F3D14B7853BB0A7830F84D
:101BD800223023F0F0031B051B0D43F4004343F0B0
:101BE800C00320F82230A2E75C08A5B213F0010771
:101BF8001CBF0135ADB2AD02ADB246F812504A78FD
:101C0800FAB9B0F850300A789BB20633A4B203EBA5
:101C1800C2030FB10134A4B2A402A4B246F813401F
:101C28000BE7012B83D10A7830F8223023F0F00338
:101C38001B051B0D43F4404343F0800320F822307A
:101C480075E7012A7FF4F9AEB0F850200C7892B20B
:101C580002EBC40200EB4202C2F80434EDE600BF16
:101C68000A782AB34B788BB930F8223023F48043B2
:101C780023F070031B041B0C83F4805343F40043CC
:101C880043F0800320F822300020704730F82230DB
:101C980023F4E04323F040031B041B0C83F01003E0
:101CA80043F4004343F0800320F8223000207047BB
:101CB80003889BB223F4804323F0400383F48053CA
:101CC80083F0100343F4004343F0800303800020B3
:101CD800704700BF4B7810B40C7833B330F8243019
:101CE80000EB84025B060ED530F8243023F0F003B5
:101CF8001B051B0D43F4004343F0C00320F82430B8
:101D08000A7800EB82021388002023F4E04323F0D2
:101D180040031B041B0C83F0300343F4004343F0DF
:101D2800800313805DF8044B704730F8243000EBD3
:101D380084025B040ED530F8243023F0F0031B0531
:101D48001B0D43F4404343F0800320F824300A7805
:101D580000EB82021388002023F4804323F07003F1
:101D68001B041B0C83F4405343F4004343F08003EB
:101D780013805DF8044B704711B98023A0F84C30EC
:101D8800002070470020704700207047B0F84400DA
:101D980080B2704700207047013300F580605B1007
:101DA80000EB42020FD070B40231002411F8016C2C
:101DB80011F8025C023145EA062522F82450013464
:101DC800A342F3D170BC7047013300F580605B100B
:101DD80000EB420205D052F8040B013B21F8020B3C
:101DE800F9D17047054A064BA2FB0020800901384B
:101DF80000210522586099601A607047D34D62101F
:101E080010E000E0014B1860704700BF2C04002070
:101E180010B5D0F81C32D0F818425BB194F8000223
:101E2800FF2807D09B68214694F801229847FF2392
:101E380084F80032002010BD432303800048704717
:101E4800300400204323038000487047FC0400202E
:101E58004323038000487047B80400200A23038006
:101E680000487047AC04002038B50446D0F8185232
:101E780001F05CFCC5F80C02D4F818324BB1D4F868
:101E88001C32D5F80402DB6805F503719847002079
:101E980038BD022038BD00BFD0F818323BB110B5AC
:101EA8000024C3F8144201F0AFF9204610BD022007
:101EB800704700BF70B50B780C4613F060020546FA
:101EC800D0F8186211D0202A0DD1CA8812B31B0687
:101ED80014D44B78314686F80032E38886F801320C
:101EE800E28800F029FC002070BD4B780A2BFAD15B
:101EF8000B49012200F008FC002070BDD0F81C320C
:101F080048789B683146984728463146E28800F071
:101F1800FBFBE8E7D0F81C3248789B689847E2E773
:101F2800580A002010B50446812101F09BFB0121CD
:101F3800204601F097FB2046822101F093FBD4F85C
:101F4800183253B1D4F81C325B689847D4F8180299
:101F580001F0F6FB0023C4F81832002010BD00BFC2
:101F6800F8B5037C04468121022263BB4FF4007359
:101F780001F068FB2046012102224FF4007301F0B2
:101F880061FB822103220823204601F05BFB4FF40A
:101F9800077001F0D1FB0546C4F8180218B3D4F84D
:101FA8001C3200261B689847C5F81462C5F81862E9
:101FB800277C2046D5F80422012177B1402301F07F
:101FC800A7FB3046F8BD402301F03CFB2046012129
:101FD8000222402301F036FBD3E74FF4007301F0EF
:101FE80097FB3846F8BD0120F8BD00BF19B1C0F80D
:101FF8001C12002070470220704700BFD0F818322A
:102008000020C3F80812C3F810227047D0F818321D
:102018000020C3F804127047D0F8183273B1D3F80F
:1020280014220AB1012070470122C3F81422812129
:10203800D3F80822B3F8103201F05CBB02207047D5
:10204800D0F8182282B110B5047CD2F804220121FC
:1020580024B1402301F05CFB002010BD4FF4007355
:1020680001F056FB204610BD0220704788B108B524
:10207800D0F8143213B10023C0F8143209B1C0F8F3
:1020880010120123027080F8FC3101F089FA002057
:1020980008BD0220704700BF19B1C0F81412002013
:1020A80070470220704700BF08B501F0BDFA002054
:1020B80008BD00BF08B5D0F8143213B11B689847A3
:1020C80008B1022008BD08BD08B5D0F814325B6815
:1020D8009847002008BD00BF38B5044600F50275D2
:1020E800284600F0D7FA94F808120120B4F80E2216
:1020F80001F01F038342C4F8F401C4F8F82115D095
:102108000ED3022B06D0204601F0800101F0B8FA68
:10211800002038BD2046294600F054FA002038BD7A
:102128002046294600F0D6F8002038BD204629462A
:1021380000F02AFA002038BD10B5044631B913461C
:10214800D0F8F421032A0CD0002010BDD0F81432A6
:102158009B69002BF8D090F8FC21032AF4D198470A
:10216800F2E7D0F80C11D0F8102191420CD8D0F831
:1021780014321B691BB190F8FC21032A0FD02046AA
:1021880000F0F4FA002010BD891A8A4228BF0A46D6
:10219800C0F80C1192B2194600F0DEFAD4E798475D
:1021A800EDE700BF70B5044651B91346D0F8F421E5
:1021B800022A15D094F80032012B0CD0002070BDF3
:1021C800D0F814325B69002BF8D090F8FC21032A70
:1021D800F4D19847F2E7002384F80032002070BD5C
:1021E800C669026A964223D88369B3FBF2F502FBFB
:1021F80015358DB99A420FD8D0F8F82193420BD2F1
:102208002A4600F08FFAC4F8F851204629462A4693
:102218002B4601F07DFACDE7D4F81432DB681BB108
:1022280094F8FC21032A0BD0204600F0ABFAC1E752
:10223800B21A0D46C261194692B200F073FAE4E789
:1022480020469847F0E700BF38B5402304461D46AE
:1022580000210A4601F0F6F92B460022C4F8105175
:102268002046802101F0EEF9D4F8183201222562C7
:1022780084F8FC212BB1D4F8143220465B6821790C
:102288009847002038BD00BF01740020704700BF88
:1022980090F8FC21042380F8FD2180F8FC3100200F
:1022A800704700BF034690F8FD21002083F8FC2109
:1022B800704700BF08B590F8FC21032A01D0002020
:1022C80008BDD0F81432DB69002BF8D098470020FD
:1022D80008BD00BF30B54B7883B00D460446092BC6
:1022E8000BD8DFE803F035490A590A05660A7D1557
:1022F8008B8813B9CB88002B7FD08021204601F032
:10230800BFF92046002101F0BBF9002003B030BD21
:1023180089789C4D01292970EFD890F8FC31022B5F
:1023280000F08980032BE8D1002900F02081416862
:10233800012909D0C9B2FFF7C7FE29782046616094
:10234800FFF7B8FE0228D8D0204600F00FFADCE7E5
:1023580090F8FC310122023B93424FF00301CCD8A4
:10236800D0F80432C26003B1C160204604F10C0108
:10237800022200F0C9F9C8E790F8FC31023B012BB2
:10238800BBD84B88012BC0D10022D0F81432C0F83A
:1023980004229B689847D7E74B88012BB5D1D0F822
:1023A8001422C0F8043293689847204600F0DEF9FA
:1023B800ABE74A88130A013B062B9ED801A151F8C6
:1023C80023F000BFB1240008D5240008C324000866
:1023D800032300080323000899240008592400084F
:1023E800CA88012A89D190F8FC31022B1CD0032B12
:1023F80083D1011D00F088F987E790F8FC318D78CA
:10240800032B05F07F053FF478AF80F8FE5129468D
:1024180001F062F9204600F0A9F9002D00F099803A
:10242800022384F8FC3170E70146002341F8083F95
:1024380000F06AF969E7002986D001210323416089
:1024480080F8FC31FFF736FE02287FF47DAF54E7B1
:10245800037C002B7FF451AFD0F814320DF1060045
:102468001B6B9847014607234370BDF80630002BC5
:102478003FF44BAFEA88002A3FF447AF934228BFA6
:10248800134620461A46ADF8063000F03DF93CE701
:10249800037C002B7FF431AFD0F814320DF1060025
:1024A8005B6B98470146E0E7D0F810320DF1060162
:1024B800007C1B6898470146D7E7D2B2052A3FF649
:1024C8001CAFDFE802F02B2219103D34037C002BEF
:1024D80043D1D0F814320DF106009B6A98470223C5
:1024E80001464370C1E7D0F810320DF10601007CB7
:1024F8001B6998470146B8E7D0F810320DF106017C
:10250800007CDB6898470146AFE7D0F810320DF140
:102518000601007C9B6898470146A6E7D0F8103270
:102528000DF10601007C5B68984701469DE7D0F8ED
:1025380010320DF10601007C9B699847014694E72B
:10254800D0F810320DF10601007C5B69984701460E
:102558008BE7012384F8FC31D7E6D0F814320DF16B
:102568000600DB6A98470223014643707DE7022391
:10257800416080F8FC31FFF7A7FD204600F0F6F82F
:10258800C3E600BF590A002038B590F8FC3104466C
:10259800032B03D10B790D46012B08D9802101F0BB
:1025A8006FF82046002101F06BF8002038BDD0F804
:1025B80014329B689847EB88002BF6D1204600F030
:1025C800D5F8F2E770B50B788A8803F06003202B02
:1025D8000C46D6B2054655D04B78012B34D019D3CA
:1025E800032B15D190F8FC31022B31D0032B40D1AD
:1025F8004B8823B9730602D0314601F041F8D5F86B
:10260800143221469B6828469847284600F0AEF8C1
:10261800002070BD90F8FC31022B19D0032B28D173
:1026280006F07F04130600EB041431464CBF143443
:1026380004F5827401F040F848BB20602846214622
:10264800022200F061F8E3E790F8FC31022B05D193
:102658007206DDD0314601F013F8D9E7032B08D113
:102668004B88002BD4D17106CFD0314601F016F833
:10267800C5E7802101F004F82846002101F000F8A0
:10268800002070BDD0F814329B689847C0E701233A
:102698002360D3E70B7803704B784370CA788B7844
:1026A80003EB022343804A790B7903EB02238380EF
:1026B800CA798B7903EB0223C380704700B3037890
:1026C80030B4F3B10446002314F8015F0133DBB2E0
:1026D800002DF9D15B000233DCB2032513800C70A6
:1026E8004D7004785CB1022300255A1CD2B2CC5438
:1026F8008D5410F8014F0233DBB2002CF5D130BCF9
:10270800704702242346E8E738B5134602250A46EF
:102718008361C361C0F8F451002100F0EBFF002091
:1027280038BD00BF10B50C4613460021224600F004
:10273800E1FF002010BD00BF38B5134603250A4647
:10274800C0F80831C0F80C31C0F8F451002100F08D
:10275800DFFF002038BD00BF10B50C46134600212E
:10276800224600F0D5FF002010BD00BF08B50021AB
:102778000423C0F8F4310A460B4600F0BBFF0020E2
:1027880008BD00BF08B500210523C0F8F4310A468A
:102798000B4600F0BDFF002008BD00BF704700BF1A
:1027A800704700BF08B500F0A3FC00F007FA00F07E
:1027B80015FB00F009F8FFF7F3FF002000F02AFDF1
:1027C800003018BF012008BD2DE9F8430B4C0C4F11
:1027D80004F104094FF0010817F8013B14F8016BE4
:1027E80008FA03F52946304600F01EFB3046294614
:1027F80000F04EFB4C45EFD1BDE8F8835CEF0008D4
:1028080058EF000804207047034A044B125C01216A
:102818009140185C00F034BB58EF00085CEF0008EA
:10282800034A044B125C01219140185C00F030BB54
:1028380058EF00085CEF0008034A044B125C0121C2
:102848009140185C00F02CBB58EF00085CEF0008C2
:10285800064A08B5125C064B01219140185C00F04D
:102868002FFB003018BF012008BD00BF58EF00083B
:102878005CEF0008BFF34F8F0549064BCA6802F4A6
:10288800E0621343CB60BFF34F8F00BFFDE700BF8B
:1028980000ED00E00400FA0508B501460C2201230A
:1028A800024801F00DF9012008BD00BFE8F7FF1F3D
:1028B8002DE9F04F9FB01EA90F2341F8503D002489
:1028C8000226042379480D930C960B940E94FEF778
:1028D800E9FB774B77489A694FF4807542F40072A8
:1028E8009A619A69DFF8E09102F400720692069AFA
:1028F8005A68DFF8DC8122F4404242F400425A6010
:10290800FEF77EFA08A96B4808940995FEF7D4FAF1
:102918004FF460224FF440130FA966480F921093AA
:10292800129611941395FEF7DBFA4FF0007393FAA1
:10293800A3FCBCFA8CF24FF440714FF0F87091FA96
:10294800A1F190FAA0F004910290B1FA81F1B0FAE5
:1029580080F0D340B340039005910193019BBCF1F3
:10296800000F18BF19464FF0F87393FAA3F6029BAD
:1029780008BF6146002B039B4F4818BF1A4604EB5B
:10298800440344EA035308BF202203F0F8750844BF
:1029980025FA02F107228A40016821EA0202002E84
:1029A80000F08280B6FA86F6049F4FF0000A574579
:1029B800059F25FA06F518BFBB464FF0070E0EFA1D
:1029C80005FE4EEA0202026058F8042B08BF4FF0D9
:1029D800200B02F44070394920FA0BF080000144C2
:1029E8001F2502F01F000A6803F01F0305FA00F70D
:1029F800834022EA070701343B43042C0B6029F883
:102A080002ABABD12B4B1A46996841F00101996092
:102A1800996841F0040199609468264D14F0040403
:102A2800FAD1234B01215A69254E42F001025A611D
:102A38005B6924480B400793079B3368DFF894A031
:102A480023F001033360FEF775FA1F4B4FF4807CC7
:102A58004FF4806E14AA4FF020094FF08008042725
:102A68004FF4805B01211748159316941894CDF8FC
:102A780050A0CDF85C90CDF86480CDF868C0CDF852
:102A88006CE01C97CDF874B0FEF7E2FA33680F4A91
:102A980043F001033360AB68012143F4A003AB604A
:102AA80011701FB0BDE8F08F20267DE700080140B7
:102AB80000100240002401400C2401402C24014055
:102AC80008000240000002405C0A00205A0A002068
:102AD80060EF00084C24014010B586B006A90F230A
:102AE80041F8143D0322082300240D480392029361
:102AF8000594FEF7D7FA0B4B9A68184622F00102A4
:102B08009A60FEF77DF9084A01211368074823F007
:102B180001031360FEF70EFA054B1C7006B010BDDA
:102B28000008014000240140080002400000024063
:102B38005A0A002008B5064B33F8100008F068FC64
:102B4800044908F0B9FC4FF0665108F0B5FC08BD1F
:102B58005C0A0020333353400420704708B5104BFB
:102B6800B3F9002082420CD10E4B188800B20E4BEC
:102B780000EBD072002152105962D8629862DA6371
:102B880008BD0A4A18801368B3FBF0F008F03CFC53
:102B980007F01EFE08F056FE024B80B21880E5E7EB
:102BA800640A0020660A0020000400402C0400206B
:102BB800014B0022DA6370470004004010B5514C05
:102BC80082B0A369002143F00103A361A3690A4607
:102BD80003F001030093009BE3696FF00B0043F0DF
:102BE8008053E361E36903F080530193019BFDF790
:102BF80081FB00210A466FF00A00FDF77BFB0021EC
:102C08000A466FF00900FDF775FB00210A466FF0D0
:102C18000400FDF76FFB00210A466FF00300FDF783
:102C280069FB00210A466FF00100FDF763FB0021F4
:102C38000A464FF0FF30FDF75DFB3349334A4B68D6
:102C480023F0E06343F000734B60136823F007033D
:102C580043F002031360136803F00703022B00D04C
:102C6800FEE72246236843F400232360236843F4E5
:102C7800803323601168234B8903FBD519465A68B2
:102C880022F47C1242F4E8125A601A6842F0807208
:102C98001A600A681B4B9201FBD519465A6822F044
:102CA800F0025A605A6822F4E06242F480625A6084
:102CB8005A6822F460525A605A6822F0030242F0BD
:102CC80002025A604B680F4C03F00C03082BF9D131
:102CD8000F48FFF787F80F4A0D48136843F00403BD
:102CE8001360FFF78FF863680B4A23F4800363606F
:102CF8000023D168032082F82330FDF7E9FA02B0F7
:102D080010BD00BF0010024000000140002002403A
:102D180000A24A0410E000E000ED00E0431E002895
:102D280044D000BF00BF00BF00BF00BF00BF00BF4E
:102D380000BF00BF00BF00BF00BF00BF00BF00BF93
:102D480000BF00BF00BF00BF00BF00BF00BF00BF83
:102D580000BF00BF00BF00BF00BF00BF00BF00BF73
:102D680000BF00BF00BF00BF00BF00BF00BF00BF63
:102D780000BF00BF00BF00BF00BF00BF00BF00BF53
:102D880000BF00BF00BF00BF00BF00BF00BF00BF43
:102D980000BF00BF00BF00BF00BF00BF00BF00BF33
:102DA80000BF00BF00BF13F1FF33BAD2704700BFA6
:102DB80041F2707282B010F1FF300CD30192019B86
:102DC800002BF8D0019B013B0193019B002BF9D10B
:102DD80010F1FF30F2D202B0704700BF064B82B04C
:102DE8009A6942F07C029A619B6903F07C03019323
:102DF800019B02B0704700BF0010024010B584B0BC
:102E080004AB084A43F8101D194652F82000032362
:102E180002220024019402920393FDF7AFFA04B052
:102E280010BD00BF80EF000810B584B004AB084A9D
:102E380043F8101D194652F82000032300220124EC
:102E4800019402920393FDF799FA04B010BD00BFF4
:102E580080EF000810B584B004AB084A43F8101D91
:102E6800194652F8200003230122112401940292EA
:102E78000393FDF783FA04B010BD00BF80EF00088C
:102E8800024B89B253F820301961704780EF00086F
:102E9800024B89B253F820305961704780EF00081F
:102EA800064B53F82000C36801EA030299431CBF8C
:102EB80089B201610AB192B24261704780EF00089D
:102EC800024B53F8203098680840704780EF00089C
:102ED8004163704781637047C163704701647047FD
:102EE8002DE9F04F0446614893B0C6690D4646F097
:102EF8000106C661C16912AB0F2743F8447D01F092
:102F0800010100914FF0030E194602270023A0F596
:102F180084301646CDF810E0009A02970393FDF727
:102F28002DFA002C00F09A806400002DDCBF642587
:102F38002B464F49C8BFABB20B804FF080400368A7
:102F480004FB05F423F001034A4A036015684FF0B7
:102F58000009B5FBF4F5CA46B1F900E0002EB8BF88
:102F680032270EF1FF3205A905F1FF35ACBFB7B224
:102F78003E460792ADF814500446CDF81890CDF8A7
:102F880020908DF82490FEF74BF90AA8FEF77EF9F9
:102F9800394D60200121DFF8F4B0DFF8F480CDF876
:102FA8003490CDF838900A900B9135F8029B4FF089
:102FB800804049460AAAFEF773F9B9F1010F49D0D2
:102FC800B9F1040F44D0B9F1100F45D0B9F1400F51
:102FD80047D0B9F5807F46D0B9F5806F0CBF052280
:102FE80006221BF80230254903F1804311F802E05C
:102FF8000320996900FA0EF021EA00019961204B3B
:10300800216A985C0223834021EA03031D49236255
:10301800895C4FF4807362688B4022EA03034FF0A7
:1030280080496360484658F82A3031469847164B1D
:1030380023F81A700AF1010ABAF1040FB5D1D9F8C8
:10304800003043F00103C9F8003013B0BDE8F08F39
:103058000122C6E70022C4E70222C2E74FF4FA645D
:1030680063E70322BDE70422BBE700BF001002406C
:10307800400500202C0400209CEF000894EF000875
:10308800B4EF0008C4EF0008680A0020BCEF00088D
:10309800A4EF000800B585B004A90F2341F8103D3E
:1030A800032200230748039201930293FDF766F970
:1030B8004FF08042136823F00103136005B05DF8F8
:1030C80004FB00BF0008014038B504460D46054B17
:1030D8004FF0804053F824309847034B23F814509E
:1030E80038BD00BFA4EF0008680A0020042070471C
:1030F80045F2555040F6FF71024B02221860996064
:103108005A607047003000404AF6AA22014B1A6004
:10311800704700BF003000402DE9F04FDFF8DCA019
:10312800DFF8DC809AF800302F4F304EDFF8D4B04B
:1031380083B0002B2E4BD8F8000008BF1D462D4B3E
:103148000DF107014FF0FF3218BF5D462A4C18BF3A
:103158001C4600F0A7FF10B99AF80030E9E700F024
:1031680021FF9DF80720012300EB03092A70236043
:10317800D8F800000DF10701012200F093FF28B1F3
:1031880023689DF807105A1CE954226000F00AFFD2
:10319800814502D323683E2BEADDDFF84C90736843
:1031A8004FF0FF31A3B1386800F0B6FFC0B1284630
:1031B800218800F081F958B1D9F8000000F09CFF8F
:1031C800012000F0F7FE73684FF0FF31002BEAD1C1
:1031D8009AF90030B3FA83F35B098AF80030A8E75C
:1031E800012000F0E7FEDAE7402D0020C82A002081
:1031F800EC2C0020382D0020302D0020342D00200C
:103208002C2D0020882A0020014B186800F07CBF74
:10321800402D002070B5802182B00122214B224828
:1032280000F016FF214C224B3F212060012221484B
:1032380000F00EFF204D214A28600120014600F0D1
:103248004BFF1F4A2368106033B32B6823B308B3BE
:103258001C4A1D4D002404231C4E01920093224653
:103268001B481C494FF496732C60346000F0C0FE74
:10327800A8B1002218491948FEF7F8FE184917485E
:10328800FEF70AFF17491548FEF7B0FE1348FEF788
:103298000BFF012002B070BD184602B070BD01F0EE
:1032A80095FCE6E7CCEF0008D4EF00083C2D0020A1
:1032B800F4EF0008DCEF00082C2D0020D4110020CA
:1032C800402D0020ECEF0008302D0020382D002084
:1032D800E4EF00082131000854050020C82A002026
:1032E80074040020440500200120704708B5054BF0
:1032F800186800F0C9FE0449044A00230B601360F3
:1033080008BD00BF3C2D0020382D0020302D0020A6
:1033180010B5074B044601464FF0FF32186800F01D
:10332800C1FE002814BF20464FF0FF3010BD00BF7B
:103338003C2D002010B5064B04460A460146186885
:1033480000F0B0FE002814BF20464FF0FF3010BD3B
:103358003C2D00202DE9F047B1F1000A24DD144D81
:103368000446144FA84600EB0A064FF0010908E08E
:1033780000F08EFE002308B188F800300134B44212
:103388000FD02B78002238682146002BF0D1FA2282
:1033980000F07EFE0028F1D10134B44288F8009094
:1033A800EFD15046BDE8F0874FF0000AF9E700BFBB
:1033B800700A00202C2D002000B583B002AB03F862
:1033C800010D18460121FFF7C5FF03B05DF804FBA6
:1033D8000020704770B50D685DB10446094E01E0E4
:1033E800013D06D02146306800F066FE0134002811
:1033F800F6D105490548FEF709FE0448FEF720FE08
:10340800002070BD3C2D0020442D0020C82A00203B
:1034180038B50C4C00220C492046FEF7EFFD20463B
:103428000A49FEF7F3FD0A4D0A4B0B4C00204FF4F6
:1034380016510822286020601871587119609A7115
:1034480038BD00BFC82A0020EC2C0020442D0020E5
:10345800382D0020C42D0020302D0020202813D026
:1034680021280FD1134B1A680A701A68120A4A7079
:103478005A888A70DA78CA701A790A715A794A7140
:103488009B798B710020704730B48B7848780A7824
:103498001B04CD7843EA00230C79487913438979D2
:1034A800044A43EA05635071136014719171002056
:1034B80030BC7047C42D002010B5094CD4F8183220
:1034C800D3F814320BB1012010BD0A46014620463C
:1034D800FEF794FD2046BDE81040FEF79DBD00BFF5
:1034E800C82A002002680E4B9A4200D0704700B5E7
:1034F80003F5DA33DA6983B042F40002DA61DB6992
:103508000A2103F40003002201931420019BFCF715
:10351800F1FE1420FCF724FF03B05DF804FB00BFA4
:10352800005C00400146D0F85C0401F22C41FEF733
:10353800D3BD00BF00EB4113D3F83C22D0F85C04A4
:10354800FEF7FABD00EB4113DA6BD0F85C04FEF726
:1035580029BE00BFD0F85C04FEF7ACBE10B5044627
:103568000121D0F85C04FEF78FFED4F85C04BDE8B6
:103578001040FEF769BE00BF10B50446D0F85C04E1
:10358800FEF786FEA36923B1024A136943F00603D6
:10359800136110BD00ED00E0D0F85C04FEF782BEB8
:1035A800F8B51F4B1F4F0022C3F85C0404460826D9
:1035B800C0F820320225032118461F605E609D6016
:1035C800D9609A61DA611A62FCF7CAFF08B101F0A2
:1035D800FDFA00210A46D4F820021823FDF7F6FB6D
:1035E800D4F82002802100225823FDF7EFFBD4F8FD
:1035F800200281210022C023FDF7E8FBD4F8200235
:10360800012100224FF48873FDF7E0FBD4F8200273
:10361800822100224FF48073FDF7D8FB0020F8BD0B
:10362800CC2D0020005C004008B5D0F82002FDF742
:1036380005F803289ABF024B185C022008BD00BF9A
:1036480004F0000810B51446D0F820021A462346A4
:10365800FDF720F803289ABF014B185C022010BD23
:1036680008F0000808B5D0F82002FDF739F803285B
:103678009ABF024B185C022008BD00BF10F000087A
:1036880008B5D0F82002FDF74FFB03289ABF024B7C
:10369800185C022008BD00BF0CF0000808B5D0F87F
:1036A8002002FDF76DFB03289ABF024B185C02202D
:1036B80008BD00BF14F000080A06D0F8203204D470
:1036C80003EB411393F82A02704701F07F0103EBE3
:1036D800411393F82A00704708B5D0F82002FCF788
:1036E800C5FF03289ABF024B185C022008BD00BF23
:1036F80018F0000808B5D0F82002FDF735F80328BF
:103708009ABF024B185C022008BD00BFFCEF0008FE
:1037180008B5D0F82002FDF707F803289ABF024B36
:10372800185C022008BD00BF00F0000808B5D0F8FA
:103738002002FDF711F808BD00487047B0120020BC
:10374800704700BF704700BF0148FDF723B800BFAE
:10375800CC2D0020704700BF12230B800048704713
:103768007405002004230B80004870477005002072
:1037780010B5044C0A4604482146FEF79FFF204630
:1037880010BD00BF2C3200201CF0000810B5044CFE
:103798000A4604482146FEF791FF204610BD00BFA7
:1037A8002C32002028F0000810B5044C0A460448C2
:1037B8002146FEF783FF204610BD00BF2C320020B3
:1037C80048F0000810B5044C0A4604482146FEF7A4
:1037D80075FF204610BD00BF2C32002054F00008B1
:1037E80030B50D4689B0064C6846FFF755F868466F
:1037F8002A462146FEF762FF204609B030BD00BFC9
:103808002C3200200023037043704360704700BFD0
:10381800F0B51D780144012D5C7848D045D3022DC0
:1038280041D18842154639D007782A4E44EA971480
:103838003F2C98BF16F804E007F03F04365D88BFB8
:103848004FF03D0E85F800E06E705E68013001367D
:10385800132E5E602DD00235884236D004781D4E76
:10386800A708F65D04F00304013024012E7005F169
:10387800010E884223D00778013044EA17143F2C00
:1038880096BF144E3D26365D07F00F0488420EF1B0
:1038980001054FEA84048EF80060C5D102215C70EE
:1038A800A81A1970F0BD0020F0BD1546D4E7964659
:1038B800DFE70A270026AF7003355E60CCE70121F9
:1038C8005C70C2EB0E001970F0BD00215C70A81A84
:1038D8001970F0BD64F000080B78012B17D0022B8B
:1038E80005D003460A2203F8012B181A70474B78B3
:1038F8003F2B96BF0E4A3D21D15C03463D2203F87B
:10390800021B42700A2203F8012B181A70474B78E1
:103918003F2B96BF064A3D22D25C3D23027043707E
:1039280083700A22C31C03F8012B181A704700BFC2
:1039380064F00008F0B5234F83B0A7FB01340546B7
:103948002409CAB92049214AA1FB04635B09A1FBE8
:103958000361A2FB04624909C3EB0316C1EB011121
:10396800A4EB8604A3EB81030094D20A184901F062
:10397800F1F8284603B0F0BDFA2303FB1411124EE8
:10398800A6FB04234FF47A7202FB01F15B09A6FB44
:1039980003260E4AA7FB0171A2FB04727609C3EB4A
:1039A8000317C6EB0616A4EB870409090191A3EBDC
:1039B80086030094D20A074901F0CCF8284603B0E0
:1039C800F0BD00BFD34D621089888888C5B3A29125
:1039D800BCF00008A8F0000838B50C46054600F011
:1039E800E1FA224601462846BDE83840FFF7A2BF63
:1039F800F8B103780BB91846704730B583B00D4657
:103A0800002201A9044609F031FA019B73B19C42D6
:103A180001D10BE0019313F8012B202AFAD0092ACF
:103A2800F8D01AB92860012003B030BD002003B0D7
:103A380030BD704728B3F0B5067883B016B90020BA
:103A480003B0F0BD14460D46002201A9074609F04F
:103A58000DFA019B0646002BF1D09F4201D1EEE7FB
:103A6800019313F8010B2028FAD00928F8D02A2846
:103A780009D00028E3D1034601202E60236003B05B
:103A8800F0BD00207047184601A900221F46019387
:103A980009F0ECF9019B002BD1D09F4201D1CEE770
:103AA800019313F8012B202AFAD0092AF8D0002A0A
:103AB800C5D1012871F10003DDDB431EDCE700BF3F
:103AC80070B4F2B18D1C8618047802352409092CCB
:103AD80094BF3034373405F8044C10F8014B04F027
:103AE8000F04092C94BF30343734B04205F8034C26
:103AF800EAD101EB42020BB100231370084670BCF7
:103B080070470A46F7E700BFF8B504460F46164661
:103B18001D4600211822FCF733FB27606660A5606C
:103B2800F8BD00BF2DE9F84F0346002203F8012B2A
:103B38000133427003F8012B03F8012B03F8012B22
:103B480003F8012B03F8012B1A70CE688B689E428C
:103B58005DDAD1F804800C4658F8267005466549A8
:103B68000222384608F0BAF8F0B9237D002B57D066
:103B7800226813786BB1002102E012F8103F43B1BC
:103B8800042BFAD123698B4201F10101F5D11346C7
:103B980021612B60E3686268591CE16052F82330A8
:103BA80001206B60BDE8F88F3B782D2BE0D1237D99
:103BB800002BDDD1731CE36058F826707A784AB37D
:103BC800266833781BB925E016F8103F13B3013B7C
:103BD800012BF9D8B3789342F6D12E603378022BB3
:103BE8001BD1384608F04CF8022864D9BB1C6B601E
:103BF800BB783D2B11D1FB1C6B60FB786BB97378DC
:103C08009B0772D500236B600120BDE8F88F104632
:103C1800BDE8F88F002385E888000120BDE8F88F0B
:103C2800731CE36058F826703D21384608F0A0F868
:103C380007F102098046002838D0C9EB000A266837
:103C4800337833B9E6E7012A1ED916F8103F002B5E
:103C5800E0D0032B03F1FF32F5D1BAF1000FF4D114
:103C68002E603378032B02D1012323753378022B7E
:103C7800D3D1B8F1000F1ED008F101036B6098F89A
:103C88000130002BBBD0C8E7D6F804B0BBF1000F59
:103C9800DBD0584607F0F4FF8245D6D1594648464E
:103CA800524608F01BF80028CFD1D9E7484607F05C
:103CB800E7FF8246C3E77378A26813F0020FE36850
:103CC8000AD093429EDA591C6268E16052F82330A8
:103CD80001206B60BDE8F88F934206DA626852F8FB
:103CE800231009782D297FF457AF034B01206B600F
:103CF800BDE8F88FD0F00008A104010870B50246AD
:103D08000E465948594904F0A5F8002825DB3378B0
:103D180006F1100423B94FE014F8103B002B4BD0E8
:103D280014F80F5C6807F7D4514804F093F800289A
:103D380013DB14F8103C022B12D0042B05F00105FC
:103D480018D0052B24D0032B73D014F80E1CC9B13E
:103D5800484804F07FF80028DEDA4FF0FF3070BDE5
:103D6800A9071DD454F80C1C54F8082C424804F038
:103D780071F8F0E7002D60D154F80C1C3F4804F0AE
:103D880069F8E8E754F80C1C3D4804F063F8E2E7EA
:103D9800002D58D154F80C1C3A4804F05BF8DAE7C7
:103DA80014F80E1C002954D154F80C1C54F8082C93
:103DB800354804F04FF8CEE73448354904F04AF85E
:103DC80033780546344683B924E06268002A46D031
:103DD800304804F03FF80546002DBEDBE068D8B156
:103DE80004F01AF814F8103FA3B162785207F9D416
:103DF800032BF7D0E0680028F4D0043B012B0FD93F
:103E0800A1780029E1D1616881B1234804F022F842
:103E18000546E1E7E81770BD204803F0F1FFE1E748
:103E28001F48616804F016F80546D5E7002DD7DA73
:103E380093E71C4804F00EF88DE754F80C1C1A4858
:103E480004F008F887E754F80C1C184804F002F846
:103E580081E754F8082C164803F0FCFF7BE7154867
:103E680003F0F8FF0546B7E7D4F000082505010878
:103E78001C02010830F10008FCF0000814F10008E9
:103E880038F1000824F10008F0F00008DCF0000820
:103E98003D05010848F1000858F10008DCFD00085C
:103EA80040F10008D0F000080CF100081CF10008EF
:103EB800E4F0000864F10008F8B54B680D460746C1
:103EC80016465BB118460D4907F09EFD044628B911
:103ED80038463146FFF712FF2046F8BD0849094A1F
:103EE800094803F0B7FF686803F096FF3846314683
:103EF800FFF704FF4FF0FF34EEE700BF78F100084A
:103F0800F60401089804010880F1000838B5044651
:103F180007F0B6FE0546204603F072FF3A2003F08C
:103F280049FF142D05F1010405DC0134202003F0BC
:103F380041FF162CF9D138BD08B50448044905F0ED
:103F4800C1FBBDE8084005F03FBE00BFFC340020BF
:103F5800FF4D002038B50F4B0F4A1B68A2FB032307
:103F68001B09013BB3F1807F09D20C4A0C4CF025A8
:103F780000200721536084F823509060116006F0F8
:103F88004BFA06F04FFA04F067FCBDE8384005F03C
:103F980099BE00BF2C040020D34D621010E000E051
:103FA80000ED00E004F0E0BB05F03ABF05F046BFC5
:103FB80006F06ABA06F0AEB8FA2303FB00F0034B2A
:103FC800A3FB0030800906F0A5B800BFD34D6210EE
:103FD80030B583B09DF818500A240194009505F077
:103FE800F7FF044608B106F0C3F8204603B030BD19
:103FF8002DE9F0418C468046964684B00B9C9DF88E
:1040080028600A2594E88100414601936246734678
:1040180000970296039505F0B7FF30B9206806F0BF
:10402800A7F8206804B0BDE8F081002004B0BDE81E
:10403800F08100BF05F0F4BF00B583B002AA02F812
:10404800011D022106F0AAF803B05DF804FB00BFC9
:10405800F0B51D46074695E84100D31C23F003033D
:10406800043301FB03F183B0002400911346394661
:104078003246019404F0BCFC10B9286803B0F0BDC6
:10408800204603B0F0BD00BF0121002204F07ABE33
:1040980008B542EAE273028C04F0E4FCB0FA80F05E
:1040A800400908BD08B542EAE273028C04F09CFDA1
:1040B800B0FA80F0400908BD38B505460C4604F052
:1040C800B5FE214600222846FFF7E2FF044604F029
:1040D800C3FE204638BD00BF10B514460549024648
:1040E8000023204604F0DCFB00280CBF20460020FB
:1040F80010BD00BF2D04010808B504F057FCB0FA44
:1041080080F0400908BD00BF08B504F04FFCB0FAC4
:1041180080F0400908BD00BF08B541EAE17104F02C
:10412800CFFBB0FA80F0400908BD00BF05F00EBB18
:1041380005F0FCBB05F0B8BB704700BF704700BF77
:1041480010B50F4882B0FFF7E1FE03230422009365
:104158000C4900230C4803F07DFE0C48FFF7D6FEFF
:104168000B4C0C4B2046196803F074FE0A48FFF705
:10417800CDFE2046FA2102B0BDE8104003F06ABE29
:1041880088F100089CF100088CF10008A8F10008EB
:10419800AC0101082C040020B8F1000808B504F0AF
:1041A80045FE04F0E7FABDE8084004F055BE00BF3C
:1041B800F0B5002A059D069F67DD91F800C0BCF1A7
:1041C800000F2CD00E46002416F801EF0134BEF182
:1041D800000FF9D1A24223DC724613F0020F0CBF84
:1041E8004FF0200E4FF0300E13F001031AD1002AC1
:1041F80052DD3C680CE0046884F800E0046801348F
:1042080004603C6801343C60013A03F1010349D081
:10421800A542F9D90028EED16FF00100F0BD64463F
:10422800121BDAE76646BCF1000F15D000233C6884
:104238000BE0046826700468013404603C680134AB
:104248003C6011F8016F01333EB1A542F9D900284D
:10425800EFD16FF00100F0BD6346002A1FDD3C6816
:104268001A440BE0016881F800E00168013101603F
:104278003C6801343C600133934211D0A542FAD91D
:104288000028EFD16FF00100F0BD13F001030FD14A
:1042980091F800C04FF0200E6646002EC7D11A468E
:1042A8001046F0BD91F800C06646002EBFD1F6E773
:1042B8000E784FF0200E002EB8D13246F0E700BF3E
:1042C800F0B587B00F460F9E109D002945D00C46CB
:1042D800864673BB00238DF817300DF11701002FA8
:1042E80033D01F460E9B0DF11701A3F13A00B4FB22
:1042F800F2F302FB1344092CC8BF2418303401F828
:10430800014D1C46002BF2D1FFB10C9B002B34D180
:104318002D2301F8013C00240139009601957046CF
:104328000C9A0D9BFFF744FF002800DB204407B0E0
:10433800F0BD0A2ACED10029CCDA00234C428DF8F0
:104348001730002C36D00127CCE7119B9BB12B23CB
:1043580001F8013C00240139DFE70096019530247B
:1043680003A90C9A0D9B8DF80D708DF80C40FFF782
:104378001FFF07B0F0BD119CCFE70D9B9B07C7D56A
:104388002B689E420ED9BEF1000F10D0DEF8003027
:104398002D221A70DEF800300133CEF800302B6879
:1043A80001332B600C9B0124013B0C93B5E76FF0A4
:1043B8000100BCE70DF11701A7E700BF2DE9F04F99
:1043C800B3B002F1FF3B1D783C9A002407460B91DD
:1043D80012940792002D00F09C83A146DA4680468D
:1043E8001A461AE01578129B9A450ED9B8F1000FB3
:1043F80000F08F80D8F800301D70D8F80010129B9C
:1044080001310133C8F800101293144609F101096B
:104418006578621C002D00F0D380252DE2D15378F9
:10442800541C002B00F0CC80252B77D02D2B03BFFC
:104438009378941C012600262B2B71D00022099218
:1044480003E014F8013F46F00206302BF9D02E2B7A
:1044580033D0A3F13002D2B2092A2ED9062208920B
:1044680000276C2B04BF63780134682B5DD0583B60
:10447800202B46D8DFE813F025034500450045000A
:104488004500450045004500450045004500B70189
:1044980000028C01C800C8004500450045004500E1
:1044A8004500450045004500D20145004500B100E2
:1044B8004500260245004500190206210D463146F1
:1044C8000027621C3E468B4603E000EB4C0512F8C1
:1044D800013BA3F130012E2BC8B202F1FF340AD000
:1044E800092805EB850C07EB870E07D8002EECD1C1
:1044F80001EB4E07EBE700250126E8E708955E4645
:10450800AFE7129B9A4540F20E82B8F1000F40F0D7
:10451800F2816FF0010033B0BDE8F08F224662E708
:1045280001226378099214448FE763780134583B79
:10453800202BE6D801A252F823F000BFD74A000882
:104548000B4500080B4500080B4500080B45000803
:104558000B4500080B4500080B4500080B450008F3
:104568000B4500080B450008EF47000861490008A3
:104578009947000811460008114600080B45000835
:104588000B4500080B4500080B4500080B450008C3
:104598000B4500080B4500080B4500084549000875
:1045A8000B4500080B450008E34500080B450008CB
:1045B800554900080B4500080B4500084949000803
:1045C80047460B9B13F0010303D1002FA1D03A6893
:1045D8001370484633B0BDE8F08F079BB64D196895
:1045E80012A8002908BF294601903A463346CDF85B
:1045F80000A04046079DFFF7DBFD002805F10405F4
:1046080089DB8144079503E7079B002203F1070E26
:104618002EF0070EDEF800300C931846DEF8043052
:104628001D460A93294600230EF10805079506F052
:104638009DFD002840F02782099B002B40F07681E1
:104648001DAB9B460D93089B072B0ED89B4B089DD3
:104658000C9803EBC5030A99D3E9002306F062F925
:104668000C900A91002D00F03882089D002301204B
:10467800013300EB8000AB424FEA4000F8D10895C7
:1046880006F08CFACDE90E010C980A9906F096FD11
:104698000990002800F06781099BDFF824C2089D73
:1046A8000DF14B0E0020ACFB0312D20802EB820185
:1046B800A3EB410330330EF8013F01301346002AC3
:1046C800F1D10DF14C0E0EEB00030BF1FF3213F894
:1046D800011D734502F8011FF9D108958344089B11
:1046E800002B43D0099806F059FA02460B460C985D
:1046F8000A9906F015F9DDE90E2306F0C5FA06F069
:104708005DFD2E238BF80030002800F00482DFF8CE
:10471800B0C1089D0DF14B0E0021ACFB0023DB0856
:1047280003EB8302A0EB4202303201310EF8012F75
:104738001846002BF1D18D42089598BF0DF14C0E0B
:1047480040F2AD810DF14C0E4B1E089D7344302292
:1047580001318D4203F8012F4FF03000F8D80029BD
:1047680040F09D818BF801000BF1020B12A8002587
:104778000190CDF800A00D993A46334640468BF893
:104788000050FFF715FD0028FFF6C5AE81443FE64F
:10479800079B073323F00703D3E900010833079386
:1047A80006F02CFD054605F0F9FF002840F0E180F1
:1047B8006E2361228DF874308DF876308DF875206F
:1047C8000DF17701002012AD08703A463346404695
:1047D800CDF800A001951DA9FFF7EAFC0028FFF617
:1047E8009AAE814414E6079B12A9D3F800E03A4632
:1047F80033460191CDF800A00025404611A9079E37
:104808008DF844E08DF84550FFF7D2FC002806F1FA
:104818000406FFF680AE81440796F9E50020D8F833
:10482800003030221A70D8F800307822591CC8F8A5
:1048380000105A70D8F80030079A0133C8F80030D1
:104848001346043309F102091168079300B189B2CC
:104858004122099812AB05900292049300970196A1
:10486800CDF80CA0404610220023FFF729FD0028B0
:10487800FFF651AE8144CBE5079A1346116804331D
:1048880007930998612212AB05900292049300974E
:104898000196CDF80CA040460A220123FFF710FD2F
:1048A8000028FFF638AE8144B2E5079A134611682E
:1048B800043307936122CCE7C4F10008D0F1000863
:1048C800CDCCCCCC079A13461168043307930998CA
:1048D800612212AB05900292049300970196CDF8DD
:1048E8000CA040460A220023FFF7EAFC0028FFF646
:1048F80012AE81448CE5D8F8003025221A70D8F819
:104908000020129B511C0133C8F800109A452178E9
:10491800129308D95170D8F80020129B0132013344
:10492800C8F80020129309F1020971E52B238DF8CC
:1049380074301DAB0DF1750B0D9384E601206EE705
:10494800079A1346043311880793B3E7079A134667
:10495800043311880793BAE7079A13460433B2F968
:10496800001007938DE730238BF800300BF1010B13
:10497800B5E6284605F012FF0128284640F2B28025
:1049880005F00AFF002800F096802D2305F1004568
:104998008DF8743028464FF07E5106F02BFF002822
:1049A80040F0B480674B099300239B460894099C08
:1049B8006549284606F032FF4FF07E5118B928465F
:1049C80006F018FF40B13DB12846214606F074FDB7
:1049D8000BF1010B0546EBE701231A46089C0DF184
:1049E8007503CDF820B00A940D964FF07E5B0C97B6
:1049F80014461E4601E03E4601345946284606F054
:104A08000FFE06F045FFC0B200F13002012C3270F3
:104A180006F1010700F0818006F0FAFC01465846CD
:104A280006F04AFD0146284606F03CFC4549054685
:104A3800584606F041FD072C8346DCD13A466523EB
:104A4800099813704FF08041099206F0F1FE0A9C14
:104A58000D9E0C9F099A90B3089B002B0CBF2B202E
:104A68002D20089D3949EB1781FB05E1C3EBA10116
:104A780001EB8103A5EB4303303130339170507063
:104A8800D370111D9EE60A9A2D2302F100428DF87B
:104A980074301DAB0A920DF1750B0D93D3E55A4690
:104AA8000EEB010313F8010D734502F8010FF9D15C
:104AB80001318B445AE620238DF874306AE72B20A5
:104AC800CFE7079A1346043311680793C0E6079A9D
:104AD8001346043311680793B9E61D4B0022CDE94C
:104AE8000E23D1E505F058FE00284FF0690114BFE8
:104AF80020202D206E2266238DF875108DF8740005
:104B08008DF876208DF877301EA95BE60E4B099359
:104B18004AE7A94655E5014614E64FF02E0373709F
:104B280006F076FC0146584606F0C6FC01462846C3
:104B380006F0B8FB03490546584606F0BDFCB71C0D
:104B4800834658E7CDCCCC3D0000204167666666B9
:104B58000000F03F0EB410B587B009AC54F8043B20
:104B68000390009403A800214FF0FF320594FFF74B
:104B780025FC07B0BDE8104003B0704710B584B0FD
:104B880004AC44F8040D0B460092204600214FF077
:104B9800FF32FFF713FC04B010BD00BF10B4084A81
:104BA800084C13680849002B08BF234618441060B6
:104BB8005DF8044B884294BF18464FF0FF307047A9
:104BC8002C340020FC340020004E002038B5FDF7BE
:104BD80019FE0546FFF7ECF9002D06DD00242046F6
:104BE8000134FDF71DFEAC42F9D1002D06DD00248D
:104BF80020460134FDF720FEAC42F9D14FF4FA709B
:104C0800FEF7D6F8F1E700BF704700BF30B5154C86
:104C180083B025680DB103B030BDFFF78DF9FFF7FC
:104C2800F3FFFDF7BFFDD0B10F4910480B78002BFB
:104C380008BF002103F0DAF988B10D490D4800F0EA
:104C48002FF80D490423019100932A460B480C497B
:104C58004FF48053FFF7CCF920600028DBD1FFF731
:104C6800B5FF00BF303400207C01000820F70008A1
:104C780058F200081C07010850F2000848F2000822
:104C8800DD86000808B5054B1B681BB1FFF762F904
:104C9800FFF79CFFFFF7BAFFF8E700BF30340020AA
:104CA800F8B505460F460378144E2F2B08BF01357B
:104CB800002456F83400013418B1294606F0A4FE41
:104CC800B8B1032CF5D132680C4BA2B19A6822B165
:104CD8001B69022413B10020F8BD01247B689847A2
:104CE8000028F8D006EBC40346F834505F60012072
:104CF800F8BD0120F8BD1446F0E700BF38340020A5
:104D080003782F2B01D0002070474378EBB110B403
:104D1800104C22681A445278520710D02F2B0ED00C
:104D2800013006E022681A445278520707D02F2B28
:104D380005D001F8013B10F8013F002BF2D1002308
:104D480001200B705DF8044B704700230B700120A5
:104D5800704700BF0C06002003782F2B01D00020DD
:104D680070474378002BFAD010B4114A0130146808
:104D7800E21805E02F2B0CD010F8013FE21823B100
:104D880052785207F6D12F2B03D000205DF8044B40
:104D98007047013003782BB101F8013B10F8013F4F
:104DA800002BF9D1002301200B705DF8044B7047EC
:104DB8000C06002070B584B06946FFF7A1FF70B1FA
:104DC800094E002456F8340006EBC405013418B126
:104DD800694606F019FE20B1032CF3D1002004B077
:104DE80070BD2846FBE700BF3834002070B588B096
:104DF80005460E46FFF7DEFF694604462846FFF7DC
:104E0800ABFF28B134B1636868469B6B314698475D
:104E180008B070BD204608B070BD00BF2DE9F04154
:104E280088B004460E46FFF7C5FF6946054620468A
:104E3800FFF792FF90B1A5B1FFF7B6F81A49002421
:104E48000B465A680C3382B10134052CF9D1FFF7AF
:104E5800ADF86B6807221B6800201A6008B0BDE82F
:104E6800F081284608B0BDE8F08104EB44086B687F
:104E78004FEA880801EB08077B60FFF797F86B6833
:104E880068461B6A31469847074A034638B96A6834
:104E98000621126811607B6008B0BDE8F08142F815
:104EA800080004F10A00D9E75034002010B30A388A
:104EB80004282BD8002A27DDF8B54600164B3518EC
:104EC80003EB85052C7A6CB93044800003445B6899
:104ED800114DF3B15B6A2858984700280EDB44B19E
:104EE8000130F8BD00270C70013A01312F720124FE
:104EF800EAE7F8BD0846114602F04ABF002C14BF85
:104F080001204FF0FF30F8BD002070474FF0FF3010
:104F180070474FF0FF30F8BD503400200A3804289D
:104F280015D8F8B500EB40000B4D84002E197368B6
:104F38007BB15A6B28591F6890473860FFF734F8DF
:104F4800002373602B51FFF731F80120F8BD0020D2
:104F580070471846F8BD00BF5034002070B58CB0BB
:104F68000E460546FFF726FF044620B12846694647
:104F7800FFF7C6FE10B900200CB070BD28460DF131
:104F88001101FFF7E9FE30B163683146DB6B04A815
:104F980098470CB070BD2F23ADF81030F4E700BF70
:104FA80001207047024600230B60184613607047C3
:104FB800002070470020704700207047002070478D
:104FC8004FF0FF30704700BF10B40F4B013853F853
:104FD8003040ACB1002A0FDD03EBC0025268114427
:104FE80000290DDBA26891420ADC03EBC0030846E6
:104FF80059605DF8044B70471CBFA268511AEFE76F
:105008004FF0FF30F5E700BF54250020002070471F
:10501800034B0138002243F830200120704700BFBD
:1050280054250020074900220B4643F8042B04337B
:105038004A6043F8042B43F8042B43F8042B1A6006
:1050480001207047542500202DE9F0410646114DF6
:10505800114F002457F834304FEAC4082BB10134FB
:10506800032CF7D10020BDE8F081286820B9F6E7C5
:1050780055F80C0F0028F2D0314606F0C5FC002880
:10508800F6D1B844C8F8040047F83450601CBDE8AD
:10509800F08100BFACF200085425002070B5054629
:1050A8000E46084C084802E054F80C0F40B1294657
:1050B80006F0AAFC0028F7D1A3680120336070BD70
:1050C80070BD00BFACF2000898F20008F8B5104BAC
:1050D800013853F83050BDB103EBC0067768AB68B0
:1050E800DB1B23EAE3739A42A8BF1A4614460AB99F
:1050F8001046F8BD08466968394406F0EFFB726847
:10510800204614447460F8BD4FF0FF30F8BD00BF6E
:105118005425002038B50D46084906F075FC50B9ED
:10512800074C0848A1680022A84754F80C0F00282B
:10513800F8D1012038BD002038BD00BFA0F200081A
:10514800ACF2000898F20008F0B589B0431E0A1DB9
:105158000F4602A81C490026FEF7D6FC354602A9D0
:105168006846FEF7DFFC1949044680B1009BEBB1A5
:105178005C68204606F048FC154930B1204606F028
:1051880043FC0028EBD1019EE9E70125E7E7B6B12A
:10519800304602F0A5FE0F4A0F4B002814BF1046F8
:1051A800184602F039FE204609B0F0BD3868694655
:1051B800054AFEF781FE0446204609B0F0BD29469F
:1051C80002F0A8FE0446EEE7D0F2000840F300081B
:1051D80044F300083F0401085C0501082DE9F04F7D
:1051E8008FB00A1D431E4FF47A754FF0FF34804686
:1051F8000E4608A8424904950594FEF785FC414CE3
:10520800414D424F4FF0000906A808A9FEF78AFC55
:10521800002858D0069B002B67D05B68A34248D073
:10522800AB4256D0BB42EFD10B9B56F8230002F09D
:1052380057FE0B9F8246C7EB0803019306EB8707CF
:10524800002840D0324B98423DD0324E4FF0000BF0
:1052580001983946D0478046002834D1B9F1000F6B
:1052680004D0059B0BF1010B9B451EDA049BFA2425
:10527800032B9CBF04230493FEF794FE0546FEF718
:1052880091FE049B022104FB03F3A6FB032305EB19
:1052980093139842DCD20DF10F00FEF74BF8013062
:1052A800EDD09DF80F30032BE9D140460FB0BDE893
:1052B800F08F04A90798FEF79BFB06A808A9FEF73C
:1052C80031FC0028A6D14FF0010840460FB0BDE8D8
:1052D800F08F079805A9FEF78BFB059B4FF0010996
:1052E800002B91DC4FF0FF38DFE7306806A9044A4D
:1052F800FEF7E2FD804640460FB0BDE8F08F00BFE4
:1053080000F3000828040108660501085E05010885
:10531800E5510008D34D621070B58AB0431E0A1DCE
:105328000E4604A84FF47A7412490194124DFEF700
:10533800EBFB04E0029B7BB15B68AB4215D002A893
:1053480004A9FEF7EFFB04460028F3D10198FEF705
:1053580033FE20460AB070BD306802A9054AFEF740
:10536800ABFD044620460AB070BD039801A9FEF7BC
:105378003FFBE4E714F9000864040108012813DD81
:1053880070B506460D46012401E002F039FD55F8D6
:10539800040F013402F034FDB4420448F5D1044846
:1053A80002F02EFD002070BD002070471C0201088D
:1053B800DCFD000810B504464078E188FDF768FD7B
:1053C800A068FDF7ABFCA1882078FDF761FDA06817
:1053D800FDF7A4FCA1882078FDF752FDA068FDF731
:1053E8009DFC6078E188BDE81040FDF749BD00BF2D
:1053F80010B504464078E188FDF742FDA068FDF746
:105408008DFCA1882078FDF73BFDA068FDF786FCA0
:10541800E1886078FDF73CFDA068FDF77FFC207807
:10542800A188BDE81040FDF733BD00BFF8B5037C87
:105438000446002B0F4614BF01258025082615E0D9
:10544800FDF71EFDA068FDF769FCA1882078FDF72F
:1054580017FDA068FDF762FC2078A188FDF718FD0C
:10546800237C6A004BB1013ED5B20AD03D42607838
:10547800E188E5D1FDF70CFDE4E7013E4FEA55056B
:10548800F4D1E1886078FDF7FBFCA068FDF746FCE5
:105498002078A188FDF7F4FCE1886078FDF710FD1D
:1054A8000546A068FDF73AFC2078A188FDF7F0FCD6
:1054B800B5FA85F04009F8BD70B50A4E56F8204097
:1054C80074B10546A1882078FDF798FC6078E188DA
:1054D800FDF794FC2046FEF72DFE002346F8253004
:1054E80070BD00BF70250020F8B51B4E074656F862
:1054F80020400D463CB32078A188FDF77FFC6078FA
:10550800E188FDF77BFC2B686868A968EA68236076
:105518006060A160E260A178E2782B69012505FA54
:1055280002F205FA01F12361E280A180207889B2B4
:10553800FDF77AFC6078E188FDF78CFC2046FFF7E0
:1055480039FF2846F8BD1420FEF7F0FD044610B1D7
:1055580046F82700D7E7F8BD702500202DE9F84F59
:10556800594CDDF828A054F82040002C00F09C800D
:105578001E4691460D462046F3B1FFF739FF0B9BB7
:105588007BB39DF82C102046FFF750FF002800F051
:105598009480002EC8BF761906DD15F8011B204639
:1055A800FFF744FFB542F8D1BAF1000F1DD10C9BAB
:1055B80073B10120BDE8F88FFFF71AFF0B9B6BB999
:1055C800E3685B00D9B22046FFF730FF002874D0AB
:1055D8002046FFF7EFFE0120BDE8F88F9DF82C105C
:1055E800F1E7E3685B00D9B2CDE72046FFF700FF9B
:1055F8000B9B002B5BD09DF82C102046FFF716FF65
:1056080000285AD0BAF1000FD1DD09F1FF390AF1AB
:10561800FF3B4FF00008237C6078002BE18814BF23
:10562800012680260825FDF72BFC002702E0013D16
:10563800D6B21BD0A068FDF771FB2078A188FDF7D2
:105648001FFC6078E188FDF73BFC00B13743A06898
:10565800FDF764FB2078A188FDF71AFC237C720013
:10566800002BE4D1013D4FEA5606E3D1C3456078EB
:10567800E18816DCFDF704FCA068FDF74FFBA18864
:105688002078FDF7FDFBA068FDF748FB08F101084D
:105698002078A188FDF7FCFBD04509F8017FBAD135
:1056A80085E7FDF7F5FBE7E72046BDE8F88FE368F7
:1056B800590041F00101C9B29FE72046FFF77AFE81
:1056C8004FF0FF30BDE8F88F702500202DE9F04F2E
:1056D800ADF5177D00240A1D431E012605258246C7
:1056E800894610A89E4908948DF82C408DF82D40C5
:1056F8008DF82F400E948DF83C408DF82E600D9556
:10570800A046FEF701FAA34605940494954D964CDD
:10571800964E09A810A9FEF705FA28B3099B002B95
:1057280000F0A7805F68A74255D0AF4260D0B7426B
:1057380063D08F4A974248D08E4A974255D0384610
:105748008D4906F061F9002842D038468B4906F0A9
:105758005BF9002856D1012309A810A98DF83C301F
:10576800FEF7E0F90028D9D1049B002B40F0DA803D
:10577800059B002B40F0DE80139A059C0132924570
:10578800139207AE40F39B8016AD0AE0139A336874
:10579800013292452B551392294604F1010440F336
:1057A8008F8059F822003146FEF722F90028EDD102
:1057B800734802F025FB139B59F8230002F02CFBD9
:1057C80001200DF5177DBDE8F08F01230493A0E7B4
:1057D8004FF0010B9DE70A980EA9FEF709F900287A
:1057E80000F0B2804FF0010893E70123059390E79A
:1057F8000A980DA9FEF7FCF88BE70A9808A9FEF7A6
:10580800F7F886E738465F4906F0FEF868B138468B
:105818005D4906F0F9F8002835D05C4A97427FF4D4
:1058280078AF139B013B13939EE706A90A980A22B7
:1058380007F010FB069B8DF82C00A3B11A782E2ACE
:1058480011D1581C06905B786BB106A90A2207F0A3
:1058580001FB069B8DF82E00002B3FF45AAF1B78F6
:10586800002B3FF456AF4A4802F0E8FA4FF0FF30F9
:1058780005E0D9F8000009A9394AFEF71DFB0DF526
:10588800177DBDE8F08F06A90A980A2207F0E2FA08
:10589800069B8DF82D00002BE5D01A782E2AE2D130
:1058A800581C06905B78002BDDD006A90A2207F069
:1058B800D1FA069B8DF82F00002BD0D129E716A925
:1058C800089AB8F1000F3BD00E9B56AD8DE80C0836
:1058D800002023462A46FFF741FE306090B301308E
:1058E80038D0089B002B1BD04FF00003336017DD26
:1058F8001C4605E03368089A01339A4233600BDD91
:10590800E95C244802F0A6FA04444E2CF2DD0A2091
:1059180002F050FA0024EDE714B10A2002F04AFA26
:105928000020ACE70BA90020FFF7DEFDB0FA80F0FD
:105938004009A4E7049C2046FFF7BEFD20469EE7E9
:105948004346C2E701209AE7204602F077FA4FF073
:10595800FF3094E7104802F071FA02208FE700BF89
:1059680034F90008A504010806040108FA0301082F
:105978002B050108D504010844FB00084CFB00086E
:1059880058FB000850FB000854FB00086D0501088F
:105998000C05010868FB000864FB000870B50E4E92
:1059A80056F82040B4B1054621892078FDF726FA3B
:1059B80060786189FDF722FAA078A189FDF71EFABF
:1059C800E078E189FDF71AFA2046FEF7B3FB0023D9
:1059D80046F8253070BD00BF6C250020F8B5314D64
:1059E800074655F820400E46002C51D020782189D2
:1059F800FDF704FA60786189FDF700FAA078A189BB
:105A0800FDF7FCF9E078E189FDF7F8F9726830688C
:105A1800B368F1686260E160A36094F807C0206031
:105A2800217994F805E0A779B3697269306901258D
:105A380005FA0EFE05FA0CF605FA01F105FA07F764
:105A4800A3616261A4F80AE02181206189B220780B
:105A5800A781E681FDF7D2F960786189FDF7E4F95D
:105A6800A078A189FDF7E0F9E078E189FDF7DCF994
:105A7800E078E189FDF704FA237EA078A1891BB9B3
:105A8800FDF706FA2846F8BDFDF7FAF92846F8BDED
:105A98001C20FEF74BFB044610B145F82700B5E77C
:105AA800F8BD00BF6C250020F8B5384B53F82050DE
:105AB800002D68D00C464E798879CF790A79012370
:105AC80003FA00F003FA02F103FA06F6BB40A081DC
