:020000040800F2
:1000000000500020CD010008211D0008251D00081A
:10001000291D00082D1D0008311D000800000000EA
:10002000000000000000000000000000B1BB00085C
:10003000351D00080000000041BC000885BC000818
:100040002D0200082D0200082D0200082D020008D4
:100050002D0200082D0200082D0200082D020008C4
:100060002D0200082D0200082D0200082D020008B4
:1000700029270008552700082D0200082D02000836
:100080002D0200082D0200082D020008CD2A0008CC
:10009000D12A00082D0200082D0200082D020008B8
:1000A0002D0200082D0200082D0200082D02000874
:1000B0002D0200082D0200082D0200082D02000864
:1000C0002D0200082D0200082D0200082D02000854
:1000D0002D0200082D0200082D0200082D02000844
:1000E0002D0200082D020008ED2A00080000000083
:1000F0000000000000000000000000000000000000
:0C01000000000000000000005FF808F1A3
:10010C003C6D637573683E003230313931303230BA
:08011C002D313233323334007F
:020124000000D9
:080128002408010001000000A1
:1001300070B4840746D0541E002A41D0CDB2034685
:1001400002E0621EE4B3144603F8015B9A07F8D19B
:10015000032C2ED9CDB245EA05250F2C45EA0545DD
:1001600019D9264603F11002103E0F2E42F8105CFA
:1001700042F80C5C42F8085C42F8045C02F11002A0
:10018000F2D8A4F1100222F00F0204F00F04103292
:10019000032C13440DD91E462246043A032A46F87E
:1001A000045BFAD8221F22F003020432134404F045
:1001B00003042CB1C9B21C4403F8011BA342FBD1B8
:1001C00070BC704714460346C2E700BF002103E03D
:1001D0000F4B5B58435004310E480F4B42189A4264
:1001E000F6D30E4A02E0002342F8043B0C4B9A423D
:1001F000F9D30C4A03E05FF0A53342F8043B0A4B05
:100200009A42F8D300F014F80BF0F8FD70470000A4
:100210001832010800000020840900208409002011
:10022000E0160020004C002000500020FEE70000F7
:1002300030B43C4B3C49186882B040F00100186073
:100240005D6800202940596019684FF41F0421F0AF
:10025000847121F48031196019681A4621F48021D3
:100260001960596821F4FE0159609C60009001906A
:10027000196841F48031196003E0009BB3F5A06F69
:1002800009D0136803F400330193009B01330093FA
:10029000019B002BF1D0234B1B6813F4003318BFD4
:1002A00001230193019B012B06D0204B4FF00062EC
:1002B0009A6002B030BC70471D4A1A4B106819464C
:1002C00040F010001060106820F00300106010680B
:1002D00040F0020010605A685A605A685A605A68C2
:1002E00042F480625A605A6822F47C125A605A685A
:1002F00042F4E8125A601A6842F080721A600B6881
:10030000084A9B01FBD51146536823F00303536051
:10031000536843F0020353604B6803F00C03082B4F
:10032000FAD1C2E7001002400000FFF800ED00E043
:100330000020024040F0BF60024B40F40030D86023
:10034000704700BF00ED00E0C3785BB9037801217E
:100350005A09174803F01F03203201FA03F340F84B
:100360002230704730B4134A4378D2688178D24340
:100370000F24C2F30222D440C2F1040503FA05F2AD
:1003800004EA0103017813431B0101F16042DBB26F
:1003900002F5614282F800330378012203F01F0066
:1003A00003495B09824041F8232030BC704700BFFD
:1003B00000E100E000ED00E008B5174B984212D0D4
:1003C000164B98421BD0164B984200D008BD4FF4F4
:1003D0000040012100F08CFBBDE808404FF40040D4
:1003E000002100F085BB4FF40070012100F080FB7C
:1003F000BDE808404FF40070002100F079BB4FF4D5
:100400008060012100F074FBBDE808404FF480607B
:10041000002100F06DBB00BF002401400028014016
:10042000003C014042680B6822F4702230B422F490
:1004300080720C79134343EA0423436085688C6817
:10044000CA68094B22432B404C79134343EA4403C7
:1004500083600A7CC36A013AD2B223F4700343EA90
:100460000253C36230BC7047FDF7F1FF836819B9CE
:1004700023F001038360704743F0010383607047FA
:10048000836819B923F480738360704743F48073E1
:1004900083607047836843F008038360704700BF40
:1004A0008068C0F3C0007047836843F00403836032
:1004B000704700BF8068C0F380007047836819B937
:1004C00023F4A0038360704743F4A0038360704764
:1004D000092970B41CD9A1F10A0404EB4404C568CD
:1004E0000726A640A34025EA06042343062AC36044
:1004F0001AD90C2A25D90D3AC46A02EB82021F23AD
:10050000934024EA030391401943C16270BC7047D1
:1005100001EB410605690724B440B34025EA040411
:100520002343062A0361E4D8013A446B02EB8202BA
:100530001F23934024EA030391401943416370BC95
:100540007047073A046B02EB82021F23934024EAB0
:10055000030391401943016370BC70474FF6FE726C
:1005600003683A491A4088424FF000030260036072
:1005700043608360C36027D0354B98422AD0354B07
:1005800098422DD0344B984230D0344B984239D0D9
:10059000334B98423CD0334B98420FD0324B984269
:1005A0003CD0324B98423FD0314B984242D0314BF5
:1005B000984245D0304B98421ED070472F4A53681E
:1005C00043F07063536070472C4A536843F00F0345
:1005D00053607047294A536843F0F00353607047F3
:1005E000264A536843F4706353607047234A536844
:1005F00043F4704353607047214A536843F47023B7
:100600005360DAE71D4A536843F470235360704720
:100610001A4A536843F4700353607047184A53688A
:1006200043F00F0353607047154A536843F0F003DB
:1006300053607047124A536843F4706353607047C5
:100640000F4A536843F470435360704708000240F8
:100650001C000240300002404400024058000240AA
:100660006C00024080000240080402401C0402406A
:10067000300402404404024058040240000002409A
:10068000000402408A6830B40D6A0B692A434D6940
:1006900013438A691D43CB6945EA02044D6A026827
:1006A00023438C6A1D4322F4FF432C4323F0700341
:1006B00023430360CB6830BC43600B6883604B68A6
:1006C000C360704729B94FF6FE7302681340036098
:1006D0007047036843F001030360704703681AB969
:1006E00023EA01010160704719430160704700BFB0
:1006F000C3004CBF014B024B5860704700040240DE
:1007000000000240014B5861704700BF00040140E7
:1007100070B4CD78EB0648BF8B7805F00F0448BF66
:100720001C430B8813F0FF0F30D013F00106026852
:1007300040F03C8103F00205ADB2002D40F01C8179
:1007400003F00405ADB2002D40F0238103F008054D
:10075000ADB2002D40F0DC8003F01005ADB2002DED
:1007600040F0E38003F02005ADB2002D40F0EA80B8
:1007700003F04005ADB2002D40F0F18003F080039E
:100780009BB2002B40F01E8102600B88FF2B29D901
:1007900003F48075ADB24268002D32D103F40075C8
:1007A000ADB2002D40D103F48065ADB2002D4ED125
:1007B00003F40065ADB2002D5CD103F48055ADB2F9
:1007C000002D6AD103F40055ADB2002D78D103F4A9
:1007D0008045ADB2002D40F0878003F400439BB20A
:1007E00013B9426070BC7047CD7864F31F72282D36
:1007F00004BF4361CD78482D04BF4FF4004303612B
:10080000EFE7CB7822F00F02282B42EA040200F037
:10081000F480482B04BF4FF4807303610B8803F40A
:100820000075ADB2002DBED0CB7822F0F002282B9F
:1008300042EA041200F0DE80482B04BF4FF400733C
:1008400003610B8803F48065ADB2002DB0D0CB7886
:1008500022F47062282B42EA042200F0C880482B60
:1008600004BF4FF4806303610B8803F40065ADB2ED
:10087000002DA2D0CB7822F47042282B42EA043219
:1008800000F0B280482B04BF4FF4006303610B8873
:1008900003F48055ADB2002D94D0CB7822F47022B1
:1008A000282B42EA044200F09C80482B04BF4FF4FE
:1008B000805303610B8803F40055ADB2002D86D040
:1008C000CB7822F47002282B42EA045200F0868092
:1008D000482B04BF4FF4005303610B8803F4804599
:1008E000ADB2002D3FF479AFCB7822F07062282BA7
:1008F00042EA04626FD0482B04BF4FF48043036187
:100900000B8803F400439BB2002B3FF46AAF6BE704
:10091000CE7822F47042282E42EA043270D0482E5B
:100920007FF41AAF05610B8816E7CE7822F47022A7
:10093000282E42EA04426BD0482E7FF413AF0561A3
:100940000B880FE7CE7822F47002282E42EA045278
:100950005BD0482E7FF40CAF05610B8808E7CE789A
:1009600022F07062282E42EA04625DD0482E7FF4A5
:1009700005AF05610B8801E7CE7822F0F002282E42
:1009800042EA04124DD0482E7FF4DAAE05610B889E
:10099000D6E6CE7822F47062282E42EA04223DD0B8
:1009A000482E7FF4D3AE05610B88CFE622F00F020C
:1009B000282D42EA04022ED0482D7FF4BBAE0661FA
:1009C0000B88B7E6CD7864F31F72282D1BD0482D15
:1009D00008BF0361D8E64561CB788CE74561CB78E9
:1009E00076E74561CB7860E74561CB784AE74561BA
:1009F000CB7834E74561CB781EE74561CB7808E7D3
:100A000045610B88A8E64361BEE645610B88AFE609
:100A100045610B88A6E646610B888BE645610B882D
:100A200094E645610B888BE645610B88A6E600BF1E
:100A30004FF6FF710222042301808270C370704759
:100A4000806880B2704700BF0161704741617047A4
:100A5000C1607047014B1860704700BF0030004014
:100A6000014B5860704700BF00300040014B986058
:100A7000704700BF003000404AF6AA22014B1A60BE
:100A8000704700BF00300040014B1860704700BF46
:100A9000D8004242034A536823F44043184350604D
:100AA000704700BF00100240044A536919B923EA95
:100AB00000005061704718435061704700100240B9
:100AC000044A936919B923EA0000906170471843FA
:100AD0009061704700100240044AD36919B923EAB3
:100AE0000000D06170471843D06170470010024089
:100AF000044AD36819B923EA0000D060704718434C
:100B0000D060704700100240274A038890429BB291
:100B100012D002F5006290420ED0B0F1804F0BD09F
:100B2000A2F59832904207D002F58062904203D03D
:100B300002F58062904203D14A8823F07003134388
:100B40001A4A904227D002F58062904223D0CA8888
:100B500023F440739BB2134303808A88124B82852F
:100B60000A889842028511D0114B98420ED003F5A5
:100B7000406398420AD003F58063984206D003F59B
:100B80008063984202D00123838270470B7A0386E8
:100B900001238382704703808B8883850B880385BC
:100BA00001238382704700BF002C014000100040E9
:100BB00000340140038CF0B423F001031B041B0C30
:100BC0000384048C8788028B4E8824F002040B89EE
:100BD0001B4D240422F07302240C334312040E88AC
:100BE0002343120CA8429BB2BCB242EA060216D0C2
:100BF00005F50065A84212D005F54065A8420ED063
:100C000005F58065A8420AD005F58065A84206D0A2
:100C100084800283CA88F0BC8286038470474E8930
:100C2000CF898D8923F00803334324F440748E88E0
:100C30003D4323F004032C433343A4B2E8E700BF51
:100C4000002C0140038CF0B523F010031B041B0C97
:100C50000384038C8588028B23F020031B04B1F8E6
:100C600008E022F4E6420C88184E1B0C4F88120450
:100C700043EA0E13120C43EA071342EA0422B0427D
:100C80009BB2ADB294B208D0114A904205D0858093
:100C90000483CA8802870384F0BD4FF6BF7623F031
:100CA00080024B8992B2B1F80CE042EA031225F4BB
:100CB00040658B88CF89164045EA8E0546EA0313C6
:100CC00045EA87059BB2ADB2E1E700BF002C0140C9
:100CD00000340140038CF0B523F480731B041B0C1B
:100CE0000384038C848823F40073828B0D891B0496
:100CF000194E1B0C4F8822F0730243EA052312049D
:100D00000D8843EA0723120CB0429BB2A4B245EA15
:100D1000020509D006F50066B04205D084808583BF
:100D2000CA8882870384F0BD4FF6FF3623F4006241
:100D30004B8992B2B1F80CE042EA032224F4405409
:100D40008B88CF89164044EA0E1446EA032344EA0E
:100D500007149BB2A4B2E1E7002C0140038CF0B56C
:100D600023F480531B041B0C0384028C8488838B24
:100D700022F400521204B1F808E023F4E643114DC6
:100D8000120C4F881B040E8842EA0E321B0C42EAFA
:100D9000073243EA0623A84292B2A4B29BB20AD019
:100DA00005F50065A84206D084808383CB88A0F82F
:100DB00040300284F0BD8D8924F4804444EA8514D7
:100DC000A4B2F1E7002C0140038829B923F0010304
:100DD0001B041B0C038070479BB243F0010303808C
:100DE000704700BF83899BB21AB923EA0101818150
:100DF000704719438181704701858282704700BF27
:100E0000818470478185704781867047018770476C
:100E100081877047A0F84010704700BF08B538B10F
:100E2000064B1B681B689847054B18680A3008BDBD
:100E3000034B01221B681A8208BD00BF500D002021
:100E4000540D002008B538B1064B1B689B689847C5
:100E5000054B18680C3008BD034B01221B681A8231
:100E600008BD00BF500D0020540D002008B51F4BD9
:100E7000002832D01E481A6800210180137813F030
:100E80007F0316D0012B27D0022B24D1527902F0F8
:100E90000F039B0003F1804303F5B84312061B6860
:100EA0001FD403F44053B3F5805F0ED101230370C8
:100EB0000BE0527A930654BF0378022351064CBFCD
:100EC00043F0010323F0010303700A4B1B681B6905
:100ED0009847074808BD084608BD1B6802221A82C9
:100EE00008BD03F03003102BEFD1DFE7540D0020D5
:100EF000240D0020500D00202DE9F041254F3C68C5
:100F0000238A267A23B9042E2AD0A58A042603E050
:100F1000A58AAB42FAD902269D4228BF1D46A36985
:100F2000284698478046002000F0DEFD2A4601460C
:100F3000404600F0E9FC2946002000F0F5FD638AF8
:100F4000228A1549521B1D44144B2282658230208F
:100F50004FF440523C6808801A802672BDE8F08148
:100F60000F4A1178012906D00B4B102207261A8050
:100F70002672BDE8F0810B480B490068064D80B22F
:100F8000014449000B804B8030213C68137029805C
:100F9000E3E700BF540D00205C0D00205A0D002037
:100FA00084090020505C00400230002038B52F4BEF
:100FB0001B68187810F07F0003D0022806D00220AA
:100FC00038BD5A7A22F020025A7238BD5A88002A57
:100FD000F6D11A79002AF3D15A7922F080008400E0
:100FE000150604F18044224D04F5B84421682D789B
:100FF0004CBF01F0300101F44051A842DFD200297A
:10100000DDD09B7A002BDAD01206236809D503F0D5
:101010003003102B1ED0174B1B685B6998470020CC
:1010200038BD03F44053B3F5805FF4D1D8B9124B07
:1010300093F82C1000F086FD236823F4804323F0FE
:1010400070039BB283F4405343F4004343F08003A6
:101050002360E0E7C4B2204600F014FD20463021B2
:1010600000F092FCD7E700F0FBFCE5E7540D002010
:101070002C050020500D0020A804002038B5204B7E
:101080001C68617921F0800083000D0603F1804324
:101090001C4D03F5B8431A682D784CBF02F030029E
:1010A00002F44052A84201D3022038BD60880028D3
:1010B000FAD1002AF8D0A27A002AF5D009061A68D7
:1010C00011D522F4E04222F0400292B282F01002E6
:1010D00042F4004242F080021A600B4B1B689B698D
:1010E0009847002038BD22F4804222F0700292B26C
:1010F00082F4805242F4004242F080021A60ECE72F
:10110000540D00202C050020500D0020054B1B68BD
:101110005A8A10B108681044704789888A1A1A825E
:10112000704700BF540D0020F0B5A94BA94D1968B8
:10113000A94A2B6889B20A44197A5200092983B056
:1011400014685BD0A4B2640004F1804404F5C04488
:1011500022781A702B6862785A70A0882E6800F086
:1011600023FD708020892E6800F01EFDB080A289CA
:101170002B680121DA801972002A44D05878062899
:1011800000F09580002857D15988002900F0A480EC
:10119000924C23681B699847032800F014814FF68E
:1011A000FF712B681A8A8A4256D002280CD05AB195
:1011B00093F900100029C0F2C48089494FF44050CF
:1011C000032208801A7201E008221A72854B00205F
:1011D00093F82C1000F0B6FC2B68187A082806D17A
:1011E0007F49814B4FF4805410220C801A80A0F16B
:1011F0000900B0FA80F0400903B0F0BDDA8801219F
:101200001972002ABAD11A785E7812F07F0226D0BD
:10121000012A00F0AD80022A00F006816F4C23689D
:1012200030465B699847032800F0328100282ED0B1
:101230002B6808221A72C9E708285FD11A7852066B
:10124000A6D16A4A00209A61588290474FF6FF71F2
:101250002B681A8A8A42AAD109221A72B6E7092E85
:1012600000F0FF80052E00F0D080032E00F0E88013
:10127000012ED3D1DA78012AD0D19A88002ACDD193
:101280005B7A9F06CAD5FFF791FE0028C6D1504A67
:10129000574B1268002192B213445B001980524AE6
:1012A00059802B683021118006221A728EE71A7835
:1012B00056067FF46DAF9A78484C012A00F0E5801D
:1012C000022A00F09F80032A7FF463AF2268526AEB
:1012D000002AB7D106205CE75A6822F47F42B2F5B3
:1012E000003F7FF455AF187810F07F0040F0D480B5
:1012F0009A88002A7FF44CAF3E4AA3E70A287FF47D
:1013000047AF1A7802F07F02012A7FF441AF9A7A40
:10131000002A3FF43DAF598800297FF439AF5A685D
:101320002E4C22F47F42B2F5803F7FF432AF5879E1
:1013300023689B6998472B68002840F0EB802E4A71
:1013400080E7D98801910198824235D8914240F2D4
:10135000AA802249096891F82C0081B2914240F29A
:10136000A780264A002010709982FFF7C5FD2DE75F
:101370000B2E1A4C7FF453AF22685879D9789369B1
:1013800098472B68134F9A7A002A3FF448AF0028F9
:101390007FF445AF1A79002A7FF441AF9B78002B88
:1013A0007FF43DAF164B1B68DB6898473B68597963
:1013B000DA78D9721A736AE7084A019912681982B1
:1013C00092F82C10D0E72B6809221A72FEE600BFB3
:1013D000505C0040540D0020043000202C0D0020F3
:1013E0005A0D0020A80400205C0D00201D0E0008EE
:1013F000023000206D0E0008450E00088409002010
:10140000500D00202268126A62E793F90320002A37
:1014100007DB9A782AB99A881AB99A7A002A3FF48F
:1014200036AF08221A72D1E6012E3FF42CAF032EFC
:101430007FF4F4AEFFF722FE00283FF428AFEDE67C
:10144000DA78012A7FF4EAAE9A88002A7FF4E6AEC1
:101450005A7A314942F0200209685A72CB6998479A
:1014600015E72E49DA7849789142FFF4D7AE99789A
:1014700000297FF4D3AE998800297FF4CFAE2649A6
:101480009A720B685B68984701E72268D2691FE788
:101490002B6809221A7299E6012830D0022812D04E
:1014A00008461F4C75E61E4A126892F82C105BE73E
:1014B00092FBF0F400FB1422002A7FF455AF194A86
:1014C0000120107050E7587900F00F018A000406DF
:1014D00002F18042114C02F5B842126824784CBFE8
:1014E00002F0300202F44052A14206D210F0700025
:1014F00003D1002A7FF400AF4AE6002048E6084CFA
:10150000587923689B6998472B6818B99A7A002AFA
:101510007FF4F2AE58783CE6500D00202C050020F8
:101520002C0D002084090020F8B5284C23681A7A75
:10153000022A26D0042A24D0062A18D00821244AB8
:101540001972002092F82C1000F0FCFA2368187A27
:10155000082806D11F49204B4FF4805410220C80DC
:101560001A80A0F10900B0FA80F04009F8BD5A785D
:10157000052A0BD0194B1B689B68984723680821E4
:10158000DDE7FFF7B9FC2368197AD8E71A7812F07B
:101590007F02EFD11249DF780E7876B1114840F61C
:1015A0000F73056842F400412B4041F08001013285
:1015B0000B43964240F8043BF1D10B4A47F08007B9
:1015C0000A4B17601B681B6A9847D3E7540D00202D
:1015D000A80400205A0D00205C0D00202C0D0020D6
:1015E0002C050020005C00404C5C0040500D0020A9
:1015F000F8B53A4D2C68237A022B07D0042B05D07E
:10160000032B1CD0052B1AD0072B47D00823344AB4
:101610002372002092F82C1000F094FA2B68187AAC
:10162000082806D12F49304B4FF4805410220C80EB
:101630001A80A0F10900B0FA80F04009F8BDA36952
:10164000228AB3B1B2B1A68A964228BF1646304666
:101650009847228A638A921B334407462282638218
:10166000002000F051FA32460146384600F066F993
:10167000228AD2B9A38A3BB31B492A681B4B062096
:1016800010721A681A4B92B213445B0000221A803F
:101690005A802C683022237A0A80B8E7154B1B68E1
:1016A000DB6898472C680823B1E70E4B00204FF405
:1016B000405201461A8000F037FA238AA28A0A496A
:1016C00030209A42088003D82C68032323729EE7B7
:1016D000002BD2D02C680523237298E7540D0020EC
:1016E000A80400205A0D00205C0D0020505C004032
:1016F000023000202C0D002070B40C4B1E787EB1FF
:101700000B4C002240F60F73256842F400412B4039
:1017100041F0800101320B43964244F8043BF1D181
:10172000044B40F08000186070BC70472C0500200E
:10173000005C00404C5C0040704700BF70B4074A3A
:1017400007490848084E094C094B022515720860E4
:10175000236032601B6870BC184700BF340D002046
:10176000500D0020D8040020540D00202C0D002026
:10177000A80400202DE9F04FDFF880A1DFF8809168
:10178000D0464F4685B00023DFF878B1564DADF80E
:101790000E30DBF80030554C99B21B04544E524ABF
:1017A000AAF8001040F19480B8F8003003F00F035D
:1017B000990001F1804101F5B84189F80030002B12
:1017C00031D14BF6BF73216889B22980298801F095
:1017D00030013180298801F44051298021680B4073
:1017E00083F4005383F0200343F4004343F0800369
:1017F0002360B8F80030D90642D523689BB2ADF813
:101800000E30BDF80E301B0565D4BDF80E301BB28E
:10181000002BBEDA40F68F73019221680B402360E3
:10182000FFF7E6FE34E00B689BB2ADF80E30BDF872
:101830000E301BB2002B17DBBDF80E301A06A8D5F0
:1018400048F60F7299F800302A499B0003F1804353
:1018500003F5B843186802401A6099F80030013B5C
:1018600051F82330984794E740F68F730868224A6E
:1018700003400B603B78013B52F823309847DBE78D
:1018800048F60F73019221680B402360FFF74CFE6E
:101890004BF6BF73019A2068118812880340CD046B
:1018A00048BF83F480539404328848BF83F40053C4
:1018B000D006328848BF83F01003910648BF83F0FA
:1018C000200343F4004343F08003084A9BB21360B3
:1018D00005B0BDE8F08F40F68F73019221680B4090
:1018E0002360FFF721FCD3E75A0D0020005C004085
:1018F0005C0D00206804002084040020DC1500201A
:10190000300D0020445C004001F10051013201F52E
:10191000405152104FEA41010FD030B40230002341
:1019200010F8015C10F8024C023044EA052421F85A
:10193000234001339A42F3D130BC704701F100518A
:10194000013201F5405152104FEA410105D051F8E2
:10195000043B013A20F8023BF9D170474FF6F87387
:10196000014A034013607047505C0040800000F162
:10197000804000F5B840036823F4EC4323F0700383
:10198000194389B201607047800000F1804000F582
:10199000B8400368CA0623F4E04323F040039BB237
:1019A00048BF83F010038A0648BF83F0200343F446
:1019B000004343F080030360704700BF800000F1E4
:1019C000804000F5B8400368CA0423F4804323F044
:1019D00070039BB248BF83F480538A0448BF83F4EA
:1019E000005343F4004343F080030360704700BF9B
:1019F000800000F1804000F5B840036823F4E04324
:101A000023F040039BB283F0300343F4004343F0E0
:101A100080030360704700BF800000F1804000F544
:101A2000B840036823F4804323F070039BB283F42F
:101A3000405343F4004343F080030360704700BF0A
:101A400040F60F62800000F1804000F5B840036866
:101A5000134043F4004343F080030360704700BF2A
:101A6000800000F1804000F5B84003685B0408D5B1
:101A700040F60F730268134043F4404343F0800381
:101A800003607047800000F1804000F5B8400368B3
:101A90005B0608D540F60F730268134043F4004319
:101AA00043F0C00303607047064B49081B684900B8
:101AB0009BB203EBC00000F1005000F54050400025
:101AC00001607047505C0040054A064B12684908A7
:101AD00092B202EBC000034449005B0019607047FA
:101AE000505C004004300020064B1B689BB203EBA7
:101AF000C00000F1005000F540504000006880B286
:101B0000704700BF505C0040054A064B126892B215
:101B100002EBC00003445B00186880B2704700BF4E
:101B2000505C004004300020044A054B126892B219
:101B300002EBC00003445B0019607047505C00403A
:101B4000023000200E4A0F4B12683E2992B202EB7F
:101B5000C00003444FEA43030AD94A09C80604BF38
:101B600002F1FF3292B2920242F400421A607047D0
:101B70004A08C90748BF013292021A60704700BF85
:101B8000505C004006300020054A064B126892B2B5
:101B900002EBC00003445B001868C0F30900704703
:101BA000505C004006300020C3B2000A40EA032027
:101BB000704700BF10B40649064C074A00204FF496
:101BC0003F4320600B8013605DF8044B704700BFFB
:101BD000580D0020445C0040405C004070B500F0AF
:101BE0007F0528460E46FFF7CFFF04462846FFF73D
:101BF0008BFF224601463046FFF7A0FE204670BD0F
:101C0000704700BF704700BF08B500F0B9FD00F095
:101C100001FA00F065FA00F00FF800F07BF900F02F
:101C2000F9FBFFF7EFFF4FF4165000F0B9FD00305D
:101C300018BF012008BD00BF2DE9F8430B4C0C4F25
:101C400004F104094FF0010817F8013B14F8016B87
:101C500008FA03F52946304600F09AFA304629463C
:101C600000F0EEFA4C45EFD1BDE8F883700E0108A4
:101C70006C0E010804207047034A044B125C0121DA
:101C80009140185C00F0D4BA6C0E0108700E010887
:101C9000034A044B125C01219140185C00F0D0BA59
:101CA0006C0E0108700E0108034A044B125C0121FE
:101CB0009140185C00F0CCBA6C0E0108700E01085F
:101CC000064A08B5125C064B01219140185C00F0F1
:101CD000D1FA003018BF012008BD00BF6C0E01080A
:101CE000700E0108BFF34F8F0549064BCA6802F416
:101CF000E0621343CB60BFF34F8F00BFFDE700BF2F
:101D000000ED00E00400FA0508B501460C220123AD
:101D1000024801F06DFC012008BD00BFE8F7FF1F7D
:101D2000FEE700BFFEE700BFFEE700BFFEE700BF23
:101D3000FEE700BFFEE700BF2DE9F04393B001A826
:101D40004B4CFEF775FE4B4D0023DFF83881271D05
:101D50008DF80730012614F8013B15F8012B06FA1F
:101D600003F358F8220001A9ADF80430FEF7D0FCC7
:101D7000BC424FF00109EED149464FF40070FEF726
:101D80009FFE4FF40040FEF785FE3B4F3B48FEF7B9
:101D900013FB00254FF460220423384802A92C4687
:101DA000029505952E468DF80C908DF80D900492B5
:101DB0008DF818303D46FEF735FBE1B24A1C013480
:101DC000D2B22E480223FEF783FB042C25F8026BC7
:101DD000F3D12A480121FEF749FB28480121FEF7EB
:101DE0004FFB2648FEF756FB2448FEF759FB002818
:101DF000FAD12248FEF758FB2048FEF75BFB044669
:101E00000028F9D101200146FEF74EFE21461C486C
:101E1000FEF758FCDFF870801948FEF79FFB4FF47F
:101E200080764FF0040C4FF0800E20224FF4805348
:101E300007A94FF480651248CDF828C0CDF830E0EE
:101E40000F921093089709940B941194CDF81C806D
:101E50000D960E95FEF716FC09480121FEF732FC9F
:101E600006480121FEF72AFB13B0BDE8F08300BF4E
:101E7000740E0108780E0108880900200024014032
:101E8000080002407C0E01084C240140F8B50D4CBE
:101E90000D4D271D012615F8013B14F8010B06FA1C
:101EA00003F100F023F9BC42F5D10848FEF784FAAB
:101EB00007480021FEF706FCBDE8F8400448FEF79D
:101EC0004DBB00BF780E0108740E010800240140CC
:101ED000080002400000000008B50B4B33F810006A
:101EE0000AF09AFF0AF058FB05A3D3E900230AF091
:101EF000A7FB0022054B0AF0A3FB0AF083FE08BDF6
:101F00006666666666660A40880900200000303F03
:101F10000420704770B5022088B00121FEF7DCFD77
:101F2000012503221823694617488DF802208DF8F1
:101F30000330ADF80050FEF7EBFB144B144A1B685E
:101F4000144EA2FB0323002430461B0A01A9ADF85E
:101F50000830ADF80640ADF80A40ADF80440FEF791
:101F6000D3FD6023304604A9ADF81030ADF816401B
:101F7000ADF81250ADF81840FEF7ACFE30462946D9
:101F8000FEF722FF08B070BD000C01402C040020B9
:101F9000D34D62100004004038B5174BB3F9002050
:101FA000824219D1154B1C88A5B215480021FEF7B5
:101FB00027FF29461248FEF725FF24B2294610487C
:101FC0000122FEF719FF04EBD471C1F34F010C4855
:101FD000BDE83840FEF71CBF0A4A18801368B3FBFF
:101FE000F0F00AF0B7FA0AF029F80AF0C3FD034B43
:101FF00084B21C80D8E700BF90090020920900201D
:10200000000400402C04002001480021FEF700BF1E
:10201000000400404FF44070FEF78CB9431E0028C6
:1020200044D000BF00BF00BF00BF00BF00BF00BF63
:1020300000BF00BF00BF00BF00BF00BF00BF00BFA8
:1020400000BF00BF00BF00BF00BF00BF00BF00BF98
:1020500000BF00BF00BF00BF00BF00BF00BF00BF88
:1020600000BF00BF00BF00BF00BF00BF00BF00BF78
:1020700000BF00BF00BF00BF00BF00BF00BF00BF68
:1020800000BF00BF00BF00BF00BF00BF00BF00BF58
:1020900000BF00BF00BF00BF00BF00BF00BF00BF48
:1020A00000BF00BF00BF13F1FF33BAD2704700BFBB
:1020B00041F2707282B010F1FF300CD30192019B9B
:1020C000002BF8D0019B013B0193019B002BF9D120
:1020D00010F1FF30F2D202B0704700BF0720704706
:1020E0004FF4FE700121FEF7EBBC00BF2DE9F0417B
:1020F000032282B0482380460D460F4F8DF80620FC
:102100008DF807300024012602E00134202C0FD086
:1021100045FA04F3DB07F8D506FA04F357F828006C
:1021200001A90134ADF80430FEF7F2FA202CEFD10A
:1021300002B0BDE8F08100BF7C0E01082DE9F0413E
:10214000002A82B014BF48222822032380460D466D
:102150000E4F8DF807208DF806300024012602E08E
:102160000134202C0FD045FA04F3DB07F8D506FA2A
:1021700004F357F8280001A90134ADF80430FEF744
:10218000C7FA202CEFD102B0BDE8F0817C0E010827
:102190002DE9F041032282B0102380460D460F4FF7
:1021A0008DF806208DF807300024012602E0013466
:1021B000202C0FD045FA04F3DB07F8D506FA04F318
:1021C00057F8280001A90134ADF80430FEF7A0FA51
:1021D000202CEFD102B0BDE8F08100BF7C0E0108D9
:1021E0002DE9F041032282B0142380460D460F4FA3
:1021F0008DF806208DF807300024012602E0013416
:10220000202C0FD045FA04F3DB07F8D506FA04F3C7
:1022100057F8280001A90134ADF80430FEF778FA28
:10222000202CEFD102B0BDE8F08100BF7C0E010888
:10223000024B89B253F82000FEF706BC7C0E010861
:10224000024B89B253F82000FEF700BC7C0E010857
:1022500038B5074B0C4653F820502846FEF7F0FBE4
:1022600080EA040189B22846BDE83840FEF7F0BB99
:102270007C0E0108044B10B553F820000C46FEF705
:10228000DFFB204010BD00BF7C0E01082DE9F04FA0
:102290008046012089B00F46424C01461646424D09
:1022A000FEF71AFCDFF818B10322182304F1040A20
:1022B0008DF802208DF803304FF0010914F8013B2E
:1022C00015F8012B09FA03F35BF822006946ADF813
:1022D0000030FEF71DFA5445F0D10025B8F1000F8B
:1022E0004FF0804001A9314CADF80650ADF80A50CE
:1022F000ADF80450ADF8085008BF4FF47A78FEF7F7
:1023000003FC60220123ADF81650ADF81850ADF86B
:10231000102004F11005ADF8123054F8043B4FF0D2
:10232000804004A99847AC42F7D14FF0804001218A
:10233000FEF74AFD002FDCBF64273B461C4CC8BF9C
:10234000BBB24FF0804000212380FEF759FD218869
:102350004FF08040013989B2FEF754FD07FB08F7C2
:10236000144B4FF0804019680122B1FBF7F7791E3A
:1023700089B2FEF741FD002EABBFB6B23227374619
:102380003E460D4C0D4D04F1100854F8043B4FF03F
:10239000804031469847444525F8027BF5D109B085
:1023A000BDE8F08F980E0108BC0E0108AC0E0108C4
:1023B000300400202C0400209C0E01089409002009
:1023C0007C0E0108F8B5074C074D271D012615F8AE
:1023D000013B14F8010B06FA03F1FFF787FEBC423C
:1023E000F5D1F8BDBC0E0108980E010838B50446B9
:1023F0000D46054B89B253F820304FF08040984786
:10240000024B23F8145038BD9C0E0108940900209B
:1024100004207047244A70B51346002443F8044B47
:102420000433546043F8044B43F8044B43F8044B23
:1024300088B01C604FF4006001211C4DFEF740FB8A
:1024400001200146FEF730FB2846472301A901265B
:10245000ADF80830ADF80640ADF80A40ADF80440DC
:102460008DF80C40FEF750FB1023284604A9ADF868
:102470001030ADF81640ADF81840ADF81260FEF718
:1024800099FB284604A9FEF7DDFB284632464FF4A7
:102490000071FEF7A7FC284632464FF48061FEF734
:1024A000A1FC304608B070BD600D0020002C01403A
:1024B0002DE9F04F83468DB082488A4600211E46A2
:1024C0009046179F189D804CFEF77EFC7F480021A8
:1024D000FEF7F8F87E480021FEF7F4F823783BB1C8
:1024E000A06808B10AF036FFE06808B10AF032FFD0
:1024F00016990022012384F802B084F803A0A4F8FE
:102500000680A680A160E760256162702370002DBF
:1025100000F0A780B8F1000F00F09D8050464146C2
:10252000FFF736FE002E40F097806A4B18680AF0DD
:102530006FFC19990AF078FD4FF08D4183460AF03F
:102540005DFE8246002840F098805846DFF874B15E
:102550000AF022F809F072FDABF824A00AF00AFB99
:1025600081B2ABF82C1058460122FEF745FCDDF88D
:1025700064C04FF480624FF480534FF0000A4FF074
:10258000800E4FF48071302008920A93C4F814C072
:10259000CDF818E00791CDF814A0CDF82CA0FEF7E7
:1025A000A7F84FF44070FEF7A3F80A2301228DF834
:1025B00001308DF802A08DF80320434BB8F1000FD5
:1025C00025D0169919B393F803E04348196950F8D8
:1025D0002E0093F802E0169B00F10C0C10200293E1
:1025E000CDF804C004910390BEF1000F62D0202307
:1025F0000993364801A9FEF745F834480121FEF752
:1026000061F80CA80C2300F8303DFDF79DFE002E6C
:102610002FD077B3E278304BA47853F822300022E1
:1026200008330297049501930392002C3BD020239A
:10263000099301A92648FEF725F801212448FEF751
:1026400041F80CA80D2300F8303DFDF77DFE012078
:102650000DB0BDE8F08F46B150463146FFF746FD5C
:1026600063E728460DB0BDE8F08F30460DB0BDE8F9
:10267000F08F01200DB0BDE8F08FDFF848A04FF0DB
:1026800000094FF07E515846AAF824900AF00EFB3C
:102690000AF002FE80B2AAF82C00494650460122F8
:1026A000FEF7AAFB63E70A48022101220994FEF71C
:1026B00015F8BEE705480221CDF824E0FEF70EF834
:1026C00097E700BF002C0140600D00201C00024075
:1026D000300002402C0400207C0E0108074B1878C3
:1026E00008B1186900B9704710B5012421460448A3
:1026F0005C70FEF769FB204610BD00BF600D002036
:10270000002C0140044B1A7802B970470022114690
:1027100002485A70FEF758BB600D0020002C0140A3
:1027200000487047600D002010B5074B002422467A
:10273000064802215C70FDF7D1FF2246BDE810403B
:1027400003480221FDF7CABF600D00201C000240B3
:102750003000024010B5074B0024224606480221F3
:102760005C70FDF7BBFF2246BDE810400348022124
:10277000FDF7B4BF600D00201C0002403000024095
:1027800008B545F25550FEF765F940F6FF70FEF7C3
:102790006DF9BDE808400220FEF762B9FEF76CB99A
:1027A00010B501210022802007F01CF90B4C0022FB
:1027B00020600121802007F015F9094A2368106084
:1027C00053B150B100F088F800F0A8F800F0C4F858
:1027D000FEF7B4FF012010BD184610BD780D002093
:1027E0007C0D00200120704708B5064B00211868B9
:1027F00007F0B0F8044B00211868BDE8084007F066
:10280000A9B800BF780D00207C0D002010B5074B43
:10281000044601464FF0FF32186807F0E5FA002839
:1028200014BF20464FF0FF3010BD00BF780D0020D0
:1028300010B5064B04460A460146186807F0D4FA5C
:10284000002814BF20464FF0FF3010BD780D002047
:102850002DE9F043002983B0D8BF002718DD894651
:102860000646DFF83C8000270524F55DD8F8000017
:102870000DF10701FA2200238DF8075007F0F8F850
:1028800001284FF0010007D008F01EFA013CECD1FE
:10289000384603B0BDE8F08307444F45E4D1F7E77D
:1028A0007C0D002070B506460A4D82B005242868CC
:1028B0000DF10701FA2200238DF8076007F0D8F820
:1028C00001284FF0010003D008F0FEF9013CEED1E1
:1028D00002B070BD7C0D002010B5002082B04FF416
:1028E000C051FFF755FC4FF4C0510020FFF7A8FC82
:1028F0000520FFF7DDFB4FF4C054182203230648E0
:1029000001A9ADF804408DF807208DF80630FDF7D9
:10291000FFFE02B010BD00BF0008014008B5002056
:10292000FEF7B2F8BDE808404FF400000121FEF7C1
:10293000D3B800BF064B9B7A23B9064B01221A601D
:10294000FDF776BC034B05221A60FDF771BC00BF92
:10295000340D0020C009002010B5094B82B002AC34
:1029600044F8043D2046FDF7EFFC2A2206232046CA
:102970008DF804208DF80530FDF7E6FC02B010BD9F
:1029800014070001704700BF704700BF0120704767
:1029900070B5002382B0019371B10446074E45180B
:1029A00001E0AC4208D02146306801AA002307F0BC
:1029B000B7F901340028F4D102B070BD780D0020C1
:1029C000F8B5204D2B78012B31D01F4F3B68B3F564
:1029D000006F2DD01D4A11688B4230D01DD898B29F
:1029E000C91A40291ED94033A1F1400C4024184A8D
:1029F000DFF860E001261044C02122463B60CEF89B
:102A000000C02E70FEF780FF30462146FFF78CF89D
:102A10003046BDE8F840FEF7EBBFC3F50061402942
:102A200098B2E0D80B448CB24FF0000CDFE7F8BD51
:102A3000064B00201968386009B10346D0E700232F
:102A40002B70F8BD9C090020A4090020A0090020DB
:102A5000840D0020A8090020F0B5104D83B0104C63
:102A6000104F114E0FE022689DF80710531CB3F56C
:102A7000006FB95402BF002213462260326818BFAB
:102A800023609A4207D028680DF10701002207F061
:102A900033FB0128E7D003B0F0BD00BF7C0D002060
:102AA000A0090020840D0020A409002000B589B0F1
:102AB0006846FFF729F9684603491822002300F009
:102AC000C1FD09B05DF804FB36040020704700BF6B
:102AD00008B500F06FF8044B4FF080521A60BFF356
:102AE0004F8FBFF36F8F08BD04ED00E04FF48020DF
:102AF000FDF708BEF8B5154A1378012B00D0F8BDD4
:102B0000134C2368FBB1402B124E15D831689DB28F
:102B100000278AB20B441048C02110442A46336073
:102B20002760FEF7F1FE29460120FEF7FDFFBDE814
:102B3000F8400120FEF75CBFA3F140073368402551
:102B40009AB22B44E7E71370F8BD00BF9C09002040
:102B5000A8090020A4090020840D002010B5074C0E
:102B600003202146FFF73AF8C1B22046FFF710FFD5
:102B7000BDE810400320FEF74FBF00BF9C150020AA
:102B800008B50A4B1B68052B00D008BD084A13681E
:102B9000052B03F1010101D0116008BD0023136072
:102BA000FFF75AFFBDE80840FFF70ABFC009002041
:102BB000AC09002030B56449644C0B68644D9BB28D
:102BC000238022882B8889B01A40920556D4228807
:102BD00002F4004213424DD1228802F48062134273
:102BE0003FD1228802F40052134204D04DF6FF7206
:102BF000554B1A602B88228802F48052134227D149
:102C0000228802F4006213420AD0524B1B78E3B9C7
:102C1000022000F07BFA4FF2FF724B4B1A602B88B8
:102C2000228802F4807213420DD04FF6FF61464BAA
:102C3000494A1960126815042CD4484B00221A60C6
:102C4000072000F063FA09B030BD00F0CDF9E2E7EB
:102C50004EF6FF723C4B00201A6000F057FA2B88AA
:102C6000CEE74FF6FF31384A3D4B11605B6898471D
:102C70002B88B6E7FEF77EFD2B88ADE74FF6FF53B6
:102C8000384A0B6013780133DBB21370FFF778FF1B
:102C90002B889CE731490A6801320A600A68032AD6
:102CA000CED9314802681407CAD404682F4A304D7F
:102CB000A4B214602C68A4B200946C68A4B201940D
:102CC000AC68A4B20294EC68A4B203942C69A4B2D8
:102CD00004946C69A4B20594AC69A4B20694EC693E
:102CE000A4B20794146844F0010414601468A4B2F8
:102CF0000460146824F001041460126892B2026047
:102D00001A6811485205FBD54FF6FF330360009B4C
:102D1000174A9BB21360019B9BB25360029B9BB20C
:102D20009360039B9BB2D360049B9BB21361059B92
:102D30009BB25361069B9BB29361079B00229BB29F
:102D400040F8283C0A607BE7445C0040DC1500202A
:102D5000580D0020C4090020485C0040B80900203C
:102D6000A8040020B4090020405C0040B009002005
:102D7000005C0040034B9B7A13B1034B05221A60A1
:102D8000704700BF340D0020C0090020014B042211
:102D90001A607047C0090020704700BF212810B595
:102DA000034603D0202810D0022010BD0E4B1A6815
:102DB000137803F07F03212BF6D10C490024916195
:102DC000548220468847204610BD074A1268117871
:102DD00001F07F01212903D0054A0220137010BDA4
:102DE000034804490370E9E7540D00202D2E000824
:102DF000BC090020452E0008074B1B681B7803F018
:102E00007F03212B01D00220704700F0DF00022851
:102E100014BF022000207047540D002009B1022089
:102E2000704701288CBF02200020704708B103487A
:102E30007047034B08221B681A8270472405002044
:102E4000540D002008B103487047034B08221B684B
:102E50001A82704724050020540D002010B5FFF79A
:102E600025FE064B00241B689C7200F0A5F8FEF7B7
:102E7000A1FEFFF789FD024B1C6010BD540D002020
:102E8000C009002010B5334B334A1B68D2790024A7
:102E90005A729C72DC722046FEF760FD20464FF4A9
:102EA0000071FEF763FD20461021FEF76DFD204600
:102EB0004021FEF709FE80212046FEF7F5FD204661
:102EC000FEF7BEFD254B204693F82C10FEF73AFE88
:102ED0002046FEF7A1FD21460120FEF747FD012017
:102EE000C021FEF7E1FD01202021FEF74DFD214626
:102EF0000120FEF763FD02204FF4C061FEF736FDAE
:102F000002204FF48071FEF7CFFD21460220FEF72C
:102F100055FD02202021FEF737FD21460320FEF754
:102F200025FD03204FF48871FEF7CEFD03204021DC
:102F3000FEF708FE03204FF44051FEF73FFD214607
:102F40000320FEF721FD2046FEF7D6FB044B0122AD
:102F50001A6010BD540D0020280F0108A80400209D
:102F6000C009002010B5054C2378202B00D010BDDF
:102F7000FFF70CFD0023237010BD00BFBC0900202B
:102F80000149FEF7C3B800BFFC0400200149FEF769
:102F9000BDB800BFA0040020054B1B68DB78042BE4
:102FA00004D8044901EBC301FEF7B0B80020704714
:102FB000540D00200405002038B50120FFF7E2FC85
:102FC000064D074B074C00224FF4E05101201860DA
:102FD0001A602A6021801960104638BD445C0040A8
:102FE000405C0040580D0020F0B441490023414AA4
:102FF00082B001930B6810683F4A404C80B2106069
:1030000020689BB280B25060606843F4806580B2F3
:103010009060A06880B2D060E06880B210612069E2
:1030200080B25061606980B29061A66923F00104AA
:103030002B46A4B2B6B245F0010544F4806730488F
:10304000D6610B600D600F6003682D495D05FBD5EF
:103050004FF6FF330B60136826489BB2036053683A
:1030600044F481649BB2436093689BB28360D368ED
:103070009BB2C36013699BB2036153699BB2436106
:1030800093699BB28361D369194A9BB2C36114608F
:1030900013681C4C9BB243F00403136023681A4866
:1030A0000193236823F0030343F0010323600369C2
:1030B00043F0040303610B68DB0410D54EF6FF7583
:1030C0004FF6F7730D6011680B401360019B23608E
:1030D000036923F00403036102B0F0BC704730BF02
:1030E000036923F00403036102B0F0BC704700BF22
:1030F000405C0040005C0040E4150020045C00409F
:10310000445C00400070004000ED00E070B5324CBF
:10311000072818BF20702378052B4BD8DFE803F071
:10312000181F30353F0363782B49013BDBB26370D6
:10313000637803F0FF02002B3ED14FF6EF73274870
:10314000274C06680625334003600D70226070BD71
:10315000234B1B68002B30D00523237070BD4FF626
:10316000FB731E4D2A6813402B60FFF7E3FB1C4BDB
:103170004FF43F4004210122286021701A6070BD85
:10318000022203236270237070BD6378124A013BF0
:10319000DBB2637063787BB90423137070BD0F4A90
:1031A000052013680A219BB243F0100313602070BE
:1031B000617070BD0623237070BD4FF6FB73074D21
:1031C0002A6813402B60FFF7B5FB4FF43F420623FC
:1031D0002A60237070BD00BFE0150020405C0040F5
:1031E000C80900200023037043704360704700BF8C
:1031F000F0B51D780144012D5C7848D045D3022DEF
:1032000041D18842154639D007782A4E44EA9714AE
:103210003F2C98BF16F804E007F03F04365D88BFE6
:103220004FF03D0E85F800E06E705E6801300136AB
:10323000132E5E602DD00235884236D004781D4EA4
:10324000A708F65D04F00304013024012E7005F197
:10325000010E884223D00778013044EA17143F2C2E
:1032600096BF144E3D26365D07F00F0488420EF1DE
:1032700001054FEA84048EF80060C5D102215C701C
:10328000A81A1970F0BD0020F0BD1546D4E7964687
:10329000DFE70A270026AF7003355E60CCE7012127
:1032A0005C70C2EB0E001970F0BD00215C70A81AB2
:1032B0001970F0BD6C0F01080B78012B17D0022B91
:1032C00005D003460A2203F8012B181A70474B78E1
:1032D0003F2B96BF0E4A3D21D15C03463D2203F8A9
:1032E000021B42700A2203F8012B181A70474B7810
:1032F0003F2B96BF064A3D22D25C3D2302704370AD
:1033000083700A22C31C03F8012B181A704700BFF0
:103310006C0F01080023037043707047F0B45C78B1
:1033200014701C78032C7FD8DFE804F04E341A02A6
:10333000164601443D4F88425AD010F8015BA5F172
:103340002B042A2DE4B2F6D9502CF4D83C5D250686
:10335000F1D4357804F03F042C433470013635E065
:1033600016460144314F884249D010F8015BA5F15F
:103370002B042A2DE4B2F6D9502CF4D83C57002C5B
:10338000F1DB3578C4F383073D43A40135707470D5
:103390000136CFE716460144244F884236D010F854
:1033A000015BA5F12B042A2DE4B2F6D9502CF4D8F8
:1033B0003C57002CF1DB3578C4F301173D43240161
:1033C000357074700136CDE716460144174F8842B8
:1033D00023D010F8015BA5F12B042A2DE4B2F6D915
:1033E000502CF4D83C57002CF1DBA4003470D3E708
:1033F000032119703178B01A5970F0BC704702215E
:1034000019703178B01A5970F0BC704701211970E9
:103410003178B01A5970F0BC7047002119703178BA
:10342000B01A5970F0BC70470020E6E7B00F0108F1
:10343000704700BF704700BF01F0B0B8F0B583B06F
:1034400005460F4607F0FAFA224EA6FB003424097F
:10345000D7B92149214AA1FB04035B09A1FB030160
:10346000A2FB04024909C3EB0310A4EB8004C1EBE7
:103470000111A3EB81030094D20A2846184901F0F8
:1034800051F8284603B0F0BDFA2303FB140012499B
:10349000A1FB04234FF47A7202FB00F05B09A1FB4D
:1034A00003210E4AA6FB0060A2FB04624909C3EB9C
:1034B0000316C1EB0111A4EB86040009A3EB810301
:1034C00001900094D20A2846064901F02BF82846BC
:1034D00003B0F0BDD34D621089888888C5B3A2912E
:1034E0001410010800100108F8B103780BB9184650
:1034F000704730B583B00D46002201A904460BF099
:1035000021FF019B73B19C4201D10BE0019313F8A1
:10351000012B202AFAD0092AF8D01AB928600120F4
:1035200003B030BD002003B030BD704728B3F0B504
:10353000067883B016B9002003B0F0BD14460D46DE
:10354000002201A907460BF0FDFE019B0646002B59
:10355000F1D09F4201D1EEE7019313F8010B20282F
:10356000FAD00928F8D02A2809D00028E3D1034648
:1035700001202E60236003B0F0BD00207047184684
:1035800001A900221F4601930BF0DCFE019B002BDA
:10359000D1D09F4201D1CEE7019313F8012B202A0D
:1035A000FAD0092AF8D0002AC5D1012871F1000308
:1035B000DDDB431EDCE700BFB8B110B582B00C46BE
:1035C00001A90BF00DFE019B0BB90BE0019313F861
:1035D000012B202AFAD0092AF8D01AB9206001203C
:1035E00002B010BD002002B010BD0020704700BF27
:1035F000F0B52AB38D1C871804780235240904F12C
:10360000300604F1370E092C94BF3446744605F891
:10361000044C10F8014B04F00F0404F1300604F1DF
:10362000370E092C94BF34467446B84205F8034C53
:10363000E2D101EB42020BB1002313700846F0BD4A
:103640000A46F8E770B44AB18C1E861810F8015B80
:10365000B04224F8025FF9D101EB42010BB1002323
:103660000B8070BC704700BFF8B504460F46164685
:103670001D4600211822FCF75BFD27606660A560EF
:10368000F8BD00BF034600222DE9F04F03F8012BDF
:103690000133427003F8012B03F8012B03F8012BCF
:1036A00003F8012B03F8012B1A70CE688B6883B0E6
:1036B0009E424CD2D1F804800C4658F8267005463C
:1036C0007B49022238460AF075FDF8B9237DD807F8
:1036D00041D5226813786BB1002102E012F8103F47
:1036E00043B1042BFAD123698B4201F10101F5D1D9
:1036F000134621612B60E3686268591CE16052F84F
:10370000233001206B6003B0BDE8F08F3B782D2B98
:10371000DFD1237DDA07DCD4731CE36058F8267010
:103720007A78002A72D02668337823B96EE016F8CA
:10373000103F002B6AD0013B012BF8D8B37893429D
:10374000F5D12E603378022B73D00120DBE71046D1
:1037500003B0BDE8F08F731CE36058F826303D21BC
:1037600018461E4601930AF06FFD06F102098046D5
:10377000002875D0C9EB000622681378002B4AD0C8
:10378000924626B93CE01AF8103F002B43D0013B8B
:10379000012BD346F7D8DAF80470002FF3D038465F
:1037A0000AF0DAFC8642EED13946484632460AF043
:1037B00001FD0028E7D1C5F800B09BF80030032BCD
:1037C00005D1237D43F0010323759BF80030022BC4
:1037D000BBD1B8F1000F58D008F101036B6098F825
:1037E0000130002BB1D19BF80130990734D500236B
:1037F0006B60012087E7012A12D91AF8103F53B1F4
:10380000032B03F1FF32D346F5D1D4E7002385E83B
:103810008800012077E7019A00236A602B6094E713
:10382000DAF804000028E8D00AF096FC0028E4D179
:10383000C1E738460AF090FC022816D9BB1C6B6021
:10384000BB783D2B81D1FB1C6B60FB78002B7FF498
:103850007CAF73789B07CAD4164B01206B6052E78C
:1038600048460AF079FC064686E7737813F0020FA3
:10387000E36810D0A1685A1C8A42B8D86168E26037
:1038800051F8233001206B603DE79BF8013013F0C5
:10389000020FE368EED1A268591C9142DCD862683D
:1038A00052F8230000782D287FF428AFD4E700BF1A
:1038B000281001087C2C010870B502460E465948B4
:1038C000594905F0C3FA002825DB337806F11004C6
:1038D00023B94FE014F8103B002B4BD014F80F5CC9
:1038E0006807F7D4514805F0B1FA002813DB14F843
:1038F000103C022B12D0042B05F0010518D0052B2B
:1039000024D0032B73D014F80E1CC9B1484805F01D
:103910009DFA0028DEDA4FF0FF3070BDA9071DD4F4
:1039200054F80C1C54F8082C424805F08FFAF0E7C4
:10393000002D60D154F80C1C3F4805F087FAE8E7E9
:1039400054F80C1C3D4805F081FAE2E7002D58D1EF
:1039500054F80C1C3A4805F079FADAE714F80E1C12
:10396000002954D154F80C1C54F8082C354805F0A3
:103970006DFACEE73448354905F068FA33780546E4
:10398000344683B924E06268002A46D0304805F006
:103990005DFA0546002DBEDBE068D8B105F006FAF9
:1039A00014F8103FA3B162785207F9D4032BF7D073
:1039B000E0680028F4D0043B012B0FD9A17800293E
:1039C000E1D1616881B1234805F040FA0546E1E79D
:1039D000E81770BD204805F0D3F9E1E71F4861689A
:1039E00005F034FA0546D5E7002DD7DA93E71C48F1
:1039F00005F02CFA8DE754F80C1C1A4805F026FA4D
:103A000087E754F80C1C184805F020FA81E754F8B1
:103A1000082C164805F01AFA7BE7154805F016FA47
:103A20000546B7E72C100108482D01080C260108AF
:103A300088100108541001086C100108901001084A
:103A40007C1001084810010834100108682D010895
:103A5000A0100108B0100108701E0108981001089C
:103A60002810010864100108741001083C100108B6
:103A7000BC100108F8B54B680D46074616465BB109
:103A800018460D490AF02CFA044628B93846314642
:103A9000FFF712FF2046F8BD0849094A094805F01A
:103AA000D5F9686805F082F938463146FFF704FF1A
:103AB0004FF0FF34EEE700BFD0100108F42C0108EE
:103AC000702C0108D8100108F0B5002A059C069F4B
:103AD0006CDD91F800C0BCF1000F2FD00E46002520
:103AE00016F801EF0135BEF1000FF9D1AA4226DC2C
:103AF000724613F0020F0CBF4FF0200E4FF0300E45
:103B000013F001031DD1002A14DD3B6800285FD0AB
:103B100015469C4208D9036883F800E00368013326
:103B200003603B6801333B60013DF2D191F800C076
:103B30001346002266464EB91846F0BD6546521B34
:103B4000D7E76646BCF1000F5BD000233D6840B369
:103B5000AC4207D905682E700568013505603D68DF
:103B600001353D6011F8016F0133002EF0D1002ABC
:103B7000E2DD3968002836D015468C4208D9016844
:103B800081F800E001680131016039680131396074
:103B9000013DF2D19818F0BD11F8016F0133002EEC
:103BA000E5D0AC42F8D96FF00100F0BD13F001038D
:103BB00007D191F800C04FF0200E6646002EC5D107
:103BC000BAE70E784FF0200E002EBED13046F0BD81
:103BD000054601E0013A11D09C4205F10105F9D9F1
:103BE0006FF00100F0BDD01801E0834208D08C4294
:103BF00003F10103F9D96FF00100F0BD2A4697E700
:103C0000F0BD6346B3E700BFF0B587B00F46109D27
:103C1000002949D00C468646002B30D100238DF870
:103C200017300DF11701002F35D01E460E9B0DF1F8
:103C30001701A3F13A07B4FBF2F302FB134438195E
:103C4000092CC8BF0446303401F8014D1C46002B36
:103C5000F1D106B30C9B002B38D12D2301F8013C88
:103C60000C9A002401390F9B70468DE828000D9BAB
:103C7000FFF72AFF002800DB204407B0F0BD0A2A26
:103C8000CCD10029CADA00234C428DF81730002C21
:103C90003BD00126CAE7119BABB12B2301F8013CB5
:103CA000002401390C9ADEE70F9B30248DE82800B0
:103CB00003A90C9A0D9B8DF80D708DF80C40FFF741
:103CC00003FF07B0F0BD1C460C9ACCE70D9B9B0789
:103CD000C3D52B680F9A9A420ED9BEF1000F11D0AE
:103CE000DEF800302D221A70DEF800300133CEF8F5
:103CF00000302B6801332B600C9B0124013B0C939B
:103D00001A46B0E76FF00100B7E70DF11701A1E720
:103D10002DE9F04FB3B002F1FF3B1D783C9A00242F
:103D200007460B9112940792002D00F0E483A14600
:103D3000DA4680461A4619E0129B9A450ED9B8F128
:103D4000000F00F08D80D8F800301D70D8F80010FA
:103D5000129B01310133C8F800101293144609F187
:103D600001096578621C002D00F0D080252DE3D17B
:103D70005378541C002B00F0C980252B75D02D2BB7
:103D800003BF9378941C012600262B2B6FD00022B2
:103D9000099203E014F8013F46F00206302BF9D0F7
:103DA0002E2B33D0A3F13002D2B2092A2ED906220B
:103DB000089200276C2B04BF63780134682B5BD01A
:103DC000583B202B44D8DFE813F06E034300430038
:103DD00043004300430043004300430043004300CB
:103DE000B501FE018901C500C50043004300430041
:103DF00043004300430043004300D001430043001D
:103E0000AE004300250243004300170200270623AB
:103E10002246BB461D46144612F8013BA3F1300171
:103E20002E2BC8B20ED0092805EB850C07EB870EA8
:103E30000CD8BBF1000F02D000EB4C05EBE701EB17
:103E40004E07E8E700254FF0010BE4E70895B1E7DE
:103E5000129B9A4540F20F82B8F1000F40F0F381B7
:103E60006FF0010033B0BDE8F08F224664E7012215
:103E700063780992144491E763780134583B202B0E
:103E8000E6D801A252F823F0B3440008513E0008DE
:103E9000513E0008513E0008513E0008513E0008C6
:103EA000513E0008513E0008513E0008513E0008B6
:103EB000513E000835410008A9420008DD400008D5
:103EC000553F0008553F0008513E0008513E00088C
:103ED000513E0008513E0008513E0008513E000886
:103EE000513E0008513E00088D420008513E000836
:103EF000513E0008273F0008513E00089D4200083F
:103F0000513E0008513E00089142000847460B9B75
:103F100013F0010303D1002FA2D03A681370484672
:103F200033B0BDE8F08F079BB74D196812A8002980
:103F300008BF294601903A463346CDF800A04046D6
:103F4000079DFFF7C1FD002805F104058ADB8144C8
:103F5000079506E7079B002203F1070E2EF0070ED8
:103F6000DEF800300C931846DEF804301D460A9344
:103F7000294600230EF10805079508F0D3FD002817
:103F800040F07182099B002B40F078811DAB9B466D
:103F90000D93089B072B0ED81D469C4B0C9803EBEA
:103FA000C5030A99D3E9002308F098F90C900A9107
:103FB000002D00F08482089D00230120013300EBD6
:103FC0008000AB424FEA4000F8D1089508F0C2FAF1
:103FD000CDE90E010C980A9908F0F4FD034609900A
:103FE000002800F06881DFF828C2089D0DF14B0E13
:103FF0000020ACFB0312D20802EB8201A3EB4103C9
:1040000030330EF8013F01301346002AF1D10DF193
:104010004C0E0EEB00030BF1FF3213F8011D73453C
:1040200002F8011FF9D12B4608958344002B43D099
:10403000099808F08FFA02460B460C980A9908F086
:104040004BF9DDE90E2308F0FBFA08F0BBFD2E2347
:104050008BF80030002800F05082DFF8B4C1089DD2
:104060000DF14B0E0021ACFB0023DB0803EB8302B8
:10407000A0EB4202303201310EF8012F1846002B1E
:10408000F1D18D42089598BF0DF14C0E40F2F781A9
:104090000DF14C0E4B1E089D7344302201318D42B0
:1040A00003F8012F4FF03000F8D8002940F0E781E5
:1040B0008BF801000BF1020B12A800250190CDF83E
:1040C00000A00D993A46334640468BF80050FFF762
:1040D000FBFC0028FFF6C6AE814442E6079B07338F
:1040E00023F00703D3E900010833079308F08AFDA2
:1040F000054607F089FF002840F0E4806E23612226
:104100008DF874308DF876308DF875200DF1770EBE
:1041100012A900250191CDF800A03A463346404649
:104120001DA98EF80050FFF7CFFC0028FFF69AAECD
:10413000814416E6079B12A9D3F800E03A463346BD
:104140000191CDF800A00025404611A9079E8DF8E9
:1041500044E08DF84550FFF7B7FC002806F104064F
:10416000FFF680AE81440796FBE50020D8F80030CA
:1041700030221A70D8F800307822591CC8F8001084
:104180005A70D8F80030079A0133C8F80030134647
:10419000043309F102091168079300B189B2412281
:1041A000099812AB05900292049300970196CDF8FE
:1041B0000CA0404610220023FFF726FD0028FFF642
:1041C00051AE8144CDE5079A134611680433079335
:1041D0000998612212AB0590029204930097019610
:1041E000CDF80CA040460A220123FFF70DFD002860
:1041F000FFF638AE8144B4E5079A134611680433DC
:1042000007936122CCE700BFE0100108E810010825
:10421000CDCCCCCC079A1346116804330793099888
:10422000612212AB05900292049300970196CDF89B
:104230000CA040460A220023FFF7E6FC0028FFF608
:1042400011AE81448DE5D8F8003025221A70D8F8D7
:104250000020129B511C0133C8F800109A452178A8
:10426000129308D95170D8F80020129B0132013303
:10427000C8F80020129309F1020972E52B238DF88A
:1042800074301DAB0DF1750B0D9382E601206DE7C7
:10429000079A1346043311880793B2E7079A134627
:1042A000043311880793BAE7079A13460433B2F927
:1042B000001007938CE730238BF800300BF1010BD3
:1042C000089BB3E6284607F09FFE0128284640F2E7
:1042D000FB8007F097FE002800F0DD8005F1004527
:1042E0002D2328464FF07E518DF8743008F086FF5C
:1042F000002840F0FD80824B089309944FF0000B9A
:10430000089C06E02846214608F0DAFD05460BF138
:10431000010B7C49284608F085FF4FF07E5118B903
:10432000284608F06BFF28B12846002108F05CFF02
:104330000028E7D0284608F089FF2E2300F130023C
:104340008DF875208DF8763008F066FD0146284618
:1043500008F0ACFC6A49054608F066FE08F076FFF6
:1043600000F130038DF8773008F056FD644908F00D
:10437000A7FD0146284608F099FC6349054608F068
:1043800053FE08F063FF00F130038DF8783008F039
:1043900043FD5D4908F094FD0146284608F086FC7F
:1043A0005A49054608F040FE08F050FF00F130037E
:1043B0008DF8793008F030FD544908F081FD014650
:1043C000284608F073FC5249054608F02DFE08F017
:1043D0003DFF00F130038DF87A3008F01DFD4C49A7
:1043E00008F06EFD0146284608F060FC4949054684
:1043F00008F01AFE08F02AFF00F130038DF87B3038
:1044000008F00AFD434908F05BFD0146284608F024
:104410004DFC414908F008FE08F018FF652300F143
:1044200030024FF080410898099C8DF87C208DF86F
:104430007D3008F001FF80BB2B21384A4FEAEB7337
:1044400082FB0B02C3EBA20202EB8203ABEB430342
:10445000303330328DF87E108DF880308DF87F202B
:104460000DF1810E54E60A9A2D2302F100428DF8D7
:1044700074301DAB0A920DF1750B0D9389E55A4608
:104480000EEB010313F8010D734502F8010FF9D18A
:1044900001318B4410E6202323E7BBF1000F0CBF52
:1044A0002B212D21C9E7079A13460433116807937E
:1044B00075E6079A13460433116807936EE6184BA6
:1044C0000022CDE90E2385E507F09CFD002814BFEE
:1044D00020202D2069216E2266238DF874008DF82E
:1044E00075108DF876208DF877300DF1780E0FE687
:1044F000044B089301E7A94609E50146C8E500BF5A
:10450000CDCCCC3D000020410AD7233C6E12833A2B
:1045100016B7D138ABC52737BC37863567666666B0
:104520000000F03F0EB410B587B009AC54F8043B5E
:104530000390009403A800214FF0FF320594FFF789
:10454000E7FB07B0BDE8104003B0704710B584B07A
:1045500004AC44F8040D0B460092204600214FF0B5
:10456000FF32FFF7D5FB04B010BD00BF10B4084AFE
:10457000084C13680849002B08BF234618441060F4
:104580005DF8044B884294BF18464FF0FF307047E7
:1045900008160020E0160020004C002038B5FDF77A
:1045A00069FB054607F016FB002D06DD00242046BA
:1045B0000134FDF76DFBAC42F9D1002D06DD00247E
:1045C00020460134FDF770FBAC42F9D14FF4FA708C
:1045D000FDF76EFDF1E700BF30B5184C83B02378CE
:1045E0000BB103B030BDFDF70FFBE8B1144915481E
:1045F0000B78002B08BF002104F098FDB8B11249D8
:10460000124D134800F06EF803238DE8280011487E
:10461000002311494FF4806205F000FF2B684BB175
:104620000123237003B030BDFFF7B8FFDEE7FFF7CB
:10463000B5FFE4E7FFF7B2FFF2E700BFCC090020C7
:104640002401000860170108681101080C160020F9
:104650001C2E0108159500086011010830B5194C91
:1046600083B02378F3B9FDF7CFFA28B3164917487A
:104670000B78002B08BF002104F058FDC8B1144985
:10468000144D154800F02EF803238DE82800134838
:10469000002313494FF4806205F0C0FE2B6873B10C
:1046A0000123237006F0BAF803B0BDE83040FFF7ED
:1046B00075BFFFF773FFE2E7FFF770FFD6E7FFF77D
:1046C0006DFFEDE7CC090020240100086017010808
:1046D000681101080C1600201C2E01081595000811
:1046E000601101082DE9F84304461E4A1E4E136866
:1046F000356801331360037888462F2B08BF0134D7
:1047000025B12846214609F0EBFBC8B1B76827B1AF
:104710003846214609F0E4FB90B1D6F81090B9F183
:10472000000F04D04846214609F0DAFB40B15DB1E4
:104730004FB10225B9F1000F06D00020BDE8F88383
:104740000120BDE8F8830125D8F8043098470028F7
:10475000F3D006EBC50346F83540C3F804800120CA
:10476000BDE8F883641600201016002003782F2B74
:1047700001D0002070474378EBB110B4104C226890
:104780001A445278520710D02F2B0ED0013006E079
:1047900022681A445278520707D02F2B05D001F80F
:1047A000013B10F8013F002BF2D1002301200B70D8
:1047B0005DF8044B704700230B700120704700BF69
:1047C0003805002003782F2B01D000207047437854
:1047D000002BFAD010B4114A01301468E21805E039
:1047E0002F2B0CD010F8013FE21823B1527852075A
:1047F000F6D12F2B03D000205DF8044B7047013019
:1048000003782BB101F8013B10F8013F002BF9D1DF
:10481000002301200B705DF8044B70473805002021
:1048200003782F2B01D0002070472DE9F041447808
:1048300088B0451C6F466A46CCB1334BD3F800E0D4
:104840000EEB04035B785B0711D02F2C0FD02846AA
:10485000234604E07678760709D02F2B07D002F89C
:10486000013B10F8013F0EEB0306002BF2D1DFF8FD
:104870009C800023D8F800000E46137020B1394602
:1048800009F02EFB002839D0D8F8080018B13946B5
:1048900009F026FB88B3D8F8100020B1394609F09A
:1048A0001FFB70B3002074B1174B1A68131905E091
:1048B0002F2C0CD015F8014F131924B15B785B072E
:1048C000F6D12F2C03D0002008B0BDE8F0810135CF
:1048D0002B783A462BB102F8013B15F8013F002B2B
:1048E000F9D1002313700028EDD0436831463846D3
:1048F0009B6B984708B0BDE8F081012008EBC00031
:10490000D1E70220FAE700BF38050020101600208A
:104910002DE9F047037888B02F2B80460D4600F133
:10492000010410D04FF00009564FBB680133BB6043
:1049300098F800302F2B3FD0FB6800200133FB603C
:1049400008B0BDE8F08743786E46002B00F09080F9
:104950004D4A1768FA185278520700F089802F2BB9
:104960006A460DD0214604E04078400708D02F2B3E
:1049700006D002F8013B11F8013FF818002BF3D1E3
:10498000424F00233868137018B1314609F0A8FA75
:1049900078B1B86820B1314609F0A2FA00286FD08A
:1049A00038690028BED0314609F09AFA0028B9D1FA
:1049B000022007EBC009B7E798F80130002BBBD005
:1049C000314A1168CA1806E02F2B09D014F8013FAC
:1049D000CA18002BB0D052785207F5D12F2BABD18B
:1049E000013423786E466A462BB102F8013B14F875
:1049F000013F002BF9D100231370B9F1000F9BD0B8
:104A000007F0E8F8224B5868A0B31A69A2B3DA6934
:104A1000A2B39A6A52B15A6B042442B107F0FCF86F
:104A2000D9F8043007221B681A6085E7032404EBD9
:104A3000440AD9F804204FEA8A0A03EB0A08C8F8A6
:104A4000042007F0E9F8D9F804203046136A294613
:104A500098470F4B38B9D9F8043006221B681A6002
:104A6000C8F8040068E743F80A0004F10A0067E7A1
:104A7000324685E70446DAE70124D8E70224D6E780
:104A8000012096E76416002038050020101600204B
:104A900028160020F8B51E4C23690133236120B38A
:104AA0000A3804282DD8002A1DDD4700194B3E186E
:104AB00003EB8606357A6DB93844800003445B68A1
:104AC000144EF3B15B6A30589847002813DB5DB190
:104AD0000130F8BD4FF0000E0D70013A013186F83B
:104AE00008E00125E8E70020F8BD0846BDE8F840E9
:104AF000114603F0E7BD002D14BF01204FF0FF3039
:104B0000F8BD63694FF0FF3001336361F8BD00BF4A
:104B1000641600202816002070B5124C451EA369AB
:104B2000012D03F10103A3610FD90A38042813D81A
:104B300000EB40000C4B80001D186D6865B1EC6AFD
:104B400018582346BDE870401847144608461146D9
:104B500004F006F9204670BDE3694FF0FF300133E1
:104B6000E36170BD6416002028160020F8B5114BD3
:104B70000A381A6B042802F101021A6314D800EBF8
:104B800040000D4D84002E1972686AB1536B28598C
:104B900017689847386007F01DF8002373602B51A1
:104BA00007F03AF80120F8BD5A6B002001325A6331
:104BB000F8BD00BF641600202816002003782F2BB4
:104BC00001D0002070472DE9F0438DB045780DF1FC
:104BD0001008471C4246B5B1434B186843195B782F
:104BE0005B0710D02F2D0ED03C462B4604E0767884
:104BF000760708D02F2B06D002F8013B14F8013FAE
:104C0000C618002BF3D1394E002330680C461370C0
:104C100020B1414609F064F9002863D0B06818B1AA
:104C2000414609F05DF958B1306928B1414609F0B3
:104C300057F94FF0020C28B100200DB0BDE8F08309
:104C40004FF0010C002D3ED0DFF89C90D9F8000009
:104C500043195B78590743D02F2D41D039462B4655
:104C60006A4606E09EF801E01EF0070F09D02F2BE0
:104C700007D002F8013B11F8013F00EB030E002BB7
:104C8000F0D1D9F8001000204B195B7810705B0749
:104C900007D116E017F8015F4B19A5B15B785A07E9
:104CA0000FD02F2DF6D101373B780DF111022BB12A
:104CB00002F8013B17F8013F002BF9D100231370D4
:104CC00004E02F2DEFD02F23ADF8103006EBCC06EB
:104CD00073684046DB6B214698470DB0BDE8F08312
:104CE0006A46CEE78446ADE738050020101600205E
:104CF00001207047024600230B601846136070477E
:104D00000020704700207047002070470020704747
:104D10004FF0FF30704700BF10B40F4B013853F80D
:104D20003040ACB1002A0FDD03EBC00252681144E1
:104D300000290DDBA26891420ADC03EBC0030846A0
:104D400059605DF8044B70471CBFA268511AEFE729
:104D50004FF0FF30F5E700BFD40900200020704776
:104D6000034B0138002243F830200120704700BF78
:104D7000D4090020074900220B4643F8042B0433D2
:104D80004A6043F8042B43F8042B43F8042B1A60C1
:104D900001207047D40900202DE9F0410646114D4D
:104DA000114F002457F834304FEAC4082BB10134B6
:104DB000032CF7D10020BDE8F081286820B9F6E780
:104DC00055F80C0F0028F2D0314609F089F8002878
:104DD000F6D1B844C8F8040047F83450601CBDE868
:104DE000F08100BF14120108D409002070B50546F7
:104DF0000E46084C084802E054F80C0F40B1294612
:104E000009F06EF80028F7D1A3680120336070BD67
:104E100070BD00BF14120108A8110108F8B5104BAD
:104E2000013853F83050BDB103EBC0067768AB686A
:104E3000DB1B23EAE3739A42A8BF1A4614460AB959
:104E40001046F8BD08466968394408F011FD7268DB
:104E5000204614447460F8BD4FF0FF30F8BD00BF29
:104E6000D409002038B50D46084909F039F850B981
:104E7000074C0848A1680022A84754F80C0F0028E6
:104E8000F8D1012038BD002038BD00BFB0110108A5
:104E900014120108A8110108F0B589B0431E0A1DBB
:104EA0000F4602A81C490026FEF7DEFB354602A984
:104EB0006846FEF7E7FB1949044680B1009BEBB159
:104EC0005C68204609F00CF8154930B1204609F01D
:104ED00007F80028EBD1019EE9E70125E7E7B6B125
:104EE000304604F011F80F4A0F4B002814BF10464B
:104EF000184603F05BFF204609B0F0BD38686946EC
:104F0000054AFEF7B7FD0446204609B0F0BD294624
:104F100004F03AF80446EEE7301701085812010889
:104F20005C120108DC2B0108982D01082DE9F04FD7
:104F30008FB00A1D431E4FF47A754FF0FF34804640
:104F40000E4608A8424904950594FEF78DFB414C96
:104F5000414D424F4FF0000906A808A9FEF792FB09
:104F6000002858D0069B002B67D05B68A34248D02E
:104F7000AB4256D0BB42EFD10B9B56F8230003F057
:104F8000C3FF0B9F8246C7EB0803019306EB87071D
:104F9000002840D0324B98423DD0324E4FF0000BAB
:104FA00001983946D0478046002834D1B9F1000F26
:104FB00004D0059B0BF1010B9B451EDA049BFA24E0
:104FC000032B9CBF0423049305F038FD054605F030
:104FD00035FD049B022104FB03F3A6FB032305EB31
:104FE00093139842DCD20DF10F00FDF721FC013044
:104FF000EDD09DF80F30032BE9D140460FB0BDE84E
:10500000F08F04A90798FEF76FFA06A808A9FEF723
:1050100039FB0028A6D14FF0010840460FB0BDE88B
:10502000F08F079805A9FEF75FFA059B4FF001097D
:10503000002B91DC4FF0FF38DFE7306806A9044A07
:10504000FEF718FD804640460FB0BDE8F08F00BF68
:105050007C190108C42B0108B02D01089C2D010802
:105060002D4F0008D34D621070B58AB0431E0A1D43
:105070000E4604A84FF47A7416490194164DFEF7B3
:10508000F3FA04E0029BB3B15B68AB421CD002A808
:1050900004A9FEF7F7FA04460028F3D10198FA2391
:1050A00003FB00F30D48A0FB0330800905F00CFE64
:1050B00020460AB070BD306802A9064AFEF7DAFC45
:1050C000044620460AB070BD039801A9FEF70CFA09
:1050D000DDE700BF38120108102C0108D34D621023
:1050E000012813DD70B506460D46012401E003F0EA
:1050F00047FE55F8040F013403F042FEB442044861
:10510000F5D1044803F03CFE002070BD002070473C
:105110000C260108701E0108F8B5037C0446002B1C
:105120000F4614BF01258025082615E0FDF780F8FD
:10513000A068FCF773FFA1882078FDF779F8A068D4
:10514000FCF76CFF2078A188FDF77AF8237C6A00D1
:105150004BB1013ED5B20AD03D426078E188E5D13D
:10516000FDF76EF8E4E7013E4FEA5505F4D1E1881A
:105170006078FDF75DF8A068FCF750FF2078A18803
:10518000FDF756F8E1886078FDF774F80546A068E9
:10519000FCF744FF2078A188FDF752F8B5FA85F0B6
:1051A0004009F8BDF8B5274E074656F820400D4691
:1051B000002C3DD02078A188FCF798FF6078E1882A
:1051C000FCF794FF2B686868A968EA682360606050
:1051D000A160E260A178E2782B69012505FA02F26C
:1051E00005FA01F12361E280A180207889B2FCF701
:1051F000CFFF6078E188FCF7F3FFE1886078FDF786
:105200001FF8A068FCF70AFFA1882078FDF718F8BE
:10521000A068FCF703FFA1882078FDF709F8A068D3
:10522000FCF7FCFE6078E188FDF702F82846F8BD3F
:10523000142006F04DFC044610B146F82700C1E7E3
:10524000F8BD00BFF00900202DE9F84F914CDDF8C2
:1052500028A054F82040002C00F0F6800D461E4691
:1052600091466078E188002B34D0FCF7E1FFA0681C
:10527000FCF7D4FEA1882078FCF7DAFFA068FCF7E1
:10528000CDFEE1886078FCF7DBFFA068FCF7C6FE86
:105290002078A188FCF7D4FF0B9B002B5BD09DF8F6
:1052A0002C102046FFF738FF002800F0D680002E93
:1052B000C8BF761906DD15F8011B2046FFF72CFF45
:1052C000B542F8D1BAF1000F49D10C9B23B30120AC
:1052D000BDE8F88FFCF7ACFFA068FCF79FFEA18843
:1052E0002078FCF7A5FFA068FCF798FEE1886078BD
:1052F000FCF7A6FFA068FCF791FE2078A188FCF7D8
:105300009FFF0B9B23BBE3685B00D9B22046FFF7EE
:1053100003FF002800F0A180E1886078FCF790FF8F
:10532000A068FCF77BFEA1882078FCF789FFA068C5
:10533000FCF774FEA1882078FCF77AFFA068FCF7E0
:105340006DFE6078E188FCF773FF0120BDE8F88FFF
:105350009DF82C10DAE7E3685B00D9B2A1E7E18899
:105360006078FCF765FFA068FCF758FEA1882078FC
:10537000FCF75EFFA068FCF751FEE1886078FCF75F
:105380005FFFA068FCF74AFE2078A188FCF758FF71
:105390000B9B002B5BD09DF82C102046FFF7BCFE2A
:1053A00000285AD0BAF1000F8FDD09F1FF390AF158
:1053B000FF3B4FF00008237C6078002BE18814BF8E
:1053C000012680260825FCF733FF002702E0013D77
:1053D000D6B21BD0A068FCF721FE2078A188FCF78C
:1053E00027FF6078E188FCF745FF00B13743A068EC
:1053F000FCF714FE2078A188FCF722FF237C7200C2
:10540000002BE4D1013D4FEA5606E3D1C345607855
:10541000E18816DCFCF70CFFA068FCF7FFFDA18813
:105420002078FCF705FFA068FCF7F8FD08F10108FB
:105430002078A188FCF704FFD04509F8017FBAD194
:1054400043E7FCF7FDFEE7E72046BDE8F88FE36899
:10545000590041F00101C9B29FE7E1886078FCF78B
:10546000EFFEA068FCF7DAFDA1882078FCF7E8FEE3
:10547000A068FCF7D3FDA1882078FCF7D9FEA068CE
:10548000FCF7CCFD6078E188FCF7D2FE4FF0FF30EE
:10549000BDE8F88FF00900202DE9F04FADF5177D3C
:1054A00000240A1D431E012605258246894610A8B0
:1054B000A54908948DF82C408DF82D408DF82F408B
:1054C0000E948DF83C408DF82E600D95A046FEF7A9
:1054D000CBF8A346059404949C4D9D4C9D4E09A881
:1054E00010A9FEF7CFF828B3099B002B00F0A78086
:1054F0005F68A74255D0AF4260D0B74263D0964AAA
:10550000974248D0954A974255D03846944908F07A
:10551000E7FC002842D03846924908F0E1FC002818
:1055200056D1012309A810A98DF83C30FEF7AAF83E
:105530000028D9D1049B002B40F0DB80059B002B79
:1055400040F0DF80139A059C01325245139207AE5A
:1055500080F09B8016AD0AE0139A33680132524501
:105560002B551392294604F1010480F08F8059F8DD
:1055700022003146FDF7B8FF0028EDD17A4803F04C
:10558000FFFB139B59F8230003F010FC01200DF5DD
:10559000177DBDE8F08F01230493A0E74FF0010BC6
:1055A0009DE70A980EA9FDF79FFF002800F0C08034
:1055B0004FF0010893E70123059390E70A980DA99E
:1055C000FDF792FF8BE70A9808A9FDF78DFF86E7A4
:1055D0003846664908F084FC68B13846644908F0EA
:1055E0007FFC002835D0634A97427FF478AF139B45
:1055F000013B13939EE706A90A980A2209F096FE3A
:10560000069B8DF82C00A3B11A782E2A11D1581CB4
:1056100006905B786BB106A90A2209F087FE069B0B
:105620008DF82E00002B3FF45AAF1B78002B3FF46F
:1056300056AF514803F0DCFB4FF0FF3005E0D9F8DE
:10564000000009A9404AFEF715FA0DF5177DBDE8DF
:10565000F08F06A90A980A2209F068FE069B8DF8C9
:105660002D00002BE5D01A782E2AE2D1581C069086
:105670005B78002BDDD006A90A2209F057FE069BB5
:105680008DF82F00002BD0D129E716A9089AB8F180
:10569000000F49D00E9B56AD8DE80C080020234624
:1056A0002A46FFF7D1FD306000283FD0013045D0B9
:1056B000089B002B1BD04FF00003336017DD1C4606
:1056C00005E03368089A01339A4233600BDDE95CE8
:1056D0002A4803F0BBFB04444E2CF2DD0A2003F001
:1056E00021F80024EDE714B10A2003F01BF8002094
:1056F000ABE70BA90020FFF755FDB0FA80F0400999
:10570000A3E71F4D2C68002CF1D02078A188FCF76E
:10571000EDFC6078E188FCF7E9FC204606F0E4F94E
:10572000049B2B60184690E74346B4E701208CE7C2
:10573000204603F05DFB4FF0FF3086E7114803F091
:1057400057FB022081E700BF001C0108802C0108E4
:105750009C2B0108842B0108502D0108CC2C01083A
:105760005C1A0108641A0108701A0108681A010815
:105770006C1A0108B82D0108242D0108801A0108AF
:10578000F00900207C1A0108F8B52C4D074655F8A1
:1057900020400E46002C47D020782189FCF7A6FC3B
:1057A00060786189FCF7A2FCA078A189FCF79EFCD7
:1057B000E078E189FCF79AFC72683068B368F168B8
:1057C0006260E160A36094F807C02060217994F8DA
:1057D00005E0A7797269B3693069012505FA0EFE03
:1057E00005FA0CF605FA01F105FA07F76261A36103
:1057F000A4F80AE02181206189B22078A781E6819E
:10580000FCF774FC60786189FCF7C2FCA078A18980
:10581000FCF7BEFCE078E189FCF7BAFCE078E189AE
:10582000FCF706FD2846F8BD1C2006F051F9044699
:1058300010B145F82700BFE7F8BD00BFEC09002014
:105840002DE9F04F5B4C83B054F820A0BAF1000F63
:1058500000F0AC801C469AF818300D4693469AF832
:105860000200BAF80C10002B79D1FCF7E9FC9AF889
:105870000300BAF80E10FCF7E3FCDAF81000FCF7AE
:10588000CDFB002C78D02B1F009401930125019AA9
:10589000DAF8143052F8047F9AF8198001929AF8D5
:1058A0001890002B61D00026344637E0E2431344C1
:1058B00005FA03F33B429AF80100BAF80A1039D00E
:1058C000FCF7B6FCC8459AF80200BAF80C1039D0BB
:1058D000FCF7AEFCDAF81000FCF7A0FB9AF8020027
:1058E000BAF80C10FCF7ACFC9AF80000BAF80810F3
:1058F000FCF7C0FC48B19AF81A309BBBDAF81430B8
:10590000013B1B1B05FA03F31E43DAF81000FCF7FA
:1059100085FBDAF814300134A34227D99AF81A200B
:10592000002AC3D005FA04F33B429AF80100BAF802
:105930000A10C5D1FCF784FCC8459AF80200BAF8F1
:105940000C10C5D1FCF77CFCDAF81000FCF766FB04
:105950009AF80200BAF80C10FCF76AFCC4E7FCF7EE
:1059600067FC84E705FA04F3CEE71E46009B4BF87C
:10597000046B013B00938AD19AF818307BB19AF8F6
:105980000200BAF80C10FCF753FC9AF80300BAF8BE
:105990000E10FCF74DFC012003B0BDE8F08F9AF823
:1059A0000200BAF80C10FCF74BFCEEE7504603B0CF
:1059B000BDE8F08FEC0900202DE9F04FA04FADF6C7
:1059C000540D00240A1D431E0526082583468A46D9
:1059D00007A89C490E97119612950D948DF84C408E
:1059E0008DF84D408DF84E400194A046FDF73CFEE9
:1059F000A146954D954E964F05A807A9FDF742FE85
:105A0000F8B1059B002B00F0AF805C68AC425CD025
:105A1000B4424BD0BC4260D08E4A944249D08E4AA8
:105A2000944257D020468D4908F05AFA002843D1B5
:105A3000012305A807A98DF84C30FDF723FE0028A7
:105A4000DFD1B9F1000F40F08480019B002B40F0C2
:105A500036811C460A9801300A90834540F24F81F6
:105A600014AB03EB84055AF82000294604AAFDF77D
:105A70005DFD002800F0658129460A98049B0130ED
:105A800001340A90002B79D00A680134B4F5807F84
:105A900003F1FF3341F8042FF4DD7148049303F060
:105AA000A7F901200DF6540DBDE8F08F4FF0010865
:105AB000A2E74FF001099FE720466A4908F010FA73
:105AC000D0B901238DF84D3096E7069811A9FDF75E
